:10000000404300209D89000001CA011001CA01106F
:1000100001CA011001CA011001CA011001CA011070
:1000200001CA011001CA011001CA011001CA011060
:0C00300001CA011001CA01103FCA0110F2
:10003C0010B5094C04F11001201D03F00EF82060DE
:10004C0010BD0A46C1B20448006803F0C3B880B5BD
:10005C0003F0A1F8C0B202BDD80200200268531C04
:10006C000360117070470000002203F0A1BD000076
:10007C00026892681047000002685269104700003D
:10008C000149086070470000A002002081B00120E7
:10009C008DF800009DF800000028FBD101B07047DE
:0600AC00704701207047BF
:100100003C0000000000000000000000340100007E
:1001100000000000000000000100000000000000DE
:1001200000000000000000000000000001000000CE
:0C013000000000000800000000000000BB
:10013C003400000000000000000000006801000016
:10014C0000000000000000000100000000000000A2
:10015C00010000000000000000000000080000008A
:04016C00000000008F
:1001700030000000000000000000000098010000B6
:10018000040000000000000001000000FFFFFFFF6E
:10019000FF00000001000000080000000000000057
:1001A0002C0000000000000000000000C40100005E
:1001B000040000000000000001000000FFFFFFFF3E
:0C01C000FFFFFFFF08000000000000002F
:1001CC0034050000E401000099A1011095A701106D
:1001DC00A5C2011009B2011045B8011000000000C1
:0801EC00000000002F000000DC
:1001F40028000000000000000000000014020000BD
:100204000000000000000000FFFFFFFF00000000EE
:080214000800000000000000DA
:10021C00300500003002000069C201106DC10110F0
:10022C001FC2011095BA0110000000000000000070
:04023C002D00000091
:10024000300500005402000075C20110A9B601106B
:100250009DBF011049B60110000000000000000021
:040260002E0000006C
:1002640024000000000000000000000080020000E4
:100274000000000000000000000000000800000072
:040284000000000076
:10028800240000000000000000000000A40200009C
:10029800000000000000000000000000080000004E
:0402A8000000000052
:1002AC00240000000000000000000000C802000054
:1002BC000000000001000000000000000800000029
:0402CC00000000002E
:1002D00000000000A805002004000000000000004D
:1002E000000000002000000070010000300000004D
:1002F0001C020000C80500200400000000000000EF
:10030000000000000C000000300400001800000095
:1003100040020000D00500200400000000000000A2
:100320000000000024000000480400001800000045
:100330000000000010060020040000000000000083
:100340000000000010000000A00100002C000000D0
:10035000CC0100001806002004000000000000008E
:1003600000000000200000006402000024000000E3
:10037000FFFFFFFF3806002004000000000000001F
:100380000000000028000000880200002400000097
:10039000FFFFFFFF680600200400000000000000CF
:1003A00000000000580000003C0100003400000084
:1003B000FFFFFFFF700600200400000000000000A7
:1003C00000000000100000006004000018000000A1
:1003D000FFFFFFFF7806002004000000000000007F
:1003E000000000001C000000AC020000240000001F
:1003F000FFFFFFFF80060020040000000000000057
:100400000000000038000000F40100002800000097
:10041000FFFFFFFFE80600200400000000000000CE
:100420000000000054000000000100003C0000003B
:100430001800000000000000000000004004000060
:080440000800000000000000AC
:100448001800000000000000000000005804000030
:08045800080000000000000094
:100460001800000000000000000000007004000000
:0804700008000000000000007C
:0804780001000000E88900000A
:040484000100000073
:0404880000000E0062
:04048C0000000F005D
:040490003200000036
:040494000100000063
:04049800B00500208B
:04049C00000200005A
:0404A0000000000058
:0404A40001CA011078
:0404A8000000000050
:0404AC00000000004C
:0404B0000800000040
:0404B4000000230021
:0404B800D805002043
:0404BC00010000003B
:0404C00020060020F2
:0404C400080000002C
:0404C8000000000030
:0404CC00000000002C
:0404D0000000000028
:0404D4000000000024
:0404D8000000000020
:0404DC00010000001B
:0404E000880600206A
:0404E400060000000E
:0404E800010000000F
:0404EC00F0060020F6
:0404F0000000000008
:0404F4000000000004
:0404F80000020000FE
:0404FC0000000000FC
:020502002900CE
:020504000100F4
:020506002500CE
:020508002D00C4
:02050A002E00C1
:02050C002F00BE
:02050E000100EA
:0105100001E9
:0805140004000000C88900008A
:08051C000000000000000000D7
:0405240000000100D2
:0405280000000300CC
:04052C0087C401106F
:04053000380500008A
:040534003805000086
:0405380000000000BF
:04053C00900000002B
:040540009000000027
:0405440000000000B3
:040548002006002069
:04054C00F134000086
:040550002000000087
:04055400B489000066
:040558008087000098
:04055C000DC30110BA
:04056000513B00000B
:04056400533B000005
:0405680099C801101D
:04056C009BC8011017
:040570000000000087
:040574007A00000009
:04057800C086000039
:04057C00D88600001D
:04058000A886000049
:0205840008006D
:0205860009006A
:02058800010070
:02058A0000006F
:01058C00016D
:040590000000000067
:040594000000000063
:04059800000000005F
:04059C00000000005B
:0405A0009D3A000080
:0405A400BD3A00005C
:0405A800C139000055
:0405AC00E73A00002A
:0405B000093A000004
:0405B400DF3900002B
:0405B8003B3A0000CA
:0405BC00133B0000ED
:0405C000693400009A
:0405C400B535000049
:0405C800B935000041
:0405CC000800000023
:0405D0002400000003
:0405D400180000000B
:0405D80028000000F7
:0405DC0020000000FB
:0405E0003C000000DB
:0405E4000C00000007
:0405E80034000000DB
:1005EC00DFF800F0D9C10110DFF800F025B10110DF
:1005FC00DFF800F041AC0110DFF800F013C101107E
:10060C00DFF800F0B9C2011000B583B000F00DF8AE
:10061C00032114E0E0B500F008F8042100F012F812
:10062C0008B100200EBD02980EBD0821ADF80010D7
:10063C000190704700B583B0FFF7F7FF052100F07C
:10064C0001F807BDADF802106846DFF8401C0968D8
:10065C0008470D20FFF7FBBC0E20FFF7F8BC002865
:10066C0004BF032001F0E6B9FFE7032001F0D0B985
:10067C0001210620FFF7E5BC38B500F014F840F076
:10068C00F00006E038B500F00EF800F00F0040F076
:10069C001000E070204601F009FB00F040F8BDE8C6
:1006AC00344001F0AFBADFF8E85BDFF8E84B01202B
:1006BC00287004213C202070022060700120A07062
:1006CC00DFF8180D007B704730B5DFF8C45BDFF83E
:1006DC00C44BDFF8080D017BB0F92E0095B001F08A
:1006EC000F018DF802000212032028708DF8001003
:1006FC003C2020708DF80120022060700320A07037
:10070C0000201DF800202318401C0328DA70F8DBA9
:10071C000621204601F0CAFA00F001F84BE02978D6
:10072C006218491DD07089B20D2010712046704797
:10073C0030B5DFF8A80C017B95B001F00F018DF8F6
:10074C000010002111E0DFF8983CC1EB4114234468
:10075C006A445C7B54709C7B9470DC7BD4701B7CF7
:10076C0013714318491C1B7D537101EB8102837B70
:10077C009942E8DBDFF8184BDFF8185B501C20704F
:10078C0000213C202870022068702078A87004E0BA
:10079C001DF801206B18491CDA708142F8DBC11C72
:1007AC00284601F083FA21786A18491DD07089B265
:1007BC000D201071284601F025FA15B030BD00B59A
:1007CC008FB008233C2200216846FFF709FFDFF8B1
:1007DC00800D00F15001079100234FF458710891DE
:1007EC006A46012106910FF26521FFF7FDFE0FB05D
:1007FC0000BD3EB50820ADF800000120DFF88C1AD2
:10080C00DFF8D84B0968ADF8020041F2680568467C
:10081C0088479DF804006073029860644FF4CC70B4
:10082C00204401F0BFFAA0644FF4D270204401F0D0
:10083C00B9FAE06400230020019000904FF47A7222
:10084C004FF4A870DFF80C1D204401F067FA40202B
:10085C0000F0F6F82A464FF49670DFF8FC1C2044A2
:10086C0001F05CFA802001904FF416630120009097
:10087C001A464FF48470DFF8E41C204401F04EFA61
:10088C004FF4005001900120009004F15400DFF867
:10089C00D02CDFF8D01C134601F040FA4FF4007056
:1008AC0001904FF47A63002000901A46DFF8B81CD0
:1008BC0004F1C00001F032FA4FF4004000F0C0F82F
:1008CC00FA22DFF8A81C04F19C0001F027FA4FF47F
:1008DC00804000F0B5F841F28832DFF8941C04F146
:1008EC00780001F01BFA4FF4807001900023012076
:1008FC0000903222DFF8741D04F1E40001F00EFACE
:10090C00DFF86C0D01F0BAFA4FF6FF7060846A469E
:10091C0000206062012132208DF8000040F204407A
:10092C0001F032FB2946022001F0E7FE29460320A4
:10093C0001F0E3FE0FF2F0021521002001F0FCFDA6
:10094C0044F6C740019001208DF8030000208DF87B
:10095C0002008DF8010001208DF8000001AA04218D
:10096C004FF4816001F018FF0DF1030201214FF4E7
:10097C00806001F011FF0DF10202012140F20240F2
:10098C0001F00AFF0DF10102012140F2034001F0D8
:10099C0003FF6A46012140F2064001F0FDFE01F022
:1009AC0095FD607BDFF8585D01F0A2FD4FF0FF3044
:1009BC0001F0BFFD4FF0FF3001F07FFD4FF4E87008
:1009CC00204401F0CFFA4FF4EA70204401F027FDE7
:1009DC00607B01F021FDDFF8400D01F052F9607BE6
:1009EC0001F071FD01F0D4FFFFF722FBDFF84C0D95
:1009FC0002F0EBF800F0CEFFFC212846FFF734FBA9
:100A0C0028782070012168786070A878A070E87848
:100A1C00E070287920710720FFF713FB012100F00B
:100A2C004EFB37BD0000000053696D706C652042B1
:100A3C004C452043656E7472616C00000000000030
:100A4C000190002300200090704700002DE9F04F2A
:100A5C0087B0FFF7CEFEDFF884790FF22469DFF858
:100A6C00A06CDFF8284840F6C41807F19C0A05E092
:100A7C0000F057FB02207885002038850820ADF85F
:100A8C0000000A20ADF802004FF0FF3001906846DC
:100A9C002168884720BB0820ADF80C000920ADF870
:100AAC000E0003A8216888479DF81210059DB8B95F
:100ABC00BDF81000102801BF787B8142284600F059
:100ACC0050FB6DB12846FFF79FFD09E0B86C01F0B3
:100ADC0094F9050004D000F06FFB2846FFF7AAFD3F
:100AEC00B86CFFF789FD0028F0D0F86CFFF784FD97
:100AFC0060B9F86C01F081F90500F6D02978681C12
:100B0C0000F049FE2846FFF795FDEEE7788E4FF48E
:100B1C0096717D18C10545D54FF6FF610840788662
:100B2C0007F1E40B787A01285FD1FFF792FD0028DA
:100B3C003DD1B87C401CB874C0B21F2833DB0520F3
:100B4C003885FC21012038650020B8743046FFF749
:100B5C008BFA892030703246002070707080FC2136
:100B6C001920307189203870002078707880192015
:100B7C003871892001F093FF07F1780001F0F2F849
:100B8C00584601F006F900F0CCFA00F0D1FA00F06A
:100B9C00C4FA00F0DBFA08B101F044FA00F0B8FA3C
:100BAC0000207872A0E0584601F0DCF81DE0386DAA
:100BBC0001280BD1584601F0ECF807F1780001F050
:100BCC00E8F8284601F0E5F8FFF756FD00F0BBFA0F
:100BDC0000F0AEFA00F0A8FA00203865B87478720C
:100BEC0032463221892001F05AFF787A02287BD1D3
:100BFC00FFF732FD88BBB87C401CB874C0B23D28EE
:100C0C0029DB0620388505210020B874484600F001
:100C1C00F9FF00207872B87801000ED0062806DAA9
:100C2C000021CAB2824238BF491CFAD305E0411FE9
:100C3C0000E0491CCAB28242FBD339783170797812
:100C4C00B0707170F878F0703879307104203865B4
:100C5C006420B87228E0584627E0B97A3B8D386C8E
:100C6C000A0013D1062B23D000217972B974042108
:100C7C0039656421B97201F0DDFF00F064FA00F00F
:100C8C0057FA00F051FA00F00CFA0DE064290FDA73
:100C9C006421B97201F0CEFF00F055FA00F048FA69
:100CAC0000F042FA00F00EFA504601F05BF81BE03F
:100CBC006529ACBF01200020062B0CBF01210021AF
:100CCC00084311D00020B872FFF7C9FC00F030FACD
:100CDC0000F02AFA00F03EFA00F0E8F90521484647
:100CEC0000F090FF00F028FA788EC10711D54FF66E
:100CFC00FE71084078860020B863F88601203874AD
:100D0C0002A9B88F7A7B001FADF80800B88E01F0ED
:100D1C007DFC788E410622D54FF6BF71084078864F
:100D2C00B87B30B900230FF61432002100F080FF9D
:100D3C0009E0FFF7FDFC00F009FA08B101F072F9C7
:100D4C00386C01F077FF386D012808D100F0E5F917
:100D5C0000F0FCF908B101F065F900F0D9F9DFF801
:100D6C00C81A09684FF47A70B0FBF1F04CF25031AC
:100D7C004843DFF8B81A08604FF4847007EB000B97
:100D8C00788E80053FD501F0E4FE0146DFF8A00A1D
:100D9C0001704FF6FF52788E1040788607F1C00034
:100DAC0079BB00F0DFFF584600F0DCFF388D0128DE
:100DBC0029D1DFF8AC1707F1540000F0D5FF032060
:100DCC0078850020388501F04FFF4045F8850BDA17
:100DDC0000F0A7F9022078850E21002038850FF647
:100DEC00382000F00FFF0EE0012100F068F900F050
:100DFC0094F900F0ABF908B101F014F900F088F99E
:100E0C0001E000F0AFFF788E01064ED54FF67F71F2
:100E1C0008407886F87A401CF87201F025FFF885B6
:100E2C00F87A642804BF0020F872307800283CD08F
:100E3C00387A012814D100F045F90020387200F0FE
:100E4C0030F9FC21304600F0DDFE307838707078D7
:100E5C007870B078B870F078F8703079387124E028
:100E6C00022808D100F02EF900F03DF9F978D1A054
:100E7C0000F0CEFE17E003280BD100F034F9F9781E
:100E8C00CCA000F0C5FE00203872042000F048F918
:100E9C000BE0042802D10120388504E0052804D198
:100EAC00032000F03DF900203872788E410403D500
:100EBC004BF6FF7108407886788E010417D5C0F385
:100ECC000E00B98D7886491C386DB98598B900F03B
:100EDC002FF9388E401C388600F0D6F800F021F936
:100EEC0000F0D6F8B88D022802DAFFF7EDFBA5E08A
:100EFC001528FCDB2EE001281CD100F019F9388EE6
:100F0C00401C388600F00DF900F0BEF8052038853D
:100F1C0000F0BEF8388E142190FBF1F1142202FB84
:100F2C00110008B9FFF7AEFB388EC92833DB00205F
:100F3C00388630E0052818D100F0FAF800F0C7F830
:100F4C00388E00F0B6F800F09FF800F0EAF8B88D93
:100F5C00152873DB00F0F7F800F0EAF800F0E4F87D
:100F6C0000F0F8F800F0A2F85BE0042840D1B87A61
:100F7C00142816DA00F0DCF8388EB97A401C388662
:100F8C00491CB97280B200F094F800F0CAF800F075
:100F9C007BF800F07DF8B88DC9284FDB0020B885B0
:100FAC004CE005D100F0CFF800F0C2F800F0BCF82E
:100FBC00B87A401CB87200F067F800F0B2F8B87A52
:100FCC00642810D101210020084337D00020388636
:100FDC00B885B87200F06AF807F1540000F0C2FE50
:100FEC0000F0AAF82AE000217828ECD10120EBE7E8
:100FFC00032819D100F09CF800F069F800F091F882
:10100C0000F042F8B88D292818DB00F09CF800F0AD
:10101C008FF800F089F800F09DF800F047F80020F8
:10102C0038650120388509E000F08DF800F080F873
:10103C0000F07AF800F08EF800F038F8788E810421
:10104C001CD54DF6FF7108407886584600F08AFE94
:10105C0001F00AFE4045F885FFF60AAD02207885BE
:10106C0001210020388500F02AF800F056F800F035
:10107C006DF808B100F0D6FF00F04AF8FEE400006D
:10108C004F4B210D0A00000007F1540000F081BE07
:10109C00388E00EBD0714908A0EB4100C0B2FFF7CD
:1010AC00DEBA3246FC21892001F0E4BC504600F047
:1010BC0070BE00EBD0714908A0EB4100C1B2062014
:1010CC00FEF7BFBF3246FC21892001F0E8BC388E08
:1010DC00401C388680B200EBD0714908A0EB41006F
:1010EC00C0B2FFF7BCBAB8787978FA783B78401C74
:1010FC00491C521CB8707970FA70B07033707170F2
:10110C00F270324638793071FC21892001F0C7BC6D
:10111C0000220121032000F06FBF284600F022BE00
:10112C003865504600F01EBE00210620FEF789BF30
:10113C0000210720FEF785BF002038650120388587
:10114C00386C01F077BD0020FFF789BA0020B87326
:10115C0000F068BF00203886B88507F1540000F015
:10116C0001BE00B585B0017891290BD0B02905D00E
:10117C00D0291DD105B05DF804EB8DE005B05DF80C
:10118C0004EB44E141780E2902BF818841F205420B
:10119C0091420DD100F0A0F980680FF2407390F9E4
:1011AC0003004042009004218C48006C01F047FD84
:1011BC0005B000BD256C64002DE9F041054686B0F4
:1011CC002888864C022834D0042838D008281CD013
:1011DC0010280AD0202856D16868FFF7C2FF68682B
:1011EC0006B0BDE8F041FFF70FBAA878C10744BFBD
:1011FC0001216172800744BF0220607204F1E40097
:10120C0006B0BDE8F04100F0ADBD6C6860884FF6EB
:10121C00FF71884237D0012101F089FA98B32188F7
:10122C00606800F0A1FD608806B0BDE8F04101F0F7
:10123C00A7BB68680178A87800F055F91DE06868CC
:10124C00A78E067801F066FCDFF8E815DFF8E425D8
:10125C00B0FBF1F102FB110856B100F0D2F8CDF859
:10126C0000800022206C0FF2F463042101F0E7FCF3
:10127C0042460021384601F0DBF8686806B0BDE84C
:10128C00F041FFF7D7B906B0BDE8F0814803002064
:10129C00382200204823002070B5504CA67B86B025
:1012AC0005464FF6FE70A97841B1012959D00529A0
:1012BC0062D0062975D00D2912D08DE06889A087DF
:1012CC00E81C00F0A7FD00F095F80346206C002206
:1012DC00012101F0B4FC00F0CDF90FF2705345E0A0
:1012EC00E878002878D128690FF298610C2209302F
:1012FC0001F0CAFC00286FD1701CA073C0B2384931
:10130C00C0EB401300221944AB188E185B7906F819
:10131C001F3C521C092AF7DB092200F063F80D2A46
:10132C00FBDB0D2200F05EF80F2AFBDB0F2200F036
:10133C0059F8112AFBDB628D01F80E2C2218E97A80
:10134C00D174052848DBFFF7F3F90020A07300F0F7
:10135C0069FE08B100F066FE06B0BDE87040FFF70C
:10136C0087B900F04EF800960FF2EC43206C002287
:10137C00022101F064FC2FE0697869B90220E07366
:10138C006889A086608F38BB4FF4A870204406B0E3
:10139C00BDE8704000F0E6BC0021E173A08621742A
:1013AC001AE00021E173A08621746187AD88608CFE
:1013BC00A84211D1606A00F0ECFC608CA8420BD101
:1013CC00606A30B1FFF71CF9606AFFF733F900204F
:1013DC0060624FF6FF70608406B070BDCC030020D5
:1013EC007C1A00202B6913448E181B7B06F81F3CBB
:1013FC00521C7047002104910391029101910091BC
:10140C007047002004900390029001907047DFF821
:10141C00281410B50446C87B022886B054D16378D2
:10142C00086C2279162B05D1009200F055F80FF2BA
:10143C00384337E00B2A0AD0012A0FD1227A0A2A24
:10144C0017D100F09FF80FF23443217B28E000F015
:10145C0099F80FF23843E168097821E0132A10D18A
:10146C004A7C0092531C4B7400F036F80FF23C434C
:10147C0018E0122A23D100F085F80FF22043217BCB
:10148C000EE07E2A05D100F07DF80FF23043217A70
:10149C0006E07F2A0AD100F075F80FF2304321895B
:1014AC0000910022042101F0CAFB0DE01B2A06D199
:1014BC006189E0680023002200F0BAFB04E0087C9C
:1014CC0010B1204600F064F8217904F1080006B050
:1014DC00BDE8104001F0A9B90021049103910291DB
:1014EC000191002270470200DFF84C0300B5006C3C
:1014FC0085B004D1FFF77EFF0FF2F03321E0012A13
:10150C000B460AD121B900F035F80FF2F03319E08F
:10151C0000F037F80FF2F43313E0022A05D1A1B929
:10152C0000F028F80FF2F8330CE0032A0DD121B9A2
:10153C0000F020F80FF2F83304E000F022F80FF27C
:10154C0004430022022101F07AFB05B000BD00002B
:10155C00B41B0020DD160000E71600003D1700004C
:10156C0020BF0200191700000117000033170000FC
:10157C00291700000491039102910191009100221E
:10158C0070470093002104910391029101917047DF
:10159C0010B5DFF8A442217C012986B01BD100795B
:1015AC00032861D10FF2C4300FF220330088ADF85C
:1015BC0014000022FFF725FF042117200090206C57
:1015CC0001F03DFB022020740222637BA08E05A952
:1015DC0001F023F848E002292ED10179072928D1FE
:1015EC00018951B1C1680A784B7802EB0322E2867B
:1015FC008A78C97802EB0121218740781A2833D1E7
:10160C00E08E010030D0ADF800000321208F627B0A
:10161C00ADF80200217402208DF804006946F12017
:10162C008DF80500FF208DF80600A08E01F00CF857
:10163C001AE0012918D1E3E7032915D10179092909
:10164C0010D1018971B1C1680FF22433087849783F
:10165C0000EB01206087002200F00CF80221206CC6
:10166C0001F0EDFA0020207406B010BDF716000052
:10167C00111700000020049003900290019000903C
:10168C00704780B502460021202000F059F8401E1A
:10169C008041C00F02BD38B50C4615460120FEF73F
:1016AC00B9FF020005D015702146BDE83840022074
:1016BC0046E031BD10B51C460120FEF7ABFF30B142
:1016CC0004700246BDE810400021042038E010BD33
:1016DC005948418E41F0010103E05748418E41F0D9
:1016EC0040014186406CFEF783BF5348418E41F464
:1016FC008071F6E75048418E41F40071F1E700002B
:10170C00B419002001460022102019E04A48418EED
:10171C0041F40051E5E70000751700004648418E82
:10172C0041F48041DDE74448418E41F40041D8E763
:10173C004148418E41F08001D3E70000F7170000CB
:10174C0070B504460D4616460820FEF763FF50B1EF
:10175C000480857046600246BDE87040364B596C7B
:10176C00986C00F026BB70BD70B504460D46C820C1
:10177C00FEF750FF06000DD035702A462146701C2E
:10178C0001F0B4FA2C48416CC06C3246BDE8704094
:10179C0000F00FBB70BD70B584B004461E200D4622
:1017AC00ADF80000152DACBF14202846ADF8020092
:1017BC0000208DF8080001208DF8090000231E4E32
:1017CC00B08E1722122101F021F8019060B12A4647
:1017DC00214601F08BFAB08E694600F037FF18B144
:1017EC001221684601F021F87FBD10B50446C820CF
:1017FC00FEF710FF78B103210170024661780E4BA1
:10180C004170E17881706179C170BDE81040596C0C
:10181C00D86C00F0CEBA10BD4C6F77206261747436
:10182C00617279210D0A0000DC890000000008407B
:10183C001E25002040420F00CC0300202B534341B7
:10184C004E3D54494D454F55540D0A00496E69742F
:10185C0069616C697A656400426561636F6E2046EC
:10186C006F756E64202564004154542052737020AF
:10187C0064726F7070656420256400005265616449
:10188C00204572726F7220256400000052656164FD
:10189C00207273703A20256400000000577269743E
:1018AC0065204572726F722025640000577269744E
:1018BC00652073656E743A202564000046432056FB
:1018CC00696F6C617465643A202564004D54552031
:1018DC0053697A653A20256400000000525353493D
:1018EC00202D64423A20256400000000506169728A
:1018FC00696E6720737461727465640050616972FB
:10190C00696E6720737563636573730050616972E8
:10191C00696E67206661696C3A20256400000000DE
:10192C00426F6E64696E67207375636365737300D1
:10193C00426F6E64207361766520737563636573A3
:10194C0073000000426F6E642073617665206661DF
:10195C00696C65643A202564000000005061737363
:10196C00636F64653A20256400000000F0FF0000FE
:10197C0053696D706C652053766320466F756E6489
:10198C0000000000FDA50693A4E24FB1AFCFC6EB5B
:10199C000764782538B501F08FFC2F4C204601F0F8
:1019AC00B7FC002020746FF0004501202070E5602A
:1019BC0064206060214601202072002001F093FC1D
:1019CC00E06300F01AF801F08EFC206400F015F8CA
:1019DC00022001F088FC6064214600202074012064
:1019EC00207040F68C206060012020721B48E06063
:1019FC00032001F078FCA06431BDE5600020207468
:101A0C002146012020706420606001202072704704
:101A1C00032811490CD8DFE800F002040608C86B53
:101A2C0004E0086C02E0486C00E0886C01F075BCC6
:101A3C0070470000032808490CD8DFE800F00204C6
:101A4C000608C86B04E0086C02E0486C00E0886C87
:101A5C0001F066BC70470000F4020020285C8F0285
:101A6C0000B58FB008233C2200216846FEF7B8FD74
:101A7C00864800F15001079100234FF42171089121
:101A8C006A46022106910FF26501FEF7ADFD0FB01B
:101A9C0000BD10B501F057FC7D4C204601F080FCD8
:101AAC004FF41650A0612146032020770020607768
:101ABC006075A0750120207000206070E075012019
:101ACC0020750FF22510E0600020206101F052FC1F
:101ADC00704C60600022202101F032FC60686E497D
:101AEC00BDE81040C82201F060BC00002DE9F047B1
:101AFC0086B0082318220021684601F059FD654C78
:101B0C00694604F1100001F057FD04F11000E0608B
:101B1C00FFF7BFFFDFF88491DFF884A1614FDFF896
:101B2C0088815D4D0CE005218AF800102846C821FB
:101B3C00FEF79AFAB00703D52178484600F062F810
:101B4C00E0684FF0FF330322002101F034FE06461B
:101B5C00F007EFD56068C822294601F026FC2878EA
:101B6C003C28E0D1E978242906D10522291D4046DC
:101B7C0001F0BCF80121D7E7A87823290ED1002168
:101B8C0008E0BA78192303FB02126B1842441B7944
:101B9C005371491C8142F4DB0221C5E7212909D18B
:101BAC00B878192250434044291D401D01F09EF87D
:101BBC000321B9E7542904BF2979582906D1A979F9
:101BCC004F2902BFE9794B290421ADD069788129CD
:101BDC00A9D1062100228242BFBFAB18DB7808F8DE
:101BEC000230521CF7DB9FE770B52A4EF0680C46AA
:101BFC001546012101F049FEB268A9B22046BDE8A4
:101C0C00704010470A4601462248406801F0D0BB9C
:101C1C000EB400B5B2B0014633AA00F025F882B27A
:101C2C001C484068694601F0C3FB32B05DF810FBFC
:101C3C0008B430B5B2B000F020F848B935AA00F0BD
:101C4C0012F882B22A706946204601F05FF801E072
:101C5C0000F00DF82A786868214601F0A9FB32B033
:101C6C0030BC5DF808FB1946684601F06FBF29705F
:101C7C000A460146204601F039B81346074C054D7B
:101C8C00704704498860704700000000641F002002
:101C9C005C220020382200208022002048230020D3
:101CAC00D4030020CC030020B4190020002203E050
:101CBC0010F8013B9A18D2B20B46591E1BB2012BDD
:101CCC00F6DA104670470000DFF800F085C101100D
:101CDC00DFF800F0C1C20110DFF800F0E3BF011023
:101CEC00DFF800F079B50110DFF800F0F5B801105D
:101CFC00DFF800F02DBF0110DFF800F011BF01106C
:101D0C0000B583B00821ADF8001001900521ADF8A5
:101D1C000210684651490968884707BDF0B589B07B
:101D2C0004460D4616461F46082324220021684609
:101D3C00FFF7CAFF0F984A49096806906B464FF4A3
:101D4C007A70B0FBF1F101FB07F0059001FB06F294
:101D5C000E98ADF8100029462046FFF7C1FF20462B
:101D6C0009B0F0BDFFF7B8BF38B504460D4601F019
:101D7C00EEFC10B1204601F0DCFC00F00CF800FB8E
:101D8C0005F12046FFF7A4FF2046BDE83240FFF7DF
:101D9C00A3BF01F0CEBC324909684FF47A70B0FB96
:101DAC00F1F0704710B504460021FFF79DFF204667
:101DBC0010BD70B584B004460820ADF800000D4687
:101DCC000420ADF802000C20244909680190164645
:101DDC006846884758B9029949B18E602046FFF78A
:101DEC0087FF15B12846FEF703FC012003E03046BF
:101DFC00FFF786FF002004B070BD10B50446FFF756
:101E0C007BFFA04204D08468FFF77AFF204610BD08
:101E1C00002010BD30B585B0044668460FF248016D
:101E2C00142200F073FF0F4830210170A21D78219D
:101E3C0041700623811C12F8015D2D095B1E1DF8F3
:101E4C00055001F8015B157805F00F051DF80550DC
:101E5C0001F8015BEFD105B030BD00004803002054
:101E6C00DC89000010240020303132333435363711
:101E7C0038394142434445460000000030B5044621
:101E8C00284D83B005F1300105F13C0001F0E5F877
:101E9C00A8600FF2510101F0B8F9A868224A4FF47A
:101EAC00E02101F0B8F9A868204A4FF4E02101F0D4
:101EBC00B2F9A8681E4A4FF0C05101F0ACF9A868FD
:101ECC001C4A4FF0C05101F0A6F90020019000907F
:101EDC00002364220FF2150105F10C00FFF71EFF21
:101EEC006C6037BD1448FFF73DBF000010B50D4CBA
:101EFC006068B0B1002020700D2001F04CF918B9C9
:101F0C00207840F0010020700E2001F044F918B93F
:101F1C00207840F00200207020786168BDE8104005
:101F2C00084710BD540300200D0005800E000580ED
:101F3C000D0000100E0000106003002000B583B0EF
:101F4C00ADF800008DF806100020DFF8AC1209681F
:101F5C00ADF802006846884710B99DF807000EBD21
:101F6C00FF200EBD1CB5A54C00B1606004F108004B
:101F7C00019004F11C00009004F10C03A27860782D
:101F8C00082100F07BFB16BD70B5034600244FF40E
:101F9C00806610469B1B0A46984D08D05B1E0CD0E1
:101FAC005B1E12D09B1E15D05B1E1AD021E010298F
:101FBC0015D1014605F10C0004E010290FD10146A2
:101FCC0005F11C0000F092FE14E0042907D1006812
:101FDC00A8600FE0012902D10078A8700AE018244B
:101FEC0008E038B1012905D10078032802DAE8703D
:101FFC0000E00224204670BD70B504467F480D46B3
:10200C00417882B016465020FFF798FF8DF80000FB
:10201C008DF801408DF802508DF80360684600F091
:10202C0058FB76BD7548407800F057BB00B58FB0B3
:10203C0008233C2200216846FEF7D2FA704800F1D2
:10204C005001079100234FF4DC7108916A4603217B
:10205C0006910FF20D01FEF7C7FA0FB000BD00009C
:10206C00F0B585B00820ADF808000120624C634D36
:10207C002168ADF80A0002A888479DF80C0068702A
:10208C0000F06FFB287005F10C021021022000F00B
:10209C00F1FC05F11C021021032000F0EBFC05F112
:1020AC0008020421042000F0E5FC14E03078D0286C
:1020BC0003D1304600F042F80746002E18BF002F1F
:1020CC0009D00820ADF800000320ADF802000196FD
:1020DC006846216888470820ADF800000A20ADF852
:1020EC0002004FF0FF3001906846216888470028B5
:1020FC00F1D10820ADF808000920ADF80A0002A8BB
:10210C0021688847BDF80C109DF80E20049E00280D
:10211C00E1D10127102904BF68788242CDD13088E3
:10212C004FF6FF718842C1D170884004C5D505F1C6
:10213C0008020421042000F0B2FCBEE73EB50446C0
:10214C002E4DA07840B105281CD0062823D00C2891
:10215C0025D0112828D045E06078002842D105F11F
:10216C000C021021022000F09AFC05F11C02102137
:10217C00032000F094FC0622E11C05F12C0000F079
:10218C00B5FD2FE0607868BB6289E0780823211DDB
:10219C0000F060F926E0A08800F073F922E0217BC2
:1021AC00A08800F079F91DE0E878012810D1A0880A
:1021BC00ADF80000E088ADF802002089ADF804000D
:1021CC006089ADF80600A089ADF80800012004E094
:1021DC0040B9A088ADF8000000208DF80A006846D0
:1021EC0000F06FFA686828B10168080002D0204638
:1021FC0088473EBD01203EBD48030020A4020020BC
:10220C00C4140020E0B50821ADF8001001900221A3
:10221C0000F00FF808B100200EBD02980EBD00B5FD
:10222C0083B00821ADF800100190032100F001F8F3
:10223C0007BDADF802106846DFF8A8130968084717
:10224C001FB5ADF806108DF804000824DFF89413C0
:10225C008DF808200393ADF80040ADF802406846B5
:10226C000968884704B010BD30B585B01446082203
:10227C000291ADF800201922DFF86813096801906B
:10228C00ADF802201D466846884714B1BDF80C1005
:10229C00218015B19DF80E102970089A04991160CF
:1022AC0005B030BD00B583B00820ADF800001A2091
:1022BC0000F015F810B99DF804000EBDFF200EBDFE
:1022CC0000B583B0ADF800008DF80610002000F0CA
:1022DC0006F810B99DF807000EBDFF200EBDDFF803
:1022EC0004130968ADF802006846084750B110F1B4
:1022FC00040F01D10420704710F1030F01D102200B
:10230C007047012070478123037042EAC1110023FA
:10231C0041F47C41C37081807047822303708180BB
:10232C000023C370827170473EB504460820ADF897
:10233C0000000D462020ADF802001020DFF8A4129A
:10234C000968ADF804006846884720B9029810B1B6
:10235C006FF004003EBD00950023002221464FF093
:10236C00FF30FFF781FF3EBD10B582B01446CA782E
:10237C00012A03D18A88DFF8C4341A8000F010F8DF
:10238C0058B9009069462046FFF7CEFF28B900984F
:10239C004478FFF744FF204616BDFFF7A7FF16BD94
:1023AC000B46022210214BE738B51C461546FFF7A9
:1023BC00F7FFC0B9009069462846FFF7B5FF90B902
:1023CC0000984578280002BF0098C079A04205D13A
:1023DC00009881680498224600F088FC0098FFF76A
:1023EC001EFF284632BDFFF781FF32BDF8B500F065
:1023FC0033FA00F099F907000DD032462946FFF761
:10240C008CFF00F062F93872FFF74CFF3B4601B0CD
:10241C00BDE8F0408AE0F1BD10220121E6E738B5B5
:10242C0000F0D8F9050002D00422012175E031BD7D
:10243C00F8B500F0C6F907000AD0132200F03BF8FB
:10244C0000F045FB3946BDE8F840DFF8F4238BE794
:10245C000420F2BD2DE9F04100F045F907000FD042
:10246C00142200F028F83C72FD603E8287F812803E
:10247C00FFF718FF3946BDE8F041DFF8C82373E7D2
:10248C001EE038B500F041F8050004D0152200F02C
:10249C0012F82C8144E031BD70B500F0BAF806009A
:1024AC0008D0162200F007F800F032F83346BDE8E9
:1024BC0070403BE070BD01212FE7002204217CE03D
:1024CC000420BDE8F081102202218FE710B500F046
:1024DC0087FA04000AD0112200F01DF8FFF7E2FE83
:1024EC002146BDE81040DFF860233DE7042010BD15
:1024FC0038B500F00AF8050006D0122200F00BF8EF
:10250C0000F0E3F828720BE031BD04460A2079E6AE
:10251C003481B572C6E60221FFE6FFF7FEFEAC6021
:10252C00FFF7C0FE2B4601B0BDE83040022210215F
:10253C0086E60022032140E000B583B00FF2490388
:10254C00019306230093032300F04EF80EBD107880
:10255C00802802BF508840F27F61884208D1908861
:10256C00984202BF91790098814201D101207047B5
:10257C000020704710B582B00624FFE70094FFF7E7
:10258C00E6FF16BD000000000323F3E71078802857
:10259C0002BF508840F27F6188420CD1908803289A
:1025AC0018BF042807D1907901001CBF10281128EE
:1025BC0001D10120704700207047F8B500F0F1F907
:1025CC0007000CD032462946FFF7A7FEBC60FFF788
:1025DC0069FE3946BDE8F840DFF87022C4E60420F5
:1025EC00F2BD0000480300202DE9F04100F03FF857
:1025FC0007000AD0069A4146FFF78FFE3C817D8189
:10260C0000F067FA079A00F00FBA59E7022300F0BE
:10261C00E5B804460D460C20F4E52DE9F04100F038
:10262C0062F807000FD0062200F01FF83C81BE7242
:10263C00FD6000F01BFA00F0CAF83946BDE8F04125
:10264C000FF21D3290E63BE73423C7E038B5FFE7C5
:10265C0004460D46FFF726FE02462946204601B0E9
:10266C00BDE830403623B9E0424603214BE6044630
:10267C000D46164698461020FFF7C4BD2DE9F041D3
:10268C0080460D4616461F461820FFF7BBFD04007A
:10269C0014D0002200F02EF800F0E8F920726572D8
:1026AC00A672E7600698206107986061FFF7FAFD53
:1026BC002146BDE8F0410FF2192255E600E7002152
:1026CC00CEE00FF211231222F9E721465020FFF73A
:1026DC00F7BD0FF205230422F1E70FF201230522C7
:1026EC00FFE70021CDE004460D461646984614201F
:1026FC00FFF788BD0421FFF706BE70B5FFF789FF11
:10270C0006000BD03022FFF7F5FF00F009F8314638
:10271C00BDE870400FF2C912FFF726BE042070BD51
:10272C0034817581FFF7BEBD0A20FFF76BBD7CB508
:10273C00044600208DF804000D460C20FFF762FDC6
:10274C0006000BD01122FFF7B6FEFFF7E1FE00F0FA
:10275C0019F80FF291123146FFF726FE9DF804008E
:10276C0076BD1CB500F039F904000AD01222FFF72F
:10277C00A2FEFFF797FD00F005F80FF2711200F0C2
:10278C0008F803E001A90091012370479DF80400AB
:10279C0016BD2146FFF708BEF8B500F012F8070089
:1027AC000DD03622FFF7A6FF3C817D8100F091F918
:1027BC003946BDE8F8400FF24512FFF7D5BD0420AD
:1027CC00F2BD04460D4616461020FFF71BBD3874AB
:1027DC00FFF768BD04460C20FFF714BD2DE9F0414E
:1027EC00FFF781FF07000FD0FFF73EFF3C81FD6034
:1027FC00314600F03CF9FFF7EAFF3946BDE8F041FD
:10280C000FF2FD02FFF7B0BDFFF75ABE38B5144604
:10281C000F4A15682A0006D0009302460B46214643
:10282C000120A84732BD002032BD0A4A13681A00A5
:10283C0003D00A460146012018477047880800203B
:10284C0071290000772900007D29000099250000DE
:10285C006C1700207017002004460D461646704772
:10286C002DE9F041FFF703FF070004D000F005F855
:10287C00BC60FD60D5E0FFF723BE32460421FFF7B4
:10288C0042BD2DE9F041FFF7F2FE070006D0FFF73D
:10289C00F4FFFFF71AFF3872FD60C2E0FFF710BEBD
:1028AC001078802802BF508840F27F6188420CD19A
:1028BC0090884FF680710140B1F57E4F04BF00F057
:1028CC007F00984201D10120704700207047000022
:1028DC000023E5E71223E3E70423E1E70523DFE721
:1028EC003023DDE780B5112302E0000080B5122310
:1028FC0000930123FFF72BFE02BD00003623CFE728
:10290C001078802802BF508840F27F6188420DD138
:10291C0090884FF6807101404FF68052914205D15C
:10292C0000F07F00012801DB012070470020704778
:10293C001078802802BF508840F27F6188420DD108
:10294C0090884FF6807101404FF68052914204BF3F
:10295C0000F07F00984201D10120704700207047A1
:10296C000623E5E780B51323C2E780B51423BFE740
:10297C0080B5112300930223BCE700F034F802BDAC
:10298C0080B50FF2D10100F069F841F20540F4E78F
:10299C000FF2090142F22F0009E0000042F22F036E
:1029AC0047E004460D4616460C20FFF72BBC70B5CD
:1029BC0004460D4600F014F806000CD0812030704F
:1029CC00B4800120F070FFF76DFC2A463146BDE85B
:1029DC007040FFF7C9BC042070BD00208DF80400C6
:1029EC000820FFF70FBC2DE9F041FFF735FF9846A3
:1029FC000E20FFF707FC070009D000F00AF83D8114
:102A0C007E81A7F80C80FFF74DFC069A0CE0FFF7CF
:102A1C0057BD812038700120F870BC8070473D8113
:102A2C00FE60FFF73FFC42463946BDE8F041FFF738
:102A3C009BBC1078802802BF508840F27F6188428E
:102A4C0004BF9088984201D1012070470020704744
:102A5C000000000041F20543EBE700000091002369
:102A6C000146002270473C817D81BE814146502049
:102A7C00FFF726BCF8B5FFF7A4FE07000DD0012226
:102A8C0000F022F83C727D7200F023F83946BDE864
:102A9C00F8400FF27902FFF767BC0420F2BDF8B5DD
:102AAC00FFF78FFE07000DD0022200F00DF83C72EC
:102ABC007D7200F00EF83946BDE8F8400FF2510275
:102ACC00FFF752BC0420F2BD0521FFF71CBC3C8172
:102ADC00BD72FE60FFF7E6BB1078802802BF5088FD
:102AEC0040F27F6188420DD190884FF68071014091
:102AFC004FF68062914204BF00F07F00984201D1F2
:102B0C000120704700207047000000000123E3E71C
:102B1C000223E1E71CB500200190FFF761FF0400E0
:102B2C000BD00522FFF7D0FFFFF7BCFB01A90091EA
:102B3C0004230FF20D02FFF72CFE019816BD0000C6
:102B4C000523C9E7C30744BF800940EA810290B25C
:102B5C00704770B588B005A80021C0E900110722A4
:102B6C0005A9022001F008F805AE74789DF8140050
:102B7C002146FFF7E7FFF578B0782946FFF7E2FF2B
:102B8C0076799DF818003146FFF7DCFFA5F12E0091
:102B9C001D288041A5F1A6011D298941C90F51EAC3
:102BAC00D0700FD0002004900390029601950094F1
:102BBC00002207480FF220030068062100F03FF8BE
:102BCC00002000E0012008B070BD02490860704789
:102BDC000C040020D4160020583A256420593A25BC
:102BEC0064205A3A256400002DE9F8430D0008BF13
:102BFC000FF2700504460027DFF8349000E07F1CCC
:102C0C000C2000FB07F859F8086076B1BC4203D0E1
:102C1C00B06980472042F2D0C84432682946404609
:102C2C0090470028EBD0404600E00020BDE8F2833E
:102C3C00FC82000010B1016849680847704700B970
:102C4C00704710B586B00C9C04940B9C03940A9CA2
:102C5C000294099C0194089C00940468E468A047C1
:102C6C0006B010BD0300000080B506480068694638
:102C7C00FDF7FEF900B210B9BDF9000002BD4FF02E
:102C8C00FF3002BDCC1600200300002013F0030F10
:102C9C0009D0521E22BF13F8010B11F801CBB0EB77
:102CAC000C00F3D07047121F22BF53F8040B51F8DD
:102CBC0004CB6045F7D0121D0AD200BA9CFA8CFCEA
:102CCC00B0EB0C0038BF6FF0000088BF01207047DC
:102CDC00521E22BF13F8010B11F801CBB0EB0C0004
:102CEC00F6D0521C08BF10467047000062B38B0729
:102CFC0008D0521E11F8013B00F8013B00F0248073
:102D0C008B07F6D1830740F0208000BF103A07D321
:102D1C0030B4B1E83810103AA0E83810F9D230BC11
:102D2C00530724BFB1E80810A0E8081044BF51F8BD
:102D3C00043B40F8043BD20724BF31F8022B20F8A7
:102D4C00022B44BF0B7803707047083A07D3B1E8E5
:102D5C000810083A40F8043B40F804CBF7D253076C
:102D6C00E4E70000DFF800F049C10110DFF800F0E3
:102D7C0019C20110DFF800F0CDA00110DFF800F04F
:102D8C00C1C10110DFF800F009B70110DFF800F045
:102D9C003DC10110DFF800F029AF0110DFF800F0A1
:102DAC00CDC10110DFF800F085B0011070B500F056
:102DBC00A3FD04460026DFF8B0540DE024FA06F01B
:102DCC00C00708D505EB8600406820B102681100E9
:102DDC001CBF31469047761C2868F6B28642EDD36C
:102DEC0070BDDFF888040168DFF884040160DFF847
:102DFC00840400F090BDF8B50D00ECB244BF85F032
:102E0C00204585F4C045A10001F1804101F5012167
:102E1C0000EA05060A68DFF860743E4085EA0203A2
:102E2C0082433243034000F4E0261B0EB6F5E02F3C
:102E3C0003F0010302D1D30105D411E010F4E02F0B
:102E4C0008BF002B0CD002F4E023B3F5A02F04D064
:102E5C00B3F5C02F04D1052300E0062363F312421F
:102E6C000A60410207D504F18042A90D02F508322F
:102E7C0001F00101117000020ED5FFF773FF00F095
:102E8C00A4F92C024CBF1C4600249A4322430A602E
:102E9C00BDE8F240FFF76ABFF1BD002948BF002131
:102EAC00800000F1804000F5012001F03F01026834
:102EBC00920941EA82110160704710B5DFF8BC033A
:102ECC00006800F07F0400F097FE012804D100F0A8
:102EDC0089FE022808BF641C204610BD2DE9F04F66
:102EEC00A1B0054600F03BFF00F086FE002601284D
:102EFC0004D100F077FE022808BF0126DFF880031A
:102F0C00C168C1F3815101294FF0010A04D1006855
:102F1C00000E0AFA00F00643DFF86803DFF8489366
:102F2C000078DFF86473FFF7C8FF5FEA000BC9F89D
:102F3C0000B004D0FF225946384600F035FE4FF061
:102F4C000008002405E00AFA00F07C5440EA080866
:102F5C00641C55F8240000F0FF01FE2909D0FF295C
:102F6C00F6D0594503D226FA00F2D207EBD502204F
:102F7C0070E0092000F0F1FFC9F8805008232422EA
:102F8C00002117A8FFF7FAFE8DF874A017AA0121EB
:102F9C0009F1D400FFF7F6FE0024DFF8F0A20BE0F5
:102FAC005046FFF728FF4FF0FF31E0B2FFF775FFF7
:102FBC000020CBF80400641CD9F80000844213D222
:102FCC0026FA04F0C00709EB840B48BF0420F0D4A8
:102FDC0028FA04F0C00747BF385D55F8201004F0FC
:102FEC00FF0040F4C041DBE70823302200210BA88E
:102FFC00FFF7CCFEDFF89852DFF898222878139070
:10300C000BAB00200090102109F18400FFF7C2FEE9
:10301C0008232822002101A8FFF7C0FE6868DFF80A
:10302C007812079000230020089001AA09F1A00053
:10303C00FFF7B8FEDFF86402016821F47C5141F41B
:10304C00005101600120DFF858120860DFF85412BB
:10305C000860002021B0BDE8F08F2DE9F041824ED0
:10306C0004460D4606F1D40800F05EF8002035B990
:10307C00002020606060A06085B125E0401C15F840
:10308C002010FE29F4D0FF29F8D03268914204D2E6
:10309C0006EB810149680029F0D000244046FDF779
:1030AC00A7FA2046BDE8F08106EB810201235460AB
:1030BC0003FA01F162681143616055F820207349ED
:1030CC00204600F0A8F8384615F82010FE29E5D067
:1030DC00471CFF29E8D1F6E72DE9F04105000E4623
:1030EC00F7B203D0604C2068874201D3022019E06C
:1030FC0004F1D40800F018F804EB8700416809B11A
:10310C0001250BE0456001216868B94008436860FF
:10311C0032465E49284600F07EF800254046FDF711
:10312C0067FA2846BDE8F0814FF0FF314046FFF7C3
:10313C0021BE10B50C46F0B1416821FA04F2D20759
:10314C0019D50122A240914341600020464901EB70
:10315C00840250604C48025D4C48FF2A0EBF44F07C
:10316C002041D1F8801051F82210FFF744FE4FF0A7
:10317C00FF31204673E0022010BD10B5044606E076
:10318C0090FAA0F0B0FA80F12046FFF7D2FF606809
:10319C000028F5D110BD444932E038B50C4632490F
:1031AC0015460A68944204D201EB840149688142B5
:1031BC0001D0022032BDFFF7D5FD00F006F89A438E
:1031CC0005FA04F31A430A6072E038490A680123CD
:1031DC00A340704710B5244B1C68A14204D203EBEA
:1031EC0081035B68834201D0022010BD01F1804154
:1031FC00100001F5083118BF01200870002010BD27
:10320C000968C14001F00100704710B10160002055
:10321C0070470220704738B5134C25680B46114691
:10322C0001F0FF02AA4204D204EB820252688242ED
:10323C0001D0022032BD1846FFF7DDFD002032BD63
:10324C000B4610B51146084A1468A34204D202EB8F
:10325C0083025268824201D0022010BD1846FFF74B
:10326C001CFE002010BD000074170020E02002405E
:10327C00E020026014180020007F077F44130050E8
:10328C00A83F00502225002064180020007FC7674B
:10329C00B0820000EF2D0000B92D00000030094075
:1032AC000C40094008000940C0200240D0200240D8
:1032BC00FFF75CFD002032BD38B5134C206810F1CF
:1032CC00010F0FD100202060104D05E089684019D6
:1032DC0088472068401C20600C21206848434159D5
:1032EC000029F3D131BD084A1268904201D3002065
:1032FC00704709B90FF23001044A0C2303FB00207C
:10330C000268D2681047000084080020D0830000B7
:10331C000FF214011822FFF7F9BC016889690847FC
:10332C000168C969084700000100000040420F0015
:10333C000100000000000000000000000000000080
:10334C0003685B68184738B5134C206810F1010FFF
:10335C000FD100202060114D05E089684019884785
:10336C002068401C20600C212068484341590029EA
:10337C00F3D131BD084A1268904201D30020704746
:10338C0009B90FF23401054A0C2303FB0020026833
:10339C00D26810470000000080080020E082000086
:1033AC000FF214012422FFF7B1BC03681B69184704
:1033BC000368DB691847000000000000FFFFFFFFF7
:1033CC00FFFFFFFF000000000000000001010101F1
:1033DC0000C201000300000000000000DFF800F054
:1033EC00F5C00110DFF800F0D5C00110DFF800F0D7
:1033FC000DC30110DFF800F081C60110DFF800F0FA
:10340C0095B70110DFF800F08DC20110DFF800F065
:10341C003DC20110DFF800F009C30110DFF800F025
:10342C0045C00110DFF800F0D1C70110DFF800F043
:10343C0067BE0110DFF800F021B30110DFF800F0D7
:10344C0011C80110DFF800F021C80110DFF800F0FE
:10345C00F1C50110DFF800F039C601100C381F2837
:10346C003ED8DFE800F0103D3D3D3D3D3D3D3D3D4E
:10347C003D3D3D153D3D3D1A3D3D1F243D3D3D2906
:10348C003D3D3D2E3338DFF8580100680068704729
:10349C00DFF84C01006840687047DFF844010068B1
:1034AC0080687047DFF838010068C0687047DFF843
:1034BC003001006800697047DFF82401006840693A
:1034CC007047DFF81C01006880697047DFF8100155
:1034DC000068C0697047DFF808010068006A70472F
:1034EC000020704700B589B009216846FFF77EFFC0
:1034FC0009B000BD00B581B000F03AFADFF8E40085
:10350C00DFF8E4100068884218BF00F039F8DFF8E3
:10351C00DC00B0F5B26F03D001B05DF804EB30E025
:10352C0001B000BD00B581B000F004FB012818BF4C
:10353C0000F09CF80FF21D00FFF75CFFFFF75EFF39
:10354C00FFF760FFFFF762FF01B05DF804EBFFF7D8
:10355C0061BF000000B581B0FFF744FFFFF73EFFED
:10356C0001B05DF804EB0320FFF758BF10B504461B
:10357C000320FFF753FF2046BDE81040FFF752BF72
:10358C00FEE7FEE700B581B0FFF750FFDFF8600003
:10359C00C06801B05DF804EBFFF74CBFDFF85410C6
:1035AC00DFF8540088617047FFF748BFFFF74ABF48
:1035BC0001B91249FFF74ABF10B588B00446002084
:1035CC0001900B461820009002AA21460C48FFF7E8
:1035DC0041FF02A9204600F0C6F808B010BD00005B
:1035EC00F001002098CA01107047282090050000B7
:1035FC007801002044010020000400006C890000C8
:10360C00E8880000DFF800F049BA0110DFF800F09C
:10361C00E5C10110DFF800F095C00110DFF800F0F3
:10362C000DA80110DFF800F0BDBE0110DFF800F0AE
:10363C0021C10110DFF800F0A5B90110DFF800F08E
:10364C0021BA0110DFF800F0BDC20110DFF800F064
:10365C00B5C10110DFF800F015B60110DFF800F06D
:10366C0019A70110DFF800F0D5C20110FEE7DFF852
:10367C009002007D70476EE038B5FFF7FCFFDFF875
:10368C0088520446A8680021FFF7C4FF6969081A2C
:10369C00A969814238BF002084F3118832BD2DE91D
:1036AC00F041FFF7E8FFDFF860520446A8680121FB
:1036BC00FFF7B0FF0121A9830021E9836E69296816
:1036CC002A68871B801A711A884204D20020A883AA
:1036DC0084F311882BE084F31188002406E0A619EA
:1036EC0031460120FFF79AFF3F1B0446A742F6D252
:1036FC00FFF7C1FF8046E88B012804D1314600203A
:10370C00FFF78CFF0446A96914F1010F08BF0846A6
:10371C0003D0E01B814238BF08468119FFF782FFB6
:10372C00012028840020A8832E6088F31188BDE82E
:10373C00F08100218182DFF8CC11C0684969884290
:10374C0004D1DFF8F4010068FEF7C6BA7047808A2E
:10375C007047704700BFDFF8E4110968EFF3118080
:10376C0081F3118870470021DFF8D42101601268C1
:10377C001044FEF7B9BA38B50446FFF7EBFF05461F
:10378C00207C022808D12046FFF750FF002020742F
:10379C002946A068FFF74EFF00F0D6B803681A4020
:1037AC0003680B408B4208BF0A4312B10168914376
:1037BC000160104670472DE9F0411F4617F1010FCB
:1037CC0018BF002F92B000F0B3F80AD06B463A46FF
:1037DC00DFF8701108A8FFF731FF08A8039002204A
:1037EC0002E00020039003208DF810000695079648
:1037FC00FFF70CFF0290FFF7ADFF804632462946DB
:10380C002046FFF7CBFF050009D0039818B1FFF74E
:10381C0019FF0020039088F31188284632E01FB965
:10382C0088F3118800202DE0FFF7D8FD054602999A
:10383C00DFF80C01C1F818D0694600682044FFF786
:10384C0005FF0298FFF706FF9DF81000022804BF41
:10385C000398FFF703FF88F311882846FFF7D2FE81
:10386C00FFF778FF0446039818B1FFF7EBFE002032
:10387C00039000200299886184F311889DF8100050
:10388C0000B1059812B0BDE8F081F8B50446DFF838
:10389C00B00000680E462718FFF75CFF054620684D
:1038AC00304320603846FCF7A7FE10B185F3118831
:1038BC00F1BDFFF793FD06463846FFF7D3FE0746EA
:1038CC00FA69B9692046FFF769FF786160B138463B
:1038DC00FFF7ACFE01203874F86808B1FFF729FF38
:1038EC00B8682946FFF7A6FE85F311883046BDE877
:1038FC00F240FFF787BE2EE7DFF854008068704770
:10390C00A40100207801002078010020616280F37E
:10391C0011882046704738B504460D46FFF7EBFF7B
:10392C00616A2943FFF7F2FFBDE83240FFF782BD21
:10393C0004460D4616467047E0890000D889000001
:10394C00E48900008337000085F3118831BD000045
:10395C00C8010020816042607047102804D3DFF852
:10396C000C101038C1F8000F7047000000E000E0A8
:10397C0000F090BDFFF7EFBEDFF89811C20744BF0F
:10398C0001220A60820744BF4FF480720A6040072C
:10399C0044BF4FF4803008607047DFF87C21C307C8
:1039AC0048BF1160830748BF5160400748BF916012
:1039BC007047000010B504460020D4E90A2347F6EE
:1039CC00906101F061F80123994228BF4FF0FF305C
:1039DC0010BD10B50C4601F0CFF8011D201AB0F146
:1039EC00004F05D8081BB0F1004F38BF8C4200D2F5
:1039FC000C462146BDE810400120CEE72DE9F041F0
:103A0C0080460A46D8E90A01D8E90C45A0FB0267B2
:103A1C0001FB0277A6196F41340C002244EA0741DE
:103A2C004046FFF7D6FFC8E90E67BDE8F081F8B550
:103A3C000646FFF79FFF0446DFF8E050DFF8E07022
:103A4C000120E861FFF798FFF96A096A142088479A
:103A5C003069B0F5802F34BF0421010C0120FFF731
:103A6C009CFF3A681268232100209047DFF8B410BD
:103A7C0001200860DFF8B400016821F4E02141F472
:103A8C00803101600120286084F31188F1BD0000B1
:103A9C0001F07CB810B5DFF89000446800F006F82F
:103AAC006069A169BDE8104008470000012063E788
:103ABC00F8B504460D4601F069F8D4E90A673246B8
:103ACC003B4600F0E1FF3DB1A6FB002306FB0133B2
:103ADC0007FB0033C4E90C23F2BD10B5DFF83C0042
:103AEC00DFF84C40002101600121C1612160206898
:103AFC00FFF7DCFFDFF848100968096A14208847D3
:103B0C00206810BD000080B501F040F8000C40EAC0
:103B1C00014002BD04200940182009400000244344
:103B2C008401001080022443E4010020002009409D
:103B3C002C200940DFF81000C088704700000000FE
:103B4C00B0010010FEE77047F001002016B50446E6
:103B5C000A46009401AB694606487844163001F0D9
:103B6C0021F8009A0021117000285CBF0098001BFE
:103B7C0016BD00BFE9C4FFFF01B588B008A80090CE
:103B8C00029101200190039218208DF810006946D3
:103B9C000020059003480069FCF76EFA09B000BDDF
:103BAC0000000000D816002062F30F2262F31F42BF
:103BBC0000B500BF130096469446103928BFA0E804
:103BCC000C50FAD85FEA417C28BF0CC048BF40F8C3
:103BDC00042BC90728BF20F8022B48BF00F8012B83
:103BEC0000BD000030480068000C00F007000528FC
:103BFC0028BF4FF0FF3070472C490A68C2F30F32D0
:103C0C004BF69A139A424FF0FF3006D10868000F1A
:103C1C000B280CBF0420002070474BF6BE118A42C3
:103C2C0001D1012070474BF641318A4201D103206A
:103C3C0070474BF620318A4208BF022070470000C3
:103C4C001A48F8B50068050F1948006800F0FF061F
:103C5C00802E28BF0026FFF7CFFF04284FF0FF343B
:103C6C0006F10A071DD8DFE800F003121A1A1B0030
:103C7C00012D12D0032D06D0072D06D0082D08BF1C
:103C8C0006F116040DE014240BE0152409E025B10F
:103C9C00022D08BF06F1140403E00A2401E005B963
:103CAC003C4660B2F2BD0000941200501813005054
:103CBC00A010005080B5FFF79FFF20B9FFF7C0FFA1
:103CCC00162800DB01BDFEE7DFF800F0E1B50110BE
:103CDC0020B1082324220021FDF7F6BF704780B5E0
:103CEC000120009009234FF400720021DFF808072F
:103CFC0001F009FA01BD80B5002301223421DFF85F
:103D0C00F80601F013FA00B10120C0B202BDDFF8D1
:103D1C00EC0680687047DFF8E416401890F8ED0068
:103D2C0070470022022904D1012806D140F2EE226C
:103D3C0003E0012808BF4FF47A7210467047DFF891
:103D4C00BC06D0F8DC007047DFF8B00690F8E6103F
:103D5C0021B1D0F80C01010018BF004770472DE9C4
:103D6C00F041DFF8988608F1E1058AB0A8790028BF
:103D7C0061D10120A871DFF88866DFF88876307B86
:103D8C0068717068C8F80C0101A8FFF7A1FF00204A
:103D9C000690ADF81400079001AB00220FF2F5412C
:103DAC0008F10C00FDF79CFF01AB00220FF2A151B2
:103DBC0008F13000FDF794FF01AB00220FF2D9415E
:103DCC0008F15400FDF78CFFB16801208847DFF83B
:103DDC00380600787868C0F38154707B20B1032CCE
:103DEC0002D10120287003E0032C18BF022C16D13D
:103DFC00022000F09DF8032CDFF810160CBF4FF4D6
:103E0C007A7042F210700968B0FBF1F108F15400BD
:103E1C00FDF75EFF08F15400FDF75EFF05E0012C95
:103E2C0003D100F063FAFFF75AFF386840075CBF14
:103E3C00002000F07DF80AB0BDE8F08110B508B1A3
:103E4C00140001D1022010BD8160C26003610146E3
:103E5C00DFF8A80501F084F9002010BD10B5044668
:103E6C00FEF780FFDFF89415621892F8E8305B1EBD
:103E7C0082F8E830DBB223B98A680123A3409A4365
:103E8C008A6066E02DE9F0410546FEF76BFF80463F
:103E9C00DFF86815681890F8ED20521E80F8ED20B8
:103EAC00D2B2002A3FD10FF2A050DFF8644500EBEC
:103EBC0085052E786F88300615D52168096A384635
:103ECC0088472168896A384688472168096B3846D3
:103EDC008847DFF8401501200860DFF83C050068D2
:103EEC008007FAD512E0700606D501EB8701002099
:103EFC00D1F80011884709E021688969384688475C
:103F0C002168496B384688470228F9D106F03F00F2
:103F1C003F2818BFFFF7B6FF687800F03F003F2836
:103F2C0018BFFFF7AFFF4046BDE8F041FEF71EBFDC
:103F3C0010B50446FEF716FFDFF8C0148A6801239B
:103F4C00A3401A438A60611891F8E820521C81F84A
:103F5C00E820BDE81040FEF709BFF8B50646FEF7AD
:103F6C0001FF0446DFF89454701990F8ED104A1CC8
:103F7C00002980F8ED2039D10FF2CC4000EB8607F8
:103F8C00387800F03F003F2818BFFFF7E6FF78783D
:103F9C0000F03F003F2818BFFFF7DFFF7E8838781E
:103FAC00DFF86C7401060ED53968C969304688474C
:103FBC003968496A304688473968C96A3046884743
:103FCC0000F019F812E0400606D505EB8601012039
:103FDC00D1F80011884709E03968496930468847AB
:103FEC003968496B304688470128F9D12046BDE82D
:103FFC00F240FEF7BBBEDFF81C1401200860DFF8AE
:10400C00180400688007FAD570472DE9F04F00249A
:10401C0083B04FF0000A0128D04618BF012664D1A6
:10402C00DFF8D893D9F8DC0001285DD10220C9F85B
:10403C00DC00FFF7D3F90090012000F062F90600D4
:10404C0054D1FFF7CFF9DFF8D81301900C600120A1
:10405C0001F0CAF8012804D1002000F0A7F94FF0B4
:10406C00010ADFF8C013DFF8B4030C6000681120FC
:10407C00FFF751FE08B14FF001081020FFF74BFE7F
:10408C0008B148F002080F20FFF745FE08B148F0D0
:10409C0004080B20FFF73FFEDFF8746320B1316892
:1040AC00096B4FF4806088470A20FFF734FE20B17B
:1040BC003168096B4FF481608847DFF85813DFF8DB
:1040CC006873DFF868B30120086048F0200031689D
:1040DC0089698847DFF858130120086099F80800AF
:1040EC00C00707D5012416E0042673E00120C9F8A7
:1040FC00DC006CE0584601F02DF90546042DF9D092
:10410C00012D04D1326A5268032158469047386811
:10411C00800880003860002001F024F9BF48006856
:10412C003068806B804754B9012D04D1326A5268D3
:10413C00012158469047386840F003003860012050
:10414C00B849086040463168496988470B20FFF739
:10415C00E2FD20B13168C96A4FF4806088470A20BB
:10416C00FFF7D9FD20B13168C96A4FF481608847E7
:10417C00A849012008600020AD4908600320C9F857
:10418C00DC003168496B404688470128F9D104208E
:10419C0000F0B7F8A24901200860A0480068A548C3
:1041AC0000688006FBD5BAF1000F1CBF012000F09F
:1041BC00FDF801F023FA082000F0A3F806460120D0
:1041CC00C9F8DC000198FFF77FFD01F09BF900981E
:1041DC00FFF718FA3046BDE8FE8F38B50446FEF7F7
:1041EC00C1FD05462146854800F0CEFF28464BE030
:1041FC0030B5002401288BB004D021D303281DD066
:10420C0018D31DE001A8FFF763FD7C4D8A49069485
:10421C00ADF81440079401AB012205F17800FDF7CD
:10422C005FFD00940023854A2C2105F19C00FEF7CC
:10423C00B1FD05E001F0FEF9044601E001F0A0FA41
:10424C0020460BB030BD00F0DCBF38B5FEF78AFD60
:10425C0005466A4890F8E000012410B1FFF74BFDC9
:10426C0004462846FEF782FD204632BD38B5FEF7DF
:10427C0079FD624D044695F8E00020B101F008F894
:10428C00002085F8E0002046BDE83240FEF76EBD08
:10429C00000000007047000010B582B0042000F050
:1042AC00A3FF022818BF032807D100F01FF8FFF75F
:1042BC0016FDBDE816400220D0E561485349006860
:1042CC004E4CC0F3815003280CBF4FF47A7041F26E
:1042DC0088300968B0FBF1F104F15400FDF7F8FCEB
:1042EC0004F15400BDE81640FDF7F6BC0320009025
:1042FC001C234FF0405200213F4800F004BF002027
:10430C00704770B504463D4E304600F01FFF002547
:10431C0098B9304600F020FF0646B068204207D01E
:10432C003269F3680021204698470546012D05D0D7
:10433C00304600F013FF0600EFD1284670BD41490E
:10434C0001280CBF40F2FF7000200860002070476D
:10435C0070B5FEF707FD294E294D044696F8E0008E
:10436C0028B100F095FF68B1002086F8E00002202B
:10437C00AD68A84706461020FFF7C3FF8EB1032097
:10438C00A8470EE0214909683220B0FBF1F101B9D0
:10439C00012106F13000FDF79BFC06F13000FDF722
:1043AC009BFC2046BDE87040FEF7E0BC38B5012808
:1043BC001ED100F019FF01281CD000F05FFF0F4C3C
:1043CC001249012084F8E00032200968B0FBF1F5B5
:1043DC0005B9012504F13000FFF7ABF9294604F1CA
:1043EC003000FDF775FC04F13000FDF775FC01E0C1
:1043FC0000F070FF002032BD00A00C4070070020C0
:10440C00B8820000B03F005022250020DC8900005B
:10441C00B801001028200860282008402C200940F2
:10442C000C40094000022243242208400040034073
:10443C008001044314100940C9580000995600002B
:10444C00B43F0050000004608F3F00008F3F01001C
:10445C008F3F02008F3F0300903F00018F3F01010F
:10446C00903F0002903F00038F3F01048F3F0005F7
:10447C008F1208048F3F00048F3F0006513F00004D
:10448C007F3F01003F3F04003F3F02003F3F0100E0
:10449C007F3F020010B5DFF82405046814F1010F0A
:1044AC0008BF0024FFF706FCDFF814150020086095
:1044BC000120DFF810150860DFF80C15086000F01B
:1044CC004CFADFF80805006828B1DFF8040500682D
:1044DC00204600F022F8DFF8FC14DFF8FC24002062
:1044EC000860DFF8F80401686FF31B4111430160A9
:1044FC00DFF8EC040168C1F30131012907D101682F
:10450C00DFF8E024114041F4003202600160DFF872
:10451C00D80400680028FAD110BD70B50546DFF844
:10452C00CC0401210160DFF8C81409680029FAD015
:10453C00DFF8C044DFF8C024C02121605368DFF8E5
:10454C00BC149B075DBF13681B0C43F0F003722374
:10455C000B70002101639668304600F031F831464B
:10456C00284600F061F8DFF89804816D89B240F2BA
:10457C000F22914214D201680068C1F30361C0F3A9
:10458C00034001B1491E072805D006280EBF07209D
:10459C00801C00F00F0041EA0010DFF8681408706E
:1045AC00304600F0B2F8DFF860140968C9680220E0
:1045BC008847402020600120DFF85014086070BD4F
:1045CC0010B50446DFF848040068C0F3046000F03E
:1045DC00C0F92117491C08181628A8BF152004DAA1
:1045EC006FF009018842B8BF084600F01F00DFF8E1
:1045FC00241440F4F8500880DFF81C04006880078D
:10460C004FBF44F040640020DFF810140860DFF85E
:10461C001004C4F3C06181F001010160C4F3806136
:10462C0081F00101816010BD70B5054682B008466D
:10463C0000F0F0F80246DFF8EC43182100F062F8C5
:10464C0000F014F980B20090002340F2FF322C21CC
:10465C00204600F058FDDFF8D063F068C0F30D027F
:10466C001C2100F04FF8706800F0FC32142100F0AF
:10467C0049F83068DFF8B413DFF8B46301EA0002DC
:10468C00102100F03FF8284600F0FAF802460C2101
:10469C0000F038F8284600F01EF9400040F02000E9
:1046AC003072284600F020F940F010003072284695
:1046BC0000F023F90246282100F024F8284600F0E7
:1046CC0001F9400040F06000F072284600F02FF92C
:1046DC00C00040F080003070284600F031F98000B6
:1046EC00DFF8501340F47C400880284600F012F9A3
:1046FC000246082100F006F8DFF83C134FF4800066
:10470C00086073BD204600F0F9BCF8B5810C01F0CF
:10471C0003010129C94CC84D02D002292AD026E038
:10472C00216A8A0323D44FF480422A606FF08F06EB
:10473C00C34AD2F8023033404E0A06F080063343A7
:10474C00C1F303363343C2F80230C1F30326D2F867
:10475C0001301B0946EA0313C2F801306FF0E7067B
:10476C001368334001F0E7011943116002E04FF088
:10477C0000412960B34EB44AB16809075CBF4021BF
:10478C00A9624FF400712964800D216AC90C01F0F3
:10479C00030141F0300110F00300117003D0022826
:1047AC0026D008D326E00121042000F0FBFCA7480A
:1047BC0000F0F4F822E0012000F016FD074639461F
:1047CC00042000F0EFFC042000F00EFDB842FAD1FA
:1047DC00366826F07F4000F0E1F89D4B1B681B68A3
:1047EC004FF060220721300E98474FF4806028600C
:1047FC00032100E00221042000F0D4FC206895493C
:10480C0000F03F00087047F6180093490880934861
:10481C000068F1BD92490968C1F383628303C1F357
:10482C008F2120D4000400164FF6FF7307E04908CF
:10483C0004D11946520804BF01220121401C002852
:10484C00F5D401280FDB490041F00101B1F5803F9F
:10485C0021BF0121520042F00102102A24BF0F2275
:10486C001946401EEDE741EA024070477C4801685A
:10487C0000680002C1F3870100F4407008437047E0
:10488C0030B55D4C77490A686568ED07C2F3035192
:10489C00C2F303430AD42468250501EB25712404D3
:1048AC0081F3040103EB247383F304031B0443EA35
:1048BC00015193B21943222824BF02F080400143D6
:1048CC00084630BD0021202803D367480068C0F398
:1048DC000151084670470121222803D36348006820
:1048EC00C0F30071084670470121222803D35F48AA
:1048FC000068C0F34071084670470021202807D398
:10490C0059480068C10C01F44071C0F38450014354
:10491C00084670472028564907D35348554A006823
:10492C00810A02EA003040EA8151084670470021B2
:10493C00222803D34D480068C0F3C0610846704775
:10494C000021222803D349480068C0F3455108468A
:10495C0070471628A8BF20387047234800680028E5
:10496C00FBD14548454A416812688908890041F0E5
:10497C00005141F00401520748BF41F001010BD432
:10498C00026812F0030F07D041F003024260026884
:10499C0002F00302032AFAD141607047384982B20F
:1049AC000A60C0F307404860012088603548006801
:1049BC000028FBD000208860704700001C130050BA
:1049CC00840460425C600C4008220443800128434C
:1049DC00000120438C21084000003901482003408D
:1049EC0004000940FFFFFCFC0C0068421010094059
:1049FC009402224300600C40AC3F005056620840C9
:104A0C00BC12005002600840A001001094046042E7
:104A1C00B81200506E6208400000094094042A430A
:104A2C000000204300A00C4070130050FFFFFC005E
:104A3C0041A10C40DCA10C4040A00C406C13005078
:104A4C000A600840A83F005008A10C40BD37860002
:104A5C00B40100100BB00C4070B00C402C2009407D
:104A6C005013005078130050981300508C130050C2
:104A7C0000803F4000F03F0000400340B03F00503A
:104A8C003C600C4084088C431B4213D1094236D144
:104A9C002AB18446B0FBF2F002FB10C2704700F062
:104AAC00E3BFFCD30022002370470B00020000215F
:104ABC0000207047904271EB030CF6D370B5B1FA3D
:104ACC0081F4B3FA83F52C1BA340C4F1200532FA10
:104ADC0005F63343A2405FF00046E64002E05B0877
:104AEC005FEA3202841A71EB030524BF2046294683
:104AFC007641F4D302000B003000002170BD012A76
:104B0C00CFD970B5140C20D0B1FA81F4B2FA82F579
:104B1C00C4F120046419B4F12006D6D3B2405FF07E
:104B2C000044F440002502E052085FEA3303C61A41
:104B3C0071EB020E24BF3046714664416D41F3D3D4
:104B4C0002000B002000290070BD0C46B1FBF2F1F5
:104B5C0002FB11452D0445EA1045B5FBF2F402FBAE
:104B6C00145580B240EA0545B5FBF2F002FB105239
:104B7C0040EA044070BD00000948016842680368BF
:104B8C009942FAD1100C40EA0140704710B5044A22
:104B9C00136850681468A3421946F9D110BD00007F
:104BAC00082009402DE9F04F93B0804602AE00205A
:104BBC0017461D460291B0610DF130090AE017F855
:104BCC00011B0298C0470028029000F0AA81B0692E
:104BDC00401CB0613878010001D1B069A3E12528EF
:104BEC00EDD10020F0603061706101E040F0010017
:104BFC0017F8011F2029F9D023290DD02B2904D017
:104C0C002D2906D030290AD00CE040F0020080B2E9
:104C1C00EEE740F00400FAE740F00800F7E740F058
:104C2C001000F4E72A290ED12968296051F8042BC9
:104C3C002960002A326204D5514240F004003162EE
:104C4C0080B27F1C13E0002131620BE0316A6FF0FF
:104C5C000043994205D001EB810302EB430130394B
:104C6C0031627F1C3A78A2F130010A29EED33978EF
:104C7C002E2903D04FF0FF31F1611FE017F8011F0F
:104C8C002A2907D1296829607F1C51F8042B296037
:104C9C00F26113E00021F1610BE0F1696FF0004368
:104CAC00994205D001EB810302EB43013039F161EC
:104CBC007F1C3A78A2F130010A29EED3B0840FF2AE
:104CCC00B430397800F0D2FE08B117F8010B8DF82A
:104CDC002E009DF82E00682804BF3878682803D170
:104CEC0062208DF82E007F1C0CA8B06017F8014BC9
:104CFC00252C13D0582C3CD0632C00F09480642CC1
:104D0C0018BF692C6DD06F2C33D0702C27D0732C1E
:104D1C000AD0752C18BF782C2BD08EE00120F060B7
:104D2C0025208DF8300092E02868286050F8044B5C
:104D3C0028607460D6F81CA0BAF1000F04D5204688
:104D4C0000F0A0FE824607E052460021204600F00B
:104D5C00B5FE08B1A0EB040AC6F810A077E02868ED
:104D6C00286050F8041B286001910CA87060782111
:104D7C0055E09DF82E006C280DD0712818BF6A28BC
:104D8C0009D12868C01D20F007022A60D2E9000171
:104D9C0008322A6004E02968296051F8040B296064
:104DAC0001909DF82E00682802D101A8008803E02C
:104DBC00622802D101A80078019096F8240000071F
:104DCC0028D5019830B344F02000782822D1F0681F
:104DDC00302109F80010401C411CF16009F800401A
:104DEC0018E09DF82E00294600F0A0F8002801904C
:104DFC0002D5F0682D2109E0B08C810702D5F0684E
:104E0C002B2103E0C00705D5F068202109F800101C
:104E1C00401CF0600CA8F16808447060214601A8A1
:104E2C0000F0AAF813E00120F0602868286050F820
:104E3C00041B28608DF8301009E00120F06025205B
:104E4C008DF830001CB10220F06089F80140306A06
:104E5C00F168401A7169401A3169441A96F82400B5
:104E6C00400710D42020012C8DF800000BDBA2464B
:104E7C0001236A4601A9404600F0E5F8002850D10C
:104E8C00BAF1010AF4D1D6F80CB0BBF1000F0DF158
:104E9C00300A0CD01AF8011B0298C0470028029067
:104EAC003FD0B069401CBBF1010BB061F2D1D6F818
:104EBC0014A03020BAF1010F8DF8000009DB01239A
:104ECC006A4601A9404600F0BEF850BBBAF1010A8F
:104EDC00F5D1D6F810B0D6F804A0BBF1000F0BD06A
:104EEC001AF8011B0298C0470290D0B1B069401C5F
:104EFC00BBF1010BB061F3D196F8240040077FF5AC
:104F0C0069AE2020012C8DF80000FFF663AE012362
:104F1C006A4601A9404600F096F810B9641EF6D115
:104F2C0058E64FF0FF3013B0BDE8F08F622815D073
:104F3C0068280CD06C2818BF742816D07A2814D185
:104F4C000A680A6052F8040B0A60002170470A686C
:104F5C000A6052F8040B0A6000B20BE00A680A609F
:104F6C0052F8040B0A6040B204E00A680A6052F876
:104F7C00040B0A60C1177047F0B4C2686F2908BFF0
:104F8C00082405D041F02003782B14BF0A241024E8
:104F9C0018230668642918BF6929374602D1002EE8
:104FAC0048BF7F425FB9056A4DB9082C27D190F8EC
:104FBC002810090723D530211723D1751FE0B7FB23
:104FCC00F4F604FB16773037FFB25D1E3A2FA4BF00
:104FDC00A1F1510C674457552B46370003D0856817
:104FEC00D618B542EBD3082C09D190F82810090734
:104FFC0005D5D15C302902D05B1E3021D1541A4426
:10500C008260C3F11801026A4161914208DA511AB7
:10501C0081614FF6EF72018D11400185F0BC704734
:10502C00002A0ED590F8282002F01402102A08D17C
:10503C00426A0369D21A8369D21A531A012BA8BF88
:10504C008361F0BC7047F8B504460D4616461F4602
:10505C00002077B116F8011B6868A047686030B172
:10506C00E869401CE86100207F1EF3D1F2BD4FF0CF
:10507C00FF30F2BD686C747A4C00000070B50446C9
:10508C000D46164600F0B6FA401E8041C00F1A4974
:10509C000A68002AFCD0012E02D0022E02D003E0B6
:1050AC00257002E0258000E0256001220A600028BE
:1050BC001CBFBDE8704000F0A1BA70BD38B5044605
:1050CC000D4600F097FA401E8041C00F0A490A684D
:1050DC00002AFCD0012D02D0022D02D003E024784E
:1050EC0002E0248800E0246801220A6008B100F084
:1050FC0085FA204632BD000000800C400B4611465C
:10510C0004221818BAE710B500EB4100102B144616
:10511C0000F5007002D3103B001D240C029999403D
:10512C0041EA0441BDE810400422A7E738B51D460A
:10513C000818102D144602D3103D801C240C02219B
:10514C00FFF7BCFF204080B2E84032BD0068002869
:10515C000CBF012000207047006870470068704742
:10516C0038B504460D4600F0D5FC00212960616875
:10517C0069606168002914BF0D6025606560FFE7F8
:10518C00BDE8324000F0C8BC0B684A68002B0CBF6D
:10519C0042605A604A680968002A0CBF01601160BD
:1051AC007047000070B50446E00782B00D46624EB1
:1051BC0005D5A8B200900023012200F011F8A00739
:1051CC0005D5A8B200900123022200F009F860076F
:1051DC0005D5ADB2009502230C2200F001F873BD89
:1051EC0000213046FFF78FBF0146042907BF1D235E
:1051FC004FF0C0421C234FF080524F483421FFF730
:10520C0095BF38B50546FFF7B7FC4C4CA168401A62
:10521C004FF47A71484305EB104500F07FFC21698F
:10522C00401A48BF404240F6B9318D4207D2062899
:10523C0005DAA068E168814201D322685AB9404975
:10524C004A68D2074FF4FA6017D4086800F0FF00E0
:10525C007D21484308E0081A3A494843000C00EB0A
:10526C009000904238BF1046C82801D2C82032BDE9
:10527C00B0F57A6F88BF4FF47A6032BD80B50121EA
:10528C000320FFF78FFFFFF777FC2C49886001BDE7
:10529C0080B50120FFF7A8FF012819D000230122B7
:1052AC0034212548FFF742FF98B100F026F8FFF7AC
:1052BC0063FC22498B680A68C860A2EB9202C01A90
:1052CC00204B5843000C0860904238BF10460860D1
:1052DC00012002BD10B500210320FFF763FF012060
:1052EC00FFF782FF08B100F008F8144CFFF744FCFC
:1052FC00606000F013FC206110BD1348006800F0E2
:10530C0021BC10B511490A68114909681404241606
:10531C001B384443E41004EB2244120600FB00F358
:10532C00121609065A435843091604EBA2224843A5
:10533C0002EBA04010BD000000A00C400025002096
:10534C00AC3F005040420F00800000109013005002
:10535C00A4100050006801074CBF042000F00300AB
:10536C00704700002DE9F84F06469348934C0068AF
:10537C00934D800704D50820A87192482060BFE0A7
:10538C0000F0CCFB80469048006800900027001786
:10539C0000F101090098800208D4C8F13E00C01049
:1053AC000928A8BF08208145B8BF814687480068F6
:1053BC00C0F30460FFF7CDFA824685480068C0F35D
:1053CC000440FFF7C6FA09EB0A011629A8BF1521FC
:1053DC0004DA6FF009029142B8BF114601F01F02C6
:1053EC007C4B42F4F8521A807B4A126812F0030F7D
:1053FC0018BF0127520748BF47F002070EB147F00C
:10540C00040795F90720A8EB0202052A02DAAA790B
:10541C0097425DD0A8F10F0C0026BCF1000FB646E8
:10542C0007F0010207F00403DFF8B09123D40CEB72
:10543C000C1C4FEA2C2EBEF1080F28BF4FF0070EA4
:10544C007646072E28BF062609EB860A59F82660F1
:10545C00DAF804A0AAEB060A0AF0FF0613B1CAF3A5
:10546C00072B5E445FEA877B44BFCAF3074B5E445D
:10547C000AB106EB1A6659F82E9009F0FF0A13B11F
:10548C00C9F307239A44BB0744BFC9F307439A44A3
:10549C000AB10AEB196A401AACEB0E220099AF71F3
:1054AC00724380320128B8BF0120342301F0FF0180
:1054BC0058430AEB12224843B0FBF2F0B0F5803FA0
:1054CC0028BF4FF6FF7008F30708A88085F80780FF
:1054DC0043480068A988286000201F2904D21F2196
:1054EC00A98004E04908401CB1F5007FFAD20F39BD
:1054FC00090940EAC1003B49084320600020606074
:10550C00BDE8F18F10B53848006884B21CB300F0C8
:10551C0005FB2B4991F90720904205DA6FF07F02C9
:10552C009042B8BF1046C8718888844201D28C80E2
:10553C0010BD2B4A12680B68D21A921C202A28BF65
:10554C001F22231A5208D3401818B0F5803F28BFE9
:10555C004FF6FF70888010BD2448026802B970476E
:10556C0010B5234B996801F04060B0F1406F21D029
:10557C0011480468A4071DD45C68A4071AD40468F5
:10558C001B68C3F303531C331B0114F0050F06D027
:10559C009A420FD26FF005012140016010BD934279
:1055AC0008D20A0158BF44F00104490158BF44F025
:1055BC000404046010BD00000000094030100940D4
:1055CC0014250020FDFDA400B43F0050B81200507B
:1055DC003C1100506E620840242208409C1300507D
:1055EC000820094000E7A4803410094028500940E5
:1055FC00AC3F0050EFF3108072B67047EFF31080A1
:10560C0062B67047DFF800F099C8011010B50C189D
:10561C00FFF7F0FF401E8041C00FDFF8F0130A685F
:10562C00002AFCD0246801220A6008B1FFF7E6FFCB
:10563C00204610BD38B5DFF8D843DFF8D8132078F2
:10564C00897B002508430AD0FDF78CFBA178002943
:10565C0006BF0121A1700125FDF788FB0DB10020CB
:10566C0032BD0220FEF764FC0E20FEF776FCDFF85C
:10567C00A803016809B1012032BDDFF8A023402145
:10568C0011600121C1610020607032BD70B5DFF87E
:10569C008C0382B0002101604821C160DFF88003D7
:1056AC0000F1D804A17A002968D00129DFF874230D
:1056BC0029D110684BF2F5214843050ADFF868033D
:1056CC000068C0F38140012806D100F027FAFFF7EB
:1056DC0018FE684305EB9055607B10B10020607399
:1056EC0005E0D2480068000215EB10204508D048B0
:1056FC000560290C416001218160C648807B00282F
:10570C003AD0052039E0022909D11568284600F065
:10571C00FDF8A5F2FF5003282ED308202DE0032915
:10572C002CD1116800F1B805A1F5C0612868E961B8
:10573C00002848BF4042002948BF49428842A8BFC0
:10574C00002018DA6868BB4E80B2009008234FF432
:10575C007F4230213046FFF7D6FCA86800F072F982
:10576C0004213046FFF7CFFCA86900F071F93046F0
:10577C00FFF7C9FC012020700B202073BDE873409B
:10578C002DE9F041A64CDFF8AC82AB4FAB4EA348F1
:10579C0004F1E10582B0E9784A1E0B2A00F2808000
:1057AC00DFE802F0062233465B33465B3346636E1A
:1057BC00A34909680968202088470F20F86007234F
:1057CC0041F61D5038614FF4C0720220009000F079
:1057DC0070F807234FF4C07200214046FFF7A6FC77
:1057EC0001203060022044E00120F8612878002874
:1057FC001DBF0020306103200620E87003203860B4
:10580C00002070607068800734D4E878032804D1D5
:10581C00022000F04BF8042007E0002000F046F8CE
:10582C00E87806280CBF07200A20E87001201AE04F
:10583C00042903D12021B961012105E00122BA61BB
:10584C000A290CBF0321022169700021396008214B
:10585C00C16001600120386026E005290CBF0620DC
:10586C000920E8700020706004E000203060706057
:10587C000C20E87004F17800BDE8F641FCF72CBA76
:10588C00002101600120644908600E20FEF7FAFA3D
:10589C000220FEF7E3FA0120E8700020A87003E074
:1058AC00BDE8F341FFF7AEBEBDE8F38100900523E0
:1058BC00602200214046FFF726BC000080B5584905
:1058CC005E4891F8E410891E0A291AD8DFE801F025
:1058DC00060A0E190A0E190A0E1912000168890718
:1058EC00FCD510E041688907FCD40CE041688907BD
:1058FC00FCD508E001688907FCD441688907FCD411
:10590C0001E0FFF77FFEBDE8014039E7F8B5074637
:10591C00484C30212046FFF779FE414E06F1B80580
:10592C00C0F30720686004212046FFF76FFEC0F328
:10593C008440A86020212046FFF768FEC0F3812038
:10594C00A861B7F5C060286002D186F8D800F1BD17
:10595C00296996F8D8202AB96A68A968EA60E861CA
:10596C00AA696A61E86900284CBF6FF00102022243
:10597C0000EB40001018421000EB927001EBA000FD
:10598C006968E960012810DA6A69032A04D11530C4
:10599C0001281DDA01201BE00B300128B8BF0120C3
:1059AC00491E48BF0021E96007E01F2812DB6A6925
:1059BC002AB915381F28A8BF1E20032109E00B386F
:1059CC001F28A8BF1E20491C4029A8BF3F21E96001
