:1000000050430020A9B9000001CA011001CA011023
:1000100001CA011001CA011001CA011001CA011070
:1000200001CA011001CA011001CA011001CA011060
:0C00300001CA011001CA01103FCA0110F2
:10003C0021490868C2430A600A680242FAD1704733
:10004C001E490A68002AFCD1CA610860C8690028E8
:10005C00FCD00020C86148687047194801686FF0EF
:10006C000202114041F400710160032115488160C6
:10007C0041F2300141610121C160502141610121F6
:10008C00C1604FF4CA6141610121C16001607047D8
:10009C000D4802680A6082684A60C2688A60406BD8
:1000AC0020F0784040F08050C8607047704701469F
:1000BC001022064803F01CBE10100440001004402F
:1000CC0000000460004104404C1300501800002153
:1000DC007047012070470000200000000A0000005B
:0800EC00600C0020013400004B
:100100003C0000000000000000000000340100007E
:1001100000000000000000000100000000000000DE
:1001200000000000000000000000000001000000CE
:0C013000000000000800000000000000BB
:10013C003400000000000000000000006801000016
:10014C0000000000000000000100000000000000A2
:10015C00010000000000000000000000080000008A
:04016C00000000008F
:1001700030000000000000000000000098010000B6
:10018000040000000000000001000000FFFFFFFF6E
:10019000FF00000001000000080000000000000057
:1001A0002C0000000000000000000000C40100005E
:1001B000040000000000000001000000FFFFFFFF3E
:0C01C000FFFFFFFF08000000000000002F
:1001CC0034050000E401000099A1011095A701106D
:1001DC00A5C2011009B2011045B8011000000000C1
:0801EC00000000002F000000DC
:1001F40028000000000000000000000014020000BD
:100204000000000000000000FFFFFFFF00000000EE
:080214000800000000000000DA
:10021C00300500003002000069C201106DC10110F0
:10022C001FC2011095BA0110000000000000000070
:04023C002D00000091
:10024000300500005402000075C20110A9B601106B
:100250009DBF011049B60110000000000000000021
:040260002E0000006C
:1002640024000000000000000000000080020000E4
:100274000000000000000000000000000800000072
:040284000000000076
:10028800240000000000000000000000A40200009C
:10029800000000000000000000000000080000004E
:0402A8000000000052
:1002AC00240000000000000000000000C802000054
:1002BC000000000001000000000000000800000029
:0402CC00000000002E
:1002D00000000000C80B0020040000000000000027
:1002E000000000002000000070010000300000004D
:1002F0001C020000E80B00200400000000000000C9
:10030000000000000C000000300400001800000095
:1003100040020000F00B002004000000000000007C
:100320000000000024000000480400001800000045
:1003300000000000300C002004000000000000005D
:100340000000000010000000A00100002C000000D0
:10035000CC010000380C0020040000000000000068
:1003600000000000200000006402000024000000E3
:10037000FFFFFFFF580C00200400000000000000F9
:100380000000000028000000880200002400000097
:10039000FFFFFFFF800C00200400000000000000B1
:1003A00000000000580000003C0100003400000084
:1003B000FFFFFFFF880C0020040000000000000089
:1003C00000000000100000006004000018000000A1
:1003D000FFFFFFFF900C0020040000000000000061
:1003E000000000001C000000AC020000240000001F
:1003F000FFFFFFFF980C0020040000000000000039
:100400000000000038000000F40100002800000097
:10041000FFFFFFFF000D00200400000000000000AF
:100420000000000054000000000100003C0000003B
:100430001800000000000000000000004004000060
:080440000800000000000000AC
:100448001800000000000000000000005804000030
:08045800080000000000000094
:100460001800000000000000000000007004000000
:0804700008000000000000007C
:0804780001000000F00000008B
:01048000007B
:040484000100000073
:0404880000000E0062
:04048C0000000F005D
:040490003200000036
:040494000100000063
:04049800D00B002065
:04049C00000200005A
:0404A0000000000058
:0404A40001CA011078
:0404A8000000000050
:0404AC00000000004C
:0404B0000800000040
:0404B4000000230021
:0404B800F80B00201D
:0404BC00010000003B
:0404C000400C0020CC
:0404C400080000002C
:0404C8000000000030
:0404CC00000000002C
:0404D0000000000028
:0404D4000000000024
:0404D8000000000020
:0404DC00010000001B
:0404E000A00C00204C
:0404E400060000000E
:0404E800010000000F
:0404EC00080D0020D7
:0404F0000000000008
:0404F4000000000004
:0404F80000020000FE
:0404FC0000000000FC
:020502002900CE
:020504000100F4
:020506002500CE
:020508002D00C4
:02050A002E00C1
:02050C002F00BE
:02050E000100EA
:0105100001E9
:020512000000E7
:080514000400000010BA000011
:08051C000000000000000000D7
:0405240000000100D2
:0405280000000300CC
:04052C0087C401106F
:04053000380500008A
:040534003805000086
:0405380000000000BF
:04053C00900000002B
:040540009000000027
:0405440000000000B3
:04054800400C002043
:04054C0079450000ED
:040550002000000087
:04055400C0B900002A
:0405580070B7000078
:04055C000DC30110BA
:040560003331000033
:04056400353100002D
:0405680099C801101D
:04056C009BC8011017
:040570000000000087
:0405740080040000FF
:04057800F0F8010096
:04057C0008F9010079
:04058000D8F80100A6
:0205840008006D
:0205860009006A
:02058800010070
:02058A0000006F
:01058C00016D
:040590000000000067
:040594000000000063
:04059800000000005F
:04059C00000000005B
:0405A000192D000011
:0405A400392D0000ED
:0405A8003D2C0000E6
:0405AC00632D0000BB
:0405B000852C000096
:0405B4005B2C0000BC
:0405B800B72C00005C
:0405BC008F2D00007F
:0405C000F144000002
:0405C40001470000EB
:0405C80005470000E3
:0405CC000800000023
:0405D0002400000003
:0405D400180000000B
:0405D80028000000F7
:0405DC0020000000FB
:0405E0003C000000DB
:0405E4000C00000007
:0405E80034000000DB
:1005EC00FFE0FFE0FFE0FFE0FFE0FFE0FFE0FFE007
:1005FC00FFE0FFE0FFE0FFE0FFE0FFE0FFE0FFE0F7
:10060C00FFE0FFE0FFE0FFE0FFE0FFE0FFE0FFE0E6
:10061C00FFE0FFE0FFE0FFE0FFE0FFE0FFE0FFE0D6
:10062C00FFE0FFE0FFE0FFE0FFE0FFE0FFE0FFE0C6
:10063C00D6AF6BF12A1319D319D342D2CE4FFFE0A8
:10064C00FFE0FFE0FFE0FFE0FFE0FFE0FFE0FFE0A6
:10065C00FFE0FFE0FFE0FFE0FFE0FFE0FFE0FFE096
:10066C00FFE0FFE0FFE0FFE0FFE0FFE0FFE0FFE086
:10067C00FFE0FFE0FFE0FFE0FFE0FFE0FFE0FFE076
:10068C00FFE0FFE0FFE0FFE0FFE0DECE8C70529178
:10069C0010B2117332D65B15429419F41174D68FC3
:1006AC00FFE0FFE0FFE0FFE0FFE0FFE0FFE0FFE046
:1006BC00FFE0FFE0FFE0FFE0FFE0FFE0FFE0FFE036
:1006CC00FFE0FFE0FFE0FFE0FFE0FFE0FFE0FFE026
:1006DC00FFE0FFE0FFE0FFE0FFE0FFE0FFE0FFE016
:1006EC00FFE0FFE0FFE0E70E6B3010F332D66CBAA0
:1006FC0053D91133115352F56B35529411B3533204
:10070C00FFE0FFE0FFE0FFE0FFE0FFE0FFE0FFE0E5
:10071C00FFE0FFE0FFE0FFE0FFE0FFE0FFE0FFE0D5
:10072C00FFE0FFE0FFE0FFE0FFE0FFE0FFE0FFE0C5
:10073C00FFE0FFE0FFE0FFE0FFE0FFE0FFE0FFE0B5
:10074C00FFE0FFE09D1010B24B17CEBEFFFFFFFF86
:10075C00FFFFD73F2AB71092325462D4321321F3E1
:10076C00FFE0FFE0FFE0FFE0FFE0FFE0FFE0FFE085
:10077C00FFE0FFE0FFE0FFE0FFE0FFE0FFE0FFE075
:10078C00FFE0FFE0FFE0FFE0FFE0FFE0FFE0FFE065
:10079C00FFE0FFE0FFE0FFE0FFE0FFE0FFE0FFE055
:1007AC00FFE07BF010D29D7CF7FF8E3F653D5CFC3B
:1007BC006D7DFFFFFFFF53D910923A533A3319D393
:1007CC00FFE0FFE0FFE0FFE0FFE0FFE0FFE0FFE025
:1007DC00FFE0FFE0FFE0FFE0FFE0FFE0FFE0FFE015
:1007EC00FFE0FFE0FFE0FFE0FFE0FFE0FFE0FFE005
:1007FC00FFE0FFE0FFE0FFE0FFE0FFE0FFE0FFE0F5
:10080C007BF01133BE9EEFFF347C3CDD6DBE657E0C
:10081C002C7C139BCF3FFFFF435810B211F442D2F4
:10082C00FFE0FFE0FFE0FFE0FFE0FFE0FFE0FFE0C4
:10083C00FFE0FFE0FFE0FFE0FFE0FFE0FFE0FFE0B4
:10084C00FFE0FFE0FFE0FFE0FFE0FFE0FFE0FFE0A4
:10085C00FFE0FFE0FFE0FFE0FFE0FFE0FFE08C7077
:10086C0010F3B69EFFFF349C44FDDFFFB71F9EBF05
:10087C00863F2C7D139BE79FD75F1A15111394F0BD
:10088C00FFE0FFE0FFE0FFE0FFE0FFE0FFE0FFE064
:10089C00FFE0FFE0FFE0FFE0FFE0FFE0FFE0FFE054
:1008AC00FFE0FFE0FFE0FFE0FFE0FFE0FFE0FFE044
:1008BC00FFE0FFE0FFE0FFE0FFE0FFE09D1010B283
:1008CC0095DCFFFFFFFF963E1C3C3CDD243C3CDDF1
:1008DC00557E453D137B54DCDF7F4C5A1113EF2EB4
:1008EC00FFE0FFE0FFE0FFE0FFE0FFE0FFE0FFE004
:1008FC00FFE0FFE0FFE0FFE0FFE0FFE0FFE0FFE0F4
:10090C00FFE0FFE0FFE0FFE0FFE0FFE0FFE0FFE0E3
:10091C00FFE0FFE0FFE0FFE0FFE0B5CF10927D1BB2
:10092C00FFFFFFFFFFDFFFFFB69FA63EBEBF2C5BA6
:10093C00241C2CBD139B2C3BA67F4C3A29F2FFE0C8
:10094C00FFE0FFE0FFE0FFE0FFE0FFE0FFE0FFE0A3
:10095C00FFE0FFE0FFE0FFE0FFE0FFE0FFE0FFE093
:10096C00FFE0FFE0FFE0FFE0FFE0FFE0FFE0FFE083
:10097C00FFE0FFE0FFE0FFE0CE6F1091649AFFFF15
:10098C00FFFFF7DFF7DFFFDFFFFFFFFFFFFFD75FA3
:10099C00137B13FB133A2C1B85FE23184AB1FFE083
:1009AC00FFE0FFE0FFE0FFE0FFE0FFE0FFE0FFE043
:1009BC00FFE0FFE0FFE0FFE0FFE0FFE0FFE0FFE033
:1009CC00FFE0FFE0FFE0FFE0FFE0FFE0FFE0FFE023
:1009DC00FFE0FFE0FFE0E70E10B153F9FFFFFFFF70
:1009EC00F7BFF7DFF7DFF7DFF7DFFFDFFFFFD75FDB
:1009FC00137B135A12FA3C5C6D5D121594B0FFE038
:100A0C00FFE0FFE0FFE0FFE0FFE0FFE0FFE0FFE0E2
:100A1C00FFE0FFE0FFE0FFE0FFE0FFE0FFE0FFE0D2
:100A2C00FFE0FFE0FFE0FFE0FFE0FFE0FFE0FFE0C2
:100A3C00FFE0F76EC62F21114337FFFFFFFFF7BF13
:100A4C00F7DFF7DFF7DFF7DFF7DFFFFFFFDFCF3F82
:100A5C0023FB1299135A6D7D43FA1113EF4EFFE0ED
:100A6C00FFE0FFE0FFE0FFE0FFE0FFE0FFE0FFE082
:100A7C00FFE0FFE0FFE0FFE0FFE0FFE0FFE0FFE072
:100A8C00FFE0FFE0FFE0FFE0FFE0E70EBDEF8410CA
:100A9C0052F1221410922A96F7FFFFFFF7BFF7DFEF
:100AAC00F7DFF7DFF7DFF7DFFFDFF7BFDF3FC6BFAB
:100ABC008DDD4C7B5CFC6D5D12156B91FFE0FFE0F6
:100ACC00FFE0FFE0FFE0FFE0FFE0FFE0FFE0FFE022
:100ADC00FFE0FFE0FFE0FFE0FFE0FFE0FFE0FFE012
:100AEC00FFCDDEAEA52F73B03A3211D42A763B7807
:100AFC0043F910D311D4DFBFFFFFF7BFF7DFF7DFE8
:100B0C00F7DFF7DFF7DFFFDFFFDFDF5FBE9F9DFE65
:100B1C00859D755D759E233810F2F74EFFE0FFE062
:100B2C00FFE0FFE0FFE0FFE0FFE0FFE0FFE0FFE0C1
:100B3C00FFE0FFE0FFE0FFE0EF0EBDEF84505B1144
:100B4C0021D311F532F7337843D933FA4C7B553D29
:100B5C002A351133D75FFFFFF7BFF7DFF7DFF7DF7A
:100B6C00F7DFF7DFFFDFFFDFE77FC6BF9E1E7D7D70
:100B7C005CDC6D7E3C1A1133AD8FFFE0FFE0FFE0D3
:100B8C00FFE0FFE0FFE0FFE0FFE0FFE0FFE0F74EFB
:100B9C00BDCF9CF063513A7211D4225533173B9957
:100BAC003BFA3C1A3C3B343B3C3B6CFC7DFE11F568
:100BBC001091C6FFFFFFF7BFF7DFF7DFF7DFF7DFB7
:100BCC00F7DFFFDFFFDFE77FC6DFA63E7D7D64DC5E
:100BDC006D5D447B11537C11FFE0FFE0FFE0FFE013
:100BEC00FFE0FFE0FFE0FFE0FFE0CE6F633119D3E1
:100BFC002A5532D633584BD93BFA3C1A343B3C5B22
:100C0C004C5B64DC7D5CA61EE75FFFFF7CDA109119
:100C1C00A61DFFFFFFDFF7DFF7DFF7DFF7DFF7DFFB
:100C2C00FFDFFFDFEF9FCEDFA63E859D64FC6D5D91
:100C3C004CBC11945B31FFE0FFE0FFE0FFE0FFE014
:100C4C00FFE0FFE0FFE0FFE0845011533B37441A14
:100C5C00341A341B341B445B549B6CFC95DDBE9ED8
:100C6C00EF9FFFFFFFFFFFFFFFFF851B1090855CD1
:100C7C00FFFFFFDFF7DFF7DFF7DFF7DFF7DFFFDF80
:100C8C00FFFFEF9FCEFFAE5E8DBD64FC6D3D54FC4F
:100C9C0011D54AB1FFE0FFE0FFE0FFE0FFE0FFE02D
:100CAC00FFE0FFE0FFE094F0119443FA54DC54BCF5
:100CBC0064DC857DB65EDF3FFFDFFFFFFFFFFFFFDC
:100CCC00FFFFFFFFFFDFFFFF95BC1090747AFFFF63
:100CDC00FFFFF7DFF7DFF7DFF7DFF7DFFFDFFFFF00
:100CEC00F7BFD71FAE5E8DBD6D1C651D5D1D12154A
:100CFC0031F2FFCDFFE0FFE0FFE0FFE0FFE0FFE0BF
:100D0C00FFE0FFE0FF8E1953547A9E5EC6BEFFDFF4
:100D1C00FFFFFFFFFFFFFFFFFFFFFFDFF7DFF7DF47
:100D2C00F7DFF7BFFFFFAE7E10905BB8FFFFFFFF52
:100D3C00F7BFF7DFF7DFF7DFF7DFF7DFFFFFF7BF0F
:100D4C00D71FB67E95DD6D3C651D653D1A7621720B
:100D5C00F76EFFE0FFE0FFE0FFE0FFE0FFE0FFE009
:100D6C00FFE0FFE0D68E1194BEFFFFFFFFFFFFFFF9
:100D7C00FFDFF7DFF7DFF7DFF7DFF7DFF7DFF7DFAF
:100D8C00F7BFFFFFC71F109142F7FFFFFFFFF7BF31
:100D9C00F7DFF7DFF7DFF7DFF7DFFFDFF7DFDF3F47
:100DAC00B69F95FE753C64FC655D22D71112E6EE8C
:100DBC00FFE0FFE0FFE0FFE0FFE0FFE0FFE0FFE02F
:100DCC00FFE0FFE0F76E10D2AE7DFFFFF7BFF7DF5D
:100DDC00F7DFF7DFF7DFF7DFF7DFF7DFF7DFF7BF77
:100DEC00FFFFDF9F10B22A15FFFFFFFFF7BFF7DFF2
:100DFC00F7DFF7DFF7DFF7DFFFFFF7DFDF5FBEBF00
:100E0C009DFE755D64FC6D7E2B3810F2C64FFFE0C5
:100E1C00FFE0FFE0FFE0FFE0FFE0FFE0FFE0FFE0CE
:100E2C00FFE0FFE0FFE063502A96FFFFFFFFF7BFF4
:100E3C00F7DFF7DFF7DFF7DFF7DFF7DFF7BFFFFFEE
:100E4C00F7FF11531173F7FFFFFFF7BFF7DFF7DF62
:100E5C00F7DFF7DFF7DFFFDFFFDFE75FC6BF9E1EC1
:100E6C007D7D64FC6D7E2B7910D22A33FFE0FFE090
:100E7C00FFE0FFE0FFE0FFE0FFE0FFE0FFE0FFE06E
:100E8C00FFE0FFE0FFE0FF8E10B15C5AFFFFFFFFB9
:100E9C00F7DFF7DFF7DFF7DFF7BFFFFFFFFFFFFF3E
:100EAC00325529B4FFFFFFFFFFFFF7BFF7DFF7DF76
:100EBC00F7DFF7DFFFDFFFFFE77FC6DFA63E857DAD
:100ECC0064FC6D7E3BD9111312154B12FFE0FFE051
:100EDC00FFE0FFE0FFE0FFE0FFE0FFE0FFE0FFE00E
:100EEC00FFE0FFE0FFE0FFE0BDEF10B2A63DFFFF2B
:100EFC00F7BFF7DFF7DFFFFFFFFFFFFFDF7F3B17DA
:100F0C001090649ACEBEC69EFFFFFFFFFFFFF7BF97
:100F1C00F7DFFFDFFFDFEF9FCEFFA63E859D64FC72
:100F2C006D7D441A109133383C1A6371FFE0FFE079
:100F3C00FFE0FFE0FFE0FFE0FFE0FFE0FFE0FFE0AD
:100F4C00FFE0FFE0FFE0FFE0FFE06B5111D5EFDFCA
:100F5C00FFFFFFFFFFFFE77F853B3B5811D5117467
:100F6C0012D81B381256125632F7955BFFFFFFFF53
:100F7C00F7BFFFFFEF9FCEFFAE5E8DBD64FC6D5DD6
:100F8C00447B10B211F5655D43987BF0FFE0FFE008
:100F9C00FFE0FFE0FFE0FFE0FFE0FFE0FFE0FFE04D
:100FAC00FFE0FFE0FFE0FFE0FFE0FFE0295143B886
:100FBC00FFFFFFFF749A1154109211942AF73B789B
:100FCC0022F712972BFA33FA12B811B532F7E79FC2
:100FDC00FFFFEF9FD71FAE7E8DBD6D1C6D5D54DC8A
:100FEC0010924B379E7F447B2AF794D0FFE0FFE0B2
:100FFC00FFE0FFE0FFE0FFE0FFE0FFE0FFE0FFE0ED
:10100C00FFE0FFE0FFE0FFE0FFE0FFE0CE6F1153F9
:10101C006CBA1A56109132D7959CCF1FF7BFEF5F61
:10102C00C65D63B812362BBA3C1B341B12361A56EB
:10103C00E77FF7DFB67E95DD6D3C653D5D1D10F3FA
:10104C0019D4FFFFA61E2BFA2296B58FFFE0FFE006
:10105C00FFE0FFE0FFE0FFE0FFE0FFE0FFE0FFE08C
:10106C00FFE0FFE0FFE0FFE0FFE0FFE0FFE07C30AF
:10107C0010901A36AE3DFFFFFFFFFFFFF77FDEFF3C
:10108C00DEDEE6DE4B77127733FA33BA3C3B1236B0
:10109C002AF7CF3F9E1E753C651D5D5D11541133C3
:1010AC00E7BFFFFF6CDC3C1A1A35CE6FFFE0FFE0A8
:1010BC00FFE0FFE0FFE0FFE0FFE0FFE0FFE0FFE02C
:1010CC00FFE0FFE0FFE0FFE0FFE0FFE0FFE0633068
:1010DC006C9AFFFFFFFFFFFFF7BFE75FD6DECE5D29
:1010EC00B5DCC5FC6BF81256341B33FA33DA341BFF
:1010FC0011F55C7A961E651C657E11D510B2CF3F3A
:10110C00FFFFFFFF5CBB3BFA19F4E70EFFE0FFE0CB
:10111C00FFE0FFE0FFE0FFE0FFE0FFE0FFE0FFE0CB
:10112C00FFE0FFE0FFE0FFE0FFE0FFE063729DFD0A
:10113C00FFFFFFFFF7DFF7DFEF5FDEDECE7DBDFCED
:10114C00AD7BB55B32B61B392B9A12771B393C5BE6
:10115C001AF81A97757D6D9E1A561091B6BEFFFF40
:10116C00FFFFF7BF549B33DA2214FF8EFFE0FFE042
:10117C00FFE0FFE0FFE0FFE0FFE0FFE0FFE0FFE06B
:10118C00FFE0FFE0FFE0FFE0FFE052D2A65EFFFFD2
:10119C00FFDFF7DFF7DFEF5FDEDECE7EBDFCAD7B82
:1011AC00B57B63B8125612771A96543922B712B718
:1011BC00341A12765D1D2B1810919DFDFFFFFFDF79
:1011CC00FFFFDF5F4C7B3BD93A72FFE0FFE0FFE0B3
:1011DC00FFE0FFE0FFE0FFE0FFE0FFE0FFE0FFE00B
:1011EC00FFE0FFE0FFE0FFE0FFE0CE6E5C38DFDF0A
:1011FC00FFFFF7BFEF7FDEFECE7EBE1DAD7BAD5B8E
:10120C008C79121511754398E79FFFFFE77F2A969B
:10121C001B1823381A761091853BFFFFFFDFF7DF91
:10122C00FFFFCEFF445B43D94AB1FFE0FFE0FFE094
:10123C00FFE0FFE0FFE0FFE0FFE0FFE0FFE0FFE0AA
:10124C00FFE0FFE0FFE0FFE0FFE0FF6CB3681A5542
:10125C00C73FFFFFDEFECE7EBE1DAD9CAD5B94BADC
:10126C001A3510F3643AFFFFFFFFEF5FFFFFA59CF9
:10127C0012771AD710906C9AFFFFFFFFF7BFF7DFBA
:10128C00FFFFBE9E3C3B3B986351FFE0FFE0FFE05D
:10129C00FFE0FFE0FFE0FFE0FFE0FFE0FFE0FFE04A
:1012AC00FFE0FFE0FFE0FF8CFC85FAC2FCC2C42229
:1012BC00121395DFFF7FC61DAD9CAD5B9CDA2276C9
:1012CC0010B35419FFFFFFFFEF7FE71FE6FECE7D43
:1012DC002B38117553D8FFFFFFFFF7BFF7DFF7DF90
:1012EC00FFFFA63E341B2B387C10FFE0FFE0FFE035
:1012FC00FFE0FFE0FFE0FFE0FFE0FFE0FFE0FFE0EA
:10130C00FFE0FFE0FF4BFB83FAA2FBC2FDC2FE2213
:10131C00DC8212106CDED67DAD5BA4FA32D610B333
:10132C004398FFFFFFFFEF7FE71FD6BECE7DD67D34
:10133C003B1711B5C6FFFFFFF7BFF7DFF7DFFFDF86
:10134C00FFFF95BD343B2AD79CF0FFE0FFE0FFE0A8
:10135C00FFE0FFE0FFE0FFE0FFE0FFE0FFE0FFE089
:10136C00FFE0FFCCFB63FAC2FAE2FD02FDA2FD62D4
:10137C00FE62F3A2195053FCB57B433710B332F71E
:10138C00FFFFFFFFEF7FE73FD6DECE7DC63DB5DC2E
:10139C001A961236E77FFFFFF7DFF7DFF7DFFFDF85
:1013AC00FFFF7D5C3C1B2A96B58FFFE0FFE0FFE062
:1013BC00FFE0FFE0FFE0FFE0FFE0FFE0FFE0FFE029
:1013CC00FFE0FD68FB62FAC2FB42FD82FDA2FDE27A
:1013DC00FC82FB02EDEA95112A7711332A96EFDF96
:1013EC00FFFFEF7FE73FD6DECE7EBE1DC5FC951A14
:1013FC0011942B38FFFFFFFFF7DFF7DFF7DFFFDF7D
:10140C00FFFF751C341A2A75C60FFFE0FFE0FFE0E2
:10141C00FFE0FFE0FFE0FFE0FFE0FFE0FFE0FFE0C8
:10142C00FF8CFC87FC26FB63FBC2FDC2FD62FC2229
:10143C00FAC2FAE2FF6BFFE0BDF02A15DFDFFFFF17
:10144C00EF7FE73FD6DECE7EC61DB5BCBDBC7419A2
:10145C0010B374FBFFFFF7DFF7DFF7DFF7DFFFFFFA
:10146C00FFFF64DC33FA1215D68EFFE0FFE0FFE0DD
:10147C00FFE0FFE0FFE0FFE0FFE0FFE0FFE0FFE068
:10148C00FE09FCE8FCA7FC47FC04FC22FB22FA82C8
:10149C00FAE2FBC3FFE0FFE0FFE0B4CD443CF7FF12
:1014AC00FFDFD6DECE7EC61DB5BCAD5BAD5B2AB60E
:1014BC001134CEFFFFFFF7DFF7DFF7DFF7DFFFFFBA
:1014CC00F7DF5CBB33FA1A14EF4EFFE0FFE0FFE0EE
:1014DC00FFE0FFE0FFE0FFE0FFE0FFE0FFE0FFE008
:1014EC00FD65FD26FCE7FCC8FC67FBA5FB63FB2246
:1014FC00FAC2FEAAFFE0FECAFCA5FBA378E51AB966
:10150C00CF1FEF3FBE1DB5DCAD5BAD3B7C5911135E
:10151C005419FFFFFFDFF7DFF7DFF7DFF7DFFFFF20
:10152C00EF9F4C7B441A2213FFAEFFE0FFE0FFE07D
:10153C00FFE0FFE0FFE0FFE0FFE0FFE0FFE0FFE0A7
:10154C00FD62FD43FD26FD07FCC8FC87FC46FBC481
:10155C00FD06FFE0FDA7FB22FAC2FAC2FC629B6407
:10156C001276A5FFD67DA55B9CFAA4FA3AD610B3E9
:10157C009DFDFFFFFFFFF7DFF7DFF7DFF7DFFFFF73
:10158C00EF7F4C9B43F93232FFE0FFE0FFE0FFE0DE
:10159C00FFE0FFE0FFE0FFE0FFE0FFE0FFE0FFE047
:1015AC00FD82FD62FD63FD45FD07FCE7FCA7FD88A0
:1015BC00FFE0FDA9FBE4FB83FB02FC62FDE2FE22E3
:1015CC00BBE312147CFEBD9BA4DA6BF822133A72B7
:1015DC0019B46C7AE7BFFFFFFFFFF7BFF7DFFFFF20
:1015EC00C6DF54FC33376B90FFE0FFE0FFE0FFE019
:1015FC00FFE0FFE0FFE0FFE0FFE0FFE0FFE0FFE0E7
:10160C00FDE4FD62FD62FD62FD44FD26FE6AFFE025
:10161C00FE2AFC67FC26FBA5FC62FDC2FD62FDA256
:10162C00FD82D2621192641B9CDA2235EF2EFFE010
:10163C00AD6F297111D5851BFFFFFFFFFFFFFFFF6A
:10164C00AE7E447B19B4CE4FFFE0FFE0FFE0FFE03D
:10165C00FFE0FFE0FFE0FFE0FFE0FFE0FFE0FFE086
:10166C00FF09FDC3FDE4FE04FEA7FF8BFFE0FF2B8B
:10167C00FCC7FCA7FC67FC45FD62FD82FD62FDC258
:10168C00FBC2FB02E5CB6C332A56AD8FFFE0FFE0CB
:10169C00FFE0FFCD8C7018D12A559DDCFFFFFFFFBA
:1016AC00961E223552D1FFE0FFE0FFE0FFE0FFE0A5
:1016BC00FFE0FFE0FFE0FFE0FFE0FFE0FFE0FFE026
:1016CC00FFE0FFE0FFE0FFE0FFE0FFE0FFE0FD6791
:1016DC00FCE7FCC7FC88FCE4FD82FD62FDC2FC82D9
:1016EC00FAC2FAE2FFCCFFE0B5CFFFE0FFE0FFE08B
:1016FC00FFE0FFE0FFE0F74E7BF010F22A964BB8CC
:10170C0022353A52FF8EFFE0FFE0FFE0FFE0FFE002
:10171C00FFE0FFE0FFE0FFE0FFE0FFE0FFE0FFE0C5
:10172C00FFE0FFE0FFE0FFE0FFE0FFE0FF2AFD2627
:10173C00FD06FCE7FCA8FD03FD82FD62FCC3FBA4D7
:10174C00FB62FBE3FFE0FFE0FFE0FFE0FFE0FFE018
:10175C00FFE0FFE0FFE0FFE0FFE0E70E94B07390E6
:10176C00A52FFFE0FFE0FFE0FFE0FFE0FFE0FFE080
:10177C00FFE0FFE0FFE0FFE0FFE0FFE0FFE0FFE065
:10178C00FFE0FFE0FFE0FFE0FFE0FFE0FE47FD458C
:10179C00FD26FD06FCE7FD05FD04FC86FC27FC068A
:1017AC00FBE4FE69FFE0FFE0FFE0FFE0FFE0FFE0AD
:1017BC00FFE0FFE0FFE0FFE0FFE0FFE0FFE0FFE025
:1017CC00FFE0FFE0FFE0FFE0FFE0FFE0FFE0FFE015
:1017DC00FFE0FFE0FFE0FFE0FFE0FFE0FFE0FFE005
:1017EC00FFE0FFE0FFE0FFE0FFE0FFE0FE04FD4371
:1017FC00FD44FD25FD26FCE7FCC8FCA8FC87FC6627
:10180C00FCE7FFE0FFE0FFE0FFE0FFE0FFE0FFE0D0
:10181C00FFE0FFE0FFE0FFE0FFE0FFE0FFE0FFE0C4
:10182C00FFE0FFE0FFE0FFE0FFE0FFE0FFE0FFE0B4
:10183C00FFE0FFE0FFE0FFE0FFE0FFE0FFE0FFE0A4
:10184C00FFE0FFE0FFE0FFE0FFE0FFE0FDE4FD6212
:10185C00FD42FD44FD25FD06FD07FCE7FCC7FCC869
:10186C00FFACFFE0FFE0FFE0FFE0FFE0FFE0FFE0A8
:10187C00FFE0FFE0FFE0FFE0FFE0FFE0FFE0FFE064
:10188C00FFE0FFE0FFE0FFE0FFE0FFE0FFE0FFE054
:10189C00FFE0FFE0FFE0FFE0FFE0FFE0FFE0FFE044
:1018AC00FFE0FFE0FFE0FFE0FFE0FFE0FE04FD6291
:1018BC00FD42FD42FD44FD25FD26FD07FD28FF6C84
:1018CC00FFE0FFE0FFE0FFE0FFE0FFE0FFE0FFE014
:1018DC00FFE0FFE0FFE0FFE0FFE0FFE0FFE0FFE004
:1018EC00FFE0FFE0FFE0FFE0FFE0FFE0FFE0FFE0F4
:1018FC00FFE0FFE0FFE0FFE0FFE0FFE0FFE0FFE0E4
:10190C00FFE0FFE0FFE0FFE0FFE0FFE0FE66FD62CE
:10191C00FD62FD62FD42FD44FD45FDE8FFCCFFE0AC
:10192C00FFE0FFE0FFE0FFE0FFE0FFE0FFE0FFE0B3
:10193C00FFE0FFE0FFE0FFE0FFE0FFE0FFE0FFE0A3
:10194C00FFE0FFE0FFE0FFE0FFE0FFE0FFE0FFE093
:10195C00FFE0FFE0FFE0FFE0FFE0FFE0FFE0FFE083
:10196C00FFE0FFE0FFE0FFE0FFE0FFE0FF09FD82AA
:10197C00FD82FD82FDA3FE46FF2AFFE0FFE0FFE0B3
:10198C00FFE0FFE0FFE0FFE0FFE0FFE0FFE0FFE053
:10199C00FFE0FFE0FFE0FFE0FFE0FFE0FFE0FFE043
:1019AC00FFE0FFE0FFE0FFE0FFE0FFE0FFE0FFE033
:1019BC00FFE0FFE0FFE0FFE0FFE0FFE0FFE0FFE023
:1019CC00DFF800F049C10110DFF800F019C2011076
:1019DC00DFF800F041AC0110DFF800F0CDA00110F1
:1019EC00DFF800F085C10110DFF800F0C1C2011072
:1019FC00DFF800F0E3BF0110DFF800F0CDC10110FB
:101A0C00DFF800F03DC10110DFF800F0DDB201108D
:101A1C00DFF800F085B00110DFF800F029AF0110FD
:101A2C00DFF800F079B50110DFF800F0C1C101104A
:101A3C00DFF800F009B70110DFF800F0D5C0011095
:101A4C00DFF800F0E1B5011020B1082328220021B5
:101A5C00FFF7D2BF704720B1082330220021FFF7D7
:101A6C00CFBF704738B500F06FFE25680DB12968FF
:101A7C002160FFF7A9FF284632BD70B504460D461C
:101A8C002668002028601EB9FFF79AFF25600DE03C
:101A9C00FFF796FF00E0366831680029FBD1AE42B3
:101AAC0003D1FFF791FF002070BD3560FFF78CFF6D
:101ABC00012070BD0022DFF8801C01EB4211CB7FAE
:101ACC001B0605D5B1F91C30834201D1084670477D
:101ADC00521C082AEFDB00207047F8B500F034FEEA
:101AEC000546DFF81C0AC17D0A001CD0491EC175D1
:101AFC00C9B2C1B9DFF80C7A082107F14C0001F02A
:101B0C0054F884B1B86B703001F025F8B86BDFF87D
:101B1C002C1CC0680968201A07F1EC0600F0B4FD13
:101B2C003046FFF765FF2846BDE8F240FFF74CBF93
:101B3C0010B50446207B00F00F00022802BFDFF82E
:101B4C00C009007D002817D100F0B4FCA1688908F9
:101B5C00A1EB90006FF0704188420DDAB0F1704F3C
:101B6C00BCBFDFF8041B0818DFF89819896BC9682B
:101B7C0001F57A71814200DB002010BD38B5DFF829
:101B8C00EC0ADFF8EC2A0168DFF8784902EA010573
:101B9C00E9430160A90606D54068800603D54FF4D9
:101BAC00005100F090FB15F4602F0BD0A06905F4E8
:101BBC0060210843A061002104F19C00BDE8344081
:101BCC0000F0F3BF31BD70B5FFF7FAFEDFF8344912
:101BDC000646A06910F4602F27D0A069C5012D0E10
:101BEC00E80748BF002506D4A80748BF012502D442
:101BFC00680748BF0225681D40B200F0E2FEA069EC
:101C0C00012105F1110291408843A0613046FFF794
:101C1C00DBFE04EB85008668300009D0606800228A
:101C2C004FF00063691DB04702E03046FFF7CCFE71
:101C3C00A06920B1002104F19C0000F0B6FFE07F08
:101C4C0080070DD56569280006D0606800224FF02A
:101C5C0000436FF00101A847E07F00F0FD00E07742
:101C6C0070BD70B5FEF7E4F9DFF89858DFF8D04A8C
:101C7C00AB6A024690071DD4D3E90401104007D08B
:101C8C00EB629969084398614FF4804100F0F8FCCD
:101C9C00A86A002849D16E6A002E46D0F068A96B5C
:101CAC00884224D005F14C00BDE870404FF48051BF
:101CBC0000F07BBF0BB9A86AEAE70020A862D3E961
:101CCC0004019E69024042F0020232439A61626949
:101CDC0082436261E26822EA0100E060194605F184
:101CEC003000FFF7CAFE022100F0CAFCE3E7B0683F
:101CFC00FFF71EFFA86418B1A86CBDE87040ECE6B5
:101D0C00D6E90401626902436261E26841EA0200B9
:101D1C00E0600020E061B0682060E0690028FCD041
:101D2C0005F12400FFF79EFEAE6270BD0020D4E6E4
:101D3C00F8B506461446376E1D4607B1B847A007DE
:101D4C0008D4D6E91601204029400022914208BF50
:101D5C00904207D0C6E91A4506F13800BDE8F240BA
:101D6C00FFF736BEF1BDFEE780B500F00EFFDFF8E1
:101D7C0094270146906BD26BBDE80840104710B514
:101D8C00DFF880470FF23D01E06B884202D101F091
:101D9C00E1FA206404F14C00BDE81040042100F08D
:101DAC0004BF80B5FEF744F9DFF89819084207D054
:101DBC00BDE804404FF00051DFF8A40B00F0F5BE75
:101DCC0001BD000038B5042951D1DFF83847606AED
:101DDC00A16B08B1C16803E0E07FC00748BF616830
:101DEC00A1630846DFF8B42A41680B7813601268C7
:101DFC0009788A421CBF8569002D05D000224FF05E
:101E0C0000736FF0FF01A847022001F0E7FB1120DF
:101E1C0001F0F9FBDFF8E8060121C176A16B407EE9
:101E2C00097C014204BF0E2001F0EDFBA06BDFF832
:101E3C00101940688268002A04BFC068002804D0CA
:101E4C000020C861DFF8C40A086040F2FF70DFF8B8
:101E5C00C02A106000208861DFF8E80848610FF2A2
:101E6C001100E0631920BDE83240FFF7CDBD31BD54
:101E7C002DE9FF418046880040F19780DFF88456B9
:101E8C00A86B40684068010018BF8047A86BDFF85A
:101E9C00B06840688168002904BFC168002912D06D
:101EAC00F1690029FCD00021F1618068010018BFA4
:101EBC008047A86B4068C068010018BF8047DFF8F6
:101ECC00A40AFEF7BDF80020F06108F10807DFF85E
:101EDC00980A30600120FEF7FBF800220FF21D106B
:101EEC00E86340F60A01DFF8180642800180027BA5
:101EFC0002F0F002027300224260427B02F0F00218
:101F0C0042F00102427300223C68628000E01446F9
:101F1C006268002A1CBF13888B42F8D1606040F6BF
:101F2C000302617B01F0F0016173696A89680988B9
:101F3C0091421CBF40F60402914217D0398BA9B1D3
:101F4C0000217983F96108F12C010A7802F0F00282
:101F5C000A704A7802F0F00242F001024A7008F16D
:101F6C0020014160417B01F0F00141736946386802
:101F7C00FEF78EF86846FEF79AF83868FEF796F882
:101F8C00F0690028FCD00020F061012001F0FAFD7E
:101F9C00012808D0607B00F0F00040F00100607375
:101FAC000FF20D00E86338683060BDE8FF81000077
:101FBC00DFF84C0A014200D17047012010B501F046
:101FCC00E1FD0128DFF83C4508D10FF23100DFF8C4
:101FDC007017E063DFF82805086010BDDFF8241ADD
:101FEC0009683220EC34B0FBF1F12046FFF7FCFC21
:101FFC002046BDE81040FFF7FBBC00002DE9FE4376
:10200C0006460D466804DFF8FC4417D5FFF7D8FCEC
:10201C00E66AB769FFF7D8FCB8070CD45EB1B069B3
:10202C00B843B061706830B1B6F91C10F0687668CE
:10203C003A460023B04725F480453DE1A807DFF878
:10204C00C0747BD5266B002E70D0B168202001E0C7
:10205C004968401E79B1C2B26AB10A8840F60303DE
:10206C009A421CBF40F604039A42F1D1F068182240
:10207C00203001F04DFEB0690021B1617168E1B111
:10208C0040F00202F07F002300F00700012807D087
:10209C00022809D0042804BF00224FF0805306E028
:1020AC0000224FF0005302E000224FF08043B6F9BB
:1020BC001C10F068D6F804C0E047FFF781FC80469E
:1020CC00E08E401CC0F30B00E086206BC17F01F05A
:1020DC007F01C17704F13000FFF7C4FC00F0EDFB89
:1020EC00B4F93610F06800F19402B2F9003099425C
:1020FC0004BF397D002919D1917809B9016821B93A
:10210C0000209070FFF7E9FC10E0A26B126812F14E
:10211C00010F0BD0DFF824261268B1FBF2F17030FE
:10212C00FFF762FCF0687030FFF762FC206B002850
:10213C0025F0020501D045F00205BDE0A80004F130
:10214C00800840F6090957D5206CB8B1042001F07D
:10215C0019FD98B101F0FEF8216C814228BF401E98
:10216C00401A000B00F58D70F06040F2D761A0F2C0
:10217C00EE20884224BF40F6C410F060002020649A
:10218C00D6F818C0BCF1000F0DD0787B0F21084297
:10219C0004BF708C484506D100224FF000736FF4D9
:1021AC0080713046E0470022DFF85C18404600F0B2
:1021BC000FFDB87E50B10220ADF800006846FDF767
:1021CC003FFFBDF80800A0830020B876012084F8FA
:1021DC002000F87D401CF8750020F876192000F0DE
:1021EC00FAFC77692FB100224FF080630021304652
:1021FC00B84725F000555FE0B87F25F0080620B100
:10220C00280702D50020B87743E0280743D50020E3
:10221C0084F82000012038770020FDF759FF0FF2D9
:10222C00B100DFF8E817DFF8D056E0630022404633
:10223C0000F0CEFCB97E787E81F00101084202D11B
:10224C00012078760FE0A06CF8B101F083F8216CD6
:10225C00626C401A02EB10306064A16CB0EBC11FD1
:10226C0013D300206064A7F80090787B00F0F00096
:10227C0040F00100787300207880387B00F0F0008B
:10228C003873002078602F6003E04FF0005100F0AD
:10229C001AF8354610E0A8040ED5A66A002E1CBF0D
:1022AC007068002806D0B6F91C10F0687668002219
:1022BC002023B04725F4005515B1294600F003F84A
:1022CC00BDE8F783022104F14C0000F06EBC000065
:1022DC0070B50646880028D5FDF7BFFE894CDFF89F
:1022EC003007874DE063687D18B906F13800FFF7B9
:1022FC006FFBDFF81C1600200860022001F004F9C7
:10230C00112001F015F9307C10B90E2001F010F9F4
:10231C000020A883287E40B100202876042104F1F7
:10232C004C00BDE8704000F040BC70BD30B58DB0C5
:10233C0001F06BF8DFF8DC06DFF8DC460168714D64
:10234C0041F00201016001A8FFF77EFBA078DFF8E5
:10235C00CC160790002301AA05F14C00FFF758FB9F
:10236C0001A8FFF778FB0020ADF81C0001AB20782A
:10237C00DFF89826099019210020009005F18000C3
:10238C00FFF74AFB01A8FFF75FFBE078DFF8901638
:10239C000790002301AA05F19C00FFF739FB01A867
:1023AC00FFF759FB0120ADF81C0001AB6078DFF89A
:1023BC00742609901A210020009005F1D000FFF737
:1023CC002BFB00230022DFF8601605F1EC00FFF771
:1023DC0027FBDFF83C06E86301214FF6FF70A8836A
:1023EC000DB0DFF8480681760021E9774176C17699
:1023FC0081838177296430BD2DE9F041404E04463C
:10240C00707D8EB00F4690461D4618B9FFF78EFFB3
:10241C0001207075002F1CBF6760B8F1000F47D00A
:10242C00C4F80880FFF7CCFAB17D00293ED1012118
:10243C00B175FFF7C9FA35B909A80FF2206114225A
:10244C0001F066FC09AD286820606868E060287AB5
:10245C002074E86860612869010018BFA0617821C8
:10246C0004F1200001F080FC08232422002168469E
:10247C00FFF7DAFA01208DF818006A46002104F102
:10248C003800FFF7D5FA0823242200216846FFF70D
:10249C00A7FA06946B460022DFF8941504F170003D
:1024AC00FFF7BEFA20460EB0BDE8F081FFF78CFABC
:1024BC000020F8E738B5FFF783FA124991F820109D
:1024CC0031B1DFF874150C68FFF77EFA204632BD87
:1024DC00FFF77AFA00F03EFF10F50030DFF85C25CC
:1024EC0041F10001A2FB0045054802FB01550169C1
:1024FC000020221845EB0103184632BD00000000F5
:10250C0050240020402300202DE9F84F80460C4633
:10251C0092469B46FFF754FADFF818558146B5F9F9
:10252C003400B5F93610401AC0F30B0008286FF0D0
:10253C00010648DAA88E401CC0F30B00A886B5F93A
:10254C003400ADF8000000207B4901EB4017F97F07
:10255C00090604D5401CC0B20828F5DB002708F199
:10256C00700000F0F8FABC6087F81EA0C7F804B041
:10257C002021BDF80000B883C7F80C80DDE90A23E0
:10258C00DFF8BC0410401940C7E9040108F19404B9
:10259C000020F87740F6FF78686A0028394605F184
:1025AC00240008D0FFF769FA40B1BDF8000000F034
:1025BC0061F848464BE0FFF760FA48B9A88E4044F2
:1025CC00C0F30B00A8864846FFF7FEF9304649E0F9
:1025DC00BDF80000DFF8546400F04CF80020A07047
:1025EC0095F82010707F084207D00120B0770020AA
:1025FC007077B076F07D401CF0754846FFF7E4F933
:10260C00A86A68BB95F8200018B1192000F0E3FA0D
:10261C0026E0F07E20BBFFF7D3F90446307F10B1E3
:10262C000120307612E0B868FFF782FAA86488B10E
:10263C00A86CA96BC968401ADFF8C813096805F1C2
:10264C00EC0600F021F83046FFF7D2F92046FFF7F0
:10265C00BBF905E02046FFF7B7F9042100F010F8AC
:10266C00BDF90000BDE8F28FF6FFFF1F0810044013
:10267C0020000E002080F87F40F08000F877704733
:10268C0005F14C0000F091BAB0FBF1F13046FFF7C8
:10269C00ABB92DE9F04106460F4614461D46FFF72F
:1026AC00CBF980463846FFF705FA070003D14046C0
:1026BC00FFF7C6F90AE0F87F0721084209D0404627
:1026CC00FFF7BEF90721F87F0842FCD10220002158
:1026DC0014E07968DFF86C03814202D079683166C6
:1026EC007860C6E916454046FFF7AAF94FF0FF316E
:1026FC0006F13800FFF770F9D6E91A01BDE8F08150
:10270C00DCB5DDE906670446CDE90067180008BFB3
:10271C00DFF830332046FFF7F7FE002803D5002002
:10272C004FF00041DCBD0146204602B0BDE8D04070
:10273C0002224FF0E043ACE7C00E0020E80000009E
:10274C0000100440020000400446FFF739B901E0D4
:10275C0042F002022DE9F843DFF8D842606A00909B
:10276C00894603271546FFF72BF919F1010F05F0E0
:10277C00010680460AD1A06A002819BFA06AB0F9E8
:10278C001C90E08E00F101090020E0770FFA89F02F
:10279C00FFF790F901007CD0A06A814205F0020598
:1027AC0025D1280003D0606A0090002060620122CD
:1027BC00C87FB2401043C877FFF73EF90746002E9A
:1027CC0014BFDFF88402DFF88402FDF739FC00F057
:1027DC0074F825B906E000F063F800F069F8009889
:1027EC000028F8D13846FFF72BF9832753E0009ADD
:1027FC008A4204F1EC0016D100F0ADF9280012BFAA
:10280C000020606A0068606200F057F8009800F0E1
:10281C0047F800F04DF8009818B32800F6D120E0E6
:10282C00009A12680092009AEAB112688A42F7D1B3
:10283C0000F091F9009800681DB1009A0021116018
:10284C0004E00168009A116000210160009003E02F
:10285C0000F026F800F02CF800980028F8D100F0D1
:10286C002CF8832701E000F028F8DFF8C001C17EC6
:10287C0011B1FFF727FD0EE0007F60B9DFF8D00142
:10288C00E063FFF71FFD94F8200020B96048E06377
:10289C0001E000F012F83846BDE8F283D021084080
:1028AC00C07F009940F00400C8776846FFF7DAB89B
:1028BC00014604F13000FFF7E0B84046FFF784B85A
:1028CC0038B5FFF741FF05465A4890F8200068B12B
:1028DC002046FDF7B5FB044600F048F804F0FF0075
:1028EC00012801D1812032BD022032BD00F03EF81A
:1028FC00012032BD00000000001004400A464D4982
:10290C00896B884201D0032070470AE0510007060A
:10291C00000004600A464749896B884201D00320B5
:10292C00704700211046CBE770B542498A6B904244
:10293C006FF07F0412D191F8200078B1FFF740F8C6
:10294C0005464448FDF77CFB064600F00FF806F000
:10295C00FF00012802D13002001670BD204670BD68
:10296C008C2300200100070601010E042846FFF706
:10297C002BB870B50E461546FFF722F883242D4967
:10298C001EB1022E0DD004D30FE08A6A3AB1896AC7
:10299C0002E0264A927E12B9898B298006E08024B7
:1029AC0004E091F82010297000E00324FFF70CF8E4
:1029BC00204670BD80B50846FFF77CF800B18068F2
:1029CC0002BD38B5FFF7C0FE1A49CA7F520702D5BF
:1029DC008B7F9C4210D001228B8B02FA04F52B4387
:1029EC008B830C341C490B68A24023EA02020A6058
:1029FC00096809B90D4A1175BDE83240FEF7E4BF0C
:102A0C0004000020E80000006F1C0000AF1D000057
:102A1C00D11D000000200940A8AA0000751D00006F
:102A2C00D31B0000891B00008B1D000050240020CC
:102A3C00391D0000402300200430044000093D00F3
:102A4C00F1EFFF9F3D1D0000010002040100010495
:102A5C0009200000010003040C100440FFFFFFFFDD
:102A6C00C40900000100000000000000731D0000FC
:102A7C00DFF800F021B30110DFF800F095C0011071
:102A8C00DFF800F00DA80110DFF800F0BDBE01105A
:102A9C00FEE7DFF80001007D70476DE038B5FFF709
:102AAC00FCFFDFF8F8500446A8680021FFF7E4FFAC
:102ABC006969081AA969814238BF002084F311881A
:102ACC0032BD2DE9F041FFF7E8FFDFF8D0500446A6
:102ADC00A8680121FFF7D0FF0121A9830021E98318
:102AEC006E6929682A68871B801A711A884204D279
:102AFC000020A88384F311882BE084F31188002430
:102B0C0006E0A61931460120FFF7BAFF3F1B044629
:102B1C00A742F6D2FFF7C1FF8046E88B012804D10B
:102B2C0031460020FFF7ACFF0446A96914F1010FF0
:102B3C0008BF084603D0E01B814238BF0846811904
:102B4C00FFF7A2FF012028840020A8832E6088F3C1
:102B5C001188BDE8F08100218182DFF83C10C0684B
:102B6C004969884204D1DFF85C000068FEF740BF79
:102B7C007047808A70477047DFF84C100968EFF394
:102B8C00118081F311887047F6E7DFF84000806808
:102B9C0070470000A401002078010020780100207B
:102BAC00616280F311882046704738B504460D46A3
:102BBC00FFF7EAFF616A2943FFF7F2FFBDE83240F5
:102BCC00FFF756BFEC000000E4000000C801002035
:102BDC00816042607047102804D3DFF80C10103865
:102BEC00C1F8000F7047000000E000E001F0C0B831
:102BFC00FFF7C2BFDFF89811C20744BF01220A6079
:102C0C00820744BF4FF480720A60400744BF4FF400
:102C1C00803008607047DFF87C21C30748BF116023
:102C2C00830748BF5160400748BF91607047000060
:102C3C0010B504460020D4E90A2347F6906101F050
:102C4C0091FB0123994228BF4FF0FF3010BD10B506
:102C5C000C4600F075FB011D201AB0F1004F05D891
:102C6C00081BB0F1004F38BF8C4200D20C462146F5
:102C7C00BDE810400120CEE72DE9F04180460A4620
:102C8C00D8E90A01D8E90C45A0FB026701FB0277E1
:102C9C00A6196F41340C002244EA07414046FFF765
:102CAC00D6FFC8E90E67BDE8F081F8B50646FFF718
:102CBC009FFF0446DFF8E050DFF8E0700120E86188
:102CCC00FFF798FFF96A096A142088473069B0F554
:102CDC00802F34BF0421010C0120FFF79CFF3A68C0
:102CEC001268232100209047DFF8B41001200860FF
:102CFC00DFF8B400016821F4E02141F48031016077
:102D0C000120286084F31188F1BD000000F022BB83
:102D1C0010B5DFF89000446800F006F86069A1690E
:102D2C00BDE8104008470000012063E7F8B50446F1
:102D3C000D4600F00FFBD4E90A6732463B4601F022
:102D4C0011FB3DB1A6FB002306FB013307FB00334F
:102D5C00C4E90C23F2BD10B5DFF83C00DFF8644089
:102D6C00002101600121C16121602068FFF7DCFFB7
:102D7C00DFF860100968096A14208847206810BDC4
:102D8C00000080B500F0E6FA000C40EA014002BDFC
:102D9C00042009401820094000002443840100103D
:102DAC0080022443E401002000200940DFF8EC14E9
:102DBC00096821B10A898242FAD10846704700207D
:102DCC00704700002C200940DFF8D804C0887047F9
:102DDC0000000000B001001000F008F80EBD00BFAC
:102DEC0008B582B00023009302ABF5E777B58DB040
:102DFC001C461498ADF8180000250F9828B92CE142
:102E0C000EAA0DA800F070F96D1C00F032F9080044
:102E1C0000F01D812529F3D100F02BF92D2905D1C6
:102E2C000120ADF8060000F024F902E00020ADF816
:102E3C000600302904D10120049000F01AF901E0B9
:102E4C0000200490002000904FF0FF3002900A20E8
:102E5C002A2918D12168216051F8042B2160009295
:102E6C0000F0FDF8009A002A11D50122ADF80620D9
:102E7C00009A524200920AE0009A00FB021130398B
:102E8C00009100F0ECF8A1F130020A2AF4D32E29BB
:102E9C001AD1002100F0F2F82A290F9210D100F07B
:102EAC00F9F80291002944BF0020029000F0E1F8EB
:102EBC000AE0029A00FB0211303900F0DFF80F92A1
:102ECC00A1F130020A2AF4D3049808B100980490B6
:102EDC006C2918BF4C2905D10120ADF8040000F075
:102EEC00C8F802E00020ADF8040008A807900CA870
:102EFC0005900020642918BF692903900DD1BDF8F5
:102F0C0018000028FFD000F0BFF86FF009030298FA
:102F1C00049A8242B8BF049019E00A2375291FBF96
:102F2C001023782908236F2903D1BDF8180038B96C
:102F3C0006E0702913D1049320682060016814E026
:102F4C0000F0A2F8049A02988242B8BF0490049A46
:102F5C00059800F0A5F807900599081A2FE0632949
:102F6C0019D12068206001680FE0001D206010233B
:102F7C000598082200F094F8401E0790402007990D
:102F8C00087005980799401A19E0001D20600798F1
:102F9C000170012013E0732913D100F07BF8079125
:102FAC0011B90FF244300790079801F053FA0390CF
:102FBC00029810F1010F1ED0039988421BDA03907E
:102FCC0019E00F98401E0F900E98022813D3029808
:102FDC0010F1010F02D00E99884201D30E9800E037
:102FEC00401CDFF8C462366802906B4622460FA97B
:102FFC000DA8B047451900980399401A0090BDF8E8
:10300C00060038B902E000F030F86D1C0098401E44
:10301C000090F8D50398411E039150B10798401CBD
:10302C0007900EAA10F8011D0DA800F05DF86D1C9C
:10303C00F0E7BDF8060000283FF4E7AE0098401E0C
:10304C0000903FF5E2AE00F010F86D1CF6E70D981D
:10305C0010B10D9900200870284610B070BD0F9962
:10306C000F9A0978521C0F9270470EAA20210DA8B6
:10307C003AE00F9810F8011B0F90704702910F99CE
:10308C000F9A0978521C7047206820600168001D57
:10309C00206070472068206050F8041B2060704747
:1030AC00F0B500240025002B44BF5B42002902D55B
:1030BC004942521E2D25B1FBF3F60FF2342703FBC8
:1030CC001611641C795C00F8011D31460029F2D1FF
:1030DC009442BEBF302100F8011D641CF8DB2900AE
:1030EC0018BF00F8015DF0BD10B50C46116802293F
:1030FC000BD3491E1160016819B14A1C02600C7097
:10310C0010BD01F0FDFA00B100E010BD2046BDE895
:10311C00104001F0F3BA6549096808476448006833
:10312C00004701207047FEE77047704710B5044612
:10313C00606808B9012010BD0B460146206852A2F8
:10314C0000F0BCF8A1684118A16061680129A4BF16
:10315C00081A6060002010BD2DE9F0410446884635
:10316C00A088164600F021F80746F11B002E01D46A
:10317C000A2904DB236845A200F083F8C719A0894B
:10318C0080B1F51BA468002E05D4204601F062F92D
:10319C00401D854206DB23460FF26812294600F0DB
:1031AC0070F8C7193846BDE8F0813EB50D463A496E
:1031BC00098814468142034628BF0FF2501210D2E0
:1031CC0037490988814207D3FFF7F0FD2146426851
:1031DC00284600F073F83EBD2D49098831B90FF22D
:1031EC0038122146284600F069F83EBD314B1B6869
:1031FC000095002C48BF47F6FF7400210291019402
:10320C006A462D49984702983EBD2DE9F8431700B0
:10321C0048BF47F6FF7704468846002674B32088DB
:10322C00010004D03A464146FFF7BFFF0646B91BE2
:10323C00012922DB208820B116A2404600F03EF87E
:10324C008619A068C8B1656875B1284601F002F905
:10325C00A7EB0609401D814506DB2B460FF2CC027D
:10326C00494600F00EF88619B91B122905DBA36834
:10327C000FF2C00200F005F886193046BDE8F28363
:10328C00000040461AE00000257300002570000085
:10329C008A0500003A2000007A3D0000A40E0020B0
:1032AC00723D0000F001002068BA000060BA000016
:1032BC0064BA00006CBA00003931000008B478B56B
:1032CC0004001ABF2668002E00260D4605AB3046BA
:1032DC00FFF786FD854238BF681E16B12168014490
:1032EC00216072BC5DF808FB286E756C6C290000BF
:1032FC003031323334353637383961626364656660
:10330C000000000028272573272900007B6D6F64BF
:10331C00756C652325647D007B6D6F64756C652D04
:10332C00726F70653A25787D0000000022257322AB
:10333C002C2000006C696E652025643A200000008A
:10334C0009480168426803689942FAD1100C40EAB6
:10335C000140704710B5044A136850681468A342C2
:10336C001946F9D110BD000008200940DFF800F023
:10337C00F5C00110DFF800F049BA011020B10823A4
:10338C0024220021FEF72CBB704780B50120009051
:10339C0009234FF400720021DFF8080701F005FA49
:1033AC0001BD80B5002301223421DFF8F80601F0BD
:1033BC000FFA00B10120C0B202BDDFF8EC06806844
:1033CC007047DFF8E416401890F8ED0070470022C3
:1033DC00022904D1012806D140F2EE2203E0012893
:1033EC0008BF4FF47A7210467047DFF8BC06D0F86D
:1033FC00DC007047DFF8B00690F8E61021B1D0F889
:10340C000C01010018BF004770472DE9F041DFF8AF
:10341C00988608F1E1058AB0A879002861D10120CD
:10342C00A871DFF88866DFF88876307B6871706881
:10343C00C8F80C0101A8FFF7A1FF00200690ADF819
:10344C001400079001AB00220FF2F54108F10C00BB
:10345C00FEF7E6FA01AB00220FF2A15108F13000A1
:10346C00FEF7DEFA01AB00220FF2D94108F154004D
:10347C00FEF7D6FAB16801208847DFF838060078E5
:10348C007868C0F38154707B20B1032C02D10120E9
:10349C00287003E0032C18BF022C16D1022000F078
:1034AC009DF8032CDFF810160CBF4FF47A7042F223
:1034BC0010700968B0FBF1F108F15400FEF794FAB2
:1034CC0008F15400FEF794FA05E0012C03D100F04A
:1034DC0063FAFFF75AFF386840075CBF002000F022
:1034EC007DF80AB0BDE8F08110B508B1140001D127
:1034FC00022010BD8160C26003610146DFF8A8059F
:10350C0001F080F9002010BD10B50446FEF758FA02
:10351C00DFF89415621892F8E8305B1E82F8E830F8
:10352C00DBB223B98A680123A3409A438A6066E020
:10353C002DE9F0410546FEF743FA8046DFF86815A1
:10354C00681890F8ED20521E80F8ED20D2B2002AB7
:10355C003FD10FF2A050DFF8644500EB85052E78C3
:10356C006F88300615D52168096A38468847216866
:10357C00896A384688472168096B38468847DFF8DE
:10358C00401501200860DFF83C0500688007FAD57B
:10359C0012E0700606D501EB87010020D1F800116E
:1035AC00884709E021688969384688472168496B52
:1035BC00384688470228F9D106F03F003F2818BF4B
:1035CC00FFF7B6FF687800F03F003F2818BFFFF701
:1035DC00AFFF4046BDE8F041FEF7F6B910B5044622
:1035EC00FEF7EEF9DFF8C0148A680123A3401A43F2
:1035FC008A60611891F8E820521C81F8E820BDE837
:10360C001040FEF7E1B9F8B50646FEF7D9F90446C5
:10361C00DFF89454701990F8ED104A1C002980F8CA
:10362C00ED2039D10FF2CC4000EB8607387800F052
:10363C003F003F2818BFFFF7E6FF787800F03F0007
:10364C003F2818BFFFF7DFFF7E883878DFF86C74EF
:10365C0001060ED53968C969304688473968496A08
:10366C00304688473968C96A3046884700F019F8EF
:10367C0012E0400606D505EB86010120D1F80011B9
:10368C00884709E039684969304688473968496B89
:10369C00304688470128F9D12046BDE8F240FEF7B4
:1036AC0093B9DFF81C1401200860DFF818040068D7
:1036BC008007FAD570472DE9F04F002483B04FF006
:1036CC00000A0128D04618BF012664D1DFF8D89330
:1036DC00D9F8DC0001285DD10220C9F8DC00FFF725
:1036EC0045FE0090012000F062F9060054D1FEF76F
:1036FC00A3F9DFF8D81301900C60012000F042FA16
:10370C00012804D1002000F0A7F94FF0010ADFF8DE
:10371C00C013DFF8B4030C6000681120FFF751FEF2
:10372C0008B14FF001081020FFF74BFE08B148F02C
:10373C0002080F20FFF745FE08B148F004080B20E3
:10374C00FFF73FFEDFF8746320B13168096B4FF46B
:10375C00806088470A20FFF734FE20B13168096B7E
:10376C004FF481608847DFF85813DFF86873DFF88F
:10377C0068B30120086048F02000316889698847E7
:10378C00DFF858130120086099F80800C00707D526
:10379C00012416E0042673E00120C9F8DC006CE07B
:1037AC00584601F051F80546042DF9D0012D04D1ED
:1037BC00326A526803215846904738688008800066
:1037CC003860002001F048F8BF4800683068806B12
:1037DC00804754B9012D04D1326A526801215846F0
:1037EC009047386840F0030038600120B849086001
:1037FC0040463168496988470B20FFF7E2FD20B14C
:10380C003168C96A4FF4806088470A20FFF7D9FDF8
:10381C0020B13168C96A4FF481608847A8490120FA
:10382C0008600020AD4908600320C9F8DC0031684D
:10383C00496B404688470128F9D1042000F0B7F8BD
:10384C00A24901200860A0480068A54800688006CD
:10385C00FBD5BAF1000F1CBF012000F0FDF801F000
:10386C0047F9082000F0A3F806460120C9F8DC004F
:10387C000198FEF7E5F801F0BFF80098FFF77AFD24
:10388C003046BDE8FE8F38B50446FEF799F805467C
:10389C002146854800F0CAFF28464BE030B500248D
:1038AC0001288BB004D021D303281DD018D31DE0E0
:1038BC0001A8FFF763FD7C4D8A490694ADF81440CE
:1038CC00079401AB012205F17800FEF7A9F80094EA
:1038DC000023854A2C2105F19C00FEF79DF805E09C
:1038EC0001F022F9044601E001F0C4F920460BB0C6
:1038FC0030BD00F054B938B5FEF762F805466A4899
:10390C0090F8E000012410B1FFF74BFD0446284667
:10391C00FEF75AF8204632BD38B5FEF751F8624D25
:10392C00044695F8E00020B100F080F9002085F8FD
:10393C00E0002046BDE83240FEF746B8000000002B
:10394C007047000010B582B0042000F01BF902286B
:10395C0018BF032807D100F01FF8FFF716FDBDE8CC
:10396C0016400220D0E56148534900684E4CC0F324
:10397C00815003280CBF4FF47A7041F288300968EB
:10398C00B0FBF1F104F15400FEF72EF804F15400F1
:10399C00BDE81640FEF72CB8032000901C234FF016
:1039AC00405200213F4800F000BF0020704770B526
:1039BC0004463D4E304600F01BFF002598B93046BA
:1039CC0000F01CFF0646B068204207D03269F3684D
:1039DC000021204698470546012D05D0304600F0C1
:1039EC000FFF0600EFD1284670BD414901280CBFDE
:1039FC0040F2FF70002008600020704770B5FDF7A2
:103A0C00DFFF294E294D044696F8E00028B100F05E
:103A1C000DF968B1002086F8E0000220AD68A847D7
:103A2C0006461020FFF7C3FF8EB10320A8470EE017
:103A3C00214909683220B0FBF1F101B9012106F1ED
:103A4C003000FDF7D1FF06F13000FDF7D1FF204625
:103A5C00BDE87040FDF7B8BF38B501281ED100F0A5
:103A6C0091F801281CD000F0D7F80F4C1249012016
:103A7C0084F8E00032200968B0FBF1F505B90125A6
:103A8C0004F13000FFF767F8294604F13000FDF728
:103A9C00ABFF04F13000FDF7ABFF01E000F0E8F8FC
:103AAC00002032BD00A00C40880D0020F4A90000BD
:103ABC00B03F005099290020E8000000B801001028
:103ACC0028200860282008402C2009400C40094080
:103ADC00000222432422084000400340800104439A
:103AEC0014100940BD4D00008D4B0000B43F005038
:103AFC00000004608F3F00008F3F01008F3F0200E9
:103B0C008F3F0300903F00018F3F0101903F000267
:103B1C00903F00038F3F01048F3F00058F12080474
:103B2C008F3F00048F3F0006513F00007F3F010094
:103B3C003F3F04003F3F02003F3F01007F3F020038
:103B4C0070B50446E00782B00D46624E05D5A8B2AA
:103B5C0000900023012200F011F8A00705D5A8B2AF
:103B6C0000900123022200F009F8600705D5ADB2E0
:103B7C00009502230C2200F001F873BD00213046A1
:103B8C0000F013BE0146042907BF1D234FF0C042AD
:103B9C001C234FF080524F48342100F019BE38B529
:103BAC000546FFF7CDFB4C4CA168401A4FF47A71D7
:103BBC00484305EB104501F0D1F92169401A48BF83
:103BCC00404240F6B9318D4207D2062805DAA0688A
:103BDC00E168814201D322685AB940494A68D20748
:103BEC004FF4FA6017D4086800F0FF007D214843B9
:103BFC0008E0081A3A494843000C00EB9000904248
:103C0C0038BF1046C82801D2C82032BDB0F57A6F33
:103C1C0088BF4FF47A6032BD80B501210320FFF7D5
:103C2C008FFFFFF78DFB2C49886001BD80B501200B
:103C3C00FFF7A8FF012819D00023012234212548C1
:103C4C0000F0C6FD98B100F026F8FFF779FB224989
:103C5C008B680A68C860A2EB9202C01A204B5843CA
:103C6C00000C0860904238BF10460860012002BD6D
:103C7C0010B500210320FFF763FF0120FFF782FF3F
:103C8C0008B100F008F8144CFFF75AFB606001F023
:103C9C0065F9206110BD1348006801F073B910B5C7
:103CAC0011490A6811490968140424161B38444345
:103CBC00E41004EB2244120600FB00F31216090672
:103CCC005A435843091604EBA222484302EBA04086
:103CDC0010BD000000A00C4068290020AC3F005033
:103CEC0040420F008000001090130050A4100050B0
:103CFC0062B38B0708D0521E11F8013B00F8013B50
:103D0C0000F024808B07F6D1830740F0208000BFA1
:103D1C00103A07D330B4B1E83810103AA0E8381094
:103D2C00F9D230BC530724BFB1E80810A0E8081042
:103D3C0044BF51F8043B40F8043BD20724BF31F890
:103D4C00022B20F8022B44BF0B7803707047083A03
:103D5C0007D3B1E80810083A40F8043B40F804CB0C
:103D6C00F7D25307E4E7FF7F002201F027B90040A8
:103D7C0010B5DFF82405046814F1010F08BF002406
:103D8C0001F09EF9DFF81415002008600120DFF81F
:103D9C0010150860DFF80C15086000F04CFADFF81D
:103DAC000805006828B1DFF804050068204600F01B
:103DBC0022F8DFF8FC14DFF8FC2400200860DFF8A0
:103DCC00F80401686FF31B4111430160DFF8EC0448
:103DDC000168C1F30131012907D10168DFF8E02442
:103DEC00114041F4003202600160DFF8D804006831
:103DFC000028FAD110BD70B50546DFF8CC040121BE
:103E0C000160DFF8C81409680029FAD0DFF8C04453
:103E1C00DFF8C024C02121605368DFF8BC149B0775
:103E2C005DBF13681B0C43F0F00372230B70002171
:103E3C0001639668304600F031F83146284600F0B0
:103E4C0061F8DFF89804816D89B240F20F2291423B
:103E5C0014D201680068C1F30361C0F3034001B1DF
:103E6C00491E072805D006280EBF0720801C00F02D
:103E7C000F0041EA0010DFF868140870304600F0BB
:103E8C00B2F8DFF860140968C9680220884740203E
:103E9C0020600120DFF85014086070BD10B5044696
:103EAC00DFF848040068C0F3046000F0C0F9211783
:103EBC00491C08181628A8BF152004DA6FF0090150
:103ECC008842B8BF084600F01F00DFF8241440F405
:103EDC00F8500880DFF81C04006880074FBF44F0DE
:103EEC0040640020DFF810140860DFF81004C4F3FD
:103EFC00C06181F001010160C4F3806181F00101B6
:103F0C00816010BD70B5054682B0084600F0F0F82F
:103F1C000246DFF8EC43182100F062F800F014F9C7
:103F2C0080B20090002340F2FF322C21204600F09A
:103F3C003CFCDFF8D063F068C0F30D021C2100F0EC
:103F4C004FF8706800F0FC32142100F049F830682A
:103F5C00DFF8B413DFF8B46301EA0002102100F0BB
:103F6C003FF8284600F0FAF802460C2100F038F829
:103F7C00284600F01EF9400040F020003072284620
:103F8C0000F020F940F010003072284600F023F9C0
:103F9C000246282100F024F8284600F001F94000E0
:103FAC0040F06000F072284600F02FF9C00040F09D
:103FBC0080003070284600F031F98000DFF8501393
:103FCC0040F47C400880284600F012F90246082193
:103FDC0000F006F8DFF83C134FF48000086073BD66
:103FEC00204600F0DDBBF8B5810C01F0030101297E
:103FFC00C94CC84D02D002292AD026E0216A8A0376
:10400C0023D44FF480422A606FF08F06C34AD2F853
:10401C00023033404E0A06F080063343C1F30336B8
:10402C003343C2F80230C1F30326D2F801301B0926
:10403C0046EA0313C2F801306FF0E7061368334009
:10404C0001F0E7011943116002E04FF000412960D3
:10405C00B34EB44AB16809075CBF4021A9624FF462
:10406C0000712964800D216AC90C01F0030141F033
:10407C00300110F00300117003D0022826D008D3B1
:10408C0026E001210420FFF75BFDA74800F0F4F8BF
:10409C0022E00120FFF776FD074639460420FFF7A2
:1040AC004FFD0420FFF76EFDB842FAD1366826F0BA
:1040BC007F4000F0E1F89D4B1B681B684FF06022BD
:1040CC000721300E98474FF480602860032100E0F0
:1040DC0002210420FFF734FD2068954900F03F00D1
:1040EC00087047F618009349088093480068F1BDA2
:1040FC0092490968C1F383628303C1F38F2120D4F1
:10410C00000400164FF6FF7307E0490804D1194666
:10411C00520804BF01220121401C0028F5D40128BB
:10412C000FDB490041F00101B1F5803F21BF0121B6
:10413C00520042F00102102A24BF0F221946401EE1
:10414C00EDE741EA024070477C48016800680002D4
:10415C00C1F3870100F440700843704730B55D4CE3
:10416C0077490A686568ED07C2F30351C2F303434C
:10417C000AD42468250501EB2571240481F304017C
:10418C0003EB247383F304031B0443EA015193B23E
:10419C001943222824BF02F080400143084630BD59
:1041AC000021202803D367480068C0F3015108465A
:1041BC0070470121222803D363480068C0F30071C3
:1041CC00084670470121222803D35F480068C0F3DA
:1041DC004071084670470021202807D359480068D1
:1041EC00C10C01F44071C0F3845001430846704780
:1041FC002028564907D35348554A0068810A02EAD9
:10420C00003040EA8151084670470021222803D330
:10421C004D480068C0F3C061084670470021222851
:10422C0003D349480068C0F3455108467047162827
:10423C00A8BF20387047234800680028FBD14548A8
:10424C00454A416812688908890041F0005141F0E3
:10425C000401520748BF41F001010BD4026812F06F
:10426C00030F07D041F003024260026802F0030220
:10427C00032AFAD141607047384982B20A60C0F310
:10428C000740486001208860354800680028FBD052
:10429C0000208860704700001C13005084046042AA
:1042AC005C600C4008220443800128430001204339
:1042BC008C210840000039014820034004000940CB
:1042CC00FFFFFCFC0C0068421010094094022243D2
:1042DC0000600C40AC3F005056620840BC120050CD
:1042EC0002600840A001001094046042B812005013
:1042FC006E6208400000094094042A4300002043E9
:10430C0000A00C4070130050FFFFFC0041A10C40BA
:10431C00DCA10C4040A00C406C1300500A6008401B
:10432C00A83F005008A10C40BD378600B401001016
:10433C000BB00C4070B00C402C20094050130050B6
:10434C0078130050981300508C13005000803F409D
:10435C0000F03F0000400340B03F00503C600C4078
:10436C0084088C431B4213D1094236D12AB18446AE
:10437C00B0FBF2F002FB10C2704700F0ABBEFCD3F6
:10438C000022002370470B00020000210020704720
:10439C00904271EB030CF6D370B5B1FA81F4B3FA19
:1043AC0083F52C1BA340C4F1200532FA05F63343E8
:1043BC00A2405FF00046E64002E05B085FEA320292
:1043CC00841A71EB030524BF204629467641F4D3A9
:1043DC0002000B003000002170BD012ACFD970B54E
:1043EC00140C20D0B1FA81F4B2FA82F5C4F1200495
:1043FC006419B4F12006D6D3B2405FF00044F44007
:10440C00002502E052085FEA3303C61A71EB020E74
:10441C0024BF3046714664416D41F3D302000B005A
:10442C002000290070BD0C46B1FBF2F102FB1145D6
:10443C002D0445EA1045B5FBF2F402FB145580B28D
:10444C0040EA0545B5FBF2F002FB105240EA04408D
:10445C0070BD000000F10103810704D010F8011BAE
:10446C0089B18107FAD10268B2F10131914311F09F
:10447C00803F04BF50F8042FF6E710F8011B11B170
:10448C0010F8011BFBE7C01A70470000DFF800F0C2
:10449C000DC30110DFF800F081C60110DFF800F049
:1044AC0095B70110DFF800F08DC20110DFF800F0B5
:1044BC003DC20110DFF800F009C30110DFF800F075
:1044CC0045C00110DFF800F0D1C70110DFF800F093
:1044DC0067BE0110DFF800F011C80110DFF800F022
:1044EC0021C801100C381F283ED8DFE800F0103D21
:1044FC003D3D3D3D3D3D3D3D3D3D3D153D3D3D1A2B
:10450C003D3D1F243D3D3D293D3D3D2E3338DFF8DB
:10451C00F401006800687047DFF8E8010068406843
:10452C007047DFF8E001006880687047DFF8D4015D
:10453C000068C0687047DFF8CC01006800697047FC
:10454C00DFF8C001006840697047DFF8B801006807
:10455C0080697047DFF8AC010068C0697047DFF80C
:10456C00A4010068006A70470020704700B589B04C
:10457C0009216846FFF78AFF09B000BD00B581B07C
:10458C00FEF734FBDFF88001DFF880110068884209
:10459C0018BF00F09BF8DFF87801B0F5B26F03D0CC
:1045AC0001B05DF804EB92E001B000BD2DE9F041E3
:1045BC0084B01D460B6880461446002226681F787E
:1045CC00002003F1010C242FC1F800C038D15F7812
:1045DC000CF101034C2F0B6006D156F8040BAA68A2
:1045EC004146FEF7B9FD25E0462F0DD156F8041BC8
:1045FC000191414656F8040BADF800200290684634
:10460C00AA68FEF702FE15E0532F19D156F8040BD9
:10461C00E86126602346288B0090EA69A968D8F8DF
:10462C000000FEF7E3FBD8F8001011B10144C8F804
:10463C00001026680021E96001222968091A296006
:10464C00662F08D1298B002911BF361DF11D21F0D1
:10465C00070101F108061AB9E9690F700121E96037
:10466C00266004B0BDE8F0814FF0FF3090607047D9
:10467C0000B581B0FEF7A8FB012818BFFEF708FAB9
:10468C000FF21D00FFF706FFFFF708FFFFF70AFF09
:10469C00FFF70CFF01B05DF804EBFFF70BBF000058
:1046AC0000B581B0FDF7C8F9FEF760FE01B05DF80A
:1046BC0004EB0320FFF702BF10B504460320FFF7FD
:1046CC00FDFE2046BDE81040FFF7FCBEFEE7FEE70E
:1046DC0000B581B0FFF7FAFEDFF83800C06801B012
:1046EC005DF804EBFEF7C4B9DFF82C10DFF82C00F2
:1046FC0088617047FFF7EEBEFFF7F0BEFEF70BBD0B
:10470C00FEF70CBDF001002098CA0110704728205C
:10471C0090050000780100204401002000040000F6
:10472C0070B504460D46164600F0DEF9401E804179
:10473C00C00F1A490A68002AFCD0012E02D0022EA2
:10474C0002D003E0257002E0258000E02560012204
:10475C000A6000281CBFBDE8704000F0C9B970BDEC
:10476C0038B504460D4600F0BFF9401E8041C00F1D
:10477C000A490A68002AFCD0012D02D0022D02D071
:10478C0003E0247802E0248800E0246801220A6017
:10479C0008B100F0ADF9204632BD000000800C409D
:1047AC000B46114604221818BAE710B500EB41006D
:1047BC00102B144600F5007002D3103B001D240C86
:1047CC000299994041EA0441BDE810400422A7E750
:1047DC0038B51D460818102D144602D3103D801C08
:1047EC00240C0221FFF7BCFF204080B2E84032BD10
:1047FC00006800280CBF012000207047006870473B
:10480C000068704738B504460D4600F064FC002182
:10481C002960616869606168002914BF0D602560BA
:10482C006560FFE7BDE8324000F057BC0B684A6892
:10483C00002B0CBF42605A604A680968002A0CBF02
:10484C000160116070470000006801074CBF042034
:10485C0000F00300704700002DE9F84F064693481E
:10486C00934C0068934D800704D50820A87192489A
:10487C002060BFE000F072FB80469048006800901A
:10488C000027001700F101090098800208D4C8F134
:10489C003E00C0100928A8BF08208145B8BF81463A
:1048AC0087480068C0F30460FFF7C1FC8246854866
:1048BC000068C0F30440FFF7BAFC09EB0A011629A3
:1048CC00A8BF152104DA6FF009029142B8BF114656
:1048DC0001F01F027C4B42F4F8521A807B4A12689A
:1048EC0012F0030F18BF0127520748BF47F0020709
:1048FC000EB147F0040795F90720A8EB0202052A30
:10490C0002DAAA7997425DD0A8F10F0C0026BCF10F
:10491C00000FB64607F0010207F00403DFF8B09170
:10492C0023D40CEB0C1C4FEA2C2EBEF1080F28BF25
:10493C004FF0070E7646072E28BF062609EB860A8F
:10494C0059F82660DAF804A0AAEB060A0AF0FF066A
:10495C0013B1CAF3072B5E445FEA877B44BFCAF3EB
:10496C00074B5E440AB106EB1A6659F82E9009F013
:10497C00FF0A13B1C9F307239A44BB0744BFC9F319
:10498C0007439A440AB10AEB196A401AACEB0E229F
:10499C000099AF71724380320128B8BF01203423D3
:1049AC0001F0FF0158430AEB12224843B0FBF2F02E
:1049BC00B0F5803F28BF4FF6FF7008F30708A880BA
:1049CC0085F8078043480068A988286000201F29C3
:1049DC0004D21F21A98004E04908401CB1F5007FD6
:1049EC00FAD20F39090940EAC1003B49084320605B
:1049FC0000206060BDE8F18F10B53848006884B2C3
:104A0C001CB300F0ABFA2B4991F90720904205DA60
:104A1C006FF07F029042B8BF1046C87188888442FC
:104A2C0001D28C8010BD2B4A12680B68D21A921CD2
:104A3C00202A28BF1F22231A5208D3401818B0F579
:104A4C00803F28BF4FF6FF70888010BD2448026855
:104A5C0002B9704710B5234B996801F04060B0F172
:104A6C00406F21D011480468A4071DD45C68A407CA
:104A7C001AD404681B68C3F303531C331B0114F0D2
:104A8C00050F06D09A420FD26FF00501214001604C
:104A9C0010BD934208D20A0158BF44F001044901E9
:104AAC0058BF44F00404046010BD0000000009402D
:104ABC00301009408C290020FDFDA400B43F0050AB
:104ACC00B81200503C1100506E620840242208407D
:104ADC009C1300500820094000E7A48034100940C2
:104AEC0028500940AC3F0050EFF3108072B670476D
:104AFC00EFF3108062B67047DFF800F099C8011030
:104B0C0010B50C18FFF7F0FF401E8041C00FDFF806
:104B1C00F0130A68002AFCD0246801220A6008B14C
:104B2C00FFF7E6FF204610BD38B5DFF8D843DFF8B5
:104B3C00D8132078897B002508430AD0FCF740FF66
:104B4C00A178002906BF0121A1700125FCF73CFFCB
:104B5C000DB1002032BD0220FEF740FD0E20FEF705
:104B6C0052FDDFF8A803016809B1012032BDDFF85E
:104B7C00A023402111600121C1610020607032BD71
:104B8C0070B5DFF88C0382B0002101604821C16050
:104B9C00DFF8800300F1D804A17A002968D001293C
:104BAC00DFF8742329D110684BF2F5214843050A2C
:104BBC00DFF868030068C0F38140012806D100F0DB
:104BCC00CDF9FFF76CF8684305EB9055607B10B19D
:104BDC000020607305E0D2480068000215EB10203D
:104BEC004508D0480560290C416001218160C64808
:104BFC00807B00283AD0052039E0022909D11568BC
:104C0C00284600F0FDF8A5F2FF5003282ED308200B
:104C1C002DE003292CD1116800F1B805A1F5C06174
:104C2C002868E961002848BF4042002948BF494232
:104C3C008842A8BF002018DA6868BB4E80B200908A
:104C4C0008234FF47F4230213046FFF7AEFDA868B1
:104C5C0000F072F904213046FFF7A7FDA86900F0B7
:104C6C0071F93046FFF7A1FD012020700B20207355
:104C7C00BDE873402DE9F041A64CDFF8AC82AB4F98
:104C8C00AB4EA34804F1E10582B0E9784A1E0B2A29
:104C9C0000F28080DFE802F0062233465B33465B8D
:104CAC003346636EA34909680968202088470F20A2
:104CBC00F860072341F61D5038614FF4C072022092
:104CCC00009000F070F807234FF4C07200214046AA
:104CDC00FFF77EFD01203060022044E00120F861E6
:104CEC00287800281DBF0020306103200620E870C2
:104CFC0003203860002070607068800734D4E87836
:104D0C00032804D1022000F04BF8042007E0002017
:104D1C0000F046F8E87806280CBF07200A20E87057
:104D2C0001201AE0042903D12021B961012105E0F9
:104D3C000122BA610A290CBF0321022169700021EA
:104D4C0039600821C16001600120386026E0052926
:104D5C000CBF06200920E8700020706004E00020E1
:104D6C00306070600C20E87004F17800BDE8F6410A
:104D7C00FCF73EBE002101600120644908600E2052
:104D8C00FEF7D6FB0220FEF7BFFB0120E8700020E7
:104D9C00A87003E0BDE8F341FFF7AEBEBDE8F381B8
:104DAC0000900523602200214046FFF7FEBC000066
:104DBC0080B558495E4891F8E410891E0A291AD822
:104DCC00DFE801F0060A0E190A0E190A0E19120074
:104DDC0001688907FCD510E041688907FCD40CE018
:104DEC0041688907FCD508E001688907FCD4416853
:104DFC008907FCD401E0FFF77FFEBDE8014039E7ED
:104E0C00F8B50746484C30212046FFF779FE414E55
:104E1C0006F1B805C0F30720686004212046FFF7AF
:104E2C006FFEC0F38440A86020212046FFF768FE87
:104E3C00C0F38120A861B7F5C060286002D186F864
:104E4C00D800F1BD296996F8D8202AB96A68A968F2
:104E5C00EA60E861AA696A61E86900284CBF6FF0F2
:104E6C000102022200EB40001018421000EB92707D
:104E7C0001EBA0006968E960012810DA6A69032A6D
:104E8C0004D1153001281DDA01201BE00B3001285C
:104E9C00B8BF0120491E48BF0021E96007E01F2868
:104EAC0012DB6A692AB915381F28A8BF1E200321F6
:104EBC0009E00B381F28A8BF1E20491C4029A8BF99
:104ECC003F21E9600021696128610823E86880B20C
:104EDC0000904FF47F42302100F03CF8012000900C
:104EEC0011234FF4003200F034F8286900F024F854
:104EFC0000F02FF8686900F025F800F02BF8F1BDF0
:104F0C0000800C40690E0020F4A9000004800C40C5
:104F1C002C500C40880D002008400C40B43F005031
:104F2C00102009403C600C4000A00C4000400C409C
:104F3C0034600C40A001001080B2009012234FF49A
:104F4C00F802704780B200900A234FF4406220218F
:104F5C00704704212046FFF728BC00000748084A88
:104F6C0081681278006852B2A0F54070C9035043B2
:104F7C00C913A1EB20108030001270472850094053
:104F8C000C13005070B50446FFF7AEFD451EAD4145
:104F9C00ED0F074E30680028FCD0A0470120306090
:104FAC00002D1CBFBDE87040FFF7A2BD70BD000016
:104FBC0000800C4062F30F2262F31F4200B500BF69
:104FCC00130096469446103928BFA0E80C50FAD826
:104FDC005FEA417C28BF0CC048BF40F8042BC907CE
:104FEC0028BF20F8022B48BF00F8012B00BD0000A1
:104FFC0030480068000C00F00700052828BF4FF06F
:10500C00FF3070472C490A68C2F30F324BF69A13E3
:10501C009A424FF0FF3006D10868000F0B280CBFE6
:10502C000420002070474BF6BE118A4201D10120AA
:10503C0070474BF641318A4201D1032070474BF641
:10504C0020318A4208BF0220704700001A48F8B588
:10505C000068050F1948006800F0FF06802E28BF75
:10506C000026FFF7CFFF04284FF0FF3406F10A07A4
:10507C001DD8DFE800F003121A1A1B00012D12D004
:10508C00032D06D0072D06D0082D08BF06F11604F7
:10509C000DE014240BE0152409E025B1022D08BF06
:1050AC0006F1140403E00A2401E005B93C4660B2A1
:1050BC00F2BD00009412005018130050A0100050C4
:1050CC0080B5FFF79FFF20B9FFF7C0FF162800DB64
:1050DC0001BDFEE77047FCF773BCFCF775BC000024
:1050EC00DFF800F0E1C20110DFF800F0A9C50110F3
:1050FC00DFF800F06DA9011080B5002804D008235A
:10510C0024220021FCF790FC01BD704700280AD036
:10511C00002104E0521CB2F57A5FFBD3491C81429A
:10512C0001D20022F7E7704770B504000025DFF8C4
:10513C0094070078C0062BD5DFF88C070078C006E2
:10514C0005D4DFF8880700680078C00620D5DFF8A2
:10515C007407007800071BD5DFF86C070078000790
:10516C0005D4DFF8680700680078000710D5002C1C
:10517C0005D0DFF85C07006810F1010F08D100239F
:10518C009822DFF85017DFF850070088FFF7ACFFC4
:10519C002468A66A002508E0EDB2242000FB05F087
:1051AC0030440830FFF79CFF6D1C280094F82C103D
:1051BC00C0B28842F0D3606800F06CFEDFF8FC07E8
:1051CC00006801F079F80020208070BD10B5040053
:1051DC00DFF8F0060078C00625D5DFF8EC0600787D
:1051EC00C00605D4DFF8E40600680078C0061AD5BE
:1051FC00DFF8D0060078000715D5DFF8CC0600786C
:10520C00000705D4DFF8C4060068007800070AD54B
:10521C00002C08D10023C922DFF8B816DFF8B80635
:10522C000088FFF761FF5FF0FF302060DFF8F808BF
:10523C0060600020207210BD2DE9F04397B004008F
:10524C000D001600DFF87897D9F80070D9F80480B3
:10525C00FCF7B6FB3988012937D1FCF7B5FBDFF831
:10526C006407008800282ED0DFF858060068DFF8A5
:10527C0058170968084226D0DFF84C060068DFF89A
:10528C0048170968084208D1DFF840060068008812
:10529C00DFF834170968084215D000200290DFF8B7
:1052AC002C070190E8200090DFF82836DFF828065C
:1052BC000288DFF814070168DFF814070068DFF8CC
:1052CC0014472468A0470020ABE001213980FCF78B
:1052DC007BFB002E03D103A8FFF778FF03AE002C55
:1052EC0002D0EDB2002D35D1DFF8D80600880028A9
:1052FC002ED0DFF8D0050068DFF8CC16096808421C
:10530C0026D0DFF8C4050068DFF8BC16096808422F
:10531C0008D1DFF8B80500680088DFF8AC1609681A
:10532C00084215D000200290DFF800080190FA2006
:10533C000090DFF8A035DFF8A0050288DFF88806BA
:10534C000168DFF88C060068DFF888462468A047FF
:10535C00002066E00FA800F0B5FD70681390307A5D
:10536C008DF854000FA998F8060000F096FD00285F
:10537C0001D1002055E078603068B860BC6287F8D5
:10538C002C50002606A8FFF7B7FE00260AE006AA56
:10539C000121F6B2242000FB06F020440830FCF773
:1053AC0047FB761C30002900C0B2C9B28842EED34C
:1053BC0001208DF8300006AA012117F10C00FCF732
:1053CC0037FB484600F0CDF9002801D1002028E039
:1053DC00D8F80010484600F027F8DFF8E8050088F8
:1053EC0000281DD0DFF8DC040068C00518D5DFF8F4
:1053FC00D8040068C00505D4DFF8D0040068008824
:10540C00C0050DD5DFF82837DFF8CC0402884FF43F
:10541C008071DFF8BC050068DFF818472468A047E6
:10542C00484617B0BDE8F08370B504000D00DFF8F6
:10543C0094040078C00626D5DFF88C040078C006EA
:10544C0005D4DFF8880400680078C0061BD5DFF8A7
:10545C0074040078000716D5DFF86C040078000798
:10546C0005D4DFF868040068007800070BD5002C21
:10547C0009D100234FF49972DFF85814DFF858045F
:10548C000088FFF731FE002601222900200000F0E1
:10549C008FF96878FFF73AFEB61CAD1C0FE00122BD
:1054AC002900200000F084F96878002805D06A787B
:1054BC0092B2A91C200000F0C0F916351636B6F5CC
:1054CC00DD7FECD370BD7CB50400DFF8F803007809
:1054DC00C00626D5DFF8F0030078C00605D4DFF847
:1054EC00EC0300680078C0061BD5DFF8D803007801
:1054FC00000716D5DFF8D0030078000705D4DFF8D5
:10550C00CC030068007800070BD5002C09D10023D0
:10551C0040F2B912DFF8BC13DFF8BC030088FFF7C8
:10552C00E3FD256815F10C063000FFF7EEFDA968C8
:10553C00FCF752FA002810D07F2001907F200090B9
:10554C00002300222068006B0188200000F044FA40
:10555C003000FFF7DAFDFCF73BFA73BD2DE9F84399
:10556C000400DFF860030078C00626D5DFF8580386
:10557C000078C00605D4DFF8540300680078C00634
:10558C001BD5DFF840030078000716D5DFF8380389
:10559C000078000705D4DFF83403006800780007B2
:1055AC000BD5002C09D1002340F2D512DFF82413BF
:1055BC00DFF824030088FFF797FD6568276817F16B
:1055CC000C063000FFF7A1FDB968FCF705FA0028BE
:1055DC006BD044200090572310222821200000F08B
:1055EC007DF901222979DFF8D403006800F092FEDE
:1055FC0000226979DFF8C403006800F08BFE0427F1
:10560C004FF478785FF000090FE04FF48062DFF818
:10561C004C085FFA89F94FF4806101FB09F10144F0
:10562C00200000F089FA19F1010948463900C0B28E
:10563C00C9B28842E9D31FFA88F8B8F1000F0DD02F
:10564C00424692B2DFF814085FFA89F94FF4806190
:10565C0001FB09F10144200000F06EFA0122697986
:10566C00DFF85803006800F055FE0020009050232E
:10567C001822DFF8EC17200000F074FA00200090DC
:10568C0060230822DFF8DC17200000F06BFA3000F2
:10569C00FFF73BFDFCF79CF9DFF8CC07DFF8CC17E4
:1056AC000968B0FBF1F0FFF723FDBDE8F1832DE9AC
:1056BC00F04383B004000D0016009846D4F8009017
:1056CC0019F10C073800FFF720FDD9F80810FCF78A
:1056DC0083F900281DD05FFA88F85FEA08130A984E
:1056EC00C0B2082800DB0720C0B200010F30C0B2E6
:1056FC000190F6B20096DBB22A00D2B22068006BA1
:10570C000188200000F068F93800FFF7FEFCFCF778
:10571C005FF9BDE8F7832DE9F84304000D0016008E
:10572C000027D4F80080DBB21F0118F10C094846A1
:10573C00FFF7EBFCD8F80810FCF74EF900280ED058
:10574C00012000903B00DBB23200D2B229002000D5
:10575C0000F008FA4846FFF7D8FCFCF739F9BDE829
:10576C00F183E0B5002140680279DFF804371A4371
:10577C006B4643F82120491C4079DFF8F42610438E
:10578C006A4642F82100491CFE206A4642F8210074
:10579C00491C6946DFF8DC0600F0FEFC874908600E
:1057AC0086480068002801D1002000E001200EBDD1
:1057BC00F8B504000D001600676842480078C00672
:1057CC001FD541480078C00604D4404800680078D2
:1057DC00C00616D53B480078000712D53A48007829
:1057EC00000704D4394800680078000709D5002C5C
:1057FC0007D1002340F21D32364937480088FFF7A5
:10580C0073FC002239796D48006800F083FD00229A
:10581C0079796A48006800F07DFDF6B2320092B2E8
:10582C002900200000F088F9002805D001227979A0
:10583C006248006800F06EFDF1BDF8B504000D0083
:10584C00160067681F480078C0061FD51E480078F0
:10585C00C00604D41D4800680078C00616D5194847
:10586C000078000712D518480078000704D41748B0
:10587C0000680078000709D5002C07D1002340F2FE
:10588C003B32144914480088FFF72EFC0122397969
:10589C004A48006800F03EFD0022797947480068CC
:1058AC0000F038FD320092B22900200000F044F9DB
:1058BC00002805D0012279794048006800F02AFDC3
:1058CC00F1BD0000400500003C050000440500004F
:1058DC009C0E0020C0B6000084050000F8B5040042
:1058EC000F0015001E00DFF890050078C00626D5C5
:1058FC00DFF888050078C00605D4DFF88405006859
:10590C000078C0061BD5DFF870050078000716D5A7
:10591C00DFF868050078000705D4DFF86405006837
:10592C00007800070BD5002C09D100234FF45A72D4
:10593C00DFF85015DFF850050088FFF7D5FB6846F7
:10594C00002101602A208DF8000001226946200008
:10595C00FFF72EFF00208DF80000B81C8DF8010019
:10596C0000208DF80200B01C8DF80300042269465B
:10597C002000FFF762FF2B208DF800000122694602
