:100000005043002001F3000001CA011001CA011091
:1000100001CA011001CA011001CA011001CA011070
:1000200001CA011001CA011001CA011001CA011060
:0C00300001CA011001CA01103FCA0110F2
:10003C00FF7F000007480068074943F2390201FBC3
:10004C000020044908607FF00041B0FBF1F201FB95
:10005C0012007047180A00206D4EC64138B50400D6
:10006C000D00FFF7E7FF291B491C90FBF1F201FB88
:10007C001200201832BD03E00B780370491C401CA1
:10008C0013005A1E9BB2002BF6D1704792B210444B
:10009C00401E03E00B780370491C401E13005A1ECF
:1000AC009BB2002BF6D1704701E00170401C13008D
:1000BC005A1E9BB2002BF8D17047000080B589B254
:1000CC000A000100024800681FF0E5FA01BD0000BB
:1000DC00801A00203BEB000085EB000087EB000052
:1000EC0089EB0000E5EB0000FBEB000001EC0000ED
:100100003C0000000000000000000000340100007E
:1001100000000000000000000100000000000000DE
:1001200000000000000000000000000001000000CE
:0C013000000000000800000000000000BB
:10013C003400000000000000000000006801000016
:10014C0000000000000000000100000000000000A2
:10015C00010000000000000000000000080000008A
:04016C00000000008F
:1001700030000000000000000000000098010000B6
:10018000040000000000000001000000FFFFFFFF6E
:10019000FF00000001000000080000000000000057
:1001A0002C0000000000000000000000C40100005E
:1001B000040000000000000001000000FFFFFFFF3E
:0C01C000FFFFFFFF08000000000000002F
:1001CC0034050000E401000099A1011095A701106D
:1001DC00A5C2011009B2011045B8011000000000C1
:0801EC00000000002F000000DC
:1001F40028000000000000000000000014020000BD
:100204000000000000000000FFFFFFFF00000000EE
:080214000800000000000000DA
:10021C00300500003002000069C201106DC10110F0
:10022C001FC2011095BA0110000000000000000070
:04023C002D00000091
:10024000300500005402000075C20110A9B601106B
:100250009DBF011049B60110000000000000000021
:040260002E0000006C
:1002640024000000000000000000000080020000E4
:100274000000000000000000000000000800000072
:040284000000000076
:10028800240000000000000000000000A40200009C
:10029800000000000000000000000000080000004E
:0402A8000000000052
:1002AC00240000000000000000000000C802000054
:1002BC000000000001000000000000000800000029
:0402CC00000000002E
:1002D000000000001C0A00200400000000000000D4
:1002E000000000002000000070010000300000004D
:1002F0001C0200003C0A0020040000000000000076
:10030000000000000C000000300400001800000095
:1003100040020000440A0020040000000000000029
:100320000000000024000000480400001800000045
:1003300000000000840A002004000000000000000B
:100340000000000010000000A00100002C000000D0
:10035000CC0100008C0A0020040000000000000016
:1003600000000000200000006402000024000000E3
:10037000FFFFFFFFAC0A00200400000000000000A7
:100380000000000028000000880200002400000097
:10039000FFFFFFFFD40A002004000000000000005F
:1003A00000000000580000003C0100003400000084
:1003B000FFFFFFFFDC0A0020040000000000000037
:1003C00000000000100000006004000018000000A1
:1003D000FFFFFFFFE40A002004000000000000000F
:1003E000000000001C000000AC020000240000001F
:1003F000FFFFFFFFEC0A00200400000000000000E7
:100400000000000038000000F40100002800000097
:10041000FFFFFFFF540B002004000000000000005D
:100420000000000054000000000100003C0000003B
:100430001800000000000000000000004004000060
:080440000800000000000000AC
:100448001800000000000000000000005804000030
:08045800080000000000000094
:100460001800000000000000000000007004000000
:0804700008000000000000007C
:0804780001000000B8F50000CE
:0304800000400039
:040484000100000073
:0404880000000E0062
:04048C0000000F005D
:040490003200000036
:040494000100000063
:04049800240A002012
:04049C00000200005A
:0404A0000000000058
:0404A40001CA011078
:0404A8000000000050
:0404AC00000000004C
:0404B0000800000040
:0404B4000000230021
:0404B8004C0A0020CA
:0404BC00010000003B
:0404C000940A00207A
:0404C400080000002C
:0404C8000000000030
:0404CC00000000002C
:0404D0000000000028
:0404D4000000000024
:0404D8000000000020
:0404DC00010000001B
:0404E000F40A0020FA
:0404E400060000000E
:0404E800010000000F
:0404EC005C0B002085
:0404F0000000000008
:0404F4000000000004
:0404F80000020000FE
:0404FC0000000000FC
:020502002900CE
:020504000100F4
:020506002500CE
:020508002D00C4
:02050A002E00C1
:02050C002F00BE
:02050E000100EA
:0105100001E9
:020512000A18C5
:0805140004000000CCF300001C
:08051C000000000000000000D7
:0405240000000100D2
:0405280000000300CC
:04052C0087C401106F
:04053000380500008A
:040534003805000086
:0405380000000000BF
:04053C00900000002B
:040540009000000027
:0405440000000000B3
:04054800940A0020F1
:04054C0051720000E8
:040550002000000087
:0405540018F3000098
:04055800CCEF0000E4
:04055C000DC30110BA
:040560007F5D0000BB
:04056400815D0000B5
:0405680099C801101D
:04056C009BC8011017
:040570000000000087
:0405740082040000FD
:04057800ACEE0000E5
:04057C00C4EE0000C9
:0405800094EE0000F5
:0205840008006D
:0205860009006A
:02058800010070
:02058A0000006F
:01058C00016D
:02058E00232A1E
:040590000000000067
:040594000000000063
:04059800000000005F
:04059C00000000005B
:0405A0006559000099
:0405A4008559000075
:0405A800895800006E
:0405AC00AF59000043
:0405B000D15800001E
:0405B400A758000044
:0405B80003590000E3
:0405BC00DB59000007
:0405C000C9710000FD
:0405C400D9730000E7
:0405C800DD730000DF
:0405CC000800000023
:0405D0002400000003
:0405D400180000000B
:0405D80028000000F7
:0405DC0020000000FB
:0405E0003C000000DB
:0405E4000C00000007
:0405E80034000000DB
:1005EC0010B502F0F8FA0400DFF8540C0078022879
:1005FC0004D0DFF8500CC06A804701E000F0D9FB52
:10060C00DFF83C0B0078002839D0DFF8380B016894
:10061C00DFF8340B02F0D4FADFF82C0B02F0CEF931
:10062C00DFF81C0C007802280AD0DFF8200B0168D8
:10063C00DFF8140C02F0C4FADFF80C0C02F0BEF96F
:10064C00DFF8FC0B0078022804D0DFF8040B0078EC
:10065C00002831D04FF47A71DFF8F80AFFF7FEFC6E
:10066C00DFF8E81A0968401810F5FA61DFF8E80AB3
:10067C0002F0A6FADFF8E00A02F0A0F91CE0002074
:10068C00DFF8C81B48700320DFF8D01A4870DFF879
:10069C00D00A0078002807D1DFF8C40A007850F09F
:1006AC000100DFF8BC1A0870DFF8B40A007850F0CB
:1006BC001000DFF8AC1A0870DFF8940BDFF8941B0D
:1006CC00DFF8942B127801EBC20149790C225143CB
:1006DC0008444460DFF8840B0460DFF87C0B00787E
:1006EC0001F020F8DFF8680A007800280AD1002011
:1006FC00DFF8581B4870DFF8640D0078401CDFF8F9
:10070C005C1D087010BD704780B5DFF8340B0078A5
:10071C00022804D0DFF82C0BC06A804701E000F0FF
:10072C0048FB0220DFF8241B48700220DFF82C1A4B
:10073C004870DFF82C0A007850F01000DFF8201A0F
:10074C00087001BD80B5DFF8F80A0078022804D0E3
:10075C00DFF8F00AC06A804701E000F02AFBDFF8FE
:10076C00000D007800281FD1DFF8E409007800287C
:10077C0003D00420DFF8D41A48700420DFF8DC1909
:10078C004870DFF8D80A006802F027FADFF8BC19C5
:10079C00096888421DD3DFF8C809007850F01000B2
:1007AC00DFF8BC19087014E0DFF8A4090078002801
:1007BC0003D00520DFF8941A48700520DFF89C1947
:1007CC004870DFF89C09007850F01000DFF89019A1
:1007DC00087001BD80B5DFF8680A0078022804D0E3
:1007EC00DFF8600AC06A804701E000F0E2FADFF847
:1007FC00700C0078012814D1DFF854090078002817
:10080C0003D00320DFF8441A48700320DFF84C199A
:10081C004870DFF84C09007850F01000DFF84019F0
:10082C00087001BD80B5DFF83C0C02F04CF90020DB
:10083C00DFF82C190978C1F30011C9B2002900F0B6
:10084C00BB81DFF8241C097849060FD5DFF8181C8A
:10085C00096831F04001DFF8102C1160DFF8081C3A
:10086C00096849084900DFF8002C1160DFF8F0181E
:10087C0009780922114224D0DFF8D01949780229CD
:10088C0004D0DFF8D818497802291AD1DFF8D80B30
:10089C00006840084000DFF8D01B08600020DFF83B
:1008AC00CC1B0870DFF8C80B0078DFF8A019487172
:1008BC000020DFF8981908710020DFF89019886083
:1008CC000120DFF88C1809780843C0B2002840F0EA
:1008DC009380DFF88C0800780921084200F08C80A6
:1008EC00DFF87C080078C0F3C000C0B200283CD010
:1008FC00DFF868080078002837D1DFF8880C00781A
:10090C00DFF858188872DFF854084078002810D1A6
:10091C000020DFF8601B08600020DFF8401B087027
:10092C00DFF8440B006840084000DFF83C1B08600F
:10093C0062E0DFF8500C0078DFF84C1C0978884234
:10094C0008D3DFF8240B006840084000DFF8181BC0
:10095C00086051E0DFF80808007810F0EF00DFF8CD
:10096C000018087000F0A9F946E0DFF8F00A0078EA
:10097C00DFF8181C91F82010884207D2DFF8E00746
:10098C000078C0F34000C0B200282BD0DFF8D007AD
:10099C000078C0F34000C0B200280AD10020DFF874
:1009AC00CC1A0870DFF8E80B0068401CDFF8E01B7D
:1009BC0008600020DFF8A41A0870DFF8D80B007864
:1009CC00002806D1DFF8AC0A0068401CDFF8A41A36
:1009DC000860DFF8940A006840084000DFF8881AC5
:1009EC00086009E0DFF87807007810F0EF00DFF816
:1009FC007017087000F061F9DFF864070078C0F335
:100A0C004000C0B200282ED0DFF840080079002842
:100A1C0007D1DFF8840B0078DFF8541A0978884284
:100A2C0021D20020DFF8741B08700020DFF820179B
:100A3C000870DFF8600B0078002806D1DFF8340A64
:100A4C000068401CDFF82C1A0860DFF8240A0078D4
:100A5C00DFF8F8174871DFF8100A0068400840000A
:100A6C00DFF8041A0860DFF8340B0078002800F077
:100A7C00A380DFF8F4090078C00600F19D80002007
:100A8C00DFF8181B0870DFF8E8090078DFF8081B9E
:100A9C000978884263D2DFF8D809007809285EDA31
:100AAC00DFF8CC090078401CDFF8C4190870DFF8B7
:100ABC00C0090078022190FBF1F201FB1200012821
:100ACC000FD1DFF8C80A90F90100401E012804DBA1
:100ADC00DFF8B80A4078401E00E00020DFF8AC1ABE
:100AEC00487000F05DFD002808D1DFF8740600782E
:100AFC0010F0EF00DFF8681608705DE00820DFF8F2
:100B0C004C1748700020DFF864190870DFF858099A
:100B1C00006840084000DFF8501908600020DFF83A
:100B2C00301608700020DFF824170871DFF8400930
:100B3C000078DFF818174871DFF8500A4078DFF8B2
:100B4C000C178870DFF84C0A0078002834D1DFF8D5
:100B5C0024090068401CDFF81C1908602CE00C22EA
:100B6C00DFF8981CDFF8980CFFF785FADFF8F80827
:100B7C00006840084000DFF8F01808600020DFF83B
:100B8C00EC1808700020DFF8C81508700020DFF89A
:100B9C00BC160871DFF8D8080078DFF8B016487179
:100BAC00DFF8F0090078002806D1DFF8C8080068E3
:100BBC00401CDFF8C0180860DFF8AC08007880072C
:100BCC0007D5DFF8A408006830F00200DFF89818A9
:100BDC000860DFF894080068002835D1DFF880053C
:100BEC00007810F0010000280ED0DFF86006DFF866
:100BFC00301B096809688847DFF86405007810F035
:100C0C00FE00DFF85C150870DFF854050078C0F3BF
:100C1C00C000C0B200280ED0DFF84005DFF8001B82
:100C2C00096889688847DFF83805007810F0F70004
:100C3C00DFF82C150870DFF82805007810F0EF00AD
:100C4C00DFF81C15087009E04FF47A71DFF814080E
:100C5C0001F0B6FFDFF80C0801F0B0FEDFF800057C
:100C6C000078C0F34000C0B2002825D0DFF8D005D2
:100C7C000078022801D100F09CF8DFF8E404007839
:100C8C00C0F38000C0B2002806D1DFF8780BDFF883
:100C9C00901A096849688847DFF8C404007810F096
:100CAC00FB00DFF8BC140870DFF8B404007810F017
:100CBC00FD00DFF8AC14087001BDE0B5DFF8C40C22
:100CCC0001F001FFDFF8A007006830F01000DFF83A
:100CDC0098170860DFF888040078C0F3C000C0B231
:100CEC0000282FD0DFF87404007800282AD100F0F7
:100CFC00C8FDDFF890080078401C80B200F08AFD37
:100D0C00DFF88818487000208DF808009DF808005E
:100D1C0010F01F008DF8080000208DF804009DF8DD
:100D2C00040010F07F00DFF8601C097850EAC11055
:100D3C008DF80400002000900023002201A902A8D5
:100D4C0000F036FE00F02CFC07BD38B5DFF8F803D8
:100D5C0001F0B9FE0020DFF808170870DFF8E00496
:100D6C000078022803D1DFF8DC04006B804701F027
:100D7C005FFFDFF8E4140978C0B24018302400217A
:100D8C000091DFF8841A4B689BB2DFF87C1A4A7822
:100D9C00DFF8741A91F9001090FBF4F504FB1500C0
:100DAC00DFF8684ADFF8E45B04FB005000F038F928
:100DBC0031BD10B582B00024DFF88C0401F083FE45
:100DCC00DFF87C040078022800D10124E4B20094FE
:100DDC00DFF8340A03699BB2DFF82C0A427BDFF898
:100DEC00280A90F90C10DFF8A407406A00F018F9F3
:100DFC00002803D00120DFF86816087013BD80B5F9
:100E0C00D54801F060FED248007800280BD00120B4
:100E1C00DFF888170870DFF85006006830F004001F
:100E2C00DFF844160860DFF8E8090078022805D1DD
:100E3C00CB48007850F01000C949087001BD2DE96D
:100E4C00FC4704005FF0000900255FF0FF36082224
:100E5C0000216846FFF728F91021DFF83007808D54
:100E6C0000F080F900282ED11021DFF82007C08D6A
:100E7C0000F078F9002826D11021DFF81007008E39
:100E8C0000F070F900281ED11021DFF80007408E09
:100E9C0000F068F9002816D11021DFF8F006808EDA
:100EAC0000F060F900280ED11021DFF8E006C08EAA
:100EBC0000F058F9002806D10C22DFF84019DFF8B1
:100ECC004009FFF7D8F8002009E00021DFF8802363
:100EDC00C0B20C2303FB00F31A449160401CC0B257
:100EEC000028F2D0002701F0A3FE102190FBF1F8AE
:100EFC0002E0103718F10108FFB2082F71DA5FF029
:100F0C00000A0AE01AEB070069465FFA89F901F852
:100F1C00090019F101091AF1010A5FFA8AFABAF10A
:100F2C00080FE6DA01F084FE1021DFF860265FFA84
:100F3C0088F802EB4802928D01235FFA8AFA10EBD3
:100F4C000A0C90FBF1F001FB10C013FA00F10A42FD
:100F5C00E1D0C048FFB25FFA8AFA1AEB070150F8E9
:100F6C0031000028D7D0DFF8240690F90100B949E8
:100F7C00FFB25FFA8AFA1AEB070201EBC20191F990
:100F8C00041041F3030149B2884214DBB148FFB2AB
:100F9C005FFA8AFA1AEB070100EBC10090F9040022
:100FAC0040F30310DFF8E41591F9011040B28842C8
:100FBC0001DB012000E00020C0B20028ABD0A44827
:100FCC00A449FFB25FFA8AFA1AEB070201EBC201DD
:100FDC0049790C22514308448068002892D06D1C3A
:100FEC0099E75FFA89F9B9F1000F0ED05FFA89F928
:100FFC00B9F101010020FFF731F86946085C964908
:10100C00087000202060012008E0EDB2002D02D015
:10101C002660012002E0002020600020BDE8F68759
:10102C002DE9F0438BB004000D0016001F00DFF813
:10103C0060096DB210F8058082484068804700282E
:10104C0059D120007F49C9688847DFF848090460F6
:10105C00DFF8B00705715FF00109129C2000C0B2E7
:10106C000990012008900020079000200690002095
:10107C0005900020049000200390BFB20297082036
:10108C0001900020009001235FFA88F8424631005D
:10109C004846C0B26B4EB669B047DFF8FC08007822
:1010AC0000280CD0DFF8F4086DB2405D10F10D0192
:1010BC00C9B24846C0B2634A526D90470BE0DFF8A4
:1010CC00E0086DB2405D10F10D01C9B24846C0B2E6
:1010DC005C4A526D9047E4B2002C06D1DFF8AC04A8
:1010EC00C0685849496B884703E000205549496B53
:1010FC008847012000E000200BB0BDE8F08310B45D
:10110C0000230024DFF890381B78002B04D0DFF884
:10111C008C3849B25B5C03E0DFF8843849B25B5C25
:10112C00C0B2D2B2141820009BB280B2834204D356
:10113C00A4B2FF2C01DC012000E0002010BC7047A1
:10114C00080D0020B01D0020881D0020B41D0020BB
:10115C00082A002018FCFFFFD01D0020141E0020C0
:10116C00201E002030B40022002309E080B20124AC
:10117C009C40044001259D40AC4200D1521C5B1C9C
:10118C001C000D00E4B2EDB2AC42EFD31000C0B2C3
:10119C0030BC70470A00030052B25BB29A4200DBCB
:1011AC00080040B2704703005BB249B28B4205DBCA
:1011BC0052B240B2824201DB012000E000207047B5
:1011CC0070B514000026DFF8C42392F90150C0B2A8
:1011DC00002830D06DB2002D05D10020DFF8B013FF
:1011EC000860002627E0DFF8A8030068402805D334
:1011FC0001260020DFF89423107000E00026DFF8B1
:10120C0090030068602816D3E148007810F01F00A6
:10121C00012810D16DB2012D00DB6D1E6DB2002DB9
:10122C0009D1C9B2002906D00C22DFF8D015DFF89D
:10123C00D005FEF720FF25703000C0B270BD000055
:10124C00012A002098ED00009C1D0020001E0020AB
:10125C00C00700207C1C0020102A00202C1D002020
:10126C0030B413000122DFF8884B2478D4F10F043A
:10127C00C0B202280ED0C0F0EF8004284CD028D386
:10128C00062800F081805CD3082800F0D080C0F0E4
:10129C00AB80E1E0DFF8481D0978E4B2A1420DD241
:1012AC00DFF8841CDFF8382D12788854DFF8300D05
:1012BC000078401CDFF8281D08700022D2B2002AEA
:1012CC0003D10120DFF82C1B08701000C0B230BC19
:1012DC007047DFF80C3D1B78E4B2641EA3421ADAA7
:1012EC00DFF8442CDFF8F83C1B78D054DFF8F00C16
:1012FC000078401CDFF8E82C1070DFF82C0CDFF8BD
:10130C00E02C12788154DFF8D80C0078401CDFF800
:10131C00D01C08700022D1E7DFF8C41C0978E4B2B5
:10132C00A1420DD2DFF8001CDFF8B42C12788854DF
:10133C00DFF8AC0C0078401CDFF8A41C087000220D
:10134C00BCE7DFF89C3C1B78E4B2641EA3421ADABB
:10135C00DFF8D42BDFF8883C1B78D054DFF8800CF6
:10136C000078401CDFF8782C1070DFF8BC0BDFF82D
:10137C00702C12788154DFF8680C0078401CDFF870
:10138C00601C0870002299E7DFF8545C2D78E4B2F9
:10139C00A41EA54227DADFF8902BDFF8444C247802
:1013AC001055DFF83C0C0078401CDFF8342C107022
:1013BC00DFF8740BDFF8282C12788154DFF8200C3E
:1013CC000078401CDFF8181C0870DFF85C0BDFF8A5
:1013DC00101C09784354DFF8080C0078401CDFF827
:1013EC00001C0870002269E7DFF8F43B1B78E4B2BC
:1013FC00641EA3421ADADFF8302BDFF8E43B1B78CB
:10140C00D054DFF8DC0B0078401CDFF8D42B1070C4
:10141C00DFF8140BDFF8C82B12788154DFF8C00BFF
:10142C000078401CDFF8B81B0870002246E7DFF894
:10143C00B01B0978E4B2A1420DD2DFF8EC1ADFF848
:10144C00A02B12788854DFF8980B0078401CDFF83A
:10145C00901B0870002231E7022038E70D2A00208B
:10146C00142A00203C1D0020381D00200B2A0020CF
:10147C000A0D0020501C002070B40024002300280A
:10148C0001D0002A01D1002030E0002400E0641CCF
:10149C0025000E00EDB2F6B2B54225D2E4B2055DE0
:1014AC00022D20D0F3D3042D1DD01AD3062D16D027
:1014BC0003D3082D0DD014D3E9E7E4B2055DDBB2FC
:1014CC00D554641C5B1CE4B2055DDBB2D5545B1CCB
:1014DC00DDE7E4B2055DDBB2D5545B1CD7E7A41C99
:1014EC00D5E7641CD3E7D2E71800C0B270BC7047D4
:1014FC0030B583B00400032000208DF804009DF863
:10150C00040010F0F0008DF804009DF8040010F0B9
:10151C00EF008DF804009DF8040010F0DF008DF84A
:10152C0004009DF8040010F0BF008DF804009DF835
:10153C00040010F07F00DFF850542D7850EAC510ED
:10154C008DF804009BB2009313000A00D2B201A9DB
:10155C00200000F02DFAC0B2002801D0C0B210E07B
:10156C000020DFF8501D48710020DFF8481D08717D
:10157C00DFF8700A0068DFF83C1DC86000F010F856
:10158C00C0B23EBD122A0020132A0020BC1C002031
:10159C00581C0020052A0020090D0020112A0020CB
:1015AC001FB500200090DFF8400A0078FF2801D119
:1015BC000A209BE0DFF8300A007800280AD10020CE
:1015CC00DFF8281A086005E0DFF8240A4078DFF815
:1015DC00D41348706846FFF732FC0028F4D0DFF8CB
:1015EC00C40390F90100DFF8BC1391F82110401AE4
:1015FC00002801D5002107E0DFF8A8034078DFF8C8
:10160C00A41391F92110411ADFF89803426849B2EA
:10161C0001A801F0D1F87C4801A91CC91CC00C39E7
:10162C000C38E0484268DF4890F92800010049B2C4
:10163C0001A801F0C1F8DFF8BC0901A91CC91CC044
:10164C000C390C38DFF8B0090078002810D1D548D7
:10165C0080696D4989680818DFF8A0190860D148BD
:10166C00C069694949690818DFF8941908601EE0D7
:10167C00DFF86C090278CB4890F90110DFF8840987
:10168C000078FFF73CFD002801D108202EE0C5486A
:10169C0000695D4989680818DFF860190860C1485D
:1016AC004069594949690818DFF8541908600098CD
:1016BC0000280BD1DFF85009DFF85019097800EB3E
:1016CC00C102D2E9000100F097FB0FE0DFF8EC0B50
:1016DC00006850F01000DFF8E41B08600099A9487E
:1016EC0001F06EFAA74801F069F9002004B010BDB2
:1016FC0080B50020DFF81809006801F06EFADFF8F9
:10170C001419884201D2642008E0DFF8B41B884227
:10171C0002D24FF47A7001E042F2107080B202BD36
:10172C00501D002038B50400DFF8EC08DFF8D8189D
:10173C00E4B201EBC40149790C225143455A002013
:10174C00DFF8D408DFF8C018E4B201EBC401497922
:10175C000C225143084400218160DFF89C0800787A
:10176C0000281ED1FFF7C4FF01002A0089B292B2F3
:10177C00914200D30500DFF8A008DFF88C18E4B222
:10178C0001EBC40149790C2251430844DFF88C1851
:10179C000968ADB26943DFF884281268891A816040
:1017AC0019E0DFF87C080078002814D0DFF868080E
:1017BC00DFF85418E4B201EBC40149790C2251430F
:1017CC000844DFF858180968ADB26943DFF84C28B3
:1017DC001268891A8160DFF814080068DFF83C1879
:1017EC000968DFF84028128802FB0100DFF82C188A
:1017FC000968401ADFF8F417086031BD201D00207D
:10180C00E81C0020E81D0020B81D0020400D03003E
:10181C00012A0020002180B2302190FBF1F201FB63
:10182C001201002901D1002128E080B2202190FB77
:10183C00F1F201FB1201002901D101211EE080B25D
:10184C00182190FBF1F201FB1201002901D10221B8
:10185C0014E080B2102190FBF1F201FB120100297F
:10186C0001D103210AE080B2082190FBF1F201FBC7
:10187C001200002801D1042100E00521080040B22B
:10188C00704780B50020DFF8701708700020DFF873
:10189C00541708600020DFF8201A08600020DFF8D9
:1018AC00241A08600020DFF8201A08700120DFF8E5
:1018BC001C1A08700120DFF8181A08700020DFF8D5
:1018CC00141A08700020DFF8201708700120DFF8C8
:1018DC00541708800020DFF8081708700020DFF884
:1018EC00101508700120DFF8F01908702D4890F9D8
:1018FC000000082812DA2B4890F90000DFF8F016E7
:10190C0091F90010884203DA264890F9000003E0B0
:10191C00DFF8DC0690F9000022490870DFF8D006E9
:10192C00407820494870DFF8C80690F821001D491E
:10193C0081F82100DFF8A409D0E90023DFF8A00921
:10194C00C0E900230C2218491848FEF794FB00202C
:10195C00DFF8901908700020DFF88C19087000204F
:10196C00DFF890140870DFF88409006802E00021A9
:10197C004162806A0028FAD10820DFF890160870BE
:10198C0001BD0000741D0020072A0020E0F8D11DC5
:10199C0044F50000141B0020032A002054F500001D
:1019AC004CF50000BC1C0020201D0020E81C002071
:1019BC00F0B585B00E00150019000024002203922A
:1019CC000F000022DFF834391A800022DFF81439B6
:1019DC001A700A9A002900D10022DFF828361A70F2
:1019EC000278DFF80C39E4B21A55641C0078C0B2E6
:1019FC004009C0B2002809D0022800F0A2800428B7
:101A0C0000F09B80072800F0DA81EFE1E4B2DFF808
:101A1C00EC0804800822DFF8DC080168DFF8D00845
:101A2C00DFF8D8381B881844FEF730FBDFF8CC08F9
:101A3C0000880830DFF8C41808800822DFF8B808DE
:101A4C000168DFF8AC08DFF8B4381B881844FEF7DF
:101A5C001DFBDFF8A80800880830DFF8A018088004
:101A6C00DFF89C080088DFF88818DFF890281288C7
:101A7C008854DFF888080088401CDFF8801808803C
:101A8C00DFF87C08008880B2000ADFF86418DFF801
:101A9C006C2812888854DFF864080088401CDFF832
:101AAC005C18088003ABDFF85C080268DFF84C08B0
:101ABC00007800F0FF01DFF8380801F082F9039894
:101ACC00DFF82C18DFF8342812888854DFF82C083B
:101ADC000088401CDFF8241808800398000ADFF8FF
:101AEC001018DFF8182812888854DFF810080088BE
:101AFC00401CDFF8081808800398000CDFF8F0177A
:101B0C00DFF8F82712888854DFF8F0070088401CAB
:101B1C00DFF8E81708800398000EDFF8D417DFF819
:101B2C00DC2712888854DFF8D4070088401CDFF8C3
:101B3C00CC170880002005B0F0BD0120DFF8A417F9
:101B4C000870DFF8B4040078002801D10720F2E710
:101B5C00DFF8B42701213078C0B2C009FFF730FBA1
:101B6C00317860F386113170DFF87C07007800283B
:101B7C0007D00020DFF870170870307850F0200084
:101B8C003070DFF888070068DFF86417E4B2085596
:101B9C00641CDFF878070068000ADFF85417E4B219
:101BAC000855641CDFF864070068000CDFF8401768
:101BBC00E4B20855641CDFF854070068000EDFF827
:101BCC003017E4B20855641C3078DFF82417E4B2FF
:101BDC000855641CDFF80C040068DFF81417E4B235
:101BEC000855641CDFF8FC030068000ADFF80017D6
:101BFC00E4B20855641C7E48027892B2DFF81017E4
:101C0C00C948DFF8DC331B781844FEF734FADFF8E8
:101C1C00D0030078764909780818DFF8C4130870E7
:101C2C00002F2ED0DFF8DC030078002829D0DFF855
:101C3C00B0030078102832DA6E48007800282ED0D5
:101C4C00307810F0F001DFF898231278101810F0AB
:101C5C000F00084330703078DFF89416487100207C
:101C6C000100DF4A127889B292B2914217D2AE4982
:101C7C0080B2095CDFF87826E4B21155641C401C74
:101C8C00EEE7D7480078002809D05A480078002899
:101C9C0005D0D3480078DB490870A34F00250020FD
:101CAC0054490870DFF86826CD4801789E48FFF744
:101CBC00E3FB4F4908704E480078002802D0012001
:101CCC004C490870002F36D0CE480078002832D00E
:101CDC00DFF81C06E4B20555641CEDB2002D15D1DD
:101CEC00DFF80C06E4B220440290BE480068019074
:101CFC0000200090DFF814060368DFF81826C148AE
:101D0C00017889B2380000F0E7FF14E0DFF8E00555
:101D1C00E4B220440290B348006801900020009087
:101D2C00DFF8E8050368DFF8F025B648017889B2DA
:101D3C00380000F0D1FFE4B2B24800780019DFF8A7
:101D4C00BC15088003A80290A648006801900020EA
:101D5C000090DFF8B8050368DFF8B825DFF89C05BC
:101D6C000188DFF88C0500F06FFF0398DFF8801511
:101D7C00DFF88825128888540398000ADFF870155C
:101D8C00DFF878251288114448700398000CDFF8AE
:101D9C006015DFF868251288114488700398000ECE
:101DAC00DFF84C15DFF8542512881144C870DFF8A1
:101DBC004C050088001DDFF844150880BAE60029A0
:101DCC0013D09048007800280FD08E48027892B239
:101DDC00DFF81C05E4B22044FEF74DF9E4B2894863
:101DEC0000780019DFF814150880A3E60220A2E69B
:101DFC000C2A00200A2A002033B589B0DFF8D4075A
:101E0C00DFF8D41791F901104456002000258248C0
:101E1C009DF829100C225143084490F90210DFF868
:101E2C00B80790F90000FFF7B5F9DFF8B01740B22A
:101E3C000D560121DFF8A82751700121DFF8742419
:101E4C005170DFF894174978DFF868249170DFF847
:101E5C006414C8700998DFF85C1408610998DFF8FD
:101E6C008417C9688847DFF894040188C9B2012037
:101E7C00DFF87027526D904740F6B830089000207C
:101E8C00079000200690002005900120049000206F
:101E9C000390082002900120019064B2009400236A
:101EAC000022290049B20120DFF83847E469A04735
:101EBC00DFF848040188C9B20120DFF82827526AEC
:101ECC0090475649086055480068DFF8E813886069
:101EDC0052480068DFF8081748604FF47A71DFF851
:101EEC00080700F06DFE44480078002806D1DFF8A2
:101EFC00FC060078401CDFF8F4160870DFF8FC03D1
:101F0C000188C9B2DFF8E803DFF8D826926A904757
:101F1C00DFF8A803006850F00100DFF8A013086098
:101F2C0000200BB030BD00005C1C002038B5040054
:101F3C000020002538483449344A127801EBC2019C
:101F4C0049790C225143084490F90210DFF88806B5
:101F5C0090F90000FFF71EF9DFF8801640B20D561D
:101F6C004FF47A71DFF8800600F02AFEDFF878066D
:101F7C0000F024FD220092B2290049B22248234BE2
:101F8C001B7850F83300DFF85C36DB6B9847DFF8D2
:101F9C00D807006850F00100DFF8CC17086000206B
:101FAC0032BD80B50B001100020092B249B218008C
:101FBC00DFF83036DB6B98474FF47A71DFF8280680
:101FCC0000F0FEFDDFF8200600F0F8FCDFF89807C3
:101FDC00006850F00100DFF890170860002002BD87
:101FEC000B2A0020501C00200E2A0020301D00203F
:101FFC00F41C0020C41D0020062A0020B01D002067
:10200C00B41D0020042A00207C1C0020102A002073
:10201C00341D002080EE3600C0070020E41D002097
:10202C000F2A0020F029002010B5002801D1032030
:10203C003EE10268002A05D04268002A02D082687C
:10204C00002A01D1032033E1DFF820271060DFF8EC
:10205C00200701600020DFF81C1708700020DFF853
:10206C00181708700020954908600020DFF87C15CF
:10207C0008700120DFF8041708700020DFF8001743
:10208C0008700020DFF8FC1608600020DFF8F81656
:10209C0008600020DFF8F41608700020DFF8F01656
:1020AC0008700020DFF8E81648700A20DFF8E01608
:1020BC0048600620DFF8D816087240F6B830DFF812
:1020CC00D016C8604FF47A70DFF8C41608614FF46C
:1020DC00FA60DFF8BC16486141F28830DFF8B016C0
:1020EC00886141F27070DFF8A816C8610120DFF832
:1020FC00A01681F820000020DFF8941681F821004A
:10210C00DFF89006D0E900237448C0E900234FF6AD
:10211C00FF70DFF87C1688854FF6FF70DFF87016BD
:10212C00C8854FF6FF70DFF8681608864FF6FF700B
:10213C00DFF85C1648864FF6FF70DFF85416888679
:10214C004FF6FF70DFF84816C886002426E0E4B28C
:10215C0000F06EFD001900F067FE0022DFF8383643
:10216C0000F07AFE5FF0C042DFF8303600F046FF38
:10217C0000F0CEFFDFF82816E4B241F8340050200E
:10218C00DFF81C16E4B201EBC40108710020DFF883
:10219C001016E4B201EBC4014871641CE4B2082CC3
:1021AC00D5DBDFF8EC054068DFF82C144860DFF86D
:1021BC00E005007ADFF820140872DFF8D405C06857
:1021CC00DFF81414C860DFF8C8050069DFF80814DC
:1021DC000861DFF8BC054069DFF8FC134861DFF8E3
:1021EC00B0058069DFF8F0138861DFF8A405C069D9
:1021FC00DFF8E413C861DFF8980590F82000DFF8E9
:10220C00D81381F82000FFF73CFBDFF89815DFF8B6
:10221C00D80300F0C9FB4FF47A71DFF8CC0300F05F
:10222C00CFFCDFF88415DFF8840500F0BDFBDFF888
:10223C008015DFF8800500F0B7FBDFF8D416DFF867
:10224C00D40600F0B1FBDFF8D016DFF8D00600F0B2
:10225C00ABFBDFF8CC06DFF8CC160860DFF8C8065D
:10226C00DFF8C0168860DFF8C406DFF8B81608611E
:10227C00DFF8BC06DFF8AC164860DFF8B806DFF80C
:10228C00A416C860DFF89C06DFF858130968884765
:10229C000120DFF8A4160870DFF89C060078DFF840
:1022AC004413896D8847DFF83C03C06A80470020DF
:1022BC0010BD0000001E0020541C0020381D002002
:1022CC00803F5C02581C00200D2A0020090D0020C4
:1022DC000A0D0020112A0020080D0020181D0020D6
:1022EC00E01C0020082A0020092A00204C1B00209A
:1022FC00501B00201C1B0020181B0020EE29002066
:10230C00EC290020201B0020BD1C0020481B0020B5
:10231C006C1C0020241B0020341B002038B5050049
:10232C000024002D01D1032053E1DFF83C04007898
:10233C00C00701D501204CE12878002848D001289D
:10234C005FD0022862D0032865D0042868D0052805
:10235C006BD0062875D0072800F07F80082800F085
:10236C0087800A2800F089800B2800F08D800C28CB
:10237C0000F09D800D2800F08E800E2800F0A380C8
:10238C000F2800F0AE80102800F0B080112800F06B
:10239C00B280122800F0B480132800F0B680142804
:1023AC0000F0B880152800F0C480162800F0DF80FB
:1023BC00172800F0CD80182800F0E880192800F0CC
:1023CC00EA801B2800F0EC801C2800F0F480FDE073
:1023DC002879DFF8A4130870DFF89C030078002834
:1023EC0003D0022806D004D30AE07E48C06A804796
:1023FC0006E005E00020DFF86C150870FEF7D9FC4C
:10240C00E5E02879DFF838150870E0E02879DFF886
:10241C002C150870DBE06868DFF828150860D6E03A
:10242C006868DFF844150860D1E06868002806D0B9
:10243C0010226968DFF83405FDF71DFE00E0032467
:10244C00C5E06868002806D010226968DFF820050E
:10245C00FDF711FE00E00324B9E02879DFF8D81469
:10246C000870DFF8D40400785E49896D8847AEE0C7
:10247C002879DFF80C130870A9E0D5E90101DFF821
:10248C00C824C2E90001A2E0D5E90101DFF8BC24AF
:10249C00C2E900019BE06868002806D00C2269683C
:1024AC00DFF8AC04FDF7E7FD00E003248FE068687B
:1024BC00002806D00C226968DFF89804FDF7DBFDD4
:1024CC0000E0032483E02879002808D0287910281C
:1024DC0005DA2879DFF8801481F8200000E0032465
:1024EC0075E06868DFF87014C86070E06868DFF841
:1024FC00681408616BE06868DFF85C14486166E09A
:10250C006868DFF85414886161E06868DFF8481483
:10251C00C8615CE00522002195F90400FEF743FE3A
:10252C00002804D02879DFF86812487000E00324F2
:10253C004DE00522002195F90400FEF734FE002839
:10254C0004D02879DFF81014487000E003243EE032
:10255C000822002195F90400FEF725FE002804D07E
:10256C002879DFF82C12087000E003242FE00822F1
:10257C00002195F90400FEF716FE002804D02879F6
:10258C00DFF8D413087000E0032420E06868DFF85B
:10259C00CC1308601BE06868DFF8C413086016E011
:1025AC006868DFF8EC114860DFF8E4014068DFF898
:1025BC00A81348600BE02879DFF8D4110872DFF813
:1025CC00D001007ADFF89013087200E0022420009A
:1025DC00C0B232BD44F50000BC1C0020C0F40000A9
:1025EC00141E002098ED00003C1D0020122A002033
:1025FC0038B504000225002C01D10320B3E05A4861
:10260C000078C00701D50120ADE00C220021DFF8D5
:10261C006403FDF749FD0120DFF85813487020785A
:10262C00002805D002286BD057D3032879D08BE033
:10263C004D480078C00601D5012094E06068002860
:10264C0008D0A068002805D0E068002802D0207CC3
:10265C00002801D1032086E0207C302801DA3020CC
:10266C002074DFF81403007850F00800DFF808132A
:10267C0008702078DFF8FC1208706068DFF8FC1234
:10268C000860A068DFF8F8120860E068DFF8F41260
:10269C000860207C394908700020DFF8EC120870C3
:1026AC0000208DF800009DF8000010F01F008DF840
:1026BC000000FFF7E6F8DFF8D0020078401C80B28B
:1026CC00FFF7A8F8DFF890124870002300220021D1
:1026DC006846FEF70DFF050036E0DFF89C02007837
:1026EC0050F00800DFF8901208702078DFF88412A0
:1026FC000870002200210220FEF7B2FD050023E045
:10270C002078DFF870120870DFF86C02007850F057
:10271C000800DFF864120870A088FFF707FC0500BA
:10272C0012E02078DFF84C120870DFF84C020078C9
:10273C0050F00800DFF840120870227BA168A088D6
:10274C00FFF72FFC0500FFE7EDB2002D09D00020AC
:10275C0084490870DFF82002007810F0F7008649F1
:10276C0008702800C0B232BD381D0020501D00205A
:10277C00541D0020201E0020012A0020132A0020B6
:10278C00032A00202C1D0020301D00200F2A0020C1
:10279C00F41C00203CF50000006A08413508BC41DF
:1027AC007C1C002031080000C70C0000741D0020A8
:1027BC00570D0000881D00202DE9FE4306008846B9
:1027CC00170068460021002200230EC00C3800249C
:1027DC0000258DF800806D484FFA88F850F82800D5
:1027EC006B49884206D06B49884207D000208DF88F
:1027FC00010006E001208DF8010002E002208DF8B6
:10280C000100012064494FFA88F811F9081088403A
:10281C0000F00AFB04000D005C484FFA88F850F8F1
:10282C00280000F00BFB02000B002000290000F038
:10283C0085FC0022594B00F00FFB04000D004648AC
:10284C00007A4000083800F0EFFA22002B0000F06C
:10285C0003FB80468946780000F0F0FA42464B466E
:10286C0000F0CCFB22002B0000F068FC00F092FD85
:10287C0000F04EFC3849097A81421BD23648007A66
:10288C004000083800F0D0FA22002B0000F0E4FAE7
:10289C0080468946780000F0D1FA42464B4600F05B
:1028AC00ADFB22002B0000F049FC00F073FD00F0A2
:1028BC002FFC01E02848007A0190002038492200C2
:1028CC002B0000F0C9FA80468946019800F0B6FA50
:1028DC0022002B0000F0C0FA00225FF0804300F0D1
:1028EC002DFC02000B004046494600F083FD0022FF
:1028FC002C4B00F083FB00F04DFD00F0F3FB02903D
:10290C0068460EC80EC60C380C3EBDE8F7830000B6
:10291C00BF0D00009C1D00200B0E0000D01D0020E0
:10292C00ED050000581D00201307000051070000A2
:10293C0015070000E1070000022A0020072A0020EA
:10294C00062A0020441B0020E01C0020181D00203B
:10295C00201D0020E81C0020BC1C0020501C002066
:10296C00541C0020082A0020481B0020241B002097
:10297C00341B0020141E0020201E0020181B0020D9
:10298C001C1B0020201B0020122A002058F20000E3
:10299C0090D0030020A1070044F5000000408F40B8
:1029AC0000001040000008C00022026000224260BB
:1029BC0000220272C16000210161704710B5040051
:1029CC0000200021002C04D0200000F0E9F80028A1
:1029DC0000D02DE0606820600020207277480068ED
:1029EC00002804D12168200000F059F820E0734839
:1029FC000068007A00280ED000F0EBF86F490968E7
:102A0C000968814202D26D48006800686B49096808
:102A1C000968091A02E06948006801682068884260
:102A2C0003D2200000F03BF802E0200000F001F897
:102A3C0010BD30B400230024604A12685F4B1B6841
:102A4C001D69002D06D10368591A0160106100211F
:102A5C00016122E00B002C68641802E02300296855
:102A6C000C19002A19D00168A1420BD20168C91AAD
:102A7C000160002D03D029680368C91A2960106110
:102A8C0005610AE02A002D69002DE7D123000168B9
:102A9C00C91A016010610021016130BC704780B51A
:102AAC00464A1268002A04D00368C91A1160002132
:102ABC001172026101210172404908603F480068AF
:102ACC0000F08DF801BD10B50400002000203B483B
:102ADC0001683A48026839480068002801D0002C87
:102AEC0000D15CE035480068A04245D1334800680D
:102AFC00007A002829D000F06CF82168814200D2BD
:102B0C0020682168081A2D4909680969002918D01C
:102B1C0000212A4A12681172284909680969274A52
:102B2C001160264909680968401824490968086039
:102B3C0001202249096808722048006800F04FF80B
:102B4C002DE000201D49086029E01C480068006940
:102B5C0000280DD02068194909680969174A1160C5
:102B6C00164909680968401814490968086016E094
:102B7C0000201249086012E0206801E0110012697F
:102B8C00002A0CD0A242F9D11369002B05D012698E
:102B9C000A6111684018106001E000220A6110BD42
:102BAC000649096800E00969002903D08142FAD17D
:102BBC00012000E000207047000000005824002095
:102BCC0038B504000D002000FFF77DFF256065601F
:102BDC0031BD00207047002070470020704710B5B1
:102BEC000400206800F0C7FC2060206800F0C2FCE4
:102BFC0010BD000010B586B002A80F49102200F0DD
:102C0C00CBFC68460D49D1E90023C0E900235020D4
:102C1C000B49087708226946094C200000F0ACFCEF
:102C2C00102202A9074C200000F0A6FC06B010BD33
:102C3C000348007F704700000CF400002CF50000E6
:102C4C00241A00202C1A002070B504000D00160068
:102C5C0004986F4948716E488371180A6C49C871A1
:102C6C00180C6B490872180E694948720598684926
:102C7C008872010A664AD172010C654A1173000E02
:102C8C00634948736248C573624800F0B0FC310078
:102C9C00604800F0BDFC10225D495E4800F0C0FCAD
:102CAC00ADB205F0FF0221005A4800F0B9FC5949B9
:102CBC00594800F02BFD5848C078574989780904C9
:102CCC0051EA00605449497850EA01205249097888
:102CDC0008430699086070BD2DE9F84304000D0007
:102CEC009146984600260127F02200214B48FDF71B
:102CFC00DBF94A4A1021484601F03CF8089848494B
:102D0C004871474880F806805FEA18204449C8712A
:102D1C005FEA1840424908725FEA186040494872FD
:102D2C0009983F498872010A3D4AD172010C3C4A0C
:102D3C001173000E3A494873DDF8288012E0F6B2A0
:102D4C0080B28119615C374A80B2125C5140F6B294
:102D5C0080B2821908F80210401C80B21028EEDBF9
:102D6C00103D1036ADB2102D09DB2D48C7737F1CFA
:102D7C002A4A2C492A4801F0ABF80020EDE7ADB205
:102D8C00002D1CD02648C773244A2649244801F03C
:102D9C009FF800200DE0F6B280B28119615C214AE7
:102DAC0080B2125C5140F6B280B2821908F802105F
:102DBC00401C01002A0089B292B29142EBD3BDE8CB
:102DCC00F183F8B505000E0017001C00114800F047
:102DDC000EFC39000F4800F01BFCB6B206F0FF02E7
:102DEC0029000C4800F01CFC0A490B4800F08EFC32
:102DFC000948C07808498978090451EA00600649F5
:102E0C00497850EA01200449097808432060F1BD53
:102E1C00CC070020381F0020241E0020441E002058
:102E2C00DC070020341E0020010040F10980F4462C
:102E3C00404200F005F851F000416047010000BF2E
:102E4C0009D0B0FA80F18840C91CC1F5846109052C
:102E5C0001EBD02140057047B0B581EA030C0CF0B2
:102E6C00004C40F2FF7515EA11541DBF15EA1357BB
:102E7C00AC42AF4239E0E41923EA455343F48013E2
:102E8C00C90241F0004141EA505EC7021100A7FBA4
:102E9C00020200284FF00000EEFB01204FF0000171
:102EAC00E3FB072118BF42F0010240180021494101
:102EBC00E3FB0E01A4F580640F0302D252004041E3
:102ECC00494154F101046CDD470872F1004250F1A4
:102EDC00000051EB0451A1F580115CBF41EA0C01DB
:102EEC00B0BD4CEA05510020B0BD05EA1357AC4209
:102EFC0014BFAF4241E050EA410E1CBF52EA430EF0
:102F0C0002E061460020B0BD24423C441BD15FEA84
:102F1C00070EF6D0090302BF01460020AEF1140ED5
:102F2C00B1FA81F7AEEB070401FA07FE0C37C7F1D3
:102F3C00200100FA07F7C8404EEA000E23EA455379
:102F4C0043F48013A2E733F00043B3FA83F704BFD2
:102F5C00B2FA82FE77440B3FE41BB7F1200E2FBF71
:102F6C0002FA0EF3BB40C7F1200E22FA0EFE38BF58
:102F7C0043EA0E03BA40641C82E750EA410E14BFC8
:102F8C0052EA430E6FF000014FF4001717EB430F9A
:102F9C008ABF194617EB410FB5E74CEA05510020E3
:102FAC00B0BDD4F10104B4F120070FDAC4F120074D
:102FBC00520828BF42F0010210FA07F501FA07F790
:102FCC00E1BF2A43E0403843E1400FE0352C98DC68
:102FDC00C7F1200452EA400220FA07F218BF42F06F
:102FEC00010231FA07F0A1400A43002172F10042BC
:102FFC0050F1000051EB0C01B0BD0000F0B44FF0EB
:10300C00004591EA030C44BF6B4000F0FDB900BFD2
:10301C00841A71EB030603D2001BB14112197341E0
:10302C004FF4001C1CEB410F34BF7CEB430443E01A
:10303C000C0DA4EB1356352E50DC45EAC323DB0AEA
:10304C0045EAC121C912B6F120050DDD63FA05F67A
:10305C00EB4086EA0305124218BF45F00105C01883
:10306C0051F100010CD213E062FA06F5F240554022
:10307C00F3415A40B340F3405A408018594107D3AA
:10308C0049085FEA30005FEA350528BF45F00105C5
:10309C0001F58011420875F1004250F1000041EB3E
:1030AC000451F0BC4FF4001C1CEB410F38BF7047AF
:1030BC000020090D090570471CEB410F10D252EA94
:1030CC0043060BD0BCEB410F05D80C0DAB43661E71
:1030DC00342EB5DD02E0AB4380185941F0BC70478B
:1030EC00F0BC7047F446400D40EAC120490006D2BE
:1030FC0000F014F8004248BF6FF00040604700F049
:10310C000DF84FF0004188428CBF084640426047A2
:10311C00400D40EAC120490080F00D8040F0004095
:10312C00490DA1F58061491C05D4D1F11F0154BF93
:10313C00C840C01770474FF0000070472DE9F041B0
:10314C0040F2FF7581EA030C0CF0004C15EA1154A7
:10315C001DBF15EA1357AC42AF42E9E0BC41C1F3C5
:10316C001301C3F31303801A994143F4801304D25F
:10317C00641E4000494180185941C90241EA50512E
:10318C00B1FBF3F603FB1611A2FB0675D7EBC020BF
:10319C00A94102D2761E80185941C90241EA505108
:1031AC00B1FBF3FE03FB1E11A2FB0E75D7EBC02087
:1031BC00A94103D2AEF1010E80185941890241EAAE
:1031CC009051760546EA8E2EB1FBF3F603FB1611F1
:1031DC00A2FB0675D7EB8020A94102D2761E80187F
:1031EC005941C90241EA50514EEA060EB1FBF3F6C1
:1031FC0003FB1611A2FB0675D7EBC020A94102D226
:10320C00761E80185941C90241EA5051B1FBF3F7BF
:10321C0003FB1711A2FB0735D3EBC020A94167F1C3
:10322C0000070CBF004247F0010766F3D5274FEAB1
:10323C001E31B80814F5806414DDBD0775F1004229
:10324C0050EB0E5051EB045111F5801F5CBF41EA5D
:10325C000C01BDE8F0814CF07F6141F0E0410020B1
:10326C00BDE8F081BD076D0840EA0E5041F48011B5
:10327C00D4F10104B4F120060ADAC4F120060200EC
:10328C00E04001FA06F3E1401843B24015430EE06A
:10329C00342C14DCC6F1200445EA40056D0820FAF4
:1032AC0006F2154321FA06F0A1400D43002175F1F9
:1032BC00004250F1000051EB0C01BDE8F081002000
:1032CC005FEA0C01BDE8F081CFB992185B41B3FA0B
:1032DC0083F704BFB2FA82F6BF190B3FB7F1200691
:1032EC002FBF02FA06F3BB40C7F1200622FA06F6FE
:1032FC0038BF3343BA401CB1E419641E2FE77F4238
:10330C0031F00041B1FA81F404BFB0FA80F6A4198F
:10331C000B3CB4F120062FBF00FA06F1A140C4F11A
:10332C00200620FA06F638BF3143A0403C1B16E7B6
:10333C00AC421ABF05EA1357AF4214E050EA4106FB
:10334C001CBF52EA4306BFE750EA410730466146CC
:10335C001CBF41EA0551BDE8F08152EA430C08BF9D
:10336C00C143BDE8F08100204FF4001616EB410F6D
:10337C0098BF16EB430F08BF16EB410F24BFC14398
:10338C0005E016EB430F0CBF61464CEA0551BDE856
:10339C00F081000040F2FF7C1CEA115240F2FE3337
:1033AC00D21ACCBFD2F1350316E0B2F1150309DA0B
:1033BC006FEA4C53D340094201D4401E59410020BE
:1033CC00994370476FF00002DA40094202D480182A
:1033DC0051F1000190437047352A09DA50EA410354
:1033EC001CBF40F2FF31090528BF4FF000410020FF
:1033FC007047242AF0B44FF0004591EA030F44BF04
:10340C006B40FFF705BE00BF841A71EB030604D2B4
:10341C006E40001BB141121973414FF4001C1CEBA0
:10342C00410F34BF7CEB430684E00C0DA4EB135628
:10343C00362E7DDC012E43DC45EAC32343EA52538E
:10344C0012BFD20292025B08240545EAC12141EA6F
:10345C005051D2EBC020994125D407D1B0FA80F657
:10346C0010FA06F164D00020203608E0B1FA81F69B
:10347C00B140C6F1200220FA02F21143B0404FEAEB
:10348C00F474B4EB465434F001064FEA74040AD8D1
:10349C00D6F50016760D04F00044F04061FA06F201
:1034AC005040F1404840C00A40EA415021F00041F0
:1034BC0028BF5FEA500550F1000044EBD12137E002
:1034CC0045EAC323DB0A45EAC121C90AB6F1200546
:1034DC000EDD42EA0242120CC5F1200603FA06F692
:1034EC00EB4042EA06056D42984161F100010DE0A6
:1034FC0062FA06F5F240554063FA06FC82EA0C02C9
:10350C00F3405A406D42904161EB030111F4801F6E
:10351C0005D1641E620502D06D004041494121F481
:10352C008011430875F1004350F1000041EB045148
:10353C00F0BC70471CEB410F15D223F0004352EA4C
:10354C0043060BD04FEA4C0CBCEB410F04D80C0DCE
:10355C00661E342EB7DDEBE7801A994150EA41061E
:10356C0008BF0021E4E708BF1CEB430F28BF6FF036
:10357C000001DDE77047704762B38B0708D0521E1D
:10358C0011F8013B00F8013B00F024808B07F6D1C9
:10359C00830740F0208000BF103A07D330B4B1E865
:1035AC003810103AA0E83810F9D230BC530724BFB9
:1035BC00B1E80810A0E8081044BF51F8043B40F8EB
:1035CC00043BD20724BF31F8022B20F8022B44BF56
:1035DC000B7803707047083A07D3B1E80810083A23
:1035EC0040F8043B40F804CBF7D25307E4E710B59E
:1035FC0004001022002114F1F100FCF755FD00200D
:10360C00C4F81401F02200212000FCF74DFD10BD80
:10361C0080B50B0002001021180000F0ABFB01BDBF
:10362C00F0B585B004000D001600D4F81401002884
:10363C005DD0D4F81401D0F11000B04204D2D4F80B
:10364C001401D0F1100700E037003A0092B22900C3
:10365C00D4F81401204400F20110FCF70CFDD4F84E
:10366C0014013818C4F81401D4F81401102801D32B
:10367C00BE4200D148E000200DE004EB000191F8BF
:10368C00F11004EB000292F80121514004EB00020E
:10369C0082F8F110401C1028EFDB220014F1F1012C
:1036AC0014F1F10000F014FC3D44F61B1FE004EB98
:1036BC00000191F8F1102A5C514004EB000282F8F1
:1036CC00F110401C1028F2DB102214F1F1016846B5
:1036DC00FCF7D1FC22006946684600F0F9FB102289
:1036EC00694614F1F100FCF7C6FC1035103E112EA2
:1036FC0001D30020E6E7320092B2290004F2011057
:10370C00FCF7B9FCC4F8146105B0F0BD30B589B054
:10371C0004000D00102200216846FCF7C5FC2A00AD
:10372C006946684600F0D4FB9DF8000000061BD5E6
:10373C0000200BE06946095C6A4602445278D2B21A
:10374C00D20952EA41016A461154401C0F28F1DBA0
:10375C009DF80F0040008DF80F009DF80F0090F0C1
:10376C0087008DF80F0014E000200BE06946095C1F
:10377C006A4602445278D2B2D20952EA41016A46F0
:10378C001154401C0F28F1DB9DF80F0040008DF800
:10379C000F00D5F81401102810D100200BE005EB18
:1037AC00000191F801116A46125C514005EB0002D0
:1037BC0082F80111401C1028F1DB5AE09DF8000042
:1037CC0000061BD500200BE06946095C6A460244E2
:1037DC005278D2B2D20952EA41016A461154401CC5
:1037EC000F28F1DB9DF80F0040008DF80F009DF8BD
:1037FC000F0090F087008DF80F0014E000200BE014
:10380C006946095C6A4602445278D2B2D20952EA3D
:10381C0041016A461154401C0F28F1DB9DF80F0042
:10382C0040008DF80F008020D5F81411294481F840
:10383C00010105E00020D5F81411294481F801019B
:10384C00D5F81401401CC5F81401D5F81401102842
:10385C00F0D300200BE005EB000191F801116A4652
:10386C00125C514005EB000282F80111401C10283B
:10387C00F1DB00200DE005EB000191F8F11005EBF8
:10388C00000292F80121514005EB000282F8F11080
:10389C00401C1028EFDB102215F1F10104A8FCF7F5
:1038AC00EAFB2A00210004A800F012FB10220021E0
:1038BC006846FCF7F9FB09B030BD252A0A7802707E
:1038CC004A7842708A788270CA78C2700A7902711A
:1038DC004A7942718A798271CA79C2710A7A027202
:1038EC004A7A42728A7A8272CA7AC2720A7B0273EA
:1038FC004A7B42738A7B8273C97BC173704703E036
:10390C000B780370491C401C13005A1EDBB2002BB1
:10391C00F6D1704702780B785A40027042784B7897
:10392C005A40427082788B785A408270C278CB7839
:10393C005A40C27002790B795A40027142794B7924
:10394C005A40427182798B795A408271C279CB7913
:10395C005A40C271027A0B7A5A400272427A4B7AFE
:10396C005A404272827A8B7A5A408272C27ACB7AED
:10397C005A40C272027B0B7B5A400273427B4B7BD8
:10398C005A404273827B8B7B5A408273C27BC97BC9
:10399C005140C173704710B40B78147863400370B6
:1039AC004B785478634043708B7894786340837081
:1039BC00CB78D4786340C3700B791479634003716E
:1039CC004B795479634043718B799479634083715B
:1039DC00CB79D4796340C3710B7A147A6340037248
:1039EC004B7A547A634043728B7A947A6340837235
:1039FC00CB7AD47A6340C3720B7B147B6340037322
:103A0C004B7B547B634043738B7B947B634083730E
:103A1C00C97BD27B5140C17310BC704780B5FFF796
:103A2C0079FF01BDDFF89C140278895C0170DFF826
:103A3C0094140279895C0171DFF88814027A895C2C
:103A4C000172DFF88014027B895C01734178DFF826
:103A5C0074244379D25C4270DFF86824437AD25CD8
:103A6C004271DFF86024437BD25C4272DFF854244D
:103A7C00C9B2515C41738178DFF84824837AD25CF7
:103A8C008270DFF84024C9B2515C81728179DFF811
:103A9C003424837BD25C8271DFF82824C9B2515C58
:103AAC008173C17BDFF81C24C37AD25CC273DFF84C
:103ABC001424C379D25CC272DFF80824C378D25CB8
:103ACC00C271DFF80024C9B2515CC17070471FB5D8
:103ADC00040021006846FFF7F1FEDFF8EC039DF8C7
:103AEC000010405CDFF8E4139DF80520895C484029
:103AFC00DFF8D0139DF80A20895C4840DFF8C41326
:103B0C009DF80F20895C48402070DFF8B8039DF8C1
:103B1C000010405CDFF8B0139DF80520895C48402C
:103B2C00DFF8A8139DF80A20895C4840DFF894134D
:103B3C009DF80F20895C48406070DFF888039DF881
:103B4C000010405CDFF87C139DF80520895C484030
:103B5C00DFF874139DF80A20895C4840DFF86C1379
:103B6C009DF80F20895C4840A070D8489DF8001043
:103B7C00405CD4499DF80520895C4840D1499DF8AA
:103B8C000A20895C4840D0499DF80F20895C484048
:103B9C00E070CD489DF80410405CCC499DF809209C
:103BAC00895C4840C7499DF80E20895C4840C5494E
:103BBC009DF80320895C48402071C2489DF8041090
:103BCC00405CC1499DF80920895C4840BF499DF87B
:103BDC000E20895C4840BB499DF80320895C484015
:103BEC006071B8489DF80410405CB6499DF80920F6
:103BFC00895C4840B4499DF80E20895C4840B34923
:103C0C009DF80320895C4840A071B0489DF80410D1
:103C1C00405CAC499DF80920895C4840A9499DF855
:103C2C000E20895C4840A8499DF80320895C4840D7
:103C3C00E071A5489DF80810405CA4499DF80D2042
:103C4C00895C48409F499DF80220895C48409D4909
:103C5C009DF80720895C484020729A489DF808100E
:103C6C00405C99499DF80D20895C484097499DF826
:103C7C000220895C484093499DF80720895C4840A4
:103C8C00607290489DF80810405C8E499DF80D209C
:103C9C00895C48408C499DF80220895C48408B49DE
:103CAC009DF80720895C4840A07288489DF8081050
:103CBC00405C84499DF80D20895C484081499DF801
:103CCC000220895C484080499DF80720895C484067
:103CDC00E0727D489DF80C10405C7C499DF80120F9
:103CEC00895C484077499DF80620895C48407549B5
:103CFC009DF80B20895C4840207372489DF80C108D
:103D0C00405C71499DF80120895C48406F499DF8E1
:103D1C000620895C48406B499DF80B20895C484023
:103D2C00607368489DF80C10405C66499DF8012052
:103D3C00895C484064499DF80620895C4840634989
:103D4C009DF80B20895C4840A07360489DF80C10CE
:103D5C00405C5C499DF80120895C484059499DF8BC
:103D6C000620895C484058499DF80B20895C4840E6
:103D7C00E0731FBD2DE9F0410C001500E4B22100E9
:103D8C00102903D0182901D0202911D12200D2B238
:103D9C0001002800FFF7B3FD14F11C00810008009E
:103DAC00C0B20009401E85F8F0002200012344E057
:103DBC00002085F8F000FF2081E0E4B2192C17DB1D
:103DCC00D2B2E4B292FBF4F004FB102010280FD115
:103DDC003C48F6B2865D3B48FFB2C75D39485FFA96
:103DEC008CFC10F80CC037485FFA8EFE10F80EE011
:103DFC00101BC0B215F8008096EA0806D2B2AE5479
:103E0C00C0B205EB000676787E40D2B205EB020715
:103E1C007E70C0B205EB0006B6789CEA0606D2B2FC
:103E2C0005EB0207BE70C0B22844C0789EEA0000C1
:103E3C00D2B205EB0206F070121D10000E00C0B2DB
:103E4C00F6B2B0423AD2D2B205EB020010F8046CD2
:103E5C00D2B205EB020010F8037CD2B205EB0200E3
:103E6C0010F802CCD2B205EB020010F801ECD2B281
:103E7C00E4B292FBF4F004FB102000289DD130003A
:103E8C00104EFFB2F65D5E400E4F5FFA8CFC17F8D9
:103E9C000C70DFF830C05FFA8EFE1CF80EC0DFF835
:103EAC0024E0C0B21EF800E01800C0B2C0095FF0F8
:103EBC001B0808FB00F090EA430399E70020BDE8DB
:103ECC00F081000090F7010028E9000028EA0000CA
:103EDC007FB50C00150095F8F010002924D02A00AD
:103EEC0001006846FFF757FD01260AE06846FFF718
:103EFC00EEFDF6B2300105EB00016846FFF78EFDD2
:103F0C00761C300095F8F010C0B28842EED36846AB
:103F1C00FFF788FDF6B2300105EB00026946200080
:103F2C00FFF739FD002000E0FF2004B070BD262A09
:103F3C00DFF800F0C1C10110DFF800F009B7011083
:103F4C00DFF800F0CDA00110DFF800F041AC01105B
:103F5C00DFF800F085C10110DFF800F049C1011055
:103F6C00DFF800F019C20110DFF800F0C1C2011037
:103F7C00DFF800F0E3BF0110DFF800F0CDC1011055
:103F8C00DFF800F03DC10110DFF800F0DDB20110E8
:103F9C00DFF800F085B00110DFF800F029AF011058
:103FAC00DFF800F079B50110DFF800F0D5C0011092
:103FBC00DFF800F0E1B5011080B5002804D008232B
:103FCC0028220021FFF7D8FF01BD704780B50028DB
:103FDC0004D0082324220021FFF7BAFF01BD70474B
:103FEC0080B5002804D0082324220021FFF7A0FF6D
:103FFC0001BD704780B5002804D008233022002171
:10400C00FFF7BEFF01BD704740F2FF70DFF8D81C10
:10401C00086070470020DFF8D01C0860704700680B
:10402C00704738B50400FFF797FF2568002D01D0C5
:10403C0029682160FFF794FF280032BD70B5040099
:10404C000D00266800202860002E03D1FFF784FFA6
:10405C0025600DE0FFF780FF00E03668316800292D
:10406C00FBD1AE4203D1FFF77BFF002003E03560AC
:10407C00FFF776FF012070BD002000E0401CC0B2AD
:10408C0008280DDADFF8781DC0B242011144C97F4F
:10409C000906F3D4DFF8681DC0B24001084400E003
:1040AC0000207047002100E0491CC9B2082918DA29
:1040BC00DFF84C2DC9B24B011A44D27F1206F3D54E
:1040CC00DFF83C2DC9B24B011A44B2F91C20030095
:1040DC001BB29A42E8D1DFF8280DC9B24901084455
:1040EC0000E00020704738B50500FFF735FF0400ED
:1040FC00DFF86C0B0078002832D0DFF8640B007806
:10410C00401EDFF85C1B0870DFF8540B00780028A9
:10411C0026D1DFF8500BFFF758FF082101F06BFB9D
:10412C00002D1DD0DFF8400B00687030FFF757FFF3
:10413C0001F037FBDFF89C0DFFF751FFDFF8281B70
:10414C000968C968691ADFF8242B1268B1FBF2F10F
:10415C00FFF70AFFDFF87C0DFFF741FFFFF708FFC1
:10416C002000FFF7FDFE31BD10B50400207B10F0E0
:10417C000F0002281ED1DFF8740B0078002819D12B
:10418C0000F0B8FEA1688908B1EB90007FF0704197
:10419C00884201DB00200EE0B0F1704F02DADFF84C
:1041AC00501B0818DFF8C01A0968C96811F57A7134
:1041BC00814200DB002010BD10B52022816801E097
:1041CC004968521E002913D0D2B2002A10D00B8895
:1041DC0040F60304A34204D00B8840F60404A34227
:1041EC00EED11822C06810F120042000FFF7C4F9AA
:1041FC0010BD38B5DFF8FC4ADFF8FC0A0068DFF8C0
:10420C00FC1A11EA0005E843DFF8EC1A0860A8066E
:10421C000CD5DFF8EC0A0068800607D5DFF8440AF5
:10422C00FFF7D3FE4FF4005101F0E5FA15F4602FBF
:10423C000BD0A06915F460210843A061DFF8A80C2D
:10424C00FFF7C3FE002101F0D6FA31BD70B5DFF8DF
:10425C00A44AFFF781FE0600A06910F4602F2DD050
:10426C00A069450CE80701D5002506E0A80701D593
:10427C00012502E0680700D50225681D40B201F057
:10428C00B3F9A069012115F1110291408843A06195
:10429C003000FFF765FEEDB204EB85008068002866
:1042AC000FD000225FF00063EDB2691D09B26068A7
:1042BC00EDB204EB8505AD68A84702E03000FFF7CE
:1042CC004FFEA069002806D0DFF81C0CFFF77DFE1E
:1042DC00002101F090FAE07F80070ED5606900287C
:1042EC0007D000225FF000437FF001016068656930
:1042FC00A847E07F10F0FD00E07770BD38B501F005
:10430C0045FE0400A00730D5DFF8400C4568002DB1
:10431C002BD00020DFF8341C4860AA69D5E90401D1
:10432C00204050F002001043A861DFF8D80A026860
:10433C00D5E9040132EA0000DFF8C81A0860DFF89A
:10434C00C0090268D5E9040132EA0100DFF8B019AE
:10435C0008602900DFF8B00AFFF770FEDFF80409E7
:10436C00FFF733FE022101F046FADFF8E00B456857
:10437C00A00714D4D5E90401044210D0DFF8CC0B0B
:10438C008560AA69D5E9040120401043A861DFF8D3
:10439C00D408FFF71AFE4FF4804101F02CFADFF835
:1043AC00AC0B406800284AD1DFF8A00BFFF737FEB2
:1043BC000500002D43D0E868DFF8AC180968884286
:1043CC0008D0DFF8A008FFF700FE4FF4805101F091
:1043DC0012FA34E0A868FFF7C7FEDFF8FC1A086091
:1043EC00002805D0DFF8F00A0068FFF77CFE26E015
:1043FC00DFF8100A0268D5E904011043DFF8041A4B
:10440C000860DFF8FC080268D5E9040151EA0200F3
:10441C00DFF8EC1808600020DFF8C01A0860A86804
:10442C00DFF8BC1A0860DFF8B40A00680028FAD07C
:10443C00DFF8180BFFF7F5FDDFF8100B456031BD09
:10444C0080B50020FFF74FFE01BDF8B50600140043
:10445C001D00306E002805D022002B0009B2300060
:10446C00376EB8472000800709D4D6E916012040E2
:10447C00294000220023994201D1904207D0C6E97D
:10448C001A4516F13800FFF7B4FDFFF75DFDF1BDDD
:10449C00FEE780B5DFF84C2A1268904701BDDFF8C3
:1044AC00441A0860704780B501F095F90100DFF8F7
:1044BC00B8070068FFF7EDFF01BD80B5DFF8240AEF
:1044CC0000680FF2C901884204D101F0BBFDDFF88E
:1044DC001C1A0860DFF88C07FFF777FD042101F048
:1044EC008AF901BD80B501F051FDDFF8041A0842CC
:1044FC0007D0DFF87007FFF768FD5FF0005101F09F
:10450C007AF901BD80B5DFF8600700684068406843
:10451C00002805D0DFF850070068406840688047E5
:10452C00DFF84407006840688068002806D1DFF88F
:10453C00380700684068C068002826D0DFF89C095E
:10454C0000680028FAD00020DFF890190860DFF826
:10455C001807006840688068002805D0DFF8080755
:10456C000068406880688047DFF8FC060068406897
:10457C00C068002805D0DFF8F00600684068C06805
:10458C008047DFF8C40C01F009FD01BD10B504290A
:10459C0077D1DFF86047DFF8B409FFF740FD00285A
:1045AC0004D0C068DFF8C016086006E0E07FC007E2
:1045BC0003D56068DFF8B0160860DFF8AC06006859
:1045CC0040680078DFF888190860DFF88409006813
:1045DC00DFF89416096849680978884212D0DFF828
:1045EC0088060068806900280CD0DFF87C0600681B
:1045FC00846900225FF000737FF0FF01DFF868062A
:10460C000068A047022001F061FE112001F073FE4A
:10461C000120DFF840190870DFF84C060068007CB8
:10462C00DFF834190978084202D10E2001F063FE3C
:10463C00DFF83406006840688068002806D1DFF88F
:10464C00280600684068C068002808D00020DFF801
:10465C008C180860DFF80409DFF884180860FFF78D
:10466C00D3FC0020DFF8F8180860DFF88408DFF8C6
:10467C00941708600FF20D00FFF711FF1920FFF7D8
:10468C0083FC10BD30B585B00400880040F19A80E1
:10469C000020FFF737FF0020DFF840180860DFF834
:1046AC00C408DFF83C180860012001F0BFFC0FF2D1
:1046BC006910FFF7F4FE40F60A00DFF8AC1808802A
:1046CC000020DFF8A4184880DFF89C08007B10F06D
:1046DC00F000DFF8941808730020DFF88C1848609D
:1046EC00DFF88408407B10F0F00050F00100DFF898
:1046FC0078184873A5680020688000E06D686868C9
:10470C00002805D06868008840F60A018842F5D177
:10471C00DFF854086860687B10F0F0006873DFF80D
:10472C002C08FFF77CFC8068018840F6030291425C
:10473C0022D0008840F6040188421DD0208C00282D
:10474C001AD014F120000021418000214160017B2E
:10475C0011F0F0010173417B11F0F00151F00101F6
:10476C004173DFF804184860DFF8FC07407B10F059
:10477C00F000DFF8F41748736946A06801F036FCC6
:10478C00684601F042FCA06801F03EFCDFF84C07E3
:10479C0000680028FAD00020DFF8401708600120DC
:1047AC0002F068F8012809D0687B10F0F00050F096
:1047BC00010068730FF21100FFF771FEA068DFF8BB
:1047CC002017086005B030BD80B5DFF8380A01420B
:1047DC0020D0012002F04EF8012809D10FF2390047
:1047EC00FFF75DFEDFF88007DFF8F416086011E0D4
:1047FC00DFF8E006FFF7F3FB3221DFF870241268D4
:10480C00B1FBF2F1FFF7B0FBDFF8C806FFF7E7FBEF
:10481C00FFF7AEFB01BD0000FEB506000C00DFF893
:10482C00D45460041FD5FFF797FB0700DFF81C0A70
:10483C00FFF7F5FB0600B5693800FFF791FBA807F9
:10484C000ED4002E0CD0B069A843B061706800285B
:10485C0006D02A000023B6F91C10F0687568A8472A
:10486C0034F48044F1E1A00740F18E80DFF8980524
:10487C00FFF7D5FB0600002E79D03000FFF79CFC2B
:10488C00B0690021B161716800291ED050F002029C
:10489C000023F07F10F00700C0B2012804D00228DA
:1048AC0006D0042808D00BE000225FF0005307E08C
:1048BC0000225FF0804303E000225FF08053FFE7AB
:1048CC00B6F91C10F0687568A847FFF745FB0500A2
:1048DC00DFF87806408A401C0005000DDFF86C16E6
:1048EC004882DFF86806C068C17F11F07F01C1778C
:1048FC00DFF81405FFF795FB2800FFF731FBDFF815
:10490C004C06B0F91200F168B1F9941000B288426B
:10491C002DD1DFF8D8030078002828D1F06890F862
:10492C009600002803D1F0680068002807D1002009
:10493C00F16881F896000020FFF7D5FB17E0CA4814
:10494C000068006810F1010F11D0F0687030FFF7AB
:10495C0046FBF1680968C54A1268B1FBF2F1FFF732
:10496C0003FBF0687030FFF73AFBFFF701FB34F004
:10497C000204DFF89404FFF752FB0600002E00F04F
:10498C00648154F0020460E1A00040F18C80DFF8F7
:10499C005C050068002833D0042001F06BFF002870
:1049AC002ED001F04FFBDFF8A8180860DFF83C05AB
:1049BC000068DFF89C180968884209D2DFF8900873
:1049CC000068DFF828150968401A000BF06009E050
:1049DC00DFF87C080068401EDFF810150968401AE3
:1049EC00000BF060F06810F58D70F060F068A0F2CC
:1049FC00EE2040F2D761884202D340F6C410F0603A
:104A0C000020DFF8E8140860B069002813D0DFF844
:104A1C005805407B10F00F0000280CD1708C40F62C
:104A2C000901884207D1B76900225FF000737FF457
:104A3C0080713000B847DFF81C08FFF7E4FA002259
:104A4C00DFF8141800F0EAFEDFF8100800780028F0
:104A5C000CD00220ADF80000684601F09FFABDF8BA
:104A6C000800A8830020DFF8F41708700120DFF895
:104A7C00F01708707A480078401C794908700020BB
:104A8C00DFF8D0140870192000F0CBFE70690028F4
:104A9C0006D0756900225FF0806300213000A847C2
:104AAC0034F00054D1E0DFF8BC070078002808D0BF
:104ABC00200706D50020DFF8AC17087034F0080486
:104ACC00C3E0200740F1AC800020DFF89417087099
:104ADC000120DFF894170870002001F0A7FA0FF2FC
:104AEC009110FFF7DCFCDFF86C07FFF78CFA002263
:104AFC00DFF89C1900F092FEDFF85C040078DFF818
:104B0C005C17097891F00101084227D10120DFF8E8
:104B1C004814087040F60900DFF84C140880DFF8E0
:104B2C004804407B10F0F00050F00100DFF838141E
:104B3C0048730020DFF830144880DFF82C04007B29
:104B4C0010F0F000DFF8201408730020DFF81814C0
:104B5C004860DFF81404E24908605EE0DE48006853
:104B6C00002852D001F06EFADFF890190860DFF8D7
:104B7C008C090068DFF874130968401A000BDFF821
:104B8C007C190860DFF894090068DFF8701909686F
:104B9C000818DFF888190860DFF880090068CE492A
:104BAC000968B0EBC11F08D2DFF88C0AFFF70DFAC9
:104BBC005FF0005100F01FFE2FE00020DFF85C19C1
:104BCC00086040F60900DFF8A0130880DFF89803AE
:104BDC00407B10F0F00050F00100DFF88C134873AC
:104BEC000020DFF884134880DFF87C03007B10F092
:104BFC00F000DFF8741308730020DFF86C134860C2
:104C0C00DFF86403B649086007E0DFF82C0AFFF709
:104C1C00DCF95FF0005100F0EEFD34F0080414E014
:104C2C00A00412D5DFF83C09FFF7F9F90600002EB5
:104C3C0009D07068002806D000222023B6F91C1079
:104C4C00F0687568A84734F40054002C06D0DFF8DF
:104C5C00E809FFF7BAF9210000F0CDFDF7BD00001F
:104C6C00272A00206C23002050230020B0F50000E0
:104C7C0010B50400880036D501F09DF9DFF8400925
:104C8C00FFF70DFCDFF83C090078002805D114F182
:104C9C003800FFF7AEF9FFF757F9FFF7BBF9022021
:104CAC0001F0AAFA112001F0BBFA207C002802D1F5
:104CBC000E2001F0B5FA0020DFF8AC1508700020CA
:104CCC00DFF81C190870DFF81C09007800280AD0DE
:104CDC000020DFF810190870DFF85C09FFF775F990
:104CEC00042100F088FD10BD00000460232A002080
:104CFC00F6FFFF1F302300200810044020000E0098
:104D0C000C10044000B58DB001F0F7F9DFF82C0958
:104D1C00006850F00200DFF82419086001A8FFF7C2
:104D2C004BF9DFF81C0980780790002301AADFF803
:104D3C001419DFF80409FFF72BF901A8FFF75AF94A
:104D4C000020ADF81C00DFF8F8080078099000206E
:104D5C00009001ABDFF838271921DFF8F804FFF7D2
:104D6C001BF901A8FFF728F9DFF8D408C0780790E1
:104D7C00002301AADFF8D0185B48FFF709F901A856
:104D8C00FFF738F90120ADF81C00DFF8B4084078C3
:104D9C0009900020009001ABDFF8B0281A21DFF851
:104DAC00B008FFF7F9F800230022DFF8A8184948EB
:104DBC00FFF7F6F8DFF80808FFF771FBDFF8980843
:104DCC004FF6FF7181830121DFF8902411700021CF
:104DDC00C17700206049087000205E4908700020EF
:104DEC00DFF8841408700020DFF8F4170870002036
:104DFC00DFF87014087000203C4908600DB000BD4D
:104E0C00180D00201410044064230020F0B58FB05E
:104E1C0004000E0017001D00DFF8A807007800281A
:104E2C0005D1FFF76FFF0120DFF898170870002EEF
:104E3C0048D06660002F47D0A760FFF78DF8DFF8E9
:104E4C0020180978002941D1DFF814180978491C79
:104E5C00DFF80C281170FFF783F8002D03D109A897
:104E6C0000F018FB09AD286820606868E060287ABB
:104E7C002074E86860612869002801D02869A06165
:104E8C007821002214F12005280001F0A9FD6846C4
:104E9C00FFF7A6F801208DF818006A46002114F1DE
:104EAC003800FFF749F86846FFF790F806946B4610
:104EBC000022DFF8B01714F17000FFF771F8200032
:104ECC000FB0F0BD0020FBE70020F9E7FFF748F832
:104EDC000020F5E70C240020542400201C10044072
:104EEC000010044054230020BC2300204424002044
:104EFC000200004038B5FFF72FF8DFF8641309788B
:104F0C00002906D0DFF868170C68FFF729F8200095
:104F1C001AE0FFF725F801F095F810F5003051F183
:104F2C000001DFF85047002502000B00A4FB020132
:104F3C0004FB031105FB02110B4A12690023130039
:104F4C00002280185941080032BD0000582300206F
:104F5C00D02108402B2A0020292A002051000706C6
:104F6C001810044001010E04302400202DE9F047F4
:104F7C0006000F0090469946FEF7EEFF0500DFF89D
:104F8C00F806B0F9100000B2DFF8EC16B1F9121007
:104F9C00401A0005000D082849DADFF8DC06008A03
:104FAC00401C0005000DDFF8D0160882DFF8C8069B
:104FBC00B0F91040200000B2FFF75EF8824616F1FF
:104FCC007000FFF70CF800F0ECFBCAF808708AF8D8
:104FDC001E80CAF80490AAF81C40CAF80C60DDE9DF
:104FEC000801DFF89826202310401940CAE9040173
:104FFC0000208AF81F00DFF88006006800282AD0FD
:10500C005146DFF87406FFF719F8002815D1DFF8C0
:10501C006806008A00F6FF700005000DDFF85816D0
:10502C0008822800FEF79CFF7FF00100A3E0280017
:10503C00FEF796FF7FF001009DE0A6F894409AF8E9
:10504C001F0050F080008AF81F002800FEF788FF30
:10505C00200000B28FE05146DFF81C06FEF7EEFF91
:10506C0000280FD1DFF81006008A00F6FF7000054B
:10507C00000DDFF8041608822800FEF771FF7FF0A0
:10508C00010078E0A6F894409AF81F0050F08000D8
:10509C008AF81F00002086F89600DFF84405007897
:1050AC006F490978084210D001206E490870002021
:1050BC00DFF82C150870002068490870DFF8C0056F
:1050CC000078401CDFF8B81508702800FEF748FF80
:1050DC00DFF8A405406800284BD16148007800280F
:1050EC0003D0192000F09DFB43E0DFF89805007811
:1050FC0000283ED1FEF730FF05005B480078002801
:10510C0007D00120DFF8DC1408702800FEF728FF18
:10511C002FE0DAF80800FFF727F8DFF86C150860C5
:10512C0000281CD0DFF860050668DFF83005FEF7B4
:10513C0056FFDFF834150968C968711ADFF84C2579
:10514C001268B1FBF2F1FEF70FFFDFF81005FEF766
:10515C0046FFFEF70DFF2800FEF702FF09E02800CE
:10516C00FEF7FEFEDFF8D004FEF72FFF042100F05F
:10517C0042FB200000B2BDE8F0872DE9F0410600AB
:10518C00884614001D00FEF70FFF0700404600B2D2
:10519C00FEF788FF8046B8F1000F05D13800FEF706
:1051AC0007FF022000212BE098F81F00072108427E
:1051BC000AD03800FEF7FCFE98F81F0007210842C1
:1051CC00FAD1022000211BE0D8F80400DFF8C0144B
:1051DC00884206D0D8F804003066DFF8B404C8F86A
:1051EC000400C6E916453800FEF7E2FE16F1380059
:1051FC00FEF7FFFE5FF0FF31FEF7A2FED6E91A01C3
:10520C00BDE8F08104000020DCB504001800002883
:10521C0001D1DFF87C34DDE90667CDE90067D2B255
:10522C002000FFF7A3FE00B2002803D500205FF09A
:10523C00004107E002225FF0E043010009B22000C8
:10524C00FFF79BFFDCBD0000010007066023002078
:10525C0048240020A0230020094300002A2A002013
:10526C00242A00202E2A00202C2A002080B5D2B21D
:10527C0009B200F009F802BD80B552F00202D2B2B8
:10528C0009B200F001F802BD2DE9F843894614007B
:10529C00DFF8E403FEF7C3FE0090DFF8BC8314F0E4
:1052AC0001070326FEF758FE05000FFA89F919F1DC
:1052BC00010F12D1DFF8C0034068002805D0DFF8D9
:1052CC00B8034068B0F91C9004E0DFF8AC03408AE6
:1052DC0010F10109002088F81F00484600B2FEF7C3
:1052EC00E1FE00283CD0DFF890134968884237D1A2
:1052FC00A10707D5DFF88013096800910021DFF8BA
:10530C0078231160C17F0122BA401143C177FEF7A7
:10531C004BFE0600FFB2002F02D0DFF8780301E04D
:10532C00DFF8740300F03AFE2800FEF719FEA00720
:10533C000ED410E00098C07F50F004000099C8779C
:10534C006846FEF76EFE0100DFF85003FEF776FEAE
:10535C0000980028EED13000FEF72AFE832692E05A
:10536C00002800F08D80009981422ED1DFF8EC02EC
:10537C00FEF735FE00F015FAA00704D50020DFF883
:10538C00F812086006E0DFF8F00200680068DFF849
:10539C00E81208602800FEF7E3FD0098C07F50F08B
:1053AC0004000099C8776846FEF73BFE0100DFF861
:1053BC00EC02FEF743FE0098002801D0A007ECD4C5
:1053CC00832639E0009909680091009900292DD0B5
:1053DC00009909688142F5D1A048FEF700FE00F063
:1053EC00E0F900980068A10704D50021009A11602B
:1053FC00009014E00168009A116000210160009097
:10540C000DE00098C07F50F004000099C877684602
:10541C00FEF707FE0100DFF88402FEF70FFE00988E
:10542C000028EED12800FEF79BFD8326F6B2832ED2
:10543C0002D02800FEF794FDDFF84802007800281F
:10544C0006D07D48FEF7C1FD022100F0D4F91AE028
:10545C00DFF84C020078002815D1DFF84802FFF77E
:10546C001EF87548FEF7B1FD022100F0C4F9DFF813
:10547C0038020078002806D15148FFF710F802E0F6
:10548C002800FEF76DFD3000C0B2BDE8F2830000CD
:10549C00F144000080B5DFF814121422FEF77CF8FA
:1054AC0001BD38B50400FEF757FD0500DFF8F80123
:1054BC00007800280ED0200000F070FD04002800B9
:1054CC00FEF74EFD04F0FF00012801D1812005E01C
:1054DC00022003E02800FEF743FD012032BD80B519
:1054EC000A00DFF884110968884201D0032003E028
:1054FC0000211000FFF7D5FF02BD00004C24002056
:10550C0080B50A00DFF860110968884201D00320D9
:10551C0003E000211000FFF7C4FF02BD502400205F
:10552C0038B551490968884204D1DFF87C0100780C
:10553C00002802D17FF07F0013E0FEF70DFD040080
:10554C00DFF86C0100F02AFD05002000FEF708FDD5
:10555C0005F0FF00012802D1280C40B201E07FF0D9
:10556C007F0032BD5C23002070B50E001500832433
:10557C00FEF7F2FCF6B2002E03D0022E16D00BD39F
:10558C0018E03D494968002904D03B494968898B9A
:10559C00298000E080240EE046490978002903D1D7
:1055AC002D49898B298000E0802404E03E4909784C
:1055BC00297000E00324FEF7D3FC2000C0B270BDBC
:1055CC0099450000252A002080B5080000B2FEF79E
:1055DC0069FD002801D0806800E0002002BD0000B9
:1055EC002D2A0020282A002038B504001A4DFEF779
:1055FC00B3FCE97F490706D5210049B2AA7F09B25D
:10560C0012B2914214D0A98B0122A2401143A9835A
:10561C0029490968012214F10C039A409143264A46
:10562C00116025490968002902D100210F4A117027
:10563C00FEF796FC31BD00006C23002000200940D1
:10564C00CCF50000B344000059420000FF410000BB
:10565C00F0230020C7440000302300200C2400203D
:10566C00262A00204D44000050230020232A00202D
:10567C000430044000093D0058230020F1EFFF9F47
:10568C00272A00202B2A002054240020B0F50000EB
:10569C0057440000010002040100010464230020AF
:1056AC002C2A002025480000242A002068F3000042
:1056BC00010003042A2A00200C100440DFF800F03B
:1056CC0021B30110DFF800F095C00110DFF800F0F5
:1056DC000DA80110DFF800F0BDBE0110FEE7DFF8E9
:1056EC000001007D70476DE038B5FFF7FCFFDFF877
:1056FC00F8500446A8680021FFF7E4FF6969081A0E
:10570C00A969814238BF002084F3118832BD2DE98C
:10571C00F041FFF7E8FFDFF8D0500446A8680121FC
:10572C00FFF7D0FF0121A9830021E9836E69296865
:10573C002A68871B801A711A884204D20020A88319
:10574C0084F311882BE084F31188002406E0A61959
:10575C0031460120FFF7BAFF3F1B0446A742F6D2A1
:10576C00FFF7C1FF8046E88B012804D131460020A9
:10577C00FFF7ACFF0446A96914F1010F08BF0846F6
:10578C0003D0E01B814238BF08468119FFF7A2FF06
:10579C00012028840020A8832E6088F31188BDE89E
:1057AC00F08100218182DFF83C10C0684969884291
:1057BC0004D1DFF85C000068FEF7DABB7047808A22
:1057CC0070477047DFF84C100968EFF3118081F3D4
:1057DC0011887047F6E7DFF84000806870470000DA
:1057EC00A40100207801002078010020616280F380
:1057FC0011882046704738B504460D46FFF7EAFF7E
:10580C00616A2943FFF7F2FFBDE83240FFF756BF4C
:10581C00B4F50000ACF50000C801002081604260C6
:10582C007047102804D3DFF80C101038C1F8000FA3
:10583C007047000000E000E001F006B9FFF7C2BFBE
:10584C00DFF89811C20744BF01220A60820744BFE7
:10585C004FF480720A60400744BF4FF480300860F8
:10586C007047DFF87C21C30748BF1160830748BF2E
:10587C005160400748BF91607047000010B5044666
:10588C000020D4E90A2347F6906101F0D7FB0123ED
:10589C00994228BF4FF0FF3010BD10B50C4600F0F8
:1058AC00C7FB011D201AB0F1004F05D8081BB0F141
:1058BC00004F38BF8C4200D20C462146BDE8104048
:1058CC000120CEE72DE9F04180460A46D8E90A01CD
:1058DC00D8E90C45A0FB026701FB0277A6196F41C2
:1058EC00340C002244EA07414046FFF7D6FFC8E9D2
:1058FC000E67BDE8F081F8B50646FFF79FFF04463A
:10590C00DFF8E050DFF8E0700120E861FFF798FF66
:10591C00F96A096A142088473069B0F5802F34BFC2
:10592C000421010C0120FFF79CFF3A681268232127
:10593C0000209047DFF8B41001200860DFF8B400B5
:10594C00016821F4E02141F48031016001202860DC
:10595C0084F31188F1BD000000F074BB10B5DFF8C2
:10596C009000446800F006F86069A169BDE8104039
:10597C0008470000012063E7F8B504460D4600F027
