:1000000050430020D5D9000001CA011001CA0110D7
:1000100001CA011001CA011001CA011001CA011070
:1000200001CA011001CA011001CA011001CA011060
:0C00300001CA011001CA01103FCA0110F2
:10003C0008480168084A43F2390302FB01310160A8
:10004C006FF00040B1FBF0F06FF0004202FB1010BB
:10005C0070470000C00E00206D4EC64138B50446F6
:10006C000D46FFF7E5FF291B491C90FBF1F201FB44
:10007C001200201832BD03E011F8013B00F8013BDF
:10008C0013465A1E9BB2002BF6D170471044401EEB
:10009C0003E011F8013B00F8013913465A1E9BB2DC
:1000AC00002BF6D1704701E000F8011B13465A1ED5
:1000BC009BB2002BF8D170470A4601460148406AB2
:1000CC001FF025BC0C1F0020012070470100000010
:1000DC000000000000000000000001000000000013
:0800EC00200000000A000000E2
:100100003C0000000000000000000000340100007E
:1001100000000000000000000100000000000000DE
:1001200000000000000000000000000001000000CE
:0C013000000000000800000000000000BB
:10013C003400000000000000000000006801000016
:10014C0000000000000000000100000000000000A2
:10015C00010000000000000000000000080000008A
:04016C00000000008F
:1001700030000000000000000000000098010000B6
:10018000040000000000000001000000FFFFFFFF6E
:10019000FF00000001000000080000000000000057
:1001A0002C0000000000000000000000C40100005E
:1001B000040000000000000001000000FFFFFFFF3E
:0C01C000FFFFFFFF08000000000000002F
:1001CC0034050000E401000099A1011095A701106D
:1001DC00A5C2011009B2011045B8011000000000C1
:0801EC00000000002F000000DC
:1001F40028000000000000000000000014020000BD
:100204000000000000000000FFFFFFFF00000000EE
:080214000800000000000000DA
:10021C00300500003002000069C201106DC10110F0
:10022C001FC2011095BA0110000000000000000070
:04023C002D00000091
:10024000300500005402000075C20110A9B601106B
:100250009DBF011049B60110000000000000000021
:040260002E0000006C
:1002640024000000000000000000000080020000E4
:100274000000000000000000000000000800000072
:040284000000000076
:10028800240000000000000000000000A40200009C
:10029800000000000000000000000000080000004E
:0402A8000000000052
:1002AC00240000000000000000000000C802000054
:1002BC000000000001000000000000000800000029
:0402CC00000000002E
:1002D00000000000C40E0020040000000000000028
:1002E000000000002000000070010000300000004D
:1002F0001C020000E40E00200400000000000000CA
:10030000000000000C000000300400001800000095
:1003100040020000EC0E002004000000000000007D
:100320000000000024000000480400001800000045
:10033000000000002C0F002004000000000000005E
:100340000000000010000000A00100002C000000D0
:10035000CC010000340F0020040000000000000069
:1003600000000000200000006402000024000000E3
:10037000FFFFFFFF540F00200400000000000000FA
:100380000000000028000000880200002400000097
:10039000FFFFFFFF7C0F00200400000000000000B2
:1003A00000000000580000003C0100003400000084
:1003B000FFFFFFFF840F002004000000000000008A
:1003C00000000000100000006004000018000000A1
:1003D000FFFFFFFF8C0F0020040000000000000062
:1003E000000000001C000000AC020000240000001F
:1003F000FFFFFFFF940F002004000000000000003A
:100400000000000038000000F40100002800000097
:10041000FFFFFFFFFC0F00200400000000000000B1
:100420000000000054000000000100003C0000003B
:100430001800000000000000000000004004000060
:080440000800000000000000AC
:100448001800000000000000000000005804000030
:08045800080000000000000094
:100460001800000000000000000000007004000000
:0804700008000000000000007C
:080478000100000024DA00007D
:01048000007B
:040484000100000073
:0404880000000E0062
:04048C0000000F005D
:040490003200000036
:040494000100000063
:04049800CC0E002066
:04049C00000200005A
:0404A0000000000058
:0404A40001CA011078
:0404A8000000000050
:0404AC00000000004C
:0404B0000800000040
:0404B4000000230021
:0404B800F40E00201E
:0404BC00010000003B
:0404C0003C0F0020CD
:0404C400080000002C
:0404C8000000000030
:0404CC00000000002C
:0404D0000000000028
:0404D4000000000024
:0404D8000000000020
:0404DC00010000001B
:0404E0009C0F00204D
:0404E400060000000E
:0404E800010000000F
:0404EC0004100020D8
:0404F0000000000008
:0404F4000000000004
:0404F80000020000FE
:0404FC0000000000FC
:020502002900CE
:020504000100F4
:020506002500CE
:020508002D00C4
:02050A002E00C1
:02050C002F00BE
:02050E000100EA
:0105100001E9
:02051200FF7F69
:080514000400000000DA000001
:08051C000000000000000000D7
:0405240000000100D2
:0405280000000300CC
:04052C0087C401106F
:04053000380500008A
:040534003805000086
:0405380000000000BF
:04053C00900000002B
:040540009000000027
:0405440000000000B3
:040548003C0F002044
:04054C00FD6C000042
:040550002000000087
:04055400D8000000CB
:04055800C0D7000008
:04055C000DC30110BA
:0405600057580000E8
:0405640059580000E2
:0405680099C801101D
:04056C009BC8011017
:040570000000000087
:0405740080040000FF
:0405780000D70000A8
:04057C0018D700008C
:04058000E8D60000B9
:0205840008006D
:0205860009006A
:02058800010070
:02058A0000006F
:01058C00016D
:040590000000000067
:040594000000000063
:04059800000000005F
:04059C00000000005B
:0405A0003D540000C6
:0405A4005D540000A2
:0405A800615300009B
:0405AC008754000070
:0405B000A95300004B
:0405B4007F53000071
:0405B800DB53000011
:0405BC00B354000034
:0405C000756C000056
:0405C400856E000040
:0405C800896E000038
:0405CC000800000023
:0405D0002400000003
:0405D400180000000B
:0405D80028000000F7
:0405DC0020000000FB
:0405E0003C000000DB
:0405E4000C00000007
:0405E80034000000DB
:1005EC0070B502F08FF90446DFF8605D287B0228B5
:1005FC0004D0DFF8E40CC06A804701E000F030FD65
:10060C00E87B00282DD005F19406A96F304602F046
:10061C006FF9304602F0AEF8287B022808D005F1BD
:10062C00A806E96F304602F063F9304602F0A2F8F2
:10063C00287B022802D0A87C002825D04FF47A71A0
:10064C00DFF8D40CFFF70AFDDFF8D06CE96F401827
:10065C0000F5FA61304602F04BF9304602F08AF8A8
:10066C0012E00020DFF8A81D48700320687095F890
:10067C002000002802D1012085F8200095F82000E8
:10068C0040F0100085F82000687EDFF8C41C01EBF8
:10069C00C001497901EB410205EB82010C63AC66A8
:1006AC0001F0BEF9A87C002806D10020DFF8601DFF
:1006BC004870E87D401CE87570BD38B5DFF8944C87
:1006CC00D4F8800040F04000C4F88000DFF87C5C77
:1006DC00A87C002801D000F0DFFC95F8200040F049
:1006EC00120085F82000A4340121204602F000F904
:1006FC002046BDE8324002F03DB82DE9F84F8EB0EF
:10070C0004460D464FF0000840460690814683464D
:10071C00DFF8440C01900990DFF8F87C0C97404608
:10072C008DF80D008DF80E00DFF8E41C0871DFF871
:10073C00E8ACAAF80E209DF838008AF81000DFF813
:10074C000C6CF07F8AF811004046AAF802008AF877
:10075C000500CAF80800AAF80C008AF81200CAF8BA
:10076C0014008AF80000DFF8700BC06A804720780C
:10077C008DF8000040098DF80F00012809D00328DE
:10078C0000F0AA80052800F0A780072800F023823B
:10079C003AE2307C002803D001208AF8010047E2BD
:1007AC00DFF8F8BC0BF10103F26D691E89B2601C15
:1007BC0002F09BF99DF800008BF8000006ABF26D7F
:1007CC00291F89B2584602F066F90BEB0500001F91
:1007DC000178427841EA0221827841EA0241C078EC
:1007EC0041EA00600699884273D10097019BB28C54
:1007FC000BF10101F06D02F0A0F9DFF8A47C9BF87D
:10080C0004009BF8051040EA01209BF8061040EA12
:10081C00014038669BF807009BF8081040EA01205D
:10082C009BF8091040EA01409BF80A1040EA01606D
:10083C0078669BF80B00C0F30211797400F00F007E
:10084C0038769BF80C0010F00F00386001D10120B5
:10085C00386038684FF47A714843386000F57A7024
:10086C007860681E11282ADB50208DF80400386F40
:10087C0040F020043C67032507E0284601F06EFD9C
:10088C006D1C08F103085FFA88F8082D14DA0BEBDD
:10089C000800417B827B41EA0221C07B41EA004097
:1008AC00642148430090E8D0DDE900010A46014686
:1008BC00284601F051FDE3E724F020003867484654
:1008CC0070700120307497F82900DFF8881A48708E
:1008DC009FE1062070709CE16078A17840EA0120CD
:1008EC00E17840EA0140217940EA01600590DFF8A7
:1008FC00B07B796E88421ED0D6F860B001E0DBF890
:10090C0028B0BBF1000F0ED0DBF800108842F6D1F6
:10091C0001208DF80D000BF1040009900BF114006F
:10092C000C90DBF824909DF80D00002805D10A20CE
:10093C008AF801007CE1D7F86C9060798DF8200082
:10094C0000F00F008DF80C000830C0B20490601954
:10095C00001F0178427841EA0221827841EA024183
:10096C00C07841EA00600B90A079E17940EA01205F
:10097C00A0EB090080B20790291FB0F5004F14DAE4
:10098C00814406A80290CDF8049001200090059BAC
:10099C00099A89B2204601F0C3FF0B980699884248
:1009AC001FD101208DF80E001BE007A8B0F9000044
:1009BC00484400F580300A9006A802900A980190ED
:1009CC0001200090059B099A89B2204601F0A8FFEE
:1009DC000B980699884204D101208DF80E00DDF8A1
:1009EC0028900798B0F5804F05DB09208AF80100A4
:1009FC00CAF814901CE19DF80E00002800F0E58068
:100A0C0040468AF801009DF80D008AF802009DF816
:100A1C002000C0F300108AF805004046CAF8080010
:100A2C008AF80C00CAF81490DFF8E4194870706664
:100A3C00B0759DF80D0001280BD102208AF800003A
:100A4C00DBF82400484501D1002828D1CBF82490AC
:100A5C000FE0F86E9DF80F10052918D10121F174E3
:100A6C008AF80010484502D1002800D08846C7F803
:100A7C006C90DFF89C090078012814D19DF82000B7
:100A8C00C0F34010002810D0002070750DE04146D6
:100A9C00F1748AF800104845E9D10028E7D0072006
:100AAC008AF80100C4E000207075281F0499401AD0
:100ABC00012852DB0846205C491CC9B20491291F4D
:100ACC00049A8D1A8AF8030000289DF80C001DD199
:100ADC00002818D1DFF8C4B9CDF808B0CDF80490CF
:100AEC0001200090059B099AEDB2294604982044F8
:100AFC0001F0C6FF9DF8380003462A4600215846EF
:100B0C0000F052FD36E04FF0010833E0002809D028
:100B1C009DF8380003460498421ED2B208212046A4
:100B2C0000F042FDDFF874B9CDF808B0CDF80490B0
:100B3C0001200090059B0C9AEDB2294604982044A4
:100B4C0001F09EFF4046002814D1CAF808B08AF87C
:100B5C000C5001208AF80D000CE09DF80C000028C8
:100B6C0008D09DF8380003460A46D2B20821204628
:100B7C0000F01AFD404600281CD19DF82000C0F35F
:100B8C00401000280AD00120DFF8841808718AF878
:100B9C001200DFF8880701F055FE0BE00020DFF8AB
:100BAC0070180871B07EF17E884203D2DFF86C07B2
:100BBC0001F048FE96F8200068F3820086F82000C9
:100BCC0040F0020086F8200023E00B208AF8010098
:100BDC00FFF773FD2CE0DFF8C4B82A46611C5846B9
:100BEC00FFF749FA03208AF8000040468AF8010012
:100BFC00CAF808B0681E8AF80C0096F8200040F07D
:100C0C00020086F8200004E001208AF80100FFF7BA
:100C1C0054FD96F8200040F0100086F82000DFF814
:100C2C00D44C0121204601F063FE204601F0A2FDC8
:100C3C000FB0BDE8F08F10B5DFF81047207B02280D
:100C4C0004D0DFF89406C06A804701E000F008FA8F
:100C5C000220DFF8BC174870607094F8200040F058
:100C6C00100084F8200010BD10B5DFF8E046207BA2
:100C7C00022804D0DFF86006C06A804701E000F06B
:100C8C00EFF9A07CE17F002914D1002803D00420C7
:100C9C00DFF87C17487004206070A06E01F034FE01
:100CAC00E16F884214D394F8200040F0100084F8CF
:100CBC00200010BD002803D00520DFF85417487021
:100CCC000520607094F8200040F0100084F820009B
:100CDC0010BD10B5DFF87446207B022804D0DFF875
:100CEC00F805C06A804701E000F0BAF9E07F0128FE
:100CFC000ED1A07C002803D00320DFF81417487015
:100D0C000320607094F8200040F0100084F820005C
:100D1C0010BDF8B5DFF83C4604F1A405284601F0F7
:100D2C0091FD0022DFF8246696F82000C0F3001134
:100D3C00002900F0E180D4F880104B0603D521F097
:100D4C004101C4F8801010F00901DFF8C47613D00B
:100D5C007B78022B02D07378022B0DD1D4F8802033
:100D6C0052085200C4F8802000227275F27E7A710B
:100D7C0000223A71BA600122B37C1A4320D10029B7
:100D8C001ED0C0F3C001002959D03178002956D1AA
:100D9C00717FB1727278002A09D10020A067F075BA
:100DAC00D4F8800040084000C4F8800008E0B27F0E
:100DBC0091425CD200F0EF0086F8200000F0F3F8CE
:100DCC0096F82000C0F34000002817D0387900288E
:100DDC0003D1B07EF17E884210D200203077B074FF
:100DEC00387D002802D1A06F401CA067F07E78717E
:100DFC00D4F8800040084000C4F88000307F002800
:100E0C007AD094F88000C00676D400203077F07E3B
:100E1C000146B27E914256D2092854DA401CF07633
:100E2C00C0B200EBD0714910A0EB4100012827D1D2
:100E3C0094F90100411E012920DB401E1FE0C0F384
:100E4C004001F27D94F820309A4201D20A00B1D0D0
:100E5C00002904D100207075706E401C7066002053
:100E6C00F075387D002802D1A06F401CA067D4F823
:100E7C00800040084000C4F88000A1E700206070AA
:100E8C0000F03AFD002806D196F8200000F0EF00A3
:100E9C0086F8200030E00820787000207075D4F8B7
:100EAC00800040084000C4F880000020B074387105
:100EBC00F07E78716078B870387D00281CD1A06FF6
:100ECC00401CA06718E00C2204F1640104F12C0012
:100EDC00FFF7D1F8D4F8800040084000C4F8800037
:100EEC0000207075B0743871F07E7871387D0028F0
:100EFC0002D1A06F401CA067D4F88000810703D5F5
:100F0C0020F00200C4F88000D4F88000002825D11D
:100F1C0096F82000C0070AD5DFF8F404316F096891
:100F2C00884796F8200000F0FE0086F8200096F81E
:100F3C002000C0F3C000002809D03046316F89680A
:100F4C00884796F8200000F0F70086F8200096F805
:100F5C00200000F0EF0086F8200007E04FF47A71D3
:100F6C00284601F0C5FC284601F004FC96F8200048
:100F7C00C0F34000002815D0307B022801D100F0CE
:100F8C006FF896F82000C0F38000002804D1DFF839
:100F9C008804316F4968884796F8200000F0F90002
:100FAC0086F82000F1BD3EB5DFF8A84304F1B80087
:100FBC0001F048FCD4F8800020F01000C4F8800048
:100FCC00DFF8885395F82000C0F3C000002819D032
:100FDC002878002816D100F085FD687F401C80B26F
:100FEC0000F04FFD607000208DF80800687CC00197
:100FFC008DF80400002000900346024601A902A8C7
:10100C0000F0C0FD00F078FC37BD38B5CF4C04F1D2
:10101C00940001F017FC0020E077207B022802D11D
:10102C00AD48006B804701F0F6FD617E4018DFF89B
:10103C00481B002200924B689BB24A7891F9001031
:10104C00302490FBF4F404EB4405A0EB0510DFF81E
:10105C002C4BDFF82C5B04FB005000F0ECF831BD9E
:10106C0038B50024B94D05F1A80001F0EBFB287B45
:10107C00022800D10124DFF8000B009403699BB215
:10108C00427B90F90C10B348406A00F0D4F8002869
:10109C0001D00120E87731BD10B5AE4C04F1CC0085
:1010AC0001F0D0FBA948817C002907D001210177F0
:1010BC00D4F8801021F00401C4F88010017B0229BF
:1010CC0005D190F8201041F0100180F8201010BDCF
:1010DC002DE9FC4704464FF000094D4608222946ED
:1010EC006846FEF7E0FF9B4E1021B08D00F036F9FC
:1010FC00002824D11021F08D00F030F900281ED1E9
:10110C001021308E00F02AF9002818D11021708E91
:10111C0000F024F9002812D11021B08E00F01EF935
:10112C0000280CD11021F08E00F018F9002806D1FF
:10113C000C2206F1640106F12C00FEF79CFF2846F8
:10114C00824902E02846486301200028FAD02F4645
:10115C0001F061FD4FEA101804E0103708F10108A6
:10116C005FFA88F8082F47DA4FF0000A0AE00AEB1A
:10117C00070069465FFA89F901F8090009F10109CC
:10118C000AF1010ABAF1080FE7DA01F044FD06EBA7
:10119C004801898D012200EB0A034FEAE00C00EBB9
:1011AC001C700011A3EB001082401142E8D068487B
:1011BC000AEB070100EBC10001680029E0D090F9AF
:1011CC00041096F90120134641F3030C634505DB2B
:1011DC0041F30311914201DB012100E000210029C0
:1011EC00CED05A49407900EB400201EB8200406BB3
:1011FC000028BCD06D1CC3E74846C0B200280ED0F6
:10120C005FFA89F9A9F101010020FEF727FF694671
:10121C00085C4E49487600202060012009E0EDB2C0
:10122C00002D04D04FF0FF302060012001E00020A1
:10123C002060BDE8F6872DE9F0418AB004460D46E2
:10124C0017469846244E7068804700283FD12046A8
:10125C00F1688847704884610571109C204609909C
:10126C0001200890002007900690059004900390B0
:10127C00CDF8088008200190002000900123DFF8B1
:10128C007C0C425D39461846B769B847726D2F48D9
:10129C00807B002808D0DFF8D00C405D00F10D01F8
:1012AC00C9B20120904707E0DFF8C00C405D00F1A7
:1012BC000D01C9B201209047716B002C03D1254858
:1012CC00C068884701E000208847012000E000202A
:1012DC000AB0BDE8F0810000B8AB000010B50446C0
:1012EC00DFF8D41C096A8847002812D0DFF8CC0C30
:1012FC000019DFF8CC1C88420BD2DFF88018B0FB49
:10130C00F1F1DFF8782802FB1100002801D101204F
:10131C0010BD002010BD000018FCFFFF7421002040
:10132C000A4B9B7B002B03D0DFF83C3C595C02E062
:10133C00DFF8383C595C101880B2814203DBFF287F
:10134C0001DC01207047002070470000FC070020E2
:10135C00B4230020A82000202C21002030B400222F
:10136C00134608E001249C4004EA0005A54200D184
:10137C00521C5B1CDBB28B42F4DB1046C0B230BC9F
:10138C0070472DE9F04104460D460522002100F07E
:10139C004CF8002839D0002601F03DFC070903E089
:1013AC001036F6B27F1CFFB2082E2EDA4FF0000872
:1013BC0003E008F101085FFA88F8B8F1080FEFDADA
:1013CC0001F029FC35F81710012200EB08034FEA55
:1013DC00E00C00EB1C700011A3EB001002FA00F003
:1013EC000142E6D0DFF87C0D08EB060100EBC100F2
:1013FC0090F9040040F3031240F30301204600F07F
:10140C0014F80028D5D0012000E00020BDE8F081C0
:10141C009C2300203C2100208C20002002460B46FF
:10142C00834200DB0A461046704703468B4203DBBF
:10143C00824201DB012070470020704770B51446D2
:10144C000025DFF8803B93F90160002822D0DFF8FB
:10145C00180D320002D1294641661BE0406E40282F
:10146C0002D3012500221A70602813D300F01F004C
:10147C0001280FD1012E00DB761E304640B2002829
:10148C0008D1002906D00C2203F1640103F12C00D1
:10149C00FEF7F1FD2670284670BD00009C2200204E
:1014AC00B8200020F0B40123DFF8BC4CA57DC5F1B9
:1014BC000F06F6B20546AD1E062D41D8DFE805F045
:1014CC003422342204223400657D2F46B01E87421C
:1014DC0011DADFF8983C0620DE193071681C607553
:1014EC00C0B21D182971401C6075C0B219180A7160
:1014FC00401C60750023180001D10120207518468E
:10150C00F0BC7047657D2F46721E9742F3DADFF808
:10151C005C3CDA191071681C6075C0B21A18117134
:10152C00401C60750023E6E7657D2F46B742E2DA82
:10153C00DFF8381C39440871681C60750023DAE741
:10154C000220DDE770B400242346002801D0002AD5
:10155C0003D1184625E0641C641C25460E46EDB2EA
:10156C00B5421CD2E4B2055D2E46F61E052EF3D80C
:10157C00DFE806F004030513040FEDE7EBE7DBB23D
:10158C00D554641C5B1CE4B2055DDBB2D5545B1C0A
:10159C00E2E7DBB2D5545B1CDEE7A41CDCE71846A3
:1015AC00C0B270BC704700002DE9FC4F85B00446FA
:1015BC000F460BE0DFF8B00B00214170FFB2E15D8C
:1015CC000172791CC9B2625C42724F1C38469DF89C
:1015DC001410C0B2884280F070813846471CC0B2EB
:1015EC00205C801E062800F26881DFE810F00700FE
:1015FC000800DF00EF00350146014D01DAE7072551
:10160C0001A800210A460B460EC0084601AA07E0B5
:10161C00DFF8B01901EB4001898D22F81010401C45
:10162C000628F5DBFFB2E0577F1C00F00F018DF8A8
:10163C000010C0F30316DFF8300B407C002813D1E8
:10164C00DFF8809999F901003146884205D199F962
:10165C0000009DF90010884206D01A46114603205E
:10166C00FFF720FFFF1CB1E7FFB2E05D791CC9B2A8
:10167C00625C40EA0229481CC0B2215C471CC1F3E1
:10168C00021A11F00F0801D14FF00108BAF1060F40
:10169C0032D1994601F0BFFA4FEA101A26E0DFF872
:1016AC00C40A0BEB090150F83100002813D001F0EB
:1016BC00B2FA01A931F81A20012300EB0B0C4FEA06
:1016CC00E00E00EB1E700011ACEB001003FA00F002
:1016DC00104321F81A000BF1010BBBF1080FDEDBF4
:1016EC0009F110090AF1010A5FFA8AFAB9F1080F37
:1016FC0030DA4FF0000BF0E7BAF1070F07D001F02A
:10170C008AFABAEB101F04D0B9F1000F1FD00625CE
:10171C0020E04FF0000B17E001F07DFA00EB0B011D
:10172C00C21000EB12700011A1EB001049460141F0
:10173C00C80707D5DFF82C0A50F83B00002801D168
:10174C0005F0FE050BF1010BBBF1080FE4DB01A862
:10175C0020F81A9001A93046FFF713FE002801D19A
:10176C0005F0FD05082200219DF90000FFF75DFE44
:10177C00002801D105F0FB0505F0070007280FD163
:10178C00DFF8409889F801609DF8000089F80000A6
:10179C000C2201A909F12C00FEF76DFC89F82080C0
:1017AC00002229460320FFF77DFE0FE7FFB2E15D23
:1017BC00DFF8B40901767F1C012202FA01F10185E0
:1017CC00002211460420FFF76DFEFFE60725FFB24D
:1017DC00E15D0846000900F0070601F00F08781CCF
:1017EC00C0B2215C401CC0B2225C41EA0221401C08
:1017FC00C0B2225C41EA0241471C642000FB01FAA2
:10180C005046FFF76BFD002800D10625052200216C
:10181C004046FFF70AFE002801D105F0FD05032222
:10182C0000213046FFF701FE002801D105F0FB0531
:10183C0005F00700072809D1DFF8889709F1240083
:10184C0080F80480C0F800A089F8216000222946A5
:10185C000520FFF727FEB9E6FF21DFF80C09406FE2
:10186C00002804D00068020001D0804701469DF892
:10187C0018200620FFF716FEA8E67F1D0022114651
:10188C000720FFF70FFEA1E6FFB2E05D00F00F00AE
:10189C007F1C010000D10120DFF828974FF47A71EA
:1018AC004843C9F8100000F57A70C9F814000022FA
:1018BC0011460820FFF7F6FD88E607B0BDE8F08F6B
:1018CC001CB5DFF8A448647CE4018DF80440009357
:1018DC0013460A4601A900F055F9010009D1DFF8B9
:1018EC00740A00218180DFF8DC16896FC16000F07A
:1018FC0003F816BD4C2100202DE9FF41002000907B
:10190C00DFF86448207EFF2801D10A206FE0002810
:10191C0006D10020E06603E005F12800407C6870E9
:10192C00DFF8A0566846FFF7D3FB0028F4D02E1D35
:10193C00707F95F901100A1A01D5002100E0091AEF
:10194C00326849B201A800F038FE8B4F01A80EC8CE
:10195C000EC70C3F05F12808326898F900000146C3
:10196C0001A800F02AFE07F10C0001A9B1E80C1047
:10197C00A0E80C10207C002808D17069B968081800
:10198C00A067B06961460818E06713E0627D95F9BD
:10199C000110DFF8D8070078FFF7C2FC002801D14E
:1019AC00082024E0F068B9680818A06730697969E4
:1019BC000818E0670098002809D1DFF8B407617EA9
:1019CC0000EBC102D2E9000100F02DFA0FE0D8F8CB
:1019DC00580040F01000C8F8580005F1B804009900
:1019EC00204600F085FF204600F0C4FE002004B025
:1019FC00BDE8F08180B5DFF86809006800F084FF6D
:101A0C00DFF86019884201D2642002BDDFF8701A39
:101A1C00884202D24FF47A7002BD42F2107002BDBD
:101A2C00F8B5DFF8401701EBC0050C26DFF8384796
:101A3C00687970432044878D00214163207C002805
:101A4C0008D1FFF7D7FF01463A460F46974206D218
:101A5C00174604E0DFF82C0A0078002808D0D4F8E8
:101A6C00800069797143214407FB00F2101A486326
:101A7C00D4F88000E16E228D02FB0011081AE0669A
:101A8C00F1BD0021302290FBF2F202EB4203B0EBED
:101A9C00031225D0011100EBD1614911B0EB4111BA
:101AAC0001D101211CE0182190FBF1F101EB410265
:101ABC00B0EBC20101D1022112E0C11000EB117197
:101ACC000911B0EB011101D1032109E0811000EBE8
:101ADC005171C910B0EBC10001D1042100E0052106
:101AEC000846704770B5DFF8804600202074DFF898
:101AFC00D40400F1780100220A604A601146616644
:101B0C00E1750121A176E17611462177217601213B
:101B1C00218511466175A1750121E17300F1210147
:101B2C0090F90020082A07DA91F9173015461E465D
:101B3C00B54200DB1A4602700A7E427090F85920BA
:101B4C000A7000F15C01D1E9002300F12401C1E924
:101B5C0000230C2200F164012C30FEF78CFA0020DB
:101B6C0060822075206E002101E04162806A0028AD
:101B7C00FBD10820607670BDF8230020400D0300D7
:101B8C00E0F8D11D2DE9F04F85B00D4600210391F1
:101B9C001E461446DFF8D075F984B9740E99002BE3
:101BAC0000D10021DFF8C48588F80010DFF8D89840
:101BBC00017889F800100078400907D002284DD030
:101BCC00042849D0072800F01A812AE10120F88462
:101BDC000822B96D09F10100FEF758FAF88C0830AB
:101BEC00F8840822796D80B24844FEF74FFAF88CDD
:101BFC000830F884B98C80B209F80010401CF884C5
:101C0C00090A80B209F80010401CF88403ABFA6D85
:101C1C0000F0FF01484600F03EFFF88C039909F8EC
:101C2C000010401CF8840399090A80B209F80010CE
:101C3C00401CF8840399090C80B209F80010401C70
:101C4C00F8840399090E80B209F80010401CF8843E
:101C5C00002005B0BDE8F08F0120B874387C002856
:101C6C0001D10720F5E7DFF85CA30AF1010201219D
:101C7C002878C009FFF7E2FB297860F386112970F8
:101C8C00F87C002805D00020F874287840F020005B
:101C9C002870DAF8740089F80100010A89F802103A
:101CAC00010C89F80310000E89F80400287889F8D3
:101CBC000500DAF8780089F80600000A89F80700B0
:101CCC004FF0080B07F184000090BA7D0146787D37
:101CDC004044001DFEF7CFF9787DB97D0918797560
:101CEC00002E25D098F80000002821D0C9B2102968
:101CFC002ADA387D002827D0287800F0F00208185E
:101D0C0000F00F001043287089F8050000200B46E6
:101D1C00024692B29A4217D280B208EB00021279B4
:101D2C005FFA8BFB09F80B200BF1010B401CEFE762
:101D3C000846C0B2002807D0387D002804D088F8A7
:101D4C00001008F10406002400203875009AC9B26E
:101D5C0008F10400FFF7F6FBB875002801D001204C
:101D6C003875002E24D098F80010080020D05FFAA7
:101D7C008BFB09F80B400BF1010B5FFA8BFB09EBAA
:101D8C000B00DAF87430DAF87820002C029001920B
:101D9C0007D1002000900AF18402304600F000FECA
:101DAC0006E0002000900AF19402304600F0F8FDA5
:101DBC005FFA8BFB98F8000000EB0B01F98403A889
:101DCC000290DAF87800019000200090DAF8743074
:101DDC000AF1840289B2484600F0A2FDF88C09EBA6
:101DEC000001039A0A70039A120A4A70039A120CA1
:101DFC008A70039A120ECA70001DF88428E7002B13
:101E0C003FF426AF98F8002010003FF421AF19469C
:101E1C0009F10100FEF72FF998F80000401CF88436
:101E2C0016E7022015E72DE9F34389B0654C94F9C8
:101E3C00015032484657CC4F9DF8290000EB400129
:101E4C0007EB810090F92E1094F90000FFF7E6FAE9
:101E5C00804601207870DFF8FC9489F8010089F83D
:101E6C00025089F803800998C9F81000524D09985E
:101E7C00E9688847F98CC9B201206A6D904740F631
:101E8C00B83008900020079006900590012004902F
:101E9C00002003900820029001200190009600235E
:101EAC001A460FF2CC0010F908100120EE69B04769
:101EBC00F98CC9B201206A6A9047C7F88000C9F84A
:101ECC00080078604FF47A7104F1A40000F010FD62
:101EDC00387C002802D1787F401C7877F98CC9B205
:101EEC00DFF8A405AA6A9047D4F8800040F00100FE
:101EFC00C4F8800000200BB0BDE8F0834027000040
:101F0C002DE9F84304462F4D964E974F787E06EBFD
:101F1C00C000407900EB400107EB810090F92E10D6
:101F2C0095F90000FFF77AFA804605F1A4094FF401
:101F3C007A71484600F0DCFC484600F01BFC224657
:101F4C000FF22C0010F90810787E56F83000DFF8EC
:101F5C008437DB6B9847D5F8800040F00100C5F85A
:101F6C0080000020BDE8F283682700006027000095
:101F7C0011100E0C0A0705021400000038B50B46B0
:101F8C001146024649B218460B4BDB6B9847DFF8FB
:101F9C00484704F1A4054FF47A71284600F0A8FCD8
:101FAC00284600F0E7FBD4F8800040F00100C4F8AC
:101FBC008000002032BD0000B8AB000020072EE2EC
:101FCC00C16E8F00A82000202DE9F843002808D00E
:101FDC000268002A05D04268002A02D08268002AD2
:101FEC0001D10320BCE0604C20676167002084F8BD
:101FFC0020002073DFF8E08608F15809C9F82800A2
:10200C0060770120A0770020A073A066E066DFF85F
:10201C007414087008F1380528800A2068600620BE
:10202C00287240F6B830E8604FF47A7028614FF4AB
:10203C00FA60686141F28830A86141F27070E86121
:10204C00012089F80000002089F801000FF2DC6201
:10205C00D2E9000108F15C02C2E900014FF6FF7001
:10206C00A9F80C00A9F80E00A9F81000A9F81200A4
:10207C00A9F81400A9F8160000261AE0394800EB5C
:10208C00C60700F0C8FD801900F0D6FD0022DFF86D
:10209C004C3600F0E9FD4FF0C042DFF8443600F05A
:1020AC00B5FE00F03DFF386050203871002078718B
:1020BC00761C082EE2DB08F1040069680160297ABD
:1020CC000171E96881602969C16069690161A96967
:1020DC004161E969816199F800100177FFF702FD10
:1020EC0008F1A405DFF8FC15284600F03BFB4FF483
:1020FC007A71284600F0FCFBDFF8EC1508F1B8000B
:10210C0000F030FBDFF8E41504F1940000F02AFB3A
:10211C00DFF8DC1504F1A80000F024FBDFF8D4157F
:10212C0008F1CC0000F01EFBDFF8CC05A063DFF853
:10213C00CC052064DFF8C805A064DFF8C805E063AF
:10214C00DFF8C4056064DFF88C5504F138002968A9
:10215C00884701206073A96D8847E86A8047002092
:10216C00BDE8F283B4230020FC0700208822002065
:10217C00B4230020F8B507460024002F01D103201A
:10218C00F2BDDFF8545505F1380696F84800C00743
:10219C0001D50120F2BD38781C2800F2D780DFE889
:1021AC0000F00F22272C2F323D4851D5565D6F641D
:1021BC007A84878A8D9093A0BAADC7CAD5CDD10049
:1021CC003879DFF848150873002802D0022805D0AA
:1021DC00BDE0DFF80005C06A8047B8E0204688748F
:1021EC00FEF73EFFB3E03879DFF820150874AEE057
:1021FC003879DFF818154874A9E07868B063A6E060
:10220C007868F063A3E07968002905D0102205F105
:10221C008400FDF730FF9AE0032498E079680029E8
:10222C0005D0102205F19400FDF725FF8FE0032463
:10223C008DE03879DFF8D4144873DFF89814896D81
:10224C00884784E03879DFF8C41488737FE0D7E9D5
:10225C00010105F12402C2E9000178E0D7E901018E
:10226C0005F15C02C2E9000171E07968002905D032
:10227C000C2205F16400FDF7FEFE68E0032466E025
:10228C007968002905D00C2205F12C00FDF7F3FE2E
:10229C005DE003245BE03879010004D0102802DAF9
:1022AC0085F8200053E0032451E07868E8604EE0A4
:1022BC00786828614BE07868686148E07868A861C4
:1022CC0045E07868E86142E00522214697F9040070
:1022DC00FFF7ABF8002802D03879707037E0032490
:1022EC0035E00522214697F90400FFF79EF80028F7
:1022FC0002D0387968702AE0032428E008222146AD
:10230C0097F90400FFF791F8002802D03879307063
:10231C001DE003241BE00822214697F90400FFF777
:10232C0084F8002802D03879287010E003240EE0DD
:10233C00786830640BE07868706408E078687060E6
:10234C00686004E038793072287200E0022420467C
:10235C00F2BD00009C23002003207047032070472F
:10236C00F423002080EE3600F8B505460226002D39
:10237C0028D0DFF8644394F88000C00714D4DFF849
:10238C008C730C2200213846FDF78DFE01207870ED
:10239C0028780146032967D8DFE801F0023E4D5941
:1023AC0094F88000C00601D50120F2BD68680028B1
:1023BC0008D0A868002805D0E868002802D0287C3E
:1023CC00010001D10320F2BD302801DA302028743D
:1023DC0097F8200040F0080087F820002878387023
:1023EC0068687865A868B865E868F865287CB87787
:1023FC00002078778DF80000FFF774FB787F401C85
:10240C0080B2FFF73EFB607000231A461146684607
:10241C00FFF756FA064627E097F8200040F0080030
:10242C0087F8200028783870002211463046FFF7D4
:10243C0039F8064618E0387097F8200040F008008C
:10244C0087F82000A888FFF75BFD06460CE0387083
:10245C0097F8200040F0080087F820002A7BA96834
:10246C00A888FFF78BFD0646300007D00020B87413
:10247C0097F8200000F0F70087F820003046F2BDF6
:10248C00803F5C0253270020882100202DE9FE4F5D
:10249C00044602254FF00008C146002C00F0858050
:1024AC008D4E96F8800010F0110F01D0012082E0C3
:1024BC0040468DF80000964F142201463846FDF731
:1024CC00F2FD012078702078002804D0012819D062
:1024DC00032833D044E04FF0010948468B498876F5
:1024EC009DF8000000F01F0040F040008DF8000047
:1024FC0094F80480A0680290A089ADF8040094F9C7
:10250C000EA02DE04FF00109DFF800B248468BF821
:10251C001B00E07B8BF81A009DF8000000F01F00F8
:10252C0040F080008DF8000094F80480A0680290C0
:10253C00A089ADF8040094F90EA011E04FF0010948
:10254C004846724988769DF8000040F0E0008DF80E
:10255C000000606802902089ADF8040094F90AA08C
:10256C00B9F1000F26D0DFF8A4B19BF811000028B8
:10257C0009D105220021504640B2FEF756FF002833
:10258C0013D086F801A0BDF80430029A4146684683
:10259C00FFF796F905000AD1207838709BF82000D7
:1025AC0040F001008BF8200004E0032003E0002041
:1025BC008BF812002846BDE8FE8F2DE9FE4F8046B1
:1025CC00164668460022134614461CC08DF80010AF
:1025DC0049B20FF2681050F8217038464D4A9042BB
:1025EC0006D04D4A904207D018468DF8010006E0FF
:1025FC0001208DF8010002E002208DF8010001207D
:10260C000FF230125156884000F016FB04460D466E
:10261C00384600F01BFB02460B462046294600F0CC
:10262C0095FC00223D4B00F01FFB04460D462A484A
:10263C0090F808904FEA4900083800F0FDFA22465D
:10264C002B4600F011FB82468B46700000F0FEFA20
:10265C0052465B4600F0DAFB22462B4600F076FC35
:10266C0006460F4600F09EFD00F05AFC814506D24E
:10267C003046394600F096FD00F052FC8146CDF80C
:10268C0004900020264922462B4600F0EDFA06461F
:10269C000F46019800F0DAFA22462B4600F0E4FAD5
:1026AC000022204B00F0E0FA02460B463046394639
:1026BC0000F0A8FD00221C4B00F0A8FB00F072FDFE
:1026CC0000F018FC029068460EC8A8E80E00BDE8A1
:1026DC00F78F0000B8AB0000A8200020006A08416A
:1026EC003508BC411F0D0000B30F0000171000008F
:1026FC006D100000A5100000ED050000070700009C
:10270C00750C0000430C0000DF0C0000FC070020DF
:10271C009C23002090D0030020A1070000408F4094
:10272C00000010400000E03F000008C020441E1EC6
:10273C00000000000C0B0A090807000048E8010023
:10274C0048E8010048E8010048E8010048E80100B9
:10275C0048E8010033333373DEDE00003333337368
:10276C00DEDE00000022026042600272C16011468F
:10277C000161704738B5040026D000F0AAF8002893
:10278C0022D1606820600020207258480568002D16
:10279C0004D121682046BDE8344043E0287A002863
:1027AC0007D000F0ADF82968814200D20846091A1A
:1027BC0000E0296820688842204602D2BDE83440F7
:1027CC0030E0BDE8344000E031BD30B4474A126817
:1027DC001369002B06D10368591A0160106100219E
:1027EC0001611DE01C68641802E021461D682C196B
:1027FC00002A15D00568A54209D2691A0160002B80
:10280C0002D01C68611A19601061036108E01A4655
:10281C001B69002BE9D1291B0160106100210161AA
:10282C0030BC704718B4314A1368002B04D00468CC
:10283C00091B1960002119720361012101721060DA
:10284C0012BC63E070B50546284C26683046310052
:10285C003ED0002D3CD0AE4227D1307A002818D083
:10286C0000F04EF82968814200D208460A1A3069F5
:10287C0000280BD00020307230692060016851189C
:10288C00016001210172BDE870403FE00020206032
:10289C0070BD3069002805D0206001682A68511885
:1028AC00016070BD0020206070BD2A6801E0084600
:1028BC00194600290CD00B69A942F8D1002B05D080
:1028CC001946016108681018086070BD002101618B
:1028DC0070BD0649096800E00969002903D08142EE
:1028EC00FAD10120704700207047000054270020C7
:1028FC0038B504460D46FFF7A5FF2560656031BD70
:10290C0000207047002070470020704710B5044627
:10291C00206800F038FD2060BDE8104000F032BDAA
:10292C00F8B504460D461646A94F06987871BB714A
:10293C00180AF871180C3872180E78720798B87259
:10294C00010AF972010C3973000E7873FD7307F1EB
:10295C00200000F019FD314607F1200000F026FDA3
:10296C001022394607F1200000F026FD05F0FF0289
:10297C00214607F1200000F01FFD07F1200107F1AF
:10298C00100000F079FDF87CB97C090441EA006084
:10299C00797C40EA0120397C084308990860F1BD34
:1029AC002DE9F04704460D4692469946002601272C
:1029BC00DFF82082F022314608F12000FDF773FB8E
:1029CC0008F120021021504600F0B6FF089888F854
:1029DC00050088F806904FEA192088F807004FEA9E
:1029EC00194088F808004FEA196088F8090009981E
:1029FC0088F80A00010A88F80B10010C88F80C10F2
:102A0C00000E88F80D00DDF828900DE08119625C4D
:102A1C0008EB00031B7C5A4009F80120401C1028CD
:102A2C00F4DB103D1036F6B2ADB2AA46BAF1100F77
:102A3C000BDB88F80F707F1C08F1200208F11001E5
:102A4C00404600F0F6FF0020E9E7002D16D088F88C
:102A5C000F7008F1200208F11001404600F0E9FF68
:102A6C00002009E08119625C08EB00031B7C5A40D2
:102A7C0009F80120401C80B25045F3DBBDE8F0871B
:102A8C0010B584B0089C0294079C0194069C009499
:102A9C00FFF786FF1FBD2DE9F04106460F46904615
:102AAC001C464B4D05F1200000F06EFC414605F133
:102ABC00200000F07BFC07F0FF02314605F12000FE
:102ACC0000F07AFC05F1200105F1100000F0D4FCB7
:102ADC00E87CA97C090441EA0060697C40EA012099
:102AEC00297C08432060BDE8F0812DE9F0410446C3
:102AFC000D4616461F46DFF8DC80F022002108F157
:102B0C002000FDF7D0FA08F120021021304600F029
:102B1C0013FF08F120023946204600F08AFF102DE1
:102B2C0009DB08F1200207F1100104F11000BDE8E7
:102B3C00F04100F07EBFBDE8F0812DE9F04385B097
:102B4C0080460C4615461F46224EF022002106F107
:102B5C002000FDF7A8FA06F120021021404600F0F3
:102B6C00EBFE102200216846FDF79DFA01208DF83E
:102B7C000000062221460DF10100FDF77CFAE84623
:102B8C0088F8075028464FEA102988F8089006F173
:102B9C0020023946684600F04CFF1022002168469E
:102BAC00FDF781FA02208DF80000062221460DF176
:102BBC000100FDF760FA88F8075088F8089006F1D4
:102BCC0020020C99684600F034FF05B0BDE8F08394
:102BDC00B8080020F009002010B586B002A80FF24A
:102BEC004001102201F0E0F868460FF24401D1E9EF
:102BFC000023C0E90023094C5020207708226946A5
:102C0C00204601F0D1F8102202A904F1080001F0CD
:102C1C00CBF806B010BD0148007F7047C41E0020E1
:102C2C0000112233445566778899AABBCCDDEEFFA0
:102C3C000011223344556677010040F10980F446B7
:102C4C00404200F005F851F000416047010000BF20
:102C5C0009D0B0FA80F18840C91CC1F5846109051E
:102C6C0001EBD02140057047B0B581EA030C0CF0A4
:102C7C00004C40F2FF7515EA11541DBF15EA1357AD
:102C8C00AC42AF4239E0E41923EA455343F48013D4
:102C9C00C90241F0004141EA505EC7021100A7FB96
:102CAC00020200284FF00000EEFB01204FF0000163
:102CBC00E3FB072118BF42F00102401800214941F3
:102CCC00E3FB0E01A4F580640F0302D252004041D5
:102CDC00494154F101046CDD470872F1004250F196
:102CEC00000051EB0451A1F580115CBF41EA0C01CD
:102CFC00B0BD4CEA05510020B0BD05EA1357AC42FB
:102D0C0014BFAF4241E050EA410E1CBF52EA430EE1
:102D1C0002E061460020B0BD24423C441BD15FEA76
:102D2C00070EF6D0090302BF01460020AEF1140EC7
:102D3C00B1FA81F7AEEB070401FA07FE0C37C7F1C5
:102D4C00200100FA07F7C8404EEA000E23EA45536B
:102D5C0043F48013A2E733F00043B3FA83F704BFC4
:102D6C00B2FA82FE77440B3FE41BB7F1200E2FBF63
:102D7C0002FA0EF3BB40C7F1200E22FA0EFE38BF4A
:102D8C0043EA0E03BA40641C82E750EA410E14BFBA
:102D9C0052EA430E6FF000014FF4001717EB430F8C
:102DAC008ABF194617EB410FB5E74CEA05510020D5
:102DBC00B0BDD4F10104B4F120070FDAC4F120073F
:102DCC00520828BF42F0010210FA07F501FA07F782
:102DDC00E1BF2A43E0403843E1400FE0352C98DC5A
:102DEC00C7F1200452EA400220FA07F218BF42F061
:102DFC00010231FA07F0A1400A43002172F10042AE
:102E0C0050F1000051EB0C01B0BD0000F0B44FF0DC
:102E1C00004591EA030C44BF6B4000F0FDB900BFC4
:102E2C00841A71EB030603D2001BB14112197341D2
:102E3C004FF4001C1CEB410F34BF7CEB430443E00C
:102E4C000C0DA4EB1356352E50DC45EAC323DB0ADC
:102E5C0045EAC121C912B6F120050DDD63FA05F66C
:102E6C00EB4086EA0305124218BF45F00105C01875
:102E7C0051F100010CD213E062FA06F5F240554014
:102E8C00F3415A40B340F3405A408018594107D39C
:102E9C0049085FEA30005FEA350528BF45F00105B7
:102EAC0001F58011420875F1004250F1000041EB30
:102EBC000451F0BC4FF4001C1CEB410F38BF7047A1
:102ECC000020090D090570471CEB410F10D252EA86
:102EDC0043060BD0BCEB410F05D80C0DAB43661E63
:102EEC00342EB5DD02E0AB4380185941F0BC70477D
:102EFC00F0BC7047F446400D40EAC120490006D2B0
:102F0C0000F014F8004248BF6FF00040604700F03A
:102F1C000DF84FF0004188428CBF08464042604794
:102F2C00400D40EAC120490080F00D8040F0004087
:102F3C00490DA1F58061491C05D4D1F11F0154BF85
:102F4C00C840C01770474FF0000070472DE9F041A2
:102F5C0040F2FF7581EA030C0CF0004C15EA115499
:102F6C001DBF15EA1357AC42AF42E9E0BC41C1F3B7
:102F7C001301C3F31303801A994143F4801304D251
:102F8C00641E4000494180185941C90241EA505120
:102F9C00B1FBF3F603FB1611A2FB0675D7EBC020B1
:102FAC00A94102D2761E80185941C90241EA5051FA
:102FBC00B1FBF3FE03FB1E11A2FB0E75D7EBC02079
:102FCC00A94103D2AEF1010E80185941890241EAA0
:102FDC009051760546EA8E2EB1FBF3F603FB1611E3
:102FEC00A2FB0675D7EB8020A94102D2761E801871
:102FFC005941C90241EA50514EEA060EB1FBF3F6B3
:10300C0003FB1611A2FB0675D7EBC020A94102D217
:10301C00761E80185941C90241EA5051B1FBF3F7B1
:10302C0003FB1711A2FB0735D3EBC020A94167F1B5
:10303C0000070CBF004247F0010766F3D5274FEAA3
:10304C001E31B80814F5806414DDBD0775F100421B
:10305C0050EB0E5051EB045111F5801F5CBF41EA4F
:10306C000C01BDE8F0814CF07F6141F0E0410020A3
:10307C00BDE8F081BD076D0840EA0E5041F48011A7
:10308C00D4F10104B4F120060ADAC4F120060200DE
:10309C00E04001FA06F3E1401843B24015430EE05C
:1030AC00342C14DCC6F1200445EA40056D0820FAE6
:1030BC0006F2154321FA06F0A1400D43002175F1EB
:1030CC00004250F1000051EB0C01BDE8F0810020F2
:1030DC005FEA0C01BDE8F081CFB992185B41B3FAFD
:1030EC0083F704BFB2FA82F6BF190B3FB7F1200683
:1030FC002FBF02FA06F3BB40C7F1200622FA06F6F0
:10310C0038BF3343BA401CB1E419641E2FE77F4229
:10311C0031F00041B1FA81F404BFB0FA80F6A41981
:10312C000B3CB4F120062FBF00FA06F1A140C4F10C
:10313C00200620FA06F638BF3143A0403C1B16E7A8
:10314C00AC421ABF05EA1357AF4214E050EA4106ED
:10315C001CBF52EA4306BFE750EA410730466146BE
:10316C001CBF41EA0551BDE8F08152EA430C08BF8F
:10317C00C143BDE8F08100204FF4001616EB410F5F
:10318C0098BF16EB430F08BF16EB410F24BFC1438A
:10319C0005E016EB430F0CBF61464CEA0551BDE848
:1031AC00F081004040F2FF7C1CEA115240F2FE33E9
:1031BC00D21ACCBFD2F1350316E0B2F1150309DAFD
:1031CC006FEA4C53D340094201D4401E59410020B0
:1031DC00994370476FF00002DA40094202D480181C
:1031EC0051F1000190437047352A09DA50EA410346
:1031FC001CBF40F2FF31090528BF4FF000410020F1
:10320C0070470000F0B44FF0004591EA030F44BF43
:10321C006B40FFF705BE00BF841A71EB030604D2A6
:10322C006E40001BB141121973414FF4001C1CEB92
:10323C00410F34BF7CEB430684E00C0DA4EB13561A
:10324C00362E7DDC012E43DC45EAC32343EA525380
:10325C0012BFD20292025B08240545EAC12141EA61
:10326C005051D2EBC020994125D407D1B0FA80F649
:10327C0010FA06F164D00020203608E0B1FA81F68D
:10328C00B140C6F1200220FA02F21143B0404FEADD
:10329C00F474B4EB465434F001064FEA74040AD8C3
:1032AC00D6F50016760D04F00044F04061FA06F2F3
:1032BC005040F1404840C00A40EA415021F00041E2
:1032CC0028BF5FEA500550F1000044EBD12137E0F4
:1032DC0045EAC323DB0A45EAC121C90AB6F1200538
:1032EC000EDD42EA0242120CC5F1200603FA06F684
:1032FC00EB4042EA06056D42984161F100010DE098
:10330C0062FA06F5F240554063FA06FC82EA0C02BA
:10331C00F3405A406D42904161EB030111F4801F60
:10332C0005D1641E620502D06D004041494121F473
:10333C008011430875F1004350F1000041EB04513A
:10334C00F0BC70471CEB410F15D223F0004352EA3E
:10335C0043060BD04FEA4C0CBCEB410F04D80C0DC0
:10336C00661E342EB7DDEBE7801A994150EA410610
:10337C0008BF0021E4E708BF1CEB430F28BF6FF028
:10338C000001DDE77047704710B50446102200219C
:10339C0004F1F100FCF787FE0020C4F81401F022C0
:1033AC0001462046BDE81040FCF77DBE0B460246A8
:1033BC001021184600F0C0BA2DE9FF4104460D4615
:1033CC001646D4F81401002847D0C0F11007B742B4
:1033DC0000D937463A4692B2204400F20110FCF76D
:1033EC004AFED4F814013818C4F81401102841D33B
:1033FC00BE423FD0002006E02118F1310A780B7C48
:10340C005A400A70401C1028F6DB04F1F1082246E1
:10341C004146404600F00DFB3D44F61B1DE02118D3
:10342C0091F8F1102A5C5140221882F8F110401CDE
:10343C001028F4DB04F1F108102241466846FCF731
:10344C001AFE22466946684600F0F3FA10226946D5
:10345C004046FCF710FE1035103E112E01D3002013
:10346C00E6E7324692B2294604F20110FCF703FE5D
:10347C00C4F81461BDE8FF8130B589B004460D462F
:10348C00102200216846FCF70EFE2A466946684663
:10349C0000F0CFFA68469DF80010090612D50021FD
:1034AC0008E0425C6B460B445B78DB0943EA420262
:1034BC004254491C0F29F4DBC17B490081F0870180
:1034CC00C1730FE0002108E0425C6B460B445B7853
:1034DC00DB0943EA42024254491C0F29F4DBC17B4D
:1034EC004900C173D5F8141110290CD100211029F1
:1034FC004FDA6A1892F80121435C5A406B1883F832
:10350C000121491CF3E79DF80010090612D5002192
:10351C0008E0425C6B460B445B78DB0943EA4202F1
:10352C004254491C0F29F4DBC17B490081F087010F
:10353C00C1730FE0002108E0425C6B460B445B78E2
:10354C00DB0943EA42024254491C0F29F4DBC17BDC
:10355C004900C1738021D5F814212A4482F8011145
:10356C00002202E0294481F80121D5F81411491CEC
:10357C00C5F814111029F5D3114608E06A1892F811
:10358C000121435C5A406B1883F80121491C102916
:10359C00F4DB002006E02918F1310A780B7C5A4044
:1035AC000A70401C1028F6DB102205F1F10104A86A
:1035BC00FCF761FD2A46214604A800F03AFA1022D5
:1035CC0000216846FCF76FFD09B030BD0A78027027
:1035DC004A7842708A788270CA78C2700A7902710D
:1035EC004A7942718A798271CA79C2710A7A0272F5
:1035FC004A7A42728A7A8272CA7AC2720A7B0273DD
:10360C004A7B42738A7B8273C97BC173704703E028
:10361C0011F8013B00F8013B13465A1EDBB2002B9C
:10362C00F6D1704702780B785A40027042784B788A
:10363C005A40427082788B785A408270C278CB782C
:10364C005A40C27002790B795A40027142794B7917
:10365C005A40427182798B795A408271C279CB7906
:10366C005A40C271027A0B7A5A400272427A4B7AF1
:10367C005A404272827A8B7A5A408272C27ACB7AE0
:10368C005A40C272027B0B7B5A400273427B4B7BCB
:10369C005A404273827B8B7B5A408273C27BC97BBC
:1036AC005140C173704710B40B78147863400370A9
:1036BC004B785478634043708B7894786340837074
:1036CC00CB78D4786340C3700B7914796340037161
:1036DC004B795479634043718B799479634083714E
:1036EC00CB79D4796340C3710B7A147A634003723B
:1036FC004B7A547A634043728B7A947A6340837228
:10370C00CB7AD47A6340C3720B7B147B6340037314
:10371C004B7B547B634043738B7B947B6340837301
:10372C00C97BD27B5140C17310BC70477AE70FF252
:10373C00583102788A5C027002798A5C0271027AD2
:10374C008A5C0272027B8A5C027342784379CB5C9E
:10375C004370437ACB5C4371437BCB5C43728A5C92
:10376C0042738278837ACB5C83708A5C82728279B2
:10377C00837BCB5C83718A5C8273C27BC37ACB5CA8
:10378C00C373C379CB5CC372C378CB5CC371895CE4
:10379C00C17070477FB5044621466846FFF716FF97
:1037AC000FF2E4200FF2E0410FF2DC326B469DF891
:1037BC000050555D5E798E5D75409E7A865D7540D4
:1037CC00DE7B865D754025709DF80050455D5E7909
:1037DC00965D75409E7A8E5D7540DE7B865D75408C
:1037EC0065709DF80050455D5E79865D75409E7AEA
:1037FC00965D7540DE7B8E5D7540A5709DF8005022
:10380C004D5D5E79865D75409E7A865D7540DE7B8A
:10381C00965D7540E5701D79555D5E7A8E5D7540DF
:10382C009E7B865D7540DE78865D754025711D79C1
:10383C00455D5E7A965D75409E7B8E5D7540DE784B
:10384C00865D754065711D79455D5E7A865D754056
:10385C009E7B965D7540DE788E5D7540A5711D79F9
:10386C004D5D5E7A865D75409E7B865D7540DE782B
:10387C00965D7540E5711D7A555D5E7B8E5D75407C
:10388C009E78865D7540DE79865D754025721D7A61
:10389C00455D5E7B965D75409E788E5D7540DE79EC
:1038AC00865D754065721D7A455D5E7B865D7540F3
:1038BC009E78965D7540DE798E5D7540A5721D7A99
:1038CC004D5D5E7B865D75409E78865D7540DE79CC
:1038DC00965D7540E5721D7B555D5E788E5D75401D
:1038EC009E79865D7540DE7A865D754025731D7BFD
:1038FC00455D5E78965D75409E798E5D7540DE7A8D
:10390C00865D754065731D7B455D5E78865D754093
:10391C009E79965D7540DE7A8E5D7540A5731D7B34
:10392C00495D5D78455D69409D79405D4840D97A37
:10393C00515C4840E0737FBD2DE9F8430D461646B7
:10394C002C46102903D0182901D020290ED12A4643
:10395C0001463046FFF75BFE05F11C008000C0B24B
:10396C000111491E86F8F010012134E0002086F880
:10397C00F000FF205BE0B8F1190F0CDBB9F1100F70
:10398C0009D10FF2041818F80EE018F8022018F8F4
:10399C00033018F80770A4EB05095FFA89F906EBF8
:1039AC00090898F800908EEA090E06F804E00CF16C
:1039BC00010C98F801E082EA0E028CF8002098F8CD
:1039CC0002205A408CF8012098F803207A408CF899
:1039DC000220241DE4B2844228DA06EB040CACF17C
:1039EC00040797F800E07A78BB78FF78A84694FB38
:1039FC00F8F908FB1949B9F1000FBCD1F1460FF2E7
:103A0C00880818F8022081EA020E18F8032018F82A
:103A1C00073018F8097088464FEAD8184FF01B0980
:103A2C0009FB08F888EA4101C9B2B4E70020BDE8F7
:103A3C00F283F0B585B00C46154695F8F0100029C8
:103A4C001ED001466846FFF72EFE012606E0FFF762
:103A5C00A1FE39466846FFF769FE761CF6B215EBF7
:103A6C000617304695F8F01088426846EFD3FFF7FA
:103A7C005EFE3A4669462046FFF715FE002000E040
:103A8C00FF2005B0F0BD0000637C777BF26B6FC547
:103A9C003001672BFED7AB76CA82C97DFA5947F045
:103AAC00ADD4A2AF9CA472C0B7FD9326363FF7CC21
:103ABC0034A5E5F171D8311504C723C31896059ABE
:103ACC00071280E2EB27B27509832C1A1B6E5AA0E1
:103ADC00523BD6B329E32F8453D100ED20FCB15BCC
:103AEC006ACBBE394A4C58CFD0EFAAFB434D338535
:103AFC0045F9027F503C9FA851A3408F929D38F509
:103B0C00BCB6DA2110FFF3D2CD0C13EC5F9744173F
:103B1C00C4A77E3D645D197360814FDC222A9088B6
:103B2C0046EEB814DE5E0BDBE0323A0A4906245C42
:103B3C00C2D3AC629195E479E7C8376D8DD54EA9A7
:103B4C006C56F4EA657AAE08BA78252E1CA6B4C673
:103B5C00E8DD741F4BBD8B8A703EB5664803F60ECC
:103B6C00613557B986C11D9EE1F8981169D98E94BB
:103B7C009B1E87E9CE5528DF8CA1890DBFE64268D4
:103B8C0041992D0FB054BB16C6F8EEF6FFD6DE9158
:103B9C006002CE56E7B54DEC8F1F89FAEFB28EFB63
:103BAC0041B35F452353E49B75E13D4C6C7EF5833B
:103BBC006851D1F9E2AB622A0895469D30370A2F3D
:103BCC000E241BDFCD4E7FEA121D583436DCB45B5D
:103BDC00A476B77D52DD5E13A6B900C140E379B679
:103BEC00D48D67729498B085BBC54FED869A6611DB
:103BFC008AE904FEA078254BA25D80053F2170F177
:103C0C006377AF4220E5FDBF811826C3BE35882EF1
:103C1C009355FC7AC8BA32E6C0199EA344543B0BA8
:103C2C008CC76B28A7BC16ADDB647414920C48B817
:103C3C009FBD43C43931D3F2D58B6EDA01B19C49A7
:103C4C00D8ACF3CFCAF447106FF04A5C385773976F
:103C5C00CBA1E83E96610D0FE07C71CC9006F71C71
:103C6C00C26AAE6917993A27D9EB2B22D2A907332E
:103C7C002D3C15C987AA50A50359091A65D784D0BC
:103C8C0082295A1E7BA86D2CA584998D0DBDB1542B
:103C9C005003A97D1962E69A459D408715EBC90B27
:103CAC00EC67FDEABFF7965BC21CAE6A5A41024F45
:103CBC005CF434089373533F0C52655E28A10FB526
:103CCC0009369B3D2669CD9F1B9E742E2DB2EEFBB3
:103CDC00F64D61CE7B3E7197F568002C601FC8EDE8
:103CEC00BE46D94BDED4E84A6B2AE516C5D75594A7
:103CFC00CF100681F044BAE3F3FEC08AADBC480491
:103D0C00DFC17563301A0E6D4C14352FE1A2CC391E
:103D1C0057F28247ACE72B95A098D17F667EAB8398
:103D2C00CA29D33C79E21D763B564E1EDB0A6CE465
:103D3C005D6EEFA6A8A4378B324359B78C64D2E0E2
:103D4C00B4FA0725AF8EE918D5886F7224F1C751E4
:103D5C00237C9C21DDDC86859042C4AAD805011207
:103D6C00A35FF9D0915827B93813B333BB7089A727
:103D7C00B622922049FF787A8FF88017DA31C6B8CC
:103D8C00C3B07711CBFCD63A62B38B0708D0521E66
:103D9C0011F8013B00F8013B00F024808B07F6D1B1
:103DAC00830740F0208000BF103A07D330B4B1E84D
:103DBC003810103AA0E83810F9D230BC530724BFA1
:103DCC00B1E80810A0E8081044BF51F8043B40F8D3
:103DDC00043BD20724BF31F8022B20F8022B44BF3E
:103DEC000B7803707047083A07D3B1E80810083A0B
:103DFC0040F8043B40F804CBF7D25307E4E700004B
:103E0C00DFF800F0C1C10110DFF800F009B70110B4
:103E1C00DFF800F0CDA00110DFF800F041AC01108C
:103E2C00DFF800F085C10110DFF800F049C1011086
:103E3C00DFF800F019C20110DFF800F0C1C2011068
:103E4C00DFF800F0E3BF0110DFF800F0CDC1011086
:103E5C00DFF800F03DC10110DFF800F0DDB2011019
:103E6C00DFF800F085B00110DFF800F029AF011089
:103E7C00DFF800F079B50110DFF800F0D5C00110C3
:103E8C00DFF800F0E1B50110002804D00823282247
:103E9C000021FFF7D9BF70477047002804D00823D2
:103EAC0024220021FFF7BCBF70477047002804D0C4
:103EBC00082324220021FFF7A3BF70477047002876
:103ECC0004D0082330220021FFF7C2BF704770478F
:103EDC0040F2FF70DFF8741C086070470020DFF8B8
:103EEC006C1C086070470068704738B50446FFF7D3
:103EFC009BFF2568002D01D029682160FFF798FFF2
:103F0C00284632BD70B504460D4626680020286050
:103F1C00002E03D1FFF788FF25600DE0FFF784FF2B
:103F2C0000E0366831680029FBD1AE4203D1FFF7BF
:103F3C007FFF002070BD3560FFF77AFF012070BD58
:103F4C00002100E0491CC9B20846082807DADFF84E
:103F5C00002C02EB4010C27F1206F3D470470020F5
:103F6C00704710B40022044601E0521CD2B2082A59
:103F7C000CDADFF8DC1B01EB4211CB7F1B06F4D50E
:103F8C00B1F91C30A342F0D1084600E0002010BC6F
:103F9C007047F8B50546FFF747FF0446DFF8580BA6
:103FAC00C17D0A0029D0491EC175C9B2002924D18E
:103FBC00DFF8487B07F15400FFF76EFF082101F092
:103FCC0086F9002D19D0B86B7030FFF76EFF01F039
:103FDC0054F907F1F4063046FFF767FFB96BC9686F
:103FEC00691ADFF8702B1268B1FBF2F1FFF724FFAE
:103FFC003046FFF75AFFFFF723FF2046BDE8F2409B
:10400C00FFF716BF38B50446207B00F00F000228DE
:10401C001BD1DFF8E85A95F82000002815D100F0E4
:10402C006FFDA1688908A1EB90006FF07041884288
:10403C000BDAB0F1704F02DADFF8C81C0818A96B64
:10404C00C96801F57A71814200DB002032BD18B4D9
:10405C002022816801E04968521E002912D01346C3
:10406C00DBB2002B0ED00B8840F60304A34203D026
:10407C0040F60404A342EED11822C068203018BCCC
:10408C00FFF792BE11BC704710B5DFF8CC0A01687F
:10409C00DFF8C82A02EA0104E1430160A1060AD54F
:1040AC004068800607D5DFF8B80AFFF7F5FE4FF435
:1040BC00005101F00CF914F4602F0ED0DFF83C0A1B
:1040CC00816904F4602211438161A430FFF7E4FE9E
:1040DC000021BDE8104001F0FAB810BD70B5FFF733
:1040EC00A3FE0646DFF8144AA06910F4602F2AD00C
:1040FC00A069450CEDB22846C00701D5002508E0A3
:10410C002846800701D5012503E02846400700D545
:10411C000225681D40B200F0E3FFA069012105F102
:10412C00110291408843A0613046FFF781FE04EBF9
:10413C0085008668300009D000224FF00063691DAD
:10414C006068B04702E03046FFF772FEA0690028B5
:10415C0006D004F1A400FFF79FFE002101F0B7F890
:10416C00E07F80070DD56569280006D000224FF04E
:10417C0000436FF001016068A847E07F00F0FD008C
:10418C00E07770BD70B501F06DFC0546DFF86C4949
:10419C00A80726D5A36A002B23D00020A0629A6919
:1041AC00D3E90401284040F0020010439861DFF885
:1041BC00182C5669D3E9040126EA00005061D66830
:1041CC00D3E9040126EA0100D060194604F130005D
:1041DC00FFF798FE04F15400FFF75EFE022101F098
:1041EC0076F8A66AA80712D4D6E9040105420ED0C7
:1041FC00E662B269D6E9040128401043B06104F1CB
:10420C005400FFF749FE4FF4804101F060F8A06ABA
:10421C00002836D104F12400FFF765FE060030D0EB
:10422C00F068A16B884209D004F15400FFF734FE0A
:10423C004FF48051BDE8704001F049B8B068FFF709
:10424C00E1FE2065002803D0206DBDE87040A0E69B
:10425C00DFF8742B5369D6E9040118435061D36815
:10426C00D6E9040141EA0300D0600020D061B068B7
:10427C001060D0690028FCD004F12400FFF735FE53
:10428C00A66270BD002084E6F8B5064614461D46AD
:10429C00376E002F00D0B8472046800709D4D6E9E6
:1042AC0016012040294000221346994201D1904228
:1042BC0009D0C6E91A4506F13800FFF7FFFDBDE845
:1042CC00F240FFF7A9BDF1BDFEE7DFF83028D26B55
:1042DC001047DFF82818C863704780B500F0E7FF77
:1042EC000146DFF81808806BBDE80440EDE710B517
:1042FC00DFF80848E06B0FF29901884202D101F017
:10430C000DFC206404F15400FFF7C6FD0421BDE848
:10431C00104000F0DCBF80B501F0A4FBDFF8AC1A54
:10432C00084209D0DFF83808FFF7B6FD4FF000510E
:10433C00BDE8044000F0CBBF01BD10B5DFF8BC47B1
:10434C00A06B40684068010000D08047A06B4168BA
:10435C008A68002A02D1C968002917D0DFF8701AC0
:10436C000A68002AFAD000220A60406880680100BE
:10437C0000D08047A06B4068C068010000D0804727
:10438C00DFF8340CBDE8104001F074BB10BD000028
:10439C0038B5042956D1DFF8644704F12400FFF73F
:1043AC00A2FD002802D0C068A06304E0E07FC00733
:1043BC0001D56068A063A06BDFF8181A4268127808
:1043CC000A60096842681278914208D08569002D0C
:1043DC0005D000224FF000736FF0FF01A8470220B8
:1043EC0001F0E0FC112001F0F2FCDFF80C070121D8
:1043FC00C176A16B097C407E014202D10E2001F0F6
:10440C00E6FCA06B40688168002902D1C0680028D6
:10441C0006D0DFF8B4090021C161DFF8BC190160D6
:10442C00FFF756FDDFF8A00900218161DFF89C1928
:10443C0041610FF21500FFF74CFF1920BDE8324027
:10444C00FFF70ABD31BD00002DE9FF41044688008D
:10445C0040F185800020FFF770FFDFF86C590020D9
:10446C00E861DFF8580B2860012001F04BFB0FF2DC
:10447C004910FFF72EFF40F60A00DFF87C6630800B
:10448C0000217180317B01F0F001317300217160EA
:10449C00717B01F0F00141F00101717304F1080727
:1044AC00D7F800800021A8F8021000E08846D8F860
:1044BC000410002902D00A888242F7D1C8F804609F
:1044CC0098F80D0000F0F00088F80D00DFF8F40B00
:1044DC00FFF709FD8068008840F6030188421CD074
:1044EC0040F60401884218D0388B002815D00020E3
:1044FC007883F86104F12C00017801F0F00101706F
:10450C00417801F0F00141F00101417004F120000B
:10451C007060707B00F0F00070736946386801F0D1
:10452C00D1FA684601F0DDFA386801F0D9FAE86989
:10453C000028FCD00020E861012001F007FF0128D1
:10454C000BD098F80D0000F0F00040F0010088F856
:10455C000D000FF21100FFF7BCFE38682860BDE8B3
:10456C00FF810000DFF8040B014200D1704710B549
:10457C00012001F0EBFE012809D10FF23D00FFF7FD
:10458C00A8FEDFF87405DFF84018086010BDDFF8EE
:10459C00384B2046FFF789FC3221DFF8B82512682A
:1045AC00B1FBF2F1FFF748FC2046FFF77EFCBDE8BB
:1045BC001040FFF745BC00002DE9F04184B00646E1
:1045CC000C46DFF8385560041FD5FFF72DFC8046EC
:1045DC0005F12C00FFF787FC0646B7694046FFF74C
:1045EC0027FCB8070ED4002E0CD0B069B843B061CC
:1045FC007068002806D03A460023B6F91C10F06803
:10460C007668B04724F4804477E1A0077AD505F1A9
:10461C003000FFF768FC060068D0FFF718FDB069A2
:10462C000021B161716800291CD040F00202002306
:10463C00F07F00F00700012804D0022806D00428DF
:10464C0008D00AE01A464FF0005306E01A464FF025
:10465C00804302E01A464FF08053B6F91C10F06804
:10466C007768B847FFF7E0FB0746E88E401CC0F3BD
:10467C000B00E886286BC17F01F07F01C17705F143
:10468C003000FFF732FC3846FFF7D2FBB5F93600A5
:10469C00F16801F19402B2F90030984226D195F8F4
:1046AC002000002822D19078002802D10868002828
:1046BC0004D100209070FFF76CFC17E0A86B006829
:1046CC0010F1010F12D001F17000FFF7EEFBF16851
:1046DC000968DFF880241268B1FBF2F1FFF7ACFB3C
:1046EC00F0687030FFF7E1FBFFF7AAFB24F002043F
:1046FC0005F13000FFF7F7FB002800F0FE8044F0D6
:10470C000204FAE0A00069D5286C002820D004200F
:10471C0001F01CFE00281BD001F000FA6864286C24
:10472C00696C884203D2081A000BF06003E0491E42
:10473C00081A000BF060F06800F58D70F060A0F2C4
:10474C00EE2040F2D761884202D340F6C410F060EC
:10475C0000202864D6F818C0DFF89C73BCF1000F59
:10476C000FD0787B0F2108420BD1708C40F60901D9
:10477C00884206D100224FF000736FF480713046EE
:10478C00E04705F18800FFF7A2FB0022DFF89C1937
:10479C0000F0B0FDB87E00280AD00220ADF8000071
:1047AC00684601F067F9BDF80800A8830020B876C8
:1047BC0001203875F87D401CF8750020F87619201A
:1047CC0000F09BFD7769002F05D000224FF080632D
:1047DC0011463046B84724F000548EE0DFF81873C9
:1047EC00B87F002806D0200704D50020B87724F025
:1047FC00080482E020076CD500203875012038773A
:10480C00002001F07FF90FF20910FFF762FD05F1AE
:10481C008800FFF75CFB0022DFF8141900F06AFD3A
:10482C00787EB97E81F00101084216D1012078769C
:10483C0040F609003880787B00F0F00040F0010071
:10484C00787300207880387B00F0F00038730020FB
:10485C007860DFF87405076038E0286D00282DD0EB
:10486C0001F05CF9A864296C401A000BA864E96C8F
:10487C004018E864296DB0EBC11F08D205F1540053
:10488C00FFF70AFB4FF0005100F021FD1EE0002065
:10489C00E86440F609003880787B00F0F00040F0C6
:1048AC000100787300207880387B00F0F0003873BA
:1048BC0000207860DFF81005076007E005F1540070
:1048CC00FFF7EAFA4FF0005100F001FD24F0080464
:1048DC0013E0A00411D505F12800FFF704FB060036
:1048EC0009D07068002806D000222023B6F91C10CD
:1048FC00F0687668B04724F40054002C06D005F11B
:10490C005400FFF7C9FA214600F0E1FCBDE8FF8135
:10491C0038B5044688002CD501F0B9F8DFF8140836
:10492C00FFF7D7FC744D687D002805D104F13800E1
:10493C00FFF7C4FAFFF770FAFFF7D0FA022001F084
:10494C00C7F9112001F0D8F9207C002802D10E20E3
:10495C0001F0D2F90020A883287E002809D000207D
:10496C0028767F48FFF798FA0421BDE8344000F020
:10497C00AEBC31BD30B58DB001F02BF9DFF8B80706
:10498C00016841F00201016001A8FFF77DFADFF830
:10499C00AC47A0780790594D002301AADFF8A01767
:1049AC0005F15400FFF75CFA01A8FFF788FA002024
:1049BC00ADF81C00207809900020009001ABDFF8C6
:1049CC007027192105F18800FFF74EFA01A8FFF7AF
:1049DC005BFAE0780790002301AADFF8681705F16D
:1049EC00A400FFF73DFA01A8FFF769FA0120ADF822
:1049FC001C00607809900020009001ABDFF848277C
:104A0C001A2105F1D800FFF72FFA00231A46DFF818
:104A1C003C1705F1F400FFF72BFADFF81807FFF746
:104A2C0058FC4FF6FF70A883DFF82407012181762C
:104A3C000021E9774176C176818381770846286425
:104A4C000DB030BD2DE9F0418EB004460F469046B6
:104A5C001D46294E707D002803D1FFF78BFF0120E6
:104A6C007075002F42D06760B8F1000F3ED0C4F8CB
:104A7C000880FFF7D9F9B17D002939D10121B17531
:104A8C00FFF7D6F9002D03D109A800F099FA09AD6A
:104A9C00286820606868E060287A2074E8686061A3
:104AAC002869010000D0A0610022782104F12000C7
:104ABC0001F002FD6846FFF7F9F901208DF81800A6
:104ACC006A46002104F13800FFF79EF96846FFF7AB
:104ADC00E4F906946B460022DFF8781604F17000B6
:104AEC00FFF7C6F920460EB0BDE8F0810020FAE7CA
:104AFC00FFF79EF90020F6E7342700201C26002043
:104B0C00D0B5FFF791F9DFF84846217D002906D092
:104B1C00DFF848160C68FFF78BF92046D0BDFFF77D
:104B2C0087F900F0FBFF10F5003041F10001DFF8D0
:104B3C003026A2FB006702FB0177206901460020AA
:104B4C00321847EB01031846D0BD0000000004608A
:104B5C00B8110020F00000000810044020000E00E6
:104B6C00702600202DE9F84F0446894692469B4654
:104B7C00FFF75AF90546DFF8E065B6F93400B6F9E7
:104B8C003610401AC0F30B0008283ADAB08E401CDD
:104B9C00C0F30B00B086B6F934804046FFF7D0F96D
:104BAC00074604F17000FFF780F900F066FBC7F8C8
:104BBC00089087F81EA0C7F804B0A7F81C80FC600A
:104BCC00DDE90A23DFF89C05202110401940C7E9D4
:104BDC0004010020F877706A0028394606F1240099
:104BEC0020D0FFF78FF9002811D1B08E00F6FF709E
:104BFC00C0F30B00B0862846FFF71AF96FF00100DE
:104C0C007EE02846FFF714F96FF0010078E0A4F875
:104C1C009480F87F40F08000F8772846FFF708F979
:104C2C0040466DE0FFF76EF900280BD1B08E00F610
:104C3C00FF70C0F30B00B0862846FFF7F9F86FF051
:104C4C0001005DE004F19400A0F80080F97F41F0D0
:104C5C008001F97700218170DFF8F444607F217DB9
:104C6C00084207D00120A07700206077A076E07D75
:104C7C00401CE0752846FFF7DBF8B06A00283ED1EF
:104C8C00207D002803D0192000F037FB37E0E07EB0
:104C9C00002834D1FFF7C8F80546207F002805D03E
:104CAC00012020762846FFF7C3F828E0B868FFF704
:104CBC00A9F93065002818D0376D06F1F4042046A8
:104CCC00FFF7F3F8B16BC968791ADFF85C24126846
:104CDC00B1FBF2F1FFF7B0F82046FFF7E6F8FFF76B
:104CEC00AFF82846FFF7A4F809E02846FFF7A0F82C
:104CFC0006F15400FFF7D0F8042100F0E8FA404622
:104D0C00BDE8F28FF6FFFF1F2DE9F04106468846FD
:104D1C0014461D46FFF7B0F807464046FFF721F949
:104D2C008046B8F1000F05D13846FFF7A9F80220EC
:104D3C0000212AE098F81F00072108420AD03846C3
:104D4C00FFF79EF8072198F81F000842FBD10220BC
:104D5C0000211AE0DFF81004D8F804100246914242
:104D6C0004D0D8F804103166C8F80400C6E916451A
:104D7C003846FFF785F806F13800FFF79FF84FF03B
:104D8C00FF31FFF745F8D6E91A01BDE8F081DCB533
:104D9C000446180001D1DFF8D033DDE90667CDE910
:104DAC0000672046FFF7DEFE002803D500204FF0F9
:104DBC000041DCBD02224FF0E0430146204602B028
:104DCC00BDE8D040A0E70000001004400200004005
:104DDC001C100440D02108405100070601E042F0AD
:104DEC0002022DE9F84389461646DFF86C4304F1BC
:104DFC002400FFF778F8009006F001080327FFF76E
:104E0C0013F8054619F1010F0BD1A06A002803D045
:104E1C00A06AB0F91C9002E0E08E00F101090020BC
:104E2C00E077484600B2FFF79CF8002837D0A16A1B
:104E3C00884234D116F0020603D0616A0091002139
:104E4C006162C17F012202FA08F21143C177FFF7B8
:104E5C0013F80746B8F1000F02D0DFF8100301E099
:104E6C00DFF80C0300F006FE2846FEF7E1FF002EEB
:104E7C000DD10FE0C07F40F004000099C877684660
:104E8C00FFF733F8014604F13000FFF73BF80098C8
:104E9C000028EFD13846FEF7F3FF832789E000287E
:104EAC0000F084800099814229D104F1F400FEF7CE
:104EBC00FCFF00F0E2F916F0020602D0002060625E
:104ECC0002E0606A006860622846FEF7B1FF009855
:104EDC00C07F40F004000099C8776846FFF705F8DA
:104EEC00014604F13000FFF70DF80098002801D0BE
:104EFC003000ECD1832737E00099096800910099C4
:104F0C0000292CD009688142F6D104F1F400FEF797
:104F1C00CCFF00F0B2F900980068B10704D500216D
:104F2C00009A1160009013E00168009A1160002152
:104F3C00016000900CE0C07F40F004000099C8773D
:104F4C006846FEF7D2FF014604F13000FEF7DAFFA7
:104F5C0000980028EFD12846FEF76AFF8327832F9D
:104F6C0002D02846FEF764FFDFF8E451E87E002803
:104F7C0007D004F15400FEF78FFF022100F0A7F9CF
:104F8C0017E0287F002814D1DFF8E801FFF7A1F91A
:104F9C0004F15400FEF780FF022100F098F9287DFF
:104FAC00002806D16348FFF794F902E02846FEF783
:104FBC003FFF3846BDE8F2830100070601010E04ED
:104FCC000FF2BC111422FEF7EFBE38B50446FEF703
:104FDC002BFF05465E48007D00280ED0204600F0D1
:104FEC0049FD04462846FEF723FF04F0FF00012884
:104FFC0001D1812032BD022032BD2846FEF718FFB8
:10500C00012032BD0A465449896B884201D00320E5
:10501C00704700211046D8E70A464F49896B8842F1
:10502C0001D00320704700211046CEE738B54A491D
:10503C00896B884203D14648007D002802D16FF06D
:10504C007F0032BDFEF7F0FE04464B4800F012FD27
:10505C0005462046FEF7ECFE05F0FF00012802D1C4
:10506C00280C40B232BD6FF07F0032BD040000202E
:10507C0070B50E4615468324FEF7D6FE002E03D0DF
:10508C00022E15D00AD317E033498A6A002A03D0BE
:10509C00896A898B298010E080240EE02C49897E56
:1050AC00002903D12C49898B298006E0802404E057
:1050BC002749097D297000E00324FEF7B9FE20463C
:1050CC0070BD0000402600201027002080B5084647
:1050DC00FEF747FF002801D0806802BD002002BD0A
:1050EC0038B50446FEF7A0FE1B49CA7F520703D50C
:1050FC0022468B7F9A4212D001228B8B02FA04F546
:10510C002B438B831D4B1D680C34A24025EA0202F5
:10511C001A601A68002A02D1002281F82020BDE80A
:10512C003240FEF785BE0000F00000009141000007
:10513C00234300009D4300000020094060D4000080
:10514C00E7420000E940000095400000FB420000EF
:10515C0034270020914200001C260020043004401B
:10516C0000093D00F1EFFF9F954200000100020491
:10517C0001000104C5450000010003040C100440AB
:10518C00FFFFFFFFC4090000010000000000000049
:10519C00D5420000DFF800F021B30110DFF800F079
:1051AC0095C00110DFF800F00DA80110DFF800F039
:1051BC00BDBE0110FEE7DFF80001007D70476DE019
:1051CC0038B5FFF7FCFFDFF8F8500446A86800215B
:1051DC00FFF7E4FF6969081AA969814238BF00200A
:1051EC0084F3118832BD2DE9F041FFF7E8FFDFF8B9
:1051FC00D0500446A8680121FFF7D0FF0121A983F4
:10520C000021E9836E6929682A68871B801A711A44
:10521C00884204D20020A88384F311882BE084F305
:10522C001188002406E0A61931460120FFF7BAFFC9
:10523C003F1B0446A742F6D2FFF7C1FF8046E88B1E
:10524C00012804D131460020FFF7ACFF0446A969C0
:10525C0014F1010F08BF084603D0E01B814238BF90
:10526C0008468119FFF7A2FF012028840020A8839B
:10527C002E6088F31188BDE8F08100218182DFF86F
:10528C003C10C0684969884204D1DFF85C000068B2
:10529C00FEF7D6BD7047808A70477047DFF84C1018
:1052AC000968EFF3118081F311887047F6E7DFF896
:1052BC004000806870470000A401002078010020A5
:1052CC0078010020616280F311882046704738B560
:1052DC0004460D46FFF7EAFF616A2943FFF7F2FF28
:1052EC00BDE83240FFF756BF20DA0000EC000000AA
:1052FC00C8010020816042607047102804D3DFF899
:10530C000C101038C1F8000F7047000000E000E0EE
:10531C0001F0F0B8FFF7C2BFDFF89811C20744BF25
:10532C0001220A60820744BF4FF480720A60400772
:10533C0044BF4FF4803008607047DFF87C21C3070E
:10534C0048BF1160830748BF5160400748BF916058
:10535C007047000010B504460020D4E90A2347F634
:10536C00906101F0C1FB0123994228BF4FF0FF303F
:10537C0010BD10B50C4600F0C7FB011D201AB0F192
:10538C00004F05D8081BB0F1004F38BF8C4200D23B
:10539C000C462146BDE810400120CEE72DE9F04136
:1053AC0080460A46D8E90A01D8E90C45A0FB0267F9
:1053BC0001FB0277A6196F41340C002244EA074125
:1053CC004046FFF7D6FFC8E90E67BDE8F081F8B597
:1053DC000646FFF79FFF0446DFF8E050DFF8E07069
:1053EC000120E861FFF798FFF96A096A14208847E1
:1053FC003069B0F5802F34BF0421010C0120FFF778
:10540C009CFF3A681268232100209047DFF8B41003
:10541C0001200860DFF8B400016821F4E02141F4B8
:10542C00803101600120286084F31188F1BD0000F7
:10543C0000F074BB10B5DFF89000446800F006F87B
:10544C006069A169BDE8104008470000012063E7CE
:10545C00F8B504460D4600F061FBD4E90A67324604
:10546C003B4601F041FB3DB1A6FB002306FB01339B
:10547C0007FB0033C4E90C23F2BD10B5DFF83C0088
:10548C00DFF86440002101600121C16121602068C6
:10549C00FFF7DCFFDFF860100968096A1420884701
:1054AC00206810BD000080B500F038FB000C40EA0D
:1054BC00014002BD0420094018200940000024438B
:1054CC008401001080022443E401002000200940E4
:1054DC00DFF8EC14096821B10A898242FAD1084636
:1054EC0070470020704700002C200940DFF8D804DA
:1054FC00C088704700000000B001001000F008F8F0
:10550C000EBD00BF08B582B00023009302ABF5E7D7
:10551C0077B58DB01C461498ADF8180000250F987F
:10552C0028B92CE10EAA0DA800F070F96D1C00F042
:10553C0032F9080000F01D812529F3D100F02BF978
:10554C002D2905D10120ADF8060000F024F902E068
:10555C000020ADF80600302904D10120049000F0A1
:10556C001AF901E000200490002000904FF0FF3069
:10557C0002900A202A2918D12168216051F8042BA5
:10558C002160009200F0FDF8009A002A11D501224A
:10559C00ADF80620009A524200920AE0009A00FBF5
:1055AC0002113039009100F0ECF8A1F130020A2A16
:1055BC00F4D32E291AD1002100F0F2F82A290F92E7
:1055CC0010D100F0F9F80291002944BF002002909C
:1055DC0000F0E1F80AE0029A00FB0211303900F009
:1055EC00DFF80F92A1F130020A2AF4D3049808B123
:1055FC00009804906C2918BF4C2905D10120ADF8F6
:10560C00040000F0C8F802E00020ADF8040008A87F
:10561C0007900CA805900020642918BF69290390F5
:10562C000DD1BDF818000028FFD000F0BFF86FF0C6
:10563C0009030298049A8242B8BF049019E00A2325
:10564C0075291FBF1023782908236F2903D1BDF8B2
:10565C00180038B906E0702913D104932068206033
:10566C00016814E000F0A2F8049A02988242B8BFD4
:10567C000490049A059800F0A5F807900599081A6B
:10568C002FE0632919D12068206001680FE0001D0C
:10569C00206010230598082200F094F8401E079013
:1056AC0040200799087005980799401A19E0001DC9
:1056BC00206007980170012013E0732913D100F0CA
:1056CC007BF8079111B90FF244300790079801F05D
:1056DC0083FA0390029810F1010F1ED003998842AF
:1056EC001BDA039019E00F98401E0F900E980228B9
:1056FC0013D3029810F1010F02D00E99884201D3F6
:10570C000E9800E0401CDFF8C462366802906B46CD
:10571C0022460FA90DA8B047451900980399401AC5
:10572C000090BDF8060038B902E000F030F86D1CAE
:10573C000098401E0090F8D50398411E039150B17B
:10574C000798401C07900EAA10F8011D0DA800F038
:10575C005DF86D1CF0E7BDF8060000283FF4E7AEDD
:10576C000098401E00903FF5E2AE00F010F86D1C62
:10577C00F6E70D9810B10D9900200870284610B06E
:10578C0070BD0F990F9A0978521C0F9270470EAA90
:10579C0020210DA83AE00F9810F8011B0F907047CC
:1057AC0002910F990F9A0978521C7047206820605B
:1057BC000168001D206070472068206050F8041BB1
:1057CC0020607047F0B500240025002B44BF5B42DD
:1057DC00002902D54942521E2D25B1FBF3F60FF2DA
:1057EC00342703FB1611641C795C00F8011D31464B
:1057FC000029F2D19442BEBF302100F8011D641C77
:10580C00F8DB290018BF00F8015DF0BD10B50C469F
:10581C00116802290BD3491E1160016819B14A1C89
:10582C0002600C7010BD01F02DFB00B100E010BD4A
:10583C002046BDE8104001F023BB654909680847C4
:10584C0064480068004701207047FEE770477047C6
:10585C0010B50446606808B9012010BD0B4601461E
:10586C00206852A200F0BCF8A1684118A1606168E0
:10587C000129A4BF081A6060002010BD2DE9F04179
:10588C0004468846A088164600F021F80746F11B0E
:10589C00002E01D40A2904DB236845A200F083F80A
:1058AC00C719A08980B1F51BA468002E05D4204629
:1058BC0001F092F9401D854206DB23460FF2681277
:1058CC00294600F070F8C7193846BDE8F0813EB59E
:1058DC000D463A49098814468142034628BF0FF207
:1058EC00501210D237490988814207D3FFF7F0FDD7
:1058FC0021464268284600F073F83EBD2D490988C0
:10590C0031B90FF238122146284600F069F83EBD35
:10591C00314B1B680095002C48BF47F6FF740021E3
:10592C00029101946A462D49984702983EBD2DE993
:10593C00F843170048BF47F6FF7704468846002611
:10594C0074B32088010004D03A464146FFF7BFFFEC
:10595C000646B91B012922DB208820B116A240463D
:10596C0000F03EF88619A068C8B1656875B1284684
:10597C0001F032F9A7EB0609401D814506DB2B46E9
