:020000040000FA
:10000000004400206DC2000001C9011001C90110A7
:1000100001C9011001C9011001C9011001C9011074
:1000200001C9011001C9011001C9011001C9011064
:1000300001C9011001C901103FC90110120001835B
:1000400001000143C5A70D63318915B007010040C8
:10005000030020C5A70001611061081007430228B2
:1000600004438AFF00FF0140028460F8050823F979
:1000700015083009838800000200FF4488601820BA
:10008000137DAF10F0010B010400011007C802003E
:1000900020AD3D0000C3049007A34100008DC400C3
:1000A000000632127C20100F38B700002CBE000072
:1000B00098C20000DCC10000B8142016150953696D
:1000C0006D706C65424C4542726F6164636173741C
:1000D0006572020A3B117410101AFF0D00021557C9
:1000E0006973646F6D536166657479E01301551E21
:1000F0001004C50000C97A00A0F20C000116380CEB
:10010000210461261003D1C00000030D3001FF005F
:10011000141312581C2104526004834C105045687B
:10012000100101007C18F2067C1C12981821045260
:10013000A00452A80443ACBC2C212812BC102104FA
:1001400052C404439C0104C70100CC3001BFBD016F
:100150006212EC24210452F40452FC04430404040B
:10016000520C0452140483FDA94512050BD620132A
:10017000436C04131244082104524C045254045298
:100180005C04526404526C04527404527C04830074
:1001900000B0790E400302000088061CD00353C053
:1001A00001100001D2011112C848210452D004529A
:1001B000D80452E00452E80452F0046178F1C70117
:1001C0006520F30D0101E61003372C0000A704435E
:1001D000F72B28212F43C94D0C12E908ED07031B0B
:1001E0006B95E8F300081B55F30110C468F3013464
:1001F00008142C081800A001A418140C307524044D
:1002000039AA00010301FF83010001A10CD003C83A
:10021000040020000152F81420023401002004528E
:100220003C0412000110076C1700200C1100201074
:1002300004C20001C0052001010000441018520052
:1002400001100708020020140400200111C301005E
:10025000012002CC0300200422000150026CDC02C9
:100260000001500384030020030D0006BF88000036
:1002700009890000F3010100012002440400201755
:100280001200010002080200205200015200011277
:100290000001000208000000030000000000000050
:1002A000000000000000000000000000000000004E
:1002B000000000000000000000000000000000003E
:1002C000000000000000000000000000000000002E
:1002D000000000000000000000000000000000001E
:10100000B41200001810000015AB0110FDB3011060
:101010006DC00110FDAE011099B501100000000077
:10102000000000002D000000B01200003C10000085
:10103000B1C00110A9BF011067C0011069B801104B
:10104000000000000000000030000000B0120000AE
:1010500060100000BDC00110CDB30110D9BD01105A
:101060006DB301100000000000000000310000001E
:101070000000000038030020040000000000000011
:10108000000000002000000020BB00003000000035
:101090002810000058030020040000000000000099
:1010A000000000000C0000007CC1000018000000DF
:1010B0004C1000006003002004000000000000004D
:1010C000000000002400000094C10000180000008F
:1010D00000000000A0030020040000000000000049
:1010E000000000001000000080BB00002C00000089
:1010F00000100000BC0300200400000000000000FD
:101100000000000020000000C0BD0000240000001E
:10111000FFFFFFFFC40300200400000000000000E8
:101120000000000028000000E4BD000024000000D2
:10113000FFFFFFFFEC0300200400000000000000A0
:101140000000000014000000ACC100001800000006
:10115000FFFFFFFFF4030020040000000000000078
:10116000000000005800000018BA00003400000021
:10117000FFFFFFFFFC030020040000000000000050
:101180000000000010000000C4C1000018000000B2
:10119000FFFFFFFF04040020040000000000000027
:1011A000000000001C00000008BE00002400000039
:1011B000FFFFFFFF0C0400200400000000000000FF
:1011C0000000000038000000D4BC0000280000002F
:1011D000FFFFFFFF74040020040000000000000077
:1011E000000000005400000040B800003C00000077
:1011F000010000005CC400000100000000000E00BF
:1012000000000F0032000000010000004003002039
:10121000000200000000000001C9011000000000F1
:101220000000000008000000000022006803002009
:10123000000000000000000008000000CC030020B7
:101240000000000000000000080000000000000096
:10125000000000000000000000000000010000008D
:101260001404002006000000010000007C0400209F
:10127000000000000000000000020000000000006C
:10128000290001002500300031002D00010001007F
:1012900004000000E8C200000000000000000000A0
:1012A000000001000000030013C401101D890000AC
:1012B000B8120000B812000000000000B0030020C7
:1012C0007D8800002000000084C20000FCBC0000FB
:1012D00029C10110078300001B940000A1C7011061
:1012E000A3C7011000000000A6990000C0B60000CE
:1012F000D8B60000A8B600000200090001000000F6
:1013000001000000A1BC000075BC000079C0000015
:10131000B9BA0000EDBA0000F1B6000075B00000E7
:101320000DC20000F58700005589000059890000B2
:1013300038B5054601F0DAF82C680CB1216829604F
:1013400001F0E6F8204632BD70B505460E462C6821
:10135000002030601CB901F0C9F82E600DE001F0EA
:10136000C5F800E0246821680029FBD1B44203D10C
:1013700001F0CEF8002070BD266001F0C9F8012010
:1013800070BD10B501460022DFF8500B00EB421093
:10139000C37F1C0603D5B0F91C308B4203D0521C0E
:1013A000082AF1DB002010BD38B504281DD1DFF874
:1013B000CC4A04F1EC05284601F0ECF8A8B1284627
:1013C00001F0E6F8DFF8B81A0A68504364280CD236
:1013D000284601F0EDF8052001F024FA0120E0771D
:1013E000042104F14C0001F021FD002032BD70B554
:1013F000044601F07BF8DFF88C1A0546887D00B3BF
:10140000401E8875C0B2E0B9DFF8706A082100F0AC
:10141000F4F8B4B1B06B703001F0CAF8B06BDFF81B
:10142000601AC0680A68241AB4FBF2F1012906F1B7
:10143000EC0498BF0121204601F0B6F8204601F0E7
:10144000B5F82846BDE8704001F062B810B5044612
:10145000207B00F00F0002280FD100F018FDA168DA
:10146000081ADFF8181A8A6BD168800801F57A71BA
:10147000814238BFB0F1405F00D3002010BD38B5C5
:10148000DFF85C1ADFF85C0A0C68DFF8F0590440FA
:10149000E0430860A00606D54868810603D54FF4EE
:1014A000005100F0E6FD14F4602F09D0286904F41F
:1014B000602404432C6105F19C00BDE834403AE00F
:1014C00031BD70B501F012F8DFF8B0590446286953
:1014D00010F4602F25D02E69F601360EF00748BFB4
:1014E000002606D4B00748BF012602D4700748BFC3
:1014F0000226701D40B200F051FF2969012206F159
:10150000110082409143296100F0BEFC05EB86008A
:10151000446844B1286800224FF00063711DA04761
:1015200001E000F0B1FC286920B105F19C00BDE8A4
:10153000704000E070BD002101F078BC70B501F092
:1015400079FCDFF83869DFF8E05B8107B16A1DD408
:10155000D1E90423104007D0F1628A691043886101
:101560004FF4804100F049F8B06A002844D1746A11
:10157000002C41D0E068B16B884222D006F14C00CB
:10158000BDE870404FF4805101F050BC09B9B16A18
:10159000EAE70022B262D1E904238C69104040F0EE
:1015A000020020438861686990436861E868984355
:1015B000E86006F13000FFF7C7FE022100F01DF8D9
:1015C000E5E7A068FFF742FFB06408B1B06CD1E076
:1015D000D4E904016A6902436A610020EA680A43A7
:1015E000EA60E861A0682860E8690028FCD006F19C
:1015F0002400FFF79DFEB46270BD06F14C0001F0BF
:1016000015BC0020F3E6F8B5074614463E6E1D46AD
:1016100006B1B047A00708D4D7E9160120402940F9
:101620000022914208BF904207D0C7E91A4507F14E
:101630003800BDE8F24001F0B2BCF1BD704780B5A2
:1016400001F0F2FBDFF834280146906BD26BBDE865
:10165000084010470421DFF8D40A01F0E7BB80B549
:1016600001F0E8FBDFF8C81A084204D0BDE80440E6
:101670004FF00051EFE701BD70B504005AD0A168EA
:10168000202000291CBFC2B2002A59D00A8840F687
:1016900003039A421FBF40F604039A424968401E62
:1016A000EFD148E000224FF08043B4F91C10E0680D
:1016B0006568A84700F01AFFDFF8C0570646E88EB5
:1016C000401CC0F30B00E8860020296BC87705F1A9
:1016D0003000FFF72DFE304600F01AFFB5F9360056
:1016E000E26802F19403B3F90010884202BFDFF808
:1016F0009407017D00291DD1987808B9106810B9A8
:101700000020987036E0A96B0B6813F1010F11D01F
:10171000DFF86C572968B0FBF1F1012998BF01216E
:1017200002F1700000F040FFE068BDE870407030EA
:1017300000F03CBF70BDE0681822203001F07EFC54
:10174000A2690020A06160680028B3D0E07F002378
:1017500000F00700012842F0020207D00228A1D0C1
:10176000042804BF00224FF080539EE700224FF070
:1017700000539AE7BDE8704039E638B50D46A80732
:10178000DFF8F84619D5206BFFF776FF206B25F0C0
:10179000020510B145F0020109E0680702D4606A51
:1017A000002854D004F1EC0000F002FF042104F101
:1017B0004C00BDE8344001F039BB680747D5012033
:1017C00084F82000042001F02DF8DFF86809016892
:1017D0000A6B90472064606A08B1C068A063A06B80
:1017E0004168DFF854090A780260022001F01AF813
:1017F000112001F02CF80120E076A06B017C00297B
:1018000019BF607E00280E2001F021F8A06BDFF8E0
:10181000182940688168002904BFC068002804D0E6
:101820000021D161DFF84C0A106040F2FF70DFF850
:10183000481A086000219161DFF8F40850610FF246
:101840001100E0631920BDE8324000F051BE31BD07
:101850002DE9F0430446880085B040F19380DFF81D
:101860001C56A86B4068406800B18047A86BDFF841
:10187000B88842689068002804BFD16800290DD05C
:1018800000F0A7F8906800B18047A86B4068C06876
:1018900000B18047DFF86C0A01F0CFFA0020C8F8E9
:1018A0001C0040F60A09DFF8600ADFF8D875C8F8AE
:1018B0000000012001F0FBFA0FF28110E863002123
:1018C00000207880A7F8009000F00CFA787B00F0F8
:1018D00003FAA26816467180697E09B1607CA0B1E6
:1018E000108840F60201884218BFB0F5C15F05D1EB
:1018F000318A4FF60F400140318204E0318B4FF6C0
:101900000F4001403183002060746946104601F0A9
:10191000BBFA684601F0C6FA7068B0B30188494561
:1019200018BF0646F8D130E0208C00283FD00021B7
:101930006184616204F12C004278017802F0F002C7
:1019400001F0F00142F001020170427004F1200048
:101950007860787B00F0F000787328E0DFF8801A78
:101960000A68136801209847012808D0707B00F0AE
:10197000F00040F0010070730FF26900E863A068A6
:10198000C8F8000005B0BDE8F083776040F60301B9
:10199000707B00F0F0007073686A8068008888428D
:1019A0001CBF40F604018842BED10020286400F02C
:1019B00010F84FF6FF30A1680A8A02400A82E87FD9
:1019C0000028CBD001F0BAF80028FBD001F0C7F80E
:1019D000D5E7D8F81C000028FBD00021C8F81C105F
:1019E00070470000DFF8FC29114200D17047DFF892
:1019F000F019012010B50A68DFF880441368984791
:101A0000012808D10FF23500DFF81C17E063DFF87A
:101A10007404086010BDDFF8682410683221B1FB3F
:101A2000F0F1012998BF0121EC34204600F0BCFD03
:101A30002046BDE8104000F0B9BD00002DE9FE4F82
:101A400006460C466004DFF8345419D500F04EFD0C
:101A5000EE6AB769B9070ED46EB10021B16100F02A
:101A600057FD706848B1B6F91C10F06876683A46C0
:101A70000023B04701E000F04BFD24F4804425E151
:101A8000A0070AD5286BFFF7F7FD286B002824F084
:101A9000020401D044F0020418E1A00005F180081E
:101AA00040F60909DFF8DC73DFF888B676D595F8DB
:101AB000200028B1042000F050FE002085F820000E
:101AC00040F60202B0680188914218BFB1F5C15FCB
:101AD00005D1028A2D2161F30912028204E0028BF2
:101AE0002D2161F309120283286CD8B1DBF8541060
:101AF0000A6804209047A8B1DBF80000016B884712
:101B0000296C814228BF401E401A718A11EB1030A7
:101B1000F06040F2D171A0F5FA70884224BF40F61F
:101B2000C410F060787B10F00F0F04BF708C484534
:101B300008D1D6F818C000224FF000736FF48071FE
:101B40003046E0470022DFF8A818404600F0D4FCF9
:101B5000A87E50B10221ADF80010684601F06DF981
:101B6000BDF80800A8820020A87601202876002170
:101B7000B87D401CB875E976686A18B1192000F084
:101B8000B9FC01E044F002043046766900224FF0CF
:101B900080630021B04724F0005497E0A87F24F030
:101BA000080A20B1210703D50020A8777BE0200791
:101BB0007BD5E87F20B10021E977052000F0CDFD3D
:101BC0000020287601202877002001F070F90022FB
:101BD000DFF82018404600F08FFC697E09B1A87E2E
:101BE00010B10121697612E0A86C002834D0DBF82E
:101BF0000010086B8047296C6A6C401A02EB1032A7
:101C00006A64A86CC001904226D200216964DFF8A2
:101C1000E80701680A061FD5787BA7F8009000F056
:101C20005BF800210020788000F05CF800F05EFC9A
:101C3000DFF8F4144A6922F002024A616FF00202EE
:101C40000A610F600B699C07FCD50A614A6942F082
:101C500002024A6100F05CFC0020286401F0FAF8FE
:101C6000DFF8141600200860022000F076FD112035
:101C700000F089FD307C10B90E2000F084FD0020BA
:101C8000A883787D18B906F1380001F088F9DFF8EB
:101C90006C07E863F87D30B10021F97505F14C005F
:101CA000042101F0C3F8544610E0A0040ED5AE6A3A
:101CB000002E1CBF7068002806D0B6F91C10F06812
:101CC000766800222023B04724F4005414B1214642
:101CD00000F0CFF9BDE8F78F00F0F00040F0010010
:101CE000787370477960387B00F0F0003873704784
:101CF00030B585B000F09EFCDFF80407DFF804473C
:101D000001685E4D41F002010160684601F063F830
:101D1000A078DFF8F41602906A4605F14C0001F055
:101D200062F8684600F0ECFB2178DFF8C8260191E4
:101D300000208DF808006B46192105F1800000F0A5
:101D4000B4FB684601F047F8E078DFF8C01602906F
:101D50006A4605F19C0001F046F8684600F0D0FBA9
:101D600001208DF808006B466078DFF8A42601900A
:101D70001A2105F1D00000F098FB00230022DFF8C3
:101D8000941605F1EC0000F0E4FBDFF87006DFF8D4
:101D90008826E8630023042105F5887000F0CBFC59
:101DA0004FF6FF70A88205B00120A8760020E875E4
:101DB0006876E876E861286485F8200030BDF0B5E3
:101DC00000298BB0064615461C4653D0DFF84C065A
:101DD00000680A78D040C0074CD5002D716049D00A
:101DE0000021284601F064F8B56000F07FFB254F24
:101DF0000546787D00283BD1FFF77AFF787D401CAF
:101E0000787500F0A0FA34B903A80FF24C611C22D7
:101E100001F014F903AC2068DFF8041630600A46BC
:101E20006068F060207C307401207074608A708279
:101E3000E06800B10146B161A06800B1024672617C
:101E4000782106F1200001F061F9002106F1380047
:101E500001F089F8684600F0A4FB02966B46002268
:101E6000DFF8C01506F1700000F073FB304602E0A9
:101E700000F069FA00200BB0F0BD00003011002026
:101E80008413002054120020204600F041BBD0B53E
:101E900000F02CFBDFF89025117E31B1DFF88C25A6
:101EA000146800F035FB2046D0BD00F031FBA1489E
:101EB000DFF87C4501680A6B904710F50032DFF8C7
:101EC000740541F100030169A4FB0267002004FBD3
:101ED0000377321847EB01031846D0BD880800206D
:101EE0000810044020000E002DE9F84F04460E466D
:101EF00092469B46DFF8305500F0F8FAB5F93410F9
:101F00008046B5F93600091AC1F30B0108296FF0B4
:101F1000010949DAA88EDFF82015401CC0F30B0038
:101F2000A886B5F93400ADF800000020420101F1A7
:101F30001F039B5C1F0640F18C80401CC0B2082828
:101F4000F4DB002704F1700000F032FBBE6087F87C
:101F50001EA0C7F804B02021BDF80000B883FC60C3
:101F6000DDE90AABDFF8D4040AEA00000BEA01015C
:101F7000C7E9040194340020F87740F6FF76686AD8
:101F80000028394605F1240006D0FFF7DDF930B10D
:101F900000F061F840464FE0FFF7D6F940B9A88E4F
:101FA0003618C6F30B06AE8600F01EFA48464EE021
:101FB00000F051F8697FDFF87C4400291CBF287EBF
:101FC000002807D0002001216877A876A977A07D96
:101FD000401CA07500F008FAA96A002935D1287EB6
:101FE00018B1192000F086FA2FE0E87E68BB00F0F7
:101FF0007DFA0646287F10B10121E1751BE0B86823
:10200000FFF724FAA864D0B1A86BDFF83414C068D5
:102010000968AA6C121AB2FBF1F2012A83BFAA6CFA
:10202000101AB0FBF1F10121EC35284600F0BCFAA2
:10203000284600F0BBFA304600F06AFA05E0304668
:1020400000F066FA042100F014F8BDF90000BDE8C4
:10205000F28F8F1876E7BDF800002080F87F40F0FF
:102060008000F877A078012802D10021A170A9761C
:10207000704705F14C0000F0D9BE2DE9F04105464E
:102080000C4616461F4600F0CDFE80462046FFF760
:1020900078F9040003D1404600F0CAFE0AE0E07F70
:1020A00010F0070F09D0404600F0C2FEE07F10F0AC
:1020B000070FFBD10220002112E06168DFF88403E2
:1020C000814202D0616829666060C5E916674046B2
:1020D00000F0AEFE00F006F800202866D5E91A01EF
:1020E000BDE8F0814FF0FF3105F1380000F04EBF40
:1020F000DCB5DDE906670446CDE90067180008BFD6
:10210000DFF840332046FFF7EFFE002803D500201C
:102110004FF00041DCBD0146204602B0BDE8D04092
:1021200002224FF0E043A8E7001004407C11002099
:10213000020000408C010010D021084001E042F074
:1021400002022DE9F843DFF8E052686A00900F467A
:102150000326144600F0CAF917F1010F04F0010834
:10216000814609D1A86A002819BFA96AB1F91C7073
:10217000EF8E7F1C0020E87538B2FFF702F90100EE
:1021800069D0A86A814204F0020426D11CB1686AB1
:10219000009000226A620122C87F02FA08F210430E
:1021A000C87700F03FFE0646B8F1000F14BFDFF815
:1021B0009802DFF8980200F040FE00F06BF824B9B6
:1021C00006E000F05BF800F060F800980028F8D115
:1021D000304600F02DFE83263FE00098884205F14E
:1021E000EC0316D1184600F0E3F9002C12BF0020D2
:1021F000686A0068686200F04DF8009800F03EF8E8
:1022000000F043F8009820B3002CF6D121E01268CA
:102210000092009820B3024610688842F7D1184611
:1022200000F0C6F9009800681CB1009A0021116006
:1022300004E00168009A116000220260009003E04F
:1022400000F01CF800F021F800980028F8D100F008
:1022500021F8832606E000F01DF83046BDE8F28341
:1022600000F018F8E87E0028F7D10221FFF701FFFF
:10227000F3E700005100070600000460C17F41F051
:102280000401C1776846FFF753B8014605F13000F5
:10229000FFF75AB8484600F03BB90FF2BC111C22B8
:1022A00000F0CCBE38B5044600F020F9DFF8781114
:1022B0000546087E68B1204600F0BFFD044600F0E8
:1022C00042F804F0FF04012C01D1812032BD02202C
:1022D00032BD00F038F8012032BD0A46DFF848115F
:1022E0008B6B984201D00320704707E00A46DFF865
:1022F00038118B6B984201D00320704700211046A3
:10230000D0E700000100070601010E0470B5DFF8F8
:1023100018118A6B90426FF07F0412D1087E80B151
:1023200000F0E4F80546DFF8280100F086FD0646D7
:1023300000F009F806F0FF00012802D1360230163D
:1023400070BD204670BD284600F0E2B870B50E465C
:10235000154600F0CBF88324334A1EB1022E0ED06E
:1023600006D30FE0916A41B1926A918B29800AE00D
:10237000917E11B9928A2A8005E0802403E0117EC3
:10238000297000E0032400F0C3F8204670BD80B53A
:102390000846FEF7F6FF00B1806802BD38B5044676
:1023A00000F0A4F8204AD17D4B0702D5937D9C42D2
:1023B00012D00123958A03FA04F10D432549958231
:1023C0000C340A6803FA04F422EA04040C60096875
:1023D00011B9184B00221A75BDE8324000F098B8C8
:1023E000E001001004000020404600F091B8000019
:1023F0003D1500005F160000000004407B17000040
:102400000020094060C400003F160000C314000013
:102410007F14000055160000A9130000D4210840C5
:102420003D16000003160000301100200430044067
:1024300000093D005412002088080020F1EFFF9FA2
:1024400084130020071600000100020401000104AB
:10245000010003040C100440FFFFFFFFC40900004B
:10246000000000000000000001001A010000000050
:1024700000000000DFF800F085BF0110DFF800F079
:1024800061C00110DFF800F079BF0110DFF800F043
:1024900089AF0110DFF800F0C1BD011020B10823A1
:1024A00030220021FFF7EEBF7047F0B51C008DB061
:1024B00005460E46174603D1002300F04DFE0CE002
:1024C0006846FFF7EBFF206805906B466068089050
:1024D0003A4600F005F800F03FFE28460DB0F0BD8A
:1024E000207AADF81800314628467047FFF7C2BF82
:1024F000FFF7CCBF00F050BE00F058BEFFF7CABFD8
:10250000002101604FF0FF314160012101727047ED
:10251000FFF7B4BFDFF800F0C1BF0110DFF800F033
:10252000B9BA0110DFF800F0E5C00110DFF800F0E3
:102530001FBE0110DFF800F069B20110DFF800F0F3
:1025400091BE011020B1082324220021FFF7E2BF31
:102550007047F0B51C0089B005460E46174603D1FA
:102560000023FFF7E7FF0AE06846FFF7EBFFA068EC
:1025700006906B463A4631462846FFF7DBFF0D488A
:102580000D4A01681160284609B0F0BDFFF7D6BFBB
:1025900000F014BE80B500F028FE00B10120C0B2EA
:1025A00002BD002181607047FFF7BCBFFFF7BEBFCF
:1025B000FFF7B4BF58C400008413002070B5DFF8E3
:1025C0003C4782B00120009009232568DFF83007DE
:1025D0006E684FF400720021B04773BD70B5DFF82C
:1025E0001C47DFF81C072568EE6800230122342110
:1025F000B04700B10120C0B270BDDFF808078068A5
:10260000704702460020022904D1012A06D140F277
:10261000EE207047012A08BF4FF47A707047DFF848
:10262000E41691F8E60020B1D1F81001002818BF97
:10263000004770472DE9FF41DFF8C88608F1E10542
:10264000A879002873D1DFF8C016DFF8C0660A68E1
:102650009209012002F00102A871EA71307BDFF8D3
:10266000B07668717068C8F8100101A8FFF799FF8B
:10267000002102918DF80410039101AB00220FF2AA
:102680000D5108F10C00FFF764FF01AB00220FF2BF
:10269000B95108F13000FFF75CFF01AB00220FF2E7
:1026A000F14108F15400FFF754FFB1680120884759
:1026B000DFF8600601787868C0F38154707B20B140
:1026C000032C02D10121297003E0032C18BF022C36
:1026D00016D1022000F0A6F8DFF83C160A68032C99
:1026E0000CBF4FF47A7042F21070B0FBF2F108F1B7
:1026F0005400FFF759FF08F15400FFF757FF10E0AF
:10270000012C0ED1DFF8F445032000901C2325682E
:10271000DFF8EC056E684FF040520021B047FFF73C
:102720004DFF386840075CBF002000F07BF80020B8
:1027300004B0BDE8F08138B5002408B1150002D11D
:102740006FF0020407E08160C26003610146DFF8B8
:10275000B40500F056FD204632BD10B50446FFF723
:10276000C5FEDFF8A0150A1992F8E9305B1E82F861
:10277000E930DBB233B98A68012303FA04F422EAB0
:1027800004048C605FE0F8B50546FFF7AFFE044631
:10279000DFF87015481990F8EF20521E80F8EF20EE
:1027A000D2B27ABB0FF2BC50DFF8707500EB850235
:1027B00010F825505688280615D539680A6A30461B
:1027C00090473A68916A3046884739680A6B3046C4
:1027D0009047DFF84C1501200860DFF848150868BD
:1027E0008007FCD507E0680611D501EB86010020C3
:1027F000D1F80421904705F03F053F2D1CBF284626
:10280000FFF7C1FF2046FFF783FE0020F2BD3968C5
:102810008A69304690473A68516B304688470228AB
:10282000F9D1E8E710B50446FFF760FEDFF8D414ED
:102830008A680123A3401A438A60214491F8E92061
:10284000521C81F8E920FFF763FE002010BD2DE93E
:10285000F0410746FFF74AFE0546DFF8A864F01985
:1028600090F8EF104A1C80F8EF2049BB0FF2F448B3
:1028700018F8270000F03F003F2818BFFFF7E7FFD8
:1028800008EB8700448818F82700DFF890740106E9
:102890000ED53968CA69204690473A68516A204681
:1028A00088473968CA6A2046904700F01AF807E05E
:1028B00040060BD506EB84010120D1F80421904796
:1028C0002846FFF725FE0020BDE8F08139684A69F7
:1028D000204690473A68516B204688470128F9D135
:1028E000EEE7DFF83C1401200860DFF838140868D0
:1028F0008007FCD570472DE9F84F0746DFF808043C
:10290000DFF828540168002600244A06A0460DD5A9
:10291000287B58B9DFF81804DFF8181402680A4059
:1029200042F081720260202000F067F9012F18BF89
:102930006FF0010957D12868012852D1022129607E
:1029400000F0DDFC012000F058F95FEA00094BD1EE
:1029500000F068FADFF8E013DFF8C07300900C6055
:102960000120B96A0A689047012803D1002000F0CD
:102970009AF90124DFF8C413DFF8ACA3DFF8C02311
:102980000E60DAF80010907808B14FF00108517825
:1029900009B148F00208107808B148F00408A87F8F
:1029A00020B139680A6B4FF480609047687F20B18E
:1029B00039680A6B4FF481609047DFF86413012097
:1029C000086048F0200039688A699047DFF874137E
:1029D00001200860DFF82C13087AC10709D5012609
:1029E0001FE06FF004097DE00120286000F092FCF8
:1029F00078E0396ADFF850038A6890478346BBF174
:102A0000040FF6D0BBF1010F05D13A6ADFF83803A5
:102A1000536803219847DFF8340301688908890067
:102A20000160002000F09AFCDAF800003868816B41
:102A3000884776B9BBF1010F05D13A6ADFF8080380
:102A4000536801219847DFF80403016841F003014E
:102A500001600120DFF8E4120860404639684A69E5
:102A60009047A87F20B13968CA6A4FF480609047C8
:102A7000687F20B13968CA6A4FF481609047A849DD
:102A8000B04A0120086000211160032028603A68E4
:102A9000516B404688470128F9D1DAF8000004203C
:102AA00000F0ABF80646A44901200860DAF80010EF
:102AB000954908688006FCD514B1012000F0F3F8B0
:102AC00000F09CFD082000F098F8064301202860E3
:102AD000009800F0ADF900F016FD00F01BFC0EB1FF
:102AE0004FF0FF394846BDE8F28F3EB5002401287B
:102AF00004D020D303281CD017D31CE06846FFF76E
:102B000050FD804D924901948DF8004002946B462F
:102B1000012205F17800FFF71CFD00238D4A2C21CE
:102B200005F19C00FFF7C1FC05E000F083FD0446C1
:102B300001E000F043FE20463EBD000038B5FFF73F
:102B4000D5FC7049054691F8E000012410B1FFF76B
:102B500045FD04462846FFF7DBFC204632BD70B534
:102B6000FFF7C4FC044600F0B8FF6649002081F876
:102B7000E000664885680220A8470646102000F05D
:102B80003CF8012E04BF0320A84787E070470000EF
:102B900038B55A4CE16B0A6804209047022818BFE8
:102BA00003280FD1032000901C2324685448656833
:102BB0004FF040520021A847FFF700FDBDE832402A
:102BC0000220CAE56448544900680A684D4CC0F3C5
:102BD000815003280CBF4FF47A7041F28830B0FB6B
:102BE000F2F104F15400FFF7DFFC04F15400BDE8FA
:102BF0003240FFF7DBBC0020704738B50546414C3A
:102C0000204600F0F4FA88B9204600F0F6FA0446AF
:102C1000A068284205D02269E36800212846984729
:102C200030B9204600F0EBFA0400F1D1002032BDAB
:102C30004FF0FF3032BD494901280CBF40F2FF7010
:102C4000002008600020704770B5FFF74FFC2D4E44
:102C50002E4D044696F8E00028B100F03EFF70B11A
:102C6000002086F8E0000220AD68A8470646102044
:102C7000FFF7C3FF012E11D10320A8470EE026491C
:102C80000A683220B0FBF2F101B9012106F13000EF
:102C9000FFF78AFC06F13000FFF788FC2046BDE80C
:102CA0007040FFF735BC38B5012823D12C490A689C
:102CB0001368984701281DD000F002FF114D012034
:102CC00085F8E000287A810616D41348026832217C
:102CD000B1FBF2F404B9012405F13000FFF768FC00
:102CE000214605F13000FFF75FFC05F13000FFF7EA
:102CF0005DFC01E000F017FF002032BDA4010010D0
:102D000000A00C40FC0400201410094008C300007F
:102D1000B03F00508417002084130020B801001039
:102D200028200860282008402C200940D8050020D1
:102D300004000940FFFFFCFC0C4009400002224354
:102D4000FA0500208001044300400340242208408B
:102D50000539000099360000B43F005000000460BF
:102D6000E00100108F0000008F0001008F000200C2
:102D70008F000300900000018F000101900000020D
:102D8000900000038F0001048F0000058F000804ED
:102D90008F0000048A000006510000007F0001003F
:102DA0003F0004003F0002003F0001007F000200DE
:102DB000DFF800F011BF0110DFF800F015C00110BE
:102DC000DFF800F005B3011020B10823282200210C
:102DD000FFF7F2BF7047002101604160C1604FF012
:102DE000FF318160704770B514008AB005460E4609
:102DF00003D1002200F0E2FE0CE06846FFF7E4FF9A
:102E0000206804906A4660680590314600F004F836
:102E100000F0D4FE0AB070BDE0680790A06806908C
:102E200028467047FFF7C4BF00F0D4BE00F0DCBEF8
:102E3000FFF7C6BF3849086867E0384A11680029BB
:102E4000FCD10023D3611060D0690028FCD0D1618F
:102E5000506870473248016821F0020141F4007166
:102E6000016003212F48816041F23001416101215D
:102E7000C160502141610121C1604FF4CA614161CB
:102E80000121C16001607047274802680A608268BA
:102E90004A60C2688A60406B20F0784040F0805001
:102EA000C860704701461022204800F0B7B870474C
:102EB000FEB50188B1F5C15F18D142691C4F00927F
:102EC000002382690192C06902901A480268C2F325
:102ED00003625DF8230098B1002550F82560BE42DA
:102EE00006D06D1CEDB2042DF7DD09E00120FEBD1A
:102EF000042D05DC26F4702444EA024440F8254001
:102F00005B1C032BE5DB0020FEBDC2430A600A68A0
:102F10000242FAD170470000101004400010044033
:102F200000000460004104404C13005018000021D0
:102F30000200F84454130050DFF800F009C00110FB
:102F4000DFF800F0059B0110DFF800F0E1A30110AD
:102F5000DFF800F05DB4011020B108232422002125
:102F6000FFF7EABF704730B589B004460D4600F060
:102F70000BF801218DF818106A4629462046FFF704
:102F8000E7FF204609B030BD6846E5E780B5FFF7AA
:102F9000D7FF10B96FF0010002BD002002BDFFF79E
:102FA000D3BFF0B40246106895681318506803EB5D
:102FB0005004C00721D54D441FE0F0BC02F10C00C5
:102FC000704713F8017B05F8017B491EF9D1A0B1C8
:102FD000B60813F8011B06F00306032E08BF13F80A
:102FE000016B01EB06214942801C294405D011F8F0
:102FF000016B05F8016B401EF9D1A342DDD013F837
:10300000016B16F0030104BF13F8011BC91C300942
:103010000F28DAD113F8010B0F30D6E762B38B0714
:1030200008D0521E11F8013B00F8013B00F024804B
:103030008B07F6D1830740F0208000BF103A07D3FA
:1030400030B4B1E83810103AA0E83810F9D230BCEA
:10305000530724BFB1E80810A0E8081044BF51F896
:10306000043B40F8043BD20724BF31F8022B20F880
:10307000022B44BF0B7803707047121F17D35B00FD
:1030800009D151F8043B20F8023B1B0C121F20F819
:10309000023BF6D20BE051F8043B00F8013B1B0A5F
:1030A00020F8023B1B0C121F00F8013BF3D238BF83
:1030B000121D521E24BF11F8013B00F8013BF8D845
:1030C00070470268920841EA82028B0822F00402EB
:1030D00003F0010342EA8302CB0822F0080203F066
:1030E000010342EAC3020B0922F0100203F00103BC
:1030F00042EA03124B0922F0E00203F0010342EA24
:103100004312890942EA811202607047002200F0EE
:103110009BBD024681B01078022903D1517800EBA3
:10312000012013E0032906D15178927800EB0120A9
:1031300000EB02400AE0042908D15178937800EBB3
:103140000120D17800EB034000EB016001B0704733
:10315000DFF800F0BDAA0110F8B504460B480C4F8B
:103160000668F8690D4650F82500B04209D10948B3
:1031700000902046FFF7ECFFF86950F82500B042B8
:1031800001D10020F2BD2046F2BD00BF18120000A0
:103190004401002018030020102803D302491038EE
:1031A000C1F8000F704700BF00E000E0816042609E
:1031B00070470000DFF800F09DB2011070B50446C2
:1031C00000F064FD0646A08A0025012808D1FFF71B
:1031D000F1FF0546E068451BA068A84238BF0025FE
:1031E000304600F054FD284670BD808A7047006864
:1031F00008B90120704700207047006870470068D8
:10320000704738B504460D46FFF770F90021296074
:10321000616869606168002914BF0D6025606560A0
:10322000FFE7BDE83240FFF773B90000DFF800F0B8
:1032300031BF0110DFF800F0F5B7011030BF704763
:10324000FCE738B500F0D6F900F087F9FFF7D5F9BB
:10325000044604F00C000C284BD0600721D400F089
:1032600049FD054601210120FFF7CBF92F490968E7
:1032700001FB05F2904214D2F020B0FBF1F02C4C8F
:10328000291A04F10C00FFF74DF904F10C00FFF7C7
:103290004DF90120FFF72FFB04F10C00FFF73EF979
:1032A00029E0200725D4234D2348296A8A689047BE
:1032B0000428F8D0E206214900D420B9086840F07B
:1032C0000100086003E00A68520852000A601C48C6
:1032D0001C4C016841F00301016020202A689169BB
:1032E000884720682868816B884701212160206811
:1032F00001E0FFF7A5FFBDE8314000F07FB910B550
:10330000114CFFF793FF20601048006808B1804718
:10331000606010BD10B50E480B4C016809B16068C3
:1033200088472068BDE81040FFF784BF58C40000FC
:10333000FC040020B8010010004003408C2108402C
:10334000242208402C2009407C13002034C40000B3
:1033500038C400001628A8BF203870472DE9F84F60
:1033600080469448DFF850920168944E8A0705D54C
:103370000820B0719248C9F80000C2E09148016885
:103380000A6890478246904805682F1700247F1CE2
:10339000A80208D4CAF13E00C0100828C8BF0820FF
:1033A0008742B8BF074689480168C1F30460FFF748
:1033B000D1FF834686480168C1F30440FFF7CAFF86
:1033C0005F44152F0146C8BF152704DC6FF00900C4
:1033D0008742B8BF074607F01F007E4A40F4F85006
:1033E00010807D4A106810F0030F18BF01244007B9
:1033F00048BF44F0020496F90700B8F1000F18BF67
:1034000044F00404AAEB0000042802DCB2799442E0
:103410005DD0AAF10F084FF0000BB8F1000FDC46A9
:1034200004F004006D4B24D408EB08184FEA282C54
:10343000BCF1070F88BF4FF0070CE646BEF1070F3F
:1034400028BF4FF0060E1A1D52F82E2053F82EE01A
:10345000A2EB0E0E0EF0FF0B10B1CEF30722934439
:10346000A20744BFCEF307429344E20748BF0BEBE9
:103470001E6B53F82C2002F0FF0310B1C2F307209B
:10348000C318A00744BFC2F30740C318E007A8EB66
:103490000C2048BF03EB126300FB0BF0CF1B803006
:1034A000002F03EB1023D8BF0127342005F0FF05C0
:1034B00047437D43B5FBF3F04FF6FF71884288BF69
:1034C00008460AF3070AB08086F807A0B47144489A
:1034D0000168B088316000211F2804D21F20B0800D
:1034E00004E04008491CB0F5007FFAD20F3800090B
:1034F00041EAC0013B480143C9F800100020C9F867
:103500000400BDE8F18F10B537480468A4B21CB3BD
:103510002C4801680A689047284991F90720904291
:1035200005DA6FF07F029042B8BF1046C8718888F4
:10353000844210D32A4A13680A689A1A921C1F2AD6
:1035400088BF1F22241A5208D4402418B4F5803FA3
:1035500028BF4FF6FF748C8010BD2448006800B966
:10356000704730B522498A6802F04063B3F1406F7A
:103570001FD0104B1C68A5071BD44C68A50718D496
:103580001C680968C1F303511C31090114F0050FCF
:1035900004D088420DD224F0050409E0814208D20B
:1035A000100158BF44F00104500158BF44F0040416
:1035B0001C6030BD00000940301009409C13002001
:1035C000FDFDA400EC010010B43F0050B812005003
:1035D0003C1100506E620840242208409C130050A9
:1035E0000820094000E7A480341009402850094011
:1035F000AC3F0050EFF3108072B67047EFF31080CD
:1036000062B670470138FDD17047704710B50C188D
:10361000FFF7F0FF411E8941C90FDFF860241068F1
:103620000028FCD024680123136009B1FFF7E6FFEE
:10363000204610BD38B5DFF848542878002400280B
:1036400002BFDFF84014887B00280CD0FEF74EFF45
:103650000146A878002806BF0122AA700124084666
:10366000FEF756FF0CB1002032BD0220FFF7DAF85A
:103670000E20FFF7ECF8DFF81014086808B10120FD
:1036800032BDDFF808044022C26002600120C86138
:103690000020687032BD00002DE9F041DFF8EC1326
:1036A00082B000200860DFF8E81301F1D804A07AA6
:1036B000002837D00128DFF8DC53DFF8DC2332D1D3
:1036C000DFF8D81316684BF2F52046430868360A2F
:1036D000C0F3814001280BD1A86C0168884700F035
:1036E0003AFA00F053FA3509C010454306EBE536C7
:1036F000607B10B10021617306E0DFF8A40300686D
:1037000020F07F4036187608DFF898030660360C04
:10371000466001218160DFF86C13887B002849D066
:103720000521217348E0022809D11568284600F0D8
:103730000CF9A5F2FF55032D3CD308203BE00328EC
:103740003AD1106801F1B806A0F5C0603168F061A7
:10375000002948BF4942002848BF40428142A8BFD3
:10376000002026DA7068D04F80B200900823D5F888
:1037700000C0DCF804804FF47F4230213846C04757
:10378000B06880B200901223D5F800C0DCF8048045
:103790004FF4F80204213846C047B06980B2009067
:1037A0000A232D686E684FF4406220213846B047E6
:1037B000012020700B202073BDE8F3412DE9F84370
:1037C000DFF8CC82B94EDFF8E092B94CB94FAF4880
:1037D00008F1E105E9784A1E0B2A00F29280DFE841
:1037E00002F00630415F74415F74415F7B80316855
:1037F0000A68202090470F20E060072341F61D5003
:1038000020614FF4C072022000900021D6F804C05D
:10381000DCF804404846A04776684846D6F80C9045
:1038200007234FF4C0720021C847012038600220EE
:10383000E87008F17800BDE8F243FEF7B7BEBDE8D6
:10384000F1830120E061287800281DBF0021396143
:1038500003200620E870032020600020786078684C
:103860008107E6D470684668E878032808D1022109
:1038700000910523602200214846B04704200BE058
:10388000002000900523602200214846B047E878D8
:1038900006280CBF07200A20E87001207860C8E7DE
:1038A000042903D12021A161012105E001220A2977
:1038B000A2610CBF0321022169700021216008214F
:1038C000C160016001202060B9E705290CBF062016
:1038D0000920E8700020E1E70020386078600C20C3
:1038E000A6E7002101600120674908600E20FEF76D
:1038F0004AFF0220FEF731FF0120E8700020A87087
:103900009DE7FEE762496B4891F8E420921E0A2A7F
:103910001AD8DFE802F0060A0E190A0E190A0E1963
:10392000120002689107FCD548E741688A07FCD479
:10393000FAE741688A07FCD5F6E702689107FCD4EC
:1039400041688A07FCD4EFE7FEE7F8B50446564D18
:1039500030212846FFF75AFE4D4F07F1B806C0F355
:103960000720706004212846FFF750FEC0F3844012
:10397000B06020212846FFF749FEC0F38120B4F54E
:10398000C064B061346003D1002087F8D800F1BD75
:10399000316997F8D80028B97068B168F060F461AF
:1039A000B0697061F06900284CBF6FF0010202221B
:1039B00000EB40001018421000EB927001EBA001E8
:1039C0007268F260002912DC7069032805D111F1D8
:1039D000150211001EDA00211CE011F10B0001009C
:1039E000B8BF0021521E48BF0022F26007E01E2926
:1039F00012DD706928B915391E29C8BF1E210320A0
:103A000009E00B391E29C8BF1E21521C3F2AC8BF1E
:103A10003F22F26000207061316108231D4CF06884
:103A200080B200904FF47F422768D7F804C030215D
:103A30002846E0470120009011232768D7F804C0EA
:103A40004FF4003204212846E047306980B20090EC
:103A500012232768D7F804C04FF4F802042128463F
:103A6000E047706980B200902846246865680A23A0
:103A70004FF440622021A847F1BD000000800C40B7
:103A8000DD05002008C3000004800C402C500C40D1
:103A9000FC040020A401001008400C40B43F00507A
:103AA000102009403C600C4000A00C40A001001018
:103AB00000400C4034600C403748006800F032B9D8
:103AC00010B5374C626D5368012103209847206878
:103AD000C16A88473349886010BD70B5304C616D4C
:103AE0000A680120904701281BD0A5692B48EE6881
:103AF000002301223421B047A0B1FFF7DDFF206889
:103B0000C16A8847274B9A6827491C68D860A4EB8C
:103B10009404801A4843000C1860A04238BF204625
:103B20001860012070BD38B51D4C626D53680021CE
:103B300003209847616D0A680120904708B1FFF79C
:103B4000BBFF2068174DC16A88476860206E016816
:103B50008847286131BD10B501461448144B0268EE
:103B60001B68100400161B394843C01000EB2240AC
:103B7000120601FB01F412161B06624361431B1679
:103B800000EBA220594300EBA14010BD00FB00F167
:103B9000C0EBA15000B270478000001000A00C40A4
:103BA0008C0100108813002040420F009013005039
:103BB000A4100050DFF800F079AD011010B50446F4
:103BC000034BFFF7F7FFA06800B1204610BD00BF10
:103BD0001803002001488068704700BFC80100201A
:103BE000DFF800F011B0011038B504460D4600F0C2
:103BF00058F8616A0D43656200F054F82046BDE84C
:103C00003240FFF7EDBF10B501688A089300CC0879
:103C100001F0030003F00403E20018430B0902F073
:103C200008021C0110434A0904F010045301204308
:103C300003F020031843890940EA8110C0B210BD87
:103C400062F30F2262F31F4200B500BF13009646D5
:103C50009446103928BFA0E80C50FAD85FEA417C9E
:103C600028BF0CC048BF40F8042BC90728BF20F864
:103C7000022B48BF00F8012B00BD01700A0A4270F8
:103C80000A0C090E8270C170001D704700E005E04B
:103C9000EFF31180202181F31188704780F31188A0
:103CA0007047F5E7FAE70000F2E7F7E70D49C207CA
:103CB00044BF01220A60820744BF4FF480720A6049
:103CC000400744BF4FF4803008607047064AC3077E
:103CD00048BF1160830748BF5160400748BF9160EB
:103CE000704700000420094018200940DFF800F068
:103CF000E1BE011070B5FFF7C9FF094D0446A86881
:103D00000021FFF7F3FF06466869861BA869B042E9
:103D100038BF00262046FFF7BAFF304670BD00BF0F
:103D20007801002070B50446FFF764FC451EAD41E4
:103D3000ED0F064E30680028FCD0A047012131600D
:103D40001DB1BDE87040FFF759BC70BD00800C404C
:103D5000DFF800F021C00110DFF800F0F99B01103E
:103D6000DFF800F055A40110DFF800F02DB40110C9
:103D7000DFF800F0CDAC0110DFF800F02DC001102D
:103D8000DFF800F0FDB1011080B5002804D0082351
:103D900024220021FEF7BEFB01BD80B5002804D01F
:103DA00008233C220021FFF7D3FF01BD80B5FFF7B8
:103DB0003DFAADF80000FEF75DFBADF8020000989B
:103DC00002BD11B581B001AC6088FEF757FB2088B9
:103DD000FFF730FA13BD80B5DFF8340A0078012808
:103DE0005BD00120DFF8281A0870DFF8280A800865
:103DF0008000DFF8241A0860DFF8201ADFF8180ABC
:103E00000068091ADFF8180A0160DFF80C0A006878
:103E1000DFF8101A0860DFF8000A016802E00020ED
:103E20000860091DDFF8F0090268DFF8F40900688E
:103E300082189142F3D3DFF8EC090068DFF8E0194B
:103E40000968890800EB8100001F00210160DFF88C
:103E5000D4090068E8210160DFF8C8090068E8308B
:103E6000DFF8BC19096889088900EC390160DFF8BE
:103E7000B8190860002000F011F8DFF8B0190860E8
:103E8000DFF8A0090068DFF8A0190860DFF89009E2
:103E90000068001FDFF89819086001BDF8B506003A
:103EA00000270024361D16F00300C0B2002804D0FD
:103EB000361D31000600F6B28E1BFFF777FFDFF8E4
:103EC00074190860112E03D2DFF85C09056802E05E
:103ED000DFF858090568286805E001242F0005442B
:103EE0002868002815D0002803D590F00040002451
:103EF000F5E7E4B2002C09D03A6829688A183A60DC
:103F00003968B142EBD33D00286803E0B042E4D306
:103F100000E00025002D1DD0801B04280DD305EBEB
:103F20000601086056F000402860DFF804090068C8
:103F3000861BDFF8FC0806600BE0DFF8F408016878
:103F40002868091ADFF8E8080160286850F0004086
:103F500028602D1DDFF8DC080068FFF732FF28001D
:103F6000F2BD10B50400FFF721FFDFF8C8180860A4
:103F7000211F086820F000400860DFF8B4080268DC
:103F800008688218DFF8A8080260DFF89C0800685B
:103F9000814202D2DFF890080160DFF898080068DB
:103FA000FFF70FFF10BDF8B50027002400260025FD
:103FB000FFF7FCFEDFF87C180860DFF87008016886
:103FC0000CE0060001240F0007E0002813D590F054
:103FD00000400024B54200D23500014408680028A2
:103FE000F3D1B54200D23500DFF848080068FFF78A
:103FF000E8FE2800F2BDE4B2002CE2D03A68821854
:104000003A608619E9E710B50400DFF81408006883
:104010002060DFF81C0800686060FFF7C4FFA06044
:10402000A068092803D3A0680838A06001E0002038
:10403000A06010BD80B5FFF7CEFE4BF6BE2002BDDE
:1040400080B50800FFF72AFF02BD80B50800FFF722
:1040500088FF01BD02B56846FFF7D5FF01BD01200D
:10406000704738B50500FFF7A1FE0100002408E005
:10407000DFF8440A0C2202FB04F2805885420FD07C
:10408000641C032C07D2DFF8300A0C2202FB04F276
:1040900080580028ECD10800FFF793FE002032BDC5
:1040A0000800FFF78EFEDFF8101A0C20444301EBE6
:1040B0000400F4E770B50500FFF778FE0400002661
:1040C00008E0DFF8800A0C2101FB06F14058854228
:1040D00021D0761C032E28D2DFF8680A0C2101FBC0
:1040E00006F140580028ECD1DFF8581A0C2046435E
:1040F0000E4435600020B06000210020FFF734FE40
:1041000070607068002801D100F03CFD2000FFF7CE
:1041100058FE30000DE02000FFF753FEDFF8241AB0
:104120000C20464301EB060003E02000FFF749FEA8
:10413000002070BD38B50400FFF738FE01000025EF
:104140000AE02000DFF8002A0C2303FB05F3D25A13
:1041500080B290420FD06D1C062D07D2DFF8E8091F
:104160000C2202FB05F2805A0028EAD10800FFF772
:1041700028FEFF2032BD0800FFF723FE2800C0B252
:10418000F8E780B580B2FFF7D5FFC0B2FF2801D1B4
:10419000002005E0DFF8B029C0B20C2148431044EC
:1041A00002BD10B504002088FFF7EBFF01000029D5
:1041B00002D15FF0FF3008E08868002802D17FF06C
:1041C000010002E020008968884710BD80B5020028
:1041D000DFF87809904701BD80B500200FE000218D
:1041E000DFF8D4280C2303FB00F3D1500021DFF8C3
:1041F000C8280C2303FB00F31A449160401C0328D9
:10420000EDD3002007E00021DFF83C290C2303FB5D
:1042100000F3D152401C0628F5D3FFF7DCFD01BDA9
:10422000F0B58FB0FFF702F8060000242FE06846D3
:10423000FFF7B3FDDFF8180950F824000690DFF807
:10424000140950F824000890DFF80C0950F82400F5
:104250000490DFF8080950F8240005900022694610
:10426000DFF8FC08FFF784FD0500002D01D100F008
:1042700089FCFFF79BFD07002800FFF71BFF0028C4
:1042800001D100F07FFC3800FFF79BFD641C002C7F
:10429000CDD03000FEF7CEFF0FB0F0BD38B5040032
:1042A0000D00FFF783FD002145F80C1C2168002953
:1042B00001D1256009E0226801E052F80C2C52F887
:1042C0000C1C0029F9D142F80C5CFFF77AFD31BDD6
:1042D00038B504000025FFF769FD2168002909D0E1
:1042E000256855F80C1C2160002145F80C1CFF21A5
:1042F00005F8021CFFF765FD280032BD38B5050042
:104300000C000020FFF752FD002C0BD0220001E032
:1043100052F80C2C52F80C1C0029F9D1296842F8EB
:104320000C1C2C60FFF74DFD31BD80B5FFF724FD5F
:10433000FFF797FE002802D17FF004000AE08168B1
:10434000002901D1022005E05FF000414068FFF73D
:1043500007FD002002BDC0B2062813DADFF8E82707
:10436000C0B20C2303FB00F3D25A002A0AD0DFF8B4
:10437000D827C0B20C2303FB00F3D25A4FF6F873D0
:104380009A4202D15FF0FF3007E0DFF8BC37C0B2DD
:104390000C225043185A088000207047D0B50C00FA
:1043A000020000234FF47A760027A6FB020106FBE9
:1043B000031107FB0211DFF8AC271268002300F09D
:1043C000E5FB5FF000420023994205D301D89042FB
:1043D00002D37FF0020001E020600020D0BD80B554
:1043E000010088684968884701BDF8B505000E00DE
:1043F000FFF7C2FCFFF75EFE0400002C04D100F0C2
:10440000C1FB7FF0030035E0FFF7D0FC070000217F
:1044100000E0491C062926D2DFF82C070C2202FBFB
:1044200001F2805A0028F4D14FF6F870DFF818270F
:104430000C2303FB01F3D052DFF80C070C2202FB24
:1044400001F2104444600020DFF8FC260C2303FB3B
:1044500001F31A4490602970606830603800FFF7FB
:10446000B0FC002006E000F08DFB3800FFF7A9FC4F
:104470007FF00300F2BD80B50C38FFF772FD01BD7F
:1044800070B5040015001E00080080B2FFF752FE50
:10449000C0B2FF2802D15FF0FF3008E033002A00ED
:1044A000D2B20100C9B22000C0B200F0C0F870BDA5
:1044B00070B582B0050016003200280000F0FDF84B
:1044C0000400002C11D169462888C0B2FFF743FFD1
:1044D000002805D03068FFF7CEFF7FF0050005E02B
:1044E000BDF800002880FFF720FF200076BD38B51A
:1044F0000500FFF741FCFFF7B4FD040000F0BEFB30
:10450000C0B2002802D0C0B2012802D17FF004005E
:1045100022E0002C02D17FF004001DE0002D0CD120
:1045200000200090009B5FF0004200216068FFF7D0
:1045300013FC00280FD000200EE015F1010F03D16D
:104540005FF0FF300090EDE769462800FFF726FF97
:104550000028E7D000E0012032BD80B55FF00041C7
:10456000FFF7FEFB002002BD2DE9F84305000E0019
:1045700017009846FFF700FCFFF79CFD0400002C95
:1045800002D17FF0020043E0FFF710FC81460021DA
:104590000AE02800DFF8B0250C2303FB01F3D25A10
:1045A00080B2904227D0491C06292AD2DFF898050C
:1045B0000C2202FB01F2805A0028EAD1DFF88805BC
:1045C0000C2202FB01F28552DFF87C050C2202FB73
:1045D00001F210444460DFF870050C2202FB01F286
:1045E0001044866039706068C8F800004846FFF7DC
:1045F000E8FB00200CE04846FFF7E3FB7FF00200F9
:1046000006E000F0BFFA4846FFF7DBFB7FF003004F
:10461000BDE8F28380B580B2FFF740FC02BD80B5F3
:10462000FFF79FFC01BD80B5FFF7EDFC01BD2DE953
:10463000F04180460C0015001E00B6F10C07E4B2F4
:10464000062C04DA5FFA88F8B8F1060F02DB7FF077
:10465000020030E0FFF7AAFBDFF8EC14E4B20C2212
:1046600002FB04F211444968002904D1FFF7A9FBB9
:104670007FF002001FE0FFF7A4FB87F804807C7145
:10468000BD713100DFF8C004E4B20C2202FB04F279
:10469000104440680830FFF701FE5FF00041DFF88A
:1046A000A824E4B20C20444302EB040040684068B4
:1046B000FFF756FB0020BDE8F08170B506000C0046
:1046C0001500FFF759FBFFF7CCFC002802D17FF063
:1046D00004000EE00830FFF7FBFD002801D10220A6
:1046E00007E0B0F10C010A79327049792170286035
:1046F000002070BD80B501208DF800009DF80000FD
:104700000028FBD100F03EFA002002BD80B5FEF784
:1047100051FD02BD80B5DFF84C0400687FF0004118
:10472000A1FB00014FF47A72002300F02FFA5FF032
:1047300000420023994205D301D8904202D37FF072
:104740000040002102BDF8B50D0016001F006946AB
:10475000FFF724FE0400002C01D0200006E00098A2
:104760003B003200290000F002F82000F2BD2DE9E4
:10477000F0418AB005000E0017009846D8F80000F6
:10478000002829D10C20FFF789FB0400002C02D15E
:104790007FF0030038E06846FFF7F6FA0020ADF836
:1047A000100000200590069400236A462900DFF8D7
:1047B000B803FFF7E5FA20602068002807D1FFF76B
:1047C00099FF2000FFF7CDFB7FF003001CE066603F
:1047D000A760C8F800400FE0D8F80040DFF88C036D
:1047E0000068804706002068FDF798FEA76030004B
:1047F000DFF87C130968884729002068FDF792FEDE
:104800002068FDF793FE00200AB0BDE8F0810000AB
:104810007E17002094170020F00C0020FF3F00209E
:10482000F80C0020F40C0020E40C0020E80C002020
:10483000EC0C0020E00C002080B5002802D00068BD
:10484000FDF76CFE01BD00B583B08DF8040068462D
:1048500000F04CFA9DF805000EBD00B583B0019044
:10486000684600F089FA0EBD00B583B00190684635
:1048700000F08FFA0EBD2DE9F04385B080460F00A1
:1048800014001D00FFF778FAFFF7EBFB060000208D
:10489000039000F0F3F9C0B2002802D0C0B20128A2
:1048A00002D17FF0040075E0002E02D17FF00400F9
:1048B00070E0B8F1000F0AD1002001905FF001090B
:1048C000FEF778FC8046019810EB080829E018F103
:1048D000010F03D15FF0FF300190EFE701A94046DF
:1048E000FFF75CFD0028E9D054E0029903A8FFF728
:1048F000D5FC5FF000517068FFF732FA5FF00109F4
:10490000019810F1010F0CD00198002809D0FEF792
:1049100051FCB8EB0000002834D00199814231D31A
:104920000190019B5FF0005200217068FFF714FABC
:10493000002827D002AA69460DF10100FFF7BDFE4D
:104940000028DBD10DF102019DF80100FFF703FD06
:104950000028CAD1029A9DF80010BDF80200B8479D
:104960000028C2D0002C02D0BDF802002080002D0B
:1049700002D09DF8000028700C98029901605FF049
:104980000009FFE7FFF7D1FC039916F10800FFF7D4
:10499000B5FC484605B0BDE8F08338B5FFF7ECF943
:1049A000040000F06BF9C0B2002802D0C0B20128A8
:1049B00001D1FF2019E0FFF7F9F9002509E062496C
:1049C0000C2202FB05F2114449680968A1420DD08E
:1049D0006D1C062D06D25C490C2202FB05F2895A99
:1049E0000029ECD1FFF7EDF9FF2032BDFFF7E9F91F
:1049F0002800C0B2F9E700B583B0ADF80000002090
:104A0000ADF802008DF8061068465A4909688847D3
:104A1000002802D19DF8070000E0FF200EBD1078AD
:104A2000422801D1012000E00020C0B270470CB440
:104A300070B588B004000E000CAD00F01FF9C0B2D4
:104A4000002802D0C0B2012801D1FFF753FE142084
:104A5000ADF8100000200290FF208DF8120006969D
:104A60000595FFF79AFF05AB0322E4B2210089B256
:104A7000C0B2FFF705FD0020019001A800900023BF
:104A800000223D4941F28830FFF7F5FE012802D1AE
:104A9000FFF730FE0AE0002806D10198002805D073
:104AA0000198FFF7E8FC01E0FFF724FE0598006895
:104AB00008B070BC5DF80CFB740C00202DE9F041CF
:104AC00080460C0015001E00B6F10C07E4B2062C5F
:104AD00004DA5FFA88F8B8F1060F02DB7FF0020013
:104AE0002DE0FFF763F91849E4B20C2202FB04F24F
:104AF00011444968002904D1FFF763F97FF00200EF
:104B00001DE0FFF75EF987F804807C71BD7131000C
:104B10000D48E4B20C2202FB04F210444068083055
:104B2000FFF7BCFB5FF00051074AE4B20C2044439E
:104B300002EB040040684068FFF712F90020BDE86E
:104B4000F0810000740C0020980C00209CC3000031
:104B50006CC4000070C4000068C40000A002002003
:104B6000CD41000058C40000DF430000A402002033
:104B7000A8020020AC0200201F4A0000DFF800F06D
:104B80001D9A01100120FFF7F9BF00281B4213D125
:104B9000094236D12AB18446B0FBF2F002FB10C2C2
:104BA000704700F007B9FCD30022002370470B00C8
:104BB0000200002100207047904271EB030CF6D3F5
:104BC00070B5B1FA81F4B3FA83F52C1BA340C4F19C
:104BD000200532FA05F63343A2405FF00046E64076
:104BE00002E05B085FEA3202841A71EB030524BF1E
:104BF000204629467641F4D302000B003000002104
:104C000070BD012ACFD970B5140C20D0B1FA81F44F
:104C1000B2FA82F5C4F120046419B4F12006D6D3A7
:104C2000B2405FF00044F440002502E052085FEA21
:104C30003303C61A71EB020E24BF3046714664413D
:104C40006D41F3D302000B002000290070BD0C461B
:104C5000B1FBF2F102FB11452D0445EA1045B5FB0D
:104C6000F2F402FB145580B240EA0545B5FBF2F0C0
:104C700002FB105240EA044070BD01280148007D4B
:104C8000704700BFA401002010B5040002E0C0B2CC
:104C9000FDF7C8FDB4FA84F0C0B220280CD0D0F1E2
:104CA0001F00012181404C40C0B20528EFDBC0B29B
:104CB000401FFDF7CCFDEDE710BD10B5040002E08C
:104CC000C0B2FDF74AFDB4FA84F0C0B220280CD07F
:104CD000D0F11F00012181404C40C0B20528EFDB1C
:104CE000C0B2401FFDF74FFDEDE710BD10B5040049
:104CF00001206071207900281DD0FFF757F80400CB
:104D00002A480078FF2805D12000FFF75AF87FF0E5
:104D1000060030E025480078401C244908702348EC
:104D20000078012803D122480068FFF7ADFF20007A
:104D3000FFF747F81EE0FFF739F81C49097800290A
:104D400004D1FFF73EF87FF0070014E01749097817
:104D5000491E164A117015490978002908D1FFF734
:104D600030F813480068FFF7A8FF0020607101E0E9
:104D7000FFF727F8002010BD80B5416811F07F4F84
:104D800002D07FF0020003E04068FFF77DFF0020C3
:104D900002BD80B5416811F07F4F02D07FF0020064
:104DA00003E04068FFF789FF002002BD7F17002065
:104DB000B402002070470328DFF800F01D6E0110D8
:104DC000DFF800F04D71011080B54FF4FC720FF266
:104DD00078011A48FEF732F901211948417400227E
:104DE00002210270C17601BD2DE9F0410FF250227F
:104DF00014493820136854689568D6681769D2F842
:104E000014C0D2F818E0D2F81C800B604C608D60A2
:104E1000CE600F61C1F814C0C1F818E0C1F81C8061
:104E200020322031401EE5D150689368D468126862
:104E30000A6048608B60CC60BDE8F08148040021C6
:104E40005903002100C00021410500217D050021FA
:104E50002D06002170B51D46004C204787B200008A
:104E600010B5014800470000D509000070B5614C3D
:104E70006148254650358047022809D14034E188F1
:104E80005E4A914204D1E97C890601D4911DE180FA
:104E900070BD70B557495A4A084650300378002B08
:104EA00010D08379012B0DD1037C5B09DB0709D07E
:104EB000097D544DC1746C7F202020436877904752
:104EC0006C7770BDFF21C174904770BD10B54E481E
:104ED000484C804702280ED121464031CA88474BB2
:104EE0009A4208D1CA7C5209D20704D0227D920688
:104EF00001D49A1DCA8010BD70B53E484349403068
:104F0000C07C4009C00707D03E4D41482C8B204350
:104F1000288388472C8370BD884770BD10B53B48F7
:104F2000344CAC388047214653310A789309DB076B
:104F300005D04034A2730A7803231A430A7010BDC7
:104F40002C4940310871182812D004DC0A280BD0F3
:104F50000B2804D10AE025280CD02A280CD02D4992
:104F600080004018C06870472B4870472B48704736
:104F70002B4870472B4870472B48704770B5044644
:104F80001C484E252D5CAE09F60716D0067D30076D
:104F9000000F052803D00120054202D00DE00220B9
:104FA000FAE7E80905D0700603D54868800F0128A4
:104FB00003D05B085B0052085200062B03D0102080
:104FC000022B11D011E0FB20024002232046FFF704
:104FD00041FF002807DAC100611A2039497E1422F6
:104FE000114200D1002070BD024303432046FFF769
:104FF00031FF70BD4401002137CB000004140000D4
:10500000EBC80000A8000021F5B4000053AD00007B
:105010002020000080DF00001D050021F904002190
:10502000CD040021930400216D04002110B5034C30
:10503000FFF716FF20680028FAD110BD00110440C8
:1050400068610000F825F965F975450045004500DF
:105050002600260057A3520052004C00401F401F5C
:10506000401F3F000000000030400040014003406E
:1050700007400F404F40CF40CF41CF43CF47CF4FA6
:10508000CF3FCF2FCF1FCF0F000000000000000048
:1050900000000F00080000003F00000040003F003B
:1050A0000000040068000E00DC00060043001A0047
:1050B00005000000000002000000000000000000E9
:1050C0000400C00000000400C00000000700000051
:1050D00000000000000000000000000000000000D0
:1050E000304000400140034007400F404F40CF4058
:1050F000CF7FCF6FCF5FCF4FCF3FCF2FCF1FCF0F00
:10510000000000000000000050C00091007070C05E
:105110000091007082312100319110B10070018145
:1051200001B100A18231329110B101911110418180
:1051300041227740F106007051C0019130181039BA
:10514000833108D01831416F3100319110B183148F
:10515000141683680070251050C00091F4C340C13C
:105160002014036F311041045082F02298405126E0
:1051700022C082312100319110B1633931104104D4
:1051800082C082312100319110B163393110A2C047
:1051900082312100319110B1501015310514059262
:1051A0000070676452C0311031066131C1026A6417
:1051B00012C13110213971065131E1026A64007067
:1051C00051C0019101CCE2C06A64676411C1C2C0E0
:1051D0006A6450B054B0007140804022D64400222E
:1051E000C94060B08180111EC944007054A064B0F1
:1051F000F0800022C9404012B09032B070C1DF6828
:1052000011C122C16A6470C1E46851C00191E2C059
:10521000823160820200329110B130C2EE68538256
:1052200053395339B16460C3F4688012B09032B01E
:105230000070676401C122C16A6401C1C2C06A64AE
:105240005382B164C012B09032B00070676472C211
:1052500081C06A6422C111C16A6402C011C16A645A
:1052600062C031C36A6462C311C16A6402C311C1FE
:105270006A6453825339B164E2C36F6411221C41E2
:1052800042C281C86A6452C211C16A6472C2E1CE6C
:105290006A6402C281C86A6402C201C86A64B0C09A
:1052A00030690070676442C201C86A6452C211C0AA
:1052B0006A6472C2E1C06A6402C001C16A6462C009
:1052C00001C36A6422C101C16A6462C301C16A6424
:1052D00002C301C16A645382B16400708180111EEF
:1052E0005C4150B054B00071408040225D4154A0F8
:1052F00064B0F1800122514500700022514160B03C
:105300004E610000000000000000000000000000EE
:10531000067305720B720E7250B00071818060B01E
:1053200050A09280F0EFF19202936A6741228C457F
:105330008080F1C11004301601110114016CB561B7
:10534000B661B761B861B961BA61BB61BD61BF6186
:10535000C161C36126632D63F0C002043231412A6A
:105360001214321601112114016CDA61C561E06179
:10537000C761CB61B561B561B561F461C561FA61C1
:10538000C761CB61B561B561B561F461C561FA61B1
:10539000C761CB61B561B561B561E761C561ED61BB
:1053A000C761CB61B561B561B561CF61CF61CF61D7
:1053B000CF61CF61CF61C064CF61F964CF61066511
:1053C000CF613265CF617467CF611166CF61C06410
:1053D0004E65F964CF61066511663265CF618280E2
:1053E000E0DFF2926A67B0B0D661B1B006730572C1
:1053F00030B06C61D0CF6A6784C203C0C0C37C6424
:10540000207851788278E3781579B6780062C0CF39
:105410006A6784C203C0C0C37C64307861789278C4
:10542000F3781579C6780062B0CF6A6784C203C08A
:10543000C0C37C6440787178A27803791579D678F6
:1054400010922192329243925492659256911FC0CB
:10545000FF914039F006011010311014009270676E
:10546000CF61E3B054A0F08050221A464080002261
:10547000BE461262E3A000C86091598150B091808D
:1054800041228E46A0CF6A67128282318239423928
:105490008B641282F2062F101F312F141682D6222F
:1054A000334640C1346200C520140D6F6D39DE10E3
:1054B000F4C34E0482C082312E006D39A2C0823105
:1054C0002D001A828A39FA062082803180390BC079
:1054D0000B18BC10AC18038239149B141082F00610
:1054E000011010311014518110140C14C622C94639
:1054F00031D0C1266462021011C0013010C0011801
:10550000021882312100C126919103B013B063B01B
:1055100053B041800122BE46B481C491D581B51CEF
:10552000774E95186591F080102269428C623D910A
:1055300010B13E9110B1E08000228146E622814206
:10554000E0B0951865910F925981F914F0805022BE
:10555000114210228C464D6390CF6A6763B052A00F
:105560003082F2C02004021011C0013010C00118B6
:10557000021882312100C1269191919113B003B09C
:1055800063B053B064B054B0007141800122BE4694
:1055900063B064B0F08050221142B181C191D181D9
:1055A0009118619131B0A4622967E0A05981058208
:1055B000591480C0007163B0BA6A6962E3A00182C5
:1055C00062818231823D80EFF19202936A6703A08B
:1055D000007037824739873930828039F0060210EF
:1055E00011C0013010C00118021882312100C126FB
:1055F000819102B012B030824039F006021011C021
:10560000013010C00118021882312100C126919189
:1056100003B013B063B053B0007153A062B052B086
:1056200041800122BE46A481C491D581B51CFE4EA5
:1056300095186591F0801022F0428C62B481C4917B
:10564000D4814518751C084FF0801022F0428C62FE
:105650003D9110B13E9110B1E08000221247E62248
:105660001243E0B065910F925981F914F0805022F5
:10567000114210228C4630632967E0A059810582CF
:105680005914F0C0007162B0226BF062A2808B648A
:10569000CF6112824239F2068B6050B00071CF6147
:1056A00070CF6A67408241800122BE46A481C491C6
:1056B000D58195186591F18011228C46336B41801C
:1056C0000122BE46A481C491D581C51C1C4B9518EE
:1056D0006591F08010223F438C6260CF6A67408200
:1056E00041800122BE46B481C491D581951865914F
:1056F000F18011228C46506B41800122BE46B4815C
:10570000C491D581C51CB44A95186591F0801022CA
:105710005C438C62E092D08200226B47C0B2007082
:10572000A080F022874330B002C1623101C0A08066
:10573000001E8043F022814380F86031603981632C
:105740002010101A136F236E11161216826B007040
:105750002DE9F84FDFF8BC92AF4989F8000000202E
:1057600008600921AD4801700D2141804FF4087196
:105770008180AB48AB4901608A7EAB480270FF2A4A
:10578000CB7E437008BFFF2B0C7F84704E7FC670AA
:105790008D7F0571C97F417114D1FF2C08BFFF2E89
:1057A00010D1FF2D08BFFF290CD1A0490A78027043
:1057B0004A7842708A788270CA78C2700A79027117
:1057C000497941719A490278DFF868A2DFF868B236
:1057D0000A70FF2642784A7082788A70C278CA704E
:1057E00002790A714079954A48718AF800608AF80E
:1057F00001608AF802608AF803608AF804608AF817
:10580000056000208E490880DBF834408D496078BF
:10581000087021781170A0788B4908706169087947
:105820008A49421E0A70E07889490870A06989494E
:10583000086008B900F026F9206A8749086008B9AD
:1058400000F020F9606A8549086008B900F01AF98B
:10585000DFF80C82834C98F8040000F029F92060EE
:1058600000283ED098F805007F4D00F021F928600F
:1058700008B9206832E098F806007C4F00F018F96B
:10588000386020B9206800F01BF9286826E098F8F5
:10589000070000F00DF97649086038B9206800F07B
:1058A0000FF9286800F00CF9386817E063490A78A6
:1058B00098F80000921C504380B200F0F9F86D494E
:1058C0008860216890B9084600F0FAF8286800F06E
:1058D000F7F8386800F0F4F86548006800F0F0F870
:1058E000002000F0CFF84FF480418DE001200871D6
:1058F0002068067321684E73206886732168CE7312
:1059000020680674002021684E742268D072A0229C
:105910002168487103212068C28001720720216834
:10592000487200202268907228212068418201215B
:10593000C176002021684877226882F85E00012045
:1059400021680877226882F85D0029680871286854
:10595000067329684E73286886732968CE73286891
:105960000674002029684E742A68D072296848712C
:105970002A6890724FF4207029680022C88008813C
:105980008A7401212A68D17439680E733A68567393
:1059900039688E733A68D67339680E7400213A6894
:1059A00056743B68D97201213A68117100213B6835
:1059B00059713968C88008810020887239688874F4
:1059C00005203A68D0742C480168884723490A6842
:1059D00006461068804721490A6852F8043F0020B3
:1059E0009847DBF80C101A4B0A88187823490243B1
:1059F0000A80304622490A6890475046FFF7DCF992
:105A0000FFF7DEF94FF4005199F80000BDE8F44FBC
:105A100000F05EB86E4F0020044F0020604E002062
:105A2000084F0020B63F00502C4E0020E8120050D6
:105A30003C4E0020344E0020B8B800007B4F0020C0
:105A40000C4F00206D4F00206B4F0020724F002044
:105A50006C4F0020F04E0020F84E0020FC4E00203D
:105A600070060020104F0020E0130020184F002087
:105A7000E413002078160020A4020020544F0020D8
:105A8000A802002080B5010002BF06490A78012A59
:105A900004D00549054A097813689847BDE80140D4
:105AA00000F07CB8840600208D170020300600200E
:105AB00002490A6852F8343F184700BF60170020B7
:105AC00002490A6852F8383F184700BF60170020A3
:105AD0002DE9F04180462A482A4D06785FEA0860A1
:105AE0000F4632D5042000F05AF8040008BF042005
:105AF00043D04FF6FF702080678000F063F82249A2
:105B0000FF280FBF4E78C96836188E5DFF2EA4F1AE
:105B10000C0707D1204600F05BF8286850F8081FF2
:105B2000884710E0404600F0D0F8FF21B9720146E6
:105B30002D68D5F80080234600223046C047E0B1EA
:105B4000204600F045F8012017E0B04514D20F4878
:105B5000016888470E49096831F81820174321F871
:105B600018700C490A68904729680B4851F8242F8F
:105B700000689047002000E00320BDE8F08100BFEE
:105B80004E9A00006017002020060020A40200208A
:105B9000A4130020A8020020F4130020704710B5C1
:105BA000040001D1002010BD04F10C0080B2FFF709
:105BB0007FFF28B1002101600481FF2181720C3038
:105BC00010BD052A01480078704700BF200600205C
:105BD00080B508B9052002BD10F8021CFF2901D0CC
:105BE000042002BD0C38FFF76BFF002002BD0A0540
:105BF0002DE9F04182B004460E469046FFF7E2FFE1
:105C00004649FF2808BF4F7804D0CA68444B19782A
:105C10000818175C434DFF2F04D1286850F8081F5F
:105C2000884713E0304600F050F80146FF2008F89E
:105C3000020C20002E680CD156F83C4F434600223F
:105C40003846A04770B14046FFF7C2FF0120BDE8CB
:105C5000F681012CF7D13468434600223846A0472C
:105C60000028F0D10020F2E770B50C00064615467A
:105C700018D0300602D500F034F89047284A117841
:105C80008E4204D32046FFF7A3FF032070BDA4F18A
:105C90000C010868002804BF8A7AFF2A04D0204635
:105CA000FFF796FF052070BD8E72012D1E4821461C
:105CB00002D100F051F801E000F062F84FF4004129
:105CC0003046FFF705FF002070BD10B580F080045E
:105CD000022C02DB00F005F8904710482044807841
:105CE00010BD1048016851F8082F704738B50446B8
:105CF0000E4801688847094905468868844206D1EC
:105D000008490B480A68006852F8243F9847094937
:105D10000A682846BDE832401047000020060020EF
:105D20004E9A000060170020E8130020A402002013
:105D3000F4130020A802002080B5020606D50A460A
:105D400001460120FFF754FFC0B202BDBDE8084084
:105D50000022FFF789BF060338B5044606480D4602
:105D600001688847216845F80C1C256003490A68CA
:105D7000BDE83240104700BFA4020020A802002066
:105D800038B504460B480D4601688847002145F8A0
:105D90000C1C226812B9256006E00A4652F80C1C59
:105DA0000029FAD142F80C5C03490A68BDE8324088
:105DB000104700BFA4020020A8020020881700207E
:105DC0008B1700208A1700208C17002089170020CD
:105DD000B8B8000078160020700600208A4B00003A
:105DE0007A4C0000C25B0000B64D0000B15A0000C2
:105DF000C15A00002DAC00009592000025C20000A1
:105E0000A59A00009F5B0000D15B0000395D000097
:105E1000C1AB0000D15A0000C1B700004DBD000069
:105E20007B3C00001331000059C00000E19D0000E0
:105E3000A99900007DB80000E1990000EDC00000C4
:105E4000C5A6000089C4000081C30000F5B20000AF
:105E500081AF00009D5B0000855A0000F1A7001093
:105E600091BB0010A5BC00108DBA001075A80010E1
:105E7000CDC30000EDBC0010B9A90010F1A90010BD
:105E8000D9C30000B1BA001005AB00101DA9001065
:105E90004594011079BD001051BD001021BE0010C5
:105EA00039A800107DA90010E5C30000FDA700106F
:105EB0002DBC0010A1B2000021AE0010A9AF00104F
:105EC0008DAF001089AB001079B00010BDB000108C
:105ED00041AC001081AC001009AC0010E5AB001023
:105EE00061AC0010F949001071BE0010955F001000
:105EF000D9490010615F001049C7001079520010A5
:105F0000FD5A0010855E0010BD4B001099AA0000DC
:105F100035CB00106D9500000D8F0000154D001061
:105F200095C6001001CA001069CA0010B55A0010C9
:105F3000615A001021C90010954A001059C3000091
:105F400069490010B54A00105DB9001001570010F2
:105F5000C16100108D490010814C001051BE00003D
:105F60007D4B00104D61001025C80010D14B001072
:105F7000ADC8001001B50000ED4A0010314C001012
:105F8000614A00108951001029520010E5BE00102E
:105F9000254A0010B59600006594011019A2000072
:105FA0009D550010B1920000AD4900101959001024
:105FB00095570010395700104D60001045490010EA
:105FC000814D0010FD610010F97201109D720110E9
:105FD000F9730110857401106173011021720110B1
:105FE0000D72011035720110CD710110E5710110B3
:105FF00059720110AD7101107D6D0010C16D00105E
:10600000C1680010996D0010C5680010C9680010C3
:10601000BD6C0010C1C20000756D0010596E0010FB
:10602000796D0010B96C0010C1C20000C1C200003F
:10603000C1C20000256E0010A1680010216E001082
:10604000556D0010056D0010D9B90010ED6D0010F0
:10605000996C00108D6B001029690010956C001070
:1060600061B9000039C00000596800101D6C0010B3
:106070004169001051BB0000A98C0110B18B0110C7
:1060800009C10000F98D0110518C0110258C0110FF
:10609000118C0110818B0110418D011099B9000004
:1060A00051A500105DA50010A9A50010ADA5001018
:1060B00065BF0010096300107D6300106962001065
:1060C00035630010BD630010AD9300107193001094
:1060D000B5900000DD930010BD8800107DB7000072
:1060E000BDB2001089B2001019680010F9C000108C
:1060F000D567001015C000106DB100104DB2001032
:106100006DB20010B9A70000E1B00000519A000084
:1061100019C4000055B50000D9BB000095AD0000C2
:10612000A5B50000296D0110217001105DB30000BC
:10613000716D0110896E0110016F0110596E01100F
:106140008DA3000039710110359A0000399C0000C0
:1061500011A300004DB10000718D0010F1800010FE
:10616000B98000103D990110018B001035440110D9
:1061700041C100007984001085830010A9850010BA
:10618000B986001099860010D5C20000097F001062
:10619000AD7E00109186001069860010818B001082
:1061A000B5A3000035860010D19D000059A0000065
:1061B000799F0000C1C20000B1970110F57F001067
:1061C00025C10000757000109D920010A19800007C
:1061D000D1920010B9950010E1850010B57F001034
:1061E000DD860010053F01108D820010697F0010D0
:1061F000DD97000041990000B1700010B59F0000CC
:1062000065A000004989001049800010B58E00008B
:10621000098B0000C18C0000297800109D890010B6
:10622000D5890010099500102D7A0010897C001086
:10623000DD7C001059760010B9940010753B0110F8
:10624000AD7B0010FD8700105D880010397C0010C8
:10625000A58A00107974001075940010ED7A001072
:10626000197B0010E57D0010497E00105D7D001057
:10627000B9970110DD97011001B00000458E0010A4
:106280006D870010057E01104D800110557F0110B3
:106290007D7F01107D7D01103D800110F17F011097
:1062A00019800110E57D0110917E0110D57F01104C
:1062B000E5800110B17F011021800110D57E011011
:1062C0002D540110AD4F0110955001108591011012
:1062D000C59101109D920110759201105950011045
:1062E000D9900110059101105154011091920110A3
:1062F000319201103952011069520110A55001105C
:106300002D500110E54C011091530110B94E0110B0
:10631000BD520110A9520110FD530110215301106B
:1063200085530110895101104D530110DD510110A9
:10633000ED4F0110514F011099500110D14C011037
:10634000D97A0110C97C01103D7C0110317B01100C
:10635000BD7B0110754D0110694E01102D4E0110CD
:10636000F94C0110E952011009530110054E0110BA
:10637000495C01108D5C0110895D0110C95C011040
:106380001D600110A15F0110F95E0110355F011061
:10639000295E01102D5F01106D5E01101161011069
:1063A00079610110398E0110598E0110259001106C
:1063B000BD8E0110818E01101D62011065900110CB
:1063C00045900110815C0110FD5F0110BD5C011062
:1063D000415D0110E55B0110795F0110D15E011094
:1063E000E55D0110155F0110515E0110755E011031
:1063F000FD8F0110518F0110BD8F0110F18E011022
:10640000918F01102D8F0110318E0110E961011063
:10641000ED8F011071600110999001104D810110F4
:106420000584011089840110BDFD001055FD001088
:1064300005FE001089FA0010CDFF00104183011005
:10644000BDFE0010ADFE00105D83011011FC0010B8
:1064500059FC00105D0601101D060110B1830110EA
:1064600035060110A9820110190501106D020110F5
:10647000190601109D030110710201109D04011005
:10648000C1030110F90301109D050110F5810110F0
:10649000E1810110E90401102104011021810110A2
:1064A000850601108D8301101D070110E106011002
:1064B000B9060110E90001109D060110AD000110A0
:1064C0000D83011021830110C9000110D50C0110AA
:1064D000C1C20000C1C20000D5140110091401108E
:1064E000F90801104D130110C1C20000D9120110AA
:1064F0007D0A011005120110C1C20000DD0D01105E
:10650000D50B0110D50F0110A90E01105D0D011062
:10651000C1C20000C1C20000C1C20000651101106B
:1065200099450110A5850110F5840110FD88011021
:106530002918011071890110B58A0110098B011009
:10654000118A011009890110498B0110418701103E
:10655000AD870110A58701107D8701107587011097
:10656000698701108587011009870110798601105C
:10657000BD860110E98701108D1C0110C11D01109D
:10658000011E0110751F0110FD1E0110E1190110FF
:10659000F91A0110C11A0110F9200110251E01106D
:1065A000351C0110811E01104D190110191901101F
:1065B000B51C0110851B0110F91B0110AD950110D0
:1065C000499501102595011029950110A1950110FB
:1065D00035950110DD9301108593011099930110F9
:1065E00001940110FD4901106D470110BD4A0110D1
:1065F000894A0110C9490110394A0110714A011034
:10660000514C0110B5490110E54B01101D4C011012
:10661000A14B0110BD4701108148011051490110E3
:10662000B1480110754C0110C1C200006524011071
:10663000C1C2000091EB0010EDEA0010212501100D
:106640001577011065770110C176011089270110B7
:106650007D28011061280110073C0000452401102D
:1066600059240110B12301100DBC0000A521011017
:10667000C33000005D22011025260110952801106D
:1066800061290110012B0110452C01106523011017
:106690004D2301104D28011019F80010CDF90010FC
:1066A00085F9001011F9001015F2001099F300108F
:1066B00029F10010B9F20010D9F0001049F10010D2
:1066C00065F4001065F50010A1EC0010F1EE00106B
:1066D0008DF5001055F80010C1F8001099F8001061
:1066E00069F80010FDF80010EDEC001025EE001028
:1066F0005DF0001099EC0010F99000008DF1001091
:1067000035F40010F9ED001039FA0010F1F900101D
:10671000BDF10010BDF0001049BC00005DF3001099
:1067200001F5001031EF00101DF00010653301106D
:10673000CD3401103D35011041360110FD350110F9
:1067400089350110653101105134011035330110C4
:10675000ED31011061300110A1360110AD6401105E
:106760007965011049650110E56401100D6401109F
:10677000D96601107D6401106D6601104564011039
:10678000556201107D6201106962011025660110D9
:10679000ED650110C9640110C96501109D65011006
:1067A000296701101165011029640110F5660110B7
:1067B0008D6401109D660110616401102D6301104C
:1067C00049660110096601103D670110DFF800F00D
:1067D00019AE011080B5002804D008233C22002106
:1067E000FDF7B6FA01BD7CB50E001400002580B29D
:1067F000010040F20232891A16D0491E50D0491EBB
