:1000000040430020AD88000001CA011001CA011060
:1000100001CA011001CA011001CA011001CA011070
:1000200001CA011001CA011001CA011001CA011060
:0C00300001CA011001CA01103FCA0110F2
:10003C0021490868C2430A600A680242FAD1704733
:10004C001E490A68002AFCD1CA610860C8690028E8
:10005C00FCD00020C86148687047194801686FF0EF
:10006C000202114041F400710160032115488160C6
:10007C0041F2300141610121C160502141610121F6
:10008C00C1604FF4CA6141610121C16001607047D8
:10009C000D4802680A6082684A60C2688A60406BD8
:1000AC0020F0784040F08050C8607047704701469F
:1000BC001022064802F076BA1010044000100440DA
:1000CC0000000460004104404C1300501800002153
:1000DC007047012070470000200000000A0000005B
:100100003C0000000000000000000000340100007E
:1001100000000000000000000100000000000000DE
:1001200000000000000000000000000001000000CE
:0C013000000000000800000000000000BB
:10013C003400000000000000000000006801000016
:10014C0000000000000000000100000000000000A2
:10015C00010000000000000000000000080000008A
:04016C00000000008F
:1001700030000000000000000000000098010000B6
:10018000040000000000000001000000FFFFFFFF6E
:10019000FF00000001000000080000000000000057
:1001A0002C0000000000000000000000C40100005E
:1001B000040000000000000001000000FFFFFFFF3E
:0C01C000FFFFFFFF08000000000000002F
:1001CC0034050000E401000099A1011095A701106D
:1001DC00A5C2011009B2011045B8011000000000C1
:0801EC00000000002F000000DC
:1001F40028000000000000000000000014020000BD
:100204000000000000000000FFFFFFFF00000000EE
:080214000800000000000000DA
:10021C00300500003002000069C201106DC10110F0
:10022C001FC2011095BA0110000000000000000070
:04023C002D00000091
:10024000300500005402000075C20110A9B601106B
:100250009DBF011049B60110000000000000000021
:040260002E0000006C
:1002640024000000000000000000000080020000E4
:100274000000000000000000000000000800000072
:040284000000000076
:10028800240000000000000000000000A40200009C
:10029800000000000000000000000000080000004E
:0402A8000000000052
:1002AC00240000000000000000000000C802000054
:1002BC000000000001000000000000000800000029
:0402CC00000000002E
:1002D00000000000180400200400000000000000DE
:1002E000000000002000000070010000300000004D
:1002F0001C02000038040020040000000000000080
:10030000000000000C000000300400001800000095
:100310004002000040040020040000000000000033
:100320000000000024000000480400001800000045
:100330000000000080040020040000000000000015
:100340000000000010000000A00100002C000000D0
:10035000CC01000088040020040000000000000020
:1003600000000000200000006402000024000000E3
:10037000FFFFFFFFA80400200400000000000000B1
:100380000000000028000000880200002400000097
:10039000FFFFFFFFD8040020040000000000000061
:1003A00000000000580000003C0100003400000084
:1003B000FFFFFFFFE0040020040000000000000039
:1003C00000000000100000006004000018000000A1
:1003D000FFFFFFFFE8040020040000000000000011
:1003E000000000001C000000AC020000240000001F
:1003F000FFFFFFFFF00400200400000000000000E9
:100400000000000038000000F40100002800000097
:10041000FFFFFFFF5805002004000000000000005F
:100420000000000054000000000100003C0000003B
:100430001800000000000000000000004004000060
:080440000800000000000000AC
:100448001800000000000000000000005804000030
:08045800080000000000000094
:100460001800000000000000000000007004000000
:0804700008000000000000007C
:0804780001000000F088000003
:01048000007B
:040484000100000073
:0404880000000E0062
:04048C0000000F005D
:040490003200000036
:040494000100000063
:04049800200400201C
:04049C00000200005A
:0404A0000000000058
:0404A40001CA011078
:0404A8000000000050
:0404AC00000000004C
:0404B0000800000040
:0404B4000000230021
:0404B80048040020D4
:0404BC00010000003B
:0404C0009004002084
:0404C400080000002C
:0404C8000000000030
:0404CC00000000002C
:0404D0000000000028
:0404D4000000000024
:0404D8000000000020
:0404DC00010000001B
:0404E000F8040020FC
:0404E400060000000E
:0404E800010000000F
:0404EC006005002087
:0404F0000000000008
:0404F4000000000004
:0404F80000020000FE
:0404FC0000000000FC
:020502002900CE
:020504000100F4
:020506002500CE
:020508002D00C4
:02050A002E00C1
:02050C002F00BE
:02050E000100EA
:0105100001E9
:0805140004000000D88800007B
:08051C000000000000000000D7
:0405240000000100D2
:0405280000000300CC
:04052C0087C401106F
:04053000380500008A
:040534003805000086
:0405380000000000BF
:04053C00900000002B
:040540009000000027
:0405440000000000B3
:0405480090040020FB
:04054C00F1F00100C9
:040550002000000087
:04055400C488000057
:04055800B086000069
:04055C000DC30110BA
:04056000FD1B00007F
:04056400FF1B000079
:0405680099C801101D
:04056C009BC8011017
:040570000000000087
:0405740080040000FF
:04057800F08500000A
:04057C0008860000ED
:04058000D88500001A
:0205840008006D
:0205860009006A
:02058800010070
:02058A0000006F
:01058C00016D
:040590000000000067
:040594000000000063
:04059800000000005F
:04059C00000000005B
:0405A000491B0000F3
:0405A400691B0000CF
:0405A8006D1A0000C8
:0405AC00931B00009D
:0405B000B51A000078
:0405B4008B1A00009E
:0405B800E71A00003E
:0405BC00BF1B000061
:0405C00069F00100DD
:0405C400B5F101008C
:0405C800B9F1010084
:0405CC000800000023
:0405D0002400000003
:0405D400180000000B
:0405D80028000000F7
:0405DC0020000000FB
:0405E0003C000000DB
:0405E4000C00000007
:0405E80034000000DB
:1005EC00DFF800F049C10110DFF800F019C201106A
:1005FC00DFF800F041AC0110DFF800F0CDA00110E5
:10060C00DFF800F085C10110DFF800F0C1C2011065
:10061C00DFF800F0E3BF0110DFF800F0C1C10110FA
:10062C00DFF800F009B70110DFF800F03DC1011050
:10063C00DFF800F029AF0110DFF800F0CDC1011098
:10064C00DFF800F085B00110DFF800F0DDB201102A
:10065C00DFF800F079B50110DFF800F0D5C001101B
:10066C00DFF800F0E1B5011020B1082328220021A9
:10067C00FFF7E2BF704720B1082330220021FFF7BB
:10068C00D3BF704738B500F06FFE25680DB12968EF
:10069C002160FFF7A9FF284632BD70B504460D4610
:1006AC002668002028601EB9FFF79AFF25600DE030
:1006BC00FFF796FF00E0366831680029FBD1AE42A7
:1006CC0003D1FFF791FF002070BD3560FFF78CFF61
:1006DC00012070BD0022DFF8801C01EB4211CB7FA2
:1006EC001B0605D5B1F91C30834201D10846704771
:1006FC00521C082AEFDB00207047F8B500F034FEDE
:10070C000546DFF81C0AC17D0A001CD0491EC175C4
:10071C00C9B2C1B9DFF80C7A082107F14C0001F01D
:10072C0050F984B1B86B703001F059F8B86BDFF840
:10073C002C1CC0680968201A07F1EC0600F0B4FD07
:10074C003046FFF765FF2846BDE8F240FFF74CBF87
:10075C0010B50446207B00F00F00022802BFDFF822
:10076C00C009007D002817D100F0B4FCA1688908ED
:10077C00A1EB90006FF0704188420DDAB0F1704F30
:10078C00BCBFDFF8041B0818DFF89819896BC9681F
:10079C0001F57A71814200DB002010BD38B5DFF81D
:1007AC00EC0ADFF8EC2A0168DFF8784902EA010567
:1007BC00E9430160A90606D54068800603D54FF4CD
:1007CC00005100F090FB15F4602F0BD0A06905F4DC
:1007DC0060210843A061002104F19C00BDE8344075
:1007EC0001F0EFB831BD70B5FFF7FAFEDFF8344910
:1007FC000646A06910F4602F27D0A069C5012D0E04
:10080C00E80748BF002506D4A80748BF012502D435
:10081C00680748BF0225681D40B200F0E2FEA069DF
:10082C00012105F1110291408843A0613046FFF788
:10083C00DBFE04EB85008668300009D0606800227E
:10084C004FF00063691DB04702E03046FFF7CCFE65
:10085C00A06920B1002104F19C0001F0B2F8E07F06
:10086C0080070DD56569280006D0606800224FF01E
:10087C0000436FF00101A847E07F00F0FD00E07736
:10088C0070BD70B5FFF7D4FBDFF89858DFF8D04A8D
:10089C00AB6A024690071DD4D3E90401104007D07F
:1008AC00EB629969084398614FF4804100F0F8FCC1
:1008BC00A86A002849D16E6A002E46D0F068A96B50
:1008CC00884224D005F14C00BDE870404FF48051B3
:1008DC0001F077B80BB9A86AEAE70020A862D3E95F
:1008EC0004019E69024042F0020232439A6162693D
:1008FC0082436261E26822EA0100E060194605F178
:10090C003000FFF7CAFE022100F0CAFCE3E7B06832
:10091C00FFF71EFFA86418B1A86CBDE87040ECE6A8
:10092C00D6E90401626902436261E26841EA0200AD
:10093C00E0600020E061B0682060E0690028FCD035
:10094C0005F12400FFF79EFEAE6270BD0020D4E6D8
:10095C00F8B506461446376E1D4607B1B847A007D2
:10096C0008D4D6E91601204029400022914208BF44
:10097C00904207D0C6E91A4506F13800BDE8F240AE
:10098C00FFF736BEF1BDFEE780B501F00BF8DFF8DE
:10099C0094270146906BD26BBDE80840104710B508
:1009AC00DFF880470FF23D01E06B884202D101F085
:1009BC0033F9206404F14C00BDE81040042101F02F
:1009CC0000B880B5FFF734FBDFF89819084207D060
:1009DC00BDE804404FF00051DFF8A40B00F0F1BF6C
:1009EC0001BD000038B5042951D1DFF83847606AE1
:1009FC00A16B08B1C16803E0E07FC00748BF616824
:100A0C00A1630846DFF8B42A41680B7813601268BA
:100A1C0009788A421CBF8569002D05D000224FF051
:100A2C0000736FF0FF01A847022001F031FA11208A
:100A3C0001F043FADFF8E8060121C176A16B407E94
:100A4C00097C014204BF0E2001F037FAA06BDFF8DD
:100A5C00101940688268002A04BFC068002804D0BE
:100A6C000020C861DFF8C40A086040F2FF70DFF8AC
:100A7C00C02A106000208861DFF8E80848610FF296
:100A8C001100E0631920BDE83240FFF7DDBD31BD38
:100A9C002DE9FF418046880040F19780DFF88456AD
:100AAC00A86B40684068010018BF8047A86BDFF84E
:100ABC00B06840688168002904BFC168002912D061
:100ACC00F1690029FCD00021F1618068010018BF98
:100ADC008047A86B4068C068010018BF8047DFF8EA
:100AEC00A40AFFF7ADFA0020F06108F10807DFF85F
:100AFC00980A30600120FFF7EBFA00220FF21D106C
:100B0C00E86340F60A01DFF8180642800180027B98
:100B1C0002F0F002027300224260427B02F0F0020B
:100B2C0042F00102427300223C68628000E01446ED
:100B3C006268002A1CBF13888B42F8D1606040F6B3
:100B4C000302617B01F0F0016173696A89680988AD
:100B5C0091421CBF40F60402914217D0398BA9B1C7
:100B6C0000217983F96108F12C010A7802F0F00276
:100B7C000A704A7802F0F00242F001024A7008F161
:100B8C0020014160417B01F0F001417369463868F6
:100B9C00FFF77EFA6846FFF78AFA3868FFF786FA9D
:100BAC00F0690028FCD00020F061012001F044FC29
:100BBC00012808D0607B00F0F00040F00100607369
:100BCC000FF20D00E86338683060BDE8FF8100006B
:100BDC00DFF84C0A014200D17047012010B501F03A
:100BEC002BFC0128DFF83C4508D10FF23100DFF86F
:100BFC007017E063DFF82805086010BDDFF8241AD1
:100C0C0009683220EC34B0FBF1F12046FFF7FCFC14
:100C1C002046BDE81040FFF7FBBC00002DE9FE4369
:100C2C0006460D466804DFF8FC4417D5FFF7D8FCE0
:100C3C00E66AB769FFF7D8FCB8070CD45EB1B069A7
:100C4C00B843B061706830B1B6F91C10F0687668C2
:100C5C003A460023B04725F480453DE1A807DFF86C
:100C6C00C0747BD5266B002E70D0B168202001E0BB
:100C7C004968401E79B1C2B26AB10A8840F60303D2
:100C8C009A421CBF40F604039A42F1D1F068182234
:100C9C00203001F097FCB0690021B1617168E1B1BD
:100CAC0040F00202F07F002300F00700012807D07B
:100CBC00022809D0042804BF00224FF0805306E01C
:100CCC0000224FF0005302E000224FF08043B6F9AF
:100CDC001C10F068D6F804C0E047FFF781FC804692
:100CEC00E08E401CC0F30B00E086206BC17F01F04E
:100CFC007F01C17704F13000FFF7C4FC00F0EDFB7D
:100D0C00B4F93610F06800F19402B2F9003099424F
:100D1C0004BF397D002919D1917809B9016821B92D
:100D2C0000209070FFF7E9FC10E0A26B126812F142
:100D3C00010F0BD0DFF824261268B1FBF2F17030F2
:100D4C00FFF762FCF0687030FFF762FC206B002844
:100D5C0025F0020501D045F00205BDE0A80004F124
:100D6C00800840F6090957D5206CB8B1042001F071
:100D7C0063FB98B100F050FF216C814228BF401EEC
:100D8C00401A000B00F58D70F06040F2D761A0F2B4
:100D9C00EE20884224BF40F6C410F060002020648E
:100DAC00D6F818C0BCF1000F0DD0787B0F2108428B
:100DBC0004BF708C484506D100224FF000736FF4CD
:100DCC0080713046E0470022DFF85C18404600F0A6
:100DDC0017FEB87E50B10220ADF800006846FFF750
:100DEC002FF9BDF80800A0830020B876012084F804
:100DFC002000F87D401CF8750020F876192000F0D2
:100E0C0002FE77692FB100224FF08063002130463B
:100E1C00B84725F000555FE0B87F25F0080620B1F3
:100E2C00280702D50020B87743E0280743D50020D7
:100E3C0084F82000012038770020FFF749F90FF2E1
:100E4C00B100DFF8E817DFF8D056E0630022404627
:100E5C0000F0D6FDB97E787E81F00101084202D106
:100E6C00012078760FE0A06CF8B100F0D5FE216C73
:100E7C00626C401A02EB10306064A16CB0EBC11FC5
:100E8C0013D300206064A7F80090787B00F0F0008A
:100E9C0040F00100787300207880387B00F0F0007F
:100EAC003873002078602F6003E04FF0005100F0A1
:100EBC001AF8354610E0A8040ED5A66A002E1CBF01
:100ECC007068002806D0B6F91C10F068766800220D
:100EDC002023B04725F4005515B1294600F003F83E
:100EEC00BDE8F783022104F14C0000F06ABD00005C
:100EFC0070B50646880028D5FFF7AFF8894CDFF8A7
:100F0C003007874DE063687D18B906F13800FFF7AC
:100F1C006FFBDFF81C1600200860022000F04EFF6B
:100F2C00112000F05FFF307C10B90E2000F05AFF4A
:100F3C000020A883287E40B100202876042104F1EB
:100F4C004C00BDE8704000F03CBD70BD30B58DB0BC
:100F5C0000F0B5FEDFF8DC06DFF8DC460168714D09
:100F6C0041F00201016001A8FFF77EFBA078DFF8D9
:100F7C00CC160790002301AA05F14C00FFF760FB8B
:100F8C0001A8FFF778FB0020ADF81C0001AB20781E
:100F9C00DFF89826099019210020009005F18000B7
:100FAC00FFF746FB01A8FFF75FFBE078DFF8901630
:100FBC000790002301AA05F19C00FFF741FB01A853
:100FCC00FFF759FB0120ADF81C0001AB6078DFF88E
:100FDC00742609901A210020009005F1D000FFF72B
:100FEC0027FB00230022DFF8601605F1EC00FFF769
:100FFC002FFBDFF83C06E86301214FF6FF70A88356
:10100C000DB0DFF8480681760021E9774176C1768C
:10101C0081838177296430BD2DE9F041404E04462F
:10102C00707D8EB00F4690461D4618B9FFF78EFFA7
:10103C0001207075002F1CBF6760B8F1000F47D0FE
:10104C00C4F80880FFF7CCFAB17D00293ED101210C
:10105C00B175FFF7C9FA35B909A80FF2206114224E
:10106C0001F0B0FA09AD286820606868E060287A61
:10107C002074E86860612869010018BFA0617821BC
:10108C0004F1200001F0CAFA08232422002168464A
:10109C00FFF7C2FA01208DF818006A46002104F10E
:1010AC003800FFF7BDFA0823242200216846FFF719
:1010BC00A7FA06946B460022DFF8941504F1700031
:1010CC00FFF7C6FA20460EB0BDE8F081FFF78CFAA8
:1010DC000020F8E738B5FFF783FA124991F8201091
:1010EC0031B1DFF874150C68FFF77EFA204632BD7B
:1010FC00FFF77AFA00F090FD10F50030DFF85C2570
:10110C0041F10001A2FB0045054802FB01550169B4
:10111C000020221845EB0103184632BD00000000E8
:10112C003C1600202C1500202DE9F84F80460C466B
:10113C0092469B46FFF754FADFF818558146B5F9ED
:10114C003400B5F93610401AC0F30B0008286FF0C4
:10115C00010648DAA88E401CC0F30B00A886B5F92E
:10116C003400ADF8000000207B4901EB4017F97FFB
:10117C00090604D5401CC0B20828F5DB002708F18D
:10118C00700000F02CFBBC6087F81EA0C7F804B000
:10119C002021BDF80000B883C7F80C80DDE90A23D4
:1011AC00DFF8BC0410401940C7E9040108F19404AD
:1011BC000020F87740F6FF78686A0028394605F178
:1011CC00240008D0FFF769FA40B1BDF8000000F028
:1011DC0061F848464BE0FFF760FA48B9A88E4044E6
:1011EC00C0F30B00A8864846FFF7FEF9304649E0ED
:1011FC00BDF80000DFF8546400F04CF80020A0703B
:10120C0095F82010707F084207D00120B07700209D
:10121C007077B076F07D401CF0754846FFF7E4F926
:10122C00A86A68BB95F8200018B1192000F0EBFBF8
:10123C0026E0F07E20BBFFF7D3F90446307F10B1D7
:10124C000120307612E0B868FFF782FAA86488B102
:10125C00A86CA96BC968401ADFF8C813096805F1B6
:10126C00EC0600F021F83046FFF7D2F92046FFF7E4
:10127C00BBF905E02046FFF7B7F9042100F010F8A0
:10128C00BDF90000BDE8F28FF6FFFF1F0810044007
:10129C0020000E002080F87F40F08000F877704727
:1012AC0005F14C0000F08DBBB0FBF1F13046FFF7BF
:1012BC00ABB92DE9F04106460F4614461D46FFF723
:1012CC00CBF980463846FFF705FA070003D14046B4
:1012DC00FFF7C6F90AE0F87F0721084209D040461B
:1012EC00FFF7BEF90721F87F0842FCD1022000214C
:1012FC0014E07968DFF86C03814202D079683166BA
:10130C007860C6E916454046FFF7AAF94FF0FF3161
:10131C0006F13800FFF770F9D6E91A01BDE8F08143
:10132C00DCB5DDE906670446CDE90067180008BFA7
:10133C00DFF830332046FFF7F7FE002803D50020F6
:10134C004FF00041DCBD0146204602B0BDE8D04064
:10135C0002224FF0E043ACE7F8060020E800000062
:10136C0000100440020000400446FFF739B901E0C8
:10137C0042F002022DE9F843DFF8D842606A00908F
:10138C00894603271546FFF72BF919F1010F05F0D4
:10139C00010680460AD1A06A002819BFA06AB0F9DC
:1013AC001C90E08E00F101090020E0770FFA89F023
:1013BC00FFF790F901007CD0A06A814205F002058C
:1013CC0025D1280003D0606A0090002060620122C1
:1013DC00C87FB2401043C877FFF73EF90746002E8E
:1013EC0014BFDFF88402DFF88402FEF729FE00F058
:1013FC0074F825B906E000F063F800F069F800987D
:10140C000028F8D13846FFF72BF9832753E0009AD0
:10141C008A4204F1EC0016D100F0E1F9280012BF69
:10142C000020606A0068606200F057F8009800F0D5
:10143C0047F800F04DF8009818B32800F6D120E0DA
:10144C00009A12680092009AEAB112688A42F7D1A7
:10145C0000F0C5F9009800681DB1009A00211160D8
:10146C0004E00168009A116000210160009003E023
:10147C0000F026F800F02CF800980028F8D100F0C5
:10148C002CF8832701E000F028F8DFF8C001C17EBA
:10149C0011B1FFF727FD0EE0007F60B9DFF8D00136
:1014AC00E063FFF71FFD94F8200020B96048E0636B
:1014BC0001E000F012F83846BDE8F283D021084074
:1014CC00C07F009940F00400C8776846FFF7DAB88F
:1014DC00014604F13000FFF7E0B84046FFF784B84E
:1014EC0038B5FFF741FF05465A4890F8200068B11F
:1014FC002046FEF7A5FD044600F048F804F0FF0076
:10150C00012801D1812032BD022032BD00F03EF80D
:10151C00012032BD00000000001004400A464D4975
:10152C00896B884201D0032070470AE051000706FE
:10153C00000004600A464749896B884201D00320A9
:10154C00704700211046CBE770B542498A6B904238
:10155C006FF07F0412D191F8200078B1FFF740F8BA
:10156C0005464448FEF76CFD064600F00FF806F001
:10157C00FF00012802D13002001670BD204670BD5C
:10158C00781500200100070601010E042846FFF71C
:10159C002BB870B50E461546FFF722F883242D495B
:1015AC001EB1022E0DD004D30FE08A6A3AB1896ABB
:1015BC0002E0264A927E12B9898B298006E08024AB
:1015CC0004E091F82010297000E00324FFF70CF8D8
:1015DC00204670BD80B50846FFF77CF800B18068E6
:1015EC0002BD38B5FFF7C0FE1A49CA7F520702D5B3
:1015FC008B7F9C4210D001228B8B02FA04F52B437B
:10160C008B830C341C490B68A24023EA02020A604B
:10161C00096809B90D4A1175BDE83240FEF7E4BFFF
:10162C0004000020E80000008F080000CF09000033
:10163C00F109000000200940B48500009509000064
:10164C00F3070000A9070000AB0900003C160020BE
:10165C00590900002C1500200430044000093D00FD
:10166C00F1EFFF9F5D09000001000204010001047D
:10167C00290C0000010003040C100440FFFFFFFFC5
:10168C00C4090000010000000000000093090000E4
:10169C00DFF800F0F5C00110DFF800F049BA0110D6
:1016AC00DFF800F0E5C10110DFF800F013C1011004
:1016BC00DFF800F0F5B80110DFF800F021B30110ED
:1016CC00DFF800F095C00110DFF800F00DA8011054
:1016DC00DFF800F0BDBE0110DFF800F021C10110F1
:1016EC00DFF800F0A5B90110DFF800F021BA011005
:1016FC00DFF800F0BDC20110DFF800F0B5C1011039
:10170C00DFF800F015B60110DFF800F019A7011092
:10171C00DFF800F0D5C20110FEE7DFF89002007D83
:10172C0070476EE038B5FFF7FCFFDFF888520446CF
:10173C00A8680021FFF7C4FF6969081AA9698142EA
:10174C0038BF002084F3118832BD2DE9F041FFF73A
:10175C00E8FFDFF860520446A8680121FFF7B0FFEC
:10176C000121A9830021E9836E6929682A68871BF6
:10177C00801A711A884204D20020A88384F311883D
:10178C002BE084F31188002406E0A61931460120D1
:10179C00FFF79AFF3F1B0446A742F6D2FFF7C1FFA3
:1017AC008046E88B012804D131460020FFF78CFFDE
:1017BC000446A96914F1010F08BF084603D0E01BC9
:1017CC00814238BF08468119FFF782FF0120288427
:1017DC000020A8832E6088F31188BDE8F0810021D9
:1017EC008182DFF8CC11C0684969884204D1DFF8E6
:1017FC00F4010068FEF70CBF7047808A7047704791
:10180C0000BFDFF8E4110968EFF3118081F3118850
:10181C0070470021DFF8D421016012681044FFF7F3
:10182C0047BF38B50446FFF7EBFF0546207C02287E
:10183C0008D12046FFF750FF002020742946A068ED
:10184C00FFF74EFF00F0D6B803681A4003680B4050
:10185C008B4208BF0A4312B10168914301601046E4
:10186C0070472DE9F0411F4617F1010F18BF002FEB
:10187C0092B000F0B3F80AD06B463A46DFF870111C
:10188C0008A8FFF731FF08A80390022002E000200F
:10189C00039003208DF8100006950796FFF700FFC4
:1018AC000290FFF7ADFF8046324629462046FFF7EF
:1018BC00CBFF050009D0039818B1FFF719FF0020E2
:1018CC00039088F31188284632E01FB988F31188F9
:1018DC0000202DE0FFF7DCFE05460299DFF80C0135
:1018EC00C1F818D0694600682044FFF705FF02983C
:1018FC00FFF706FF9DF81000022804BF0398FFF7BE
:10190C0003FF88F311882846FFF7C6FEFFF778FF20
:10191C000446039818B1FFF7EBFE0020039000205B
:10192C000299886184F311889DF8100000B1059824
:10193C0012B0BDE8F081F8B50446DFF8B0000068DD
:10194C000E462718FFF75CFF0546206830432060E1
:10195C003846FFF7A9FE10B185F31188F1BDFFF7EA
:10196C0097FE06463846FFF7D3FE0746FA69B96973
:10197C002046FFF769FF786160B13846FFF7ACFE8F
:10198C0001203874F86808B1FFF729FFB8682946B8
:10199C00FFF7A6FE85F311883046BDE8F240FFF74D
:1019AC007BBE2EE7DFF8540080687047A40100204E
:1019BC007801002078010020616280F311882046B4
:1019CC00704738B504460D46FFF7EBFF616A2943B3
:1019DC00FFF7F2FFBDE83240FFF76EBE04460D463E
:1019EC0016467047E8880000E4000000EC88000010
:1019FC002F18000085F3118831BD0000C8010020AC
:101A0C00816042607047102804D3DFF80C10103846
:101A1C00C1F8000F7047000000E000E000F002BECB
:101A2C00FFF7EFBEDFF89811C20744BF01220A602E
:101A3C00820744BF4FF480720A60400744BF4FF4E2
:101A4C00803008607047DFF87C21C30748BF116005
:101A5C00830748BF5160400748BF91607047000042
:101A6C0010B504460020D4E90A2347F6906101F032
:101A7C00D3F80123994228BF4FF0FF3010BD10B5A9
:101A8C000C4600F0BFF8011D201AB0F1004F05D82C
:101A9C00081BB0F1004F38BF8C4200D20C462146D7
:101AAC00BDE810400120CEE72DE9F04180460A4602
:101ABC00D8E90A01D8E90C45A0FB026701FB0277C3
:101ACC00A6196F41340C002244EA07414046FFF747
:101ADC00D6FFC8E90E67BDE8F081F8B50646FFF7FA
:101AEC009FFF0446DFF8E050DFF8E0700120E8616A
:101AFC00FFF798FFF96A096A142088473069B0F536
:101B0C00802F34BF0421010C0120FFF79CFF3A68A1
:101B1C001268232100209047DFF8B41001200860E0
:101B2C00DFF8B400016821F4E02141F48031016058
:101B3C000120286084F31188F1BD000000F06CB81E
:101B4C0010B5DFF89000446800F006F86069A169F0
:101B5C00BDE8104008470000012063E7F8B50446D3
:101B6C000D4600F059F8D4E90A6732463B4601F0BD
:101B7C0053F83DB1A6FB002306FB013307FB0033F2
:101B8C00C4E90C23F2BD10B5DFF83C00DFF84C4083
:101B9C00002101600121C16121602068FFF7DCFF99
:101BAC00DFF848100968096A14208847206810BDBE
:101BBC00000080B500F030F8000C40EA014002BD96
:101BCC00042009401820094000002443840100101F
:101BDC0080022443E4010020002009402C2009400D
:101BEC00DFF81000C088704700000000B001001042
:101BFC00FEE77047F00100200268531C036011706F
:101C0C007047000009480168426803689942FAD19C
:101C1C00100C40EA0140704710B5044A1368506834
:101C2C001468A3421946F9D110BD000008200940E0
:101C3C0020B1082324220021FEF7E2BC704780B5B6
:101C4C000120009009234FF400720021DFF80807EF
:101C5C0001F09FF801BD80B5002301223421DFF88B
:101C6C00F80601F0A9F800B10120C0B202BDDFF8FE
:101C7C00EC0680687047DFF8E416401890F8ED0029
:101C8C0070470022022904D1012806D140F2EE222D
:101C9C0003E0012808BF4FF47A7210467047DFF852
:101CAC00BC06D0F8DC007047DFF8B00690F8E61000
:101CBC0021B1D0F80C01010018BF004770472DE985
:101CCC00F041DFF8988608F1E1058AB0A879002880
:101CDC0061D10120A871DFF88866DFF88876307B47
:101CEC0068717068C8F80C0101A8FFF7A1FF00200B
:101CFC000690ADF81400079001AB00220FF2F541ED
:101D0C0008F10C00FEF7A4FC01AB00220FF2A1516C
:101D1C0008F13000FEF79CFC01AB00220FF2D94118
:101D2C0008F15400FEF794FCB16801208847DFF8F5
:101D3C00380600787868C0F38154707B20B1032C8E
:101D4C0002D10120287003E0032C18BF022C16D1FD
:101D5C00022000F09DF8032CDFF810160CBF4FF496
:101D6C007A7042F210700968B0FBF1F108F154007E
:101D7C00FEF74AFC08F15400FEF74AFC05E0012C82
:101D8C0003D100F063FAFFF75AFF386840075CBFD5
:101D9C00002000F07DF80AB0BDE8F08110B508B164
:101DAC00140001D1022010BD8160C26003610146A4
:101DBC00DFF8A80501F01AF8002010BD10B5044694
:101DCC00FEF70EFCDFF89415621892F8E8305B1EF3
:101DDC0082F8E830DBB223B98A680123A3409A4326
:101DEC008A6066E02DE9F0410546FEF7F9FB804676
:101DFC00DFF86815681890F8ED20521E80F8ED2079
:101E0C00D2B2002A3FD10FF2A050DFF8644500EBAC
:101E1C0085052E786F88300615D52168096A3846F5
:101E2C0088472168896A384688472168096B384693
:101E3C008847DFF8401501200860DFF83C05006892
:101E4C008007FAD512E0700606D501EB8701002059
:101E5C00D1F80011884709E021688969384688471C
:101E6C002168496B384688470228F9D106F03F00B3
:101E7C003F2818BFFFF7B6FF687800F03F003F28F7
:101E8C0018BFFFF7AFFF4046BDE8F041FEF7ACBB13
:101E9C0010B50446FEF7A4FBDFF8C0148A680123D2
:101EAC00A3401A438A60611891F8E820521C81F80B
:101EBC00E820BDE81040FEF797BBF8B50646FEF7E4
:101ECC008FFB0446DFF89454701990F8ED104A1CFF
:101EDC00002980F8ED2039D10FF2CC4000EB8607B9
:101EEC00387800F03F003F2818BFFFF7E6FF7878FE
:101EFC0000F03F003F2818BFFFF7DFFF7E883878DF
:101F0C00DFF86C7401060ED53968C969304688470C
:101F1C003968496A304688473968C96A3046884703
:101F2C0000F019F812E0400606D505EB86010120F9
:101F3C00D1F80011884709E039684969304688476B
:101F4C003968496B304688470128F9D12046BDE8ED
:101F5C00F240FEF749BBDFF81C1401200860DFF8E3
:101F6C00180400688007FAD570472DE9F04F00245B
:101F7C0083B04FF0000A0128D04618BF012664D167
:101F8C00DFF8D893D9F8DC0001285DD10220C9F81C
:101F9C00DC00FFF77DFB0090012000F062F90600E9
:101FAC0054D1FEF759FBDFF8D81301900C600120D7
:101FBC0000F042FA012804D1002000F0A7F94FF0FC
:101FCC00010ADFF8C013DFF8B4030C6000681120BD
:101FDC00FFF751FE08B14FF001081020FFF74BFE40
:101FEC0008B148F002080F20FFF745FE08B148F091
:101FFC0004080B20FFF73FFEDFF8746320B1316853
:10200C00096B4FF4806088470A20FFF734FE20B13B
:10201C003168096B4FF481608847DFF85813DFF89B
:10202C006873DFF868B30120086048F0200031685D
:10203C0089698847DFF858130120086099F808006F
:10204C00C00707D5012416E0042673E00120C9F867
:10205C00DC006CE0584600F0EBFE0546042DF9D090
:10206C00012D04D1326A52680321584690473868D2
:10207C00800880003860002000F0E2FEBF48006855
:10208C003068806B804754B9012D04D1326A526894
:10209C00012158469047386840F003003860012011
:1020AC00B849086040463168496988470B20FFF7FA
:1020BC00E2FD20B13168C96A4FF4806088470A207C
:1020CC00FFF7D9FD20B13168C96A4FF481608847A8
:1020DC00A849012008600020AD4908600320C9F818
:1020EC00DC003168496B404688470128F9D104204F
:1020FC0000F0B7F8A24901200860A0480068A54884
:10210C0000688006FBD5BAF1000F1CBF012000F05F
:10211C00FDF800F0E1FF082000F0A3F806460120CE
:10212C00C9F8DC000198FEF79BFA00F059FF009803
:10213C00FFF7B2FA3046BDE8FE8F38B50446FEF71D
:10214C004FFA05462146854800F064FE28464BE0D0
:10215C0030B5002401288BB004D021D303281DD026
:10216C0018D31DE001A8FFF763FD7C4D8A49069446
:10217C00ADF81440079401AB012205F17800FEF78D
:10218C0067FA00940023854A2C2105F19C00FEF788
:10219C004FFA05E000F0BCFF044601E001F05EF8E8
:1021AC0020460BB030BD00F054B938B5FEF718FA24
:1021BC0005466A4890F8E000012410B1FFF74BFD8A
:1021CC0004462846FEF710FA204632BD38B5FEF715
:1021DC0007FA624D044695F8E00020B100F080F952
:1021EC00002085F8E0002046BDE83240FEF7FCB93F
:1021FC00000000007047000010B582B0042000F011
:10220C001BF9022818BF032807D100F01FF8FFF7AD
:10221C0016FDBDE816400220D0E561485349006820
:10222C004E4CC0F3815003280CBF4FF47A7041F22E
:10223C0088300968B0FBF1F104F15400FEF7E4F9C1
:10224C0004F15400BDE81640FEF7E2B903200090FB
:10225C001C234FF0405200213F4800F09ABD002053
:10226C00704770B504463D4E304600F0B5FD002574
:10227C0098B9304600F0B6FD0646B068204207D04B
:10228C003269F3680021204698470546012D05D098
:10229C00304600F0A9FD0600EFD1284670BD41493B
:1022AC0001280CBF40F2FF7000200860002070472E
:1022BC0070B5FEF795F9294E294D044696F8E000C5
:1022CC0028B100F00DF968B1002086F8E00002207A
:1022DC00AD68A84706461020FFF7C3FF8EB1032058
:1022EC00A8470EE0214909683220B0FBF1F101B991
:1022FC00012106F13000FEF787F906F13000FEF7F8
:10230C0087F92046BDE87040FEF76EB938B5012854
:10231C001ED100F091F801281CD000F0D7F80F4C1A
:10232C001249012084F8E00032200968B0FBF1F575
:10233C0005B9012504F13000FFF751FA294604F1E3
:10234C003000FEF761F904F13000FEF761F901E0AD
:10235C0000F0E8F8002032BD00A00C40E0050020A1
:10236C0074850000B03F00500D200020E8000000F4
:10237C00B801001028200860282008402C200940B3
:10238C000C40094000022243242208400040034034
:10239C008001044314100940A5330000753100007E
:1023AC00B43F0050000004608F3F00008F3F0100DD
:1023BC008F3F02008F3F0300903F00018F3F0101D0
:1023CC00903F0002903F00038F3F01048F3F0005B8
:1023DC008F1208048F3F00048F3F0006513F00000E
:1023EC007F3F01003F3F04003F3F02003F3F0100A1
:1023FC007F3F020070B50446E00782B00D46624E86
:10240C0005D5A8B200900023012200F011F8A00716
:10241C0005D5A8B200900123022200F009F860074C
:10242C0005D5ADB2009502230C2200F001F873BD66
:10243C000021304600F0ADBC0146042907BF1D2326
:10244C004FF0C0421C234FF080524F48342100F013
:10245C00B3BC38B50546FFF7D5FB4C4CA168401A08
:10246C004FF47A71484305EB104501F06BF8216984
:10247C00401A48BF404240F6B9318D4207D2062877
:10248C0005DAA068E168814201D322685AB9404953
:10249C004A68D2074FF4FA6017D4086800F0FF00BE
:1024AC007D21484308E0081A3A494843000C00EBE8
:1024BC009000904238BF1046C82801D2C82032BDC7
:1024CC00B0F57A6F88BF4FF47A6032BD80B50121C8
:1024DC000320FFF78FFFFFF795FB2C49886001BDA8
:1024EC0080B50120FFF7A8FF012819D00023012295
:1024FC003421254800F060FC98B100F026F8FFF775
:10250C0081FB22498B680A68C860A2EB9202C01A50
:10251C00204B5843000C0860904238BF10460860AE
:10252C00012002BD10B500210320FFF763FF01203D
:10253C00FFF782FF08B100F008F8144CFFF762FBBC
:10254C00606000F0FFFF206110BD1348006801F0CF
:10255C000DB810B511490A681149096814042416FC
:10256C001B384443E41004EB2244120600FB00F336
:10257C00121609065A435843091604EBA222484383
:10258C0002EBA04010BD000000A00C40EC1F00208E
:10259C00AC3F005040420F008000001090130050E0
:1025AC00A410005062B38B0708D0521E11F8013BE7
:1025BC0000F8013B00F024808B07F6D1830740F034
:1025CC00208000BF103A07D330B4B1E83810103A6D
:1025DC00A0E83810F9D230BC530724BFB1E808107A
:1025EC00A0E8081044BF51F8043B40F8043BD20764
:1025FC0024BF31F8022B20F8022B44BF0B78037058
:10260C007047083A07D3B1E80810083A40F8043B81
:10261C0040F804CBF7D25307E4E70000002200F0A7
:10262C00C1BF000010B5DFF82405046814F1010FD8
:10263C0008BF002401F038F8DFF8141500200860FA
:10264C000120DFF810150860DFF80C15086000F0A9
:10265C004CFADFF80805006828B1DFF804050068BB
:10266C00204600F022F8DFF8FC14DFF8FC240020F0
:10267C000860DFF8F80401686FF31B411143016037
:10268C00DFF8EC040168C1F30131012907D10168BD
:10269C00DFF8E024114041F4003202600160DFF801
:1026AC00D80400680028FAD110BD70B50546DFF8D3
:1026BC00CC0401210160DFF8C81409680029FAD0A4
:1026CC00DFF8C044DFF8C024C02121605368DFF874
:1026DC00BC149B075DBF13681B0C43F0F003722303
:1026EC000B70002101639668304600F031F83146DA
:1026FC00284600F061F8DFF89804816D89B240F249
:10270C000F22914214D201680068C1F30361C0F337
:10271C00034001B1491E072805D006280EBF07202B
:10272C00801C00F00F0041EA0010DFF868140870FC
:10273C00304600F0B2F8DFF860140968C96802206E
:10274C008847402020600120DFF85014086070BDDD
:10275C0010B50446DFF848040068C0F3046000F0CC
:10276C00C0F92117491C08181628A8BF152004DA2F
:10277C006FF009018842B8BF084600F01F00DFF86F
:10278C00241440F4F8500880DFF81C04006880071B
:10279C004FBF44F040640020DFF810140860DFF8ED
:1027AC001004C4F3C06181F001010160C4F38061C5
:1027BC0081F00101816010BD70B5054682B00846FC
:1027CC0000F0F0F80246DFF8EC43182100F062F854
:1027DC0000F014F980B20090002340F2FF322C215B
:1027EC00204600F0D6FADFF8D063F068C0F30D0293
:1027FC001C2100F04FF8706800F0FC32142100F03E
:10280C0049F83068DFF8B413DFF8B46301EA00026A
:10281C00102100F03FF8284600F0FAF802460C218F
:10282C0000F038F8284600F01EF9400040F0200077
:10283C003072284600F020F940F010003072284623
:10284C0000F023F90246282100F024F8284600F075
:10285C0001F9400040F06000F072284600F02FF9BA
:10286C00C00040F080003070284600F031F9800044
:10287C00DFF8501340F47C400880284600F012F931
:10288C000246082100F006F8DFF83C134FF48000F4
:10289C00086073BD204600F077BAF8B5810C01F0E2
:1028AC0003010129C94CC84D02D002292AD026E0C7
:1028BC00216A8A0323D44FF480422A606FF08F067A
:1028CC00C34AD2F8023033404E0A06F08006334336
:1028DC00C1F303363343C2F80230C1F30326D2F8F6
:1028EC0001301B0946EA0313C2F801306FF0E7060A
:1028FC001368334001F0E7011943116002E04FF017
:10290C0000412960B34EB44AB16809075CBF40214D
:10291C00A9624FF400712964800D216AC90C01F081
:10292C00030141F0300110F00300117003D00228B4
:10293C0026D008D326E001210420FFF75BFDA74831
:10294C0000F0F4F822E00120FFF776FD0746394647
:10295C000420FFF74FFD0420FFF76EFDB842FAD1BB
:10296C00366826F07F4000F0E1F89D4B1B681B6831
:10297C004FF060220721300E98474FF4806028609A
:10298C00032100E002210420FFF734FD2068954963
:10299C0000F03F00087047F61800934908809348F0
:1029AC000068F1BD92490968C1F383628303C1F3E6
:1029BC008F2120D4000400164FF6FF7307E049085E
:1029CC0004D11946520804BF01220121401C0028E1
:1029DC00F5D401280FDB490041F00101B1F5803F2E
:1029EC0021BF0121520042F00102102A24BF0F2204
:1029FC001946401EEDE741EA024070477C480168E9
:102A0C0000680002C1F3870100F44070084370476E
:102A1C0030B55D4C77490A686568ED07C2F3035120
:102A2C00C2F303430AD42468250501EB2571240461
:102A3C0081F3040103EB247383F304031B0443EAC3
:102A4C00015193B21943222824BF02F08040014364
:102A5C00084630BD0021202803D367480068C0F326
:102A6C000151084670470121222803D363480068AE
:102A7C00C0F30071084670470121222803D35F4838
:102A8C000068C0F34071084670470021202807D326
:102A9C0059480068C10C01F44071C0F384500143E3
:102AAC00084670472028564907D35348554A0068B2
:102ABC00810A02EA003040EA815108467047002141
:102ACC00222803D34D480068C0F3C0610846704704
:102ADC000021222803D349480068C0F34551084619
:102AEC0070471628A8BF2038704723480068002874
:102AFC00FBD14548454A416812688908890041F074
:102B0C00005141F00401520748BF41F001010BD4C0
:102B1C00026812F0030F07D041F003024260026812
:102B2C0002F00302032AFAD141607047384982B29D
:102B3C000A60C0F30740486001208860354800688F
:102B4C000028FBD000208860704700001C13005048
:102B5C00840460425C600C400822044380012843DA
:102B6C00000120438C21084000003901482003401B
:102B7C0004000940FFFFFCFC0C00684210100940E7
:102B8C009402224300600C40AC3F00505662084057
:102B9C00BC12005002600840A00100109404604276
:102BAC00B81200506E6208400000094094042A4399
:102BBC000000204300A00C4070130050FFFFFC00ED
:102BCC0041A10C40DCA10C4040A00C406C13005007
:102BDC000A600840A83F005008A10C40BD37860091
:102BEC00B40100100BB00C4070B00C402C2009400C
:102BFC005013005078130050981300508C13005051
:102C0C0000803F4000F03F0000400340B03F0050C8
:102C1C003C600C4084088C431B4213D1094236D1D2
:102C2C002AB18446B0FBF2F002FB10C2704700F0F0
:102C3C0045BDFCD30022002370470B00020000218D
:102C4C0000207047904271EB030CF6D370B5B1FACB
:102C5C0081F4B3FA83F52C1BA340C4F1200532FA9E
:102C6C0005F63343A2405FF00046E64002E05B0805
:102C7C005FEA3202841A71EB030524BF2046294611
:102C8C007641F4D302000B003000002170BD012A04
:102C9C00CFD970B5140C20D0B1FA81F4B2FA82F508
:102CAC00C4F120046419B4F12006D6D3B2405FF00D
:102CBC000044F440002502E052085FEA3303C61AD0
:102CCC0071EB020E24BF3046714664416D41F3D363
:102CDC0002000B002000290070BD0C46B1FBF2F184
:102CEC0002FB11452D0445EA1045B5FBF2F402FB3D
:102CFC00145580B240EA0545B5FBF2F002FB1052C8
:102D0C0040EA044070BD000070B504460D461646FE
:102D1C0000F0DEF9401E8041C00F1A490A68002AF3
:102D2C00FCD0012E02D0022E02D003E0257002E06E
:102D3C00258000E0256001220A6000281CBFBDE848
:102D4C00704000F0C9B970BD38B504460D4600F0AE
:102D5C00BFF9401E8041C00F0A490A68002AFCD006
:102D6C00012D02D0022D02D003E0247802E0248849
:102D7C0000E0246801220A6008B100F0ADF9204699
:102D8C0032BD000000800C400B461146042218187E
:102D9C00BAE710B500EB4100102B144600F500709B
:102DAC0002D3103B001D240C0299994041EA0441C6
:102DBC00BDE810400422A7E738B51D460818102DB1
:102DCC00144602D3103D801C240C0221FFF7BCFFDB
:102DDC00204080B2E84032BD006800280CBF0120C2
:102DEC0000207047006870470068704738B504468B
:102DFC000D4600F064FC002129606168696061681F
:102E0C00002914BF0D6025606560FFE7BDE8324006
:102E1C0000F057BC0B684A68002B0CBF42605A602C
:102E2C004A680968002A0CBF0160116070470000F5
:102E3C00006801074CBF042000F00300704700003D
:102E4C002DE9F84F06469348934C0068934D800744
:102E5C0004D50820A87192482060BFE000F072FBF6
:102E6C0080469048006800900027001700F1010987
:102E7C000098800208D4C8F13E00C0100928A8BFF1
:102E8C0008208145B8BF814687480068C0F30460BC
:102E9C00FFF727FE824685480068C0F30440FFF721
:102EAC0020FE09EB0A011629A8BF152104DA6FF0E0
:102EBC0009029142B8BF114601F01F027C4B42F44B
:102ECC00F8521A807B4A126812F0030F18BF0127C0
:102EDC00520748BF47F002070EB147F0040795F9B7
:102EEC000720A8EB0202052A02DAAA7997425DD0E4
:102EFC00A8F10F0C0026BCF1000FB64607F001023A
:102F0C0007F00403DFF8B09123D40CEB0C1C4FEA50
:102F1C002C2EBEF1080F28BF4FF0070E7646072E59
:102F2C0028BF062609EB860A59F82660DAF804A0B1
:102F3C00AAEB060A0AF0FF0613B1CAF3072B5E448C
:102F4C005FEA877B44BFCAF3074B5E440AB106EBCA
:102F5C001A6659F82E9009F0FF0A13B1C9F307232A
:102F6C009A44BB0744BFC9F307439A440AB10AEB1E
:102F7C00196A401AACEB0E220099AF717243803281
:102F8C000128B8BF0120342301F0FF0158430AEB9C
:102F9C0012224843B0FBF2F0B0F5803F28BF4FF649
:102FAC00FF7008F30708A88085F80780434800687D
:102FBC00A988286000201F2904D21F21A98004E0C1
:102FCC004908401CB1F5007FFAD20F39090940EAD3
:102FDC00C1003B490843206000206060BDE8F18FD0
:102FEC0010B53848006884B21CB300F0ABFA2B491A
:102FFC0091F90720904205DA6FF07F029042B8BF3A
:10300C001046C8718888844201D28C8010BD2B4A2E
:10301C0012680B68D21A921C202A28BF1F22231A6E
:10302C005208D3401818B0F5803F28BF4FF6FF70F8
:10303C00888010BD2448026802B9704710B5234B34
:10304C00996801F04060B0F1406F21D011480468DC
:10305C00A4071DD45C68A4071AD404681B68C3F3C6
:10306C0003531C331B0114F0050F06D09A420FD2E8
:10307C006FF005012140016010BD934208D20A0196
:10308C0058BF44F00104490158BF44F004040460E3
:10309C0010BD000000000940301009400020002045
:1030AC00FDFDA400B43F0050B81200503C1100507C
:1030BC006E620840242208409C13005008200940EE
:1030CC0000E7A4803410094028500940AC3F005060
:1030DC00EFF3108072B67047EFF3108062B6704752
:1030EC00DFF800F099C8011010B50C18FFF7F0FFCD
:1030FC00401E8041C00FDFF8F0130A68002AFCD094
:10310C00246801220A6008B1FFF7E6FF204610BDD3
:10311C0038B5DFF8D843DFF8D8132078897B002541
:10312C0008430AD0FDF75CFAA178002906BF0121FB
:10313C00A1700125FDF758FA0DB1002032BD022017
:10314C00FEF7A6FE0E20FEF7B8FEDFF8A803016816
:10315C0009B1012032BDDFF8A0234021116001210B
:10316C00C1610020607032BD70B5DFF88C0382B095
:10317C00002101604821C160DFF8800300F1D80410
:10318C00A17A002968D00129DFF8742329D11068AD
:10319C004BF2F5214843050ADFF868030068C0F3D9
:1031AC008140012806D100F0CDF9FFF7D2F9684330
:1031BC0005EB9055607B10B10020607305E0D248A0
:1031CC000068000215EB10204508D0480560290C5A
:1031DC00416001218160C648807B00283AD00520DF
:1031EC0039E0022909D11568284600F0FDF8A5F24E
:1031FC00FF5003282ED308202DE003292CD1116871
:10320C0000F1B805A1F5C0612868E961002848BF44
:10321C004042002948BF49428842A8BF002018DA22
:10322C006868BB4E80B2009008234FF47F42302177
:10323C003046FFF7AEFDA86800F072F90421304665
:10324C00FFF7A7FDA86900F071F93046FFF7A1FD63
:10325C00012020700B202073BDE873402DE9F04154
:10326C00A64CDFF8AC82AB4FAB4EA34804F1E105A2
:10327C0082B0E9784A1E0B2A00F28080DFE802F067
:10328C00062233465B33465B3346636EA3490968BB
:10329C000968202088470F20F860072341F61D504D
:1032AC0038614FF4C0720220009000F070F80723D0
:1032BC004FF4C07200214046FFF77EFD01203060C4
:1032CC00022044E00120F861287800281DBF00206E
:1032DC00306103200620E870032038600020706005
:1032EC007068800734D4E878032804D1022000F0F9
:1032FC004BF8042007E0002000F046F8E878062898
:10330C000CBF07200A20E87001201AE0042903D121
:10331C002021B961012105E00122BA610A290CBF03
:10332C00032102216970002139600821C16001600C
:10333C000120386026E005290CBF06200920E87022
:10334C000020706004E00020306070600C20E87099
:10335C0004F17800BDE8F641FDF75AB9002101608F
:10336C000120644908600E20FEF73CFD0220FEF7A8
:10337C0025FD0120E8700020A87003E0BDE8F341B2
:10338C00FFF7AEBEBDE8F38100900523602200215B
:10339C004046FFF7FEBC000080B558495E4891F8E6
:1033AC00E410891E0A291AD8DFE801F0060A0E1962
:1033BC000A0E190A0E19120001688907FCD510E0D3
:1033CC0041688907FCD40CE041688907FCD508E00A
:1033DC0001688907FCD441688907FCD401E0FFF738
:1033EC007FFEBDE8014039E7F8B50746484C30216F
:1033FC002046FFF779FE414E06F1B805C0F30720D1
:10340C00686004212046FFF76FFEC0F38440A8607B
:10341C0020212046FFF768FEC0F38120A861B7F594
:10342C00C060286002D186F8D800F1BD296996F8F1
:10343C00D8202AB96A68A968EA60E861AA696A6151
:10344C00E86900284CBF6FF00102022200EB40003B
:10345C001018421000EB927001EBA0006968E96053
:10346C00012810DA6A69032A04D1153001281DDA03
:10347C0001201BE00B300128B8BF0120491E48BFBA
:10348C000021E96007E01F2812DB6A692AB91538A8
:10349C001F28A8BF1E20032109E00B381F28A8BF36
:1034AC001E20491C4029A8BF3F21E9600021696109
:1034BC0028610823E86880B200904FF47F423021E5
:1034CC0000F03CF80120009011234FF4003200F082
:1034DC0034F8286900F024F800F02FF8686900F03F
:1034EC0025F800F02BF8F1BD00800C40C10600203F
:1034FC007485000004800C402C500C40E00500202A
:10350C0008400C40B43F0050102009403C600C4077
:10351C0000A00C4000400C4034600C40A001001096
:10352C0080B2009012234FF4F802704780B20090E2
:10353C000A234FF440622021704704212046FFF7F4
:10354C0028BC00000748084A81681278006852B20B
:10355C00A0F54070C9035043C913A1EB2010803073
:10356C0000127047285009400C13005070B50446E7
:10357C00FFF7AEFD451EAD41ED0F074E306800283C
:10358C00FCD0A04701203060002D1CBFBDE870406E
:10359C00FFF7A2BD70BD000000800C4062F30F224B
:1035AC0062F31F4200B500BF1300964694461039D3
:1035BC0028BFA0E80C50FAD85FEA417C28BF0CC0A9
:1035CC0048BF40F8042BC90728BF20F8022B48BF7E
:1035DC0000F8012B00BD000030480068000C00F022
:1035EC000700052828BF4FF0FF3070472C490A68A8
:1035FC00C2F30F324BF69A139A424FF0FF3006D1BA
:10360C000868000F0B280CBF0420002070474BF6F5
:10361C00BE118A4201D1012070474BF641318A42DA
:10362C0001D1032070474BF620318A4208BF02209B
:10363C00704700001A48F8B50068050F1948006873
:10364C0000F0FF06802E28BF0026FFF7CFFF0428CE
:10365C004FF0FF3406F10A071DD8DFE800F0031223
:10366C001A1A1B00012D12D0032D06D0072D06D0DF
:10367C00082D08BF06F116040DE014240BE01524E8
:10368C0009E025B1022D08BF06F1140403E00A2459
:10369C0001E005B93C4660B2F2BD00009412005046
:1036AC0018130050A010005080B5FFF79FFF20B9F1
:1036BC00FFF7C0FF162800DB01BDFEE77047FCF7E3
:1036CC008FBFFCF791BF00002DE9F04FA1B08246EF
:1036DC0001AE002017461D467160B0620DF1440921
:1036EC000AE017F8011B7068D0470028706000F0E2
:1036FC00B982B06A401CB0623878010001D1B06A5E
:10370C00B2E22528EDD1002030617061B061F0612A
:10371C003062706201E040F0010017F8011F2029AF
:10372C00F9D023290DD02B2904D02D2906D03029EE
:10373C000AD00CE040F0020080B2EEE740F004004A
:10374C00FAE740F00800F7E740F01000F4E72A2908
:10375C000ED12968296051F8042B2960002A3263A4
:10376C0004D5514240F00400316380B27F1C13E059
:10377C00002131630BE0316B6FF00043994205D0AF
:10378C0001EB810302EB4301303931637F1C3A7842
:10379C00A2F130010A29EED339782E2903D04FF04B
:1037AC00FF31F1621FE017F8011F2A2907D12968A0
:1037BC0029607F1C51F8042B2960F26213E0002170
:1037CC00F1620BE0F16A6FF00043994205D001EB16
:1037DC00810302EB43013039F1627F1C3A78A2F18C
:1037EC0030010A29EED3B0860FF69440397800F0F8
:1037FC0055FE08B117F8010B8DF83A009DF83A0008
:10380C00682802BF39786829622005D06C2804BF6B
:10381C0038786C2803D171208DF83A007F1C11A8E0
:10382C00F06017F8014BB4F125002AD01C3800F0D9
:10383C00CA80001F022840F2C680133800F0EA80CC
:10384C00093800F0C080801E00F05481401E00F04A
:10385C002B81401E022840F2B680001F00F024810C
:10386C00401F00F08180401E00F0D480401E26D006
:10387C00C01E0BD0801E00F0CD80C01E00F0CA8090
:10388C0042E125208DF84400012046E1286828609B
:10389C0050F8048B2860C6F80880F46A002C04D514
:1038AC00404600F007FE044607E022460021404651
:1038BC0000F01CFE08B1A0EB080474612EE129682D
:1038CC002960002251F8040B29604FF03C0E0021B6
:1038DC00CDE9000111A8B060DDE900019142F46866
:1038EC0008BF904201D1F26AC2B100F00F0330332D
:1038FC00DBB23A2BA8BF2733AEF101020009A35467
:10390C00964640EA017009090022914208BF904294
:10391C0004D0B26804EB0E039A42E6D304EB0E011A
:10392C00B160CEF13C00F16A7061884207DA081A86
:10393C00F0614FF6EF71B08E0840B086EEE00029D2
:10394C0040F1EC8096F8341001F01401102940F08D
:10395C00E580316B3269891AF269891A081A0128D3
:10396C00C0F2DC80F061D9E09DF83A0062281AD0F0
:10397C00682806D06A280CD06C281CD0712808D076
:10398C0019E02868286050F8041B2860B06A088089
:10399C00C4E02868286050F8042B2860B06AC1176E
:1039AC00C2E90001BAE02868286050F8041B2860BE
:1039BC00B06A0870B2E02868286050F8041B2860D0
:1039CC00B06A0860AAE02868C01D20F007022A60CF
:1039DC00D2E9000108322A60CDE90001002902D5A4
:1039EC0030692D2109E0B08E810702D530692B2179
:1039FC0003E0C00705D53069202109F80010401CF0
:103A0C00306111A831690844B0602146684600F065
:103A1C00EBF983E09DF83A006C280DD0712818BFA3
:103A2C006A2809D12868C01D20F007022A60D2E953
:103A3C00000108322A6005E02968296051F8040B5E
:103A4C0029600021CDE900019DF83A00682803D1D6
:103A5C00DDE9000180B20BE0622803D1DDE9000151
:103A6C00C0B205E0742818BF7A2804D1DDE9000142
:103A7C000021CDE9000196F83400000731D5DDE9CD
:103A8C0000230020834208BF82422AD044F0200049
:103A9C00782826D13069302109F80010401C411CCF
:103AAC00316109F800401CE09DF83A00294600F00D
:103ABC00DEF8CDE90001DDE9002300218B4202DABA
:103ACC0030692D2109E0B08E810702D530692B2198
:103ADC0003E0C00705D53069202109F80010401C0F
:103AEC00306111A831690844B0602146684600F085
:103AFC00F5F813E0012030612868286050F8041BA9
:103B0C0028608DF8441009E025208DF84400012030
:103B1C0030611CB189F8014002203061306B316991
:103B2C00401AF169401A7169401A316A401AB16938
:103B3C00401A716AA0EB010896F83400400711D4C2
:103B4C002020B8F1010F8DF840000BDB4446012317
:103B5C0010AA6946504600F07CFC002840F0828098
:103B6C00641EF4D1D6F810B0BBF1000F11AC0CD020
:103B7C0014F8011B7068D0470028706072D0B06ACE
:103B8C00401CBBF1010BB062F2D130208DF840002B
:103B9C00F469012C09DB012310AA6946504600F098
:103BAC0058FC00285ED1641EF5D1D6F814B0B46868
:103BBC00BBF1000F0CD014F8011B7068D047002823
:103BCC0070604FD0B06A401CBBF1010BB062F2D1F7
:103BDC0030208DF84000346A012C09DB012310AA37
:103BEC006946504600F035FC00283BD1641EF5D1E7
:103BFC00B0687169D6F818B04418BBF1000F0BD03F
:103C0C0014F8011B7068D047706058B3B06A401C40
:103C1C00BBF1010BB062F3D130208DF84000746A17
:103C2C00012C08DB012310AA6946504600F011FC58
:103C3C00C0B9641EF6D196F8340040077FF55CAD30
:103C4C002020B8F1010F8DF84000FFF655AD01238F
:103C5C0010AA6946504600F0FCFB18B9B8F10108EF
:103C6C00F5D149E54FF0FF3021B0BDE8F08F622867
:103C7C0026D068281DD06A2808D06C2827D0712837
:103C8C0004D0742823D07A280CD020E00868C01DFA
:103C9C0020F007000860D0E90023083008601946BE
:103CAC00104670470A680A6052F8040B0A6000213B
:103CBC0070470A680A6052F8040B0A6000B20BE005
:103CCC000A680A6052F8040B0A6040B204E00A6801
:103CDC000A6052F8040B0A60C11770472DE9F343D0
:103CEC00054608462F696F2808BF082405D041F007
:103CFC002001782914BF0A2410243C26D5E900237E
:103D0C00642818BF69289046994606D100218B4239
:103D1C0003DAD8F1000869EB49090020814508BF96
:103D2C0080450CD1286B50B9082C38D195F8380047
:103D3C00000734D530203B2687F83B002FE0701E5F
:103D4C0000900646404649462246E317FEF764FFBC
:103D5C0002F13000C0B23A2803DB9DF8041051394F
:103D6C000818B855494640462246E317FEF754FF5B
:103D7C00804689460020814508BF804503D0E8680D
:103D8C00B9198842DBD3082C09D195F83800000703
:103D9C0005D5B85D302802D0761E3020B855B9193B
:103DAC00E960C6F13C00296BA861884208DA081A60
:103DBC0028624FF6EF71288F08402887BDE8F383FF
:103DCC0000290ED595F8381001F01401102908D1EE
:103DDC00696B6A69891A2A6A891A0E1A012EA8BF98
:103DEC002E62BDE8F38300002DE9F24F04468EB03D
:103DFC00D4E90001CDE9020104AF9DF8380040F090
:103E0C00200BBBF1610F0AD0206B002848BF0620A5
:103E1C0004D408BFBBF1670F01D101202063616896
:103E2C00C1F30A5040F2FF7290421CD1080304BF48
:103E3C002068002809D10320A0619DF83800613862
:103E4C001A2835D30FF24C6108E00320A0619DF8CD
:103E5C00380061381A2828D30FF23061E068032249
:103E6C00FEF7A0FBBDE1012815DA204600F06AFB45
:103E7C00012810DB00250020BBF1610F1FD1E16888
:103E8C0030220A708A1CE2609DF83820612A0CBF2F
:103E9C00782258220FE0626840F2FE3161F31E5224
:103EAC00451A62604FF0FF30E6E70FF2DC51D5E7C0
:103EBC000FF2DC51D2E74A706169891C616110B95B
:103ECC000026002584E1BBF1610F40F09880206B47
:103EDC00D4E900AB00284CBF2126461CDDE90201C9
:103EEC000022002300F050FB36B23ABF8BF00040AA
:103EFC00CDE902A0CDE902AB06F101082D1FB8F106
:103F0C00010F8DF810200DF1110736DBDDE90201F0
:103F1C000022002300F050FB2FD21C2102A800F03D
:103F2C0063FBDDE9020100F0E5FBA8F10708B8F13D
:103F3C00010F814609DB00F009FC02460B46DDE966
:103F4C00020100F01BFCCDE90201F81D072105E080
:103F5C0009F00F0200F8012D4FEA2919B9F1010FF0
:103F6C0001DB491EF4D5491E5CBF002200F8012D6F
:103F7C00F9D5C71DB8F1010FC8DA0DF11100391AC6
:103F8C00B142B8BF0E4636B230000DF111072FD436
:103F9C00884206DA04A9014449780829A8BF0F21F0
:103FAC0000DA002104AA024400E0761E12F801395E
:103FBC00401E8B42F9D00F2904D104A901444A7840
:103FCC00521C4A70002802D504AF761C2D1D36B247
:103FDC00701E0DD439180A783032D2B23A2A03DB6B
:103FEC009DF838303A3B9A18401E01F80129F2D559
:103FFC00206B002840F1EC80701E2063E8E0DDE9C6
:10400C0002010022002300F0BFFA3CBF81F0004106
:10401C00CDE902012DB247F2975068434B49DFF8C6
:10402C00309190FBF1F52DB2C5F1070ABAF1010FF1
:10403C0090461CDBDDE902675FEACA7007D5424691
:10404C004B463046394600F059FC06460F46404672
:10405C00494642464B464FEA6A0A00F04FFCBAF119
:10406C00000F80468946E7D1CDE9026724E0CAF10A
:10407C00000A0026374F14E05FEACA7007D54246A3
:10408C004B463046394600F039FC06460F46404652
:10409C00494642464B4600F031FC4FEA6A0A8046DC
:1040AC008946BAF1000FE7D1DDE9020132463B4601
:1040BC0000F0F6FCCDE90201BBF1660F216BDFF8D5
:1040CC0098900CBF05F10A0006204618142EA8BFC4
:1040DC00132630208DF810000DF11107012E3DDB59
:1040EC00DDE9020100F01CFB07F1080104220A23A0
:1040FC00B0FBF3F303EB8307A0EB4700303001F880
:10410C00010C0A20B3FBF0F000EB8007A3EB470394
:10411C003033521E01F8023DE9D1083E012E01F167
:10412C000807DBDBDDE9020100F0FAFA00F018FB0E
:10413C0002460B46DDE9020100F020FB00224B4653
:10414C0000F0DCFBCDE90201CAE700BFA08601004C
:10415C00000024400000F03F84D797410DF111007E
:10416C00381A0DF1110702E0401E6D1E7F1C3978C4
:10417C003029F9D0BBF1660F08BF691C04D0BBF124
:10418C00650F0CBF01210021226B8E1836B2B04294
:10419C00B8BF064636B231001AD4814204DA785CD4
:1041AC003528A8BF392000DA30207A18521E00E0DA
:1041BC00761E12F80139491E8342F9D0392802D1F2
:1041CC00785C401C7854002902D57F1E761C6D1C2F
:1041DC002DB29DF83810009533B23A46204600F0C7
:1041EC0003F80FB0BDE8F08F2DE9F043054685B01C
:1041FC001F46D5F83080012F8946164602DA012772
:10420C000FF2942649F02000BDF93040662808BF13
:10421C00641C17D0672840F0848014F1040FC0F29E
:10422C008680444580F2838095F83800641C000732
:10423C0002D44745B8BFB84624B2B8EB040848BF0F
:10424C004FF0000824B2E868A969012C27DA4A1C4F
:10425C0030234354B8F1010F03DA95F83800000706
:10426C0003D5E9682E208854521C18EB040FB8BFF4
:10427C00C8F1000424B260426862A044B845AA6147
:10428C00B8BF4746E868AB693FB2EF613A46314682
:10429C001844FEF787F9A8EB0700A862C2E0224693
:1042AC009742084418DA3A463146FEF77BF9A96979
:1042BC007918E01BB8F1010FA961686203DA95F86F
:1042CC003800000705D5EA682E205054E869401CD8
:1042DC00E861C5F82880A5E03146FEF763F9A869C6
:1042EC0020183F1BB8F1010F03DA95F838100907B5
:1042FC0003D5EA682E211154401CA8613FB2B84581
:10430C00B8BF4746E868AB693FB23A463119184422
:10431C00FEF748F9A8693818A861A8EB070068628D
:10432C0080E0B9F1610F16D14FF0700918E04745E4
:10433C0004DA95F83810090758BFB846B8F10108E7
:10434C0048BF4FF00008B9F1670F14BF4FF0450993
:10435C004FF0650904E0B9F1410F08BF4FF0500967
:10436C00A969EB68481CA861B8F1010F16F8012B7C
:10437C005A5403DA95F83810090719D5EA68431C22
:10438C00AB612E211154B8F1010F11DB7F1E3FB22E
:10439C00B845B8BF4746E8683FB23A46314618447C
:1043AC00FEF700F9A8693818A861A8EB0700686245
:1043BC00E868A9690144200081F8009003D42B20FF
:1043CC0048708E1C03E02D224A708E1C644200271C
:1043DC000DF1080808E00A22684600F08CFC0198F0
:1043EC0008F8010B7F1C009C21B20129F3DA022F83
:1043FC0006DA49F02000652804BF302006F8010BCE
:10440C004FB9302006F8010B07E07F1E02A8C05DF3
:10441C00303006F8010B012FF7DAE868A969084477
:10442C00301AE86195F8380000F0140010280DD10E
:10443C006869A9690818696A0818E9690818A96AF5
:10444C000818696B8842BCBF081A286205B0BDE821
:10445C00F083F8B504460D4616461F46002077B18A
:10446C0016F8011BA868A047A86030B1E86A401C88
:10447C00E86200207F1EF3D1F2BD4FF0FF30F2BD99
:10448C00686A6C747A4C00006E616E004E414E008E
:10449C00696E6600494E4600300000000278C9B2D1
:1044AC008A421AB11CBF10F8012FF9E718BF00207F
:1044BC007047000000F10103810704D010F8011BC4
:1044CC0089B18107FAD10268B2F10131914311F03F
:1044DC00803F04BF50F8042FF6E710F8011B11B110
:1044EC0010F8011BFBE7C01A70470000C9B2830724
:1044FC0006D0521E22D310F8013B9942F7D11FE08F
:10450C00083A13D302F1040241EA012141EA0141C4
:10451C0050F8043B121F21BF4B40A3F1013C2CEA85
:10452C00030C1CF0803FF3D0C9B2001F083210F806
:10453C00013B521E28BF91EA030FF8D818BF012087
:10454C00401E704730B4436803F000420121C3F3AE
:10455C0013034360002B04BF0368002B08D10DE04C
:10456C000368DD0F45EA440444605B000360491EA8
:10457C004468E302F4D5C4F31303436043681A435D
:10458C004260084630BC70474FF4001C1CEB410FD6
:10459C0094BF1CEB430F09E041EA030C50EA4C0CAE
:1045AC0052EA0C0C03D2994208BF9042704714BFD8
:1045BC008B428242704700004FF4001C1CEB410FF1
:1045CC0094BF1CEB430F09E041EA030C50EA4C0C7E
:1045DC0052EA0C0C03D28B4208BF8242704714BFC4
:1045EC00994290427047000070B504460D466068D1
:1045FC00C0F30A5040F2FF71884207D16068000393
:10460C0004BF2068002817D0022070BD20B92046B6
:10461C00FFF798FF012866DA012D0FDB40F2FF71DE
:10462C00091A8D420AD36068002847BF00202F4921
:10463C0000202F49C4E90001012070BD4142A9426C
:10464C00616806DA6FF31E51401941EA0050606050
:10465C0040E0401E63684519012205F1350062F304
:10466C001F53352801F00041636003D361600020C3
:10467C00206070BD002015F11F0F04DA2068236044
:10468C000022203562606A4212D0401E25688041AB
:10469C00C2F12003C0439D4045EAD070256866688E
:1046AC00D54006FA03F32B4323606368D340636061
:1046BC0062680A43B0F1004F626003D80DD12078D4
:1046CC00C0070AD52068401C2060206828B96068A3
:1046DC00401C60604FF0FF3070BD6068884204BFC2
:1046EC0020680028F6D1002070BD00BF0000F0FF4C
:1046FC000000F07FF446400D40EAC120490006D28C
:10470C0000F014F8004248BF6FF00040604700F022
:10471C000DF84FF0004188428CBF0846404260477C
:10472C00400D40EAC120490080F00D8040F000406F
:10473C00490DA1F58061491C05D4D1F11F0154BF6D
:10474C00C840C01770474FF000007047010040F19F
:10475C000980F446404200F005F851F000416047F2
:10476C00010000BF09D0B0FA80F18840C91CC1F526
:10477C008461090501EBD02140057047F0B44FF07E
:10478C00004591EA030F44BF6B4000F0BBBA00BF79
:10479C00841A71EB030604D26E40001BB14112194E
:1047AC0073414FF4001C1CEB410F34BF7CEB4306F0
:1047BC0084E00C0DA4EB1356362E7DDC012E43DC6D
:1047CC0045EAC32343EA525312BFD20292025B085A
:1047DC00240545EAC12141EA5051D2EBC020994150
:1047EC0025D407D1B0FA80F610FA06F164D0002077
:1047FC00203608E0B1FA81F6B140C6F1200220FA69
:10480C0002F21143B0404FEAF474B4EB465434F066
:10481C0001064FEA74040AD8D6F50016760D04F09A
:10482C000044F04061FA06F25040F1404840C00AA2
:10483C0040EA415021F0004128BF5FEA500550F199
:10484C00000044EBD12137E045EAC323DB0A45EAFB
:10485C00C121C90AB6F120050EDD42EA0242120C52
:10486C00C5F1200603FA06F6EB4042EA06056D4256
:10487C00984161F100010DE062FA06F5F2405540F5
:10488C0063FA06FC82EA0C02F3405A406D429041F6
:10489C0061EB030111F4801F05D1641E620502D087
:1048AC006D004041494121F48011430875F10043EA
:1048BC0050F1000041EB0451F0BC70471CEB410F70
:1048CC0015D223F0004352EA43060BD04FEA4C0CAE
:1048DC00BCEB410F04D80C0D661E342EB7DDEBE794
:1048EC00801A994150EA410608BF0021E4E708BF4D
:1048FC001CEB430F28BF6FF00001DDE7B0B581EA78
:10490C00030C0CF0004C40F2FF7515EA11541DBF5E
:10491C0015EA1357AC42AF4239E0E41923EA455388
:10492C0043F48013C90241F0004141EA505EC702D2
:10493C001100A7FB020200284FF00000EEFB012043
:10494C004FF00001E3FB072118BF42F001024018B1
:10495C0000214941E3FB0E01A4F580640F0302D250
:10496C0052004041494154F101046CDD470872F199
:10497C00004250F1000051EB0451A1F580115CBFD5
:10498C0041EA0C01B0BD4CEA05510020B0BD05EA6E
:10499C001357AC4214BFAF4241E050EA410E1CBF6A
:1049AC0052EA430E02E061460020B0BD24423C4472
:1049BC001BD15FEA070EF6D0090302BF01460020A7
:1049CC00AEF1140EB1FA81F7AEEB070401FA07FE53
:1049DC000C37C7F1200100FA07F7C8404EEA000E69
:1049EC0023EA455343F48013A2E733F00043B3FAB0
:1049FC0083F704BFB2FA82FE77440B3FE41BB7F196
:104A0C00200E2FBF02FA0EF3BB40C7F1200E22FA84
:104A1C000EFE38BF43EA0E03BA40641C82E750EA2C
:104A2C00410E14BF52EA430E6FF000014FF4001711
:104A3C0017EB430F8ABF194617EB410FB5E74CEA4A
:104A4C0005510020B0BDD4F10104B4F120070FDAF8
:104A5C00C4F12007520828BF42F0010210FA07F5F2
:104A6C0001FA07F7E1BF2A43E0403843E1400FE089
:104A7C00352C98DCC7F1200452EA400220FA07F2E8
:104A8C0018BF42F0010231FA07F0A1400A4300219D
:104A9C0072F1004250F1000051EB0C01B0BD00006E
:104AAC002DE9F04140F2FF7581EA030C0CF0004C4B
:104ABC0015EA11541DBF15EA1357AC42AF42E9E099
:104ACC00BC41C1F31301C3F31303801A994143F49E
:104ADC00801304D2641E4000494180185941C90218
:104AEC0041EA5051B1FBF3F603FB1611A2FB06751C
:104AFC00D7EBC020A94102D2761E80185941C902B9
:104B0C0041EA5051B1FBF3FE03FB1E11A2FB0E75E3
:104B1C00D7EBC020A94103D2AEF1010E8018594148
:104B2C00890241EA9051760546EA8E2EB1FBF3F6E6
:104B3C0003FB1611A2FB0675D7EB8020A94102D20C
:104B4C00761E80185941C90241EA50514EEA060EB0
:104B5C00B1FBF3F603FB1611A2FB0675D7EBC020D5
:104B6C00A94102D2761E80185941C90241EA50511E
:104B7C00B1FBF3F703FB1711A2FB0735D3EBC020F6
:104B8C00A94167F100070CBF004247F0010766F32B
:104B9C00D5274FEA1E31B80814F5806414DDBD0723
:104BAC0075F1004250EB0E5051EB045111F5801F82
:104BBC005CBF41EA0C01BDE8F0814CF07F6141F033
:104BCC00E0410020BDE8F081BD076D0840EA0E50C1
:104BDC0041F48011D4F10104B4F120060ADAC4F1D5
:104BEC0020060200E04001FA06F3E1401843B2400F
:104BFC0015430EE0342C14DCC6F1200445EA4005C4
:104C0C006D0820FA06F2154321FA06F0A1400D4377
:104C1C00002175F1004250F1000051EB0C01BDE890
:104C2C00F08100205FEA0C01BDE8F081CFB9921849
:104C3C005B41B3FA83F704BFB2FA82F6BF190B3F9C
:104C4C00B7F120062FBF02FA06F3BB40C7F12006CE
:104C5C0022FA06F638BF3343BA401CB1E419641E7D
:104C6C002FE77F4231F00041B1FA81F404BFB0FA72
:104C7C0080F6A4190B3CB4F120062FBF00FA06F104
:104C8C00A140C4F1200620FA06F638BF3143A040FB
:104C9C003C1B16E7AC421ABF05EA1357AF4214E0AF
:104CAC0050EA41061CBF52EA4306BFE750EA4107EF
:104CBC00304661461CBF41EA0551BDE8F08152EA1D
:104CCC00430C08BFC143BDE8F08100204FF400162F
:104CDC0016EB410F98BF16EB430F08BF16EB410FB5
:104CEC0024BFC14305E016EB430F0CBF61464CEAF1
:104CFC000551BDE8F08191FBF2F303FB1211C0E901
:104D0C0000317047841A71EB030603D2001BB141CA
:104D1C00121973414FF4001C1CEB410F34BF7CEB98
:104D2C00430443E00C0DA4EB1356352E50DC45EA3E
:104D3C00C323DB0A45EAC121C912B6F120050DDDFA
:104D4C0063FA05F6EB4086EA0305124218BF45F0FC
:104D5C000105C01851F100010CD213E062FA06F5FE
:104D6C00F2405540F3415A40B340F3405A4080184A
:104D7C00594107D349085FEA30005FEA350528BF7F
:104D8C0045F0010501F58011420875F1004250F122
:104D9C00000041EB0451F0BC4FF4001C1CEB410F24
:104DAC0038BF70470020090D090570471CEB410FF7
:104DBC0010D252EA43060BD0BCEB410F05D80C0DB8
:104DCC00AB43661E342EB5DD02E0AB43801859416F
:104DDC00F0BC7047F0BC7047DFF800F0D9C101108F
:104DEC00DFF800F025B10110DFF800F0B9C20110B6
:104DFC0000B583B000F00DF8032114E0E0B500F02D
:104E0C0008F8042100F012F808B100200EBD029839
:104E1C000EBD0821ADF800100190704700B583B0AD
:104E2C00FFF7F7FF052100F001F807BDADF8021000
:104E3C006846DFF868190968084700B58FB0082381
:104E4C003C2200216846FFF7C7FFDFF8540900F148
:104E5C005001079100234FF4587108916A460121C3
:104E6C0006910FF29111FFF7BBFF0FB000BD30B5EB
:104E7C0085B00820ADF800000120DFF82019DFF81C
:104E8C00244909680FF62C15ADF8020068468847CE
:104E9C009DF8040020700298206204F1740000F068
:104EAC00D5FD606204F1800000F0D0FDA0624FF4EB
:104EBC007A630120019000901A460FF2C97104F137
:104ECC002C0000F07FFD402001900023002000907A
:104EDC004FF47A620FF2B97104F1500000F072FDD8
:104EEC000FF2BD7000F01EFE00214FF0004000F0EC
:104EFC0079FEE0616A464FF6FF7060810121002067
:104F0C00E06032208DF8000040F2044000F0D0FE4A
:104F1C004FF47A61022001F081FA4FF47A61032098
:104F2C0001F07CFA0FF64C221521002001F098F9C3
:104F3C0044F6C740019001AA01208DF8030004211A
:104F4C0000208DF802008DF8010001208DF8000082
:104F5C004FF4816001F0B1FA0DF1030201214FF41D
:104F6C00806001F0AAFA0DF10202012140F2024028
:104F7C0001F0A3FA0DF10102012140F2034001F00E
:104F8C009CFA6A46012140F2064001F096FA01F0C3
:104F9C0031F9207801F040F94FF0FF3001F05DF964
:104FAC004FF0FF3001F01DF904F18C0000F06EFEA3
:104FBC0004F1900001F0C7F8207801F0C1F82078D6
:104FCC0001F015F900F030FB2B46E06900220021BE
:104FDC0000F033FE2B460FF2E8720021002001F0A6
:104FEC00A9FC0FF2F16001F0C8FC01F0CFFC05B098
:104FFC0030BD0000F0B585B0FFF739FF0FF2C87473
:10500C00DFF8A057DFF8946728E0288AC10713D58A
:10501C004FF6FE710840288205F1500000F0F6FCB6
:10502C000020687000F092FE08B100F08FFE0022A4
:10503C000121032000F074FE288A41060ED54FF69C
:10504C00BF71084028820021062001F0A8FC687876
:10505C0020B900232246002101F06CFC0820ADF899
:10506C0000000A20ADF802004FF0FF3001906846B6
:10507C003168884720BB0820ADF808000920ADF83E
:10508C000A0002A8316888479DF80E10049FB8B931
:10509C00BDF80C00102801BF28788142384600F07A
:1050AC0026F86FB13846FFF7A3FE09E0686A00F0F6
:1050BC00F8FC070004D000F044F83846FFF7AEFEC9
:1050CC00686AFCF7F1FA0028F0D0A86AFCF7ECFA51
:1050DC0000289AD1A86A00F0E4FC0700F5D03978D2
:1050EC00781C00F00EFB3846FFF798FEEDE700B594
:1050FC0085B0017891290BD0B02905D0D0291ED1CB
:10510C0005B05DF804EB8FE005B05DF804EB71E1E0
:10511C0041780E2902BF818841F2054291420ED19D
:10512C0000F051F980680FF2907390F9030040423F
:10513C0000900421DFF86C06C06900F07EFD05B01C
:10514C0000BD2DE9F041054686B02888DFF85446AD
:10515C0002283DD0042841D0082825D0102809D099
:10516C0020285ED16868FFF7C2FF686806B0BDE80A
:10517C00F0413DE6A878C00753D50121062001F087
:10518C000EFC04F1500000F041FC0020607000F0B7
:10519C00DDFD08B100F0DAFD06B0BDE8F0410022FB
:1051AC000121032000F0BCBD6C6860884FF6FF71D4
:1051BC00884236D0012101F04BF990B32188606808
:1051CC0000F026FC608806B0BDE8F04101F06ABA38
:1051DC0068680178A87800F072F91DE06868678A41
:1051EC00067801F009FBDFF8C015DFF8BC25B0FB31
:1051FC00F1F102FB110856B100F010FACDF8008065
:10520C000022E0690FF23073042100F016FD4246D3
:10521C000021384600F0A0FF686806B0BDE8F041F8
:10522C00FCE506B0BDE8F081F0B5DFF8784585B057
:10523C000546E069AA780FF2DC564FF6FE714AB1CA
:10524C00052A49D0062A76D0072A00F0A7800D2A15
:10525C000DD0ACE0E81C00F031FC00F0AAF8012104
:10526C0000F0EBFC00F0BDF80FF26C539CE0E8781A
:10527C000028EED12E690FF214710C2206F10900F0
:10528C0001F096FB0028E4D16078DFF82015401C73
:10529C0060700622C0B250430F18052206F11501AA
:1052AC003846FDF77FF995F90B0019307871062116
:1052BC00384600F050FA03460FF228520021002025
:1052CC0001F038FB6078042871DB04F1500005B064
:1052DC00BDE8F04000F0B1BB6A78B2B90220A07012
:1052EC0068896082208B18B904F12C0000F08EFBC9
:1052FC0000F077F80FF20053022100F09EFC281DFD
:10530C0000F0DCFB00F055F813E000226182A27083
:10531C00E2700492039202920192009202210FF227
:10532C00E44300F08AFC00F055F868780090002205
:10533C00E069032139E00020A0706182E0702083D5
:10534C00AF886089B84211D1E06800F076FB6089C3
:10535C00B8420BD1E06830B1FFF746FDE068FFF7CB
:10536C005DFD0020E0604FF6FF70608100F039F8C1
:10537C000FF2AC43022100F060FC00F02BF8A8798E
:10538C0000900022E069032100F057FCE06905B0B1
:10539C00BDE8F0400022042100F04ABC00F013F8F4
:1053AC00E9780FF28C430091022100F046FC05B025
:1053BC00F0BD0021049103910291019100910346EB
:1053CC00E069002270470021049103910291019140
:1053DC000022704700200490039002900190334605
:1053EC0070470020049003900290019000900022DE
:1053FC00E0697047DFF8AC1310B5044688780228D2
:10540C0086B054D16378C8692279162B05D10092E5
:10541C00FFF7D9FF0FF22C4337E00B2A0AD0012AF1
:10542C000FD1227A0A2A17D100F085F80FF22843FF
:10543C00217B28E000F07FF80FF22C43E16809781B
:10544C0021E0132A10D10A790092531C0B71FFF73B
:10545C00BAFF0FF2344318E0122A23D100F06BF894
:10546C000FF21443217B0EE07E2A05D100F063F885
:10547C000FF22443217A06E07F2A0AD100F05BF870
:10548C000FF22443218900910022042100F0D5FB66
:10549C000DE01B2A06D16189E0680023002201F08F
:1054AC0049FA04E0C87810B1204600F04AF8217996
:1054BC0004F1080006B0BDE8104001F047B8020046
:1054CC00B84800B5C06985B005D100F034F800913A
:1054DC000FF2F43321E0012A0B460AD121B900F076
:1054EC0022F80FF2F43319E000F024F80FF2F8333D
:1054FC0013E0022A05D1A1B900F015F80FF2FC3324
:10550C000CE0032A0DD121B900F00DF80FF2FC3399
:10551C0004E000F00FF80FF208430022022100F023
:10552C008CFB05B000BD0491039102910191009197
:10553C000022704700930021049103910291019184
:10554C00704710B5974CE178012986B01BD10079D2
:10555C00032861D10FF2F0300FF24C330088ADF814
:10556C001400002200F05AF8042117200090E06982
:10557C0000F063FB0220E07002222378608A05A908
:10558C0000F0DCFE48E002292ED10179072928D150
:10559C00018951B1C1680A784B7802EB0322A282CF
:1055AC008A78C97802EB0121E18240781A2833D13C
:1055BC00A08A010030D0ADF800000321E08A2278E7
:1055CC00ADF80200E17002208DF804006946F1206C
:1055DC008DF80500FF208DF80600608A00F0C5FEEE
:1055EC001AE0012918D1E3E7032915D1017909291A
:1055FC0010D1018971B1C1680FF250330878497824
:10560C0000EB01202083002200F00EF80221E0695B
:10561C0000F013FB0020E07006B010BD00200490D9
:10562C000390029001907047002004900390029028
:10563C0001900090704780B502460021202000F0B8
:10564C0033F8401E8041C00F02BD38B50C461546DC
:10565C000120FFF7D3FB020005D015702146BDE8F1
:10566C003840022020E031BD10B51C460120FFF768
:10567C00C5FB30B104700246BDE810400021042087
:10568C0012E010BD4748018A41F0010104E000001E
:10569C004448018A41F040010182006AFAF7A8BF30
:1056AC00014600221020FFE770B504460D46164651
:1056BC000820FFF7A3FB50B10480857046600246BA
:1056CC00BDE87040374B196A586A00F0C6B970BD16
:1056DC000000000070B504460D46C820FFF78EFB95
:1056EC0006000DD035702A462146701CFCF75AFF77
:1056FC002C48016A806A3246BDE8704000F0ADB9B2
:10570C0070BD70B584B004461E200D46ADF8000087
:10571C00152DACBF14202846ADF8020000208DF8E2
:10572C00080001208DF8090000231E4E708A1722F4
:10573C00122100F0FCFE019060B12A462146FCF7D4
:10574C0031FF708A694600F012FE18B112216846CA
:10575C0000F0FCFE7FBD30B585B004460D466846B2
:10576C000FF2FC111422FCF72DFF114801460EE03C
:10577C0023781B096D1E1DF8033001F8013B14F84A
:10578C00013B03F00F031DF8033001F8013BEBB2B2
:10579C00002BEDD105B030BD00000000FC02002054
:1057AC005C1600208003002040420F000C1A0020E1
:1057BC002C1A00205363616E20426561636F6E008A
:1057CC0025730D0A000000002B5343414E3D5449F4
:1057DC004D454F55540D0A00496E697469616C69E9
:1057EC007A656400424541434F4E5F444154412029
:1057FC003D2025730D0A0000436F6E6E6563746562
:10580C0064000000436F6E6E656374204661696CC2
:10581C0065640000526561736F6E3A202564000068
:10582C00446973636F6E6E65637465640000000099
:10583C00506172616D205570646174653A20256405
:10584C0000000000415454205273702064726F7039
:10585C007065642025640000526561642045727295
:10586C006F722025640000005265616420727370B1
:10587C003A20256400000000577269746520457257
:10588C00726F72202564000057726974652073650D
:10589C006E743A202564000046432056696F6C6193
:1058AC007465643A202564004D54552053697A651B
:1058BC003A2025640000000052535349202D6442C5
:1058CC003A2025640000000050616972696E6720FF
:1058DC00737461727465640050616972696E6720DB
:1058EC00737563636573730050616972696E6720C9
:1058FC006661696C3A20256400000000426F6E649A
:10590C00696E67207375636365737300426F6E64B1
:10591C002073617665207375636365737300000093
:10592C00426F6E642073617665206661696C656494
:10593C003A2025640000000050617373636F646546
:10594C003A20256400000000F0FF000053696D70E0
:10595C006C652053766320466F756E640000000002
:10596C003031323334353637383941424344454689
:10597C000000000053696D706C6520424C4520435B
:10598C00656E7472616C00000000000057697364EE
