:10000000504300207D88000001CA011001CA011080
:1000100001CA011001CA011001CA011001CA011070
:1000200001CA011001CA011001CA011001CA011060
:0C00300001CA011001CA01103FCA0110F2
:100100003C0000000000000000000000340100007E
:1001100000000000000000000100000000000000DE
:1001200000000000000000000000000001000000CE
:0C013000000000000800000000000000BB
:10013C003400000000000000000000006801000016
:10014C0000000000000000000100000000000000A2
:10015C00010000000000000000000000080000008A
:04016C00000000008F
:1001700030000000000000000000000098010000B6
:10018000040000000000000001000000FFFFFFFF6E
:10019000FF00000001000000080000000000000057
:1001A0002C0000000000000000000000C40100005E
:1001B000040000000000000001000000FFFFFFFF3E
:0C01C000FFFFFFFF08000000000000002F
:1001CC0034050000E401000099A1011095A701106D
:1001DC00A5C2011009B2011045B8011000000000C1
:0801EC00000000002F000000DC
:1001F40028000000000000000000000014020000BD
:100204000000000000000000FFFFFFFF00000000EE
:080214000800000000000000DA
:10021C00300500003002000069C201106DC10110F0
:10022C001FC2011095BA0110000000000000000070
:04023C002D00000091
:10024000300500005402000075C20110A9B601106B
:100250009DBF011049B60110000000000000000021
:040260002E0000006C
:1002640024000000000000000000000080020000E4
:100274000000000000000000000000000800000072
:040284000000000076
:10028800240000000000000000000000A40200009C
:10029800000000000000000000000000080000004E
:0402A8000000000052
:1002AC00240000000000000000000000C802000054
:1002BC000000000001000000000000000800000029
:0402CC00000000002E
:1002D00000000000A808002004000000000000004A
:1002E000000000002000000070010000300000004D
:1002F0001C020000C80800200400000000000000EC
:10030000000000000C000000300400001800000095
:1003100040020000D008002004000000000000009F
:100320000000000024000000480400001800000045
:100330000000000010090020040000000000000080
:100340000000000010000000A00100002C000000D0
:10035000CC0100001809002004000000000000008B
:1003600000000000200000006402000024000000E3
:10037000FFFFFFFF3809002004000000000000001C
:100380000000000028000000880200002400000097
:10039000FFFFFFFF600900200400000000000000D4
:1003A00000000000580000003C0100003400000084
:1003B000FFFFFFFF680900200400000000000000AC
:1003C00000000000100000006004000018000000A1
:1003D000FFFFFFFF70090020040000000000000084
:1003E000000000001C000000AC020000240000001F
:1003F000FFFFFFFF7809002004000000000000005C
:100400000000000038000000F40100002800000097
:10041000FFFFFFFFE00900200400000000000000D3
:100420000000000054000000000100003C0000003B
:100430001800000000000000000000004004000060
:080440000800000000000000AC
:100448001800000000000000000000005804000030
:08045800080000000000000094
:100460001800000000000000000000007004000000
:0804700008000000000000007C
:0804780001000000E88800000B
:040484000100000073
:0404880000000E0062
:04048C0000000F005D
:040490003200000036
:040494000100000063
:04049800B008002088
:04049C00000200005A
:0404A0000000000058
:0404A40001CA011078
:0404A8000000000050
:0404AC00000000004C
:0404B0000800000040
:0404B4000000230021
:0404B800D808002040
:0404BC00010000003B
:0404C00020090020EF
:0404C400080000002C
:0404C8000000000030
:0404CC00000000002C
:0404D0000000000028
:0404D4000000000024
:0404D8000000000020
:0404DC00010000001B
:0404E000800900206F
:0404E400060000000E
:0404E800010000000F
:0404EC00E8090020FB
:0404F0000000000008
:0404F4000000000004
:0404F80000020000FE
:0404FC0000000000FC
:020502002900CE
:020504000100F4
:020506002500CE
:020508002D00C4
:02050A002E00C1
:02050C002F00BE
:02050E000100EA
:0105100001E9
:0805140004000000BC88000097
:08051C000000000000000000D7
:0405240000000100D2
:0405280000000300CC
:04052C0087C401106F
:04053000380500008A
:040534003805000086
:0405380000000000BF
:04053C00900000002B
:040540009000000027
:0405440000000000B3
:040548002009002066
:04054C003D3200003C
:040550002000000087
:040554009488000087
:040558008086000099
:04055C000DC30110BA
:04056000531D000027
:04056400551D000021
:0405680099C801101D
:04056C009BC8011017
:040570000000000087
:040574003E2A00001B
:04057800C08500003A
:04057C00D88500001E
:04058000A88500004A
:0205840008006D
:0205860009006A
:02058800010070
:02058A0000006F
:01058C00016D
:040590000000000067
:040594000000000063
:04059800000000005F
:04059C00000000005B
:0405A0003919000005
:0405A40059190000E1
:0405A8005D180000DA
:0405AC0083190000AF
:0405B000A51800008A
:0405B4007B180000B0
:0405B800D718000050
:0405BC00AF19000073
:0405C000B531000051
:0405C400C53300003B
:0405C800C933000033
:0405CC000800000023
:0405D0002400000003
:0405D400180000000B
:0405D80028000000F7
:0405DC0020000000FB
:0405E0003C000000DB
:0405E4000C00000007
:0405E80034000000DB
:1005EC00DFF800F0C1C10110DFF800F009B701100D
:1005FC00DFF800F0CDA00110DFF800F041AC0110E5
:10060C00DFF800F049C10110DFF800F019C2011049
:10061C00DFF800F085C10110DFF800F0C1C2011055
:10062C00DFF800F0E3BF0110DFF800F0CDC10110DE
:10063C00DFF800F03DC10110DFF800F0DDB2011071
:10064C00DFF800F085B00110DFF800F029AF0110E1
:10065C00DFF800F079B50110DFF800F0D5C001101B
:10066C00DFF800F0E1B5011020B1082328220021A9
:10067C00FFF7DABF704720B1082330220021FFF7C3
:10068C00D7BF704738B500F06FFE25680DB12968EB
:10069C002160FFF7B9FF284632BD70B504460D4600
:1006AC002668002028601EB9FFF7AAFF25600DE020
:1006BC00FFF7A6FF00E0366831680029FBD1AE4297
:1006CC0003D1FFF7A1FF002070BD3560FFF79CFF41
:1006DC00012070BD0022DFF8801C01EB4211CB7FA2
:1006EC001B0605D5B1F91C30834201D10846704771
:1006FC00521C082AEFDB00207047F8B500F034FEDE
:10070C000546DFF81C0AC17D0A001CD0491EC175C4
:10071C00C9B2C1B9DFF80C7A082107F14C0001F01D
:10072C0054F884B1B86B703001F025F8B86BDFF871
:10073C002C1CC0680968201A07F1EC0600F0B4FD07
:10074C003046FFF76DFF2846BDE8F240FFF75CBF6F
:10075C0010B50446207B00F00F00022802BFDFF822
:10076C00C009007D002817D100F0B4FCA1688908ED
:10077C00A1EB90006FF0704188420DDAB0F1704F30
:10078C00BCBFDFF8041B0818DFF89819896BC9681F
:10079C0001F57A71814200DB002010BD38B5DFF81D
:1007AC00EC0ADFF8EC2A0168DFF8784902EA010567
:1007BC00E9430160A90606D54068800603D54FF4CD
:1007CC00005100F090FB15F4602F0BD0A06905F4DC
:1007DC0060210843A061002104F19C00BDE8344075
:1007EC0000F0F3BF31BD70B5FFF70AFFDFF83449F5
:1007FC000646A06910F4602F27D0A069C5012D0E04
:10080C00E80748BF002506D4A80748BF012502D435
:10081C00680748BF0225681D40B200F0E2FEA069DF
:10082C00012105F1110291408843A0613046FFF788
:10083C00EBFE04EB85008668300009D0606800226E
:10084C004FF00063691DB04702E03046FFF7DCFE55
:10085C00A06920B1002104F19C0000F0B6FFE07FFC
:10086C0080070DD56569280006D0606800224FF01E
:10087C0000436FF00101A847E07F00F0FD00E07736
:10088C0070BD70B501F06CFBDFF89858DFF8D04AFA
:10089C00AB6A024690071DD4D3E90401104007D07F
:1008AC00EB629969084398614FF4804100F0F8FCC1
:1008BC00A86A002849D16E6A002E46D0F068A96B50
:1008CC00884224D005F14C00BDE870404FF48051B3
:1008DC0000F07BBF0BB9A86AEAE70020A862D3E955
:1008EC0004019E69024042F0020232439A6162693D
:1008FC0082436261E26822EA0100E060194605F178
:10090C003000FFF7CAFE022100F0CAFCE3E7B06832
:10091C00FFF71EFFA86418B1A86CBDE87040ECE6A8
:10092C00D6E90401626902436261E26841EA0200AD
:10093C00E0600020E061B0682060E0690028FCD035
:10094C0005F12400FFF79EFEAE6270BD0020D4E6D8
:10095C00F8B506461446376E1D4607B1B847A007D2
:10096C0008D4D6E91601204029400022914208BF44
:10097C00904207D0C6E91A4506F13800BDE8F240AE
:10098C00FFF73ABEF1BDFEE780B500F00EFFDFF8D1
:10099C0094270146906BD26BBDE80840104710B508
:1009AC00DFF880470FF23D01E06B884202D101F085
:1009BC0033FB206404F14C00BDE81040042100F02E
:1009CC0004BF80B501F0CCFADFF89819084207D0C3
:1009DC00BDE804404FF00051DFF8A40B00F0F5BE69
:1009EC0001BD000038B5042951D1DFF83847606AE1
:1009FC00A16B08B1C16803E0E07FC00748BF616824
:100A0C00A1630846DFF8B42A41680B7813601268BA
:100A1C0009788A421CBF8569002D05D000224FF051
:100A2C0000736FF0FF01A847022001F039FC112080
:100A3C0001F04BFCDFF8E8060121C176A16B407E8A
:100A4C00097C014204BF0E2001F03FFCA06BDFF8D3
:100A5C00101940688268002A04BFC068002804D0BE
:100A6C000020C861DFF8C40A086040F2FF70DFF8AC
:100A7C00C02A106000208861DFF8E80848610FF296
:100A8C001100E0631920BDE83240FFF7D5BD31BD40
:100A9C002DE9FF418046880040F19780DFF88456AD
:100AAC00A86B40684068010018BF8047A86BDFF84E
:100ABC00B06840688168002904BFC168002912D061
:100ACC00F1690029FCD00021F1618068010018BF98
:100ADC008047A86B4068C068010018BF8047DFF8EA
:100AEC00A40A01F045FA0020F06108F10807DFF8CC
:100AFC00980A3060012001F083FA00220FF21D10D9
:100B0C00E86340F60A01DFF8180642800180027B98
:100B1C0002F0F002027300224260427B02F0F0020B
:100B2C0042F00102427300223C68628000E01446ED
:100B3C006268002A1CBF13888B42F8D1606040F6B3
:100B4C000302617B01F0F0016173696A89680988AD
:100B5C0091421CBF40F60402914217D0398BA9B1C7
:100B6C0000217983F96108F12C010A7802F0F00276
:100B7C000A704A7802F0F00242F001024A7008F161
:100B8C0020014160417B01F0F001417369463868F6
:100B9C0001F016FA684601F022FA386801F01EFAE4
:100BAC00F0690028FCD00020F061012001F04CFE1F
:100BBC00012808D0607B00F0F00040F00100607369
:100BCC000FF20D00E86338683060BDE8FF8100006B
:100BDC00DFF84C0A014200D17047012010B501F03A
:100BEC0033FE0128DFF83C4508D10FF23100DFF865
:100BFC007017E063DFF82805086010BDDFF8241AD1
:100C0C0009683220EC34B0FBF1F12046FFF704FD0B
:100C1C002046BDE81040FFF703BD00002DE9FE4360
:100C2C0006460D466804DFF8FC4417D5FFF7E8FCD0
:100C3C00E66AB769FFF7E8FCB8070CD45EB1B06997
:100C4C00B843B061706830B1B6F91C10F0687668C2
:100C5C003A460023B04725F480453DE1A807DFF86C
:100C6C00C0747BD5266B002E70D0B168202001E0BB
:100C7C004968401E79B1C2B26AB10A8840F60303D2
:100C8C009A421CBF40F604039A42F1D1F068182234
:100C9C00203001F09FFEB0690021B1617168E1B1B3
:100CAC0040F00202F07F002300F00700012807D07B
:100CBC00022809D0042804BF00224FF0805306E01C
:100CCC0000224FF0005302E000224FF08043B6F9AF
:100CDC001C10F068D6F804C0E047FFF791FC804682
:100CEC00E08E401CC0F30B00E086206BC17F01F04E
:100CFC007F01C17704F13000FFF7C4FC00F0EDFB7D
:100D0C00B4F93610F06800F19402B2F9003099424F
:100D1C0004BF397D002919D1917809B9016821B92D
:100D2C0000209070FFF7E9FC10E0A26B126812F142
:100D3C00010F0BD0DFF824261268B1FBF2F17030F2
:100D4C00FFF76AFCF0687030FFF76AFC206B002834
:100D5C0025F0020501D045F00205BDE0A80004F124
:100D6C00800840F6090957D5206CB8B1042001F071
:100D7C006BFD98B101F050F9216C814228BF401EE7
:100D8C00401A000B00F58D70F06040F2D761A0F2B4
:100D9C00EE20884224BF40F6C410F060002020648E
:100DAC00D6F818C0BCF1000F0DD0787B0F2108428B
:100DBC0004BF708C484506D100224FF000736FF4CD
:100DCC0080713046E0470022DFF85C18404600F0A6
:100DDC000FFDB87E50B10220ADF80000684601F05E
:100DEC00C7F8BDF80800A0830020B876012084F86D
:100DFC002000F87D401CF8750020F876192000F0D2
:100E0C00FAFC77692FB100224FF080630021304645
:100E1C00B84725F000555FE0B87F25F0080620B1F3
:100E2C00280702D50020B87743E0280743D50020D7
:100E3C0084F8200001203877002001F0E1F80FF24F
:100E4C00B100DFF8E817DFF8D056E0630022404627
:100E5C0000F0CEFCB97E787E81F00101084202D10F
:100E6C00012078760FE0A06CF8B101F0D5F8216C78
:100E7C00626C401A02EB10306064A16CB0EBC11FC5
:100E8C0013D300206064A7F80090787B00F0F0008A
:100E9C0040F00100787300207880387B00F0F0007F
:100EAC003873002078602F6003E04FF0005100F0A1
:100EBC001AF8354610E0A8040ED5A66A002E1CBF01
:100ECC007068002806D0B6F91C10F068766800220D
:100EDC002023B04725F4005515B1294600F003F83E
:100EEC00BDE8F783022104F14C0000F06EBC000059
:100EFC0070B50646880028D501F047F8894CDFF814
:100F0C003007874DE063687D18B906F13800FFF7AC
:100F1C0073FBDFF81C1600200860022001F056F964
:100F2C00112001F067F9307C10B90E2001F062F944
:100F3C000020A883287E40B100202876042104F1EB
:100F4C004C00BDE8704000F040BC70BD30B58DB0B9
:100F5C0001F0BDF8DFF8DC06DFF8DC460168714D06
:100F6C0041F00201016001A8FFF77EFBA078DFF8D9
:100F7C00CC160790002301AA05F14C00FFF760FB8B
:100F8C0001A8FFF778FB0020ADF81C0001AB20781E
:100F9C00DFF89826099019210020009005F18000B7
:100FAC00FFF752FB01A8FFF75FFBE078DFF8901624
:100FBC000790002301AA05F19C00FFF741FB01A853
:100FCC00FFF759FB0120ADF81C0001AB6078DFF88E
:100FDC00742609901A210020009005F1D000FFF72B
:100FEC0033FB00230022DFF8601605F1EC00FFF75D
:100FFC002FFBDFF83C06E86301214FF6FF70A88356
:10100C000DB0DFF8480681760021E9774176C1768C
:10101C0081838177296430BD2DE9F041404E04462F
:10102C00707D8EB00F4690461D4618B9FFF78EFFA7
:10103C0001207075002F1CBF6760B8F1000F47D0FE
:10104C00C4F80880FFF7DCFAB17D00293ED10121FC
:10105C00B175FFF7D9FA35B909A80FF2206114223E
:10106C0001F0B8FC09AD286820606868E060287A57
:10107C002074E86860612869010018BFA0617821BC
:10108C0004F1200001F0D2FC082324220021684640
:10109C00FFF7A6FA01208DF818006A46002104F12A
:1010AC003800FFF7A1FA0823242200216846FFF735
:1010BC00AFFA06946B460022DFF8941504F1700029
:1010CC00FFF7C6FA20460EB0BDE8F081FFF79CFA98
:1010DC000020F8E738B5FFF793FA124991F8201081
:1010EC0031B1DFF874150C68FFF78EFA204632BD6B
:1010FC00FFF78AFA00F090FF10F50030DFF85C255E
:10110C0041F10001A2FB0045054802FB01550169B4
:10111C000020221845EB0103184632BD00000000E8
:10112C00601B0020501A00202DE9F84F80460C4619
:10113C0092469B46FFF764FADFF818558146B5F9DD
:10114C003400B5F93610401AC0F30B0008286FF0C4
:10115C00010648DAA88E401CC0F30B00A886B5F92E
:10116C003400ADF8000000207B4901EB4017F97FFB
:10117C00090604D5401CC0B20828F5DB002708F18D
:10118C00700000F0F8FABC6087F81EA0C7F804B035
:10119C002021BDF80000B883C7F80C80DDE90A23D4
:1011AC00DFF8BC0410401940C7E9040108F19404AD
:1011BC000020F87740F6FF78686A0028394605F178
:1011CC00240008D0FFF769FA40B1BDF8000000F028
:1011DC0061F848464BE0FFF760FA48B9A88E4044E6
:1011EC00C0F30B00A8864846FFF70EFA304649E0DC
:1011FC00BDF80000DFF8546400F04CF80020A0703B
:10120C0095F82010707F084207D00120B07700209D
:10121C007077B076F07D401CF0754846FFF7F4F916
:10122C00A86A68BB95F8200018B1192000F0E3FA01
:10123C0026E0F07E20BBFFF7E3F90446307F10B1C7
:10124C000120307612E0B868FFF782FAA86488B102
:10125C00A86CA96BC968401ADFF8C813096805F1B6
:10126C00EC0600F021F83046FFF7DAF92046FFF7DC
:10127C00CBF905E02046FFF7C7F9042100F010F880
:10128C00BDF90000BDE8F28FF6FFFF1F0810044007
:10129C0020000E002080F87F40F08000F877704727
:1012AC0005F14C0000F091BAB0FBF1F13046FFF7BC
:1012BC00B3B92DE9F04106460F4614461D46FFF71B
:1012CC00CBF980463846FFF705FA070003D14046B4
:1012DC00FFF7C6F90AE0F87F0721084209D040461B
:1012EC00FFF7BEF90721F87F0842FCD1022000214C
:1012FC0014E07968DFF86C03814202D079683166BA
:10130C007860C6E916454046FFF7AAF94FF0FF3161
:10131C0006F13800FFF76CF9D6E91A01BDE8F08147
:10132C00DCB5DDE906670446CDE90067180008BFA7
:10133C00DFF830332046FFF7F7FE002803D50020F6
:10134C004FF00041DCBD0146204602B0BDE8D04064
:10135C0002224FF0E043ACE7980B0020E08800003D
:10136C0000100440020000400446FFF749B901E0B8
:10137C0042F002022DE9F843DFF8D842606A00908F
:10138C00894603271546FFF73BF919F1010F05F0C4
:10139C00010680460AD1A06A002819BFA06AB0F9DC
:1013AC001C90E08E00F101090020E0770FFA89F023
:1013BC00FFF790F901007CD0A06A814205F002058C
:1013CC0025D1280003D0606A0090002060620122C1
:1013DC00C87FB2401043C877FFF73EF90746002E8E
:1013EC0014BFDFF88402DFF8840200F0C1FD00F0C6
:1013FC0074F825B906E000F063F800F069F800987D
:10140C000028F8D13846FFF72BF9832753E0009AD0
:10141C008A4204F1EC0016D100F0ADF9280012BF9D
:10142C000020606A0068606200F057F8009800F0D5
:10143C0047F800F04DF8009818B32800F6D120E0DA
:10144C00009A12680092009AEAB112688A42F7D1A7
:10145C0000F091F9009800681DB1009A002111600C
:10146C0004E00168009A116000210160009003E023
:10147C0000F026F800F02CF800980028F8D100F0C5
:10148C002CF8832701E000F028F8DFF8C001C17EBA
:10149C0011B1FFF727FD0EE0007F60B9DFF8D00136
:1014AC00E063FFF71FFD94F8200020B96048E0636B
:1014BC0001E000F012F83846BDE8F283D021084074
:1014CC00C07F009940F00400C8776846FFF7DAB88F
:1014DC00014604F13000FFF7E0B84046FFF794B83E
:1014EC0038B5FFF741FF05465A4890F8200068B11F
:1014FC00204600F03DFD044600F048F804F0FF00E3
:10150C00012801D1812032BD022032BD00F03EF80D
:10151C00012032BD00000000001004400A464D4975
:10152C00896B884201D0032070470AE051000706FE
:10153C00000004600A464749896B884201D00320A9
:10154C00704700211046CBE770B542498A6B904238
:10155C006FF07F0412D191F8200078B1FFF750F8AA
:10156C000546444800F004FD064600F00FF806F06E
:10157C00FF00012802D13002001670BD204670BD5C
:10158C009C1A00200100070601010E042846FFF7F3
:10159C003BB870B50E461546FFF732F883242D493B
:1015AC001EB1022E0DD004D30FE08A6A3AB1896ABB
:1015BC0002E0264A927E12B9898B298006E08024AB
:1015CC0004E091F82010297000E00324FFF71CF8C8
:1015DC00204670BD80B50846FFF77CF800B18068E6
:1015EC0002BD38B5FFF7C0FE1A49CA7F520702D5B3
:1015FC008B7F9C4210D001228B8B02FA04F52B437B
:10160C008B830C341C490B68A24023EA02020A604B
:10161C00096809B90D4A1175BDE83240FEF7F4BFEF
:10162C0004000020E08800008F080000CF090000B3
:10163C00F109000000200940DC840000950900003D
:10164C00F3070000A9070000AB090000601B002095
:10165C0059090000501A00200430044000093D00D4
:10166C00F1EFFF9F5D09000001000204010001047D
:10167C00290C0000010003040C100440FFFFFFFFC5
:10168C00C4090000010000000000000093090000E4
:10169C00DFF800F021B30110DFF800F095C0011065
:1016AC00DFF800F00DA80110DFF800F0BDBE01104E
:1016BC00FEE7DFF80001007D70476DE038B5FFF7FD
:1016CC00FCFFDFF8F8500446A8680021FFF7E4FFA0
:1016DC006969081AA969814238BF002084F311880E
:1016EC0032BD2DE9F041FFF7E8FFDFF8D05004469A
:1016FC00A8680121FFF7D0FF0121A9830021E9830C
:10170C006E6929682A68871B801A711A884204D26C
:10171C000020A88384F311882BE084F31188002423
:10172C0006E0A61931460120FFF7BAFF3F1B04461D
:10173C00A742F6D2FFF7C1FF8046E88B012804D1FF
:10174C0031460020FFF7ACFF0446A96914F1010FE4
:10175C0008BF084603D0E01B814238BF08468119F8
:10176C00FFF7A2FF012028840020A8832E6088F3B5
:10177C001188BDE8F08100218182DFF83C10C0683F
:10178C004969884204D1DFF85C000068FEF748BF65
:10179C007047808A70477047DFF84C100968EFF388
:1017AC00118081F311887047F6E7DFF840008068FC
:1017BC0070470000A401002078010020780100206F
:1017CC00616280F311882046704738B504460D4697
:1017DC00FFF7EAFF616A2943FFF7F2FFBDE83240E9
:1017EC00FFF756BFE4880000DC880000C801002029
:1017FC00816042607047102804D3DFF80C10103859
:10180C00C1F8000F7047000000E000E001F012B9D1
:10181C00FFF7C2BFDFF89811C20744BF01220A606C
:10182C00820744BF4FF480720A60400744BF4FF4F4
:10183C00803008607047DFF87C21C30748BF116017
:10184C00830748BF5160400748BF91607047000054
:10185C0010B504460020D4E90A2347F6906101F044
:10186C00E3FB0123994228BF4FF0FF3010BD10B5A8
:10187C000C4600F0C7FB011D201AB0F1004F05D833
:10188C00081BB0F1004F38BF8C4200D20C462146E9
:10189C00BDE810400120CEE72DE9F04180460A4614
:1018AC00D8E90A01D8E90C45A0FB026701FB0277D5
:1018BC00A6196F41340C002244EA07414046FFF759
:1018CC00D6FFC8E90E67BDE8F081F8B50646FFF70C
:1018DC009FFF0446DFF8E050DFF8E0700120E8617C
:1018EC00FFF798FFF96A096A142088473069B0F548
:1018FC00802F34BF0421010C0120FFF79CFF3A68B4
:10190C001268232100209047DFF8B41001200860F2
:10191C00DFF8B400016821F4E02141F4803101606A
:10192C000120286084F31188F1BD000000F074BB25
:10193C0010B5DFF89000446800F006F86069A16902
:10194C00BDE8104008470000012063E7F8B50446E5
:10195C000D4600F061FBD4E90A6732463B4601F0C4
:10196C0063FB3DB1A6FB002306FB013307FB0033F1
:10197C00C4E90C23F2BD10B5DFF83C00DFF864407D
:10198C00002101600121C16121602068FFF7DCFFAB
:10199C00DFF860100968096A14208847206810BDB8
:1019AC00000080B500F038FB000C40EA014002BD9D
:1019BC000420094018200940000024438401001031
:1019CC0080022443E401002000200940DFF8EC14DD
:1019DC00096821B10A898242FAD108467047002071
:1019EC00704700002C200940DFF8D804C0887047ED
:1019FC0000000000B001001000F008F80EBD00BFA0
:101A0C0008B582B00023009302ABF5E777B58DB033
:101A1C001C461498ADF8180000250F9828B92CE135
:101A2C000EAA0DA800F070F96D1C00F032F9080038
:101A3C0000F01D812529F3D100F02BF92D2905D1BA
:101A4C000120ADF8060000F024F902E00020ADF80A
:101A5C000600302904D10120049000F01AF901E0AD
:101A6C0000200490002000904FF0FF3002900A20DC
:101A7C002A2918D12168216051F8042B2160009289
:101A8C0000F0FDF8009A002A11D50122ADF80620CD
:101A9C00009A524200920AE0009A00FB021130397F
:101AAC00009100F0ECF8A1F130020A2AF4D32E29AF
:101ABC001AD1002100F0F2F82A290F9210D100F06F
:101ACC00F9F80291002944BF0020029000F0E1F8DF
:101ADC000AE0029A00FB0211303900F0DFF80F9295
:101AEC00A1F130020A2AF4D3049808B100980490AA
:101AFC006C2918BF4C2905D10120ADF8040000F069
:101B0C00C8F802E00020ADF8040008A807900CA863
:101B1C0005900020642918BF692903900DD1BDF8E8
:101B2C0018000028FFD000F0BFF86FF009030298EE
:101B3C00049A8242B8BF049019E00A2375291FBF8A
:101B4C001023782908236F2903D1BDF8180038B960
:101B5C0006E0702913D1049320682060016814E01A
:101B6C0000F0A2F8049A02988242B8BF0490049A3A
:101B7C00059800F0A5F807900599081A2FE063293D
:101B8C0019D12068206001680FE0001D206010232F
:101B9C000598082200F094F8401E07904020079901
:101BAC00087005980799401A19E0001D20600798E5
:101BBC000170012013E0732913D100F07BF8079119
:101BCC0011B90FF244300790079801F0A5FA039071
:101BDC00029810F1010F1ED0039988421BDA039072
:101BEC0019E00F98401E0F900E98022813D30298FC
:101BFC0010F1010F02D00E99884201D30E9800E02B
:101C0C00401CDFF8C462366802906B4622460FA96E
:101C1C000DA8B047451900980399401A0090BDF8DB
:101C2C00060038B902E000F030F86D1C0098401E38
:101C3C000090F8D50398411E039150B10798401CB1
:101C4C0007900EAA10F8011D0DA800F05DF86D1C90
:101C5C00F0E7BDF8060000283FF4E7AE0098401E00
:101C6C0000903FF5E2AE00F010F86D1CF6E70D9811
:101C7C0010B10D9900200870284610B070BD0F9956
:101C8C000F9A0978521C0F9270470EAA20210DA8AA
:101C9C003AE00F9810F8011B0F90704702910F99C2
:101CAC000F9A0978521C7047206820600168001D4B
:101CBC00206070472068206050F8041B206070473B
:101CCC00F0B500240025002B44BF5B42002902D54F
:101CDC004942521E2D25B1FBF3F60FF2342703FBBC
:101CEC001611641C795C00F8011D31460029F2D1F3
:101CFC009442BEBF302100F8011D641CF8DB2900A2
:101D0C0018BF00F8015DF0BD10B50C461168022932
:101D1C000BD3491E1160016819B14A1C02600C708A
:101D2C0010BD01F04FFB00B100E010BD2046BDE836
:101D3C00104001F045BB65490968084764480068D4
:101D4C00004701207047FEE77047704710B5044606
:101D5C00606808B9012010BD0B460146206852A2EC
:101D6C0000F0BCF8A1684118A16061680129A4BF0A
:101D7C00081A6060002010BD2DE9F0410446884629
:101D8C00A088164600F021F80746F11B002E01D45E
:101D9C000A2904DB236845A200F083F8C719A0893F
:101DAC0080B1F51BA468002E05D4204601F0B4F9CF
:101DBC00401D854206DB23460FF26812294600F0CF
:101DCC0070F8C7193846BDE8F0813EB50D463A4962
:101DDC00098814468142034628BF0FF2501210D2D4
:101DEC0037490988814207D3FFF7F0FD2146426845
:101DFC00284600F073F83EBD2D49098831B90FF221
:101E0C0038122146284600F069F83EBD314B1B685C
:101E1C000095002C48BF47F6FF74002102910194F5
:101E2C006A462D49984702983EBD2DE9F8431700A4
:101E3C0048BF47F6FF7704468846002674B32088CF
:101E4C00010004D03A464146FFF7BFFF0646B91BD6
:101E5C00012922DB208820B116A2404600F03EF872
:101E6C008619A068C8B1656875B1284601F054F9A7
:101E7C00A7EB0609401D814506DB2B460FF2CC0271
:101E8C00494600F00EF88619B91B122905DBA36828
:101E9C000FF2C00200F005F886193046BDE8F28357
:101EAC00000040461AE00000257300002570000079
:101EBC008A0500003A200000362A00007C0B002026
:101ECC000E200000F0010020F4880000EC880000D7
:101EDC00F0880000F8880000591D000008B478B59F
:101EEC0004001ABF2668002E00260D4605AB3046AE
:101EFC00FFF786FD854238BF681E16B12168014484
:101F0C00216072BC5DF808FB286E756C6C290000B2
:101F1C003031323334353637383961626364656653
:101F2C000000000028272573272900007B6D6F64B3
:101F3C00756C652325647D007B6D6F64756C652DF8
:101F4C00726F70653A25787D00000000222573229F
:101F5C002C2000006C696E652025643A200000007E
:101F6C0021490868C2430A600A680242FAD17047E4
:101F7C001E490A68002AFCD1CA610860C869002899
:101F8C00FCD00020C86148687047194801686FF0A0
:101F9C000202114041F40071016003211548816077
:101FAC0041F2300141610121C160502141610121A7
:101FBC00C1604FF4CA6141610121C1600160704789
:101FCC000D4802680A6082684A60C2688A60406B89
:101FDC0020F0784040F08050C86070477047014650
:101FEC001022064800F0E6BC10100440001004401B
:101FFC0000000460004104404C1300501800002104
:10200C007047FF7F09480168426803689942FAD11A
:10201C00100C40EA0140704710B5044A1368506830
:10202C001468A3421946F9D110BD000008200940DC
:10203C00DFF800F0F5C00110DFF800F049BA01102C
:10204C0020B1082324220021FEF7E2BA704780B5A4
:10205C000120009009234FF400720021DFF80807DB
:10206C0001F005FA01BD80B5002301223421DFF80F
:10207C00F80601F00FFA00B10120C0B202BDDFF882
:10208C00EC0680687047DFF8E416401890F8ED0015
:10209C0070470022022904D1012806D140F2EE2219
:1020AC0003E0012808BF4FF47A7210467047DFF83E
:1020BC00BC06D0F8DC007047DFF8B00690F8E610EC
:1020CC0021B1D0F80C01010018BF004770472DE971
:1020DC00F041DFF8988608F1E1058AB0A87900286C
:1020EC0061D10120A871DFF88866DFF88876307B33
:1020FC0068717068C8F80C0101A8FFF7A1FF0020F7
:10210C000690ADF81400079001AB00220FF2F541D8
:10211C0008F10C00FEF79CFA01AB00220FF2A15162
:10212C0008F13000FEF794FA01AB00220FF2D9410E
:10213C0008F15400FEF78CFAB16801208847DFF8EB
:10214C00380600787868C0F38154707B20B1032C7A
:10215C0002D10120287003E0032C18BF022C16D1E9
:10216C00022000F09DF8032CDFF810160CBF4FF482
:10217C007A7042F210700968B0FBF1F108F154006A
:10218C00FEF74AFA08F15400FEF74AFA05E0012C72
:10219C0003D100F063FAFFF75AFF386840075CBFC1
:1021AC00002000F07DF80AB0BDE8F08110B508B150
:1021BC00140001D1022010BD8160C2600361014690
:1021CC00DFF8A80501F080F9002010BD10B5044619
:1021DC00FEF716FADFF89415621892F8E8305B1ED9
:1021EC0082F8E830DBB223B98A680123A3409A4312
:1021FC008A6066E02DE9F0410546FEF701FA80465B
:10220C00DFF86815681890F8ED20521E80F8ED2064
:10221C00D2B2002A3FD10FF2A050DFF8644500EB98
:10222C0085052E786F88300615D52168096A3846E1
:10223C0088472168896A384688472168096B38467F
:10224C008847DFF8401501200860DFF83C0500687E
:10225C008007FAD512E0700606D501EB8701002045
:10226C00D1F80011884709E0216889693846884708
:10227C002168496B384688470228F9D106F03F009F
:10228C003F2818BFFFF7B6FF687800F03F003F28E3
:10229C0018BFFFF7AFFF4046BDE8F041FEF7B4B9F9
:1022AC0010B50446FEF7ACF9DFF8C0148A680123B8
:1022BC00A3401A438A60611891F8E820521C81F8F7
:1022CC00E820BDE81040FEF79FB9F8B50646FEF7CA
:1022DC0097F90446DFF89454701990F8ED104A1CE5
:1022EC00002980F8ED2039D10FF2CC4000EB8607A5
:1022FC00387800F03F003F2818BFFFF7E6FF7878EA
:10230C0000F03F003F2818BFFFF7DFFF7E883878CA
:10231C00DFF86C7401060ED53968C96930468847F8
:10232C003968496A304688473968C96A30468847EF
:10233C0000F019F812E0400606D505EB86010120E5
:10234C00D1F80011884709E0396849693046884757
:10235C003968496B304688470128F9D12046BDE8D9
:10236C00F240FEF751B9DFF81C1401200860DFF8C9
:10237C00180400688007FAD570472DE9F04F002447
:10238C0083B04FF0000A0128D04618BF012664D153
:10239C00DFF8D893D9F8DC0001285DD10220C9F808
:1023AC00DC00FFF745FE0090012000F062F906000A
:1023BC0054D1FEF751F9DFF8D81301900C600120CD
:1023CC0000F042FA012804D1002000F0A7F94FF0E8
:1023DC00010ADFF8C013DFF8B4030C6000681120A9
:1023EC00FFF751FE08B14FF001081020FFF74BFE2C
:1023FC0008B148F002080F20FFF745FE08B148F07D
:10240C0004080B20FFF73FFEDFF8746320B131683E
:10241C00096B4FF4806088470A20FFF734FE20B127
:10242C003168096B4FF481608847DFF85813DFF887
:10243C006873DFF868B30120086048F02000316849
:10244C0089698847DFF858130120086099F808005B
:10245C00C00707D5012416E0042673E00120C9F853
:10246C00DC006CE0584601F051F80546042DF9D01B
:10247C00012D04D1326A52680321584690473868BE
:10248C00800880003860002001F048F8BF480068E0
:10249C003068806B804754B9012D04D1326A526880
:1024AC00012158469047386840F0030038600120FD
:1024BC00B849086040463168496988470B20FFF7E6
:1024CC00E2FD20B13168C96A4FF4806088470A2068
:1024DC00FFF7D9FD20B13168C96A4FF48160884794
:1024EC00A849012008600020AD4908600320C9F804
:1024FC00DC003168496B404688470128F9D104203B
:10250C0000F0B7F8A24901200860A0480068A5486F
:10251C0000688006FBD5BAF1000F1CBF012000F04B
:10252C00FDF801F047F9082000F0A3F80646012059
:10253C00C9F8DC000198FEF793F801F0BFF8009899
:10254C00FFF77AFD3046BDE8FE8F38B50446FEF73E
:10255C0057F805462146854800F0CAFF28464BE04F
:10256C0030B5002401288BB004D021D303281DD012
:10257C0018D31DE001A8FFF763FD7C4D8A49069432
:10258C00ADF81440079401AB012205F17800FEF779
:10259C005FF800940023854A2C2105F19C00FEF77E
:1025AC0053F805E001F022F9044601E001F0C4F90A
:1025BC0020460BB030BD00F054B938B5FEF720F80A
:1025CC0005466A4890F8E000012410B1FFF74BFD76
:1025DC0004462846FEF718F8204632BD38B5FEF7FB
:1025EC000FF8624D044695F8E00020B100F080F938
:1025FC00002085F8E0002046BDE83240FEF704B824
:10260C00000000007047000010B582B0042000F0FC
:10261C001BF9022818BF032807D100F01FF8FFF799
:10262C0016FDBDE816400220D0E56148534900680C
:10263C004E4CC0F3815003280CBF4FF47A7041F21A
:10264C0088300968B0FBF1F104F15400FDF7E4FFA8
:10265C0004F15400BDE81640FDF7E2BF03200090E2
:10266C001C234FF0405200213F4800F000BF0020D7
:10267C00704770B504463D4E304600F01BFF0025F8
:10268C0098B9304600F01CFF0646B068204207D0CF
:10269C003269F3680021204698470546012D05D084
:1026AC00304600F00FFF0600EFD1284670BD4149BF
:1026BC0001280CBF40F2FF7000200860002070471A
:1026CC0070B5FDF79DFF294E294D044696F8E000A4
:1026DC0028B100F00DF968B1002086F8E000022066
:1026EC00AD68A84706461020FFF7C3FF8EB1032044
:1026FC00A8470EE0214909683220B0FBF1F101B97D
:10270C00012106F13000FDF787FF06F13000FDF7DF
:10271C0087FF2046BDE87040FDF776BF38B501282D
:10272C001ED100F091F801281CD000F0D7F80F4C06
:10273C001249012084F8E00032200968B0FBF1F561
:10274C0005B9012504F13000FFF715F8294604F10D
:10275C003000FDF761FF04F13000FDF761FF01E08F
:10276C0000F0E8F8002032BD00A00C40680A002000
:10277C009C840000B03F005065200020E0880000E1
:10278C00B801001028200860282008402C2009409F
:10279C000C40094000022243242208400040034020
:1027AC008001044314100940813A000051380000A4
:1027BC00B43F0050000004608F3F00008F3F0100C9
:1027CC008F3F02008F3F0300903F00018F3F0101BC
:1027DC00903F0002903F00038F3F01048F3F0005A4
:1027EC008F1208048F3F00048F3F0006513F0000FA
:1027FC007F3F01003F3F04003F3F02003F3F01008D
:10280C007F3F020070B50446E00782B00D46624E71
:10281C0005D5A8B200900023012200F011F8A00702
:10282C0005D5A8B200900123022200F009F8600738
:10283C0005D5ADB2009502230C2200F001F873BD52
:10284C000021304600F013BE0146042907BF1D23AA
:10285C004FF0C0421C234FF080524F48342100F0FF
:10286C0019BE38B50546FFF7CDFB4C4CA168401A94
:10287C004FF47A71484305EB104501F0D1F9216909
:10288C00401A48BF404240F6B9318D4207D2062863
:10289C0005DAA068E168814201D322685AB940493F
:1028AC004A68D2074FF4FA6017D4086800F0FF00AA
:1028BC007D21484308E0081A3A494843000C00EBD4
:1028CC009000904238BF1046C82801D2C82032BDB3
:1028DC00B0F57A6F88BF4FF47A6032BD80B50121B4
:1028EC000320FFF78FFFFFF78DFB2C49886001BD9C
:1028FC0080B50120FFF7A8FF012819D00023012281
:10290C003421254800F0C6FD98B100F026F8FFF7F9
:10291C0079FB22498B680A68C860A2EB9202C01A44
:10292C00204B5843000C0860904238BF104608609A
:10293C00012002BD10B500210320FFF763FF012029
:10294C00FFF782FF08B100F008F8144CFFF75AFBB0
:10295C00606001F065F9206110BD1348006801F05A
:10296C0073B910B511490A68114909681404241681
:10297C001B384443E41004EB2244120600FB00F322
:10298C00121609065A435843091604EBA22248436F
:10299C0002EBA04010BD000000A00C404420002021
:1029AC00AC3F005040420F008000001090130050CC
:1029BC00A410005062B38B0708D0521E11F8013BD3
:1029CC0000F8013B00F024808B07F6D1830740F020
:1029DC00208000BF103A07D330B4B1E83810103A59
:1029EC00A0E83810F9D230BC530724BFB1E8081066
:1029FC00A0E8081044BF51F8043B40F8043BD20750
:102A0C0024BF31F8022B20F8022B44BF0B78037043
:102A1C007047083A07D3B1E80810083A40F8043B6D
:102A2C0040F804CBF7D25307E4E70040002201F052
:102A3C0027B9000010B5DFF82405046814F1010F64
:102A4C0008BF002401F09EF9DFF81415002008607F
:102A5C000120DFF810150860DFF80C15086000F095
:102A6C004CFADFF80805006828B1DFF804050068A7
:102A7C00204600F022F8DFF8FC14DFF8FC240020DC
:102A8C000860DFF8F80401686FF31B411143016023
:102A9C00DFF8EC040168C1F30131012907D10168A9
:102AAC00DFF8E024114041F4003202600160DFF8ED
:102ABC00D80400680028FAD110BD70B50546DFF8BF
:102ACC00CC0401210160DFF8C81409680029FAD090
:102ADC00DFF8C044DFF8C024C02121605368DFF860
:102AEC00BC149B075DBF13681B0C43F0F0037223EF
:102AFC000B70002101639668304600F031F83146C6
:102B0C00284600F061F8DFF89804816D89B240F234
:102B1C000F22914214D201680068C1F30361C0F323
:102B2C00034001B1491E072805D006280EBF072017
:102B3C00801C00F00F0041EA0010DFF868140870E8
:102B4C00304600F0B2F8DFF860140968C96802205A
:102B5C008847402020600120DFF85014086070BDC9
:102B6C0010B50446DFF848040068C0F3046000F0B8
:102B7C00C0F92117491C08181628A8BF152004DA1B
:102B8C006FF009018842B8BF084600F01F00DFF85B
:102B9C00241440F4F8500880DFF81C040068800707
:102BAC004FBF44F040640020DFF810140860DFF8D9
:102BBC001004C4F3C06181F001010160C4F38061B1
:102BCC0081F00101816010BD70B5054682B00846E8
:102BDC0000F0F0F80246DFF8EC43182100F062F840
:102BEC0000F014F980B20090002340F2FF322C2147
:102BFC00204600F03CFCDFF8D063F068C0F30D0217
:102C0C001C2100F04FF8706800F0FC32142100F029
:102C1C0049F83068DFF8B413DFF8B46301EA000256
:102C2C00102100F03FF8284600F0FAF802460C217B
:102C3C0000F038F8284600F01EF9400040F0200063
:102C4C003072284600F020F940F01000307228460F
:102C5C0000F023F90246282100F024F8284600F061
:102C6C0001F9400040F06000F072284600F02FF9A6
:102C7C00C00040F080003070284600F031F9800030
:102C8C00DFF8501340F47C400880284600F012F91D
:102C9C000246082100F006F8DFF83C134FF48000E0
:102CAC00086073BD204600F0DDBBF8B5810C01F067
:102CBC0003010129C94CC84D02D002292AD026E0B3
:102CCC00216A8A0323D44FF480422A606FF08F0666
:102CDC00C34AD2F8023033404E0A06F08006334322
:102CEC00C1F303363343C2F80230C1F30326D2F8E2
:102CFC0001301B0946EA0313C2F801306FF0E706F6
:102D0C001368334001F0E7011943116002E04FF002
:102D1C0000412960B34EB44AB16809075CBF402139
:102D2C00A9624FF400712964800D216AC90C01F06D
:102D3C00030141F0300110F00300117003D00228A0
:102D4C0026D008D326E001210420FFF75BFDA7481D
:102D5C0000F0F4F822E00120FFF776FD0746394633
:102D6C000420FFF74FFD0420FFF76EFDB842FAD1A7
:102D7C00366826F07F4000F0E1F89D4B1B681B681D
:102D8C004FF060220721300E98474FF48060286086
:102D9C00032100E002210420FFF734FD206895494F
:102DAC0000F03F00087047F61800934908809348DC
:102DBC000068F1BD92490968C1F383628303C1F3D2
:102DCC008F2120D4000400164FF6FF7307E049084A
:102DDC0004D11946520804BF01220121401C0028CD
:102DEC00F5D401280FDB490041F00101B1F5803F1A
:102DFC0021BF0121520042F00102102A24BF0F22F0
:102E0C001946401EEDE741EA024070477C480168D4
:102E1C0000680002C1F3870100F44070084370475A
:102E2C0030B55D4C77490A686568ED07C2F303510C
:102E3C00C2F303430AD42468250501EB257124044D
:102E4C0081F3040103EB247383F304031B0443EAAF
:102E5C00015193B21943222824BF02F08040014350
:102E6C00084630BD0021202803D367480068C0F312
:102E7C000151084670470121222803D3634800689A
:102E8C00C0F30071084670470121222803D35F4824
:102E9C000068C0F34071084670470021202807D312
:102EAC0059480068C10C01F44071C0F384500143CF
:102EBC00084670472028564907D35348554A00689E
:102ECC00810A02EA003040EA81510846704700212D
:102EDC00222803D34D480068C0F3C06108467047F0
:102EEC000021222803D349480068C0F34551084605
:102EFC0070471628A8BF2038704723480068002860
:102F0C00FBD14548454A416812688908890041F05F
:102F1C00005141F00401520748BF41F001010BD4AC
:102F2C00026812F0030F07D041F0030242600268FE
:102F3C0002F00302032AFAD141607047384982B289
:102F4C000A60C0F30740486001208860354800687B
:102F5C000028FBD000208860704700001C13005034
:102F6C00840460425C600C400822044380012843C6
:102F7C00000120438C210840000039014820034007
:102F8C0004000940FFFFFCFC0C00684210100940D3
:102F9C009402224300600C40AC3F00505662084043
:102FAC00BC12005002600840A00100109404604262
:102FBC00B81200506E6208400000094094042A4385
:102FCC000000204300A00C4070130050FFFFFC00D9
:102FDC0041A10C40DCA10C4040A00C406C130050F3
:102FEC000A600840A83F005008A10C40BD3786007D
:102FFC00B40100100BB00C4070B00C402C200940F8
:10300C005013005078130050981300508C1300503C
:10301C0000803F4000F03F0000400340B03F0050B4
:10302C003C600C4084088C431B4213D1094236D1BE
:10303C002AB18446B0FBF2F002FB10C2704700F0DC
:10304C00ABBEFCD30022002370470B000200002112
:10305C0000207047904271EB030CF6D370B5B1FAB7
:10306C0081F4B3FA83F52C1BA340C4F1200532FA8A
:10307C0005F63343A2405FF00046E64002E05B08F1
:10308C005FEA3202841A71EB030524BF20462946FD
:10309C007641F4D302000B003000002170BD012AF0
:1030AC00CFD970B5140C20D0B1FA81F4B2FA82F5F4
:1030BC00C4F120046419B4F12006D6D3B2405FF0F9
:1030CC000044F440002502E052085FEA3303C61ABC
:1030DC0071EB020E24BF3046714664416D41F3D34F
:1030EC0002000B002000290070BD0C46B1FBF2F170
:1030FC0002FB11452D0445EA1045B5FBF2F402FB29
:10310C00145580B240EA0545B5FBF2F002FB1052B3
:10311C0040EA044070BD000000F10103810704D0B7
:10312C0010F8011B89B18107FAD10268B2F10131A3
:10313C00914311F0803F04BF50F8042FF6E710F8CC
:10314C00011B11B110F8011BFBE7C01A70470000FE
:10315C00DFF800F00DC30110DFF800F081C601109C
:10316C00DFF800F095B70110DFF800F08DC2011008
:10317C00DFF800F03DC20110DFF800F009C30110C8
:10318C00DFF800F045C00110DFF800F0D1C70110E6
:10319C00DFF800F067BE0110DFF800F011C8011075
:1031AC00DFF800F021C801100C381F283ED8DFE8EA
:1031BC0000F0103D3D3D3D3D3D3D3D3D3D3D3D1512
:1031CC003D3D3D1A3D3D1F243D3D3D293D3D3D2EA0
:1031DC003338DFF8F401006800687047DFF8E80165
:1031EC00006840687047DFF8E0010068806870474D
:1031FC00DFF8D4010068C0687047DFF8CC010068C4
:10320C0000697047DFF8C001006840697047DFF85B
:10321C00B801006880697047DFF8AC010068C069CC
:10322C007047DFF8A4010068006A704700207047FF
:10323C0000B589B009216846FFF78AFF09B000BDC7
:10324C0000B581B0FEF7E2FADFF88001DFF88011FB
:10325C000068884218BF00F09BF8DFF87801B0F5E1
:10326C00B26F03D001B05DF804EB92E001B000BD89
:10327C002DE9F04184B01D460B68804614460022AF
:10328C0026681F78002003F1010C242FC1F800C020
:10329C0038D15F780CF101034C2F0B6006D156F836
:1032AC00040BAA684146FEF767FD25E0462F0DD1B9
:1032BC0056F8041B0191414656F8040BADF800205A
:1032CC0002906846AA68FEF7B0FD15E0532F19D19D
:1032DC0056F8040BE86126602346288B0090EA69B7
:1032EC00A968D8F80000FEF791FBD8F8001011B1CE
:1032FC000144C8F8001026680021E9600122296801
:10330C00091A2960662F08D1298B002911BF361D97
:10331C00F11D21F0070101F108061AB9E9690F70D6
:10332C000121E960266004B0BDE8F0814FF0FF3068
:10333C009060704700B581B0FEF756FB012818BFAE
:10334C00FEF7B6F90FF21D00FFF706FFFFF708FFB7
:10335C00FFF70AFFFFF70CFF01B05DF804EBFFF776
:10336C000BBF000000B581B0FDF776F9FEF760FEEB
:10337C0001B05DF804EB0320FFF702BF10B5044663
:10338C000320FFF7FDFE2046BDE81040FFF7FCBE12
:10339C00FEE7FEE700B581B0FFF7FAFEDFF8380074
:1033AC00C06801B05DF804EBFEF772B9DFF82C10C1
:1033BC00DFF82C0088617047FFF7EEBEFFF7F0BE18
:1033CC00FEF7B9BCFEF7BABCF001002098CA011098
:1033DC00704728209005000078010020440100204F
:1033EC000004000070B504460D46164600F0DEF9E8
:1033FC00401E8041C00F1A490A68002AFCD0012ED9
:10340C0002D0022E02D003E0257002E0258000E0FD
:10341C00256001220A6000281CBFBDE8704000F046
:10342C00C9B970BD38B504460D4600F0BFF9401E51
:10343C008041C00F0A490A68002AFCD0012D02D035
:10344C00022D02D003E0247802E0248800E02468F6
:10345C0001220A6008B100F0ADF9204632BD00002F
:10346C0000800C400B46114604221818BAE710B520
:10347C0000EB4100102B144600F5007002D3103BFA
:10348C00001D240C0299994041EA0441BDE810400A
:10349C000422A7E738B51D460818102D144602D390
:1034AC00103D801C240C0221FFF7BCFF204080B291
:1034BC00E84032BD006800280CBF01200020704796
:1034CC00006870470068704738B504460D4600F038
:1034DC0064FC00212960616869606168002914BF7F
:1034EC000D6025606560FFE7BDE8324000F057BC19
:1034FC000B684A68002B0CBF42605A604A68096826
:10350C00002A0CBF016011607047000000680107C1
:10351C004CBF042000F00300704700002DE9F84F69
:10352C0006469348934C0068934D800704D50820B9
:10353C00A87192482060BFE000F072FB8046904872
:10354C00006800900027001700F101090098800224
:10355C0008D4C8F13E00C0100928A8BF0820814536
:10356C00B8BF814687480068C0F30460FFF7C1FC10
:10357C00824685480068C0F30440FFF7BAFC09EBAB
:10358C000A011629A8BF152104DA6FF0090291422D
:10359C00B8BF114601F01F027C4B42F4F8521A805E
:1035AC007B4A126812F0030F18BF0127520748BF5D
:1035BC0047F002070EB147F0040795F90720A8EB76
:1035CC000202052A02DAAA7997425DD0A8F10F0C03
:1035DC000026BCF1000FB64607F0010207F0040309
:1035EC00DFF8B09123D40CEB0C1C4FEA2C2EBEF15F
:1035FC00080F28BF4FF0070E7646072E28BF062669
:10360C0009EB860A59F82660DAF804A0AAEB060A38
:10361C000AF0FF0613B1CAF3072B5E445FEA877BFF
:10362C0044BFCAF3074B5E440AB106EB1A6659F85D
:10363C002E9009F0FF0A13B1C9F307239A44BB0774
:10364C0044BFC9F307439A440AB10AEB196A401AFA
:10365C00ACEB0E220099AF71724380320128B8BFD7
:10366C000120342301F0FF0158430AEB1222484396
:10367C00B0FBF2F0B0F5803F28BF4FF6FF7008F3B7
:10368C000708A88085F8078043480068A988286047
:10369C0000201F2904D21F21A98004E04908401CE6
:1036AC00B1F5007FFAD20F39090940EAC1003B4954
:1036BC000843206000206060BDE8F18F10B53848E9
:1036CC00006884B21CB300F0ABFA2B4991F90720C7
:1036DC00904205DA6FF07F029042B8BF1046C87175
:1036EC008888844201D28C8010BD2B4A12680B68EA
:1036FC00D21A921C202A28BF1F22231A5208D34008
:10370C001818B0F5803F28BF4FF6FF70888010BDA9
:10371C002448026802B9704710B5234B996801F030
:10372C004060B0F1406F21D011480468A4071DD44B
:10373C005C68A4071AD404681B68C3F303531C33D6
:10374C001B0114F0050F06D09A420FD26FF0050141
:10375C002140016010BD934208D20A0158BF44F0C9
:10376C000104490158BF44F00404046010BD00007A
:10377C00000009403010094058200020FDFDA40035
:10378C00B43F0050B81200503C1100506E6208401B
:10379C00242208409C1300500820094000E7A48014
:1037AC003410094028500940AC3F0050EFF3108012
:1037BC0072B67047EFF3108062B67047DFF800F016
:1037CC0099C8011010B50C18FFF7F0FF401E80418E
:1037DC00C00FDFF8F0130A68002AFCD0246801221D
:1037EC000A6008B1FFF7E6FF204610BD38B5DFF8D8
:1037FC00D843DFF8D8132078897B002508430AD0FA
:10380C00FCF7FEFEA178002906BF0121A17001255D
:10381C00FCF7FAFE0DB1002032BD0220FEF740FD90
:10382C000E20FEF752FDDFF8A803016809B1012054
:10383C0032BDDFF8A023402111600121C1610020BD
:10384C00607032BD70B5DFF88C0382B0002101606E
:10385C004821C160DFF8800300F1D804A17A002967
:10386C0068D00129DFF8742329D110684BF2F521B7
:10387C004843050ADFF868030068C0F3814001285B
:10388C0006D100F0CDF9FFF76CF8684305EB9055C5
:10389C00607B10B10020607305E0D2480068000224
:1038AC0015EB10204508D0480560290C416001211A
:1038BC008160C648807B00283AD0052039E0022977
:1038CC0009D11568284600F0FDF8A5F2FF50032831
:1038DC002ED308202DE003292CD1116800F1B80556
:1038EC00A1F5C0612868E961002848BF4042002961
:1038FC0048BF49428842A8BF002018DA6868BB4E0E
:10390C0080B2009008234FF47F4230213046FFF7FD
:10391C00AEFDA86800F072F904213046FFF7A7FD50
:10392C00A86900F071F93046FFF7A1FD0120207065
:10393C000B202073BDE873402DE9F041A64CDFF855
:10394C00AC82AB4FAB4EA34804F1E10582B0E978F1
:10395C004A1E0B2A00F28080DFE802F00622334672
:10396C005B33465B3346636EA349096809682020C4
:10397C0088470F20F860072341F61D5038614FF43B
:10398C00C0720220009000F070F807234FF4C07250
:10399C0000214046FFF77EFD01203060022044E00C
:1039AC000120F861287800281DBF00203061032019
:1039BC000620E87003203860002070607068800773
:1039CC0034D4E878032804D1022000F04BF804200A
:1039DC0007E0002000F046F8E87806280CBF072026
:1039EC000A20E87001201AE0042903D12021B961D2
:1039FC00012105E00122BA610A290CBF0321022131
:103A0C006970002139600821C160016001203860B3
:103A1C0026E005290CBF06200920E8700020706004
:103A2C0004E00020306070600C20E87004F1780035
:103A3C00BDE8F641FCF7F4BD0021016001206449AA
:103A4C0008600E20FEF7D6FB0220FEF7BFFB01201C
:103A5C00E8700020A87003E0BDE8F341FFF7AEBEAC
:103A6C00BDE8F38100900523602200214046FFF75A
:103A7C00FEBC000080B558495E4891F8E410891EE0
:103A8C000A291AD8DFE801F0060A0E190A0E190ADB
:103A9C000E19120001688907FCD510E041688907EE
:103AAC00FCD40CE041688907FCD508E00168890763
:103ABC00FCD441688907FCD401E0FFF77FFEBDE828
:103ACC00014039E7F8B50746484C30212046FFF74E
:103ADC0079FE414E06F1B805C0F307206860042159
:103AEC002046FFF76FFEC0F38440A86020212046DB
:103AFC00FFF768FEC0F38120A861B7F5C0602860AD
:103B0C0002D186F8D800F1BD296996F8D8202AB9D7
:103B1C006A68A968EA60E861AA696A61E8690028CC
:103B2C004CBF6FF00102022200EB40001018421053
:103B3C0000EB927001EBA0006968E960012810DAD3
:103B4C006A69032A04D1153001281DDA01201BE013
:103B5C000B300128B8BF0120491E48BF0021E96085
:103B6C0007E01F2812DB6A692AB915381F28A8BF7D
:103B7C001E20032109E00B381F28A8BF1E20491C5A
:103B8C004029A8BF3F21E960002169612861082311
:103B9C00E86880B200904FF47F42302100F03CF88E
:103BAC000120009011234FF4003200F034F8286902
:103BBC0000F024F800F02FF8686900F025F800F008
:103BCC002BF8F1BD00800C40490B00209C840000B8
:103BDC0004800C402C500C40680A002008400C401B
:103BEC00B43F0050102009403C600C4000A00C4039
:103BFC0000400C4034600C40A001001080B20090DA
:103C0C0012234FF4F802704780B200900A234FF44D
:103C1C0040622021704704212046FFF728BC000099
:103C2C000748084A81681278006852B2A0F54070C3
:103C3C00C9035043C913A1EB201080300012704708
:103C4C00285009400C13005070B50446FFF7AEFD28
:103C5C00451EAD41ED0F074E30680028FCD0A04743
:103C6C0001203060002D1CBFBDE87040FFF7A2BDE5
:103C7C0070BD000000800C4062F30F2262F31F4203
:103C8C0000B500BF130096469446103928BFA0E833
:103C9C000C50FAD85FEA417C28BF0CC048BF40F8F2
:103CAC00042BC90728BF20F8022B48BF00F8012BB2
:103CBC0000BD000030480068000C00F0070005282B
:103CCC0028BF4FF0FF3070472C490A68C2F30F32FF
:103CDC004BF69A139A424FF0FF3006D10868000F4A
:103CEC000B280CBF0420002070474BF6BE118A42F3
:103CFC0001D1012070474BF641318A4201D103209A
:103D0C0070474BF620318A4208BF022070470000F2
:103D1C001A48F8B50068050F1948006800F0FF064E
:103D2C00802E28BF0026FFF7CFFF04284FF0FF346A
:103D3C0006F10A071DD8DFE800F003121A1A1B005F
:103D4C00012D12D0032D06D0072D06D0082D08BF4B
:103D5C0006F116040DE014240BE0152409E025B13E
:103D6C00022D08BF06F1140403E00A2401E005B992
:103D7C003C4660B2F2BD0000941200501813005083
:103D8C00A010005080B5FFF79FFF20B9FFF7C0FFD0
:103D9C00162800DB01BDFEE77047FCF731BCFCF7D1
:103DAC0033BC0000DFF800F0D9C10110DFF800F0DF
:103DBC00ADB50110DFF800F019AE0110DFF800F01E
:103DCC00E5C10110DFF800F085C20110DFF800F04A
:103DDC0081C20110DFF800F055C10110DFF800F0CE
:103DEC0043C20110DFF800F079AB0110DFF800F0EE
:103DFC00D9B60110DFF800F0EDB3011020B10823A3
:103E0C002C22002100F012BD704720B108233C2267
:103E1C000021FFF7C7BF704780B5FEF709F9ADF871
:103E2C000000FCF7EDFBADF80200009802BD01B5F7
:103E3C00BDF80200FCF7E8FBBDF80000BDE802404D
:103E4C00FEF7FAB838B5DFF8A008DFF8A018DFF8ED
:103E5C00A04880088000091A2161E060034602E056
:103E6C00002523F8025B0D18AB42F9D38B0800EB4D
:103E7C008303002223F8042CE82202804FF6FC7204
:103E8C001140EC39A0F8E810E8306060002000F038
:103E9C0004F8A060E068606031BDF8B5002400252E
:103EAC00061D16F003001CBF311D0E1AFFF7B4FFE0
:103EBC00DFF83C28B6B21060112EB4BF5768976873
:103ECC003A88130403D582F4004200251AE02B0033
:103EDC0014D0238839880B4423809BB2B34211D36E
:103EEC0027461A46B7B1921B92B2042AA7BFBA53FF
:103EFC0046F40041398841F4004109E0B242F1DA5C
:103F0C0001253C4617443A88002ADAD1002701E003
:103F1C0027F8041BFFF78BFF3846F2BD10B504469B
:103F2C00FFF77AFFDFF8C817086034F8042CC2F3E7
:103F3C000E0224F8042C221F4B689A4238BF4A60A8
:103F4C00BDE8104073E738B50446FFF765FF002164
:103F5C000C23DFF8A0274B43D518AA6C4AB1944226
:103F6C0004D1FFF764FF05F1480032BD491C032959
:103F7C00EED3FFF75CFF002032BD70B50546FFF7AE
:103F8C004BFF044600200C22DFF8681742438E18C2
:103F9C00B16C49B900203065B5640022FFF706FF0B
:103FAC00F06418B900F04CFC8D4205D12046FFF7A7
:103FBC003EFF06F1480070BD401C0328E3D32046A9
:103FCC00FFF735FF002070BD38B50446FFF724FF1E
:103FDC000025DFF820170C226A438A5A130008D0F8
:103FEC00944203D1FFF723FFE8B232BD6D1C062DBE
:103FFC00F1D3FFF71CFFFF2032BD10B5044620881B
:10400C00FFF7E2FFFF2800D16BE10C22DFF8E4168A
:10401C00504308448168080002D16FF0010010BDC4
:10402C002046BDE81040084702460FF23870104792
:10403C0010B500200C21DFF8BC26002401FB00F396
:10404C001344401C03289C641C65F7D300200023F8
:10405C0001FB00F4401C13530628F9D308201080F0
:10406C000FF2E9609060BDE81040EBE670B590B0DF
:10407C00FDF7DEFF04466846FFF7C7FE05200690F5
:10408C00002240F2B630089069464FF66D600490FD
:10409C00DFF864060590DFF86406FFF78BFE050079
:1040AC0006D0FFF7B9FE06462846FFF766FF08B9AB
:1040BC0000F0C6FB3046FFF7BAFE2046FDF7BCFF0A
:1040CC0010B070BDF8B500F0E6F8FFF756FF05002C
:1040DC006FF0020616D0FFF79FFEA28800210C2776
:1040EC00DFF810364F433B441F883FB91A805D60A0
:1040FC00A2689A60217369682161C4E2BA4203D153
:10410C00FFF795FE3046F2BD491C0629E7D300F0B7
:10411C0097FB00BF38B500F0BEF8FFF72EFF050087
:10412C0016D0FFF779FE00210C23DFF8C8254B438E
:10413C001A4413884BB94FF6F8731380556000235B
:10414C00936021716968A16013E7491C0629EBD3C0
:10415C0000F076FB00BF10B5044660680C3080B2EE
:10416C00FFF79BFE00B91AE0616801810021016034
:10417C00FF2181720C30A060002010BD80B540681A
:10418C000C3811E080B288E610B50446606880B245
:10419C00FFF783FEA06000B901E0002010BD6FF0B6
:1041AC00030010BD80B54068FFF7B8FE002002BDCB
:1041BC0038B504460D46FFF72FFE002145F80C1CC0
:1041CC00216811B9256006E0114651F80C2C002A23
:1041DC00FAD141F80C5CBDE8324028E62DE9F041FB
:1041EC0004466FF00206E068A0F10C05A0790628E1
:1041FC00BCBF207906280BDAFFF70EFEA179DFF899
:10420C00F4840C2779434144496819B9FFF70FFE30
:10421C00304617E0FFF70BFE20792871A079687102
:10422C00207AA871A079E16878434044406808304E
:10423C00FFF7BEFFA0797843404440684068FCF724
:10424C00DBF90020BDE8F08170B500F024F8FFF731
:10425C007AFE060002D16FF0040070BDFFF7DCFDA2
:10426C00B168002541B10D46A5F10C010A68B26098
:10427C0000220A60FF228A72FFF7D9FD2800A56090
:10428C0001D1022070BDA5F10C000179217140799A
:10429C00A071002070BD0446FFF790BD06280ADA15
:1042AC000C23DFF850245843105A02001CBF4FF661
:1042BC00F872904202D14FF0FF3070470880002016
:1042CC007047811D0079E9E710B50446E088FFF7D7
:1042DC007BFEFF2800D104E0A0712046BDE8104011
:1042EC007CE74FF0FF3010BD3EB50446FFF7ACFF46
:1042FC00050017D120796946FFF7D0FF78B1082067
:10430C00ADF804000320ADF80600DFF8F413A06844
:10431C008968029001A888476FF005003EBDBDF882
:10432C000000A08028463EBD10B5DFF8D8231268E7
:10433C000C464FF47A71A1FB00010023FEF774FECA
:10434C00002399424FF0004201D8904202D36FF003
:10435C00020010BD2060002010BD38B5FFF79BFF98
:10436C00FFF7F1FD0546FDF7A4F9002818BF012859
:10437C0000D015B96FF0040032BD606840B90090F0
:10438C0000996868FCF734F9401E8041C00F32BDBB
:10439C0010F1010F08BF4FF0FF30F0D06946FFF766
:1043AC00C3FF0028ECD032BD80B54068FCF724F97F
:1043BC00002002BD00F044FA00BF80B54068FFF752
:1043CC0001FD002002BD80B54068FFF7FFFC002016
:1043DC0002BD80B5FFF7FEFCFFF700FD002002BD1B
:1043EC0080B5FDF725FEFCF70BF9002002BD10B5DA
:1043FC008CB004466846FFF701FDE02000F013F88E
:10440C0008B900F01DFA0BE010B58CB004466846F4
:10441C00FFF7F4FCE06800F006F808B900F010FAB9
:10442C0000200CB010BD08900023A16860686A469B
:10443C00FFF7D8BC10B50446FFF7D8FC606000202D
:10444C0010BD0146886849680847F0B507468BB02F
:10445C00BC68AB4D6CBB0C20FFF71FFD04006FF06C
:10446C0003061ED008232422002101A8FCF7D0F853
:10447C000020ADF814000690079400237968A24838
:10448C0001AAFFF7B7FC206068B90820ADF800005E
:10449C000C20ADF802006846A96888472046FFF753
:1044AC003DFD304618E0F86860603869A060BC607B
:1044BC000AE02868804706462068FDF75CF93869F1
:1044CC00A06030466968884779682068FCF7A4F8D2
:1044DC002068FCF7A5F800200BB0F0BD10B5044621
:1044EC0082B060686946FFF71FFF20B900986060D2
:1044FC002046FFF7AAFF16BD80B5406810B96FF0D3
:10450C00020002BD0068FDF736F9002002BD7D49AE
:10451C00096841600020704750B50446794802682C
:10452C006FF00046A6FB020100234FF47A72FEF7EF
:10453C007BFD002399424FF0004201D8904200D3FA
:10454C0030466060002050BD2DE9F04186B0064633
:10455C00FFF734FCFFF7F7FC04460020029000251F
:10456C00FDF7A7F8002818BF012800D014B96FF088
:10457C00040063E0706820B110F1010F03D14FF01B
:10458C00FF30009004E06946FFF7CEFE070054D1DF
:10459C00FFF72CFC0099012701EB000800E00090CC
:1045AC0000996068FCF724F878B303A8FFF74CFE79
:1045BC0007001AD19DF8100001A9FFF76FFE80B912
:1045CC00059A9DF81210BDF80400B368984740B1E5
:1045DC00BDF80400B0819DF81200B07305983061ED
:1045EC0013E0059902A8FFF7E3FD009801276D1C65
:1045FC0010F1010F18BF0028D2D0FFF7F7FBB8EB72
:10460C00000002D000998142C9D2029EFFF704FC3F
:10461C0056B1314600E0114651F80C2C002AFAD163
:10462C00A26841F80C2CA660FFF701FC002D03E0FA
:10463C006068FBF7E1FF6D1EFAD1384606B0BDE8A5
:10464C00F081F8B5FFF727FE0546FDF732F8002894
:10465C0018BF01286FF0040613D0FFF7DDFB002113
:10466C00244A0C234B43D75A4FB113445B681B6845
:10467C00AB4201D1217106E0491C0629F1D3FFF7A9
:10468C00D6FB3046F2BDFFF7D2FB0020F2BDF8B5E9
:10469C000446FDF70EF8002818BF012802D16FF070
:1046AC000400F2BDFFF78AFB0546FFF7B5FB0021BE
:1046BC00104A0C234B43D65A37000ED0A788BE4263
:1046CC0008D1D11849680968A9420CBF0121002101
:1046DC00A160D8E7491C0629EBD3FFF7A8FB4FF0E4
:1046EC00FF30F2BD000000006C200020503F002085
:1046FC002C180020C01700200405002035400000B5
:10470C00A8040020E08800004F44000070B5044667
:10471C003C20FFF7C2FB05006FF0030611D0FFF73A
:10472C0074FB207AA8610022608928622946E0681F
:10473C0028616068FFF73EFB04462846FFF7EEFB56
:10474C000CB9304670BD002070BD000041882D2989
:10475C0002D36FF0010070470FF2140252F82110CF
:10476C000847000007400000253E00003B3E0000CB
:10477C00D14000002141000063410000894100004C
:10478C0095410000B1410000E94100005542000094
:10479C00D5420000F542000067430000B54300001D
:1047AC00C1430000C7430000D3430000DF430000B7
:1047BC00ED430000FB43000041440000E9440000CD
:1047CC001B45000025450000CF4200005F80000023
:1047DC0033810000554500004F460000574400004F
:1047EC0005450000CD800000058100001981000006
:1047FC009B460000658100007D8100001947000088
:10480C000000000000000000738100008B8100009C
:10481C001544000000000000000000000000000033
:10482C0000000000DFF800F0F1C5011001B90149EA
:10483C00FFF7F8BFA0010000DFF800F0ED8C0110CD
:10484C000120FFF7F9BF0000DFF800F025B10110DF
:10485C002DE9F04EDFF8BC799246002640F2013B80
:10486C000C46BA787B7997F804C097F80190B0EBB6
:10487C000B0540F67B4132D06D1E38D06D1E3DD0FD
:10488C00AD1E41D06D1E00F07A806D1E00F07D8053
:10489C006D1E00F087806D1E00F094806D1E00F080
:1048AC0099806D1E00F09E806D1E00F0A5806D1E1F
:1048BC0000F0AA80ED1E00F0AF806D1E00F0B480F9
:1048CC006D1E00F0B9806D1E00F0BE806D1E00F0F4
:1048DC00C3806D1F00F0CB80AD1E2DD0E1E0102CFD
:1048EC0040F0DD801022514607F1A40081E0102C2D
:1048FC0069D11022514607F1B4007AE0042C62D140
:10490C00DAF80000F862D7E0012C5CD1012B34D02E
:10491C009AF800003871BCF1000F06D00028F2D1D3
:10492C00022A19D0052AEED116E00028EBD0012A74
:10493C001FD0042A1BD11CE0012C44D1BCF1010F67
:10494C001BD09AF80000787153B1002807D1032AC4
:10495C001CBF072A052A02D1484600F0D8FEABE05E
:10496C000028FCD0012A1CBF042A062A01D0052AE3
:10497C0002D1012000F047FC9EE012269CE0022CA4
:10498C0021D1BAF80000F88396E0202C0BDA07F15D
:10499C00CC0600F094F800F09AF8BC71334622462D
:1049AC0001210BE0202C7ADA07F1EC0600F087F8F5
:1049BC0000F08DF8FC71334622460021484600F089
:1049CC0088FE76E0012C6AD19AF80000052866DA98
:1049DC00387271E0012C62D19AF8000004285EDA7A
:1049EC00787269E0062C5AD14FF486700622514633
:1049FC003844FDF7DFFF5FE0012C50D19AF800003E
:104A0C0008284CDAB87257E0012C48D19AF800000B
:104A1C00042844DAF8724FE0012C40D19AF80000D7
:104A2C0006283CDA387447E000F04DF837D1821F85
:104A3C008A4234D278823FE000F045F82FD1821FB1
:104A4C008A422CD2B88237E000F03DF827D1B0F57D
:104A5C00FA7F24DAF8822FE000F035F81FD1A0F1AC
:104A6C000A0140F67742914219D2388324E0012C96
:104A7C0004BF9AF80000012811D107F1800001F061
:104A8C0004F950B907F1100100F070FB060013D1C6
:104A9C0007F15C0001F000F90EE016260CE0182678
:104AAC000AE0282807DA022C05D1BAF8001000F029
:104ABC0041FE064600E002263046BDE8F08E1F217E
:104ACC00304601F05DB9BAF80000022C704722465E
:104ADC0051463046FDF76EBF38B500244FF4407395
:104AEC000D46C21ADFF82C1736D0521E36D0521E85
:104AFC0037D0521E38D0521E39D0521E3AD0521EC8
:104B0C003CD0521E3CD0521E3DD0521E3ED0521EA6
:104B1C003ED0521E3ED0521E40D0521E40D0521E8D
:104B2C0040D0921E40D0521E40D0521E40D0521E39
:104B3C0040D0521E40D0521E40D0521E46D0521E63
:104B4C0046D0521E46D0921E48D0521E14D0521E31
:104B5C0042D0521E44D046E0C87842E01022A43124
:104B6C0030E01022B4312DE0C86A286042E0062201
:104B7C00C43127E0087934E0487932E0C88B36E05C
:104B8C008A79CC311EE0CA79EC311BE0087A28E036
:104B9C00487A26E006224FF4867012E0887A20E0EC
:104BAC00C87A1EE0088C22E0087C20E0488A1EE0CF
:104BBC00888A1CE0C88A1AE0088B18E006224FF499
:104BCC008A7001442846FDF7F5FE13E0488C0EE090
:104BDC00888C0CE0C88C0AE0087B02E0887800E046
:104BEC00487B287006E0282803DA00F0BAFD2880FC
:104BFC0000E00224204632BD1CB5DFF81846A1782F
:104C0C0081B900B1206304F12C00019004F1B400CF
:104C1C00009004F1A403E1786078002200F010FD0C
:104C2C00002016BD112016BDDFF8E8058178062995
:104C3C0018BF072904D1018C4078132200F02ABD3B
:104C4C001220704700B58FB008233C220021684623
:104C5C00FFF7A8F8DFF8C00500F150010791002319
:104C6C004FF4DC7108916A46032106910FF2D101D1
:104C7C00FFF7EAFD0FB000BD70B584B000F019F974
:104C8C000120DFF89815DFF88C4509680FF2915573
:104C9C00ADF802000026684688479DF80400607055
:104CAC000298A0620020A0704FF6FF70208400F0E4
:104CBC0076FD20700023012001900022002000903E
:104CCC00294604F1380000F0A5FF022000F02FF86F
:104CDC0004F15C0000F09EFF042000F028F804F1C1
:104CEC00800000F097FF0420E07004F1A402002083
:104CFC000021002300252BC204F1B405103A4BC54A
:104D0C00E06220726072E1720720A0721021022012
:104D1C0000F016FF103D2A461021032000F010FF72
:104D2C0004F12C020421042000F00AFF7FBD019045
:104D3C00002300200090002229467047000000004C
:104D4C00FEB5FFF799FFDFF8CC54DFF8D04405F13E
:104D5C00800700F0AEF80A20ADF802004FF0FF30EB
:104D6C00019068462168884700284BD100F0A1F8D3
:104D7C000920ADF802006846216888479DF80610A6
:104D8C00029E00283ED1BDF80400102804BF6878AC
:104D9C0081422DD130884FF6FF71884209D170883D
:104DAC00400425D505F12C020421042000F0DDFE81
:104DBC001EE03078A22805D0D02804BF304600F081
:104DCC007CF815E07079132812D13089012804BFC2
:104DDC00A87B022805D1384600F05EFFFFF724FFC0
:104DEC0006E0052000F0BDFC0146384600F038FF17
:104DFC0046B100F05EF80320ADF80200019668465B
:104E0C0021688847A88BC10730D54FF6FE71084042
:104E1C00A88329796879014328D018B103208DF82B
:104E2C0000000DE0287A8DF800000622687A8DF8D3
:104E3C0001004FF4867029180DF10200FDF7BAFD40
:104E4C00A87A8DF808006946E87A8DF80900687828
:104E5C0000F03BFC00281FBF0820A870286B00281E
:104E6C0004D0016808001CBF08208847A88B810764
:104E7C0008D54FF6FD710840A88305F110010020FC
:104E8C0000F074F9A88B41070AD54FF6FB71084066
:104E9C00A883A87B012804D0022808BFFFF7C4FE12
:104EAC0057E700902B8BEA8AA98A688A00F093F95D
:104EBC004FE70820ADF800007047FEB5D54DA97836
:104ECC004FF48A730446EE18A2786879130005F142
:104EDC00800715D0022A3CD0032A18BF042A5CD0C4
:104EEC00052A00F07F80062A00F0AC80072A00F02B
:104EFC00CD800F2A00F0E580112A00F0E780F7BD85
:104F0C00607801001AD105F1A4021021022000F0F2
:104F1C002CFE05F1B4021021032000F026FE06221F
:104F2C00E11C05F1C400FDF745FD0120A87005F159
:104F3C00CC03AA796878012100F0CBFB08B10820DA
:104F4C00A870286B20B1016808001CBFA87888479E
:104F5C00F7BD6278EAB9E27842B1EA79687805F18E
:104F6C00EC03002100F0B5FB607012E0022918BFC1
:104F7C0007290ED0062902D101280AD101E0032904
:104F8C0007D005F1380000F080FE10B9012000F0C8
:104F9C003AF960780028DBD0D1E763780BBB2B792A
:104FAC00032A08D1062908BF0720C9D0002B0CBF43
:104FBC0003200220C4E7E98B0A0006D018430AD06C
:104FCC0005F1380000F04CFE05E0012B07BF002076
:104FDC00287100206871A878072814BF04200620C7
:104FEC00AEE7ACE76078010026D10622211D3046E1
:104FFC00FDF7E0FC608928840620A870E0896884AD
:10500C00208AA884608AE884E0782873287C0128A8
:10501C0018BF022809D11F2000F0A3FB4FF47A71AE
:10502C00414305F15C0000F01BFE6289E07804232B
:10503C00211D00F00DFA84E73128D2D1002028710F
:10504C0004207DE7A08800F01AFA0621FFF738FD4E
:10505C0000206884A884E884A079687305F15C005A
:10506C0000F01AFE384600F017FE4FF6FF70288449
:10507C00687908B1032063E7A07908280CBF0520E4
:10508C000420A870012000F0BEF85AE7384600F062
:10509C0003FE6078002813D1E08868842089A884F6
:1050AC006089E88405F15C0000F0EFFD002807D171
:1050BC006B6B002B04D0EA8CA98C688C1B6898470E
:1050CC00F7BDA088052100F027FBF7BDA088ADF83F
:1050DC000000287C052803D100208DF80A0041E04F
:1050EC0001208DF80A0005F15C0000F0D5FD287C4C
:1050FC00012818BF04281AD1688AE188814228BF88
:10510C000846ADF80200A98A2089884238BF0846B3
:10511C00ADF80400E98A6089884238BF0846ADF8CA
:10512C000600298BA08988421AD2084618E0032869
:10513C0018BF02280AD1688AADF80200A88AADF817
:10514C000400E88AADF80600288B09E0E088ADF889
:10515C0002002089ADF804006089ADF80600A08932
:10516C00ADF80800684600F091FAF7BDFEB50F46A1
:10517C00284D7A880446688C904224BFB9888142B5
:10518C0007D3A88CF988884202BFE88C39898842F9
:10519C001ED0052000F0E5FA0646288CADF800007C
:1051AC007888ADF80200B888ADF80400F888ADF83E
:1051BC0006003889ADF80800684600F062FA07006E
:1051CC0007D1AC73314605F1800000F049FD00E0D9
:1051DC0018273846FEBD3EB50E4CA578062D01D0DD
:1051EC0014203EBDADF80200ADF80410ADF8062059
:1051FC00ADF8083004F15C0000F04EFD06986946ED
:10520C00FFF7B4FF3EBD03498A8B10438883886A3D
:10521C00FBF7F2B93405002048180020B004002038
:10522C00F1E70000E0B50821ADF800100190022173
:10523C0000F00FF808B100200EBD02980EBD00B5AD
:10524C0083B00821ADF800100190032100F001F8A3
:10525C0007BDADF802106846DFF8741309680847FB
:10526C001FB5ADF806108DF804000824DFF86013A4
:10527C008DF808200393ADF80040ADF80240684665
:10528C000968884704B010BD30B585B014460822B3
:10529C000291ADF800201922DFF83413096801904F
:1052AC00ADF802201D466846884714B1BDF80C10B5
:1052BC00218015B19DF80E102970089A049911607F
:1052CC0005B030BD00B583B00820ADF800001A2041
:1052DC0000F015F810B99DF804000EBDFF200EBDAE
:1052EC0000B583B0ADF800008DF80610002000F07A
:1052FC0006F810B99DF807000EBDFF200EBDDFF8B3
:10530C00D0120968ADF802006846084750B110F198
:10531C00040F01D10420704710F1030F01D10220BA
:10532C007047012070478123037042EAC1110023AA
:10533C0041F47C41C370818070478223037081806B
:10534C000023C370827170473EB504460820ADF847
:10535C0000000D462020ADF802001020DFF870127E
:10536C000968ADF804006846884720B9029810B166
:10537C006FF004003EBD00950023002221464FF043
:10538C00FF30FFF781FF3EBD10B582B01446CA78DE
:10539C00012A03D18A88DFF844351A8000F010F80E
:1053AC0058B9009069462046FFF7CEFF28B90098FF
:1053BC004478FFF744FF204616BDFFF7A7FF16BD44
:1053CC000B46022210214BE738B51C461546FFF759
:1053DC00F7FFC0B9009069462846FFF7B5FF90B9B2
:1053EC0000984578280002BF0098C079A04205D1EA
:1053FC000098816804982246FDF7DCFA0098FFF7C4
:10540C001EFF284632BDFFF781FF32BDF8B500F014
:10541C0084FA00F0C1F907000DD032462946FFF797
:10542C008CFF00F04EF93872FFF74CFF3B4601B091
:10543C00BDE8F0405FE0F1BD10220121E6E738B590
:10544C0000F00FFA050002D0042201214AE031BD20
:10545C002DE9F04100F064F907000FD0142200F0A0
:10546C0019F83C72FD603E8287F81280FFF72AFF24
:10547C003946BDE8F041DFF8682485E725E038B50A
:10548C0000F02BF8050004D0152200F003F82C8155
:10549C002BE031BD012150E70022042183E02DE9EE
:1054AC00F04100F03DF907000FD0022200F010F897
:1054BC00BC60BD81BE73C7F81080FFF703FF39468F
:1054CC00BDE8F041DFF81C245EE70420BDE8F08164
:1054DC00042132E71022022198E704460A20A1E6B3
:1054EC0002212AE7FFF729FFAC60FFF7EBFE2B4602
:1054FC0001B0BDE8304002221021B1E6F8B500F051
:10550C00AAF907000AD01522FFF7EAFF00F045FBC5
:10551C003946BDE8F840DFF8D02335E70420F2BD6A
:10552C00002203213FE000B583B00FF24903019341
:10553C0006230093032300F04DF80EBD107880284D
:10554C0002BF508840F27F61884208D1908898420F
:10555C0002BF91790098814201D10120704700204F
:10556C00704710B582B00624FFE70094FFF7E6FF02
:10557C0016BD00000323F4E71078802802BF508882
:10558C0040F27F6188420CD19088032818BF042810
:10559C0007D1907901001CBF1028112801D10120DE
:1055AC00704700207047F8B500F057FA07000CD090
:1055BC0032462946FFF7C1FEBC60FFF783FE394631
:1055CC00BDE8F840DFF82423DEE60420F2BD00003D
:1055DC00B00400202DE9F04100F02BF807000AD0B0
:1055EC00069A4146FFF7A9FE3C817D8100F0D7FA6F
:1055FC00079A00F075BA68E704460D460C2011E6D0
:10560C00424603218FE670B582B000F086F9FFF7B1
:10561C0059FE1B210091034632462946204600F0D4
:10562C002AF976BD10B582B01D24009400F023F940
:10563C0016BD04460D46164698461020FFF7F2BDDF
:10564C002DE9F04180460D4616461F461820FFF7FF
:10565C00E9FD040014D0002200F069F800F068FAAB
:10566C0020726572A672E7600698206107986061E7
:10567C00FFF728FE2146BDE8F0410FF2153283E614
:10568C0023E70FF21133112200214AE10FF2093303
:10569C001222F9E7F8B500F0E8F807000FD00A225B
:1056AC0000F045F800F00DF838727D813E73FFF77D
:1056BC0009FE3946BDE8F8400FF2E12264E6042009
:1056CC00F2BD21465020FFF70BBE0FF2D523062268
:1056DC0038E12DE9F04180460D4616461F46102054
:1056EC00FFF7A0FD040011D0072200F020F800F015
:1056FC001FFA20726572A672E760FFF7E3FD214680
:10570C00BDE8F0410FF29D22FFF73EBEDDE60FF241
:10571C0099230822002115E10FF291231022EBE0CE
:10572C0004460D46164698461420FFF77BBD04210F
:10573C00FFF7F9BD70B5FFF75FFF06000BD0302205
:10574C00FFF7F5FF00F009F83146BDE870400FF2A5
:10575C006122FFF719BE042070BD34817581FFF7FB
:10576C00B1BD30B583B004460020ADF8040000F0A4
:10577C0013F805000DD03122FFF7D9FF2C81FFF76C
:10578C00A1FD01A9009102230FF229222946FFF75E
:10579C001BFEBDF804003EBD0A20FFF743BD1CB53F
:1057AC0000F077F904000AD01222FFF773FEFFF71E
:1057BC0089FD00F005F80FF2012200F018F813E053
:1057CC0001A90091012370471CB500F062F9040097
:1057DC000AD01822FFF75EFEFFF774FDFFF7F0FF0B
:1057EC000FF2E51200F003F89DF8040016BD2146F7
:1057FC00FFF7EABD70B500F014F806000BD01922C3
:10580C00FFF748FE00F009F83146BDE870400FF292
:10581C00C112FFF7B9BD042070BD3481F560FFF7EC
:10582C0051BD04460D461020FFF7FCBCF8B500F046
:10583C0012F807000DD03622FFF779FF3C817D81ED
:10584C0000F0ADF93946BDE8F8400FF28D12FFF7C4
:10585C009BBD0420F2BD04460D4616461020FFF7F2
:10586C00E1BC04460C20FFF7DDBC04460D46164691
:10587C000E20FFF7D7BC2DE9F041FFF751FF0700D1
:10588C0011D0069AFFF7BDFE3C813E74FD6000F01E
:10589C004FF97874FFF716FD3946BDE8F0410FF269
:1058AC006D12FFF771BDFFF710BE38B51446104AE4
:1058BC0015682A0006D0009302460B4621460120AB
:1058CC00A84732BD002032BD0A4A13681A0003D023
:1058DC000A4601460120184770470000840B00203F
:1058EC00395A0000495A00003F5A00008555000003
:1058FC0040180020441800202DE9F04100F00DF86C
:10590C0098460C20FFF78EFC070004D000F016F828
:10591C003C81BD72E1E0FFF7D8BD04460D4616464A
:10592C0070472DE9F041FFF784FE070004D000F02A
:10593C0005F8BC60FD60D0E0FFF7C7BD324604211E
:10594C00FFF7F1BC2DE9F041FFF773FE070006D01D
:10595C00FFF7F4FFFFF7B5FE3872FD60BDE0FFF70F
:10596C00B4BD1078802802BF508840F27F61884215
:10597C000CD190884FF680710140B1F57E4F04BF79
:10598C0000F07F00984201D1012070470020704741
:10599C000023E6E71123E4E71223E2E70A23E0E71A
:1059AC000623DEE70723DCE70823DAE71023D8E732
:1059BC003023D6E73123D4E780B51223009301239B
:1059CC00FFF7BCFD02BD000080B51823F6E7000010
:1059DC0080B51923F2E700003623C2E7107880283F
:1059EC0002BF508840F27F6188420DD190884FF6FB
:1059FC00807101404FF68052914204BF00F07F004D
:105A0C00984201D1012070470020704770B5FFF714
:105A1C0084FF1D23FFF7E2FF30B9324629462046AA
:105A2C00BDE870401B23D9E7012070BD80B514235D
:105A3C00C4E780B5152300930223C1E780B5022388
:105A4C0000930423BCE70FF20D0142F22F000AE091
