:020000040000FA
:10000000004400205136010001C9011001C901104E
:1000100001C9011001C9011001C9011001C9011074
:1000200001C9011001C9011001C9011001C9011064
:1000300001C9011001C901103FC90110120001835B
:1000400001000143C5A70D632DBC15B0070100F4E5
:100050000D0020C5A70001611061081007430228A8
:1000600004438AFF00FF0140028460F8050823F979
:1000700015083009838800000200FF4488601820BA
:100080008381F572F0040D02200080FE0001100350
:100090001608C08018041214041003030880800599
:1000A00004121B04121710213C1003379800004D56
:1000B000044004CD9A0000D5375C920654F0061F28
:1000C000940500203026010001120F9CF20215A0B9
:1000D0001003A0110100C40412D80412FC5C311FEB
:1000E000F3FFFF0001F12C01140CFC04FC00FE42A4
:1000F000BE00F212F202FE028C1004040F00FF1088
:100100000F0814014F807F6B1A1F4AF502724208D4
:10011000011002000018181EC002486C241225208D
:10012000052424247F121212042119200A081C2AF3
:100130002A0A0C1828282A2A1C36300A00222515DB
:1001400015152A585454542239120C2910050A76D0
:10015000252911916E10A0020606040350400240AA
:1001600020101072180210102040CD22040A210124
:100170003002080804022A600608086B1C1C6B0881
:100180000837212F227F05D1BDA15BFD0310033A63
:1001900006D13002804040207430010404026040E7
:1001A00001182442014324186F530E0801323E10F7
:1001B000123C1F113260020804427E1030062018E3
:1001C00020404042221C10300920302824242222C2
:1001D0007E2020781080047E0202021A2620233816
:1001E000241072426060017E2222F3716032248505
:1001F000323C10310B600464584040241CC5358AE1
:1002000051063101413A11C4360042152A3704081B
:100210003F410125DE627F0D411B6720104F1170A9
:10022000264676615010021C225A5501622DB030CC
:10023000090808181414243C224242E71010031F36
:100240002222221E0E300142221F1020027C424236
:1002500001016130571F22405120B0093F42121264
:100260001E12120242423F10400102020780132276
:10027000224050017121224022E73F227E05417039
:10028000633E08014580737C100113110F12300981
:100290007722120A0E0A1212222277205307020135
:1002A0004242F313773601222A01326B105009E3E0
:1002B00046464A4A525252626247F04241015180D8
:1002C000223F7B223E45A2072020034D53321C6073
:1002D000112120223E6F6742C7001B0204014342E6
:1002E00042A0637F49B191D03101623C1054042295
:1002F0002424141418F0136B490114015555365772
:10030000512054052424181818242400300377227F
:100310002214145341502B7E21AF4704045093788C
:10032000080129711C0102020433032D3E031A2027
:10033000959001001E10011A1E7EF30A440001F080
:100340000203FF0006082030053C4278444242FC8C
:100350001B5B0302C073261A2B1338441533443831
:10036000102002604040402E70014264D8201F3CA3
:1003700042060355003003F08808087EB6723E201E
:10038000167CFD47023C2221608B3A460090030C0C
:100390000C00000E301330307032200153221E301A
:1003A000580372120A161200DA0E302101237F92CE
:1003B0000172B710923B602101363CA4723C1022BE
:1003C0001BE05B221E02156621D05002447840E0FB
:1003D000101001774C0401821FC0580242023C40B9
:1003E000002D320349B47230202263607362DC1046
:1003F00025E49E14B1042AEB02590021013A760249
:10040000C26E30193161901F7E2232042E44800466
:1004100036C00A461010D001C000100115D02101CD
:100420005D6004A00406000C32C20001FE0EFF64F1
:10043000071EECA808210461262C02A134010055F6
:10044000053001FF00141320020C0E00200452148A
:1004500004834C10504D1E08100101003018F206A4
:10046000301C224C181104525404525C0463E830CE
:10047000221001000070102104527804200660113F
:1004800000209C0100201CAD82083001BFBD01622C
:1004900012A024210452A80452B00452B80452C03D
:1004A0000452C80483491A4612050AD62013432071
:1004B0000F1312F82C210443000F045208045210A9
:1004C00004521804522004522804523004830000BD
:1004D000B06204641D84054398111CD00353C0010D
:1004E000100001ED6209127C482104528404528CF0
:1004F00004529404529C0452A4046178F1C701652B
:1005000020FE0E018B0A1E730C0712E304C3334056
:10051000281C034D2B010025E00AED0703214F4362
:10052000D16A1512F1081F5F7A6904F300081B6590
:10053000F301543779FE02344305F406131800A082
:1005400001A418140C8C29DC2A80C46001860100E7
:10055000042101833D296C1EFFDC062D1A0C3D048D
:100560000302FF83010001A10CD0037C0F002000D7
:100570000152AC1420023401002004523C04120049
:100580000110077C2D0020E0250020E404C20001BA
:10059000D0042001010000181852000110072005A6
:1005A0000020C80E00200111C301000112801800B4
:1005B000026011002022000150026CDC0200015098
:1005C00003380E0020030D0006BFBB000005BC0071
:1005D00000F3010100012002F80E002017120001B3
:1005E000000220050020520001520001120001000B
:1005F00002080000000300000000000000000000EE
:1006000000000000000000000000000000000000EA
:1006100000000000000000000000000000000000DA
:1006200000000000000000000000000000000000CA
:1006300000000000000000000000000000000000BA
:10100000B41200001810000015AB0110FDB3011060
:101010006DC00110FDAE011099B501100000000077
:101020000000000031000000B01200003C10000081
:10103000B1C00110A9BF011067C0011069B801104B
:10104000000000000000000034000000B0120000AA
:1010500060100000BDC00110CDB30110D9BD01105A
:101060006DB301100000000000000000350000001A
:1010700000000000EC0D0020040000000000000053
:101080000000000020000000502E01003000000091
:10109000281000000C0E00200400000000000000DA
:1010A000000000000C0000003035010018000000B6
:1010B0004C100000140E002004000000000000008E
:1010C0000000000024000000483501001800000066
:1010D00000000000540E002004000000000000008A
:1010E00000000000100000004C2F01002C00000048
:1010F00000100000700E002004000000000000003E
:101100000000000020000000D43101002400000095
:10111000FFFFFFFF780E0020040000000000000029
:101120000000000028000000F83101002400000049
:10113000FFFFFFFFA00E00200400000000000000E1
:1011400000000000140000006035010018000000DD
:10115000FFFFFFFFA80E00200400000000000000B9
:101160000000000058000000142D010034000000B1
:10117000FFFFFFFFB00E0020040000000000000091
:101180000000000010000000783501001800000089
:10119000FFFFFFFFB80E0020040000000000000069
:1011A000000000001C0000001C32010024000000B0
:1011B000FFFFFFFFC00E0020040000000000000041
:1011C000000000003800000010310100280000007D
:1011D000FFFFFFFF280F00200400000000000000B8
:1011E0000000000054000000102B01003C00000033
:1011F00001000000A43701000100000000000E0003
:1012000000000F003200000001000000F40D00207B
:10121000000200000000000001C9011000000000F1
:101220000000000008000000000022001C0E00204A
:10123000000000000000000008000000800E0020F8
:101240000000000000000000080000000000000096
:10125000000000000000000000000000010000008D
:10126000C80E00200600000001000000300F002022
:10127000000000000000000000020000000000006C
:101280002A00010025003400350031000100010072
:1012900004000000A436010000000000000000006F
:1012A000000001000000030013C4011019BC00007D
:1012B000B8120000B812000000000000640E002008
:1012C000BBBA00002000000090350100782F01001B
:1012D00029C1011057690000CB780000A1C7011097
:1012E000A3C70110000000002A870000C4280100E5
:1012F000DC280100AC280100020009000100000008
:1013000001000000DD300100B13001006534010052
:101310007D2D01001D2E0100F52801008521010011
:10132000F135010039BA00006DBC000071BC00004D
:101330004C61756E6368494F540000007777772ED3
:10134000696F7478782E636F6D000000FFE0FFE036
:10135000FFE0FFE0FFE0FFE0FFE0FFE0FFE0FFE095
:10136000FFE0FFE0FFE0FFE0FFE0FFE0FFE0FFE085
:10137000FFE0FFE0FFE0FFE0FFE0FFE0FFE0FFE075
:10138000FFE0FFE0FFE0FFE0FFE0FFE0FFE0FFE065
:10139000FFE0FFE0FFE0FFE0FFE0FFE0D6AF6BF132
:1013A0002A1319D319D342D2CE4FFFE0FFE0FFE05A
:1013B000FFE0FFE0FFE0FFE0FFE0FFE0FFE0FFE035
:1013C000FFE0FFE0FFE0FFE0FFE0FFE0FFE0FFE025
:1013D000FFE0FFE0FFE0FFE0FFE0FFE0FFE0FFE015
:1013E000FFE0FFE0FFE0FFE0FFE0FFE0FFE0FFE005
:1013F000FFE0FFE0FFE0DECE8C70529110B211737F
:1014000032D65B15429419F41174D68FFFE0FFE0D9
:10141000FFE0FFE0FFE0FFE0FFE0FFE0FFE0FFE0D4
:10142000FFE0FFE0FFE0FFE0FFE0FFE0FFE0FFE0C4
:10143000FFE0FFE0FFE0FFE0FFE0FFE0FFE0FFE0B4
:10144000FFE0FFE0FFE0FFE0FFE0FFE0FFE0FFE0A4
:10145000FFE0E70E6B3010F332D66CBA53D911337C
:10146000115352F56B35529411B35332FFE0FFE044
:10147000FFE0FFE0FFE0FFE0FFE0FFE0FFE0FFE074
:10148000FFE0FFE0FFE0FFE0FFE0FFE0FFE0FFE064
:10149000FFE0FFE0FFE0FFE0FFE0FFE0FFE0FFE054
:1014A000FFE0FFE0FFE0FFE0FFE0FFE0FFE0FFE044
:1014B0009D1010B24B17CEBEFFFFFFFFFFFFD73FBF
:1014C0002AB71092325462D4321321F3FFE0FFE0C6
:1014D000FFE0FFE0FFE0FFE0FFE0FFE0FFE0FFE014
:1014E000FFE0FFE0FFE0FFE0FFE0FFE0FFE0FFE004
:1014F000FFE0FFE0FFE0FFE0FFE0FFE0FFE0FFE0F4
:10150000FFE0FFE0FFE0FFE0FFE0FFE0FFE07BF057
:1015100010D29D7CF7FF8E3F653D5CFC6D7DFFFF2B
:10152000FFFF53D910923A533A3319D3FFE0FFE04B
:10153000FFE0FFE0FFE0FFE0FFE0FFE0FFE0FFE0B3
:10154000FFE0FFE0FFE0FFE0FFE0FFE0FFE0FFE0A3
:10155000FFE0FFE0FFE0FFE0FFE0FFE0FFE0FFE093
:10156000FFE0FFE0FFE0FFE0FFE0FFE07BF0113392
:10157000BE9EEFFF347C3CDD6DBE657E2C7C139BF4
:10158000CF3FFFFF435810B211F442D2FFE0FFE01B
:10159000FFE0FFE0FFE0FFE0FFE0FFE0FFE0FFE053
:1015A000FFE0FFE0FFE0FFE0FFE0FFE0FFE0FFE043
:1015B000FFE0FFE0FFE0FFE0FFE0FFE0FFE0FFE033
:1015C000FFE0FFE0FFE0FFE0FFE08C7010F3B69E6D
:1015D000FFFF349C44FDDFFFB71F9EBF863F2C7D7D
:1015E000139BE79FD75F1A15111394F0FFE0FFE0FC
:1015F000FFE0FFE0FFE0FFE0FFE0FFE0FFE0FFE0F3
:10160000FFE0FFE0FFE0FFE0FFE0FFE0FFE0FFE0E2
:10161000FFE0FFE0FFE0FFE0FFE0FFE0FFE0FFE0D2
:10162000FFE0FFE0FFE0FFE09D1010B295DCFFFF60
:10163000FFFF963E1C3C3CDD243C3CDD557E453D99
:10164000137B54DCDF7F4C5A1113EF2EFFE0FFE0D9
:10165000FFE0FFE0FFE0FFE0FFE0FFE0FFE0FFE092
:10166000FFE0FFE0FFE0FFE0FFE0FFE0FFE0FFE082
:10167000FFE0FFE0FFE0FFE0FFE0FFE0FFE0FFE072
:10168000FFE0FFE0FFE0B5CF10927D1BFFFFFFFF03
:10169000FFDFFFFFB69FA63EBEBF2C5B241C2CBD08
:1016A000139B2C3BA67F4C3A29F2FFE0FFE0FFE0C2
:1016B000FFE0FFE0FFE0FFE0FFE0FFE0FFE0FFE032
:1016C000FFE0FFE0FFE0FFE0FFE0FFE0FFE0FFE022
:1016D000FFE0FFE0FFE0FFE0FFE0FFE0FFE0FFE012
:1016E000FFE0FFE0CE6F1091649AFFFFFFFFF7DF8E
:1016F000F7DFFFDFFFFFFFFFFFFFD75F137B13FB6A
:10170000133A2C1B85FE23184AB1FFE0FFE0FFE0EF
:10171000FFE0FFE0FFE0FFE0FFE0FFE0FFE0FFE0D1
:10172000FFE0FFE0FFE0FFE0FFE0FFE0FFE0FFE0C1
:10173000FFE0FFE0FFE0FFE0FFE0FFE0FFE0FFE0B1
:10174000FFE0E70E10B153F9FFFFFFFFF7BFF7DF30
:10175000F7DFF7DFF7DFFFDFFFFFD75F137B135AFA
:1017600012FA3C5C6D5D121594B0FFE0FFE0FFE003
:10177000FFE0FFE0FFE0FFE0FFE0FFE0FFE0FFE071
:10178000FFE0FFE0FFE0FFE0FFE0FFE0FFE0FFE061
:10179000FFE0FFE0FFE0FFE0FFE0FFE0FFE0F76ECB
:1017A000C62F21114337FFFFFFFFF7BFF7DFF7DF3A
:1017B000F7DFF7DFF7DFFFFFFFDFCF3F23FB1299F4
:1017C000135A6D7D43FA1113EF4EFFE0FFE0FFE087
:1017D000FFE0FFE0FFE0FFE0FFE0FFE0FFE0FFE011
:1017E000FFE0FFE0FFE0FFE0FFE0FFE0FFE0FFE001
:1017F000FFE0FFE0FFE0E70EBDEF841052F122149E
:1018000010922A96F7FFFFFFF7BFF7DFF7DFF7DF4A
:10181000F7DFF7DFFFDFF7BFDF3FC6BF8DDD4C7BB4
:101820005CFC6D5D12156B91FFE0FFE0FFE0FFE0F7
:10183000FFE0FFE0FFE0FFE0FFE0FFE0FFE0FFE0B0
:10184000FFE0FFE0FFE0FFE0FFE0FFE0FFCDDEAE06
:10185000A52F73B03A3211D42A763B7843F910D3CE
:1018600011D4DFBFFFFFF7BFF7DFF7DFF7DFF7DFE9
:10187000F7DFFFDFFFDFDF5FBE9F9DFE859D755DAC
:10188000759E233810F2F74EFFE0FFE0FFE0FFE027
:10189000FFE0FFE0FFE0FFE0FFE0FFE0FFE0FFE050
:1018A000FFE0FFE0EF0EBDEF84505B1121D311F597
:1018B00032F7337843D933FA4C7B553D2A3511330F
:1018C000D75FFFFFF7BFF7DFF7DFF7DFF7DFF7DF00
:1018D000FFDFFFDFE77FC6BF9E1E7D7D5CDC6D7E88
:1018E0003C1A1133AD8FFFE0FFE0FFE0FFE0FFE0C7
:1018F000FFE0FFE0FFE0FFE0FFE0F74EBDCF9CF030
:1019000063513A7211D4225533173B993BFA3C1A72
:101910003C3B343B3C3B6CFC7DFE11F51091C6FF1B
:10192000FFFFF7BFF7DFF7DFF7DFF7DFF7DFFFDFF7
:10193000FFDFE77FC6DFA63E7D7D64DC6D5D447B17
:1019400011537C11FFE0FFE0FFE0FFE0FFE0FFE06C
:10195000FFE0FFE0FFE0CE6F633119D32A5532D6A6
:1019600033584BD93BFA3C1A343B3C5B4C5B64DC50
:101970007D5CA61EE75FFFFF7CDA1091A61DFFFFCE
:10198000FFDFF7DFF7DFF7DFF7DFF7DFFFDFFFDF8F
:10199000EF9FCEDFA63E859D64FC6D5D4CBC11942F
:1019A0005B31FFE0FFE0FFE0FFE0FFE0FFE0FFE092
:1019B000FFE0FFE0845011533B37441A341A341BC4
:1019C000341B445B549B6CFC95DDBE9EEF9FFFFF78
:1019D000FFFFFFFFFFFF851B1090855CFFFFFFDF10
:1019E000F7DFF7DFF7DFF7DFF7DFFFDFFFFFEF9F5F
:1019F000CEFFAE5E8DBD64FC6D3D54FC11D54AB189
:101A0000FFE0FFE0FFE0FFE0FFE0FFE0FFE0FFE0DE
:101A1000FFE094F0119443FA54DC54BC64DC857DFF
:101A2000B65EDF3FFFDFFFFFFFFFFFFFFFFFFFFFB0
:101A3000FFDFFFFF95BC1090747AFFFFFFFFF7DF19
:101A4000F7DFF7DFF7DFF7DFFFDFFFFFF7BFD71FB6
:101A5000AE5E8DBD6D1C651D5D1D121531F2FFCD95
:101A6000FFE0FFE0FFE0FFE0FFE0FFE0FFE0FFE07E
:101A7000FF8E1953547A9E5EC6BEFFDFFFFFFFFF45
:101A8000FFFFFFFFFFFFFFDFF7DFF7DFF7DFF7BF46
:101A9000FFFFAE7E10905BB8FFFFFFFFF7BFF7DFE1
:101AA000F7DFF7DFF7DFF7DFFFFFF7BFD71FB67E00
:101AB00095DD6D3C651D653D1A762172F76EFFE080
:101AC000FFE0FFE0FFE0FFE0FFE0FFE0FFE0FFE01E
:101AD000D68E1194BEFFFFFFFFFFFFFFFFDFF7DF92
:101AE000F7DFF7DFF7DFF7DFF7DFF7DFF7BFFFFF3E
:101AF000C71F109142F7FFFFFFFFF7BFF7DFF7DFC8
:101B0000F7DFF7DFF7DFFFDFF7DFDF3FB69F95FE99
:101B1000753C64FC655D22D71112E6EEFFE0FFE044
:101B2000FFE0FFE0FFE0FFE0FFE0FFE0FFE0FFE0BD
:101B3000F76E10D2AE7DFFFFF7BFF7DFF7DFF7DFFD
:101B4000F7DFF7DFF7DFF7DFF7DFF7BFFFFFDF9F35
:101B500010B22A15FFFFFFFFF7BFF7DFF7DFF7DF50
:101B6000F7DFF7DFFFFFF7DFDF5FBEBF9DFE755DCD
:101B700064FC6D7E2B3810F2C64FFFE0FFE0FFE003
:101B8000FFE0FFE0FFE0FFE0FFE0FFE0FFE0FFE05D
:101B9000FFE063502A96FFFFFFFFF7BFF7DFF7DF95
:101BA000F7DFF7DFF7DFF7DFF7BFFFFFF7FF1153CF
:101BB0001173F7FFFFFFF7BFF7DFF7DFF7DFF7DF9F
:101BC000F7DFFFDFFFDFE75FC6BF9E1E7D7D64FCA2
:101BD0006D7E2B7910D22A33FFE0FFE0FFE0FFE0BB
:101BE000FFE0FFE0FFE0FFE0FFE0FFE0FFE0FFE0FD
:101BF000FFE0FF8E10B15C5AFFFFFFFFF7DFF7DF5A
:101C0000F7DFF7DFF7BFFFFFFFFFFFFF325529B414
:101C1000FFFFFFFFFFFFF7BFF7DFF7DFF7DFF7DFBC
:101C2000FFDFFFFFE77FC6DFA63E857D64FC6D7E9C
:101C30003BD9111312154B12FFE0FFE0FFE0FFE06C
:101C4000FFE0FFE0FFE0FFE0FFE0FFE0FFE0FFE09C
:101C5000FFE0FFE0BDEF10B2A63DFFFFF7BFF7DFEB
:101C6000F7DFFFFFFFFFFFFFDF7F3B171090649A56
:101C7000CEBEC69EFFFFFFFFFFFFF7BFF7DFFFDF10
:101C8000FFDFEF9FCEFFA63E859D64FC6D7D441A6D
:101C9000109133383C1A6371FFE0FFE0FFE0FFE092
:101CA000FFE0FFE0FFE0FFE0FFE0FFE0FFE0FFE03C
:101CB000FFE0FFE0FFE06B5111D5EFDFFFFFFFFF1B
:101CC000FFFFE77F853B3B5811D5117412D81B38B5
:101CD0001256125632F7955BFFFFFFFFF7BFFFFF6B
:101CE000EF9FCEFFAE5E8DBD64FC6D5D447B10B298
:101CF00011F5655D43987BF0FFE0FFE0FFE0FFE05A
:101D0000FFE0FFE0FFE0FFE0FFE0FFE0FFE0FFE0DB
:101D1000FFE0FFE0FFE0FFE0295143B8FFFFFFFFD6
:101D2000749A1154109211942AF73B7822F7129763
:101D30002BFA33FA12B811B532F7E79FFFFFEF9F86
:101D4000D71FAE7E8DBD6D1C6D5D54DC10924B3780
:101D50009E7F447B2AF794D0FFE0FFE0FFE0FFE0A6
:101D6000FFE0FFE0FFE0FFE0FFE0FFE0FFE0FFE07B
:101D7000FFE0FFE0FFE0FFE0CE6F11536CBA1A56B0
:101D8000109132D7959CCF1FF7BFEF5FC65D63B848
:101D900012362BBA3C1B341B12361A56E77FF7DF7C
:101DA000B67E95DD6D3C653D5D1D10F319D4FFFFDA
:101DB000A61E2BFA2296B58FFFE0FFE0FFE0FFE0C2
:101DC000FFE0FFE0FFE0FFE0FFE0FFE0FFE0FFE01B
:101DD000FFE0FFE0FFE0FFE0FFE07C3010901A360C
:101DE000AE3DFFFFFFFFFFFFF77FDEFFDEDEE6DE3B
:101DF0004B77127733FA33BA3C3B12362AF7CF3F90
:101E00009E1E753C651D5D5D11541133E7BFFFFFDC
:101E10006CDC3C1A1A35CE6FFFE0FFE0FFE0FFE01C
:101E2000FFE0FFE0FFE0FFE0FFE0FFE0FFE0FFE0BA
:101E3000FFE0FFE0FFE0FFE0FFE063306C9AFFFFB0
:101E4000FFFFFFFFF7BFE75FD6DECE5DB5DCC5FC69
:101E50006BF81256341B33FA33DA341B11F55C7A03
:101E6000961E651C657E11D510B2CF3FFFFFFFFFA8
:101E70005CBB3BFA19F4E70EFFE0FFE0FFE0FFE098
:101E8000FFE0FFE0FFE0FFE0FFE0FFE0FFE0FFE05A
:101E9000FFE0FFE0FFE0FFE063729DFDFFFFFFFF5B
:101EA000F7DFF7DFEF5FDEDECE7DBDFCAD7BB55B40
:101EB00032B61B392B9A12771B393C5B1AF81A97EA
:101EC000757D6D9E1A561091B6BEFFFFFFFFF7BFDE
:101ED000549B33DA2214FF8EFFE0FFE0FFE0FFE0C7
:101EE000FFE0FFE0FFE0FFE0FFE0FFE0FFE0FFE0FA
:101EF000FFE0FFE0FFE052D2A65EFFFFFFDFF7DF6B
:101F0000F7DFEF5FDEDECE7EBDFCAD7BB57B63B879
:101F1000125612771A96543922B712B7341A12761B
:101F20005D1D2B1810919DFDFFFFFFDFFFFFDF5FA1
:101F30004C7B3BD93A72FFE0FFE0FFE0FFE0FFE0BF
:101F4000FFE0FFE0FFE0FFE0FFE0FFE0FFE0FFE099
:101F5000FFE0FFE0FFE0CE6E5C38DFDFFFFFF7BFA2
:101F6000EF7FDEFECE7EBE1DAD7BAD5B8C791215A4
:101F700011754398E79FFFFFE77F2A961B182338C8
:101F80001A761091853BFFFFFFDFF7DFFFFFCEFFE3
:101F9000445B43D94AB1FFE0FFE0FFE0FFE0FFE030
:101FA000FFE0FFE0FFE0FFE0FFE0FFE0FFE0FFE039
:101FB000FFE0FFE0FFE0FF6CB3681A55C73FFFFF8B
:101FC000DEFECE7EBE1DAD9CAD5B94BA1A3510F31D
:101FD000643AFFFFFFFFEF5FFFFFA59C12771AD760
:101FE00010906C9AFFFFFFFFF7BFF7DFFFFFBE9E69
:101FF0003C3B3B986351FFE0FFE0FFE0FFE0FFE088
:10200000FFE0FFE0FFE0FFE0FFE0FFE0FFE0FFE0D8
:10201000FFE0FF8CFC85FAC2FCC2C422121395DFDC
:10202000FF7FC61DAD9CAD5B9CDA227610B35419C0
:10203000FFFFFFFFEF7FE71FE6FECE7D2B38117518
:1020400053D8FFFFFFFFF7BFF7DFF7DFFFFFA63E25
:10205000341B2B387C10FFE0FFE0FFE0FFE0FFE0E7
:10206000FFE0FFE0FFE0FFE0FFE0FFE0FFE0FFE078
:10207000FF4BFB83FAA2FBC2FDC2FE22DC821210E0
:102080006CDED67DAD5BA4FA32D610B34398FFFF69
:10209000FFFFEF7FE71FD6BECE7DD67D3B1711B584
:1020A000C6FFFFFFF7BFF7DFF7DFFFDFFFFF95BDDD
:1020B000343B2AD79CF0FFE0FFE0FFE0FFE0FFE0C9
:1020C000FFE0FFE0FFE0FFE0FFE0FFE0FFE0FFCC2C
:1020D000FB63FAC2FAE2FD02FDA2FD62FE62F3A218
:1020E000195053FCB57B433710B332F7FFFFFFFFA6
:1020F000EF7FE73FD6DECE7DC63DB5DC1A961236C1
:10210000E77FFFFFF7DFF7DFF7DFFFDFFFFF7D5C34
:102110003C1B2A96B58FFFE0FFE0FFE0FFE0FFE009
:10212000FFE0FFE0FFE0FFE0FFE0FFE0FFE0FD6831
:10213000FB62FAC2FB42FD82FDA2FDE2FC82FB02D1
:10214000EDEA95112A7711332A96EFDFFFFFEF7F33
:10215000E73FD6DECE7EBE1DC5FC951A11942B3806
:10216000FFFFFFFFF7DFF7DFF7DFFFDFFFFF751C84
:10217000341A2A75C60FFFE0FFE0FFE0FFE0FFE042
:10218000FFE0FFE0FFE0FFE0FFE0FFE0FF8CFC8707
:10219000FC26FB63FBC2FDC2FD62FC22FAC2FAE22E
:1021A000FF6BFFE0BDF02A15DFDFFFFFEF7FE73FAA
:1021B000D6DECE7EC61DB5BCBDBC741910B374FB93
:1021C000FFFFF7DFF7DFF7DFF7DFFFFFFFFF64DC7D
:1021D00033FA1215D68EFFE0FFE0FFE0FFE0FFE0EC
:1021E000FFE0FFE0FFE0FFE0FFE0FFE0FE09FCE8CA
:1021F000FCA7FC47FC04FC22FB22FA82FAE2FBC3A8
:10220000FFE0FFE0FFE0B4CD443CF7FFFFDFD6DEA8
:10221000CE7EC61DB5BCAD5BAD5B2AB61134CEFF1C
:10222000FFFFF7DFF7DFF7DFF7DFFFFFF7DF5CBB6D
:1022300033FA1A14EF4EFFE0FFE0FFE0FFE0FFE0AB
:10224000FFE0FFE0FFE0FFE0FFE0FFE0FD65FD26CF
:10225000FCE7FCC8FC67FBA5FB63FB22FAC2FEAAF5
:10226000FFE0FECAFCA5FBA378E51AB9CF1FEF3F3C
:10227000BE1DB5DCAD5BAD3B7C5911135419FFFF9E
:10228000FFDFF7DFF7DFF7DFF7DFFFFFEF9F4C7BC5
:10229000441A2213FFAEFFE0FFE0FFE0FFE0FFE0A3
:1022A000FFE0FFE0FFE0FFE0FFE0FFE0FD62FD4355
:1022B000FD26FD07FCC8FC87FC46FBC4FD06FFE0CD
:1022C000FDA7FB22FAC2FAC2FC629B641276A5FF4C
:1022D000D67DA55B9CFAA4FA3AD610B39DFDFFFF0C
:1022E000FFFFF7DFF7DFF7DFF7DFFFFFEF7F4C9B45
:1022F00043F93232FFE0FFE0FFE0FFE0FFE0FFE004
:10230000FFE0FFE0FFE0FFE0FFE0FFE0FD82FD62B5
:10231000FD63FD45FD07FCE7FCA7FD88FFE0FDA987
:10232000FBE4FB83FB02FC62FDE2FE22BBE3121432
:102330007CFEBD9BA4DA6BF822133A7219B46C7A56
:10234000E7BFFFFFFFFFF7BFF7DFFFFFC6DF54FC6C
:1023500033376B90FFE0FFE0FFE0FFE0FFE0FFE0DE
:10236000FFE0FFE0FFE0FFE0FFE0FFE0FDE4FD62F3
:10237000FD62FD62FD44FD26FE6AFFE0FE2AFC6769
:10238000FC26FBA5FC62FDC2FD62FDA2FD82D262BD
:102390001192641B9CDA2235EF2EFFE0AD6F29719C
:1023A00011D5851BFFFFFFFFFFFFFFFFAE7E447BC4
:1023B00019B4CE4FFFE0FFE0FFE0FFE0FFE0FFE0F9
:1023C000FFE0FFE0FFE0FFE0FFE0FFE0FF09FDC30B
:1023D000FDE4FE04FEA7FF8BFFE0FF2BFCC7FCA77C
:1023E000FC67FC45FD62FD82FD62FDC2FBC2FB0293
:1023F000E5CB6C332A56AD8FFFE0FFE0FFE0FFCD69
:102400008C7018D12A559DDCFFFFFFFF961E2235E8
:1024100052D1FFE0FFE0FFE0FFE0FFE0FFE0FFE080
:10242000FFE0FFE0FFE0FFE0FFE0FFE0FFE0FFE0B4
:10243000FFE0FFE0FFE0FFE0FFE0FD67FCE7FCC737
:10244000FC88FCE4FD82FD62FDC2FC82FAC2FAE275
:10245000FFCCFFE0B5CFFFE0FFE0FFE0FFE0FFE0F3
:10246000FFE0F74E7BF010F22A964BB822353A5235
:10247000FF8EFFE0FFE0FFE0FFE0FFE0FFE0FFE0B6
:10248000FFE0FFE0FFE0FFE0FFE0FFE0FFE0FFE054
:10249000FFE0FFE0FFE0FFE0FF2AFD26FD06FCE78E
:1024A000FCA8FD03FD82FD62FCC3FBA4FB62FBE311
:1024B000FFE0FFE0FFE0FFE0FFE0FFE0FFE0FFE024
:1024C000FFE0FFE0FFE0E70E94B07390A52FFFE080
:1024D000FFE0FFE0FFE0FFE0FFE0FFE0FFE0FFE004
:1024E000FFE0FFE0FFE0FFE0FFE0FFE0FFE0FFE0F4
:1024F000FFE0FFE0FFE0FFE0FE47FD45FD26FD06B3
:10250000FCE7FD05FD04FC86FC27FC06FBE4FE69F8
:10251000FFE0FFE0FFE0FFE0FFE0FFE0FFE0FFE0C3
:10252000FFE0FFE0FFE0FFE0FFE0FFE0FFE0FFE0B3
:10253000FFE0FFE0FFE0FFE0FFE0FFE0FFE0FFE0A3
:10254000FFE0FFE0FFE0FFE0FFE0FFE0FFE0FFE093
:10255000FFE0FFE0FFE0FFE0FE04FD43FD44FD255A
:10256000FD26FCE7FCC8FCA8FC87FC66FCE7FFE056
:10257000FFE0FFE0FFE0FFE0FFE0FFE0FFE0FFE063
:10258000FFE0FFE0FFE0FFE0FFE0FFE0FFE0FFE053
:10259000FFE0FFE0FFE0FFE0FFE0FFE0FFE0FFE043
:1025A000FFE0FFE0FFE0FFE0FFE0FFE0FFE0FFE033
:1025B000FFE0FFE0FFE0FFE0FDE4FD62FD42FD44DF
:1025C000FD25FD06FD07FCE7FCC7FCC8FFACFFE0EE
:1025D000FFE0FFE0FFE0FFE0FFE0FFE0FFE0FFE003
:1025E000FFE0FFE0FFE0FFE0FFE0FFE0FFE0FFE0F3
:1025F000FFE0FFE0FFE0FFE0FFE0FFE0FFE0FFE0E3
:10260000FFE0FFE0FFE0FFE0FFE0FFE0FFE0FFE0D2
:10261000FFE0FFE0FFE0FFE0FE04FD62FD42FD425F
:10262000FD44FD25FD26FD07FD28FF6CFFE0FFE0D2
:10263000FFE0FFE0FFE0FFE0FFE0FFE0FFE0FFE0A2
:10264000FFE0FFE0FFE0FFE0FFE0FFE0FFE0FFE092
:10265000FFE0FFE0FFE0FFE0FFE0FFE0FFE0FFE082
:10266000FFE0FFE0FFE0FFE0FFE0FFE0FFE0FFE072
:10267000FFE0FFE0FFE0FFE0FE66FD62FD62FD625D
:10268000FD42FD44FD45FDE8FFCCFFE0FFE0FFE03B
:10269000FFE0FFE0FFE0FFE0FFE0FFE0FFE0FFE042
:1026A000FFE0FFE0FFE0FFE0FFE0FFE0FFE0FFE032
:1026B000FFE0FFE0FFE0FFE0FFE0FFE0FFE0FFE022
:1026C000FFE0FFE0FFE0FFE0FFE0FFE0FFE0FFE012
:1026D000FFE0FFE0FFE0FFE0FF09FD82FD82FD82F9
:1026E000FDA3FE46FF2AFFE0FFE0FFE0FFE0FFE082
:1026F000FFE0FFE0FFE0FFE0FFE0FFE0FFE0FFE0E2
:10270000FFE0FFE0FFE0FFE0FFE0FFE0FFE0FFE0D1
:10271000FFE0FFE0FFE0FFE0FFE0FFE0FFE0FFE0C1
:10272000FFE0FFE0FFE0FFE0FFE0FFE038B5054637
:1027300001F0E0F82C680CB12168296001F0ECF898
:10274000204632BD70B505460E462C68002030602C
:102750001CB901F0CFF82E600DE001F0CBF800E0DD
:10276000246821680029FBD1B44203D101F0D4F8D8
:10277000002070BD266001F0CFF8012070BD10B5BB
:1027800001460022DFF8500B00EB4210C37F1C060D
:1027900003D5B0F91C308B4203D0521C082AF1DB60
:1027A000002010BD38B504281DD1DFF8CC4A04F153
:1027B000EC05284601F0F8F8A8B1284601F0F2F837
:1027C000DFF8B81A0A68504364280CD2284601F092
:1027D000F9F8052001F036FA0120E077042104F130
:1027E0004C0001F04BFD002032BD70B5044601F0F5
:1027F00081F8DFF88C1A0546887D00B3401E887585
:10280000C0B2E0B9DFF8706A082100F0F4F8B4B1A2
:10281000B06B703001F0D6F8B06BDFF8601AC068AA
:102820000A68241AB4FBF2F1012906F1EC0498BFFE
:102830000121204601F0C2F8204601F0C1F82846E7
:10284000BDE8704001F068B810B50446207B00F088
:102850000F0002280FD100F018FDA168081ADFF858
:10286000181A8A6BD168800801F57A71814238BFE5
:10287000B0F1405F00D3002010BD38B5DFF85C1A1E
:10288000DFF85C0A0C68DFF8F0590440E0430860A8
:10289000A00606D54868810603D54FF4005100F024
:1028A000E6FD14F4602F09D0286904F46024044381
:1028B0002C6105F19C00BDE834403AE031BD70B5B3
:1028C00001F018F8DFF8B0590446286910F4602FB9
:1028D00025D02E69F601360EF00748BF002606D433
:1028E000B00748BF012602D4700748BF0226701DFA
:1028F00040B200F051FF2969012206F11100824027
:102900009143296100F0BEFC05EB8600446844B1A8
:10291000286800224FF00063711DA04701E000F01D
:10292000B1FC286920B105F19C00BDE8704000E0D1
:1029300070BD002101F0A2BC70B501F0A5FCDFF86C
:102940003869DFF8E05B8107B16A1DD4D1E904235F
:10295000104007D0F1628A69104388614FF48041CA
:1029600000F049F8B06A002844D1746A002C41D0C4
:10297000E068B16B884222D006F14C00BDE870409F
:102980004FF4805101F07ABC09B9B16AEAE700223C
:10299000B262D1E904238C69104040F00200204368
:1029A0008861686990436861E8689843E86006F167
:1029B0003000FFF7C7FE022100F01DF8E5E7A06830
:1029C000FFF742FFB06408B1B06CD1E0D4E9040174
:1029D0006A6902436A610020EA680A43EA60E861C2
:1029E000A0682860E8690028FCD006F12400FFF701
:1029F0009DFEB46270BD06F14C0001F03FBC0020AA
:102A0000F3E6F8B5074614463E6E1D4606B1B047DC
:102A1000A00708D4D7E9160120402940002291429E
:102A200008BF904207D0C7E91A4507F13800BDE852
:102A3000F24001F004BDF1BD704780B501F01CFC0F
:102A4000DFF834280146906BD26BBDE80840104790
:102A50000421DFF8D40A01F011BC80B501F014FCA8
:102A6000DFF8C81A084204D0BDE804404FF0005116
:102A7000EFE701BD70B504005AD0A16820200029FD
:102A80001CBFC2B2002A59D00A8840F603039A42FA
:102A90001FBF40F604039A424968401EEFD148E048
:102AA00000224FF08043B4F91C10E0686568A84725
:102AB00000F020FFDFF8C0570646E88E401CC0F348
:102AC0000B00E8860020296BC87705F13000FFF77E
:102AD0002DFE304600F020FFB5F93600E26802F125
:102AE0009403B3F90010884202BFDFF89407017D18
:102AF00000291DD1987808B9106810B90020987085
:102B000036E0A96B0B6813F1010F11D0DFF86C5799
:102B10002968B0FBF1F1012998BF012102F1700091
:102B200000F04CFFE068BDE87040703000F048BF36
:102B300070BDE0681822203001F0D0FCA2690020AE
:102B4000A06160680028B3D0E07F002300F0070098
:102B5000012842F0020207D00228A1D0042804BFB5
:102B600000224FF080539EE700224FF000539AE777
:102B7000BDE8704039E638B50D46A807DFF8F846DD
:102B800019D5206BFFF776FF206B25F0020510B1F9
:102B900045F0020109E0680702D4606A002854D0B9
:102BA00004F1EC0000F00EFF042104F14C00BDE83C
:102BB000344001F063BB680747D5012084F820004A
:102BC000042001F03FF8DFF8680901680A6B9047BC
:102BD0002064606A08B1C068A063A06B4168DFF838
:102BE00054090A780260022001F02CF8112001F04B
:102BF0003EF80120E076A06B017C002919BF607EC1
:102C000000280E2001F033F8A06BDFF81829406887
:102C10008168002904BFC068002804D00021D16168
:102C2000DFF84C0A106040F2FF70DFF8481A0860C5
:102C300000219161DFF8F40850610FF21100E063A8
:102C40001920BDE8324000F059BE31BD2DE9F043F6
:102C50000446880085B040F19380DFF81C56A86BCD
:102C60004068406800B18047A86BDFF8B8884268C8
:102C70009068002804BFD16800290DD000F0A7F8A3
:102C8000906800B18047A86B4068C06800B1804779
:102C9000DFF86C0A01F0FBFA0020C8F81C0040F6CF
:102CA0000A09DFF8600ADFF8D875C8F800000120CB
:102CB00001F027FB0FF28110E863002100207880EB
:102CC000A7F8009000F00CFA787B00F003FAA268F5
:102CD00016467180697E09B1607CA0B1108840F60B
:102CE0000201884218BFB0F5C15F05D1318A4FF6A5
:102CF0000F400140318204E0318B4FF60F4001401C
:102D00003183002060746946104601F0E7FA684696
:102D100001F0F2FA7068B0B30188494518BF064661
:102D2000F8D130E0208C00283FD00021618461621E
:102D300004F12C004278017802F0F00201F0F00179
:102D400042F001020170427004F120007860787B4B
:102D500000F0F000787328E0DFF8801A0A68136842
:102D600001209847012808D0707B00F0F00040F067
:102D7000010070730FF26900E863A068C8F80000F2
:102D800005B0BDE8F083776040F60301707B00F08A
:102D9000F0007073686A8068008888421CBF40F643
:102DA00004018842BED10020286400F010F84FF6DC
:102DB000FF30A1680A8A02400A82E87F0028CBD04F
:102DC00001F0DAF80028FBD001F0E7F8D5E7D8F8F1
:102DD0001C000028FBD00021C8F81C107047000020
:102DE000DFF8FC29114200D17047DFF8F01901200B
:102DF00010B50A68DFF8804413689847012808D1A5
:102E00000FF23500DFF81C17E063DFF87404086088
:102E100010BDDFF8682410683221B1FBF0F1012900
:102E200098BF0121EC34204600F0C8FD2046BDE8E3
:102E3000104000F0C5BD00002DE9FE4F06460C46CF
:102E40006004DFF8345419D500F054FDEE6AB76918
:102E5000B9070ED46EB10021B16100F05DFD70685C
:102E600048B1B6F91C10F06876683A460023B047BE
:102E700001E000F051FD24F4804425E1A0070AD5CB
:102E8000286BFFF7F7FD286B002824F0020401D01F
:102E900044F0020418E1A00005F1800840F6090999
:102EA000DFF8DC73DFF888B676D595F8200028B116
:102EB000042000F062FE002085F8200040F60202A7
:102EC000B0680188914218BFB1F5C15F05D1028A8F
:102ED0002D2161F30912028204E0028B2D2161F39E
:102EE00009120283286CD8B1DBF854100A68042058
:102EF0009047A8B1DBF80000016B8847296C81423C
:102F000028BF401E401A718A11EB1030F06040F269
:102F1000D171A0F5FA70884224BF40F6C410F06069
:102F2000787B10F00F0F04BF708C484508D1D6F89D
:102F300018C000224FF000736FF480713046E047F4
:102F40000022DFF8A818404600F0DCFCA87E50B153
:102F50000221ADF80010684601F099F9BDF80800AB
:102F6000A8820020A876012028760021B87D401C88
:102F7000B875E976686A18B1192000F0C1FC01E063
:102F800044F002043046766900224FF0806300214D
:102F9000B04724F0005497E0A87F24F0080A20B13D
:102FA000210703D50020A8777BE020077BD5E87FA9
:102FB00020B10021E977052000F0DFFD0020287610
:102FC00001202877002001F09CF90022DFF820186A
:102FD000404600F097FC697E09B1A87E10B101213E
:102FE000697612E0A86C002834D0DBF80010086B7A
:102FF0008047296C6A6C401A02EB10326A64A86C34
:10300000C001904226D200216964DFF8E807016818
:103010000A061FD5787BA7F8009000F05BF8002126
:103020000020788000F05CF800F064FCDFF8F41415
:103030004A6922F002024A616FF002020A610F60DF
:103040000B699C07FCD50A614A6942F002024A6199
:1030500000F062FC0020286401F026F9DFF8141665
:1030600000200860022000F088FD112000F09BFD88
:10307000307C10B90E2000F096FD0020A883787DEA
:1030800018B906F1380001F0DAF9DFF86C07E863E7
:10309000F87D30B10021F97505F14C00042101F0F3
:1030A000EDF8544610E0A0040ED5AE6A002E1CBF09
:1030B0007068002806D0B6F91C10F0687668002207
:1030C0002023B04724F4005414B1214600F0CFF976
:1030D000BDE8F78F00F0F00040F001007873704712
:1030E0007960387B00F0F0003873704730B585B0F8
:1030F00000F0B0FCDFF80407DFF8044701685E4D1C
:1031000041F002010160684601F08BF8A078DFF819
:10311000F41602906A4605F14C0001F08AF8684600
:1031200000F0F2FB2178DFF8C826019100208DF82D
:1031300008006B46192105F1800000F0B8FB6846D5
:1031400001F06FF8E078DFF8C01602906A4605F1EA
:103150009C0001F06EF8684600F0D6FB01208DF867
:1031600008006B466078DFF8A42601901A2105F16B
:10317000D00000F09CFB00230022DFF8941605F13C
:10318000EC0000F0EEFBDFF87006DFF88826E8635D
:103190000023042105F5887000F0DDFC4FF6FF7078
:1031A000A88205B00120A8760020E8756876E87648
:1031B000E861286485F8200030BDF0B500298BB0A7
:1031C000064615461C4653D0DFF84C0600680A78C0
:1031D000D040C0074CD5002D716049D00021284651
:1031E00001F090F8B56000F085FB254F0546787D2D
:1031F00000283BD1FFF77AFF787D401C787500F0FE
:10320000A0FA34B903A80FF24C611C2201F066F950
:1032100003AC2068DFF8041630600A466068F0608E
:10322000207C307401207074608A7082E06800B184
:103230000146B161A06800B102467261782106F1D1
:10324000200001F0B3F9002106F1380001F0C1F8C7
:10325000684600F0B0FB02966B460022DFF8C0150E
:1032600006F1700000F07DFB304602E000F069FAE4
:1032700000200BB0F0BD00000426002070280020C4
:1032800028270020204600F047BBD0B500F032FBD5
:10329000DFF89025117E31B1DFF88C25146800F03D
:1032A0003BFB2046D0BD00F037FBA148DFF87C4552
:1032B00001680A6B904710F50032DFF8740541F1A0
:1032C00000030169A4FB0267002004FB03773218A6
:1032D00047EB01031846D0BD9813002008100440A6
:1032E00020000E002DE9F84F04460E4692469B46FC
:1032F000DFF8305500F0FEFAB5F934108046B5F924
:103300003600091AC1F30B0108296FF0010949DAE7
:10331000A88EDFF82015401CC0F30B00A886B5F975
:103320003400ADF800000020420101F11F039B5C56
:103330001F0640F18C80401CC0B20828F4DB002737
:1033400004F1700000F03EFBBE6087F81EA0C7F8D5
:1033500004B02021BDF80000B883FC60DDE90AABB1
:10336000DFF8D4040AEA00000BEA0101C7E904010E
:1033700094340020F87740F6FF76686A00283946D2
:1033800005F1240006D0FFF7DDF930B100F061F857
:1033900040464FE0FFF7D6F940B9A88E3618C6F37D
:1033A0000B06AE8600F01EFA48464EE000F051F8DB
:1033B000697FDFF87C4400291CBF287E002807D0E5
:1033C000002001216877A876A977A07D401CA07510
:1033D00000F008FAA96A002935D1287E18B1192011
:1033E00000F08EFA2FE0E87E68BB00F083FA064614
:1033F000287F10B10121E1751BE0B868FFF724FABE
:10340000A864D0B1A86BDFF83414C0680968AA6C4E
:10341000121AB2FBF1F2012A83BFAA6C101AB0FB98
:10342000F1F10121EC35284600F0C8FA284600F0F9
:10343000C7FA304600F070FA05E0304600F06CFA4A
:10344000042100F014F8BDF90000BDE8F28F8F18D8
:1034500076E7BDF800002080F87F40F08000F87724
:10346000A078012802D10021A170A976704705F14A
:103470004C0000F003BF2DE9F04105460C4616460E
:103480001F4600F0F7FE80462046FFF778F904005B
:1034900003D1404600F0F6FE0AE0E07F10F0070F8F
:1034A00009D0404600F0EEFEE07F10F0070FFBD1A0
:1034B0000220002112E06168DFF88403814202D01B
:1034C000616829666060C5E91667404600F0DAFE6B
:1034D00000F006F800202866D5E91A01BDE8F08161
:1034E0004FF0FF3105F1380000F0A0BFDCB5DDE999
:1034F00006670446CDE90067180008BFDFF84033CF
:103500002046FFF7EFFE002803D500204FF00041D2
:10351000DCBD0146204602B0BDE8D04002224FF09B
:10352000E043A8E7001004405026002002000040BD
:103530008C010010D021084001E042F002022DE988
:10354000F843DFF8E052686A00900F4603261446FD
:1035500000F0D0F917F1010F04F00108814609D1FC
:10356000A86A002819BFA96AB1F91C70EF8E7F1CE8
:103570000020E87538B2FFF702F9010069D0A86AA7
:10358000814204F0020426D11CB1686A0090002236
:103590006A620122C87F02FA08F21043C87700F07D
:1035A00069FE0646B8F1000F14BFDFF89802DFF895
:1035B000980200F06CFE00F06BF824B906E000F011
:1035C0005BF800F060F800980028F8D1304600F071
:1035D00059FE83263FE00098884205F1EC0316D19E
:1035E000184600F0EFF9002C12BF0020686A00684E
:1035F000686200F04DF8009800F03EF800F043F8E3
:10360000009820B3002CF6D121E0126800920098B7
:1036100020B3024610688842F7D1184600F0D2F96C
:10362000009800681CB1009A0021116004E0016854
:10363000009A116000220260009003E000F01CF884
:1036400000F021F800980028F8D100F021F8832636
:1036500006E000F01DF83046BDE8F28300F018F8EF
:10366000E87E0028F7D10221FFF701FFF3E7000011
:103670005100070600000460C17F41F00401C177DA
:103680006846FFF753B8014605F13000FFF75AB816
:10369000484600F041B90FF2BC111C2200F01EBFD9
:1036A00038B5044600F026F9DFF878110546087EA3
:1036B00068B1204600F0EBFD044600F042F804F04B
:1036C000FF04012C01D1812032BD022032BD00F067
:1036D00038F8012032BD0A46DFF848118B6B98425A
:1036E00001D00320704707E00A46DFF838118B6BE2
:1036F000984201D00320704700211046D0E7000017
:103700000100070601010E0470B5DFF818118A6B7D
:1037100090426FF07F0412D1087E80B100F0EAF889
:103720000546DFF8280100F0B2FD064600F009F872
:1037300006F0FF00012802D13602301670BD204687
:1037400070BD284600F0E8B870B50E46154600F08A
:10375000D1F88324334A1EB1022E0ED006D30FE0D7
:10376000916A41B1926A918B29800AE0917E11B9E8
:10377000928A2A8005E0802403E0117E297000E00F
:10378000032400F0C9F8204670BD80B50846FEF756
:10379000F6FF00B1806802BD38B5044600F0AAF813
:1037A000204AD17D4B0702D5937D9C4212D0012344
:1037B000958A03FA04F10D43254995820C340A6871
:1037C00003FA04F422EA04040C60096811B9184BE6
:1037D00000221A75BDE8324000F09EB8E0010010EA
:1037E00004000020404600F097B80000392900008E
:1037F0005B2A000000000440772B000000200940F5
:10380000B0F300003B2A0000BF2800007B28000026
:10381000512A0000A5270000D4210840392A0000C1
:10382000FF290000042600200430044000093D0068
:103830002827002098130020F1EFFF9F7028002018
:10384000032A000001000204010001040100030436
:103850000C100440FFFFFFFFC4090000000000003F
:103860000000000001001A0100000000000000003C
:10387000DFF800F085BF0110DFF800F061C0011033
:10388000DFF800F079BF0110DFF800F0A9C00110E7
:10389000DFF800F045AF0110DFF800F089AF01104C
:1038A00020B1082330220021FFF7EABF7047F0B5AE
:1038B0001C008DB005460E46174603D1002300F0CC
:1038C0009BFE0CE06846FFF7EBFF206805906B4617
:1038D000606808903A4600F005F800F08DFE284632
:1038E0000DB0F0BD207AADF818003146284670477B
:1038F000FFF7CABFFFF7BCBFFFF7CABFFFF7CCBFD8
:1039000000F09ABE00F0A2BE002101604FF0FF312E
:103910004160012101727047FFF7AEBFDFF800F090
:10392000C1BF0110DFF800F0B9BA0110DFF800F0F4
:10393000E5C00110DFF800F01FBE0110DFF800F055
:1039400069B20110DFF800F0DDC00110DFF800F00F
:1039500091BE011020B1082324220021FFF7DEBF11
:103960007047F0B51C0089B005460E46174603D1D6
:103970000023FFF7E3FF0AE06846FFF7EBFFA068CC
:1039800006906B463A4631462846FFF7D7FF0E4869
:103990000E4A01681160284609B0F0BDFFF7D2BF9A
:1039A000FFF7D4BF00F05ABE80B500F06EFE00B144
:1039B0000120C0B202BD002181607047FFF7B6BF91
:1039C000FFF7B8BFFFF7AEBFA03701007028002097
:1039D00070B5DFF8644782B00120009009232568A4
:1039E000DFF858076E684FF400720021B04773BDCE
:1039F00070B5DFF84447DFF844072568EE68002318
:103A000001223421B04700B10120C0B270BDDFF8FF
:103A1000300780687047DFF82817084490F8EF00F7
:103A2000704702460020022904D1012A06D140F243
:103A3000EE207047012A08BF4FF47A707047DFF814
:103A4000001791F8E60020B1D1F81001002818BF46
:103A5000004770472DE9FF41DFF8E48608F1E105F2
:103A6000A879002873D1DFF8DC16DFF8DC660A6875
:103A70009209012002F00102A871EA71307BDFF89F
:103A8000CC7668717068C8F8100101A8FFF793FF41
:103A9000002102918DF80410039101AB00220FF276
:103AA000295108F10C00FFF75CFF01AB00220FF277
:103AB000D55108F13000FFF754FF01AB00220FF29F
:103AC0000D5108F15400FFF74CFFB1680120884701
:103AD000DFF87C0601787868C0F38154707B20B1F0
:103AE000032C02D10121297003E0032C18BF022C02
:103AF00016D1022000F0A6F8DFF858160A68032C49
:103B00000CBF4FF47A7042F21070B0FBF2F108F182
:103B10005400FFF753FF08F15400FFF751FF10E086
:103B2000012C0ED1DFF81046032000901C232568DD
:103B3000DFF808066E684FF040520021B047FFF7EB
:103B400047FF386840075CBF002000F07BF800208A
:103B500004B0BDE8F08138B5002408B1150002D1E9
:103B60006FF0020407E08160C26003610146DFF884
:103B7000D00500F096FD204632BD10B50446FFF793
:103B8000B9FEDFF8BC150A1992F8E9305B1E82F81D
:103B9000E930DBB233B98A68012303FA04F422EA7C
:103BA00004048C605FE0F8B50546FFF7A3FE044609
:103BB000DFF88C15481990F8EF20521E80F8EF209E
:103BC000D2B27ABB0FF2D850DFF88C7500EB8502C9
:103BD00010F825505688280615D539680A6A3046E7
:103BE00090473A68916A3046884739680A6B304690
:103BF0009047DFF8681501200860DFF86415086851
:103C00008007FCD507E0680611D501EB860100208E
:103C1000D1F80421904705F03F053F2D1CBF2846F1
:103C2000FFF7C1FF2046FFF777FE0020F2BD39689D
:103C30008A69304690473A68516B30468847022877
:103C4000F9D1E8E710B50446FFF754FEDFF8F014A9
:103C50008A680123A3401A438A60214491F8E9202D
:103C6000521C81F8E920FFF757FE002010BD2DE916
:103C7000F0410746FFF73EFE0546DFF8C464F01941
:103C800090F8EF104A1C80F8EF2049BB0FF2105853
:103C900018F8270000F03F003F2818BFFFF7E7FFA4
:103CA00008EB8700448818F82700DFF8AC74010699
:103CB0000ED53968CA69204690473A68516A20464D
:103CC00088473968CA6A2046904700F01AF807E02A
:103CD00040060BD506EB84010120D1F80421904762
:103CE0002846FFF719FE0020BDE8F08139684A69CF
:103CF000204690473A68516B204688470128F9D101
:103D0000EEE7DFF8581401200860DFF85414086863
:103D10008007FCD570472DE9F84F0746DFF82404EB
:103D2000DFF844540168002600244A06A0460DD559
:103D3000287B58B9DFF83404DFF8341402680A40ED
:103D400042F081720260202000F075F9012F18BF47
:103D50006FF0010957D12868012852D1022129604A
:103D600000F047FD012000F066F95FEA00094BD141
:103D700000F080FADFF8FC13DFF8DC7300900C60D1
:103D80000120B96A0A689047012803D1002000F099
:103D9000A8F90124DFF8E013DFF8C8A3DFF8DC237B
:103DA0000E60DAF80010907808B14FF001085178F1
:103DB00009B148F00208107808B148F00408A87F5B
:103DC00020B139680A6B4FF480609047687F20B15A
:103DD00039680A6B4FF481609047DFF88013012047
:103DE000086048F0200039688A699047DFF890132E
:103DF00001200860DFF84813087AC10709D50126B9
:103E00001FE06FF004097DE00120286000F0FCFC59
:103E100078E0396ADFF86C038A6890478346BBF123
:103E2000040FF6D0BBF1010F05D13A6ADFF8540355
:103E3000536803219847DFF8500301688908890017
:103E40000160002000F004FDDAF800003868816BA2
:103E5000884776B9BBF1010F05D13A6ADFF8240330
:103E6000536801219847DFF82003016841F00301FE
:103E700001600120DFF800130860404639684A6994
:103E80009047A87F20B13968CA6A4FF48060904794
:103E9000687F20B13968CA6A4FF481609047AF49A2
:103EA000B74A0120086000211160032028603A68A9
:103EB000516B404688470128F9D1DAF80000042008
:103EC00000F0B9F80646AB4901200860DAF80010A6
:103ED0009C4908688006FCD514B1012000F001F966
:103EE00000F006FE082000F0A6F806430120286036
:103EF000009800F0C7F900F080FD00F085FC0EB1DD
:103F00004FF0FF394846BDE8F28F38B50446FFF759
:103F1000F1FC054621468A4800F0D7FB2846BDE85B
:103F20003240FFF7F9BC3EB50024012804D020D36D
:103F300003281CD017D31CE06846FFF73CFD804DDA
:103F4000924901948DF8004002946B46012205F1DC
:103F50007800FFF706FD00238D4A2C2105F19C0017
:103F6000FFF7A5FC05E000F0DFFD044601E000F0EE
:103F70009FFE20463EBD000038B5FFF7BBFC7049F0
:103F8000054691F8E000012410B1FFF731FD044629
:103F90002846FFF7C1FC204632BD70B5FFF7AAFCEA
:103FA000044601F014F86649002081F8E0006648F4
:103FB00085680220A8470646102000F03CF8012E34
:103FC00004BF0320A84787E07047000038B55A4C6B
:103FD000E16B0A6804209047022818BF03280FD11C
:103FE000032000901C232468544865684FF0405219
:103FF0000021A847FFF7ECFCBDE832400220BCE5F9
:104000006448544900680A684D4CC0F38150032845
:104010000CBF4FF47A7041F28830B0FBF2F104F13A
:104020005400FFF7CBFC04F15400BDE83240FFF729
:10403000C7BC0020704738B50546414C204600F00B
:1040400026FB88B9204600F028FB0446A0682842D9
:1040500005D02269E36800212846984730B92046F8
:1040600000F01DFB0400F1D1002032BD4FF0FF3005
:1040700032BD494901280CBF40F2FF7000200860A2
:104080000020704770B5FFF735FC2D4E2E4D0446CD
:1040900096F8E00028B100F09AFF70B1002086F891
:1040A000E0000220AD68A84706461020FFF7C3FFD6
:1040B000012E11D10320A8470EE026490A683220BC
:1040C000B0FBF2F101B9012106F13000FFF776FCF7
:1040D00006F13000FFF774FC2046BDE87040FFF7A2
:1040E0001BBC38B5012823D12C490A6813689847AE
:1040F00001281DD000F05EFF114D012085F8E00081
:10410000287A810616D4134802683221B1FBF2F4F2
:1041100004B9012405F13000FFF754FC214605F1F4
:104120003000FFF74BFC05F13000FFF749FC01E0E0
:1041300000F073FF002032BDA401001000A00C406D
:10414000B00F002014100940A0F30000B03F005051
:104150008D2D002070280020B80100102820086054
:10416000282008402C2009408C1000200400094021
:10417000FFFFFCFC0C40094000022243AE1000206F
:10418000800104430040034024220840F94D000010
:104190008D4B0000B43F005000000460E0010010AF
:1041A0008F0000008F0001008F0002008F000300CD
:1041B000900000018F0001019000000290000003B8
:1041C0008F0001048F0000058F0008048F00000499
:1041D0008A000006510000007F0001003F0004003B
:1041E0003F0002003F0001007F000200DFF800F006
:1041F00011BF0110DFF800F011B00110DFF800F07E
:1042000015C00110DFF800F015C10110DFF800F053
:1042100005B3011020B1082328220021FFF7EEBFCB
:104220007047002101604160C1604FF0FF31816043
:10423000704770B514008AB005460E4603D10022BF
:1042400000F036FF0CE06846FFF7E4FF20680490BA
:104250006A4660680590314600F004F800F028FFD7
:104260000AB070BDE0680790A068069028467047C5
:10427000FFF7C8BFFFF7BABF00F026BF00F02ABFA4
:10428000FFF7B8BFFFF7C2BF3849086867E0384A90
:1042900011680029FCD10023D3611060D069002887
:1042A000FCD0D161506870473248016821F00201AA
:1042B00041F40071016003212F48816041F2300117
:1042C00041610121C160502141610121C1604FF470
:1042D000CA6141610121C1600160704727480268DD
:1042E0000A6082684A60C2688A60406B20F0784049
:1042F00040F08050C860704701461022204800F00E
:10430000DDB87047FEB50188B1F5C15F18D14269CB
:104310001C4F0092002382690192C06902901A48E2
:104320000268C2F303625DF8230098B1002550F8DB
:104330002560BE4206D06D1CEDB2042DF7DD09E00C
:104340000120FEBD042D05DC26F4702444EA02445D
:1043500040F825405B1C032BE5DB0020FEBDC2437B
:104360000A600A680242FAD1704700001010044047
:104370000010044000000460004104404C13005051
:10438000180000210200F84454130050DFF800F038
:1043900009C00110DFF800F0D1B20110DFF800F021
:1043A000059B0110DFF800F0E1A30110DFF800F039
:1043B0005DB40110DFF800F009C10110DFF800F072
:1043C0000DC1011020B1082324220021FFF7DEBF18
:1043D000704730B589B004460D4600F00BF8012156
:1043E0008DF818106A4629462046FFF7DFFF204661
:1043F00009B030BD6846E5E710B58AB00446FFF75E
:10440000F9FF01218DF818102046034A6946FFF78D
:10441000C1FF0AB010BD0000CC0D002080B5009097
:104420006846FFF7C7FF01BDFFF7C8BF80B5FFF7BC
:10443000B5FF10B96FF0010002BD002002BDFFF70B
:10444000B1BFF0B40246106895681318506803EBCA
:104450005004C00721D54D441FE0F0BC02F10C0010
:10446000704713F8017B05F8017B491EF9D1A0B113
:10447000B60813F8011B06F00306032E08BF13F855
:10448000016B01EB06214942801C294405D011F83B
:10449000016B05F8016B401EF9D1A342DDD013F882
:1044A000016B16F0030104BF13F8011BC91C30098E
:1044B0000F28DAD113F8010B0F30D6E762B38B0760
:1044C00008D0521E11F8013B00F8013B00F0248097
:1044D0008B07F6D1830740F0208000BF103A07D346
:1044E00030B4B1E83810103AA0E83810F9D230BC36
:1044F000530724BFB1E80810A0E8081044BF51F8E2
:10450000043B40F8043BD20724BF31F8022B20F8CB
:10451000022B44BF0B7803707047121F17D35B0048
:1045200009D151F8043B20F8023B1B0C121F20F864
:10453000023BF6D20BE051F8043B00F8013B1B0AAA
:1045400020F8023B1B0C121F00F8013BF3D238BFCE
:10455000121D521E24BF11F8013B00F8013BF8D890
:1045600070470268920841EA82028B0822F0040236
:1045700003F0010342EA8302CB0822F0080203F0B1
:10458000010342EAC3020B0922F0100203F0010307
:1045900042EA03124B0922F0E00203F0010342EA6F
:1045A0004312890942EA811202607047002200F03A
:1045B000ADBD024681B01078022903D1517800EBDD
:1045C000012013E0032906D15178927800EB0120F5
:1045D00000EB02400AE0042908D15178937800EBFF
:1045E0000120D17800EB034000EB016001B070477F
:1045F000DFF800F0BDAA0110F8B504460B480C4FD7
:104600000668F8690D4650F82500B04209D10948FE
:1046100000902046FFF7ECFFF86950F82500B04203
:1046200001D10020F2BD2046F2BD00BF18120000EB
:1046300044010020CC0D0020102803D3024910387B
:10464000C1F8000F704700BF00E000E081604260E9
:1046500070470000DFF800F09DB2011070B504460D
:1046600000F072FD0646A08A0025012808D1FFF758
:10467000F1FF0546E068451BA068A84238BF002549
:10468000304600F062FD284670BD808A70470068A1
:1046900008B9012070470020704700687047006823
:1046A000704738B504460D46FFF724F9002129600C
:1046B000616869606168002914BF0D6025606560EC
:1046C000FFE7BDE83240FFF727B90A684B68002AC8
:1046D0000CBF436053604A6809680AB901607047BB
:1046E0001160704710B501688A089300CC0801F08A
:1046F000030003F00403E20018430B0902F0080270
:104700001C0110434A0904F010045301204303F034
:1047100020031843890940EA8110C0B210BD00008F
:10472000DFF800F031BF0110DFF800F0F5B701103D
:1047300030BF7047FCE738B500F0D6F900F087F9D4
:10474000FFF765F9044604F00C000C284BD0600715
:1047500021D400F02FFD054601210120FFF761F96A
:104760002F49096801FB05F2904214D2F020B0FBFA
:10477000F1F02C4C291A04F10C00FFF7D7F804F1E2
:104780000C00FFF7D7F80120FFF7C5FA04F10C0081
:10479000FFF7C8F829E0200725D4234D2348296ACC
:1047A0008A6890470428F8D0E206214900D420B94D
:1047B000086840F00100086003E00A6852085200EF
:1047C0000A601C481C4C016841F003010160202074
:1047D0002A689169884720682868816B8847012189
:1047E0002160206801E0FFF7A5FFBDE8314000F03F
:1047F0007FB910B5114CFFF793FF20601048006897
:1048000008B18047606010BD10B50E480B4C0168C0
:1048100009B1606888472068BDE81040FFF784BF91
:10482000A0370100B00F0020B80100100040034085
:104830008C210840242208402C20094050280020C8
:10484000783701007C3701001628A8BF2038704750
:104850002DE9F84F80469448DFF850920168944E55
:104860008A0705D50820B0719248C9F80000C2E057
:10487000914801680A6890478246904805682F175A
:1048800000247F1CA80208D4CAF13E00C0100828EA
:10489000C8BF08208742B8BF074689480168C1F3EE
:1048A0000460FFF7D1FF834686480168C1F30440E6
:1048B000FFF7CAFF5F44152F0146C8BF152704DC68
:1048C0006FF009008742B8BF074607F01F007E4A15
:1048D00040F4F85010807D4A106810F0030F18BFA4
:1048E0000124400748BF44F0020496F90700B8F1DC
:1048F000000F18BF44F00404AAEB0000042802DCF7
:10490000B27994425DD0AAF10F084FF0000BB8F1D4
:10491000000FDC4604F004006D4B24D408EB0818AB
:104920004FEA282CBCF1070F88BF4FF0070CE64672
:10493000BEF1070F28BF4FF0060E1A1D52F82E20A9
:1049400053F82EE0A2EB0E0E0EF0FF0B10B1CEF3DB
:1049500007229344A20744BFCEF307429344E207E1
:1049600048BF0BEB1E6B53F82C2002F0FF0310B175
:10497000C2F30720C318A00744BFC2F30740C318FF
:10498000E007A8EB0C2048BF03EB126300FB0BF021
:10499000CF1B8030002F03EB1023D8BF012734201A
:1049A00005F0FF0547437D43B5FBF3F04FF6FF717C
:1049B000884288BF08460AF3070AB08086F807A035
:1049C000B47144480168B088316000211F2804D2C6
:1049D0001F20B08004E04008491CB0F5007FFAD2E7
:1049E0000F38000941EAC0013B480143C9F80010F3
:1049F0000020C9F80400BDE8F18F10B537480468FD
:104A0000A4B21CB32C4801680A689047284991F960
:104A10000720904205DA6FF07F029042B8BF10463F
:104A2000C8718888844210D32A4A13680A689A1A7F
:104A3000921C1F2A88BF1F22241A5208D44024180F
:104A4000B4F5803F28BF4FF6FF748C8010BD24481A
:104A5000006800B9704730B522498A6802F04063A7
:104A6000B3F1406F1FD0104B1C68A5071BD44C68D6
:104A7000A50718D41C680968C1F303511C3109014A
:104A800014F0050F04D088420DD224F0050409E08B
:104A9000814208D2100158BF44F00104500158BFB0
:104AA00044F004041C6030BD00000940301009408F
:104AB00098280020FDFDA400EC010010B43F005038
:104AC000B81200503C1100506E6208402422084089
:104AD0009C1300500820094000E7A48034100940CE
:104AE00028500940AC3F0050EFF3108072B6704779
:104AF000EFF3108062B670470138FDD17047704700
:104B000010B50C18FFF7F0FF411E8941C90FDFF8FF
:104B1000602410680028FCD024680123136009B1C8
:104B2000FFF7E6FF204610BD38B5DFF84854287877
:104B30000024002802BFDFF84014887B00280CD036
:104B4000FEF7D8FE0146A878002806BF0122AA7009
:104B500001240846FEF7E0FE0CB1002032BD022021
:104B6000FFF770F80E20FFF782F8DFF810140868DE
:104B700008B1012032BDDFF808044022C2600260A3
:104B80000120C8610020687032BD00002DE9F041AD
:104B9000DFF8EC1382B000200860DFF8E81301F1C1
:104BA000D804A07A002837D00128DFF8DC53DFF8DA
:104BB000DC2332D1DFF8D81316684BF2F5204643D8
:104BC0000868360AC0F3814001280BD1A86C01683F
:104BD000884700F03AFA00F053FA3509C01045430F
:104BE00006EBE536607B10B10021617306E0DFF86B
:104BF000A403006820F07F4036187608DFF8980399
:104C00000660360C466001218160DFF86C13887BFA
:104C1000002849D00521217348E0022809D11568F0
:104C2000284600F00CF9A5F2FF55032D3CD30820CF
:104C30003BE003283AD1106801F1B806A0F5C06046
:104C40003168F061002948BF4942002848BF40420E
:104C50008142A8BF002026DA7068D04F80B2009051
:104C60000823D5F800C0DCF804804FF47F423021DF
:104C70003846C047B06880B200901223D5F800C013
:104C8000DCF804804FF4F80204213846C047B069CC
:104C900080B200900A232D686E684FF44062202194
:104CA0003846B047012020700B202073BDE8F34147
:104CB0002DE9F843DFF8CC82B94EDFF8E092B94C29
:104CC000B94FAF4808F1E105E9784A1E0B2A00F216
:104CD0009280DFE802F00630415F74415F74415F0B
:104CE0007B8031680A68202090470F20E06007230E
:104CF00041F61D5020614FF4C07202200090002147
:104D0000D6F804C0DCF804404846A0477668484618
:104D1000D6F80C9007234FF4C0720021C847012039
:104D200038600220E87008F17800BDE8F243FEF731
:104D300047BEBDE8F1830120E061287800281DBF4F
:104D40000021396103200620E87003202060002044
:104D5000786078688107E6D470684668E878032848
:104D600008D1022100910523602200214846B04766
:104D700004200BE00020009005236022002148461B
:104D8000B047E87806280CBF07200A20E870012009
:104D90007860C8E7042903D12021A161012105E041
:104DA00001220A29A2610CBF03210221697000219E
:104DB00021600821C160016001202060B9E7052958
:104DC0000CBF06200920E8700020E1E700203860D1
:104DD00078600C20A6E70021016001206749086087
:104DE0000E20FEF7E0FE0220FEF7C7FE0120E8706D
:104DF0000020A8709DE7FEE762496B4891F8E42027
:104E0000921E0A2A1AD8DFE802F0060A0E190A0EC4
:104E1000190A0E19120002689107FCD548E741688B
:104E20008A07FCD4FAE741688A07FCD5F6E70268EE
:104E30009107FCD441688A07FCD4EFE7FEE7F8B598
:104E40000446564D30212846FFF75AFE4D4F07F1D4
:104E5000B806C0F30720706004212846FFF750FE13
:104E6000C0F38440B06020212846FFF749FEC0F31C
:104E70008120B4F5C064B061346003D1002087F8AC
:104E8000D800F1BD316997F8D80028B97068B168C9
:104E9000F060F461B0697061F06900284CBF6FF098
:104EA0000102022200EB40001018421000EB927049
:104EB00001EBA0017268F260002912DC706903281E
:104EC00005D111F1150211001EDA00211CE011F1CB
:104ED0000B000100B8BF0021521E48BF0022F26043
:104EE00007E01E2912DD706928B915391E29C8BFCF
:104EF0001E21032009E00B391E29C8BF1E21521CA8
:104F00003F2AC8BF3F22F260002070613161082350
:104F10001D4CF06880B200904FF47F422768D7F8AC
:104F200004C030212846E047012000901123276863
:104F3000D7F804C04FF4003204212846E047306916
:104F400080B2009012232768D7F804C04FF4F8020B
:104F500004212846E047706980B200902846246802
:104F600065680A234FF440622021A847F1BD000084
:104F700000800C4091100020A0F3000004800C4041
:104F80002C500C40B00F0020A401001008400C4031
:104F9000B43F0050102009403C600C4000A00C4081
:104FA000A001001000400C4034600C4037480068FD
:104FB00000F018B910B5374C626D53680121032019
:104FC00098472068C16A88473349886010BD70B52A
:104FD000304C616D0A680120904701281BD0A569FB
:104FE0002B48EE68002301223421B047A0B1FFF71F
:104FF000DDFF2068C16A8847274B9A6827491C68EB
:10500000D860A4EB9404801A4843000C1860A042B6
:1050100038BF20461860012070BD38B51D4C626D48
:105020005368002103209847616D0A68012090476A
:1050300008B1FFF7BBFF2068174DC16A8847686059
:10504000206E01688847286131BD10B501461448BB
:10505000144B02681B68100400161B394843C0102B
:1050600000EB2240120601FB01F412161B066243FC
:1050700061431B1600EBA220594300EBA14010BD79
:1050800000FB00F1C0EBA15000B27047800000109F
:1050900000A00C408C0100108428002040420F002A
:1050A00090130050A4100050DFF800F079AD01100B
:1050B00010B50446034BFFF7F7FFA06800B1204688
:1050C00010BD00BFCC0D002001488068704700BFB4
:1050D000C801002038B504460D4600F040F8616A6A
:1050E0000D43656200F03CF82046BDE83240FFF712
:1050F00081B801700A0A42700A0C090E8270C170F0
:10510000001D704762F30F2262F31F4200B500BF1B
:10511000130096469446103928BFA0E80C50FAD8E0
:105120005FEA417C28BF0CC048BF40F8042BC90788
:1051300028BF20F8022B48BF00F8012B00BD0268F1
:10514000531C03601170704700E005E0EFF311801D
:10515000202181F31188704780F311887047F5E7AB
:10516000FAE70000F2E7F7E7F0E7F5E70D49C207D5
:1051700044BF01220A60820744BF4FF480720A6074
:10518000400744BF4FF4803008607047064AC307A9
:1051900048BF1160830748BF5160400748BF916016
:1051A000704700000420094018200940DFF800F093
:1051B000E1BE011070B5FFF7C7FF094D0446A868AE
:1051C0000021FFF7F3FF06466869861BA869B04215
:1051D00038BF00262046FFF7B8FF304670BD00BF3D
:1051E0007801002070B50446FFF77EFC451EAD41F6
:1051F000ED0F064E30680028FCD0A0470121316039
:105200001DB1BDE87040FFF773BC70BD00800C405D
:105210002DE9F0439FB081462698DFF8CC8A8DF8BF
:105220003B00174600201E4602910B900FF27014AF
:105230004FF0FF350AE017F8011B0298C847002815
:10524000029000F09A800B98401C0B90387850B177
:105250002528F0D1002000210590069107900891A3
:1052600009900A9103E00B989EE041F0010117F8C4
:10527000010F2028F9D023280DD02B2804D02D2869
:1052800006D030280AD07AE041F0020189B2EEE778
:1052900041F00401FAE741F00801F7E741F010019D
:1052A000F4E700200D9009E00D98404505DA00EB89
:1052B000800302EB4302303A0D927F1C3A78A2F150
:1052C00030000A28F0D33A782E2A18BF0C9523D143
:1052D00017F8010F2A2807D1306830607F1C50F87A
:1052E000042B30600C9217E02D280CBF17F8010B2F
:1052F000002000220C920AE040B90C9A424505DADF
:1053000002EB820203EB4203303B0C937F1C3B78A1
:10531000A3F130020A2AEFD3ADF8381020463978CD
:1053200000F062FE08B117F8010B8DF83A009DF805
:105330003A00682804BF3978682903D162208DF8C3
:105340003A0007E06C2804BF38786C2803D171213B
:105350008DF83A107F1C10A80490324617F8013BD4
:105360006946484600F060F838B910AA69464846D0
:1053700000F08CF900287FF569AF284614E02A2850
:105380008FD13068306050F8042B3060002A0D92C5
:1053900004D5524241F004010D9289B27F1C92E77C
:1053A000686A6C747A4C00001FB0BDE8F083622814
:1053B00020D0682811D06A2803D06C2827D0712803
:1053C00025D10868C01D20F007000860D0E900233F
:1053D00008300860194610467047002A0A680A60BB
:1053E000106803D0121D0A6000B217E0121D0A6097
:1053F00080B217E0002A0A680A60106803D0121D04
:105400000A6040B20AE0121D0A60C0B20AE0002A37
:105410000A680A60106803D0121D0A60C11770473D
:10542000121D0A600021704770B51C460D46B4F18C
:1054300025002E69114600F017811C386AD0001F24
:10544000022867D9133843D0093863D0801E16D09C
:10545000401E1ED0401E02285CD9001F19D0401FDC
:1054600000F08380401E33D0401E00F0CD80C01E6F
:1054700000F0D880801E2BD0C01E29D0FAE06869C9
:10548000421C6A610A680A6052F8043B0A6033549D
:10549000FAE095F83A000122FFF789FFC5E900011B
:1054A0000023994204DA6869411C69612D210DE0ED
:1054B000288F810704D56869411C69612B2105E0AB
:1054C000C00722D56869411C6961202131541CE064
:1054D00095F83A000022FFF76AFFC5E9000195F848
:1054E0003800010711D5D5E900230020834208BF09
:1054F00082420AD044F02000782806D16869302121
:105500003154401C411C696134542146686930445F
:10551000E86083E00868C01D20F007000860D0E95B
:10552000002308300860C5E90023D5E90001C80F51
:1055300004D06869411C69612D210DE0288F810725
:1055400004D56869411C69612B2105E0C00704D5B9
:105550006869411C69612021315468693044E86000
:105560002146284600F0C7F98EE005F13A0250784E
:1055700020B14FF0FF340FF610205EE01078622863
:1055800008D0682824D06A2812D06C282ED0712820
:105590000ED02BE00A680A6052F8040B0A6020B9AA
:1055A0004FF0FF340FF6F81047E0E96A01706BE046
:1055B0000A680A6052F8040B0A6020B94FF0FF3401
:1055C0000FF6DC1039E0EA6AD317C0E900235BE08C
:1055D0000A680A6052F8040B0A6020B94FF0FF34E1
:1055E0000FF6BC1029E0E96A01804DE00A680A6004
:1055F00052F8040B0A6020B94FF0FF340FF6A010E8
:105600001BE0E96A01603FE00A680A6052F8040B97
:105610000A600021C5E90001EE607821284600F00B
:10562000BCF831E00868086050F8044B0860EC6092
:105630003CB94FF0FF340FF6801000F0E1FC201A67
:1056400070BD2E6B002E04D5204600F0FBFC0446F6
:1056500008E032460021204600F010FD002814BF6B
:10566000041B3446AC610FE06869411C6961252167
:10567000315409E06869411C6961252232542000D7
:1056800002D0481C68617454002070BD2DE9F041BF
:105690000F4682B00646796B7869BC6A091A386A87
:1056A000091AB869091A786A091AF869091A97F87B
:1056B00038000C1B410790460FD42021002C8DF898
:1056C00000100ADD254601236A463946304600F0BF
:1056D00044FC00285DD16D1EF5D17B6942463946F8
:1056E000304600F03AFC002853D130208DF80000FD
:1056F0003D6A002D09DD01236A463946304600F037
:105700002CFC002845D16D1EF5D1BB69FA683946DD
:10571000304600F022FC00283BD130208DF80000FC
:105720007D6A002D08DD01236A463946304600F0C7
:1057300014FC70BB6D1EF6D1F868B969FB6942189C
:105740003946304600F009FC18BB30208DF80000C7
:10575000BD6A002D08DD01236A463946304600F057
:10576000FCFBB0B96D1EF6D197F8380041070DD596
:105770002021002C8DF8001008DD01236A463946EF
:10578000304600F0EAFB20B9641EF6D10020BDE8E7
:10579000F6814FF0FF30BDE8F6812DE9FC4B06465F
:1057A0008B463469BBF16F0F08BF082505D04BF05D
:1057B0002001782914BF0A2510253C27D6E90023AB
:1057C000BBF1640F18BFBBF1690F9046994606D133
:1057D00000218B4203DAD8F1000869EB4909002067
:1057E000814508BF80451FD1306BE8B9082D4ED1E7
:1057F00096F8380001074AD530203B2784F83B0053
:1058000045E000280ED596F8380000F01400102866
:1058100008D1726B7069121A306A121A511A002973
:10582000C8BF3162BDE8F38B01968DF800B04046E9
:1058300049462A46EB1700F04DFC30327F1ED2B2AB
:105840003A2A04DB9DF80000A0F151018A18E255C4
:10585000404649462A46EB1700F03CFC89460022A8
:105860008046914508BF904504D00198C168E01971
:105870008142DCD3082D019E09D196F8380001073A
:1058800005D5E15D302902D07F1E3020E055E019BA
:10589000F060C7F13C01306BB1618142B1DA411A6D
:1058A00031624FF6EF70318F01403187BDE8F38BE5
:1058B0002DE9D04306460F4614464FF00008DFF8A6
:1058C0002C9412E0E00707D542464B463046394655
:1058D00000F078FC06460F464046494642464B4695
:1058E00000F070FC641080468946002CEAD13046F6
:1058F0003946BDE8D0832DE9F04705468A468EB08B
:10590000D5E900894AF02000612802AF00900AD052
:10591000286B002802D50620286304E001BF009808
:10592000672801212963D5E9006460004015401C07
:105930000DD121030BD0AAF1610103201A29A8611E
:1059400002D20FF2906110E00FF28C610DE0600066
:105950004015401C0ED121030CD1AAF16101032096
:105960001A29A86116D30FF27861E8680322FEF7BE
:10597000A5FDCBE124F00043B3F5801F26F0000223
:1059800011D20020834208BF8242019005D13046E7
:10599000214612E00FF24461E7E701AA30462146B2
:1059A00000F0E2FC09E0D248D24900EB135001902C
:1059B00004EA0102D04930461143C5E90001009ACA
:1059C000612A0DD1E86830210170811CE960BAF1CB
:1059D000610F0CBF7821582141706869801C686193
:1059E000D5E90023CDE90C23DDE90C0121F00041CC
:1059F00000220023994204BF9042002000F04D8114
:105A00000098612840F09C80286B00284CBF212022
:105A1000401C00904046009E761C4946DDE90C89FA
:105A200000F0DAFC01988DF8082038BF89F00049B1
:105A3000001F0190002E0DF1090040F33C81074644
:105A4000404649460022002300F0DEFC80F032810F
:105A50004800400D00F11C0211D0002A0FDD40F279
:105A6000FF70824205DBA54909F000400143002098
:105A700012E06FF31E5141EA025140460CE029F05A
:105A8000004128F00000994208BF98420FBF4946E4
:105A90001C22494600F0D0FC8046894600F06AFD91
:105AA000F61F002E044609DD00F082FD02460B467B
:105AB0004046494600F08EFD80468946F81D072184
:105AC00004E004F00F0200F8012D2411002C01DD88
:105AD000491EF6D5491E5CBF002200F8012DF9D5FC
:105AE000E4E00020194602AA0A4400E05B1E12F816
:105AF0000149491E8442F9D00F2804D10DF1090053
:105B0000425C521C4254002904D50198001D02AF8A
:105B10005B1C0190581E0CD43918AAF13A040A787B
:105B20003032D2B2392AC8BFA218401E01F801296A
:105B3000F5D5286B002840F1AF80591E2963ABE0F2
:105B40004046494600F048FC019938BF89F00049B9
:105B500047F2975041436A4A91FBF2F20192D2F127
:105B6000070204DD40464946FFF7A2FE0AE0524222
:105B700000206449FFF79CFE02460B46404649461A
:105B800000F09AFD804600985F4E6628286B06BF9D
:105B9000019C0A3406242418142CC8BF1424302075
:105BA0008DF8080089460DF1090000E03846002C08
:105BB00034DD07464046494600F0A2FE01460A464B
:105BC00007F1080304200A27B2FBF7F707EB870E5B
:105BD000A2EB4E02303203F8012C0A22B7FBF2F29C
:105BE00002EB820EA7EB4E073037401E03F8027D12
:105BF000E9D1083C002C03F10807D7DD084600F086
:105C000093FE02460B464046494600F0E3FC002264
:105C1000334600F0D7FA80468946CBE70DF10901FB
:105C2000401A0DF1090704E00199491E401E019137
:105C30007F1C39783029F7D0009A662A02D1019961
:105C4000491C03E0652A0CBF012100212B6BCB18F6
:105C50009842B8BF431E002B1ED4834204DAF85C7E
:105C60003528A8BF392000DA302019467A1E02EB09
:105C7000010800E05B1E18F80199491E8145F9D022
:105C8000392802D1785C401C7854002904D5019849
:105C9000401C17465B1C0190019800B200901BB29B
:105CA0003A465146284600F034F82FE0C71D002E32
:105CB0003FF7C6AE38460DF10901401A0099034678
:105CC0008842C8BF0B46002B0DF109073FF531AFE5
:105CD0008342BFF606AF0DF10900C05C07287FF7CD
:105CE00000AF0F20FEE60000CBCCCC0C000024401F
:105CF00002FCFFFFFFFF0F800000E03F0000F07F8D
:105D0000A08601000000F03F84D797410EB0BDE8A7
:105D1000F0872DE9F046064685B01C46376B002C0F
:105D2000914602DC01240FF2BC298A46BDF93050AD
:105D30004AF02000662808BF6D1C12D0672878D171
:105D400015F1040F7BDBBD4279DA96F838006D1C43
:105D5000010702D4BC42B8BF27462DB27F1B48BF03
:105D600000272DB2F068B169002D23DC4A1C3023D6
:105D70004354002F03DC96F83800010703D5F06880
:105D80002E218154521CEF42B8BF7D422DB2684291
:105D9000ED19A542B8BF2C46B261706224B2F4611D
:105DA000F068B369224649461844FEF787FB281B72
:105DB000B062BBE02A469442084416DA22464946BD
:105DC000FEF77CFBB0692018B0612C1B002F7462B9
:105DD00003DC96F838100A0705D5F1682E220A541C
:105DE000F069401CF061B762A0E04946FEF766FB2F
:105DF000B0692818641B002F03DC96F838100A07D6
:105E000003D5F1682E220A54401CB06124B2A74287
:105E1000B8BF3C46F068B36924B2224609EB0501DD
:105E20001844FEF74BFBB0692018B0613C1B74624C
:105E30007CE0BAF1610F14D14FF0700A16E0BC4259
:105E400004DA96F838100A0758BF27467F1E48BF65
:105E50000027BAF1670F14BF4FF0450A4FF0650AEB
:105E600004E0BAF1410F08BF4FF0500AB169F3687E
:105E7000481CB061002F19F8012B5A5403DC96F826
:105E800038100A0717D5F268431CB3612E2111544C
:105E9000002F10DD641E24B2A742B8BF3C46F06854
:105EA00024B2224649461844FEF708FBB069201880
:105EB000B0613F1B7762F068B1690844002D80F83B
:105EC00000A003D42B214170811C03E02D214170DF
:105ED0006D42811C00206A460AE02B460A2493FB8F
:105EE000F4F505EB8504A3EB440302F8013B401CE9
:105EF0002DB2002DF1DC012806DC4AF02002652AD3
:105F000004BF302201F8012B48B9302001F8010B01
:105F100007E0401E1DF80020303201F8012B002858
:105F2000F7DCF068B2691044091AF16196F838009C
:105F300000F0140010280DD17169B0694118706A21
:105F40004118F0694118B06A4118706B8142BCBFBA
:105F5000411A316205B0BDE8F086F8B505460E4637
:105F600017461C46002074B117F8011BB068A847FB
:105F7000B06030B1F06A401CF0620020641EF3D1C2
:105F8000F2BD4FF0FF30F2BD7072696E74665F73E0
:105F90003A20256E20646973616C6C6F77656400CC
:105FA0007072696E74663A2062616420256E2061A9
:105FB0007267756D656E74007072696E74665F737A
:105FC0003A2062616420257320617267756D656E89
:105FD000740000006E616E004E414E00696E6600F6
:105FE000494E4600300019000278C9B28A421AB1FF
:105FF0001CBF10F8012FF9E718BF00207047FF7F82
:1060000080B508B90FF21C0005490B681BB12222AC
:106010000021984701E000F099FC222002BD000019
:10602000782D0020636F6E73747261696E742068DE
:10603000616E646C65723A20626164206D65737391
:106040006167650000F10103810704D010F8011BAE
:1060500089B18107FAD10268B2F10131914311F09F
:10606000803F04BF50F8042FF6E710F8011B11B170
:1060700010F8011BFBE7C01A70470040C9B2830744
:1060800006D0521E22D310F8013B9942F7D11FE0EF
:10609000083A13D302F1040241EA012141EA014125
:1060A00050F8043B121F21BF4B40A3F1013C2CEAE6
:1060B000030C1CF0803FF3D0C9B2001F083210F867
:1060C000013B521E28BF91EA030FF8D818BF0120E8
:1060D000401E70471B4213D1094236D12AB1844673
:1060E000B0FBF2F002FB10C2704700F033BCFCD3EF
:1060F0000022002370470B0002000021002070479F
:10610000904271EB030CF6D370B5B1FA81F4B3FA97
:1061100083F52C1BA340C4F1200532FA05F6334366
:10612000A2405FF00046E64002E05B085FEA320210
:10613000841A71EB030524BF204629467641F4D327
:1061400002000B003000002170BD012ACFD970B5CC
:10615000140C20D0B1FA81F4B2FA82F5C4F1200413
:106160006419B4F12006D6D3B2405FF00044F44085
:10617000002502E052085FEA3303C61A71EB020EF3
:1061800024BF3046714664416D41F3D302000B00D9
:106190002000290070BD0C46B1FBF2F102FB114555
:1061A0002D0445EA1045B5FBF2F402FB145580B20C
:1061B00040EA0545B5FBF2F002FB105240EA04400C
:1061C00070BD0028B0B581EA030C0CF0004C40F221
:1061D000FF7515EA11541DBF15EA1357AC42AF42C3
:1061E00039E0E41923EA455343F48013C90241F02E
:1061F000004141EA505EC7021100A7FB02020028DD
:106200004FF00000EEFB01204FF00001E3FB0721FF
:1062100018BF42F00102401800214941E3FB0E0182
:10622000A4F580640F0302D252004041494154F169
:1062300001046CDD470872F1004250F1000051EB9F
:106240000451A1F580115CBF41EA0C01B0BD4CEADC
:1062500005510020B0BD05EA1357AC4214BFAF4250
:1062600041E050EA410E1CBF52EA430E02E0614693
:106270000020B0BD24423C441BD15FEA070EF6D09B
:10628000090302BF01460020AEF1140EB1FA81F7F6
:10629000AEEB070401FA07FE0C37C7F1200100FA44
:1062A00007F7C8404EEA000E23EA455343F4801333
:1062B000A2E733F00043B3FA83F704BFB2FA82FED9
:1062C00077440B3FE41BB7F1200E2FBF02FA0EF309
:1062D000BB40C7F1200E22FA0EFE38BF43EA0E0380
:1062E000BA40641C82E750EA410E14BF52EA430EE2
:1062F0006FF000014FF4001717EB430F8ABF1946E8
:1063000017EB410FB5E74CEA05510020B0BDD4F1C1
:106310000104B4F120070FDAC4F12007520828BFA6
:1063200042F0010210FA07F501FA07F7E1BF2A432C
:10633000E0403843E1400FE0352C98DCC7F1200401
:1063400052EA400220FA07F218BF42F0010231FA85
:1063500007F0A1400A43002172F1004250F1000011
:1063600051EB0C01B0BD012810B5144600F002F845
:10637000226010BDC1F30A5343B14A0012F5001F59
:1063800028D2A3F2FE32A1EB0251704750EA410C31
:1063900020D001F0004C31EA0C01B1FA81F204BFC7
:1063A000B0FA80F3D2180B3AB2F120032CBF00FAF6
:1063B00003F1914041EA0C013EBFC2F1200C20FAEA
:1063C0000CF319439040524240F2FD33D21A01EBD4
:1063D00003517047002270474FF4001C1CEB410F23
:1063E00094BF1CEB430F09E041EA030C50EA4C0C4C
:1063F00052EA0C0C03D2994208BF9042704714BF76
:106400008B428242704703284FF4001C1CEB410F63
:1064100094BF1CEB430F09E041EA030C50EA4C0C1B
:1064200052EA0C0C03D28B4208BF8242704714BF61
:10643000994290427047052A124254D440F2FF7CA0
:106440001CEA11530FD0634531D09B1863453CBF04
:1064500001EB0251704701F0004141EA0C5100206C
:10646000AFF30080704750EA410320D001F0004CA8
:1064700091EA0C011CD0B1FA81F30B3B9A420DD981
:10648000D21A994051EA0C01C3F1200C20FA0CFCFD
:1064900061449840531C40F2FF7CD7E7914041EAA9
