:10000000504300204591000001CA011001CA0110AF
:1000100001CA011001CA011001CA011001CA011070
:1000200001CA011001CA011001CA011001CA011060
:0C00300001CA011001CA01103FCA0110F2
:100100003C0000000000000000000000340100007E
:1001100000000000000000000100000000000000DE
:1001200000000000000000000000000001000000CE
:0C013000000000000800000000000000BB
:10013C003400000000000000000000006801000016
:10014C0000000000000000000100000000000000A2
:10015C00010000000000000000000000080000008A
:04016C00000000008F
:1001700030000000000000000000000098010000B6
:10018000040000000000000001000000FFFFFFFF6E
:10019000FF00000001000000080000000000000057
:1001A0002C0000000000000000000000C40100005E
:1001B000040000000000000001000000FFFFFFFF3E
:0C01C000FFFFFFFF08000000000000002F
:1001CC0034050000E401000099A1011095A701106D
:1001DC00A5C2011009B2011045B8011000000000C1
:0801EC00000000002F000000DC
:1001F40028000000000000000000000014020000BD
:100204000000000000000000FFFFFFFF00000000EE
:080214000800000000000000DA
:10021C00300500003002000069C201106DC10110F0
:10022C001FC2011095BA0110000000000000000070
:04023C002D00000091
:10024000300500005402000075C20110A9B601106B
:100250009DBF011049B60110000000000000000021
:040260002E0000006C
:1002640024000000000000000000000080020000E4
:100274000000000000000000000000000800000072
:040284000000000076
:10028800240000000000000000000000A40200009C
:10029800000000000000000000000000080000004E
:0402A8000000000052
:1002AC00240000000000000000000000C802000054
:1002BC000000000001000000000000000800000029
:0402CC00000000002E
:1002D00000000000080800200400000000000000EA
:1002E000000000002000000070010000300000004D
:1002F0001C0200002808002004000000000000008C
:10030000000000000C000000300400001800000095
:10031000400200003008002004000000000000003F
:100320000000000024000000480400001800000045
:100330000000000070080020040000000000000021
:100340000000000010000000A00100002C000000D0
:10035000CC0100007808002004000000000000002C
:1003600000000000200000006402000024000000E3
:10037000FFFFFFFF980800200400000000000000BD
:100380000000000028000000880200002400000097
:10039000FFFFFFFFC0080020040000000000000075
:1003A00000000000580000003C0100003400000084
:1003B000FFFFFFFFC808002004000000000000004D
:1003C00000000000100000006004000018000000A1
:1003D000FFFFFFFFD0080020040000000000000025
:1003E000000000001C000000AC020000240000001F
:1003F000FFFFFFFFD80800200400000000000000FD
:100400000000000038000000F40100002800000097
:10041000FFFFFFFF40090020040000000000000073
:100420000000000054000000000100003C0000003B
:100430001800000000000000000000004004000060
:080440000800000000000000AC
:100448001800000000000000000000005804000030
:08045800080000000000000094
:100460001800000000000000000000007004000000
:0804700008000000000000007C
:08047800010000000C930000DC
:040484000100000073
:0404880000000E0062
:04048C0000000F005D
:040490003200000036
:040494000100000063
:040498001008002028
:04049C00000200005A
:0404A0000000000058
:0404A40001CA011078
:0404A8000000000050
:0404AC00000000004C
:0404B0000800000040
:0404B4000000230021
:0404B80038080020E0
:0404BC00010000003B
:0404C0008008002090
:0404C400080000002C
:0404C8000000000030
:0404CC00000000002C
:0404D0000000000028
:0404D4000000000024
:0404D8000000000020
:0404DC00010000001B
:0404E000E008002010
:0404E400060000000E
:0404E800010000000F
:0404EC00480900209B
:0404F0000000000008
:0404F4000000000004
:0404F80000020000FE
:0404FC0000000000FC
:020502002900CE
:020504000100F4
:020506002500CE
:020508002D00C4
:02050A002E00C1
:02050C002F00BE
:02050E000100EA
:0105100001E9
:0805140004000000E891000062
:08051C000000000000000000D7
:0405240000000100D2
:0405280000000300CC
:04052C0087C401106F
:04053000380500008A
:040534003805000086
:0405380000000000BF
:04053C00900000002B
:040540009000000027
:0405440000000000B3
:040548008008002007
:04054C00218A000000
:040550002000000087
:040554005C910000B6
:040558001C8F0000F4
:04055C000DC30110BA
:04056000C9200000AE
:04056400CB200000A8
:0405680099C801101D
:04056C009BC8011017
:040570000000000087
:040574003E930000B2
:040578005C8E000095
:04057C00748E000079
:04058000448E0000A5
:0205840008006D
:0205860009006A
:02058800010070
:02058A0000006F
:01058C00016D
:040590000000000067
:040594000000000063
:04059800000000005F
:04059C00000000005B
:0405A0001520000022
:0405A40035200000FE
:0405A800391F0000F7
:0405AC005F200000CC
:0405B000811F0000A7
:0405B400571F0000CD
:0405B800B31F00006D
:0405BC008B20000090
:0405C0009989000015
:0405C400E58A0000C4
:0405C800E98A0000BC
:0405CC000800000023
:0405D0002400000003
:0405D400180000000B
:0405D80028000000F7
:0405DC0020000000FB
:0405E0003C000000DB
:0405E4000C00000007
:0405E80034000000DB
:1005EC00DFF800F085C10110DFF800F049C10110FF
:1005FC00DFF800F019C20110DFF800F041AC011077
:10060C00DFF800F0CDA00110DFF800F0C1C201103E
:10061C00DFF800F0E3BF0110DFF800F0CDC10110EE
:10062C00DFF800F0C1C10110DFF800F03DC101108E
:10063C00DFF800F0DDB20110DFF800F085B001103A
:10064C00DFF800F029AF0110DFF800F079B50110E8
:10065C00DFF800F009B70110DFF800F0D5C0011089
:10066C00DFF800F0E1B5011080B5002804D00823B4
:10067C0028220021FFF7D0FF01BD704780B500286C
:10068C0004D0082324220021FFF7AAFF01BD7047E4
:10069C0080B5002804D0082324220021FFF7C0FFD6
:1006AC0001BD704780B5002804D0082330220021FA
:1006BC00FFF7BAFF01BD704740F2FF70DFF8D81C9E
:1006CC00086070470020DFF8D01C08607047006895
:1006DC00704738B50400FFF787FF2568002D01D05F
:1006EC0029682160FFF784FF280032BD70B5040033
:1006FC000D00266800202860002E03D1FFF774FF40
:10070C0025600DE0FFF770FF00E0366831680029C6
:10071C00FBD1AE4203D1FFF76BFF002003E0356045
:10072C00FFF766FF012070BD002000E0401CC0B246
:10073C0008280DDADFF8781DC0B242011144C97FD8
:10074C000906F3D4DFF8681DC0B24001084400E08C
:10075C0000207047002100E0491CC9B2082918DAB2
:10076C00DFF84C2DC9B24B011A44D27F1206F3D5D7
:10077C00DFF83C2DC9B24B011A44B2F91C2003001E
:10078C001BB29A42E8D1DFF8280DC9B249010844DE
:10079C0000E00020704738B50500FFF725FF040086
:1007AC00DFF86C0B0078002832D0DFF8640B00788F
:1007BC00401EDFF85C1B0870DFF8540B0078002833
:1007CC0026D1DFF8500BFFF758FF082101F06BFB27
:1007DC00002D1DD0DFF8400B00687030FFF757FF7D
:1007EC0001F037FBDFF89C0DFFF751FFDFF8281BFA
:1007FC000968C968691ADFF8242B1268B1FBF2F199
:10080C00FFF702FFDFF87C0DFFF741FFFFF700FF5A
:10081C002000FFF7EDFE31BD10B50400207B10F079
:10082C000F0002281ED1DFF8740B0078002819D1B4
:10083C0000F0B8FEA1688908B1EB90007FF0704120
:10084C00884201DB00200EE0B0F1704F02DADFF8D5
:10085C00501B0818DFF8C01A0968C96811F57A71BD
:10086C00814200DB002010BD10B52022816801E020
:10087C004968521E002913D0D2B2002A10D00B881E
:10088C0040F60304A34204D00B8840F60404A342B0
:10089C00EED11822C06810F12004200001F012FCE7
:1008AC0010BD38B5DFF8FC4ADFF8FC0A0068DFF849
:1008BC00FC1A11EA0005E843DFF8EC1A0860A806F8
:1008CC000CD5DFF8EC0A0068800607D5DFF8440A7F
:1008DC00FFF7D3FE4FF4005101F0E5FA15F4602F49
:1008EC000BD0A06915F460210843A061DFF8A80CB7
:1008FC00FFF7C3FE002101F0D6FA31BD70B5DFF869
:10090C00A44AFFF771FE0600A06910F4602F2DD0E9
:10091C00A069450CE80701D5002506E0A80701D51C
:10092C00012502E0680700D50225681D40B201F0E0
:10093C00B3F9A069012115F1110291408843A0611E
:10094C003000FFF755FEEDB204EB850080680028FF
:10095C000FD000225FF00063EDB2691D09B2606830
:10096C00EDB204EB8505AD68A84702E03000FFF757
:10097C003FFEA069002806D0DFF81C0CFFF77DFEB7
:10098C00002101F090FAE07F80070ED56069002805
:10099C0007D000225FF000437FF0010160686569B9
:1009AC00A847E07F10F0FD00E07770BD38B501F08E
:1009BC00C5FB0400A00730D5DFF8400C4568002DBE
:1009CC002BD00020DFF8341C4860AA69D5E904015B
:1009DC00204050F002001043A861DFF8D80A0268EA
:1009EC00D5E9040132EA0000DFF8C81A0860DFF824
:1009FC00C0090268D5E9040132EA0100DFF8B01938
:100A0C0008602900DFF8B00AFFF770FEDFF8040970
:100A1C00FFF733FE022101F046FADFF8E00B4568E0
:100A2C00A00714D4D5E90401044210D0DFF8CC0B94
:100A3C008560AA69D5E9040120401043A861DFF85C
:100A4C00D408FFF71AFE4FF4804101F02CFADFF8BE
:100A5C00AC0B406800284AD1DFF8A00BFFF737FE3B
:100A6C000500002D43D0E868DFF8AC18096888420F
:100A7C0008D0DFF8A008FFF700FE4FF4805101F01A
:100A8C0012FA34E0A868FFF7C7FEDFF8FC1A08601A
:100A9C00002805D0DFF8F00A0068FFF77CFE26E09E
:100AAC00DFF8100A0268D5E904011043DFF8041AD4
:100ABC000860DFF8FC080268D5E9040151EA02007D
:100ACC00DFF8EC1808600020DFF8C01A0860A8688E
:100ADC00DFF8BC1A0860DFF8B40A00680028FAD006
:100AEC00DFF8180BFFF7F5FDDFF8100B456031BD93
:100AFC0080B50020FFF74FFE01BDF8B506001400CD
:100B0C001D00306E002805D022002B0009B23000E9
:100B1C00376EB8472000800709D4D6E9160120406B
:100B2C00294000220023994201D1904207D0C6E906
:100B3C001A4516F13800FFF7B4FDFFF75DFDF1BD66
:100B4C00FEE780B5DFF84C2A1268904701BDDFF84C
:100B5C00441A0860704780B501F095F90100DFF880
:100B6C00B8070068FFF7EDFF01BD80B5DFF8240A78
:100B7C0000680FF2C901884204D101F03BFBDFF899
:100B8C001C1A0860DFF88C07FFF777FD042101F0D1
:100B9C008AF901BD80B501F0D1FADFF8041A0842D8
:100BAC0007D0DFF87007FFF768FD5FF0005101F028
:100BBC007AF901BD80B5DFF86007006840684068CD
:100BCC00002805D0DFF8500700684068406880476F
:100BDC00DFF84407006840688068002806D1DFF819
:100BEC00380700684068C068002826D0DFF89C09E8
:100BFC0000680028FAD00020DFF890190860DFF8B0
:100C0C001807006840688068002805D0DFF80807DE
:100C1C000068406880688047DFF8FC060068406820
:100C2C00C068002805D0DFF8F00600684068C0688E
:100C3C008047DFF8C40C01F089FA01BD10B5042916
:100C4C0077D1DFF86047DFF8B409FFF740FD0028E3
:100C5C0004D0C068DFF8C016086006E0E07FC0076B
:100C6C0003D56068DFF8B0160860DFF8AC060068E2
:100C7C0040680078DFF888190860DFF8840900689C
:100C8C00DFF89416096849680978884212D0DFF8B1
:100C9C0088060068806900280CD0DFF87C060068A4
:100CAC00846900225FF000737FF0FF01DFF86806B3
:100CBC000068A047022001F0E1FB112001F0F3FBDA
:100CCC000120DFF840190870DFF84C060068007C42
:100CDC00DFF834190978084202D10E2001F0E3FB49
:100CEC00DFF83406006840688068002806D1DFF819
:100CFC00280600684068C068002808D00020DFF88B
:100D0C008C180860DFF80409DFF884180860FFF716
:100D1C00D3FC0020DFF8F8180860DFF88408DFF84F
:100D2C00941708600FF20D00FFF711FF1920FFF761
:100D3C007FFC10BD30B585B00400880040F19A806E
:100D4C000020FFF737FF0020DFF840180860DFF8BD
:100D5C00C408DFF83C180860012001F03FFA0FF2DC
:100D6C006910FFF7F4FE40F60A00DFF8AC180880B3
:100D7C000020DFF8A4184880DFF89C08007B10F0F6
:100D8C00F000DFF8941808730020DFF88C18486026
:100D9C00DFF88408407B10F0F00050F00100DFF821
:100DAC0078184873A5680020688000E06D68686852
:100DBC00002805D06868008840F60A018842F5D101
:100DCC00DFF854086860687B10F0F0006873DFF897
:100DDC002C08FFF77CFC8068018840F603029142E6
:100DEC0022D0008840F6040188421DD0208C0028B7
:100DFC001AD014F120000021418000214160017BB8
:100E0C0011F0F0010173417B11F0F00151F001017F
:100E1C004173DFF804184860DFF8FC07407B10F0E2
:100E2C00F000DFF8F41748736946A06801F0B6F9D2
:100E3C00684601F0C2F9A06801F0BEF9DFF84C0772
:100E4C0000680028FAD00020DFF840170860012065
:100E5C0001F0DCFD012809D0687B10F0F00050F0A7
:100E6C00010068730FF21100FFF771FEA068DFF844
:100E7C002017086005B030BD80B5DFF8380A014294
:100E8C0020D0012001F0C2FD012809D10FF2390058
:100E9C00FFF75DFEDFF88007DFF8F416086011E05D
:100EAC00DFF8E006FFF7F3FB3221DFF8702412685D
:100EBC00B1FBF2F1FFF7A8FBDFF8C806FFF7E7FB81
:100ECC00FFF7A6FB01BD0000FEB506000C00DFF825
:100EDC00D45460041FD5FFF787FB0700DFF81C0A0A
:100EEC00FFF7F5FB0600B5693800FFF781FBA80793
:100EFC000ED4002E0CD0B069A843B06170680028E5
:100F0C0006D02A000023B6F91C10F0687568A847B3
:100F1C0034F48044F1E1A00740F18E80DFF89805AD
:100F2C00FFF7D5FB0600002E79D03000FFF79CFCB4
:100F3C00B0690021B161716800291ED050F0020225
:100F4C000023F07F10F00700C0B2012804D0022863
:100F5C0006D0042808D00BE000225FF0005307E015
:100F6C0000225FF0804303E000225FF08053FFE734
:100F7C00B6F91C10F0687568A847FFF735FB05003B
:100F8C00DFF87806408A401C0005000DDFF86C166F
:100F9C004882DFF86806C068C17F11F07F01C17715
:100FAC00DFF81405FFF795FB2800FFF721FBDFF8AE
:100FBC004C06B0F91200F168B1F9941000B28842F5
:100FCC002DD1DFF8D8030078002828D1F06890F8EC
:100FDC009600002803D1F0680068002807D1002093
:100FEC00F16881F896000020FFF7D5FB17E0CA489E
:100FFC000068006810F1010F11D0F0687030FFF735
:10100C0046FBF1680968C54A1268B1FBF2F1FFF7BB
:10101C00FBFAF0687030FFF73AFBFFF7F9FA34F09F
:10102C000204DFF89404FFF752FB0600002E00F0D8
:10103C00648154F0020460E1A00040F18C80DFF880
:10104C005C050068002833D0042001F0DFFC002888
:10105C002ED001F0CFF8DFF8A8180860DFF83C05B7
:10106C000068DFF89C180968884209D2DFF89008FC
:10107C000068DFF828150968401A000BF06009E0D9
:10108C00DFF87C080068401EDFF810150968401A6C
:10109C00000BF060F06810F58D70F060F068A0F255
:1010AC00EE2040F2D761884202D340F6C410F060C3
:1010BC000020DFF8E8140860B069002813D0DFF8CE
:1010CC005805407B10F00F0000280CD1708C40F6B6
:1010DC000901884207D1B76900225FF000737FF4E1
:1010EC0080713000B847DFF81C08FFF7E4FA0022E3
:1010FC00DFF8141800F0EAFEDFF81008007800287A
:10110C000CD00220ADF80000684601F01FF8BDF8C5
:10111C000800A8830020DFF8F41708700120DFF81E
:10112C00F01708707A480078401C79490870002044
:10113C00DFF8D0140870192000F0CBFE706900287D
:10114C0006D0756900225FF0806300213000A8474B
:10115C0034F00054D1E0DFF8BC070078002808D048
:10116C00200706D50020DFF8AC17087034F008040F
:10117C00C3E0200740F1AC800020DFF89417087022
:10118C000120DFF894170870002001F027F80FF207
:10119C009110FFF7DCFCDFF86C07FFF78CFA0022EC
:1011AC00DFF89C1900F092FEDFF85C040078DFF8A1
:1011BC005C17097891F00101084227D10120DFF872
:1011CC004814087040F60900DFF84C140880DFF86A
:1011DC004804407B10F0F00050F00100DFF83814A8
:1011EC0048730020DFF830144880DFF82C04007BB3
:1011FC0010F0F000DFF8201408730020DFF818144A
:10120C004860DFF81404E24908605EE0DE480068DC
:10121C00002852D000F0EEFFDFF890190860DFF8DC
:10122C008C090068DFF874130968401A000BDFF8AA
:10123C007C190860DFF894090068DFF870190968F8
:10124C000818DFF888190860DFF880090068CE49B3
:10125C000968B0EBC11F08D2DFF88C0AFFF70DFA52
:10126C005FF0005100F01FFE2FE00020DFF85C194A
:10127C00086040F60900DFF8A0130880DFF8980337
:10128C00407B10F0F00050F00100DFF88C13487335
:10129C000020DFF884134880DFF87C03007B10F01B
:1012AC00F000DFF8741308730020DFF86C1348604B
:1012BC00DFF86403B649086007E0DFF82C0AFFF793
:1012CC00DCF95FF0005100F0EEFD34F0080414E09E
:1012DC00A00412D5DFF83C09FFF7F9F90600002E3F
:1012EC0009D07068002806D000222023B6F91C1003
:1012FC00F0687568A84734F40054002C06D0DFF869
:10130C00E809FFF7BAF9210000F0CDFDF7BD0000A8
:10131C00FE1E00208C180020701800200493000082
:10132C0010B50400880036D500F01DFFDFF8400929
:10133C00FFF70DFCDFF83C090078002805D114F10B
:10134C003800FFF7AEF9FFF757F9FFF7BBF90220AA
:10135C0001F02AF8112001F03BF8207C002802D182
:10136C000E2001F035F80020DFF8AC1508700020D5
:10137C00DFF81C190870DFF81C09007800280AD067
:10138C000020DFF810190870DFF85C09FFF775F919
:10139C00042100F088FD10BD00000460FA1E00203E
:1013AC00F6FFFF1F501800200810044020000E000C
:1013BC000C10044000B58DB000F077FFDFF82C095D
:1013CC00006850F00200DFF82419086001A8FFF74C
:1013DC004BF9DFF81C0980780790002301AADFF88D
:1013EC001419DFF80409FFF727F901A8FFF75AF9D8
:1013FC000020ADF81C00DFF8F808007809900020F8
:10140C00009001ABDFF838271921DFF8F804FFF75B
:10141C0017F901A8FFF728F9DFF8D408C07807906E
:10142C00002301AADFF8D0185B48FFF705F901A8E3
:10143C00FFF738F90120ADF81C00DFF8B40840784C
:10144C0009900020009001ABDFF8B0281A21DFF8DA
:10145C00B008FFF7F5F800230022DFF8A818494878
:10146C00FFF7F2F8DFF80808FFF771FBDFF89808D0
:10147C004FF6FF7181830121DFF890241170002158
:10148C00C17700206049087000205E490870002078
:10149C00DFF8841408700020DFF8F41708700020BF
:1014AC00DFF87014087000203C4908600DB000BDD6
:1014BC00080B00201410044084180020F0B58FB0E5
:1014CC0004000E0017001D00DFF8A80700780028A4
:1014DC0005D1FFF76FFF0120DFF898170870002E79
:1014EC0048D06660002F47D0A760FFF77DF8DFF883
:1014FC0020180978002941D1DFF814180978491C03
:10150C00DFF80C281170FFF773F8002D03D109A830
:10151C0000F018FB09AD286820606868E060287A44
:10152C002074E86860612869002801D02869A061EE
:10153C007821002214F12005280001F01DFB6846DB
:10154C00FFF7A6F801208DF818006A46002114F167
:10155C003800FFF77DF86846FFF790F806946B4665
:10156C000022DFF8B01714F17000FFF76DF82000BF
:10157C000FB0F0BD0020FBE70020F9E7FFF738F8CB
:10158C000020F5E72C190020741900201C100440D1
:10159C000010044074180020DC180020641900208E
:1015AC000200004038B5FFF71FF8DFF86413097824
:1015BC00002906D0DFF868170C68FFF719F820002F
:1015CC001AE0FFF715F800F015FE10F5003051F198
:1015DC000001DFF85047002502000B00A4FB0201BC
:1015EC0004FB031105FB02110B4A126900231300C3
:1015FC00002280185941080032BD000078180020E4
:10160C00D0210840021F0020001F002051000706B7
:10161C001810044001010E04501900202DE9F04768
:10162C0006000F0090469946FEF7DEFF0500DFF836
:10163C00F806B0F9100000B2DFF8EC16B1F9121090
:10164C00401A0005000D082849DADFF8DC06008A8C
:10165C00401C0005000DDFF8D0160882DFF8C80624
:10166C00B0F91040200000B2FFF75EF8824616F188
:10167C007000FFF70CF800F0ECFBCAF808708AF861
:10168C001E80CAF80490AAF81C40CAF80C60DDE968
:10169C000801DFF89826202310401940CAE90401FC
:1016AC0000208AF81F00DFF88006006800282AD086
:1016BC005146DFF87406FFF719F8002815D1DFF84A
:1016CC006806008A00F6FF700005000DDFF858165A
:1016DC0008822800FEF78CFF7FF00100A3E02800B1
:1016EC00FEF786FF7FF001009DE0A6F894409AF883
:1016FC001F0050F080008AF81F002800FEF778FFCA
:10170C00200000B28FE05146DFF81C06FEF7EEFF1A
:10171C0000280FD1DFF81006008A00F6FF700005D4
:10172C00000DDFF8041608822800FEF761FF7FF039
:10173C00010078E0A6F894409AF81F0050F0800061
:10174C008AF81F00002086F89600DFF84405007820
:10175C006F490978084210D001206E4908700020AA
:10176C00DFF82C150870002068490870DFF8C005F8
:10177C000078401CDFF8B81508702800FEF738FF19
:10178C00DFF8A405406800284BD161480078002898
:10179C0003D0192000F09DFB43E0DFF8980500789A
:1017AC0000283ED1FEF720FF05005B48007800289A
:1017BC0007D00120DFF8DC1408702800FEF718FFB2
:1017CC002FE0DAF80800FFF727F8DFF86C1508604F
:1017DC0000281CD0DFF860050668DFF83005FEF73E
:1017EC0056FFDFF834150968C968711ADFF84C2503
:1017FC001268B1FBF2F1FEF707FFDFF81005FEF7F8
:10180C0046FFFEF705FF2800FEF7F2FE09E0280070
:10181C00FEF7EEFEDFF8D004FEF72FFF042100F0F8
:10182C0042FB200000B2BDE8F0872DE9F041060034
:10183C00884614001D00FEF70FFF0700404600B25B
:10184C00FEF788FF8046B8F1000F05D13800FEF78F
:10185C0007FF022000212BE098F81F000721084207
:10186C000AD03800FEF7FCFE98F81F00072108424A
:10187C00FAD1022000211BE0D8F80400DFF8C014D4
:10188C00884206D0D8F804003066DFF8B404C8F8F3
:10189C000400C6E916453800FEF7E2FE16F13800E2
:1018AC00FEF7FFFE5FF0FF31FEF7AAFED6E91A0144
:1018BC00BDE8F08104000020DCB50400180000280D
:1018CC0001D1DFF87C34DDE90667CDE90067D2B2DF
:1018DC002000FFF7A3FE00B2002803D500205FF024
:1018EC00004107E002225FF0E043010009B2200052
:1018FC00FFF79BFFDCBD00000100070680180020ED
:10190C0068190020C0180020B9090000011F002030
:10191C00FB1E0020051F0020031F002080B5D2B243
:10192C0009B200F009F802BD80B552F00202D2B241
:10193C0009B200F001F802BD2DE9F8438946140004
:10194C00DFF8E403FEF7C3FE0090DFF8BC8314F06D
:10195C0001070326FEF748FE05000FFA89F919F175
:10196C00010F12D1DFF8C0034068002805D0DFF862
:10197C00B8034068B0F91C9004E0DFF8AC03408A6F
:10198C0010F10109002088F81F00484600B2FEF74C
:10199C00E1FE00283CD0DFF890134968884237D12B
:1019AC00A10707D5DFF88013096800910021DFF843
:1019BC0078231160C17F0122BA401143C177FEF731
:1019CC004BFE0600FFB2002F02D0DFF8780301E0D7
:1019DC00DFF8740300F0BAFB2800FEF709FEA0073D
:1019EC000ED410E00098C07F50F004000099C87726
:1019FC006846FEF76EFE0100DFF85003FEF776FE38
:101A0C0000980028EED13000FEF72AFE832692E0E3
:101A1C00002800F08D80009981422ED1DFF8EC0275
:101A2C00FEF735FE00F015FAA00704D50020DFF80C
:101A3C00F812086006E0DFF8F00200680068DFF8D2
:101A4C00E81208602800FEF7D3FD0098C07F50F024
:101A5C0004000099C8776846FEF73BFE0100DFF8EA
:101A6C00EC02FEF743FE0098002801D0A007ECD44E
:101A7C00832639E0009909680091009900292DD03E
:101A8C00009909688142F5D1A048FEF700FE00F0EC
:101A9C00E0F900980068A10704D50021009A1160B4
:101AAC00009014E00168009A116000210160009020
:101ABC000DE00098C07F50F004000099C87768468C
:101ACC00FEF707FE0100DFF88402FEF70FFE009818
:101ADC000028EED12800FEF78BFD8326F6B2832E6C
:101AEC0002D02800FEF784FDDFF8480200780028B9
:101AFC0006D07D48FEF7C1FD022100F0D4F91AE0B2
:101B0C00DFF84C020078002815D1DFF84802FFF707
:101B1C001EF87548FEF7B1FD022100F0C4F9DFF89C
:101B2C0038020078002806D15148FFF710F802E07F
:101B3C002800FEF75DFD3000C0B2BDE8F283000066
:101B4C00A10B000080B5DFF81412142200F0CAFAC1
:101B5C0001BD38B50400FEF747FD0500DFF8F801BC
:101B6C00007800280ED0200000F0F0FA04002800C5
:101B7C00FEF73EFD04F0FF00012801D1812005E0B5
:101B8C00022003E02800FEF733FD012032BD80B5B2
:101B9C000A00DFF884110968884201D0032003E0B1
:101BAC0000211000FFF7D5FF02BD00006C190020CA
:101BBC0080B50A00DFF860110968884201D0032063
:101BCC0003E000211000FFF7C4FF02BD70190020D4
:101BDC0038B551490968884204D1DFF87C01007896
:101BEC00002802D17FF07F0013E0FEF7FDFC04001B
:101BFC00DFF86C0100F0AAFA05002000FEF7F8FCF3
:101C0C0005F0FF00012802D1280C40B201E07FF062
:101C1C007F0032BD7C18002070B50E0015008324A7
:101C2C00FEF7E2FCF6B2002E03D0022E16D00BD338
:101C3C0018E03D494968002904D03B494968898B23
:101C4C00298000E080240EE046490978002903D160
:101C5C002D49898B298000E0802404E03E490978D5
:101C6C00297000E00324FEF7C3FC2000C0B270BD55
:101C7C00490C0000FC1E002080B5080000B2FEF7E5
:101C8C0069FD002801D0806800E0002002BD000042
:101C9C00041F0020FF1E002038B504001A4DFEF76B
:101CAC00A3FCE97F490706D5210049B2AA7F09B2F6
:101CBC0012B2914214D0A98B0122A2401143A983E4
:101CCC0029490968012214F10C039A409143264AD0
:101CDC00116025490968002902D100210F4A1170B1
:101CEC00FEF786FC31BD00008C1800200020094056
:101CFC0014930000630B000009090000AF080000FA
:101D0C0010190020770B0000501800202C1900200F
:101D1C00FD1E0020FD0A000070180020FA1E002095
:101D2C000430044000093D0078180020F1EFFF9FBB
:101D3C00FE1E0020021F00207419002004930000D6
:101D4C00070B0000010002040100010484180020AC
:101D5C00031F0020D50E0000FB1E002098910000F0
:101D6C0001000304011F00200C100440DFF800F0F8
:101D7C0021B30110DFF800F095C00110DFF800F07E
:101D8C000DA80110DFF800F0BDBE0110FEE7DFF872
:101D9C000001007D70476DE038B5FFF7FCFFDFF800
:101DAC00F8500446A8680021FFF7E4FF6969081A97
:101DBC00A969814238BF002084F3118832BD2DE916
:101DCC00F041FFF7E8FFDFF8D0500446A868012186
:101DDC00FFF7D0FF0121A9830021E9836E692968EF
:101DEC002A68871B801A711A884204D20020A883A3
:101DFC0084F311882BE084F31188002406E0A619E3
:101E0C0031460120FFF7BAFF3F1B0446A742F6D22A
:101E1C00FFF7C1FF8046E88B012804D13146002032
:101E2C00FFF7ACFF0446A96914F1010F08BF08467F
:101E3C0003D0E01B814238BF08468119FFF7A2FF8F
:101E4C00012028840020A8832E6088F31188BDE827
:101E5C00F08100218182DFF83C10C068496988421A
:101E6C0004D1DFF85C000068FEF7D2BB7047808AB3
:101E7C0070477047DFF84C100968EFF3118081F35D
:101E8C0011887047F6E7DFF8400080687047000063
:101E9C00A40100207801002078010020616280F309
:101EAC0011882046704738B504460D46FFF7EAFF07
:101EBC00616A2943FFF7F2FFBDE83240FFF756BFD6
:101ECC000893000000930000C8010020816042606C
:101EDC007047102804D3DFF80C101038C1F8000F2D
:101EEC007047000000E000E000F07ABEFFF7C2BFD0
:101EFC00DFF89811C20744BF01220A60820744BF71
:101F0C004FF480720A60400744BF4FF48030086081
:101F1C007047DFF87C21C30748BF1160830748BFB7
:101F2C005160400748BF91607047000010B50446EF
:101F3C000020D4E90A2347F6906101F04BF9012304
:101F4C00994228BF4FF0FF3010BD10B50C4600F081
:101F5C0047F9011D201AB0F1004F05D8081BB0F14C
:101F6C00004F38BF8C4200D20C462146BDE81040D1
:101F7C000120CEE72DE9F04180460A46D8E90A0156
:101F8C00D8E90C45A0FB026701FB0277A6196F414B
:101F9C00340C002244EA07414046FFF7D6FFC8E95B
:101FAC000E67BDE8F081F8B50646FFF79FFF0446C3
:101FBC00DFF8E050DFF8E0700120E861FFF798FFF0
:101FCC00F96A096A142088473069B0F5802F34BF4C
:101FDC000421010C0120FFF79CFF3A6812682321B1
:101FEC0000209047DFF8B41001200860DFF8B4003F
:101FFC00016821F4E02141F4803101600120286066
:10200C0084F31188F1BD000000F0F4B810B5DFF8CE
:10201C009000446800F006F86069A169BDE81040C2
:10202C0008470000012063E7F8B504460D4600F0B0
:10203C00E1F8D4E90A6732463B4601F0CBF83DB1F2
:10204C00A6FB002306FB013307FB0033C4E90C237A
:10205C00F2BD10B5DFF83C00DFF84C400021016008
:10206C000121C16121602068FFF7DCFFDFF8481017
:10207C000968096A14208847206810BD000080B5E3
:10208C0000F0B8F8000C40EA014002BD0420094001
:10209C0018200940000024438401001080022443CE
:1020AC00E4010020002009402C200940DFF810003A
:1020BC00C088704700000000B0010010FEE77047B8
:1020CC00F001002062B38B0708D0521E11F8013BBF
:1020DC0000F8013B00F024808B07F6D1830740F019
:1020EC00208000BF103A07D330B4B1E83810103A52
:1020FC00A0E83810F9D230BC530724BFB1E808105F
:10210C00A0E8081044BF51F8043B40F8043BD20748
:10211C0024BF31F8022B20F8022B44BF0B7803703C
:10212C007047083A07D3B1E80810083A40F8043B66
:10213C0040F804CBF7D25307E4E70A1821490868A2
:10214C00C2430A600A680242FAD170471E490A6803
:10215C00002AFCD1CA610860C8690028FCD00020A4
:10216C00C86148687047194801686FF00202114055
:10217C0041F40071016003211548816041F2300186
:10218C0041610121C160502141610121C1604FF4C5
:10219C00CA6141610121C160016070470D4802684C
:1021AC000A6082684A60C2688A60406B20F078409E
:1021BC0040F08050C86070477047014610220648B6
:1021CC00FFF780BF101004400010044000000460B2
:1021DC00004104404C130050180000217047232A82
:1021EC0009480168426803689942FAD1100C40EA28
:1021FC000140704710B5044A136850681468A34234
:10220C001946F9D110BD000008200940DFF800F094
:10221C00F5C00110DFF800F049BA011020B1082315
:10222C0024220021FEF7DCB9704780B50120009014
:10223C0009234FF400720021DFF8F00601F087F853
:10224C0001BD80B5002301223421DFF8E00601F046
:10225C0091F800B10120C0B202BDDFF8D40680684D
:10226C007047DFF8CC16401890F8ED00704700224C
:10227C00022904D1012806D140F2EE2203E0012804
:10228C0008BF4FF47A7210467047DFF8A406D0F8F6
:10229C00DC007047DFF8980690F8E61021B1D0F812
:1022AC000C01010018BF004770472DE9F041DFF821
:1022BC00808608F1E1058AB0A879002861D1012057
:1022CC00A871DFF87066DFF87076307B6871706823
:1022DC00C8F80C0101A8FFF7A1FF00200690ADF88B
:1022EC001400079001AB00220FF2DD4108F10C0045
:1022FC00FEF7AAF901AB00220FF2895108F1300068
:10230C00FEF7A2F901AB00220FF2C14108F1540013
:10231C00FEF79AF9B16801208847DFF820060078AB
:10232C007868C0F38154707B20B1032C02D101205A
:10233C00287003E0032C18BF022C16D1022000F0E9
:10234C009DF8032CDFF8F8150CBF4FF47A7042F2AD
:10235C0010700968B0FBF1F108F15400FEF754F964
:10236C0008F15400FEF754F905E0012C03D100F0FC
:10237C0057FAFFF75AFF386840075CBF002000F09F
:10238C007DF80AB0BDE8F08110B508B1140001D198
:10239C00022010BD8160C26003610146DFF8900528
:1023AC0001F002F8002010BD10B50446FEF71CF930
:1023BC00DFF87C15621892F8E8305B1E82F8E83082
:1023CC00DBB223B98A680123A3409A438A6066E092
:1023DC002DE9F0410546FEF707F98046DFF8501568
:1023EC00681890F8ED20521E80F8ED20D2B2002A29
:1023FC003FD10FF28850DFF84C4500EB85052E7865
:10240C006F88300615D52168096A384688472168D7
:10241C00896A384688472168096B38468847DFF84F
:10242C00281501200860DFF8240500688007FAD51C
:10243C0012E0700606D501EB87010020D1F80011DF
:10244C00884709E021688969384688472168496BC3
:10245C00384688470228F9D106F03F003F2818BFBC
:10246C00FFF7B6FF687800F03F003F2818BFFFF772
:10247C00AFFF4046BDE8F041FEF7BAB810B50446D0
:10248C00FEF7B2F8DFF8A8148A680123A3401A43B8
:10249C008A60611891F8E820521C81F8E820BDE8A8
:1024AC001040FEF7A5B8F8B50646FEF79DF80446B1
:1024BC00DFF87C54701990F8ED104A1C002980F854
:1024CC00ED2039D10FF2B44000EB8607387800F0DC
:1024DC003F003F2818BFFFF7E6FF787800F03F0079
:1024EC003F2818BFFFF7DFFF7E883878DFF8547479
:1024FC0001060ED53968C969304688473968496A7A
:10250C00304688473968C96A3046884700F019F860
:10251C0012E0400606D505EB86010120D1F800112A
:10252C00884709E039684969304688473968496BFA
:10253C00304688470128F9D12046BDE8F240FEF725
:10254C0057B8DFF8041401200860DFF800040068B5
:10255C008007FAD570472DE9F04F002483B04FF077
:10256C00000A0128D04618BF012664D1DFF8C093B9
:10257C00D9F8DC0001285DD10220C9F8DC00FFF796
:10258C0045FE0090012000F056F9060054D1FEF7EC
:10259C0063F8DFF8C01301900C60012000F036FAEC
:1025AC00012804D1002000F09BF94FF0010ADFF85C
:1025BC00A813DFF89C030C6000681120FFF751FE94
:1025CC0008B14FF001081020FFF74BFE08B148F09E
:1025DC0002080F20FFF745FE08B148F004080B2055
:1025EC00FFF73FFEDFF85C6320B13168096B4FF4F5
:1025FC00806088470A20FFF734FE20B13168096BF0
:10260C004FF481608847DFF84013DFF85073DFF830
:10261C0050B30120086048F0200031688969884770
:10262C00DFF840130120086099F80800C00707D5AF
:10263C00012416E0042673E00120C9F8DC006CE0EC
:10264C00584600F0C5FE0546042DF9D0012D04D1E5
:10265C00326A5268032158469047386880088000D7
:10266C003860002000F0BCFEB94800683068806B10
:10267C00804754B9012D04D1326A52680121584661
:10268C009047386840F0030038600120B249086078
:10269C0040463168496988470B20FFF7E2FD20B1BD
:1026AC003168C96A4FF4806088470A20FFF7D9FD6A
:1026BC0020B13168C96A4FF481608847A249012072
:1026CC0008600020A74908600320C9F8DC003168C5
:1026DC00496B404688470128F9D1042000F0ABF83B
:1026EC009C49012008609A4800689F480068800651
:1026FC00FBD5BAF1000F1CBF012000F0F1F800F07F
:10270C00BBFF082000F097F806460120C9F8DC0052
:10271C000198FDF7A5FF00F033FF0098FFF77AFD55
:10272C003046BDE8FE8F30B5002401288BB004D0B4
:10273C0021D303281DD018D31DE001A8FFF76EFD8F
:10274C007B4D8A490694ADF81440079401AB0122E5
:10275C0005F17800FDF778FF00940023844A2C21C2
:10276C0005F19C00FDF76CFF05E000F0A1FF0446AD
:10277C0001E001F043F820460BB030BD00F053B936
:10278C0038B5FDF731FF0546694890F8E0000124A3
:10279C0010B1FFF756FD04462846FDF729FF2046E9
:1027AC0032BD38B5FDF720FF614D044695F8E000C9
:1027BC0020B100F07FF9002085F8E0002046BDE84C
:1027CC003240FDF715BF00007047000010B582B015
:1027DC00042000F01BF9022818BF032807D100F0D1
:1027EC001FF8FFF722FDBDE816400220DCE561482A
:1027FC00534900684E4CC0F3815003280CBF4FF472
:10280C007A7041F288300968B0FBF1F104F15400A0
:10281C00FDF7FAFE04F15400BDE81640FDF7F8BED2
:10282C00032000901C234FF0405200213F4800F041
:10283C008EBD0020704770B504463D4E304600F00A
:10284C00A9FD002598B9304600F0AAFD0646B068EF
:10285C00204207D03269F36800212046984705468C
:10286C00012D05D0304600F09DFD0600EFD1284625
:10287C0070BD414901280CBF40F2FF700020086078
:10288C000020704770B5FDF7AFFE294E294D044668
:10289C0096F8E00028B100F00DF968B1002086F838
:1028AC00E0000220AD68A84706461020FFF7C3FFE2
:1028BC008EB10320A8470EE0214909683220B0FBF5
:1028CC00F1F101B9012106F13000FDF79DFE06F191
:1028DC003000FDF79DFE2046BDE87040FDF788BE38
:1028EC0038B501281ED100F091F801281CD000F059
:1028FC00D7F80F4C1249012084F8E0003220096807
:10290C00B0FBF1F505B9012504F13000FFF7A1FA90
:10291C00294604F13000FDF777FE04F13000FDF795
:10292C0077FE01E000F0E8F8002032BD00A00C407A
:10293C00C8090020F8910000B03F0050091F00208A
:10294C0004930000B80100102820086028200840DB
:10295C002C2009400C40094000022243242208404C
:10296C000040034080010443141009404539000025
:10297C0015370000B43F0050000004608F3F00008A
:10298C008F3F01008F3F02008F3F0300903F0001FB
:10299C008F3F0101903F0002903F00038F3F0104E5
:1029AC008F3F00058F1208048F3F00048F3F0006F5
:1029BC00513F00007F3F01003F3F04003F3F0200BA
:1029CC003F3F01007F3F020070B50446E00782B034
:1029DC000D46624E05D5A8B200900023012200F0EE
:1029EC0011F8A00705D5A8B200900123022200F02F
:1029FC0009F8600705D5ADB2009502230C2200F052
:102A0C0001F873BD0021304600F0A1BC0146042939
:102A1C0007BF1D234FF0C0421C234FF080524F487C
:102A2C00342100F0A7BC38B50546FFF7D9FB4C4C58
:102A3C00A168401A4FF47A71484305EB104501F038
:102A4C0051F82169401A48BF404240F6B9318D42D5
:102A5C0007D2062805DAA068E168814201D3226812
:102A6C005AB940494A68D2074FF4FA6017D408683B
:102A7C0000F0FF007D21484308E0081A3A4948431A
:102A8C00000C00EB9000904238BF1046C82801D2D1
:102A9C00C82032BDB0F57A6F88BF4FF47A6032BD72
:102AAC0080B501210320FFF78FFFFFF799FB2C491D
:102ABC00886001BD80B50120FFF7A8FF012819D05F
:102ACC00002301223421254800F054FC98B100F079
:102ADC0026F8FFF785FB22498B680A68C860A2EBD1
:102AEC009202C01A204B5843000C0860904238BF29
:102AFC0010460860012002BD10B500210320FFF72D
:102B0C0063FF0120FFF782FF08B100F008F8144CB6
:102B1C00FFF766FB606000F0E5FF206110BD134815
:102B2C00006800F0F3BF10B511490A681149096833
:102B3C00140424161B384443E41004EB22441206FC
:102B4C0000FB00F3121609065A435843091604EB0E
:102B5C00A222484302EBA04010BD000000A00C4094
:102B6C00C01E0020AC3F005040420F0080000010FF
:102B7C0090130050A410005062F30F2262F31F4216
:102B8C00401810F0030308D0C91A1FD3DB0748BF45
:102B9C0000F8012D28BF20F8022D130030B4144684
:102BAC001546103928BF20E93C00FAD8490728BF40
:102BBC0020E90C0048BF40F8042D890028BF20F8FC
:102BCC00022D48BF00F8012D30BC7047C91818BF42
:102BDC0000F8012DCB0728BF00F8012D7047242ADF
:102BEC0010B5DFF82405046814F1010F08BF0024A8
:102BFC0001F00CF8DFF81415002008600120DFF854
:102C0C0010150860DFF80C15086000F04CFADFF8BE
:102C1C000805006828B1DFF804050068204600F0BC
:102C2C0022F8DFF8FC14DFF8FC2400200860DFF841
:102C3C00F80401686FF31B4111430160DFF8EC04E9
:102C4C000168C1F30131012907D10168DFF8E024E3
:102C5C00114041F4003202600160DFF8D8040068D2
:102C6C000028FAD110BD70B50546DFF8CC0401215F
:102C7C000160DFF8C81409680029FAD0DFF8C044F5
:102C8C00DFF8C024C02121605368DFF8BC149B0717
:102C9C005DBF13681B0C43F0F00372230B70002113
:102CAC0001639668304600F031F83146284600F052
:102CBC0061F8DFF89804816D89B240F20F229142DD
:102CCC0014D201680068C1F30361C0F3034001B181
:102CDC00491E072805D006280EBF0720801C00F0CF
:102CEC000F0041EA0010DFF868140870304600F05D
:102CFC00B2F8DFF860140968C968022088474020E0
:102D0C0020600120DFF85014086070BD10B5044637
:102D1C00DFF848040068C0F3046000F0C0F9211724
:102D2C00491C08181628A8BF152004DA6FF00901F1
:102D3C008842B8BF084600F01F00DFF8241440F4A6
:102D4C00F8500880DFF81C04006880074FBF44F07F
:102D5C0040640020DFF810140860DFF81004C4F39E
:102D6C00C06181F001010160C4F3806181F0010157
:102D7C00816010BD70B5054682B0084600F0F0F8D1
:102D8C000246DFF8EC43182100F062F800F014F969
:102D9C0080B20090002340F2FF322C21204600F03C
:102DAC00D6FADFF8D063F068C0F30D021C2100F0F6
:102DBC004FF8706800F0FC32142100F049F83068CC
:102DCC00DFF8B413DFF8B46301EA0002102100F05D
:102DDC003FF8284600F0FAF802460C2100F038F8CB
:102DEC00284600F01EF9400040F0200030722846C2
:102DFC0000F020F940F010003072284600F023F962
:102E0C000246282100F024F8284600F001F9400081
:102E1C0040F06000F072284600F02FF9C00040F03E
:102E2C0080003070284600F031F98000DFF8501334
:102E3C0040F47C400880284600F012F90246082134
:102E4C0000F006F8DFF83C134FF48000086073BD07
:102E5C00204600F077BAF8B5810C01F00301012986
:102E6C00C94CC84D02D002292AD026E0216A8A0317
:102E7C0023D44FF480422A606FF08F06C34AD2F8F5
:102E8C00023033404E0A06F080063343C1F303365A
:102E9C003343C2F80230C1F30326D2F801301B09C8
:102EAC0046EA0313C2F801306FF0E70613683340AB
:102EBC0001F0E7011943116002E04FF00041296075
:102ECC00B34EB44AB16809075CBF4021A9624FF404
:102EDC0000712964800D216AC90C01F0030141F0D5
:102EEC00300110F00300117003D0022826D008D353
:102EFC0026E001210420FFF767FDA74800F0F4F855
:102F0C0022E00120FFF782FD074639460420FFF737
:102F1C005BFD0420FFF77AFDB842FAD1366826F043
:102F2C007F4000F0E1F89D4B1B681B684FF060225E
:102F3C000721300E98474FF480602860032100E091
:102F4C0002210420FFF740FD2068954900F03F0066
:102F5C00087047F618009349088093480068F1BD43
:102F6C0092490968C1F383628303C1F38F2120D492
:102F7C00000400164FF6FF7307E0490804D1194608
:102F8C00520804BF01220121401C0028F5D401285D
:102F9C000FDB490041F00101B1F5803F21BF012158
:102FAC00520042F00102102A24BF0F221946401E83
:102FBC00EDE741EA024070477C4801680068000276
:102FCC00C1F3870100F440700843704730B55D4C85
:102FDC0077490A686568ED07C2F30351C2F30343EE
:102FEC000AD42468250501EB2571240481F304011E
:102FFC0003EB247383F304031B0443EA015193B2E0
:10300C001943222824BF02F080400143084630BDFA
:10301C000021202803D367480068C0F301510846FB
:10302C0070470121222803D363480068C0F3007164
:10303C00084670470121222803D35F480068C0F37B
:10304C004071084670470021202807D35948006872
:10305C00C10C01F44071C0F3845001430846704721
:10306C002028564907D35348554A0068810A02EA7A
:10307C00003040EA8151084670470021222803D3D2
:10308C004D480068C0F3C0610846704700212228F3
:10309C0003D349480068C0F34551084670471628C9
:1030AC00A8BF20387047234800680028FBD145484A
:1030BC00454A416812688908890041F0005141F085
:1030CC000401520748BF41F001010BD4026812F011
:1030DC00030F07D041F003024260026802F00302C2
:1030EC00032AFAD141607047384982B20A60C0F3B2
:1030FC000740486001208860354800680028FBD0F4
:10310C0000208860704700001C130050840460424B
:10311C005C600C40082204438001284300012043DA
:10312C008C2108400000390148200340040009406C
:10313C00FFFFFCFC0C006842101009409402224373
:10314C0000600C40AC3F005056620840BC1200506E
:10315C0002600840A001001094046042B8120050B4
:10316C006E6208400000094094042A43000020438A
:10317C0000A00C4070130050FFFFFC0041A10C405C
:10318C00DCA10C4040A00C406C1300500A600840BD
:10319C00A83F005008A10C40BD378600B4010010B8
:1031AC000BB00C4070B00C402C2009405013005058
:1031BC0078130050981300508C13005000803F403F
:1031CC0000F03F0000400340B03F00503C600C401A
:1031DC0084088C431B4213D1094236D12AB1844650
:1031EC00B0FBF2F002FB10C2704700F019BDFCD32B
:1031FC000022002370470B000200002100207047C2
:10320C00904271EB030CF6D370B5B1FA81F4B3FABA
:10321C0083F52C1BA340C4F1200532FA05F6334389
:10322C00A2405FF00046E64002E05B085FEA320233
:10323C00841A71EB030524BF204629467641F4D34A
:10324C0002000B003000002170BD012ACFD970B5EF
:10325C00140C20D0B1FA81F4B2FA82F5C4F1200436
:10326C006419B4F12006D6D3B2405FF00044F440A8
:10327C00002502E052085FEA3303C61A71EB020E16
:10328C0024BF3046714664416D41F3D302000B00FC
:10329C002000290070BD0C46B1FBF2F102FB114578
:1032AC002D0445EA1045B5FBF2F402FB145580B22F
:1032BC0040EA0545B5FBF2F002FB105240EA04402F
:1032CC0070BD252A70B504460D46164600F0D0F99F
:1032DC00401E8041C00F1A490A68002AFCD0012EFA
:1032EC0002D0022E02D003E0257002E0258000E01F
:1032FC00256001220A6000281CBFBDE8704000F068
:10330C00BBB970BD38B504460D4600F0B1F9401E8E
:10331C008041C00F0A490A68002AFCD0012D02D056
:10332C00022D02D003E0247802E0248800E0246817
:10333C0001220A6008B100F09FF9204632BD00005E
:10334C0000800C400B46114604221818BAE710B541
:10335C0000EB4100102B144600F5007002D3103B1B
:10336C00001D240C0299994041EA0441BDE810402B
:10337C000422A7E738B51D460818102D144602D3B1
:10338C00103D801C240C0221FFF7BCFF204080B2B2
:10339C00E84032BD006800280CBF012000207047B7
:1033AC00006870470068704738B504460D4600F059
:1033BC0038FC00212960616869606168002914BFCC
:1033CC000D6025606560FFE7BDE8324000F02BBC66
:1033DC00006801074CBF042000F003007047262A48
:1033EC002DE9F84F06469348934C0068934D80079F
:1033FC0004D50820A87192482060BFE000F072FB51
:10340C0080469048006800900027001700F10109E1
:10341C000098800208D4C8F13E00C0100928A8BF4B
:10342C0008208145B8BF814687480068C0F3046016
:10343C00FFF735FE824685480068C0F30440FFF76D
:10344C002EFE09EB0A011629A8BF152104DA6FF02C
:10345C0009029142B8BF114601F01F027C4B42F4A5
:10346C00F8521A807B4A126812F0030F18BF01271A
:10347C00520748BF47F002070EB147F0040795F911
:10348C000720A8EB0202052A02DAAA7997425DD03E
:10349C00A8F10F0C0026BCF1000FB64607F0010294
:1034AC0007F00403DFF8B09123D40CEB0C1C4FEAAB
:1034BC002C2EBEF1080F28BF4FF0070E7646072EB4
:1034CC0028BF062609EB860A59F82660DAF804A00C
:1034DC00AAEB060A0AF0FF0613B1CAF3072B5E44E7
:1034EC005FEA877B44BFCAF3074B5E440AB106EB25
:1034FC001A6659F82E9009F0FF0A13B1C9F3072385
:10350C009A44BB0744BFC9F307439A440AB10AEB78
:10351C00196A401AACEB0E220099AF7172438032DB
:10352C000128B8BF0120342301F0FF0158430AEBF6
:10353C0012224843B0FBF2F0B0F5803F28BF4FF6A3
:10354C00FF7008F30708A88085F8078043480068D7
:10355C00A988286000201F2904D21F21A98004E01B
:10356C004908401CB1F5007FFAD20F39090940EA2D
:10357C00C1003B490843206000206060BDE8F18F2A
:10358C0010B53848006884B21CB300F0ABFA2B4974
:10359C0091F90720904205DA6FF07F029042B8BF94
:1035AC001046C8718888844201D28C8010BD2B4A89
:1035BC0012680B68D21A921C202A28BF1F22231AC9
:1035CC005208D3401818B0F5803F28BF4FF6FF7053
:1035DC00888010BD2448026802B9704710B5234B8F
:1035EC00996801F04060B0F1406F21D01148046837
:1035FC00A4071DD45C68A4071AD404681B68C3F321
:10360C0003531C331B0114F0050F06D09A420FD242
:10361C006FF005012140016010BD934208D20A01F0
:10362C0058BF44F00104490158BF44F0040404603D
:10363C0010BD00000000094030100940D41E0020CD
:10364C00FDFDA400B43F0050B81200503C110050D6
:10365C006E620840242208409C1300500820094048
:10366C0000E7A4803410094028500940AC3F0050BA
:10367C00EFF3108072B67047EFF3108062B67047AC
:10368C00DFF800F099C8011010B50C18FFF7F0FF27
:10369C00401E8041C00FDFF8F0130A68002AFCD0EE
:1036AC00246801220A6008B1FFF7E6FF204610BD2E
:1036BC0038B5DFF8D843DFF8D8132078897B00259C
:1036CC0008430AD0FCF790FFA178002906BF01211E
:1036DC00A1700125FCF78CFF0DB1002032BD02203A
:1036EC00FEF7CCFE0E20FEF7DEFEDFF8A803016825
:1036FC0009B1012032BDDFF8A02340211160012166
:10370C00C1610020607032BD70B5DFF88C0382B0EF
:10371C00002101604821C160DFF8800300F1D8046A
:10372C00A17A002968D00129DFF8742329D1106807
:10373C004BF2F5214843050ADFF868030068C0F333
:10374C008140012806D100F0CDF9FFF7ECF9684370
:10375C0005EB9055607B10B10020607305E0D248FA
:10376C000068000215EB10204508D0480560290CB4
:10377C00416001218160C648807B00283AD0052039
:10378C0039E0022909D11568284600F0FDF8A5F2A8
:10379C00FF5003282ED308202DE003292CD11168CB
:1037AC0000F1B805A1F5C0612868E961002848BF9F
:1037BC004042002948BF49428842A8BF002018DA7D
:1037CC006868BB4E80B2009008234FF47F423021D2
:1037DC003046FFF7BCFDA86800F072F904213046B2
:1037EC00FFF7B5FDA86900F071F93046FFF7AFFDA2
:1037FC00012020700B202073BDE873402DE9F041AF
:10380C00A64CDFF8AC82AB4FAB4EA34804F1E105FC
:10381C0082B0E9784A1E0B2A00F28080DFE802F0C1
:10382C00062233465B33465B3346636EA349096815
:10383C000968202088470F20F860072341F61D50A7
:10384C0038614FF4C0720220009000F070F807232A
:10385C004FF4C07200214046FFF78CFD0120306010
:10386C00022044E00120F861287800281DBF0020C8
:10387C00306103200620E87003203860002070605F
:10388C007068800734D4E878032804D1022000F053
:10389C004BF8042007E0002000F046F8E8780628F2
:1038AC000CBF07200A20E87001201AE0042903D17C
:1038BC002021B961012105E00122BA610A290CBF5E
:1038CC00032102216970002139600821C160016067
:1038DC000120386026E005290CBF06200920E8707D
:1038EC000020706004E00020306070600C20E870F4
:1038FC0004F17800BDE8F641FCF78ABE00210160B6
:10390C000120644908600E20FEF762FD0220FEF7DC
:10391C004BFD0120E8700020A87003E0BDE8F341E6
:10392C00FFF7AEBEBDE8F3810090052360220021B5
:10393C004046FFF70CBD000080B558495E4891F831
:10394C00E410891E0A291AD8DFE801F0060A0E19BC
:10395C000A0E190A0E19120001688907FCD510E02D
:10396C0041688907FCD40CE041688907FCD508E064
:10397C0001688907FCD441688907FCD401E0FFF792
:10398C007FFEBDE8014039E7F8B50746484C3021C9
:10399C002046FFF779FE414E06F1B805C0F307202B
:1039AC00686004212046FFF76FFEC0F38440A860D6
:1039BC0020212046FFF768FEC0F38120A861B7F5EF
:1039CC00C060286002D186F8D800F1BD296996F84C
:1039DC00D8202AB96A68A968EA60E861AA696A61AC
:1039EC00E86900284CBF6FF00102022200EB400096
:1039FC001018421000EB927001EBA0006968E960AE
:103A0C00012810DA6A69032A04D1153001281DDA5D
:103A1C0001201BE00B300128B8BF0120491E48BF14
:103A2C000021E96007E01F2812DB6A692AB9153802
:103A3C001F28A8BF1E20032109E00B381F28A8BF90
:103A4C001E20491C4029A8BF3F21E9600021696163
:103A5C0028610823E86880B200904FF47F4230213F
:103A6C0000F03CF80120009011234FF4003200F0DC
:103A7C0034F8286900F024F800F02FF8686900F099
:103A8C0025F800F02BF8F1BD00800C40A90A0020AD
:103A9C00F891000004800C402C500C40C809002008
:103AAC0008400C40B43F0050102009403C600C40D2
:103ABC0000A00C4000400C4034600C40A0010010F1
:103ACC0080B2009012234FF4F802704780B200903D
:103ADC000A234FF440622021704704212046FFF74F
:103AEC0036BC272A0748084A81681278006852B207
:103AFC00A0F54070C9035043C913A1EB20108030CE
:103B0C0000127047285009400C13005070B5044641
:103B1C00FFF7AEFD451EAD41ED0F074E3068002896
:103B2C00FCD0A04701203060002D1CBFBDE87040C8
:103B3C00FFF7A2BD70BD000000800C40304800684B
:103B4C00000C00F00700052828BF4FF0FF3070472D
:103B5C002C490A68C2F30F324BF69A139A424FF073
:103B6C00FF3006D10868000F0B280CBF0420002082
:103B7C0070474BF6BE118A4201D1012070474BF6BB
:103B8C0041318A4201D1032070474BF620318A42E1
:103B9C0008BF0220704700001A48F8B50068050FEE
:103BAC001948006800F0FF06802E28BF0026FFF79A
:103BBC00CFFF04284FF0FF3406F10A071DD8DFE8C9
:103BCC0000F003121A1A1B00012D12D0032D06D07F
:103BDC00072D06D0082D08BF06F116040DE014249D
:103BEC000BE0152409E025B1022D08BF06F11404E1
:103BFC0003E00A2401E005B93C4660B2F2BD0000C6
:103C0C009412005018130050A010005080B5FFF70C
:103C1C009FFF20B9FFF7C0FF162800DB01BDFEE7B0
:103C2C007047FCF7E1BCFCF7E3BC282ADFF800F096
:103C3C00D9C10110DFF800F025B1011080B50028C2
:103C4C0004D008233C220021FFF7F0FF01BD3EB554
:103C5C0004000D000820ADF800000120ADF80200B2
:103C6C006846DFF88019096888479DF804102170B0
:103C7C00029929603EBD00B583B00821ADF8001053
:103C8C000321ADF8021001906846DFF85819096855
:103C9C00884707BD70B584B004000D0016000820DD
:103CAC00ADF800000920ADF802006846DFF83419C1
:103CBC0009688847BDF8041021809DF8061029700A
:103CCC000299316004B070BD00B583B00821ADF825
:103CDC0000100A21ADF8021001906846DFF80419B3
:103CEC00096888470EBD70B50E001400002580B21F
:103CFC00010040F20132891A32D0491E3DD0491ED2
:103D0C0048D0891E50D0491E00F0E480491E00F0B6
:103D1C00EB80491E00F00C81491E00F02D81491EDC
:103D2C0000F03781491E00F04181491E00F04B81A3
:103D3C00491E00F05581C91E00F05F81491E00F03C
:103D4C006981491E00F07681491E00F08381491E6D
:103D5C0000F08E81491F00F09C81891E6AD0B7E16A
:103D6C00F6B2102E07D11022DFF87C68210030004B
:103D7C00FEF7A8F900E01825B7E1F6B2102E07D12E
:103D8C001022DFF8686821003000FEF79BF900E094
:103D9C001825AAE1F6B2042E04D12068DFF85018D9
:103DAC00086000E01825A0E1F6B2012E40D1DFF842
:103DBC0044080078012839D0DFF83C0800782178D5
:103DCC00DFF834281170C0B2002814D0DFF828189E
:103DDC00097800290FD1DFF824080078022804D0D4
:103DEC00DFF818080078052823D1DFF814080078CC
:103DFC0001F03AFA1DE0C0B200281AD1DFF8F8073A
:103E0C000078002815D0DFF8F4070078012809D0D5
:103E1C00DFF8E8070078042804D0DFF8E007007822
:103E2C00052806D1012000F098FE02E0122500E0E2
:103E3C0018255AE1F6B2012E4AD1DFF8BC070078FA
:103E4C00012843D0DFF8AC0700782178DFF8A427ED
:103E5C001170C0B2002819D0DFF898170978002922
:103E6C0014D1DFF898070078032809D0DFF88C0705
:103E7C000078072804D0DFF884070078052828D1BB
:103E8C00DFF87C07007801F0EFF922E0C0B20028DF
:103E9C001FD1DFF86007007800281AD0DFF85C0724
:103EAC00007801280ED0DFF854070078042809D0D8
:103EBC00DFF848070078062804D0DFF840070078C0
:103ECC00052806D1012000F048FE02E0122500E092
:103EDC0018250AE1F6B2022E04D12088DFF8241747
:103EEC00088000E0182500E1F6B2202E1EDA1F2112
:103EFC000022DFF814572800FEF73EFEF6B2DFF87A
:103F0C000857320021002800FEF7DCF8DFF8200B00
:103F1C000670DFF8F436DFF8180B02780121DFF8B1
:103F2C00E006007801F075F9050000E01825DCE0EA
:103F3C00F6B2202E1EDA1F210022DFF8F85A2800D4
:103F4C00FEF71AFEF6B2DFF8EC5A32002100280018
:103F5C00FEF7B8F8DFF8000B0670DFF8D83ADFF898
:103F6C00F80A02780021DFF89806007801F051F980
:103F7C00050000E01825B8E0F6B2012E07D1207834
:103F8C00052804DA2078DFF8081B087000E01825F3
:103F9C00ABE0F6B2012E07D12078042804DA2078A1
:103FAC00DFF8F01A087000E018259EE0F6B2062E35
:103FBC0007D10622DFF8E06A21003000FEF782F814
:103FCC0000E0182591E0F6B2012E07D120780828E0
:103FDC0004DA2078DFF8C41A087000E0182584E0B1
:103FEC00F6B2012E07D12078042804DA2078DFF805
:103FFC00B01A087000E0182577E0F6B2012E07D150
:10400C002078062804DA2078DFF8981A087000E087
:10401C0018256AE02088F6B2022E09D180B2811FE1
:10402C0040F67B42914203D2DFF8781A488000E0D8
:10403C0018255AE02088F6B2022E09D180B2811FD1
:10404C0040F67B42914203D2DFF8581A888000E098
:10405C0018254AE02088F6B2022E07D180B2B0F5BE
:10406C00FA7F03DADFF83C1AC88000E018253CE040
:10407C002088F6B2022E0AD180B2B0F10A0140F6C5
:10408C007742914203D2DFF81C1A088100E0182510
:10409C002BE02078F6B2012E18D1C0B2012815D130
:1040AC00DFF8CC0A01F0B9FC00280DD1DFF8F419C7
:1040BC00002000F0F9FC0500EDB2002D07D1DFF86F
:1040CC00B40A01F0B6FC02E0162500E018250CE05D
:1040DC0080B2282808DAF6B2022E05D1218880B2E7
:1040EC0001F0D4F8050000E002252800C0B270BD34
:1040FC0038B50D00002480B201004FF44072891ACB
:10410C0044D0491E47D0491E4CD0491E51D0491E9F
:10411C0054D0491E59D0491E61D0491E64D0491E45
:10412C006BD0491E72D0491E75D0491E78D0491EDD
:10413C007DD0491E00F08080491E00F08280891ECF
:10414C0000F08480491E00F08680491E00F08880B3
:10415C00491E00F08A80491E00F08C80491E00F038
:10416C008E80491E00F09280491E00F09480491EFA
:10417C0000F09680891E00F09D80491E2AD0491EB1
:10418C0000F09380491E00F099809CE0DFF8E8096C
:10419C0000782870A0E01022DFF84C142800FDF7FE
:1041AC0091FF99E01022DFF844142800FDF78AFFF4
:1041BC0092E0DFF83C04006828608DE00622DFF80E
:1041CC00BC192800FDF77EFF86E0DFF82C04007890
:1041DC00287081E0DFF81C04007828707CE0DFF8A0
:1041EC0024040088288077E0DFF844080278DFF8A0
:1041FC0018142800FDF766FF6EE0DFF85C08027803
:10420C00DFF830182800FDF75DFF65E0DFF8800867
:10421C000078287060E0DFF87C08007828705BE09C
:10422C000622DFF874182800FDF74CFF54E0DFF885
:10423C006C08007828704FE0DFF86408007828706C
:10424C004AE0DFF83C090088288045E0DFF8540894
:10425C000078288040E0DFF84C08408828803BE05C
:10426C00DFF840088088288036E0DFF83808C088FE
:10427C00288031E0DFF82C08008928802CE0062209
:10428C00DFF800192800FDF71DFF25E0DFF8F8081E
:10429C000088288020E0DFF8F408008828801BE0E4
:1042AC00DFF8EC080088288016E0DFF8E8080078D2
:1042BC00287011E0D148007828700DE0DFF8D8089C
:1042CC000078287008E080B2282804DA80B200F068
:1042DC00F8FF288000E002242000C0B232BD80B577
:1042EC00C6490978002908D1002802D0DFF8AC189B
:1042FC00086000F0A1FB002000E0112002BD80B599
:10430C00BE480078062803D0BC480078072809D19D
:10431C001322DFF86C080188DFF88808007800F0B9
:10432C004EFF00E0122002BD00B58FB06846FFF7CB
:10433C0085FCDFF8740807904FF4DC7008900320BC
:10434C00069000236A460FF2E901DFF86008FFF7D8
:10435C0071FC0FB000BD1CB5DFF85418A848FFF76E
:10436C0076FC0020A54908704FF6FF70DFF8101896
:10437C00088000F0C6FFDFF83C180870012001909F
:10438C0000200090002300220FF65901DFF82808C6
:10439C0001F0F8FA02200190002000900023002286
:1043AC000FF64101DFF8CC0701F0ECFA0420019084
:1043BC0000200090002300220FF62901DFF8B0073F
:1043CC0001F0E0FA0420DFF8B01708701021002289
:1043DC00854C2000FEF7D0FB10210022834C2000DE
:1043EC00FEF7CAFB0020DFF8D41708600020DFF8C6
:1043FC00A01608700020DFF89C1608700720DFF864
:10440C009C1608700020DFF898160870764A102168
:10441C00022001F01BFA754A1021032001F016FA54
:10442C00DFF898270421042001F010FA13BD0000D6
:10443C0010B586B0FFF78FFF5AE0DFF8540600780E
:10444C008DF80800DFF84C0600788DF8090006227C
:10445C00DFF844160DF10A042000FDF733FEDFF8F7
:10446C003C0600788DF81000DFF8340600788DF8E3
:10447C00110002A96248007800F0C3FE002814D095
:10448C0008205E490870DFF81407006800280CD07B
:10449C00DFF8080700680068002806D05748007845
:1044AC00DFF8F816096809688847DFF81407007800
:1044BC0080070DD5DFF8080700884FF6FD7108401E
:1044CC00DFF8FC160880DFF8DC15002000F0ECFAB1
:1044DC00DFF8EC06007840070AD5DFF8E406008820
:1044EC004FF6FB710840DFF8D816088000F0B6FADA
:1044FC005FF0FF30FFF7E8FB00282BD10020009085
:10450C006A460DF1060101A8FFF7C4FB002821D172
:10451C00BDF80400102817D19DF806003849097819
:10452C00884211D1009801884FF6FF72914208D150
:10453C004088400408D52E4A0421042001F0A3F938
:10454C0002E0009800F027F80098002802D00098AC
:10455C00FFF791FBDFF868060078C007A5D5DFF8F8
:10456C00600600884FF6FE710840DFF8541608808C
:10457C0021480078002804D1DFF84806007800288C
:10458C0093D0DFF84006007800283FF456AF0320A4
:10459C008DF8080063E780B50178A22904D0D029F2
:1045AC001FD100F033F81CE04179132918D10830E1
:1045BC00008801280BD1DFF810060078022806D1FC
:1045CC00DFF8AC0501F035FAFFF799FE08E005209D
:1045DC0000F077FE80B20100DFF8940501F001FADB
:1045EC00FFE701BD34070020EC170020FC1700206A
:1045FC000C180020F11E0020FD0A0020EF1E0020E8
:10460C00EE1E0020DE0A00206C0700203EB50500DF
:10461C000024A878002816D0022843D0032800F0E4
:10462C007F8004287CD0052800F0D380062800F079
:10463C001F81072800F052810F2800F07281112889
:10464C0000F07481E1E16878C0B2002821D1DFF874
:10465C007C251021022001F016F9DFF874251021B9
:10466C00032001F010F90622E91CDFF810452000A8
:10467C00FDF728FD0120DFF85C150870DFF85835D0
:10468C00DFF8AC0302780121DFF81805007800F0A0
:10469C00C0FDC0B2002803D00820DFF83815087020
:1046AC000124B2E16878002831D1E87800280CD0D8
:1046BC00DFF88033DFF8A00302780021DFF8E40490
:1046CC00007800F0A6FD687021E0DFF8080500789E
:1046DC0002281CD0DFF8FC040078072817D0DFF87C
:1046EC00F4040078062804D1DFF8D80400780128F7
:1046FC000DD1DFF8E0040078032808D0DFF8B80407
:10470C0001F08BF9002802D1012000F026FA68781C
:10471C00002804D00820DFF8BC140870012474E1D0
:10472C00687800284FD1A878032818D1DFF8A404A2
:10473C000078062804D10720DFF89814087046E0AA
:10474C00DFF898040078002804D00220DFF88414E5
:10475C0008703CE00320DFF87C14087037E0DFF8C9
:10476C0080040088002811D0DFF87004007800283D
:10477C0004D1DFF850040078002815D0DFF860046D
:10478C000188DFF8340401F02CF90DE0DFF84C045B
:10479C000078012804D10020DFF84014087003E0F1
:1047AC000020DFF820140870DFF8280400780728B0
:1047BC0004D10620DFF81C14087008E00420DFF890
:1047CC001414087003E00820DFF8081408700124A2
:1047DC001BE16878002839D10622291DDFF8A44393
:1047EC002000FDF76FFC6889DFF894130880062021
:1047FC00DFF8E0130870E889DFF88C130880288A4A
:10480C00DFF888130880688ADFF884130880E8785A
:10481C00DFF880130870A3480078012803D0A14862
:10482C00007802280BD11F2000F04BFD80B24FF412
:10483C007A7101FB00F1DFF83C0301F0D2F804239C
:10484C006A89291DE87800F030FB0FE06878312880
:10485C0008D10020DFF8841308700420DFF87413EB
:10486C00087003E00820DFF86C1308700124CCE01A
:10487C00A88800F040FB06210022C24C2000FEF765
:10488C007BF90020C04908800020C0490880002026
:10489C00BF490880A879C0490870B64801F0C9F82A
:1048AC00B34801F0C6F801244FF6FF70B4490880F4
:1048BC00C4480078002803D00320C64908700CE0D7
:1048CC00A879082803D10520C249087002E0042009
:1048DC00C0490870012000F040F996E0A44801F0AE
:1048EC00A8F8687800281BD1E888A749088028898F
:1048FC00A64908806889A64908809E4801F08DF871
:10490C0000280DD1A6480068002809D0A0480288CC
:10491C009E4801889C480088A14B1B681B689847DF
:10492C0073E00521A88800F0A8FC6EE0A888ADF81B
:10493C0000005C480078052803D100208DF80A009F
:10494C005FE001208DF80A008A4801F072F85548A2
:10495C000078012803D05348007804282CD1E8882B
:10496C0050494988884202D24E48408800E0E88885
:10497C00ADF8020028894B498988884202D24948FF
:10498C00808800E02889ADF8040068894549C98809
:10499C00884202D24348C08800E06889ADF806001E
:1049AC00A88940490989884202D23E48008900E022
:1049BC00A889ADF8080024E03A480078032803D011
:1049CC0038480078022810D136484088ADF80200EB
:1049DC0034488088ADF804003248C088ADF8060031
:1049EC0030480089ADF808000BE0E888ADF802000B
:1049FC002889ADF804006889ADF80600A889ADF8DF
:104A0C000800684600F0D3FBFFE7E4B2012C0ED19E
:104A1C006248006800280AD06048006800680028D6
:104A2C0005D06C4800785D4909680968884737BD2E
:104A3C00FE0A00201818002000B583B05F480190D2
:104A4C0063480090614B00224B4801785548007830
:104A5C0000F074FB07BD0000F21E002080B55A4820
:104A6C000078012802D002280DD00FE00120009020
:104A7C000C4803890B48C2880A4881880948408839
:104A8C0000F052F802E0FFF73AFCFFE701BD00002E
:104A9C00F31E0020F41E002038180020F51E002004
:104AAC00F61E00208C07002070B584B004000E00A8
:104ABC0035480088718888420ED3B08832490988FD
:104ACC00884209D331480088F188884204D13048A3
:104ADC0000883189884222D0052000F0F2FB0500C5
:104AEC0027480088ADF800007088ADF80200B08847
:104AFC00ADF80400F088ADF806003089ADF8080078
:104B0C00684600F04CFB0600F6B2002E08D12E4889
:104B1C000470ADB22900164800F063FF00E01826BF
:104B2C003000C0B204B070BD10B584B0294C2478EC
:104B3C00062C01D014200EE0ADF80200ADF80410E4
:104B4C00ADF80620ADF808300A4800F072FF69464F
:104B5C000698FFF7A9FF04B010BD80B51849098865
:104B6C0008431749088012480068FBF745FD01BD52
:104B7C00C01500209C150020F01E002010180020ED
:104B8C00E00A002040180020DE1E0020E01E00205D
:104B9C00E21E0020F71E0020F81E002048180020FE
:104BAC004C180020EE1E002034160020E4150020C6
:104BBC0074150020ED1E0020781500200C18002024
:104BCC00DC1E0020F11E0020F91E0020EC17002036
:104BDC00FC170020EF1E00206C070020FD0A0020AF
:104BEC00DE0A002080B5FFF7B8FF01BDE0B5082153
:104BFC00ADF800100221ADF8021001906846DFF804
:104C0C00281509688847002801D0002000E0029888
:104C1C000EBD00B583B00821ADF800100321ADF82E
:104C2C00021001906846DFF800150968884707BD37
:104C3C001FB50824ADF800400824ADF802408DF8EB
:104C4C000400ADF806108DF8082003936846DFF8D1
:104C5C00D8140968884704B010BD30B585B014006D
:104C6C001D000822ADF800201922ADF80220019099
:104C7C0002916846DFF8B01409688847002C02D00E
:104C8C00BDF80C102180002D02D09DF80E1029705B
:104C9C000499089A116005B030BD00B583B00820A6
:104CAC00ADF800001A20ADF802006846DFF8781461
:104CBC0009688847002802D19DF8040000E0FF2015
:104CCC000EBDE0B50821ADF800102021ADF80210A2
:104CDC00ADF804006846DFF85014096888470028CE
:104CEC0001D1029800E000200EBD00B583B0ADF8F4
:104CFC0000000020ADF802008DF806106846DFF8C1
:104D0C00281409688847002802D19DF8070000E0A4
:104D1C00FF200EBD002801D100200AE010F1040F85
:104D2C0001D1042005E010F1030F01D1022000E0B5
:104D3C0001207047812303700023C370C9B2D2B223
:104D4C0052EAC11151F47C41818070478223037077
:104D5C000023C370C9B281808271704738B50400DA
:104D6C000D001020FFF7ADFF002802D07FF00400EB
:104D7C0007E000950023002221005FF0FF30FFF7D1
:104D8C006CFF32BD10B582B01400CA78012A03D171
:104D9C008A88DFF898331A800B0002221021C0B2E7
:104DAC00FFF746FF00280FD1002000906946200035
:104DBC00FFF7D4FF002807D1009844780098FFF73C
:104DCC0028FF2000C0B201E0FFF7A4FF16BD70B5AC
:104DDC0082B015001C000B0002221021C0B2FFF79C
:104DEC0027FF002820D10020009069462800FFF7FB
:104DFC00B5FF002818D100984578EDB2002D0DD1E3
:104E0C000098C0792100C9B2884207D1E4B2009859
:104E1C008168069E22003000FDF754F90098FFF7D8
:104E2C00F8FE2800C0B201E0FFF774FF76BDF8B5BC
:104E3C0004000D0016000A20FFF7D8FE0700002F13
:104E4C0014D03200D2B22900C9B23800FFF77EFF6D
:104E5C002100C9B25020FFF748FF3872FFF71DFF41
:104E6C003B0002221021C0B2FFF7E2FEF1BD80B57B
:104E7C0010220121C0B2FFF7DAFF01BD38B50400E2
:104E8C000C20FFF7B3FE0500002D0DD004220121EC
:104E9C002800FFF75BFFAC60FFF7FFFE2B00022240
:104EAC001021C0B2FFF7C4FE31BD2DE9F041040062
:104EBC000D0016001F001420FFF798FE8046B8F175
:104ECC00000F15D0142201214046FFF73FFF88F850
:104EDC000840C8F80C50A8F8106088F81270FFF75A
:104EEC00DCFEDFF84C224146C0B2FFF74BFF00E07E
:104EFC000420BDE8F08138B504000A20FFF776FEE7
:104F0C000500002D0DD0152201212800FFF71EFFF2
:104F1C002C81FFF7C2FE2B0002221021C0B2FFF73A
:104F2C0087FE31BD80B5002100F0BEF802BD2DE931
:104F3C00F04104000D0016001F001420FFF756FE70
:104F4C008046B8F1000F15D0022204214046FFF72D
:104F5C00FDFEC8F80840A8F80C5088F80E60C8F898
:104F6C001070FFF79AFEDFF8CC214146C0B2FFF774
:104F7C0009FF00E00420BDE8F08180B51022022179
:104F8C00C0B2FFF754FF01BDF8B504000D001600C8
:104F9C001020FFF72BFE0700002F10D01522022146
:104FAC003800FFF7D3FE3C81BD72FE60FFF775FE43
:104FBC00DFF884213900C0B2FFF7E4FE00E00420E2
:104FCC00F2BD80B50022032100F051F802BD00B5FE
:104FDC0083B00FF255030193062300930323C9B248
:104FEC00C0B200F068F80EBD107880280FD1508840
:104FFC0040F27F6188420AD19088DBB29BB2984222
:10500C0005D191790098814201D1012000E0002066
:10501C00704710B582B006240094DBB2C9B280B2DE
:10502C00FFF7E2FF16BD000080B50323C9B280B2C2
:10503C00FFF7EFFF02BD00001078802815D15088D3
:10504C0040F27F61884210D19088032802D090886A
:10505C0004280AD19079002805D09079102802D024
:10506C009079112801D1012000E000207047F8B59B
:10507C0004000D0016000C20FFF7B8FD0700002FF0
:10508C0010D03200D2B22900C9B23800FFF75EFE50
:10509C00BC60FFF702FEDFF8EC233900C0B2FFF76B
:1050AC0071FE00E00420F2BD80B50A00D2B20421EA
:1050BC00FFF7DDFF02BD2DE9F04104000D001600E5
:1050CC001F001020FFF792FD8046B8F1000F15D09D
:1050DC00069A3900C9B24046FFF738FEE4B2A8F888
:1050EC000840EDB2A8F80A50C8F80C60FFF7D5FDDF
:1050FC00079A4146C0B2FFF745FE00E00420BDE828
:10510C00F08170B582B004000D001600FFF7C5FDEC
:10511C001B2100910300DBB23200D2B22900200027
:10512C0080B200F061F976BD34070020DC0A002063
:10513C00F95600001D5700000B5700002DE9F041F7
:10514C0004000D0016001F001820FFF74FFD8046CD
:10515C00B8F1000F20D0002204214046FFF7EAFDF1
:10516C002100C9B25020FFF7C0FD88F8080088F86C
:10517C00095088F80A60C8F80C700698C8F8100036
:10518C000798C8F81400FFF788FD0FF20D4241464E
:10519C00C0B2FFF7F7FD00E00420BDE8F08180B558
:1051AC000FF205431122002100F094F902BD80B5E5
:1051BC000FF205431222002100F08CF902BDF8B564
:1051CC0004000D0016000E20FFF710FD0700002F45
:1051DC0015D00A2204213800FFF7ACFD2100C9B21A
:1051EC005020FFF782FD38727D813E73FFF755FD2D
:1051FC000FF2D5323900C0B2FFF7C4FD00E0042035
:10520C00F2BD80B50FF2D1330622C0B200F084F9A2
:10521C0002BD2DE9F04104000D0016001F00102006
:10522C00FFF7E4FC8046B8F1000F1AD007220421E6
:10523C004046FFF77FFD2100C9B25020FFF755FD16
:10524C0088F8080088F8095088F80A60C8F80C70CB
:10525C00FFF723FD0FF291324146C0B2FFF792FDEA
:10526C0000E00420BDE8F08180B50FF28D330822F8
:10527C000021C0B200F050F902BD80B50FF28933A5
:10528C001022C9B280B200F003F902BD70B504005F
:10529C000D000C20FFF7AAFC0600002E0FD03022C8
:1052AC0004213000FFF746FD34817581FFF7F5FCD2
:1052BC000FF265323100C0B2FFF764FD00E004204C
:1052CC0070BD30B583B004000020ADF804000A2096
:1052DC00FFF78CFC0500002D10D031220421280092
:1052EC00FFF728FD2C81FFF7D8FC01A900910223C0
:1052FC000FF235322900C0B2FFF769FDBDF804008A
:10530C003EBD1CB500208DF804000820FFF76EFC94
:10531C000400002C0FD0122201212000FFF716FDF3
:10532C00FFF7BBFC01A9009101230FF20D32210004
:10533C00C0B2FFF74CFD9DF8040016BD1CB5002053
:10534C008DF804000820FFF751FC0400002C0FD04E
:10535C00182201212000FFF7F9FCFFF79EFC01A9A0
:10536C00009101230FF2E5222100C0B2FFF72FFDBF
:10537C009DF8040016BD70B504000D001020FFF759
:10538C0035FC0600002E0FD0192201213000FFF74A
:10539C00DDFC3481F560FFF780FC0FF2C522310093
:1053AC00C0B2FFF7EFFC00E0042070BDF8B50400BC
:1053BC000D0016001020FFF719FC0700002F11D06C
:1053CC00362204213800FFF7B5FC3C81EDB27D811B
:1053DC00FE60FFF762FC0FF29D223900C0B2FFF7AE
:1053EC00D1FC00E00420F2BD2DE9F04104000D00D9
:1053FC0016001F001420FFF7F9FB8046B8F1000FD0
:10540C001AD0069A03214046FFF794FCA8F80840EE
:10541C0088F81060C8F80C503900C9B25020FFF75A
:10542C0064FC88F81100FFF738FC0FF28D2241461E
:10543C00C0B2FFF7A7FC00E00420BDE8F08110B576
:10544C0082B01400104A1268002A0BD000930B0093
:10545C00DBB2020092B2210089B201200A4C24680E
:10546C00A04700E0002016BD80B5084A1268002A4B
:10547C0006D00A00D2B201000120044B1B689847E9
:10548C0001BD0000455000006C1500207015002077
:10549C002DE9F04104000D0016001F000C20FFF751
:1054AC00A5FB8046B8F1000F11D03200D2B2042116
:1054BC004046FFF73FFCA8F8084088F80A50FFF771
:1054CC00ECFB3A004146C0B2FFF75CFC00E0042064
:1054DC00BDE8F0812DE9F04104000D0016001F001D
:1054EC001020FFF783FB8046B8F1000F11D032007B
:1054FC00D2B204214046FFF71DFCC8F80840C8F89A
:10550C000C50FFF7CAFB3A004146C0B2FFF73AFC19
:10551C0000E00420BDE8F0812DE9F04104000D000D
:10552C0016001F001020FFF761FB8046B8F1000F3A
:10553C0016D03200D2B204214046FFF7FBFB21000B
:10554C00C9B25020FFF7D1FB88F80800C8F80C50FE
:10555C00FFF7A3FB3A004146C0B2FFF713FC00E093
:10556C000420BDE8F0811078802813D1508840F2D7
:10557C007F6188420ED190884FF680710840B0F55B
:10558C007E4F07D1107910F07F00DBB2984201D129
:10559C00012000E00020704780B50023C9B280B222
:1055AC00FFF7E1FF02BD000080B51123C9B280B244
:1055BC00FFF7D9FF02BD000080B51223C9B280B23B
:1055CC00FFF7D1FF02BD000080B50A23C9B280B23B
:1055DC00FFF7C9FF02BD000080B50623C9B280B237
:1055EC00FFF7C1FF02BD000080B50723C9B280B22E
:1055FC00FFF7B9FF02BD000080B50823C9B280B225
:10560C00FFF7B1FF02BD000080B51023C9B280B214
:10561C00FFF7A9FF02BD000080B53023C9B280B2EC
:10562C00FFF7A1FF02BD000080B53123C9B280B2E3
:10563C00FFF799FF02BD000080B5122300930123F0
:10564C00C9B280B2FFF7D0FC02BD000080B51823B0
:10565C0000930123C9B280B2FFF7C6FC02BD000063
:10566C0080B5192300930123C9B280B2FFF7BCFCAB
:10567C0002BD000080B53623C9B280B2FFF773FFBC
:10568C0002BD00001078802814D1508840F27F6150
:10569C0088420FD190884FF6807108404FF68051A8
:1056AC00884207D1107910F07F00DBB2984201D10B
:1056BC00012000E00020704770B504000D001600BA
:1056CC001D2332002900C9B2200080B2FFF7DAFF97
:1056DC00002808D11B2332002900C9B2200080B257
:1056EC00FFF7D0FF00E00120C0B270BD80B51423DD
:1056FC0000930123C9B280B2FFF776FC02BD80B5DE
:10570C00152300930223C9B280B2FFF76DFC02BDD2
:10571C0080B5022300930423C9B280B2FFF764FC66
:10572C0002BD80B50FF20D0142F22F0000F00AF815
:10573C0002BD000080B542F22F03C9B280B200F066
:10574C003FF802BD70B504000D000820FFF74EFABB
:10575C000600002E0CD0812030700120F070B48037
:10576C00FFF79BFA2A003100C0B2FFF70BFB00E0F9
:10577C00042070BD2DE9F04104000D0016001F003F
:10578C000E20FFF733FA8046B8F1000F15D08120B8
:10579C0088F80000012088F80300A8F80440A8F855
:1057AC000850A8F80A60A8F80C70FFF776FA069A69
:1057BC004146C0B2FFF7E6FA00E00420BDE8F081F4
:1057CC00107880280AD1508840F27F61884205D138
:1057DC0090889BB2984201D1012000E000207047D4
:1057EC00000080B50FF24501009100230022C0B2E9
:1057FC00010089B24FF60140FFF7BCFF02BD38B57E
:10580C0004001500C9B25020FFF76FFA0FF22D01FA
:10581C0000912B009BB2C0B2020092B2210089B25F
:10582C004FF61840FFF7A6FF32BD000080B54FF6CB
:10583C000143C9B280B2FFF7C3FF02BD80B54FF67A
:10584C001843C9B280B2FFF7BBFF02BDF8B5040024
:10585C000D0016001020FFF7C9F90700002F10D01B
:10586C00012205213800FFF765FA3C727D72FE605B
:10587C00FFF713FA0FF27D023900C0B2FFF782FA7C
:10588C0000E00420F2BDF8B504000D001600102055
:10589C00FFF7ACF90700002F10D0022205213800C9
:1058AC00FFF748FA3C727D72FE60FFF7F6F90FF2D3
:1058BC0055023900C0B2FFF765FA00E00420F2BDD2
:1058CC001078802814D1508840F27F6188420FD123
:1058DC0090884FF6807108404FF68061884207D15E
:1058EC00107910F07F00DBB2984201D1012000E06A
:1058FC000020704780B50123C9B280B2FFF7E0FFEA
:10590C0002BD000080B50223C9B280B2FFF7D8FFF8
:10591C0002BD292ADFF800F0F5B80110DFF800F01D
:10592C002DBF0110DFF800F011BF0110704780B5DA
:10593C00002804D0082324220021FAF751FE01BDCF
:10594C007047E0B50821ADF800100421ADF8021045
:10595C0080B201906846674909688847002801D0E1
:10596C00002000E002980EBD00B583B00821ADF810
:10597C0000100521ADF80210019068465D490968D8
:10598C00884707BDF0B589B004000D001E004FF428
:10599C007A7059490968B0FBF1F000FB02F76846D0
:1059AC00FFF7C5FF0F9806904FF47A7052490968BB
:1059BC00B0FBF1F000FB06F005900E98ADF810006E
:1059CC006B463A0029002000FAF73EFE2000FFF754
:1059DC00B7FF09B0F0BD80B5FFF7B2FFFAF718FEBC
:1059EC0001BD38B50C00FFF7ABFF05002800FCF734
:1059FC003EFA002802D02800FCF72BFA4FF47A70FC
:105A0C003D490968B0FBF1F000FB04F12800FAF7FE
:105A1C00FBFD2800FAF7FCFD31BD80B5FFF790FFC8
:105A2C00FCF725FA002801D0012000E00020C0B2CC
:105A3C0002BD80B5FFF784FFFCF70BFA01BD10B572
:105A4C00040000212000FFF765FF2000FFF76EFF28
