:10000000404300200DC9000001CA011001CA0110BF
:1000100001CA011001CA011001CA011001CA011070
:1000200001CA011001CA011001CA011001CA011060
:0C00300001CA011001CA01103FCA0110F2
:10003C0009480A4A016843F2390302FB01310160A5
:10004C006FF00040B1FBF0F06FF0004202FB1010BB
:10005C007047014908607047F80B00206D4EC6418F
:10006C0038B504460D46FFF7E3FF291B491C90FBEE
:10007C00F1F201FB1200201832BD03E011F8013B34
:10008C0000F8013B13465A1E9BB2002BF6D1704769
:10009C001044401E03E011F8013B00F801391346EF
:1000AC005A1E9BB2002BF6D17047130003D00A46A0
:1000BC00194602F0CFB970474FF4001C1CEB410FEE
:1000CC0094BF1CEB430F09E041EA030C50EA4C0CC3
:1000DC0052EA0C0C03D28B4208BF8242704714BF09
:1000EC0099429042704701207047000020000000A8
:100100003C0000000000000000000000340100007E
:1001100000000000000000000100000000000000DE
:1001200000000000000000000000000001000000CE
:0C013000000000000800000000000000BB
:10013C003400000000000000000000006801000016
:10014C0000000000000000000100000000000000A2
:10015C00010000000000000000000000080000008A
:04016C00000000008F
:1001700030000000000000000000000098010000B6
:10018000040000000000000001000000FFFFFFFF6E
:10019000FF00000001000000080000000000000057
:1001A0002C0000000000000000000000C40100005E
:1001B000040000000000000001000000FFFFFFFF3E
:0C01C000FFFFFFFF08000000000000002F
:1001CC0034050000E401000099A1011095A701106D
:1001DC00A5C2011009B2011045B8011000000000C1
:0801EC00000000002F000000DC
:1001F40028000000000000000000000014020000BD
:100204000000000000000000FFFFFFFF00000000EE
:080214000800000000000000DA
:10021C00300500003002000069C201106DC10110F0
:10022C001FC2011095BA0110000000000000000070
:04023C002D00000091
:10024000300500005402000075C20110A9B601106B
:100250009DBF011049B60110000000000000000021
:040260002E0000006C
:1002640024000000000000000000000080020000E4
:100274000000000000000000000000000800000072
:040284000000000076
:10028800240000000000000000000000A40200009C
:10029800000000000000000000000000080000004E
:0402A8000000000052
:1002AC00240000000000000000000000C802000054
:1002BC000000000001000000000000000800000029
:0402CC00000000002E
:1002D00000000000FC0B00200400000000000000F3
:1002E000000000002000000070010000300000004D
:1002F0001C0200001C0C0020040000000000000094
:10030000000000000C000000300400001800000095
:1003100040020000240C0020040000000000000047
:100320000000000024000000480400001800000045
:1003300000000000640C0020040000000000000029
:100340000000000010000000A00100002C000000D0
:10035000CC0100006C0C0020040000000000000034
:1003600000000000200000006402000024000000E3
:10037000FFFFFFFF8C0C00200400000000000000C5
:100380000000000028000000880200002400000097
:10039000FFFFFFFFBC0C0020040000000000000075
:1003A00000000000580000003C0100003400000084
:1003B000FFFFFFFFC40C002004000000000000004D
:1003C00000000000100000006004000018000000A1
:1003D000FFFFFFFFCC0C0020040000000000000025
:1003E000000000001C000000AC020000240000001F
:1003F000FFFFFFFFD40C00200400000000000000FD
:100400000000000038000000F40100002800000097
:10041000FFFFFFFF3C0D0020040000000000000073
:100420000000000054000000000100003C0000003B
:100430001800000000000000000000004004000060
:080440000800000000000000AC
:100448001800000000000000000000005804000030
:08045800080000000000000094
:100460001800000000000000000000007004000000
:0804700008000000000000007C
:080478000100000050C9000062
:040484000100000073
:0404880000000E0062
:04048C0000000F005D
:040490003200000036
:040494000100000063
:04049800040C002030
:04049C00000200005A
:0404A0000000000058
:0404A40001CA011078
:0404A8000000000050
:0404AC00000000004C
:0404B0000800000040
:0404B4000000230021
:0404B8002C0C0020E8
:0404BC00010000003B
:0404C000740C002098
:0404C400080000002C
:0404C8000000000030
:0404CC00000000002C
:0404D0000000000028
:0404D4000000000024
:0404D8000000000020
:0404DC00010000001B
:0404E000DC0C002010
:0404E400060000000E
:0404E800010000000F
:0404EC00440D00209B
:0404F0000000000008
:0404F4000000000004
:0404F80000020000FE
:0404FC0000000000FC
:020502002900CE
:020504000100F4
:020506002500CE
:020508002D00C4
:02050A002E00C1
:02050C002F00BE
:02050E000100EA
:0105100001E9
:0105110000E9
:080514000400000038C90000DA
:08051C000000000000000000D7
:0405240000000100D2
:0405280000000300CC
:04052C0087C401106F
:04053000380500008A
:040534003805000086
:0405380000000000BF
:04053C00900000002B
:040540009000000027
:0405440000000000B3
:04054800740C00200F
:04054C001D6200002C
:040550002000000087
:0405540024C90000B6
:04055800BCC600001D
:04055C000DC30110BA
:040560007D680000B2
:040564007F680000AC
:0405680099C801101D
:04056C009BC8011017
:040570000000000087
:04057400110500006D
:04057800FCC50000BE
:04057C0014C60000A1
:04058000E4C50000CE
:0205840008006D
:0205860009006A
:02058800010070
:02058A0000006F
:01058C00016D
:040590000000000067
:040594000000000063
:04059800000000005F
:04059C00000000005B
:0405A000C967000027
:0405A400E967000003
:0405A800ED660000FC
:0405AC0013680000D0
:0405B00035670000AB
:0405B4000B670000D1
:0405B8006767000071
:0405BC003F68000094
:0405C0009561000041
:0405C400E1620000F0
:0405C800E5620000E8
:0405CC000800000023
:0405D0002400000003
:0405D400180000000B
:0405D80028000000F7
:0405DC0020000000FB
:0405E0003C000000DB
:0405E4000C00000007
:0405E80034000000DB
:1005EC00F8B501F0AFFADFF8245A0446287B02284C
:1005FC0002D000F097F801E000F034FAE87BDFF865
:10060C00AC6C60B3296F05F17C0001F093FA05F135
:10061C007C0001F014FA287B02280DD005F190071C
:10062C00696F384601F086FA384601F008FA287BE3
:10063C00022801D0A87C08B34FF47A71DFF8700C53
:10064C00FFF70EFD696F401805F1A40700F5FA617C
:10065C00384601F06FFA384601F0F1F90EE070708F
:10066C000320687095F8200010B9012085F820004F
:10067C0095F8200040F0100085F820000C22A87E90
:10068C00DFF8081D01EBC001497951432944CC62C4
:10069C006C6600F010FCA87C18B97070E87D401CEA
:1006AC00E875F1BD704710B500F037F802D000F0D6
:1006BC0039F801E000F0D6F9DFF8F01B02204870A1
:1006CC0000F001F810BD607094F8200040F01000AC
:1006DC0084F82000704710B500F01FF802D000F02D
:1006EC0021F801E000F0BEF9DFF8C01BA07C4A7DC8
:1006FC005AB908B10420487004206070606E01F093
:10070C0023FA616F884207D304E008B105204870D2
:10071C0005206070FFF7D8FF10BDDFF8F048207B94
:10072C0002287047DFF8040DC06A004710B5FFF7C8
:10073C00F4FF02D0FFF7F6FF01E000F093F9DFF8C9
:10074C006C0B417D012906D1A17C09B103214170BB
:10075C000320FFF7B8FF10BDF8B5DFF8D44CDFF875
:10076C00AC68DFF8487B04F1A405284601F0AFF92A
:10077C0096F820000021C0F30012002A55D0D4F8BE
:10078C008020530644BF22F04102C4F88020092285
:10079C0010422ED07A78022A1CBF7278022A0DD110
:1007AC00D4F8801049084900C4F8801000217175F4
:1007BC00317F797100213971B9600121B27C11430B
:1007CC0017D1C0F3C00100294DD0317800294AD18E
:1007DC00B17F7278B1721AB90020A067F07558E039
:1007EC00F27F914255D200F0EF0086F8200000F025
:1007FC00DBF896F82000C0F34000A0B1307F3979C7
:10080C0011B9F17E81420ED200217177B174397D1C
:10081C0011B9A16F491CA1677871D4F88000400808
:10082C004000C4F88000707F00286ED094F88000DF
:10083C00C0066AD400207077F27E307F90424CD292
:10084C0009284ADA401C3077C0B200EBD071490855
:10085C00A0EB4100012824D12056411E0129ACBF38
:10086C00401E00201CE0F27D94F820309A42C0F328
:10087C00400101D20A00B6D021B900207075306E4B
:10088C00401C30660020F075387D10B9A06F401CFC
:10089C00A067D4F8800040084000C4F88000A8E7A6
:1008AC00607000F098FA30B996F8200000F0EF0074
:1008BC0086F8200029E00820787000207075D4F8A4
:1008CC00800040084000C4F880000020B0743871EB
:1008DC00307F78716078B87012E00C2204F16401FA
:1008EC0004F12C00FFF7C9FBD4F88000400840004D
:1008FC00C4F8800000207075B0743871307F787146
:10090C00387D10B9A06F401CA067D4F88000810717
:10091C0044BF20F00200C4F88000D4F8800018BB5B
:10092C0096F82000C00709D5F16E0968384688474B
:10093C0096F8200000F0FE0086F8200096F82000C3
:10094C00C0F3C00048B1F16E89683046884796F80C
:10095C00200000F0F70086F8200096F8200000F048
:10096C00EF0086F8200004E000F064FD284601F05A
:10097C0066F896F82000C0F34000A0B1307B022846
:10098C0008BF00F06FF896F82000C0F3800020B983
:10099C00F16EDFF8340C4968884796F8200000F0B7
:1009AC00F90086F82000F1BD3EB5DFF8844ADFF887
:1009BC005C5604F1B80001F08AF8D4F8800020F0FD
:1009CC001000C4F8800095F82000C0F3C000C0B13E
:1009DC002878B0B900F0D8FAA87F401C80B200F09B
:1009EC00A5FA6070002300208DF808000022687CB6
:1009FC00C0018DF8040001A90020009002A800F0AD
:100A0C0007FB00F0E8F937BD38B5DFF8004604F114
:100A1C007C0001F05CF8DFF8941800204875207B0E
:100A2C00022803D1DFF8040A006B804701F098F824
:100A3C00A17E0022401800923024DFF8901B90FB1E
:100A4C00F4F44A784B6891F90010302505FB14003A
:100A5C00DFF87C4BDFF8945B9BB204FB005000F09A
:100A6C00B8F831BD38B5DFF8A45505F1900001F0A8
:100A7C002EF8287B00240228DFF8500B427B90F9DB
:100A8C000C100369DFF8A809406A08BF0124009420
:100A9C009BB200F09EF818B1DFF8101801204875D1
:100AAC0031BD10B5DFF8644504F1A40001F00FF876
:100ABC00A07C48B101206077DFF87409D0F8801071
:100ACC0021F00401C0F88010207B022801D1FFF72F
:100ADC00FBFD10BD2DE9FC4D0446082200216846A3
:100AEC00DFF84C79FFF7E1FAB88D00F070F80025CB
:100AFC000026D0B9F88D00F06AF8B0B9388E00F045
:100B0C0066F890B9788E00F062F870B9B88E00F083
:100B1C005EF850B9F88E00F05AF830B90C2207F193
:100B2C00640107F12C00FFF7A8FADFF8E084C8F89D
:100B3C00305001F015F84FEA101BAA4601F010F8DE
:100B4C0007EB4B0100EB0A030009898D0122A3EB93
:100B5C000010824011421FBFDFF8300800EBCA00C2
:100B6C000168002917D090F9041097F9012041F37E
:100B7C0003039A42A4BF41F3031191420BDB40796A
:100B8C000C2148434044006B002811BF761CEDB289
:100B9C000DF805A06D1C0AF1010ABAF1080FCDDBA6
:100BAC00E8B250B1EDB2691E0020FFF759FA1DF8FA
:100BBC00000088F81A00002003E0F6B226B14FF0CE
:100BCC00FF302060012000E02060BDE8F68D102190
:100BDC005CE02DE9F041DFF85468044670688AB097
:100BEC000D46174698468047002837D1F1682046B5
:100BFC008847DFF8D409109C0571012008900994EE
:100C0C00002007900690059004900390CDF8088082
:100C1C00082001903946002000900123DFF8D0090C
:100C2C00425DB7690120B847DFF8E003807B726D45
:100C3C00002814BF0FF6A4100FF6A810405D00F1A9
:100C4C000D01C9B201209047716B002C06BFDFF873
:100C5C00E007C06800208847012000E000200AB0AF
:100C6C00BDE8F081DFF8A4339B7B002B14BF0FF69B
:100C7C006C130FF670131018595C80B2814203DBB1
:100C8C00FF2801DC012070470020704730B500229E
:100C9C00002307E001249C4004EA0005A54208BF9C
:100CAC00521C5B1C8B42F5DBD0B230BD0A46824233
:100CBC00B8BF0246104670478842A8BF824201DB8B
:100CCC00012070470020704770B5DFF8643793F946
:100CDC00016014460025E8B1CC48320008BF056617
:100CEC0018D0006E402802D3002201251A7060280B
:100CFC0010D300F01F0001280CD1012E0ADB761E48
:100D0C0070B238B931B10C2203F1640103F12C003B
:100D1C00FFF7B3F92670284670BD00002DE9F043AB
:100D2C00BA4CA57D94F815800123A0F10209C5F1F8
:100D3C000F0EDFF8505AB9F1060F5FFA8EFE05EB75
:100D4C00080708F1010624D8DFE809F01E171E1762
:100D5C0004171E00AEF1020080450BDA062000F0ED
:100D6C001AF86075C0B22918401C0A716075012010
:100D7C00002320751846BDE8F083AEF101029045C2
:100D8C00F8DA00F008F8F1E7F045F3DA3871667537
:100D9C00EDE70220EFE738716675F6B2A81901711C
:100DAC00701C70471CB5994C647C0093E40113468D
:100DBC000A468DF8044001A900F02AF9010009D176
:100DCC00DFF8E80400218180DFF86416896FC160C8
:100DDC0000F001F816BD2DE9F04385B0002000901D
:100DEC008A4C207EFF2808BF0A2061D020B9A0665B
:100DFC0002E0707C88F801006846FFF76BFEDFF8B4
:100E0C003086002808F12806F3D008F1040798F979
:100E1C000110787FDFF8B4570A1A4CBF0021091A69
:100E2C003A6849B201A800F037FD01A80EC80EC5FA
:100E3C003A6896F9001001A800F02EFD01A9B1E85E
:100E4C000C100C3D05F10C00E146A0E80C10AD684F
:100E5C00207C10B97869B9690CE0DFF82809627D4B
:100E6C0098F901100078FFF7FDFE08B908201FE083
:100E7C00F86839692818206749440098616748B9AF
:100E8C00A17EDFF8080500EBC102D2E9000100F0F9
:100E9C0017FA0DE0B06D009940F01000B06508F144
:100EAC00B804204600F046FE204600F0C8FD0020A5
:100EBC0005B0BDE8F083F8B5DFF8D014534E01EB64
:100ECC00C0040C2560796843002130440163078D10
:100EDC00317CE1B9002000F037FEDFF8A819884218
:100EEC0038BF642007D3DFF8A419884234BF4FF40D
:100EFC007A7042F210700146B9426279B06F38BF15
:100F0C0039466A4332444143081A106306E0717E45
:100F1C0021B1B16F07FB01F2511A0163B06FB16ED1
:100F2C00F28C02FB0011081AB066F1BD302290FB66
:100F3C00F2F23023002103FB12021AB3010900EB79
:100F4C00D1614909B0EB411108BF01211AD0182118
:100F5C0090FBF1F1182202FB110109B9022111E0F9
:100F6C00C10800EB11710909B0EB011108BF032195
:100F7C0008D0810800EB5171C908B0EBC1000CBF5F
:100F8C00042105210846704710B5204C0020207420
:100F9C000022DFF89C0400F178010A604A602266A6
:100FAC00E275627722766275A2750121E17621776E
:100FBC00E184E17300F121018256082A05DA91F9E6
:100FCC0017309A42A8BF1A4602700A7E427090F8F7
:100FDC0059200A7000F15C01D1E9002300F12401D1
:100FEC00C1E9002300F164010C222C30FFF745F815
:100FFC000020608220750021E06D01E04162806A72
:10100C000028FBD10820A07610BD0000D0060020DF
:10101C002DE9F04F85B08B46DFF8746804930021FE
:10102C000391B184B17490460E9903B90021DFF895
:10103C005477DFF8604839700178217000784009E6
:10104C0007D0022841D004283DD0072800F01F818A
:10105C0029E10120B0840822716D601CFFF718F89B
:10106C00B08C316D0830B084082280B22018FFF7A4
:10107C000FF8B08C0830B084DFF8B00340698047BB
:10108C00B18C6054491CB184000489B2000E6054C8
:10109C00481CB08400F0FF01B26D03AB204600F099
:1010AC00FEFDB08C039900F005F9090A00F002F975
:1010BC00090C00F0FFF8090E2154401CB0840020EC
:1010CC0005B0BDE8F08F0120B074307C08B9072062
:1010DC00F6E79BF80000DFF8589309F101020121B3
:1010EC00C009FFF7F1FD9BF8001001F0BF0141EAC8
:1010FC0080108BF80000F17C29B10021F17440F0D4
:10110C0020008BF800000825D9F874006070010AE3
:10111C00A170010CE170000E2071DFF884A89BF81F
:10112C00000060715146D9F87800A071000AE07196
:10113C00707DB27D3844001DFEF79FFF707DB17D40
:10114C00049A08187075002A317D1CBF3A78002A61
:10115C001AD0C0B2102821DA01B39BF8001001F0AC
:10116C00F002411801F00F0111438BF8001061716E
:10117C0000218AB2824211D289B27A18EDB2127968
:10118C0062556D1C491CF4E7C2B2002A18BF002935
:10119C0004D0391D387004914FF000088DF8000010
:1011AC0000213175002000220AE00AF802305FFAB3
:1011BC008BF03A18C9B212790AF801204A1C401C6B
:1011CC009DF80030C1B299421AD2C0B2391800F160
:1011DC00010B0B79A3F1030E511CBEF1050FD2B21A
:1011EC00EDD8DFE80EF0050304070509E7E7DCE7B7
:1011FC005846E4E7801CE2E70AF802300A46DEE7CC
:10120C00B275B07D08B10120307509F1840B0498DA
:10121C00E0B13978080019D0EDB204F805806D1CE6
:10122C00EDB26019D9F87820D9F874300290B8F181
:10123C00000F019203D1002000905A4603E00020D9
:10124C00009009F19402049800F0D0FC3878EDB2CB
:10125C00411903A80290B1845A46D9F87800D9F8FC
:10126C007430019089B200200090204600F07EFC82
:10127C00B08C039A2118001D0A70039A120A4A7046
:10128C00039A120C8A70039A120ECA7016E7002B7E
:10129C0001D03A7810003FF412AF1946601CFEF7EB
:1012AC00ECFE387809E702200AE70000A0220020B3
:1012BC0018FCFFFF2154401CB08480B20399704786
:1012CC002DE9F343DFF868910FF2387099F901506A
:1012DC00DFF8BC75BF4C89B046579DF829000C212E
:1012EC004843384490F92A1099F90000FFF7DEFCC6
:1012FC008046012078706070A57084F8038009988E
:10130C004A4D2061E96809988847B98C6A6DC9B261
:10131C000120904740F6B8300890009600200790C6
:10132C000690059001200490002003900820029064
:10133C000120019000230FF2EC6010F90810EE6907
:10134C0000220120B047B98C6A6AC9B201209047CB
:10135C00B867A06078604FF47A7109F1A40000F0CE
:10136C00E9FB387C10B9B87F401CB877B98CAA6AF5
:10137C00DFF82005C9B29047D9F8800040F0010091
:10138C00C9F880000BB00020BDE8F083C822002013
:10139C002DE9F843DFF8F874DFF8EC84244D0446AB
:1013AC00B87E08EBC0000C2140794843384405F165
:1013BC00A40990F92A1095F90000FFF777FC06466E
:1013CC004FF47A71484600F0B5FB484600F037FB05
:1013DC000FF25060DFF8CC358157B87E58F83000EA
:1013EC00DB6B22469847D5F8800040F00100C5F829
:1013FC0080000020BDE8F28338B50B46114602464A
:10140C0018460A4BDFF8A045DB6B49B2984704F14C
:10141C00A40500F00FF8284600F011FBD4F880006A
:10142C0040F00100C4F88000002032BD78FE0100BD
:10143C00C02000204FF47A71284600F07BBB2DE9C8
:10144C00F84300281CBF0168002905D04168002919
:10145C001CBF8168002901D10320B3E0DFF83044C0
:10146C00DFF890810FF29452E06608F158070020E3
:10147C0084F820002073B862A07708F138050120A9
:10148C00E07700260020A0736066A0666076288056
:10149C000A2068600620287240F6B830E8604FF4E5
:1014AC007A7028614FF4FA60686141F28830A86163
:1014BC0041F27070E8610120387000207870D2E938
:1014CC00000108F15C02C2E900014FF6FF70B8811F
:1014DC00F88138827882B882F882DFF8AC0300EBAE
:1014EC00C60900F03DFB801900F008FC0022DFF873
:1014FC00BC3400F01BFC4FF0C042DFF8B43400F0F9
:10150C00EBFC00F073FDC9F80000761C502089F844
:10151C0004000020082E89F80500DEDB08F1040029
:10152C0069680160297A0171E96881602969C16083
:10153C0069690161A9694161E969816108F1A405E1
:10154C0039780177FFF720FDDFF86814284600F0A2
:10155C006FFAFFF76FFFDFF860141F4D08F1B8004A
:10156C0000F066FADFF8541404F17C0000F060FA25
:10157C00DFF84C1404F1900000F05AFADFF8441430
:10158C0004F1A40000F054FADFF83C046063DFF8C7
:10159C003C04E063DFF838046064DFF83804A063CF
:1015AC00DFF83404206404F1340029688847686942
:1015BC008047FEF74EFD01206073A96D8847E86AED
:1015CC0080470020BDE8F283202300200823002060
:1015DC00400D0300A022002078FE0100333333734A
:1015EC00DEDE000033333373DEDE0000E0F8D11DA5
:1015FC00101A0000C0200020F8B5074600240FB9CF
:10160C000320F2BDDFF8A05305F1380696F8480028
:10161C00C00701D50120F2BD3878DFF88813DFF858
:10162C0070221C2800F2A580DFE800F00F1C1F229E
:10163C00252830383DA34045544C5E66696C6F726A
:10164C00757B8A819598A39B9F003879107310B194
:10165C00022803D08EE0C86A80478BE09474FFF7B1
:10166C0001FA87E03879107484E03879507481E09D
:10167C007868B0637EE07868F0637BE07868002877
:10168C0067D00146102205F184002AE07868002812
:10169C005FD00146102205F1940022E03879507396
:1016AC00896D884766E03879907363E0D7E901016A
:1016BC0005F1240203E0D7E9010105F15C02C2E95E
:1016CC00000157E07868002843D001460C2205F150
:1016DC00640006E0786800283BD001460C2205F136
:1016EC002C00FEF7CAFC45E03879010031D01028F7
:1016FC002FDA85F820003DE07868E8603AE07868F9
:10170C00286137E07868686134E07868A86131E076
:10171C007868E8612EE000F02FF8D0B1387970705D
:10172C0028E000F029F8A0B13879687022E097F928
:10173C000400082200F023F858B13879307019E011
:10174C0097F90400082200F01AF810B138792870C3
:10175C0010E003240EE0786830640BE07868706465
:10176C0008E078687060686004E03879307228723C
:10177C0000E002242046F2BD97F904000522002166
:10178C00FFF79ABA8C220020F8B50546022645B31D
:10179C00854C94F88000C00716D43D4F0C220021D4
:1017AC003846FEF782FC01207870297897F82000E3
:1017BC00032940F0080058D8DFE801F0023C464D00
:1017CC0094F88000C00601D50120F2BD686800289D
:1017DC001CBFA868002804D0E86810B1287C010060
:1017EC0001D10320F2BD3028BCBF3020287497F8FB
:1017FC00200040F0080087F82000287838706868CE
:10180C003865A8687865E868B865287CF8770020A2
:10181C00B8778DF80000FFF7B7FBB87F401C80B29B
:10182C00FFF784FB60700023002200216846FFF75D
:10183C00B9FA19E087F820000022287838700021C6
:10184C000220FFF76BFA0FE087F820003E70A888A3
:10185C00FFF79EFD08E00321397087F820002A7BF2
:10186C00A968A888FFF7C8FD0646300007D00020FD
:10187C00B87497F8200000F0F70087F82000304685
:10188C00F2BD000080EE3600C8220020803F5C02D2
:10189C00D00600208C2100202DE9F04B84B080462E
:1018AC00164668460022002300241CC08DF8001048
:1018BC0049B20FF25810494A50F82170974205D09E
:1018CC00474A974204D08DF8013004E0012000E033
:1018DC0002208DF801000FF22C1251560120884085
:1018EC0000F00CFA04460D46384600F011FA024698
:1018FC000B462046294600F08FFB0022394B00F0A6
:10190C0015FA0446284890F808904FEA49000D460D
:10191C00083800F0F3F900F06DF807468B467000BC
:10192C0000F0F6F93A465B4600F0D6FA22462B4612
:10193C0000F072FB06460F4600F09AFC00F056FBD6
:10194C00814506D23046394600F092FC00F04EFB41
:10195C008146CDF804900020234900F04BF8064650
:10196C0001980F4600F0D4F900F044F800221F4B08
:10197C0000F0DCF902460B463046394600F0A8FC74
:10198C0000221B4B00F0A8FA00F072FC00F018FBD0
:10199C00029068460EC8A8E80E00BDE8FF8B000058
:1019AC00B822002078FE0100C0200020006A084107
:1019BC003508BC4165070000B5090000150A000098
:1019CC00710A0000AF0A0000ED050000B10600002E
:1019DC00E3060000B30600003907000090D00300B6
:1019EC0020A1070000408F40000010400000E03FA5
:1019FC00000008C022462B4600F098B920441E1E59
:101A0C00000000000C0B0A090807000048E8010060
:101A1C0048E8010048E8010048E8010048E80100F6
:101A2C0048E8010011100E0C0A0705021400000012
:101A3C000022026042600272C1600261704700B90C
:101A4C00704770B53A490B68194602E081422DD0B7
:101A5C0009690029FAD14268026001720BB911467A
:101A6C0002E019688A4202D2BDE870401FE01C698E
:101A7C000CB9511A16E025686D18AA4208D2511AF1
:101A8C00016014B12268511A21601861046170BDA3
:101A9C00234624692CB1266829467519002BECD1F4
:101AAC0070BD511B016018610021016170BD10B542
:101ABC001F4A136823B10468091B196000211972AD
:101ACC000121036101721060BDE810403EE0184A2C
:101ADC001368190000D1704710B538B3834216D182
:101AEC00197A61B10468196971B10020187211601A
:101AFC00086820180860012008720846E4E7196994
:101B0C0011B1046811600BE00020106010BD046876
:101B1C000B46096951B18142FAD1096921B11961A8
:101B2C0008682018086010BD0020186110BD000066
:101B3C007825002038B504460D46FFF7C8FF256010
:101B4C00656031BD002070470020704710B5044619
:101B5C00206800F07EFC2060BDE8104000F078BCEE
:101B6C000148007F70470000DC1F0020F8B50446D8
:101B7C00604F069878710D46180AF871BB71180CF5
:101B8C0038721646180E7872FD730798B872010AEF
:101B9C00F972010C000E7873397307F1200000F014
:101BAC008CFC314607F1200000F099FC10223946DC
:101BBC0007F1200000F099FC05F0FF02214607F127
:101BCC00200000F092FC07F1200107F1100000F05A
:101BDC00E1FCB97CF87C090441EA0060797C40EABC
:101BEC000120397C084308990860F1BD2DE9F047C4
:101BFC0080460D469246404C1F46F022002104F1CF
:101C0C002000FEF752FA04F120021021504600F099
:101C1C002FFF08986071A771380AE0710026380C04
:101C2C0020724FF00109380E60720998A072010AF7
:101C3C00E172010C2173000E60730A9F0FE000F03B
:101C4C001FF884F80F9000F089FF09F101090020BA
:101C5C0000F01CF81028FBDB1036103DF6B2ADB2CC
:101C6C00102DECDA55B184F80F9000F009F800F063
:101C7C0075FF002000F00AF8A842FBDBBDE8F087F6
:101C8C0004F1200204F11001204670478119231839
:101C9C0018F801201B7C5A40401C7A5470472DE9DF
:101CAC00F0410646134D0F4690461C4605F12000A8
:101CBC0000F003FC414605F1200000F010FC07F099
:101CCC00FF02314605F1200000F00FFC05F1200168
:101CDC0005F1100000F05EFCA97CE87C090441EAE7
:101CEC000060697C40EA0120297C08432060BDE843
:101CFC00F081000088070020C0080020010040F19E
:101D0C000980F446404200F005F851F0004160476C
:101D1C00010000BF09D0B0FA80F18840C91CC1F5A0
:101D2C008461090501EBD02140057047B0B581EA0B
:101D3C00030C0CF0004C40F2FF7515EA11541DBF5A
:101D4C0015EA1357AC42AF4239E0E41923EA455384
:101D5C0043F48013C90241F0004141EA505EC702CE
:101D6C001100A7FB020200284FF00000EEFB01203F
:101D7C004FF00001E3FB072118BF42F001024018AD
:101D8C0000214941E3FB0E01A4F580640F0302D24C
:101D9C0052004041494154F101046CDD470872F195
:101DAC00004250F1000051EB0451A1F580115CBFD1
:101DBC0041EA0C01B0BD4CEA05510020B0BD05EA6A
:101DCC001357AC4214BFAF4241E050EA410E1CBF66
:101DDC0052EA430E02E061460020B0BD24423C446E
:101DEC001BD15FEA070EF6D0090302BF01460020A3
:101DFC00AEF1140EB1FA81F7AEEB070401FA07FE4F
:101E0C000C37C7F1200100FA07F7C8404EEA000E64
:101E1C0023EA455343F48013A2E733F00043B3FAAB
:101E2C0083F704BFB2FA82FE77440B3FE41BB7F191
:101E3C00200E2FBF02FA0EF3BB40C7F1200E22FA80
:101E4C000EFE38BF43EA0E03BA40641C82E750EA28
:101E5C00410E14BF52EA430E6FF000014FF400170D
:101E6C0017EB430F8ABF194617EB410FB5E74CEA46
:101E7C0005510020B0BDD4F10104B4F120070FDAF4
:101E8C00C4F12007520828BF42F0010210FA07F5EE
:101E9C0001FA07F7E1BF2A43E0403843E1400FE085
:101EAC00352C98DCC7F1200452EA400220FA07F2E4
:101EBC0018BF42F0010231FA07F0A1400A43002199
:101ECC0072F1004250F1000051EB0C01B0BD026800
:101EDC00531C036011707047F0B44FF0004591EA49
:101EEC00030C44BF6B4000F0FDB900BF841A71EBCA
:101EFC00030603D2001BB141121973414FF4001CAD
:101F0C001CEB410F34BF7CEB430443E00C0DA4EB02
:101F1C001356352E50DC45EAC323DB0A45EAC121B2
:101F2C00C912B6F120050DDD63FA05F6EB4086EA21
:101F3C000305124218BF45F00105C01851F100010C
:101F4C000CD213E062FA06F5F2405540F3415A40C8
:101F5C00B340F3405A408018594107D349085FEA0F
:101F6C0030005FEA350528BF45F0010501F5801109
:101F7C00420875F1004250F1000041EB0451F0BCF5
:101F8C004FF4001C1CEB410F38BF70470020090DAB
:101F9C00090570471CEB410F10D252EA43060BD0D7
:101FAC00BCEB410F05D80C0DAB43661E342EB5DDD2
:101FBC0002E0AB4380185941F0BC7047F0BC70474D
:101FCC00F446400D40EAC120490006D200F014F856
:101FDC00004248BF6FF00040604700F00DF84FF032
:101FEC00004188428CBF084640426047400D40EAA1
:101FFC00C120490080F00D8040F00040490DA1F552
:10200C008061491C05D4D1F11F0154BFC840C017D1
:10201C0070474FF0000070472DE9F04140F2FF751A
:10202C0081EA030C0CF0004C15EA11541DBF15EAA3
:10203C001357AC42AF42E9E0BC41C1F31301C3F307
:10204C001303801A994143F4801304D2641E400098
:10205C00494180185941C90241EA5051B1FBF3F68C
:10206C0003FB1611A2FB0675D7EBC020A94102D2C7
:10207C00761E80185941C90241EA5051B1FBF3FE5A
:10208C0003FB1E11A2FB0E75D7EBC020A94103D296
:10209C00AEF1010E80185941890241EA9051760542
:1020AC0046EA8E2EB1FBF3F603FB1611A2FB067566
:1020BC00D7EB8020A94102D2761E80185941C90263
:1020CC0041EA50514EEA060EB1FBF3F603FB161132
:1020DC00A2FB0675D7EBC020A94102D2761E801850
:1020EC005941C90241EA5051B1FBF3F703FB1711F7
:1020FC00A2FB0735D3EBC020A94167F100070CBF49
:10210C00004247F0010766F3D5274FEA1E31B808A5
:10211C0014F5806414DDBD0775F1004250EB0E50D0
:10212C0051EB045111F5801F5CBF41EA0C01BDE875
:10213C00F0814CF07F6141F0E0410020BDE8F0817E
:10214C00BD076D0840EA0E5041F48011D4F1010432
:10215C00B4F120060ADAC4F120060200E04001FACC
:10216C0006F3E1401843B24015430EE0342C14DC66
:10217C00C6F1200445EA40056D0820FA06F2154325
:10218C0021FA06F0A1400D43002175F1004250F1F7
:10219C00000051EB0C01BDE8F08100205FEA0C015E
:1021AC00BDE8F081CFB992185B41B3FA83F704BF55
:1021BC00B2FA82F6BF190B3FB7F120062FBF02FA15
:1021CC0006F3BB40C7F1200622FA06F638BF3343AC
:1021DC00BA401CB1E419641E2FE77F4231F0004174
:1021EC00B1FA81F404BFB0FA80F6A4190B3CB4F137
:1021FC0020062FBF00FA06F1A140C4F1200620FAF8
:10220C0006F638BF3143A0403C1B16E7AC421ABF60
:10221C0005EA1357AF4214E050EA41061CBF52EADC
:10222C004306BFE750EA4107304661461CBF41EA0E
:10223C000551BDE8F08152EA430C08BFC143BDE82B
:10224C00F08100204FF4001616EB410F98BF16EBEF
:10225C00430F08BF16EB410F24BFC14305E016EB3B
:10226C00430F0CBF61464CEA0551BDE8F0810000FC
:10227C0040F2FF7C1CEA115240F2FE33D21ACCBF62
:10228C00D2F1350316E0B2F1150309DA6FEA4C53BB
:10229C00D340094201D4401E594100209943704754
:1022AC006FF00002DA40094202D4801851F10001AB
:1022BC0090437047352A09DA50EA41031CBF40F2BB
:1022CC00FF31090528BF4FF0004100207047000086
:1022DC00F0B44FF0004591EA030F44BF6B40FFF799
:1022EC0005BE00BF841A71EB030604D26E40001BBE
:1022FC00B141121973414FF4001C1CEB410F34BF58
:10230C007CEB430684E00C0DA4EB1356362E7DDCDF
:10231C00012E43DC45EAC32343EA525312BFD202D7
:10232C0092025B08240545EAC12141EA5051D2EBE7
:10233C00C020994125D407D1B0FA80F610FA06F1E5
:10234C0064D00020203608E0B1FA81F6B140C6F125
:10235C00200220FA02F21143B0404FEAF474B4EBBD
:10236C00465434F001064FEA74040AD8D6F5001628
:10237C00760D04F00044F04061FA06F25040F14052
:10238C004840C00A40EA415021F0004128BF5FEAB2
:10239C00500550F1000044EBD12137E045EAC3234E
:1023AC00DB0A45EAC121C90AB6F120050EDD42EA75
:1023BC000242120CC5F1200603FA06F6EB4042EA83
:1023CC0006056D42984161F100010DE062FA06F5D7
:1023DC00F240554063FA06FC82EA0C02F3405A4084
:1023EC006D42904161EB030111F4801F05D1641E15
:1023FC00620502D06D004041494121F4801143082F
:10240C0075F1004350F1000041EB0451F0BC7047F2
:10241C001CEB410F15D223F0004352EA43060BD0BC
:10242C004FEA4C0CBCEB410F04D80C0D661E342E3D
:10243C00B7DDEBE7801A994150EA410608BF00214D
:10244C00E4E708BF1CEB430F28BF6FF00001DDE78A
:10245C007047704762F30F2262F31F42401810F06E
:10246C00030308D0C91A1FD3DB0748BF00F8012D9E
:10247C0028BF20F8022D130030B41446154610392D
:10248C0028BF20E93C00FAD8490728BF20E90C00F6
:10249C0048BF40F8042D890028BF20F8022D48BF02
:1024AC0000F8012D30BC7047C91818BF00F8012D79
:1024BC00CB0728BF00F8012D704710B50446102239
:1024CC00002104F1F100FDF7F0FD0020C4F8140127
:1024DC00F0222046BDE810400021FDF7E6BD0B467A
:1024EC0002461021184600F0C3BA2DE9FF410446FC
:1024FC000D46D4F814010028164604F1F1083DD01D
:10250C00C0F11007B74288BF37462044BAB200F278
:10251C000110FDF7B2FDD4F8140138181028C4F8D6
:10252C00140135D3BE4233D00020211800F087F8B7
:10253C00FBDB22464146404600F010FBED19F61B32
:10254C001CE0002021182A5C91F8F110514022184F
:10255C00401C102882F8F110F4DB1022414668462A
:10256C00FDF78BFD22466946684600F0F7FA10220B
:10257C0069464046FDF781FD1035103E112EE0D224
:10258C00B2B2294604F20110FDF777FDC4F81461CC
:10259C00BDE8FF8130B589B004460D4600F04AF81D
:1025AC002A466946684600F0D9FA9DF800100906DB
:1025BC0002D500F06CF801E000F057F88DF80F1020
:1025CC00D5F81411102902D100F041F81EE09DF845
:1025DC000010090602D500F05AF801E000F045F8A9
:1025EC008DF80F108021D5F814212A4482F801119E
:1025FC00002202E0294481F80121D5F81411491C6C
:10260C001029C5F81411F5D300F021F80020291871
:10261C0000F015F8FBDB102205F1F10104A8FDF721
:10262C002CFD2A46214604A800F098FA00F002F886
:10263C0009B030BD102200216846FDF736BD401CA4
:10264C0011F8F12F0B7C5A4010280A7070470021AA
:10265C006A181DF8013092F801215A406B18491C78
:10266C00102983F80121F3DB704700210DEB0103E6
:10267C005B781DF80120DB0943EA42020DF80120CA
:10268C00491C0F29F2DB9DF80F10490070470021FF
:10269C000DEB01035B781DF80120DB0943EA4202D4
:1026AC000DF80120491C0F29F2DB9DF80F10490091
:1026BC0081F08701704700000A7802704A784270F6
:1026CC008A788270CA78C2700A7902714A7942712A
:1026DC008A798271CA79C2710A7A02724A7A427212
:1026EC008A7A8272CA7AC2720A7B02734A7B4273FA
:1026FC008A7B8273C97BC173704702780B785A400E
:10270C0002704B7842785A4042708B7882785A40EB
:10271C008270CB78C2785A40C2700B7902795A40D9
:10272C0002714B7942795A4042718B7982795A40C5
:10273C008271CB79C2795A40C2710B7A027A5A40B3
:10274C0002724B7A427A5A4042728B7A827A5A409F
:10275C008272CB7AC27A5A40C2720B7B027B5A408D
:10276C0002734B7B427B5A4042738B7B827B5A4079
:10277C008273C97BC27B5140C173704710B50B7813
:10278C0014786340037054784B78634043709478AA
:10279C008B7863408370D478CB786340C3701479A2
:1027AC000B796340037154794B796340437194798D
:1027BC008B7963408371D479CB796340C371147A7C
:1027CC000B7A63400372547A4B7A63404372947A67
:1027DC008B7A63408372D47ACB7A6340C372147B56
:1027EC000B7B63400373547B4B7B63404373947B41
:1027FC008B7B63408373C97BD27B5140C17310BD0B
:10280C0002780FF2A8318A5C027002798A5C4379F3
:10281C000271027A8A5C0272027B8A5C0273CB5C64
:10282C0042784370437ACB5C4371437BCB5C4372FD
:10283C008A5C837A4273CB5C827883708A5C837BFC
:10284C008272CB5C827983718A5CC37A8273CB5C33
:10285C00C27BC373C379CB5CC372C378CB5CC371CB
:10286C00895CC17070477FB5044621466846FFF706
:10287C0023FF9DF800509DF805600FF230510FF2C8
:10288C002C428E5D555D0FF2243000F0E9F8865D28
:10289C00754025709DF805609DF8005000F0B6F865
:1028AC009DF80A608E5D75409DF80F60865D7540E1
:1028BC00657000F0BFF8455D75409DF80A60965D47
:1028CC0075409DF80F608E5D7540A57000F0B2F8F4
:1028DC004D5D00F0C5F8965D7540E5709DF809609A
:1028EC009DF804508E5D555D00F0B2F8865D754024
:1028FC0025719DF809609DF8045000F087F89DF84B
:10290C000E608E5D75409DF80360865D7540657147
:10291C0000F076F8455D75409DF80E60965D75404B
:10292C009DF803608E5D7540A57100F069F84D5DF2
:10293C0000F08EF8965D7540E57100F070F88E5DD4
:10294C00555D00F07DF8865D7540257200F067F8E6
:10295C0000F05CF89DF802608E5D75409DF8076094
:10296C00865D754065729DF808509DF80D60455D5B
:10297C00865D75409DF80260965D75409DF8076018
:10298C008E5D7540A57200F04AF8865D4D5D00F0D5
:10299C0057F8965D7540E57200F03CF88E5D555D1C
:1029AC0075409DF80660865D00F03EF8257300F0DA
:1029BC0031F800F02BF89DF806608E5D00F034F8CD
:1029CC00657300F027F8865D455D75409DF80660DF
:1029DC00965D75409DF80B608E5D7540A5739DF8F6
:1029EC000C50495D9DF80150455D69409DF80650BD
:1029FC00405D48409DF80B10515C4840E0737FBD32
:102A0C009DF809609DF80450865D7047965D455DA4
:102A1C00754070479DF801609DF80C5070479DF80B
:102A2C000D609DF80850704775409DF80B60865DF1
:102A3C00754070479DF805609DF80050865D7047A5
:102A4C0075409DF80260865D75409DF80760704783
:102A5C0075409DF80E60865D75409DF8036070476B
:102A6C0075409DF80A60865D75409DF80F60704753
:102A7C002DE9F24510291CBF1829202983B002D159
:102A8C000B46144608E0002082F8F000FF2062E0BC
:102A9C0010F8015B04F8015B1D466B1EEDB2002DB6
:102AAC00F6D19DF80C001C308006000E0190000938
:102ABC00401E82F8F00008469DF80C30009301216E
:102ACC000FF2E80322E0009F192F08DB102C02976D
:102ADC0005D15D5D9E5D13F80CC013F808809DF860
:102AEC000C40041BE4B2144427787D4015540AF1C1
:102AFC00010567787E402E70001DA6788CEA0606CC
:102B0C006E70C0B2E47888EA0404AC70019CA042F8
:102B1C0020DA02EB000AAAF104042578667894F80E
:102B2C0002C094F80380009C90FBF4F704FB17049C
:102B3C00002CC8D12C469D5D13F80C6013F808C00E
:102B4C0013F80480CC091B274D407C4384EA4101D7
:102B5C00C9B2C4E7002004B0BDE8F085F0B5154655
:102B6C0085B00C4695F8F010E9B101466846FFF7C0
:102B7C0005FE012606E0FFF776FE39466846FFF7AC
:102B8C00BCFD761C95F8F010F6B28E4205EB0617DC
:102B9C006846F0D3FFF734FE3A4669462046FFF705
:102BAC00EDFD002000E0FF2005B0F0BD637C777BDD
:102BBC00F26B6FC53001672BFED7AB76CA82C97D2D
:102BCC00FA5947F0ADD4A2AF9CA472C0B7FD9326BE
:102BDC00363FF7CC34A5E5F171D8311504C723C3C2
:102BEC001896059A071280E2EB27B27509832C1A06
:102BFC001B6E5AA0523BD6B329E32F8453D100ED60
:102C0C0020FCB15B6ACBBE394A4C58CFD0EFAAFB43
:102C1C00434D338545F9027F503C9FA851A3408F0B
:102C2C00929D38F5BCB6DA2110FFF3D2CD0C13EC23
:102C3C005F974417C4A77E3D645D197360814FDCB8
:102C4C00222A908846EEB814DE5E0BDBE0323A0A9C
:102C5C004906245CC2D3AC629195E479E7C8376D20
:102C6C008DD54EA96C56F4EA657AAE08BA78252E45
:102C7C001CA6B4C6E8DD741F4BBD8B8A703EB566CE
:102C8C004803F60E613557B986C11D9EE1F89811BF
:102C9C0069D98E949B1E87E9CE5528DF8CA1890DAE
:102CAC00BFE6426841992D0FB054BB16C6F8EEF63C
:102CBC00FFD6DE916002CE56E7B54DEC8F1F89FA38
:102CCC00EFB28EFB41B35F452353E49B75E13D4C62
:102CDC006C7EF5836851D1F9E2AB622A0895469D6A
:102CEC0030370A2F0E241BDFCD4E7FEA121D5834CD
:102CFC0036DCB45BA476B77D52DD5E13A6B900C199
:102D0C0040E379B6D48D67729498B085BBC54FED0E
:102D1C00869A66118AE904FEA078254BA25D80058F
:102D2C003F2170F16377AF4220E5FDBF811826C3C8
:102D3C00BE35882E9355FC7AC8BA32E6C0199EA3CC
:102D4C0044543B0B8CC76B28A7BC16ADDB647414C6
:102D5C00920C48B89FBD43C43931D3F2D58B6EDA8F
:102D6C0001B19C49D8ACF3CFCAF447106FF04A5C60
:102D7C0038577397CBA1E83E96610D0FE07C71CC70
:102D8C009006F71CC26AAE6917993A27D9EB2B2229
:102D9C00D2A907332D3C15C987AA50A50359091A86
:102DAC0065D784D082295A1E7BA86D2CA584998D59
:102DBC000DBDB1545003A97D1962E69A459D40871B
:102DCC0015EBC90BEC67FDEABFF7965BC21CAE6A4C
:102DDC005A41024F5CF434089373533F0C52655EB6
:102DEC0028A10FB509369B3D2669CD9F1B9E742EDD
:102DFC002DB2EEFBF64D61CE7B3E7197F568002C43
:102E0C00601FC8EDBE46D94BDED4E84A6B2AE516E6
:102E1C00C5D75594CF100681F044BAE3F3FEC08AAF
:102E2C00ADBC4804DFC17563301A0E6D4C14352FE0
:102E3C00E1A2CC3957F28247ACE72B95A098D17F11
:102E4C00667EAB83CA29D33C79E21D763B564E1E77
:102E5C00DB0A6CE45D6EEFA6A8A4378B324359B73E
:102E6C008C64D2E0B4FA0725AF8EE918D5886F725E
:102E7C0024F1C751237C9C21DDDC86859042C4AAB9
:102E8C00D8050112A35FF9D0915827B93813B33381
:102E9C00BB7089A7B622922049FF787A8FF88017E9
:102EAC00DA31C6B8C3B07711CBFCD63ADFF800F0F4
:102EBC00D9C10110DFF800F025B10110DFF800F0E6
:102ECC0041AC0110DFF800F013C10110DFF800F085
:102EDC00B9C2011000B583B000F00DF8032114E065
:102EEC00E0B500F008F8042100F012F808B1002059
:102EFC000EBD02980EBD0821ADF800100190704770
:102F0C0000B583B0FFF7F7FF052100F001F807BD0E
:102F1C00ADF802106846DFF89C1C096808471520BC
:102F2C0001F00DBA162001F00ABA10B5044621467C
:102F3C00FF2001F0FEF914B9BDE8104005E0BDE832
:102F4C001040FFE7032001F03FBA032001F04EBA16
:102F5C000121142001F0EDB938B5DFF8605CDFF821
:102F6C00604C0120287004213C20207002206070ED
:102F7C000120A070DFF8900D007B00F00F00E070D6
:102F8C00204601F06FFB00F02FF8BDE8344001F053
:102F9C0015BB30B5DFF8245CDFF8244CDFF8680D86
:102FAC00017BB0F92E0095B001F00F018DF80200F5
:102FBC000212032028708DF800103C2020708DF830
:102FCC000120022060700320A07000201DF800205A
:102FDC002318401C0328DA70F8DB0621204601F088
:102FEC0041FB00F001F84BE029786218491DD070C4
:102FFC0089B20D2010712046704730B5DFF8B80B40
:10300C00017B95B001F00F018DF80010002111E04B
:10301C00DFF8F83CC1EB411423446A445C7B5470E8
:10302C009C7B9470DC7BD4701B7C13714318491C03
:10303C001B7D537101EB8102837B9942E8DBDFF846
:10304C007C4BDFF87C5B501C207000213C202870EE
:10305C00022068702078A87004E01DF801206B181D
:10306C00491CDA708142F8DBC11C284601F0FAFADF
:10307C0021786A18491DD07089B20D20107128462C
:10308C0001F09CFA15B030BD00B58FB008233C227E
:10309C0000216846FFF70AFFDFF8680D00F15001C8
:1030AC00079100234FF4587108916A46012106914B
:1030BC000FF27521FFF7FEFE0FB000BD3EB50820E4
:1030CC00ADF800000120DFF8EC1ADFF8EC4A0968D3
:1030DC00ADF8020041F26805684688479DF8040087
:1030EC006073029860644FF4CC70204401F036FB9E
:1030FC00A0644FF4D270204401F030FBE064002354
:10310C000020019000904FF47A724FF4A870DFF811
:10311C00F81C204401F0DEFA40200190002300202E
:10312C0000902A464FF49670DFF8581D204401F0A9
:10313C00D1FA802001904FF41663012000901A46BA
:10314C004FF48470DFF8401D204401F0C3FA4FF4B3
:10315C00005001900120009004F15400DFF82C2D58
:10316C00DFF82C1D134601F0B5FA4FF400700190F6
:10317C004FF47A63012000901A46DFF8181D04F111
:10318C00C00001F0A7FA4FF4004000F0C7F8FA2293
:10319C00DFF8041D04F19C0001F09CFA4FF4804010
:1031AC0000F0BCF841F28832DFF8F01C04F1780032
:1031BC0001F090FA4FF4807000F0B0F83222DFF892
:1031CC00E01C04F1E40001F085FADFF8D80C01F002
:1031DC0031FB4FF6FF7060846A460020606201216B
:1031EC0032208DF8000040F2044001F099FB294692
:1031FC00022001F04EFF2946032001F04AFF0FF296
:10320C0004121521002001F063FE44F6C740019022
:10321C0001208DF8030000208DF802008DF80100CC
:10322C0001208DF8000001AA04214FF4816001F007
:10323C007FFF0DF1030201214FF4806001F078FF54
:10324C000DF10202012140F2024001F071FF0DF17B
:10325C000102012140F2034001F06AFF6A4601219C
:10326C0040F2064001F064FF01F0FCFD607BDFF8EA
:10327C00305D01F009FE4FF0FF3001F026FE4FF0FB
:10328C00FF3001F0E6FD4FF4E870204401F036FB0E
:10329C004FF4EA70204401F08EFD607B01F088FD54
:1032AC00607B01F0DCFD02F03FF8DFF8600D01F00F
:1032BC00C4F901F035F802F011F902F04DF9DFF81C
:1032CC00740D02F097F901F041F800F039FF02F0AB
:1032DC00D2F9FC21284602F02FFA2878207001211F
:1032EC0068786070A878A070E878E0702879207110
:1032FC00132001F01EF8012100F09BFB012100F0CE
:10330C00A5FB37BD53696D706C6520424C4520435D
:10331C00656E7472616C0000000000000190002367
:10332C0001200090704700002DE9F04F87B0FFF7A7
:10333C00C5FEDFF884780FF24869DFF8646CDFF8BB
:10334C00744840F6C41807F19C0A05E000F068FBCD
:10335C0002207885002038850820ADF800000A206E
:10336C00ADF802004FF0FF300190684621688847A5
:10337C0020BB0820ADF80C000920ADF80E0003A806
:10338C00216888479DF81210059DB8B9BDF810004A
:10339C00102801BF787B8142284600F077FB6DB185
:1033AC002846FFF797FD09E0B86C01F002FA05001A
:1033BC0004D000F094FB2846FFF7A2FDB86CFFF791
:1033CC0081FD0028F0D0F86CFFF77CFD60B9F86C3B
:1033DC0001F0EFF90500F6D02978681C00F06FFEBB
:1033EC002846FFF78DFDEEE7788E4FF496717D1829
:1033FC00C10549D54FF6FF610840788607F1E40B0B
:10340C00787A01286AD1FFF78AFD002841D1B87C6F
:10341C00401CB874C0B21F2837DB05203885FC214E
:10342C00012038650020B874304602F085F98920F7
:10343C0030703246002070707080FC211920307181
:10344C008920387000207870788019203871892094
:10345C0001F0F1FF07F1780001F060F9584601F036
:10346C0074F9584601F071F900F0DAFA012100F014
:10347C00E0FA00F0D1FA00F0FEFA08B101F09EFA81
:10348C0000F0C5FA00207872A7E0584601F046F922
:10349C0024E0386D01280ED1584601F056F907F199
:1034AC00780001F052F9284601F04FF90C210FF287
:1034BC00D84001F083F800F0DBFA00F0CEFA00F00F
:1034CC00C8FA00203865B8747872324632218920E7
:1034DC0001F0B1FF3121304601F070F8787A022802
:1034EC007BD1FFF71FFD88BBB87C401CB874C0B201
:1034FC003D2829DB0620388505210020B874484674
:10350C0001F05CF800207872B87801000ED0062823
:10351C0006DA0021CAB2824238BF491CFAD305E050
:10352C00411F00E0491CCAB28242FBD3397831708A
:10353C007978B0707170F878F07038793071042047
:10354C0038656420B87228E0584627E0B97A3B8D7C
:10355C00386C0A0013D1062B23D000217972B97470
:10356C00042139656421B97202F010F900F080FA77
:10357C0000F073FA00F06DFA00F01BFA0DE064290C
:10358C000FDA6421B97202F001F900F071FA00F05F
:10359C0064FA00F05EFA00F014FA504601F0BEF83E
:1035AC001BE06529ACBF01200020062B0CBF0121BC
:1035BC000021084311D00020B872FFF7B6FC00F0D0
:1035CC004CFA00F046FA00F05AFA00F0F7F905212F
:1035DC00484600F0F3FF00F044FA788EC10711D58D
:1035EC004FF6FE71084078860020B863F8860120FB
:1035FC00387402A9B88F7A7B001FADF80800B88E1A
:10360C0001F0D0FC788E410622D54FF6BF710840F0
:10361C007886B87B30B900230FF6AC32002100F06D
:10362C00E3FF09E0FFF7E9FC00F025FA08B101F02F
:10363C00C5F9386C02F0AAF8386D012808D100F0F1
:10364C00EBF900F018FA08B101F0B8F900F0DFF965
:10365C00DFF8401B09684FF47A70B0FBF1F04CF2C4
:10366C0050314843DFF8301B08604FF4847007EB8F
:10367C00000B788E800542D501F080FF0146DFF803
:10368C001C0B01704FF6FF52788E10407886002983
:10369C0007F1C00031D101F041F8584601F03EF875
:1036AC00388D01282BD1DFF8E41707F1540001F015
:1036BC0037F8032078850020388500F051FDF88517
:1036CC00B7F92E0040450BDA00F0AAF902207885F4
:1036DC000E21002038850FF6E02000F06FFF0EE081
:1036EC00012100F0A6F900F097F900F0C4F908B137
:1036FC0001F064F900F08BF901E001F00FF8788E1D
:10370C00010651D54FF67F7108407886F87A401C37
:10371C00F87200F025FDF885002100F097F9F87A91
:10372C00642804BF0020F872307800283CD0387A26
:10373C00012814D100F045F90020387200F039F955
:10374C00FC21304600F03AFF307838707078787091
:10375C00B078B870F078F8703079387124E00228BD
:10376C0008D100F02EF900F03DF9F97883A000F0B3
:10377C002BFF17E003280BD100F034F9F9787FA068
:10378C0000F022FF00203872042000F048F90BE012
:10379C00042802D10120388504E0052804D1032037
:1037AC0000F03DF900203872788E410403D54BF6B9
:1037BC00FF7108407886788E010416D5C0F30E0090
:1037CC00B98D7886491C386DB98590B900F045F9EA
:1037DC0000F032F900F0E0F800F022F900F0E0F827
:1037EC00B88D022802DAFFF7D4FBA4E01528FCDB25
:1037FC002DE001281BD100F030F900F01DF900F08C
:10380C000FF900F0C9F80520388500F0C9F8388E9A
:10381C00142190FBF1F1142202FB110008B9FFF7FF
:10382C009BFB388EC92833DB0020388630E0052816
:10383C0018D100F012F900F0C9F8388E00F0F3F846
:10384C0000F0AAF800F0ECF8B88D152873DB00F046
:10385C000FF900F002F900F0FCF800F010F900F09C
:10386C00ADF85BE0042840D1B87A142816DA00F0E1
:10387C00F4F8388EB97A401C3886491CB97280B27B
:10388C0000F0D1F800F0CCF800F086F800F088F8E1
:10389C00B88DC9284FDB0020B8854CE005D100F06D
:1038AC00E7F800F0DAF800F0D4F8B87A401CB872F7
:1038BC0000F072F800F0B4F8B87A642810D1012145
:1038CC000020084337D000203886B885B87200F045
:1038DC0075F807F1540000F021FF00F0C2F82AE05F
:1038EC0000217828ECD10120EBE7032819D100F056
:1038FC00B4F800F06BF800F093F800F04DF8B88DC8
:10390C00292818DB00F0B4F800F0A7F800F0A1F8B3
:10391C0000F0B5F800F052F8002038650120388529
:10392C0009E000F0A5F800F098F800F092F800F02B
:10393C00A6F800F043F8788E81041ED54DF6FF7181
:10394C0008407886584600F0E9FE00F009FCF8853E
:10395C00B7F92E004045FFF6F9AC0220788501211D
:10396C000020388500F065F800F056F800F083F878
:10397C0008B101F023F800F04AF8EDE4256C64007E
:10398C004F4B210D0A000000536F5363616E63654A
:10399C006C210D0A0000000007F1540000F0D5BEA8
:1039AC00388E00EBD0714908A0EB4100C0B2FFF794
:1039BC00BCBA3246FC21892001F028BD504600F0EB
:1039CC00C4BE3246FC21892001F035BD388E401C26
:1039DC00388680B200EBD0714908A0EB4100C0B230
:1039EC00FFF7A3BAB8787978FA783B78401C491C71
:1039FC00521CB8707970FA70B07033707170F270CC
:103A0C00324638793071FC21892001F014BD002236
:103A1C000121032000F0BCBF284600F07FBE3865B2
:103A2C00504600F07BBE00EBD0714908A0EB410082
:103A3C00C1B2142000F07DBC388E401C388680B298
:103A4C0000EBD0714908A0EB4100C1B2122000F08C
:103A5C0070BC0021142000F06CBC0021132000F07D
:103A6C0068BC0020386501203885386C01F08EBEAA
:103A7C000020FFF75ABA0020B87300F09FBF002057
:103A8C003886B88507F1540000F048BE00B585B003
:103A9C00017891290BD0B02905D0D0291DD105B0C2
:103AAC005DF804EB8EE005B05DF804EB45E1417880
:103ABC000E2902BF818841F2054291420DD100F0DE
:103ACC00A5F980680FF2A07390F9030040420090B2
:103ADC0004213948006C01F05EFE05B000BD2DE9F3
:103AEC00F041054686B02888334C022834D004288F
:103AFC0038D008281CD010280AD0202856D1686845
:103B0C00FFF7C4FF686806B0BDE8F041FFF7E2B903
:103B1C00A878C10744BF01216172800744BF02200D
:103B2C00607204F1E40006B0BDE8F04100F0F6BDAF
:103B3C006C6860884FF6FF71884237D0012101F024
:103B4C00C2FA98B32188606800F0EAFD608806B07C
:103B5C00BDE8F04101F0E0BB68680178A87800F09E
:103B6C005CF91DE06868A78E067801F09FFCDFF811
:103B7C003016DFF82C26B0FBF1F102FB110856B120
:103B8C0000F0D5F8CDF800800022206C0FF25873AD
:103B9C00042101F000FE42460021384601F014F9E0
:103BAC00686806B0BDE8F041FFF7AAB906B0BDE8F9
:103BBC00F08100007C060020180A0020202F002035
:103BCC003030002070B5504CA67B86B005464FF6C1
:103BDC00FE70A97841B1012959D0052962D0062976
:103BEC0075D00D2912D08DE06889A087E81C00F0F3
:103BFC00EDFD00F095F80346206C0022012101F048
:103C0C00CAFD00F0CFF90FF2D05345E0E878002858
:103C1C0078D128690FF2F8610C22093001F0D0FD3F
:103C2C0000286FD1701CA073C0B23849C0EB401390
:103C3C0000221944AB188E185B7906F81F3C521CF5
:103C4C00092AF7DB092200F063F80D2AFBDB0D22B1
:103C5C0000F05EF80F2AFBDB0F2200F059F8112A56
:103C6C00FBDB628D01F80E2C2218E97AD174052841
:103C7C0048DBFFF7C2F90020A07300F09FFE08B1EB
:103C8C0000F09CFE06B0BDE87040FFF761B900F093
:103C9C004EF800960FF24C53206C0022022101F0DA
:103CAC007AFD2FE0697869B90220E0736889A086F3
:103CBC00608F38BB4FF4A870204406B0BDE870404C
:103CCC0000F02CBD0021E173A08621741AE00021C4
:103CDC00E173A08621746187AD88608CA84211D1F4
:103CEC00606A00F032FD608CA8420BD1606A30B182
:103CFC00FFF7ECF8606AFFF703F9002060624FF6FB
:103D0C00FF70608406B070BD180A002044260020A5
:103D1C002B6913448E181B7B06F81F3C521C7047F2
:103D2C0000210491039102910191009170470020B0
:103D3C0004900390029001907047DFF8681410B55E
:103D4C000446C87B022886B054D16378086C22796B
:103D5C00162B05D1009200F059F80FF2984337E07A
:103D6C000B2A0AD0012A0FD1227A0A2A17D100F085
:103D7C00A3F80FF29443217B28E000F09DF80FF29A
:103D8C009843E168097821E0132A10D14A7C00920B
:103D9C00531C4B7400F03AF80FF29C4318E0122AB3
:103DAC0023D100F089F80FF28043217B0EE07E2AAC
:103DBC0005D100F081F80FF29043217A06E07F2ABA
:103DCC000AD100F079F80FF290432189009100227A
:103DDC00042101F0E0FC0DE01B2A06D16189E068AA
:103DEC000023002200F000FC04E0087C10B1204607
:103DFC0000F068F8217904F1080006B0BDE8104025
:103E0C0001F0DFB97C2700200D4000000021049157
:103E1C00039102910191002270470200DFF88403A4
:103E2C0000B5006C85B004D1FFF77AFF0FF2484360
:103E3C0021E0012A0B460AD121B900F035F80FF226
:103E4C00484319E000F037F80FF24C4313E0022A14
:103E5C0005D1A1B900F028F80FF250430CE0032A69
:103E6C000DD121B900F020F80FF2504304E000F01E
:103E7C0022F80FF25C430022022101F08CFC05B009
:103E8C0000BD00001D4000006B40000020BF020080
:103E9C004D400000374000006140000057400000DA
:103EAC002D400000454000000491039102910191C6
:103EBC00009100227047009300210491039102911C
:103ECC000191704710B5B74C217C012986B01BD1EC
:103EDC000079032861D10FF220400FF27C33008867
:103EEC00ADF814000022FFF722FF042117200090E8
:103EFC00206C01F050FC022020740222637BA08E07
:103F0C0005A901F056F848E002292ED101790729BC
:103F1C0028D1018951B1C1680A784B7802EB032290
:103F2C00E2868A78C97802EB0121218740781A2829
:103F3C0033D1E08E010030D0ADF800000321208F8A
:103F4C00627BADF80200217402208DF804006946F2
:103F5C00F1208DF80500FF208DF80600A08E01F0F1
:103F6C003FF81AE0012918D1E3E7032915D10179AB
:103F7C00092910D1018971B1C1680FF28033087819
:103F8C00497800EB01206087002200F00BF8022139
:103F9C00206C01F000FC0020207406B010BD000065
:103FAC007C2500200020049003900290019000904A
:103FBC00704780B502460021202000F055F8401EC5
:103FCC008041C00F02BD38B50C4615460120FEF7E6
:103FDC0087FF020005D015702146BDE8384002204D
:103FEC0042E031BD10B51C460120FEF779FF30B11F
:103FFC0004700246BDE810400021042034E010BDDE
:10400C006848418E41F0010106E000009D4000002F
:10401C006448418E41F040014186406CFEF74EBF32
:10402C006048418E41F48071F6E75E48418E41F460
:10403C000071F1E71F41000001460022102013E03F
:10404C005848418E41F40051E6E75648418E41F400
:10405C008041E1E75348418E41F40041DCE751488F
:10406C00418E41F08001D7E770B504460D461646E7
:10407C000820FEF735FF50B104808570466002467B
:10408C00BDE87040474B596C986C00F06EBB70BD2E
:10409C0070B504460D46C820FEF722FF06000DD071
:1040AC0035702A462146701C01F0BCFB3D48416C22
:1040BC00C06C3246BDE8704000F057BB70BD70B5A7
:1040CC0084B004461E200D46ADF80000152DACBF83
:1040DC0014202846ADF8020000208DF808000120BD
:1040EC008DF8090000232F4EB08E1722122101F0FB
:1040FC0059F8019060B12A46214601F093FBB08E2D
:10410C00694600F06FFF18B11221684601F059F8AA
:10411C007FBD10B50446C820FEF7E2FE78B103213E
:10412C000170024661781F4B4170E17881706179B2
:10413C00C170BDE81040596CD86C00F016BB10BDB6
:10414C00144909684FF47A70B0FBF1F04CF250311D
:10415C0048431149086001211348416001607047D0
:10416C0010B5124909680968902088471048006802
:10417C00102101F0A8FB00220321002001F00BFC10
:10418C000C490020086001F035FC044601F0ECFB02
:10419C00204610BDD4FE010000000840043200206F
:1041AC0040420F00180A002000010043A00100103B
:1041BC008C0000101C900C404C6F77206261747462
:1041CC00617279210D0A00002B5343414E3D544935
:1041DC004D454F55540D0A00496E697469616C69FF
:1041EC007A656400426561636F6E20466F756E641C
:1041FC0020256400415454205273702064726F70F7
:10420C0070656420256400005265616420457272FB
:10421C006F72202564000000526561642072737017
:10422C003A202564000000005772697465204572BD
:10423C00726F722025640000577269746520736573
:10424C006E743A202564000046432056696F6C61F9
:10425C007465643A202564004D54552053697A6581
:10426C003A2025640000000052535349202D64422B
:10427C003A2025640000000050616972696E672065
:10428C00737461727465640050616972696E672041
:10429C00737563636573730050616972696E67202F
:1042AC006661696C3A20256400000000426F6E6400
:1042BC00696E67207375636365737300426F6E6418
:1042CC0020736176652073756363657373000000FA
:1042DC00426F6E642073617665206661696C6564FB
:1042EC003A2025640000000050617373636F6465AD
:1042FC003A20256400000000F0FF000053696D7047
:10430C006C652053766320466F756E640000000068
:10431C00FDA50693A4E24FB1AFCFC6EB0764782599
:10432C0010B5094C04F11001201D01F0F4FC2060C3
:10433C0010BD0A46C1B20448006801F0A9BD80B5A1
:10434C0001F087FDC0B202BDF005002038B501F0C8
:10435C0049FE2F4C204601F071FE002020746FF0B6
:10436C00004501202070E56064206060214601203A
:10437C002072002001F04DFEE06300F01AF801F00D
:10438C0048FE206400F015F8022001F042FE606443
:10439C002146002020740120207040F68C206060A3
:1043AC00012020721B48E060032001F032FEA06463
:1043BC0031BDE5600020207421460120207064206E
:1043CC006060012020727047032811490CD8DFE887
:1043DC0000F002040608C86B04E0086C02E0486CAC
:1043EC0000E0886C01F02FBE7047000003280849DC
:1043FC000CD8DFE800F002040608C86B04E0086C77
:10440C0002E0486C00E0886C01F020BE70470000B0
:10441C0028060020285C8F0200B58FB008233C22B0
:10442C0000216846FEF742FD864800F150010791D5
:10443C0000234FF4217108916A46022106910FF274
:10444C006501FEF737FD0FB000BD10B501F011FE90
:10445C007D4C204601F03AFE4FF41650A0612146E7
:10446C0003202077002060776075A07501202070F4
:10447C0000206070E075012020750FF22510E060BF
:10448C000020206101F00CFE704C606000222021A5
:10449C0001F0ECFD60686E49BDE81040C82201F0E7
:1044AC001ABE00002DE9F04786B00823182200211F
:1044BC00684601F013FF654C694604F1100001F0E9
:1044CC0011FF04F11000E060FFF7BFFFDFF88491EB
:1044DC00DFF884A1614FDFF888815D4D0CE0052188
:1044EC008AF800102846C82101F026F9B00703D538
:1044FC002178484600F062F8E0684FF0FF33032261
:10450C00002101F0EEFF0646F007EFD56068C822E7
:10451C00294601F0E0FD28783C28E0D1E9782429EF
:10452C0006D10522291D404601F07CF90121D7E76F
:10453C00A87823290ED1002108E0BA78192303FBAF
:10454C0002126B1842441B795371491C8142F4DBF3
:10455C000221C5E7212909D1B878192250434044DA
:10456C00291D401D01F05EF90321B9E7542904BF50
:10457C002979582906D1A9794F2902BFE9794B2904
:10458C000421ADD069788129A9D10621002282426B
:10459C00BFBFAB18DB7808F80230521CF7DB9FE783
:1045AC0070B52A4EF0680C461546012102F003F84E
:1045BC00B268A9B22046BDE8704010470A460146D1
:1045CC002248406801F08ABD0EB400B5B2B0014675
:1045DC0033AA00F025F882B21C484068694601F005
:1045EC007DFD32B05DF810FB08B430B5B2B000F010
:1045FC0020F848B935AA00F012F882B22A70694640
:10460C00204601F01FF901E000F00DF82A786868E7
:10461C00214601F063FD32B030BC5DF808FB194651
:10462C00684602F029B929700A460146204601F075
:10463C00F9B81346074C054D70470449886070471C
:10464C00000000004C2C0020442F0020202F0020C4
:10465C00682F002030300020200A0020180A00208B
:10466C007C250020002203E010F8013B9A18D2B2FE
:10467C000B46591E1BB2012BF6DA10467047000090
:10468C00DFF800F085C10110DFF800F0C1C20110A5
:10469C00DFF800F0E3BF0110DFF800F079B501108E
:1046AC00DFF800F0F5B80110DFF800F02DBF0110B5
:1046BC00DFF800F011BF011000B583B00821ADF890
:1046CC00001001900521ADF80210684651490968A7
:1046DC00884707BDF0B589B004460D4616461F46FF
:1046EC000823242200216846FFF7CAFF0F984A4985
:1046FC00096806906B464FF47A70B0FBF1F101FB40
:10470C0007F0059001FB06F20E98ADF81000294653
:10471C002046FFF7C1FF204609B0F0BDFFF7B8BF38
:10472C0038B504460D4601F0A8FE10B1204601F044
:10473C0096FE00F00CF800FB05F12046FFF7A4FFF5
:10474C002046BDE83240FFF7A3BF01F088BE3249D6
:10475C0009684FF47A70B0FBF1F0704710B504465D
:10476C000021FFF79DFF204610BD70B584B00446B4
:10477C000820ADF800000D460420ADF802000C2016
:10478C0024490968019016466846884758B9029929
:10479C0049B18E602046FFF787FF15B12846FEF71A
:1047AC008DFB012003E03046FFF786FF002004B0AC
:1047BC0070BD10B50446FFF77BFFA04204D084689F
:1047CC00FFF77AFF204610BD002010BD30B585B034
:1047DC00044668460FF24801142201F033F80F48E2
:1047EC0030210170A21D782141700623811C12F822
:1047FC00015D2D095B1E1DF8055001F8015B157854
:10480C0005F00F051DF8055001F8015BEFD105B05F
:10481C0030BD00007C060020D4FE0100F8300020E2
:10482C0030313233343536373839414243444546DA
:10483C000000000030B50446224D83B005F1300174
:10484C0005F13C0001F067FAA8600FF2390101F0A4
:10485C004FFBA8681C4A4FF4E02101F059FBA868F3
:10486C001A4A4FF4E02101F053FB00200190009014
:10487C00002364220FF2150105F10C00FFF72AFF4B
:10488C006C6037BD1248FFF749BF000010B50D4CE6
:10489C006068B0B100202070152001F0DAFA18B968
:1048AC00207840F001002070162001F0D2FA18B9DF
:1048BC00207840F00200207020786168BDE810403C
:1048CC00084710BD880600201500058016000580DD
:1048DC009406002000B583B0ADF800008DF80610EA
:1048EC000020DFF8AC120968ADF802006846884772
:1048FC0010B99DF807000EBDFF200EBD1CB5A54CD0
:10490C0000B1606004F10800019004F11C000090FB
:10491C0004F10C03A2786078082100F07BFB16BD33
:10492C0070B5034600244FF4806610469B1B0A4664
:10493C00984D08D05B1E0CD05B1E12D09B1E15D060
:10494C005B1E1AD021E0102915D1014605F10C008F
:10495C0004E010290FD1014605F11C0000F062FFA4
:10496C0014E0042907D10068A8600FE0012902D1E6
:10497C000078A8700AE0182408E038B1012905D1A4
:10498C000078032802DAE87000E00224204670BDAB
:10499C0070B504467F480D46417882B016465020CB
:1049AC00FFF798FF8DF800008DF801408DF802504C
:1049BC008DF80360684600F058FB76BD754840786A
:1049CC0000F057BB00B58FB008233C22002168468D
:1049DC00FEF76CFA704800F15001079100234FF478
:1049EC00DC7108916A46032106910FF20D01FEF766
:1049FC0061FA0FB000BD0000F0B585B00820ADF82D
:104A0C0008000120624C634D2168ADF80A0002A831
:104A1C0088479DF80C00687000F06FFB287005F15A
:104A2C000C021021022000F0F1FC05F11C021021F7
:104A3C00032000F0EBFC05F108020421042000F037
:104A4C00E5FC14E03078D02803D1304600F042F871
:104A5C000746002E18BF002F09D00820ADF8000023
:104A6C000320ADF8020001966846216888470820AB
:104A7C00ADF800000A20ADF802004FF0FF300190B5
:104A8C006846216888470028F1D10820ADF8080055
:104A9C000920ADF80A0002A821688847BDF80C105F
:104AAC009DF80E20049E0028E1D10127102904BF97
:104ABC0068788242CDD130884FF6FF718842C1D1DF
:104ACC0070884004C5D505F108020421042000F0CB
:104ADC00B2FCBEE73EB504462E4DA07840B1052889
:104AEC001CD0062823D00C2825D0112828D045E02E
:104AFC006078002842D105F10C021021022000F050
:104B0C009AFC05F11C021021032000F094FC0622F3
:104B1C00E11C05F12C0000F085FE2FE0607868BBED
:104B2C006289E0780823211D00F060F926E0A08856
:104B3C0000F073F922E0217BA08800F079F91DE0E8
:104B4C00E878012810D1A088ADF80000E088ADF815
:104B5C0002002089ADF804006089ADF80600A08938
:104B6C00ADF80800012004E040B9A088ADF80000C1
:104B7C0000208DF80A00684600F06FFA686828B1CA
:104B8C000168080002D0204688473EBD01203EBD8A
:104B9C007C060020BC050020D41D0020E0B50821B7
:104BAC00ADF800100190022100F00FF808B10020C0
:104BBC000EBD02980EBD00B583B00821ADF80010F3
:104BCC000190032100F001F807BDADF80210684612
:104BDC00DFF8A813096808471FB5ADF806108DF863
:104BEC0004000824DFF894138DF808200393ADF823
:104BFC000040ADF8024068460968884704B010BD13
:104C0C0030B585B0144608220291ADF80020192267
:104C1C00DFF8681309680190ADF802201D4668465C
:104C2C00884714B1BDF80C10218015B19DF80E10F9
:104C3C002970089A0499116005B030BD00B583B095
:104C4C000820ADF800001A2000F015F810B99DF8F6
:104C5C0004000EBDFF200EBD00B583B0ADF8000002
:104C6C008DF80610002000F006F810B99DF807002A
:104C7C000EBDFF200EBDDFF804130968ADF802006D
:104C8C006846084750B110F1040F01D10420704759
:104C9C0010F1030F01D102207047012070478123CE
:104CAC00037042EAC111002341F47C41C37081803E
:104CBC0070478223037081800023C3708271704718
:104CCC003EB504460820ADF800000D462020ADF896
:104CDC0002001020DFF8A4120968ADF80400684641
:104CEC00884720B9029810B16FF004003EBD0095C2
:104CFC000023002221464FF0FF30FFF781FF3EBD1D
:104D0C0010B582B01446CA78012A03D18A88DFF81C
:104D1C00C4341A8000F010F858B900906946204647
:104D2C00FFF7CEFF28B900984478FFF744FF2046E0
:104D3C0016BDFFF7A7FF16BD0B46022210214BE74D
:104D4C0038B51C461546FFF7F7FFC0B90090694609
:104D5C002846FFF7B5FF90B900984578280002BFA8
:104D6C000098C079A04205D1009881680498224629
:104D7C0000F058FD0098FFF71EFF284632BDFFF7E4
:104D8C0081FF32BDF8B500F033FA00F099F9070055
:104D9C000DD032462946FFF78CFF00F062F93872CD
:104DAC00FFF74CFF3B4601B0BDE8F0408AE0F1BD97
:104DBC0010220121E6E738B500F0D8F9050002D041
:104DCC000422012175E031BDF8B500F0C6F90700E9
:104DDC000AD0132200F03BF800F045FB3946BDE841
:104DEC00F840DFF8F4238BE70420F2BD2DE9F04105
:104DFC0000F045F907000FD0142200F028F83C729F
:104E0C00FD603E8287F81280FFF718FF3946BDE837
:104E1C00F041DFF8C82373E71EE038B500F041F825
:104E2C00050004D0152200F012F82C8144E031BDAD
:104E3C0070B500F0BAF8060008D0162200F007F89A
:104E4C0000F032F83346BDE870403BE070BD012104
:104E5C002FE7002204217CE00420BDE8F081102221
:104E6C0002218FE710B500F087FA04000AD0112256
:104E7C0000F01DF8FFF7E2FE2146BDE81040DFF818
:104E8C0060233DE7042010BD38B500F00AF805009A
:104E9C0006D0122200F00BF800F0E3F828720BE0B9
:104EAC0031BD04460A2079E63481B572C6E602218A
:104EBC00FFE6FFF7FEFEAC60FFF7C0FE2B4601B02D
:104ECC00BDE830400222102186E60022032140E09A
:104EDC0000B583B00FF2490301930623009303231B
:104EEC0000F04EF80EBD1078802802BF508840F2BA
:104EFC007F61884208D19088984202BF91790098CE
:104F0C00814201D1012070470020704710B582B05A
:104F1C000624FFE70094FFF7E6FF16BD0000000033
:104F2C000323F3E71078802802BF508840F27F619A
:104F3C0088420CD19088032818BF042807D1907997
:104F4C0001001CBF1028112801D10120704700203E
:104F5C007047F8B500F0F1F907000CD0324629463D
:104F6C00FFF7A7FEBC60FFF769FE3946BDE8F840C5
:104F7C00DFF87022C4E60420F2BD00007C0600209D
:104F8C002DE9F04100F03FF807000AD0069A41469F
:104F9C00FFF78FFE3C817D8100F067FA079A00F0E5
:104FAC000FBA59E7022300F0E5B804460D460C2071
:104FBC00F4E52DE9F04100F062F807000FD006226D
:104FCC0000F01FF83C81BE72FD6000F01BFA00F08F
:104FDC00CAF83946BDE8F0410FF21D3290E63BE7C6
:104FEC003423C7E038B5FFE704460D46FFF726FE2D
:104FFC0002462946204601B0BDE830403623B9E0D0
:10500C00424603214BE604460D46164698461020B0
:10501C00FFF7C4BD2DE9F04180460D4616461F46EC
:10502C001820FFF7BBFD040014D0002200F02EF86E
:10503C0000F0E8F920726572A672E76006982061AC
:10504C0007986061FFF7FAFD2146BDE8F0410FF2C9
:10505C00192255E600E70021CEE00FF211231222AF
:10506C00F9E721465020FFF7F7BD0FF20523042284
:10507C00F1E70FF201230522FFE70021CDE0044602
:10508C000D46164698461420FFF788BD0421FFF7FD
:10509C0006BE70B5FFF789FF06000BD03022FFF774
:1050AC00F5FF00F009F83146BDE870400FF2C91267
:1050BC00FFF726BE042070BD34817581FFF7BEBD9D
:1050CC000A20FFF76BBD7CB5044600208DF8040068
:1050DC000D460C20FFF762FD06000BD01122FFF7E6
:1050EC00B6FEFFF7E1FE00F019F80FF2911231460F
:1050FC00FFF726FE9DF8040076BD1CB500F039F9CB
:10510C0004000AD01222FFF7A2FEFFF797FD00F071
:10511C0005F80FF2711200F008F803E001A90091F4
:10512C00012370479DF8040016BD2146FFF708BE09
:10513C00F8B500F012F807000DD03622FFF7A6FFE5
:10514C003C817D8100F091F93946BDE8F8400FF2C1
:10515C004512FFF7D5BD0420F2BD04460D46164698
:10516C001020FFF71BBD3874FFF768BD04460C20F8
:10517C00FFF714BD2DE9F041FFF781FF07000FD0B9
:10518C00FFF73EFF3C81FD60314600F03CF9FFF734
:10519C00EAFF3946BDE8F0410FF2FD02FFF7B0BD62
:1051AC00FFF75ABE38B514460F4A15682A0006D0C8
:1051BC00009302460B4621460120A84732BD002031
:1051CC0032BD0A4A13681A0003D00A460146012070
:1051DC0018477047E00E0020095300000F530000E1
:1051EC0015530000314F0000B8200020BC200020D7
:1051FC0004460D46164670472DE9F041FFF703FFB4
:10520C00070004D000F005F8BC60FD60D5E0FFF7A6
:10521C0023BE32460421FFF742BD2DE9F041FFF7D2
:10522C00F2FE070006D0FFF7F4FFFFF71AFF387203
:10523C00FD60C2E0FFF710BE1078802802BF5088D6
:10524C0040F27F6188420CD190884FF6807101400A
:10525C00B1F57E4F04BF00F07F00984201D10120D0
:10526C0070470020704700000023E5E71223E3E7B6
:10527C000423E1E70523DFE73023DDE780B51123C5
:10528C0002E0000080B5122300930123FFF72BFEF0
:10529C0002BD00003623CFE71078802802BF50886B
:1052AC0040F27F6188420DD190884FF680710140A9
:1052BC004FF68052914205D100F07F00012801DBAE
:1052CC0001207047002070471078802802BF50885A
:1052DC0040F27F6188420DD190884FF68071014079
:1052EC004FF68052914204BF00F07F00984201D1EA
:1052FC0001207047002070470623E5E780B5132393
:10530C00C2E780B51423BFE780B5112300930223B5
:10531C00BCE700F034F802BD80B50FF2D10100F00B
:10532C0069F841F20540F4E70FF2090142F22F004F
:10533C0009E0000042F22F0347E004460D461646F2
:10534C000C20FFF72BBC70B504460D4600F014F88A
:10535C0006000CD081203070B4800120F070FFF773
:10536C006DFC2A463146BDE87040FFF7C9BC0420ED
:10537C0070BD00208DF804000820FFF70FBC2DE94C
:10538C00F041FFF735FF98460E20FFF707FC0700AA
:10539C0009D000F00AF83D817E81A7F80C80FFF758
:1053AC004DFC069A0CE0FFF757BD812038700120A8
:1053BC00F870BC8070473D81FE60FFF73FFC4246B1
:1053CC003946BDE8F041FFF79BBC1078802802BF3E
:1053DC00508840F27F61884204BF9088984201D186
:1053EC0001207047002070470000000041F2054387
:1053FC00EBE70000009100230146002270473C813E
:10540C007D81BE8141465020FFF726BCF8B5FFF7E1
:10541C00A4FE07000DD0012200F022F83C727D7230
:10542C0000F023F83946BDE8F8400FF27902FFF797
:10543C0067BC0420F2BDF8B5FFF78FFE07000DD056
:10544C00022200F00DF83C727D7200F00EF8394625
:10545C00BDE8F8400FF25102FFF752BC0420F2BD38
:10546C000521FFF71CBC3C81BD72FE60FFF7E6BB5B
:10547C001078802802BF508840F27F6188420DD19D
:10548C0090884FF6807101404FF68062914204BFC4
:10549C0000F07F00984201D1012070470020704736
:1054AC00000000000123E3E70223E1E71CB5002024
:1054BC000190FFF761FF04000BD00522FFF7D0FF2E
:1054CC00FFF7BCFB01A9009104230FF20D02FFF7BB
:1054DC002CFE019816BD00000523C9E710B501F09C
:1054EC00E1F91C4C204601F009FA012020722146FA
:1054FC000020E0606060207001F0EBF9206110BDCD
:10550C0000B589B00022ADF800208DF800008DF8B0
:10551C00011002200290039218208DF814000492BE
:10552C000692CDF804D001A90DE001B588B008A809
:10553C000090029101200190039218208DF8100028
:10554C006946002005900348006901F0DAF909B0BA
:10555C0000BD00000020002080B503210F20FFF7C4
:10556C00CFFFBDE8044008211020FFF7C9BFC307D7
:10557C0044BF800940EA810290B2704770B588B090
:10558C0005A80021C0E90011072205A90220FFF798
:10559C00CCFF05AE74789DF814002146FFF7E7FFA9
:1055AC00F578B0782946FFF7E2FF76799DF8180078
:1055BC003146FFF7DCFFA5F12E001D288041A5F137
:1055CC00A6011D298941C90F51EAD0700FD00020C6
:1055DC0004900390029601950094002207480FF264
:1055EC0024030068062100F0D6F8002000E001201A
:1055FC0008B070BD0249086070470000580A0020CE
:10560C00FC1F0020583A256420593A2564205A3A48
:10561C0025640000704770470178002904BF40786A
:10562C00002802D14049012008707047FF207047C4
:10563C0002281BD0052817D0072813D00A280FD012
:10564C000C280BD00E2807D0102803D014280FD10B
:10565C0008207047012070470220704703207047D4
:10566C0004207047052070470620704707207047BC
:10567C0000207047704730B58BB001F061F92A4DAE
:10568C0005F11001281DFBF7DAFE802001F03EFA2F
:10569C0000208DF80000254C207E022818BF002029
:1056AC0000F03DF800F036F800F039F807208DF8DE
:1056BC000000012000F033F80FF2740103A8D1E9C7
:1056CC000023C0E900230DE08DF81400079403A813
:1056DC00069004F10800089003208DF8240005A81A
:1056EC00FCF752F828780028EED002208DF8000044
:1056FC00607E00B1012000F012F800F00BF800F011
:10570C000EF815208DF8000094F91B0000F007F836
:10571C000BB030BD16208DF80000A07E88E78DF808
:10572C0004006846FBF768BF040A0020DC1F002059
:10573C001223344556677889002219F05FBC0000AB
:10574C002DE9F8430D0008BF0FF270050446002741
:10575C00DFF8349000E07F1C0C2000FB07F859F8B0
:10576C00086076B1BC4203D0B06980472042F2D0C9
:10577C00C84432682946404690470028EBD0404642
:10578C0000E00020BDE8F283A0FA010010B101682E
:10579C0049680847704700B9704710B586B00C9C33
:1057AC0004940B9C03940A9C0294099C0194089CFD
:1057BC0000940468E468A04706B010BD0300000024
:1057CC000300002013F0030F09D0521E22BF13F860
:1057DC00010B11F801CBB0EB0C00F3D07047121F8A
:1057EC0022BF53F8040B51F804CB6045F7D0121DBF
:1057FC000AD200BA9CFA8CFCB0EB0C0038BF6FF0EC
:10580C00000088BF01207047521E22BF13F8010B05
:10581C0011F801CBB0EB0C00F6D0521C08BF1046AF
:10582C007047000062B38B0708D0521E11F8013B81
:10583C0000F8013B00F024808B07F6D1830740F081
:10584C00208000BF103A07D330B4B1E83810103ABA
:10585C00A0E83810F9D230BC530724BFB1E80810C7
:10586C00A0E8081044BF51F8043B40F8043BD207B1
:10587C0024BF31F8022B20F8022B44BF0B780370A5
:10588C007047083A07D3B1E80810083A40F8043BCF
:10589C0040F804CBF7D25307E4E7000070B5044698
:1058AC0019F0C6FB451EAD41ED0F124E30680028B5
:1058BC00FCD0A04701203060002D1CBFBDE870401B
:1058CC0019F0BABB70BDF8B504460D4619F0B0FB23
:1058DC00461EB641F60F074F38680028FCD0284604
:1058EC00A04701203860002E1CBFBDE8F14019F024
:1058FC00A3BBF1BD00800C4070B504460D461646A6
:10590C0019F096FB401E8041C00F3D490A68002AE1
:10591C00FCD0012E02D0022E02D003E0257002E052
:10592C00258000E0256001220A6018B1BDE87040B6
:10593C0019F082BB70BD0B461146324A904201D120
:10594C0031480EE0181800F8101F70470B4611462E
:10595C002C4A904201D12D4803E0181800F8201F62
:10596C0070470122C018C7E710B5264C49220A21FE
:10597C002046FFF7EBFFFB2208212046FFF7E6FF4E
