:10000000404300204DD0000001CA011001CA011078
:1000100001CA011001CA011001CA011001CA011070
:1000200001CA011001CA011001CA011001CA011060
:0C00300001CA011001CA01103FCA0110F2
:10003C0010B5094C04F11001201D03F0E0FD206007
:10004C0010BD0A46C1B20448006803F095BE80B5E5
:10005C0003F073FEC0B202BDF00500200268531C11
:10006C000360117070470000002204F0EFBE000026
:10007C00FF7F00400000000010B50A4B1C6824F400
:10008C0080641C6009021202090CA4B202F47062B2
:10009C0044EA014442EA0141C0F387101C60084362
:1000AC00586010BD148002407B756E6B6E6F776E5E
:1000BC002D696E7374616E63652D6E616D657D0067
:1000CC007B656D7074792D696E7374616E63652DCB
:1000DC006E616D657D0000007B7374617469632DC6
:1000EC00696E7374616E63652D6E616D657D000064
:100100003C0000000000000000000000340100007E
:1001100000000000000000000100000000000000DE
:1001200000000000000000000000000001000000CE
:0C013000000000000800000000000000BB
:10013C003400000000000000000000006801000016
:10014C0000000000000000000100000000000000A2
:10015C00010000000000000000000000080000008A
:04016C00000000008F
:1001700030000000000000000000000098010000B6
:10018000040000000000000001000000FFFFFFFF6E
:10019000FF00000001000000080000000000000057
:1001A0002C0000000000000000000000C40100005E
:1001B000040000000000000001000000FFFFFFFF3E
:0C01C000FFFFFFFF08000000000000002F
:1001CC0034050000E401000099A1011095A701106D
:1001DC00A5C2011009B2011045B8011000000000C1
:0801EC00000000002F000000DC
:1001F40028000000000000000000000014020000BD
:100204000000000000000000FFFFFFFF00000000EE
:080214000800000000000000DA
:10021C00300500003002000069C201106DC10110F0
:10022C001FC2011095BA0110000000000000000070
:04023C002D00000091
:10024000300500005402000075C20110A9B601106B
:100250009DBF011049B60110000000000000000021
:040260002E0000006C
:1002640024000000000000000000000080020000E4
:100274000000000000000000000000000800000072
:040284000000000076
:10028800240000000000000000000000A40200009C
:10029800000000000000000000000000080000004E
:0402A8000000000052
:1002AC00240000000000000000000000C802000054
:1002BC000000000001000000000000000800000029
:0402CC00000000002E
:1002D00000000000D808002004000000000000001A
:1002E000000000002000000070010000300000004D
:1002F0001C020000F80800200400000000000000BC
:10030000000000000C000000300400001800000095
:10031000400200000009002004000000000000006E
:100320000000000024000000480400001800000045
:100330000000000040090020040000000000000050
:100340000000000010000000A00100002C000000D0
:10035000CC0100004809002004000000000000005B
:1003600000000000200000006402000024000000E3
:10037000FFFFFFFF680900200400000000000000EC
:100380000000000028000000880200002400000097
:10039000FFFFFFFF9809002004000000000000009C
:1003A00000000000580000003C0100003400000084
:1003B000FFFFFFFFA0090020040000000000000074
:1003C00000000000100000006004000018000000A1
:1003D000FFFFFFFFA809002004000000000000004C
:1003E000000000001C000000AC020000240000001F
:1003F000FFFFFFFFB0090020040000000000000024
:100400000000000038000000F40100002800000097
:10041000FFFFFFFF180A002004000000000000009A
:100420000000000054000000000100003C0000003B
:100430001800000000000000000000004004000060
:080440000800000000000000AC
:100448001800000000000000000000005804000030
:08045800080000000000000094
:100460001800000000000000000000007004000000
:0804700008000000000000007C
:0804780001000000DCD00000CF
:040484000100000073
:0404880000000E0062
:04048C0000000F005D
:040490003200000036
:040494000100000063
:04049800E008002058
:04049C00000200005A
:0404A0000000000058
:0404A40001CA011078
:0404A8000000000050
:0404AC00000000004C
:0404B0000800000040
:0404B4000000230021
:0404B800080900200F
:0404BC00010000003B
:0404C00050090020BF
:0404C400080000002C
:0404C8000000000030
:0404CC00000000002C
:0404D0000000000028
:0404D4000000000024
:0404D8000000000020
:0404DC00010000001B
:0404E000B809002037
:0404E400060000000E
:0404E800010000000F
:0404EC00200A0020C2
:0404F0000000000008
:0404F4000000000004
:0404F80000020000FE
:0404FC0000000000FC
:020502002900CE
:020504000100F4
:020506002500CE
:020508002D00C4
:02050A002E00C1
:02050C002F00BE
:02050E000100EA
:0105100001E9
:0805140004000000A0D000006B
:08051C000000000000000000D7
:0405240000000100D2
:0405280000000300CC
:04052C0087C401106F
:04053000380500008A
:040534003805000086
:0405380000000000BF
:04053C00900000002B
:040540009000000027
:0405440000000000B3
:040548005009002036
:04054C000541000065
:040550002000000087
:0405540064D000006F
:04055800BCCD000016
:04055C000DC30110BA
:04056000974B0000B5
:04056400994B0000AF
:0405680099C801101D
:04056C009BC8011017
:040570000000000087
:040574008000000003
:04057800CC000000B3
:04057C00E400000097
:04058000B4000000C3
:0205840008006D
:0205860009006A
:02058800010070
:02058A0000006F
:01058C00016D
:040590000000000067
:040594000000000063
:04059800000000005F
:04059C00000000005B
:0405A0007D47000093
:0405A4009D4700006F
:0405A800A146000068
:0405AC00C74700003D
:0405B000E946000018
:0405B400BF4600003E
:0405B8001B470000DD
:0405BC00F347000001
:0405C0007D4000007A
:0405C4008D42000064
:0405C800914200005C
:0405CC000800000023
:0405D0002400000003
:0405D400180000000B
:0405D80028000000F7
:0405DC0020000000FB
:0405E0003C000000DB
:0405E4000C00000007
:0405E80034000000DB
:1005EC00DFF800F0D9C10110DFF800F025B10110DF
:1005FC00DFF800F041AC0110DFF800F013C101107E
:10060C00DFF800F0B9C2011000B583B000F00DF8AE
:10061C00032114E0E0B500F008F8042100F012F812
:10062C0008B100200EBD02980EBD0821ADF80010D7
:10063C000190704700B583B0FFF7F7FF052100F07C
:10064C0001F807BDADF802106846DFF8A81C096870
:10065C0008471520FFF7FBBC1620FFF7F8BC10B5B8
:10066C00044621461D20FFF7ECFC14B9BDE81040F0
:10067C0005E0BDE81040FFE7032001F095BA032028
:10068C0001F0A4BA01211420FFF7DBBC38B5DFF868
:10069C006C5CDFF86C4C0120287004213C2020702D
:1006AC00022060700120A070DFF84C0C007B00F081
:1006BC000F00E070204601F0C5FB00F02FF8BDE8FC
:1006CC00344001F06BBB30B5DFF8305CDFF8304CF8
:1006DC00DFF8240C017BB0F92E0095B001F00F016E
:1006EC008DF802000212032028708DF800103C20B7
:1006FC0020708DF80120022060700320A070002073
:10070C001DF800202318401C0328DA70F8DB0621A2
:10071C00204601F097FB00F001F84BE029786218B5
:10072C00491DD07089B20D2010712046704730B52C
:10073C00DFF8C40B017B95B001F00F018DF80010B0
:10074C00002111E0DFF8843DC1EB411423446A44DD
:10075C005C7B54709C7B9470DC7BD4701B7C137121
:10076C004318491C1B7D537101EB8102837B994219
:10077C00E8DBDFF8884BDFF8885B501C2070002129
:10078C003C202870022068702078A87004E01DF8C6
:10079C0001206B18491CDA708142F8DBC11C284619
:1007AC0001F050FB21786A18491DD07089B20D20D8
:1007BC001071284601F0F2FA15B030BD00B58FB0BB
:1007CC0008233C2200216846FFF70AFFDFF8000DE2
:1007DC0000F15001079100234FF4587108916A46BB
:1007EC00012106910FF28521FFF7FEFE0FB000BD2F
:1007FC003EB50820ADF800000120DFF8F81ADFF84C
:10080C00F84A0968ADF8020041F268056846884765
:10081C009DF804006073029860644FF4CC7020441F
:10082C0001F08CFBA0644FF4D270204401F086FBE5
:10083C00E06400230020019000904FF47A724FF492
:10084C00A870DFF8901C204401F034FB402000F02D
:10085C0007F92A464FF49670DFF87C1C204401F00F
:10086C0029FB802001904FF41663012000901A465A
:10087C004FF48470DFF8881D204401F01BFB4FF40B
:10088C00005001900120009004F15400DFF8742D09
:10089C00DFF8741D134601F00DFB4FF4007001904E
:1008AC004FF47A63012000901A46DFF8601D04F1C2
:1008BC00C00001F0FFFA4FF4004000F0D1F8FA222A
:1008CC00DFF84C1D04F19C0001F0F4FA4FF4804069
:1008DC0000F0C6F841F28832DFF8381D04F17800D8
:1008EC0001F0E8FA4FF4807000F0BAF83222DFF829
:1008FC00A01D04F1E40001F0DDFADFF8980D01F021
:10090C0089FB4FF6FF7060846A460020606201210B
:10091C0032208DF8000040F2044001F0F1FB294632
:10092C00022001F0A6FF2946032001F0A2FF0FF2DE
:10093C0018121521002001F0BBFE44F6C7400190AF
:10094C0001208DF8030000208DF802008DF80100C5
:10095C0001208DF8000001AA04214FF4816001F000
:10096C00D7FF0DF1030201214FF4806001F0D0FF9D
:10097C000DF10202012140F2024001F0C9FF0DF11C
:10098C000102012140F2034001F0C2FF6A4601213D
:10099C0040F2064001F0BCFF01F054FE607BDFF832
:1009AC00F85C01F061FE4FF0FF3001F07EFE4FF07D
:1009BC00FF3001F03EFE4FF4E870204401F08EFB56
:1009CC004FF4EA70204401F0E6FD607B01F0E0FD9D
:1009DC00607B01F034FE02F097F8DFF8C00C01F0F8
:1009EC001CFAFFF725FB02F069F902F0A5F9DFF814
:1009FC00980D02F0EFF901F099F800F089FFFC2155
:100A0C002846FFF731FB2878207068786070A8784A
:100A1C00A070E878E0702879207102F07EFA352217
:100A2C0003210A2002F04BFA742205210A2002F05D
:100A3C0046FA01211320FFF704FB012100F099FB7A
:100A4C00012100F0A3FB37BD53696D706C6520422A
:100A5C004C452043656E7472616C00000000000010
:100A6C000190002300200090704700002DE9F04F0A
:100A7C0087B0FFF7BDFEDFF880780FF24469DFF82E
:100A8C00186CDFF8704840F6C41807F19C0A05E0B2
:100A9C0000F066FB02207885002038850820ADF830
:100AAC0000000A20ADF802004FF0FF3001906846BC
:100ABC002168884720BB0820ADF80C000920ADF850
:100ACC000E0003A8216888479DF81210059DB8B93F
:100ADC00BDF81000102801BF787B8142284600F039
:100AEC0075FB6DB12846FFF78FFD09E0B86C01F07E
:100AFC0050FA050004D000F092FB2846FFF79AFD4F
:100B0C00B86CFFF779FD0028F0D0F86CFFF774FD96
:100B1C0060B9F86C01F03DFA0500F6D02978681C34
:100B2C0000F0B5FE2846FFF785FDEEE7788E4FF412
:100B3C0096717D18C10549D54FF6FF61084078863E
:100B4C0007F1E40B787A01286AD1FFF782FD0028BF
:100B5C0041D1B87C401CB874C0B21F2837DB0520CB
:100B6C003885FC21012038650020B8743046FFF729
:100B7C007BFA892030703246002070707080FC2126
:100B8C0019203071892038700020787078801920F5
:100B9C003871892002F03FF807F1780001F0AEF9C6
:100BAC00584601F0C2F9584601F0BFF900F0D8FAE6
:100BBC00012100F0DEFA00F0CFFA00F0FCFA08B1E7
:100BCC0001F0ECFA00F0C3FA00207872A7E0584666
:100BDC0001F094F924E0386D01280ED1584601F04B
:100BEC00A4F907F1780001F0A0F9284601F09DF96D
:100BFC000C210FF2D44001F0D1F800F0D9FA00F03A
:100C0C00CCFA00F0C6FA00203865B8747872324617
:100C1C003221892001F0FFFF3121304601F0BEF86E
:100C2C00787A02287BD1FFF717FD88BBB87C401C73
:100C3C00B874C0B23D2829DB062038850521002078
:100C4C00B874484601F0AAF800207872B878010010
:100C5C000ED0062806DA0021CAB2824238BF491CDF
:100C6C00FAD305E0411F00E0491CCAB28242FBD313
:100C7C00397831707978B0707170F878F0703879A3
:100C8C003071042038656420B87228E0584627E09B
:100C9C00B97A3B8D386C0A0013D1062B23D0002176
:100CAC007972B974042139656421B97202F0DCFCE3
:100CBC0000F07EFA00F071FA00F06BFA00F019FA0D
:100CCC000DE064290FDA6421B97202F0CDFC00F05A
:100CDC006FFA00F062FA00F05CFA00F012FA50467B
:100CEC0001F00CF91BE06529ACBF01200020062B9C
:100CFC000CBF01210021084311D00020B872FFF76E
:100D0C00AEFC00F04AFA00F044FA00F058FA00F099
:100D1C00F5F90521484601F041F800F042FA788EC9
:100D2C00C10711D54FF6FE71084078860020B863D4
:100D3C00F8860120387402A9B88F7A7B001FADF8B1
:100D4C000800B88E01F01EFD788E41061BD54FF6BB
:100D5C00BF7108407886B87B48B1FFF7E8FC00F01B
:100D6C002AFA08B101F01AFA386C02F07DFC386DE1
:100D7C00012808D100F0F0F900F01DFA08B101F0DB
:100D8C000DFA00F0E4F9DFF8DC1B09684FF47A7017
:100D9C00B0FBF1F04CF250314843DFF8CC1B08604B
:100DAC004FF4847007EB000B788E800542D501F070
:100DBC00D5FF0146DFF8B40B01704FF6FF52788E69
:100DCC0010407886002907F1C00031D101F096F867
:100DDC00584601F093F8388D01282BD1DFF82418F0
:100DEC0007F1540001F08CF8032078850020388539
:100DFC0000F09EFDF885B7F92E0040450BDA00F0A7
:100E0C00AFF9022078850E21002038850FF6783056
:100E1C0000F0C4FF0EE0012100F0ABF900F09CF9EA
:100E2C0000F0C9F908B101F0B9F900F090F901E04E
:100E3C0001F064F8788E010656D54FF67F710840A4
:100E4C007886F87A401CF87200F072FDF88536222C
:100E5C0001210A2002F033F8002100F097F9F87A0A
:100E6C00642804BF0020F872307800283CD0387A0F
:100E7C00012814D100F045F90020387200F039F93E
:100E8C00FC21304600F08AFF30783870707878702A
:100E9C00B078B870F078F8703079387124E00228A6
:100EAC0008D100F02EF900F03DF9F97883A000F09C
:100EBC007BFF17E003280BD100F034F9F9787FA001
:100ECC0000F072FF00203872042000F048F90BE0AB
:100EDC00042802D10120388504E0052804D1032020
:100EEC0000F03DF900203872788E410403D54BF6A2
:100EFC00FF7108407886788E010416D5C0F30E0079
:100F0C00B98D7886491C386DB98590B900F045F9D2
:100F1C0000F032F900F0E0F800F022F900F0E0F80F
:100F2C00B88D022802DAFFF7CEFBA4E01528FCDB13
:100F3C002DE001281BD100F030F900F01DF900F074
:100F4C000FF900F0C9F80520388500F0C9F8388E83
:100F5C00142190FBF1F1142202FB110008B9FFF7E8
:100F6C0095FB388EC92833DB0020388630E0052805
:100F7C0018D100F012F900F0C9F8388E00F0F3F82F
:100F8C0000F0AAF800F0ECF8B88D152873DB00F02F
:100F9C000FF900F002F900F0FCF800F010F900F085
:100FAC00ADF85BE0042840D1B87A142816DA00F0CA
:100FBC00F4F8388EB97A401C3886491CB97280B264
:100FCC0000F0D1F800F0CCF800F086F800F088F8CA
:100FDC00B88DC9284FDB0020B8854CE005D100F056
:100FEC00E7F800F0DAF800F0D4F8B87A401CB872E0
:100FFC0000F072F800F0B4F8B87A642810D101212E
:10100C000020084337D000203886B885B87200F02D
:10101C0075F807F1540000F071FF00F0C2F82AE0F7
:10102C0000217828ECD10120EBE7032819D100F03E
:10103C00B4F800F06BF800F093F800F04DF8B88DB0
:10104C00292818DB00F0B4F800F0A7F800F0A1F89C
:10105C0000F0B5F800F052F8002038650120388512
:10106C0009E000F0A5F800F098F800F092F800F014
:10107C00A6F800F043F8788E81041ED54DF6FF716A
:10108C0008407886584600F039FF00F051FCF8858E
:10109C00B7F92E004045FFF6FBAC02207885012104
:1010AC000020388500F065F800F056F800F083F861
:1010BC0008B101F073F800F04AF8EFE4256C640015
:1010CC004F4B210D0A000000536F5363616E636533
:1010DC006C210D0A0000000007F1540000F025BF40
:1010EC00388E00EBD0714908A0EB4100C0B2FFF77D
:1010FC00B6BA3246FC21892001F078BD504600F08A
:10110C0014BF3246FC21892001F085BD388E401C6D
:10111C00388680B200EBD0714908A0EB4100C0B218
:10112C00FFF79DBAB8787978FA783B78401C491C5F
:10113C00521CB8707970FA70B07033707170F270B4
:10114C00324638793071FC21892001F064BD0022CF
:10115C000121032001F00CB8284600F0CFBE386501
:10116C00504600F0CBBE00EBD0714908A0EB41001B
:10117C00C1B21420FEF765BF388E401C388680B291
:10118C0000EBD0714908A0EB4100C1B21220FEF770
:10119C0058BF00211420FEF754BF00211320FEF786
:1011AC0050BF0020386501203885386C02F05CBADD
:1011BC000020FFF754BA0020B87300F0EFBF0020F6
:1011CC003886B88507F1540000F098BE00B585B09C
:1011DC00017891290BD0B02905D0D0291DD105B0AB
:1011EC005DF804EB8EE005B05DF804EBA3E141780B
:1011FC000E2902BF818841F2054291420DD100F0C7
:10120C007CF980680FF66C0390F903004042009063
:10121C0004213948006C02F031FA05B000BD2DE90B
:10122C00F041054686B02888334C022834D0042877
:10123C0038D008281CD010280AD0202856D168682D
:10124C00FFF7C4FF686806B0BDE8F041FFF7DCB9F2
:10125C00A878C10744BF01216172800744BF0220F6
:10126C00607204F1E40006B0BDE8F04100F046BE47
:10127C006C6860884FF6FF71884237D0012101F00D
:10128C0012FB98B32188606800F03AFE608806B0C3
:10129C00BDE8F04101F030BC68680178A87800F036
:1012AC00C2F91DE06868A78E067801F0EFFCDFF844
:1012BC00C016DFF8BC26B0FBF1F102FB110856B1E9
:1012CC0000F023F9CDF800800022206C0FF62403E7
:1012DC00042102F0D3F942460021384601F064F9AA
:1012EC00686806B0BDE8F041FFF7A4B906B0BDE8E8
:1012FC00F081000074060020F8060020B82C0020B5
:10130C00C82D0020F0B5DFF86C5685B00446AF7BD5
:10131C00286CA2780FF2B8664FF6FE7162B1012A02
:10132C005DD0052A62D0062A00F09180072A00F0D1
:10133C00C1800D2A12D0C6E06089A887E01C00F09D
:10134C0035FE00F0D3F80346286C0022012102F090
:10135C0095F900F0E7F80FF24063B1E0E07800286F
:10136C00E9D120690FF2B4710C22093002F09CF91A
:10137C000028E0D1781CA873C0B25449C0EB4013CC
:10138C0000221944A3188E185B7906F81F3C521CD6
:10139C00092AF7DB092200F0A1F80D2AFBDB0D224C
:1013AC0000F09CF80F2AFBDB0F2200F097F8112AB3
:1013BC00FBDB6A8D01F80E2C2A18E17AD174052812
:1013CC00B9DBFFF7B4F90020A87300F0E7FE08B111
:1013DC0000F0E4FE05B0BDE8F040FFF753B900F0B3
:1013EC001CF9009700220FF2BC5369E06278C2B975
:1013FC000220E8736089A886688F20B94FF4A87022
:10140C00284400F07BFD00F08DF80FF2A853022168
:10141C0002F034F9201D00F0C9FD034600F075F808
:10142C0010E00022A986EA732A74049203920292B5
:10143C000192009202210FF2885302F01FF900F082
:10144C006AF8607800900022286C032139E00020B3
:10145C00E873A98628746887A788688CB84211D16C
:10146C00686A00F062FD688CB8420BD1686A30B1D2
:10147C00FFF7C6F8686AFFF7DDF8002068624FF6E0
:10148C00FF70688400F04EF80FF25053022102F006
:10149C00F5F800F040F8A07900900022286C0321A8
:1014AC0002F0ECF8286C05B0BDE8F04000220421F5
:1014BC0002F0DFB800F021F8E1780FF23053009120
:1014CC00022102F0DBF805B0F0BD0000FC24002086
:1014DC0034260020E7170000F1170000236913449D
:1014EC008E181B7B06F81F3C521C70470021049180
:1014FC000391029101910091704700210491039195
:10150C000291019100227047002200200490039068
:10151C00029001907047002004900390029001907B
:10152C003346704700200490039002900190009085
:10153C000022286C7047DFF83C1410B50446C87BB9
:10154C00022886B054D16378086C2279162B05D109
:10155C000092FFF7D2FF0FF2A84337E00B2A0AD014
:10156C00012A0FD1227A0A2A17D100F056F80FF26D
:10157C00A443217B28E000F050F80FF2A843E16867
:10158C00097821E0132A10D14A7C0092531C4B7429
:10159C00FFF7B3FF0FF2AC4318E0122A23D100F08F
:1015AC003CF80FF29043217B0EE07E2A05D100F02F
:1015BC0034F80FF2A043217A06E07F2A0AD100F01A
:1015CC002CF80FF2A043218900910022042102F093
:1015DC0055F80DE01B2A06D16189E0680023002232
:1015EC0000F0F2FB04E0087C10B1204600F05FF83C
:1015FC00217904F1080006B0BDE8104001F0D1B922
:10160C003B18000020BF02001D1800000B18000042
:10161C003118000027180000009300210491039159
:10162C000291019170470200DFF8480300B5006C8D
:10163C0085B004D1FFF75AFF0FF2484321E0012A8D
:10164C000B460AD121B900F02BF80FF2484319E0F0
:10165C00FFF7E2FF0FF24C4313E0022A05D1A1B9C8
:10166C0000F01EF80FF250430CE0032A0DD121B903
:10167C0000F016F80FF2504304E0FFF7CDFF0FF225
:10168C005C430022022101F0F9FF05B000BD00000F
:10169C000118000015180000342400206D180000FB
:1016AC00049103910291019100910022704710B5B1
:1016BC00B04C217C012986B01AD10079032860D165
:1016CC000FF240400FF29C330088ADF81400FFF786
:1016DC001BFF042117200090206C01F0CFFF02208B
:1016EC0020740222637BA08E05A901F052F848E019
:1016FC0002292ED10179072928D1018951B1C1685C
:10170C000A784B7802EB0322E2868A78C97802EBDE
:10171C000121218740781A2833D1E08E010030D086
:10172C00ADF800000321208F627BADF8020021741C
:10173C0002208DF804006946F1208DF80500FF2089
:10174C008DF80600A08E01F03BF81AE0012918D1A3
:10175C00E3E7032915D10179092910D1018971B168
:10176C00C1680FF2A4330878497800EB0120608738
:10177C00FFF7CAFE00900221206C01F07FFF0020D1
:10178C00207406B010BD0000EF18000080B50246B2
:10179C000021202000F050F8401E8041C00F02BDF7
:1017AC0038B50C4615460120FEF734FF020005D073
:1017BC0015702146BDE8384002203DE031BD10B522
:1017CC001C460120FEF726FF30B104700246BDE82E
:1017DC001040002104202FE010BD6648418E41F0DE
:1017EC00010103E06348418E41F040014186406CA9
:1017FC00FEF7FEBE5F48418E41F48071F6E75D480E
:10180C00418E41F40071F1E701460022102013E0F3
:10181C005848418E41F40051E8E75648418E41F456
:10182C008041E3E75348418E41F40041DEE75148E3
:10183C00418E41F08001D9E770B504460D4616463D
:10184C000820FEF7E7FE50B1048085704660024622
:10185C00BDE87040474B596C986C00F076BB70BD7E
:10186C0070B504460D46C820FEF7D4FE06000DD018
:10187C0035702A462146701C01F048FF3D48416CEA
:10188C00C06C3246BDE8704000F05FBB70BD70B5F7
:10189C0084B004461E200D46ADF80000152DACBFDB
:1018AC0014202846ADF8020000208DF80800012015
:1018BC008DF8090000232F4EB08E1722122101F053
:1018CC0061F8019060B12A46214601F01FFFB08EED
:1018DC00694600F077FF18B11221684601F061F8F3
:1018EC007FBD10B50446C820FEF794FE78B10321E5
:1018FC000170024661781F4B4170E178817061790B
:10190C00C170BDE81040596CD86C00F01EBB10BD06
:10191C00144909684FF47A70B0FBF1F04CF2503175
:10192C004843114908600121134841600160704728
:10193C0010B512490968096890208847104800685A
:10194C00102101F034FF00220321002001F097FF49
:10195C000C490020086001F0C1FF044601F078FF3B
:10196C00204610BDD0D0000000000840AE2F002053
:10197C0040420F00F806002000010043A0010010B7
:10198C008C0000101C900C404C6F772062617474BA
:10199C00617279210D0A0000496E697469616C6984
:1019AC007A656400426561636F6E20466F756E6484
:1019BC0020256400436F6E6E6563746564000000DF
:1019CC00436F6E6E656374204661696C65640000DC
:1019DC00526561736F6E3A2025640000446973632D
:1019EC006F6E6E6563746564000000005061726117
:1019FC006D205570646174653A2025640000000008
:101A0C00415454205273702064726F70706564205E
:101A1C002564000052656164204572726F72202546
:101A2C006400000052656164207273703A20256472
:101A3C00000000005772697465204572726F722045
:101A4C002564000057726974652073656E743A20C2
:101A5C002564000046432056696F6C617465643AD6
:101A6C00202564004D54552053697A653A2025642D
:101A7C000000000052535349202D64423A20256443
:101A8C000000000050616972696E672073746172A6
:101A9C007465640050616972696E67207375636365
:101AAC006573730050616972696E67206661696C59
:101ABC003A20256400000000426F6E64696E672056
:101ACC007375636365737300426F6E642073617624
:101ADC00652073756363657373000000426F6E64F9
:101AEC002073617665206661696C65643A202564B3
:101AFC000000000050617373636F64653A202564C5
:101B0C0000000000F0FF000053696D706C652053FD
:101B1C00766320466F756E6400000000FDA5069389
:101B2C00A4E24FB1AFCFC6EB0764782538B502F00D
:101B3C00CDF92F4C204602F0F5F9002020746FF0FF
:101B4C00004501202070E560642060602146012082
:101B5C002072002002F0D1F9E06300F01AF802F0D4
:101B6C00CCF9206400F015F8022002F0C6F960648C
:101B7C002146002020740120207040F68C206060EB
:101B8C00012020721B48E060032002F0B6F9A0642B
:101B9C0031BDE560002020742146012020706420B6
:101BAC006060012020727047032811490CD8DFE8CF
:101BBC0000F002040608C86B04E0086C02E0486CF4
:101BCC0000E0886C02F0B3B97047000003280849A4
:101BDC000CD8DFE800F002040608C86B04E0086CBF
:101BEC0002E0486C00E0886C02F0A4B97047000079
:101BFC0020060020285C8F0200B58FB008233C2201
:101C0C0000216846FEF7ECFC864800F15001079174
:101C1C0000234FF4217108916A46022106910FF2BC
:101C2C006501FEF7E1FC0FB000BD10B502F095F9AF
:101C3C007D4C204602F0BEF94FF4E130A061214604
:101C4C0003202077002060776075A075012020703C
:101C5C0000206070E075012020750FF22510E06007
:101C6C000020206102F090F9704C6060002220216D
:101C7C0002F070F960686E49BDE81040C82202F0AD
:101C8C009EB900002DE9F04786B0082318220021E8
:101C9C00684602F0FDFA654C694604F1100002F04A
:101CAC00FBFA04F11000E060FFF7BFFFDFF884914E
:101CBC00DFF884A1614FDFF888815D4D0CE00521D0
:101CCC008AF800102846C821FEF7CEF9B00703D5D4
:101CDC002178484600F062F8E0684FF0FF330322A9
:101CEC00002102F0D8FB0646F007EFD56068C82249
:101CFC00294602F064F928783C28E0D1E9782429B7
:101D0C0006D10522291D404601F000FD0121D7E72F
:101D1C00A87823290ED1002108E0BA78192303FBF7
:101D2C0002126B1842441B795371491C8142F4DB3B
:101D3C000221C5E7212909D1B87819225043404422
:101D4C00291D401D01F0E2FC0321B9E7542904BF11
:101D5C002979582906D1A9794F2902BFE9794B294C
:101D6C000421ADD069788129A9D1062100228242B3
:101D7C00BFBFAB18DB7808F80230521CF7DB9FE7CB
:101D8C0070B52A4EF0680C461546012102F0EDFBA9
:101D9C00B268A9B22046BDE8704010470A46014619
:101DAC002248406802F00EB90EB400B5B2B001463C
:101DBC0033AA00F025F882B21C484068694602F04C
:101DCC0001F932B05DF810FB08B430B5B2B000F0D8
:101DDC0020F848B935AA00F012F882B22A70694688
:101DEC00204601F0A3FC01E000F00DF82A786868A9
:101DFC00214602F0E7F832B030BC5DF808FB19461A
:101E0C00684602F0CFBF29700A460146204601F011
:101E1C007DBC1346074C054D7047044988607047DC
:101E2C0000000000E4290020DC2C0020B82C00204D
:101E3C00002D0020C82D002000070020F8060020EF
:101E4C0034240020002203E010F8013B9A18D2B28F
:101E5C000B46591E1BB2012BF6DA104670470000D8
:101E6C00DFF800F085C10110DFF800F0C1C20110ED
:101E7C00DFF800F0E3BF0110DFF800F079B50110D6
:101E8C00DFF800F0F5B80110DFF800F02DBF0110FD
:101E9C00DFF800F011BF011000B583B00821ADF8D8
:101EAC00001001900521ADF80210684651490968EF
:101EBC00884707BDF0B589B004460D4616461F4647
:101ECC000823242200216846FFF7CAFF0F984A49CD
:101EDC00096806906B464FF47A70B0FBF1F101FB88
:101EEC0007F0059001FB06F20E98ADF8100029469C
:101EFC002046FFF7C1FF204609B0F0BDFFF7B8BF81
:101F0C0038B504460D4602F092FA10B1204602F0A4
:101F1C0080FA00F00CF800FB05F12046FFF7A4FF57
:101F2C002046BDE83240FFF7A3BF02F072BA324937
:101F3C0009684FF47A70B0FBF1F0704710B50446A5
:101F4C000021FFF79DFF204610BD70B584B00446FC
:101F5C000820ADF800000D460420ADF802000C205E
:101F6C0024490968019016466846884758B9029971
:101F7C0049B18E602046FFF787FF15B12846FEF762
:101F8C0037FB012003E03046FFF786FF002004B04A
:101F9C0070BD10B50446FFF77BFFA04204D08468E7
:101FAC00FFF77AFF204610BD002010BD30B585B07C
:101FBC00044668460FF24801142201F0B7FB0F48A3
:101FCC0030210170A21D782141700623811C12F86A
:101FDC00015D2D095B1E1DF8055001F8015B15789C
:101FEC0005F00F051DF8055001F8015BEFD105B0A8
:101FFC0030BD000074060020D0D00000902E0020D0
:10200C003031323334353637383941424344454622
:10201C000000000030B50446224D83B005F13001BC
:10202C0005F13C0001F0EBFDA8600FF2390101F065
:10203C00D3FEA8681C4A4FF4E02101F0DDFEA8682D
:10204C001A4A4FF4E02101F0D7FE002001900090D5
:10205C00002364220FF2150105F10C00FFF72AFF93
:10206C006C6037BD1248FFF749BF000010B50D4C2E
:10207C006068B0B100202070152001F05EFE18B928
:10208C00207840F001002070162001F056FE18B99F
:10209C00207840F00200207020786168BDE8104084
:1020AC00084710BD8006002015000580160005802D
:1020BC008C06002000B583B0ADF800008DF806103A
:1020CC000020DFF8AC120968ADF8020068468847BA
:1020DC0010B99DF807000EBDFF200EBD1CB5A54C18
:1020EC0000B1606004F10800019004F11C00009044
:1020FC0004F10C03A2786078082100F07BFB16BD7C
:10210C0070B5034600244FF4806610469B1B0A46AC
:10211C00984D08D05B1E0CD05B1E12D09B1E15D0A8
:10212C005B1E1AD021E0102915D1014605F10C00D7
:10213C0004E010290FD1014605F11C0001F0E6FA6C
:10214C0014E0042907D10068A8600FE0012902D12E
:10215C000078A8700AE0182408E038B1012905D1EC
:10216C000078032802DAE87000E00224204670BDF3
:10217C0070B504467F480D46417882B01646502013
:10218C00FFF798FF8DF800008DF801408DF8025094
:10219C008DF80360684600F058FB76BD75484078B2
:1021AC0000F057BB00B58FB008233C2200216846D5
:1021BC00FEF716FA704800F15001079100234FF416
:1021CC00DC7108916A46032106910FF20D01FEF7AE
:1021DC000BFA0FB000BD0000F0B585B00820ADF8CB
:1021EC0008000120624C634D2168ADF80A0002A87A
:1021FC0088479DF80C00687000F06FFB287005F1A3
:10220C000C021021022000F0F1FC05F11C0210213F
:10221C00032000F0EBFC05F108020421042000F07F
:10222C00E5FC14E03078D02803D1304600F042F8B9
:10223C000746002E18BF002F09D00820ADF800006B
:10224C000320ADF8020001966846216888470820F3
:10225C00ADF800000A20ADF802004FF0FF300190FD
:10226C006846216888470028F1D10820ADF808009D
:10227C000920ADF80A0002A821688847BDF80C10A7
:10228C009DF80E20049E0028E1D10127102904BFDF
:10229C0068788242CDD130884FF6FF718842C1D127
:1022AC0070884004C5D505F108020421042000F013
:1022BC00B2FCBEE73EB504462E4DA07840B10528D1
:1022CC001CD0062823D00C2825D0112828D045E076
:1022DC006078002842D105F10C021021022000F098
:1022EC009AFC05F11C021021032000F094FC06223C
:1022FC00E11C05F12C0001F009FA2FE0607868BBB5
:10230C006289E0780823211D00F060F926E0A0889E
:10231C0000F073F922E0217BA08800F079F91DE030
:10232C00E878012810D1A088ADF80000E088ADF85D
:10233C0002002089ADF804006089ADF80600A08980
:10234C00ADF80800012004E040B9A088ADF8000009
:10235C0000208DF80A00684600F06FFA686828B112
:10236C000168080002D0204688473EBD01203EBDD2
:10237C0074060020BC0500204C1F0020E0B508218D
:10238C00ADF800100190022100F00FF808B1002008
:10239C000EBD02980EBD00B583B00821ADF800103B
:1023AC000190032100F001F807BDADF8021068465A
:1023BC00DFF8A813096808471FB5ADF806108DF8AB
:1023CC0004000824DFF894138DF808200393ADF86B
:1023DC000040ADF8024068460968884704B010BD5B
:1023EC0030B585B0144608220291ADF800201922B0
:1023FC00DFF8681309680190ADF802201D466846A5
:10240C00884714B1BDF80C10218015B19DF80E1041
:10241C002970089A0499116005B030BD00B583B0DD
:10242C000820ADF800001A2000F015F810B99DF83E
:10243C0004000EBDFF200EBD00B583B0ADF800004A
:10244C008DF80610002000F006F810B99DF8070072
:10245C000EBDFF200EBDDFF804130968ADF80200B5
:10246C006846084750B110F1040F01D104207047A1
:10247C0010F1030F01D10220704701207047812316
:10248C00037042EAC111002341F47C41C370818086
:10249C0070478223037081800023C3708271704760
:1024AC003EB504460820ADF800000D462020ADF8DE
:1024BC0002001020DFF8A4120968ADF80400684689
:1024CC00884720B9029810B16FF004003EBD00950A
:1024DC000023002221464FF0FF30FFF781FF3EBD65
:1024EC0010B582B01446CA78012A03D18A88DFF865
:1024FC00C4341A8000F010F858B900906946204690
:10250C00FFF7CEFF28B900984478FFF744FF204628
:10251C0016BDFFF7A7FF16BD0B46022210214BE795
:10252C0038B51C461546FFF7F7FFC0B90090694651
:10253C002846FFF7B5FF90B900984578280002BFF0
:10254C000098C079A04205D1009881680498224671
:10255C0001F0DCF80098FFF71EFF284632BDFFF7AC
:10256C0081FF32BDF8B500F033FA00F099F907009D
:10257C000DD032462946FFF78CFF00F062F9387215
:10258C00FFF74CFF3B4601B0BDE8F0408AE0F1BDDF
:10259C0010220121E6E738B500F0D8F9050002D089
:1025AC000422012175E031BDF8B500F0C6F9070031
:1025BC000AD0132200F03BF800F045FB3946BDE889
:1025CC00F840DFF8F4238BE70420F2BD2DE9F0414D
:1025DC0000F045F907000FD0142200F028F83C72E7
:1025EC00FD603E8287F81280FFF718FF3946BDE880
:1025FC00F041DFF8C82373E71EE038B500F041F86E
:10260C00050004D0152200F012F82C8144E031BDF5
:10261C0070B500F0BAF8060008D0162200F007F8E2
:10262C0000F032F83346BDE870403BE070BD01214C
:10263C002FE7002204217CE00420BDE8F081102269
:10264C0002218FE710B500F087FA04000AD011229E
:10265C0000F01DF8FFF7E2FE2146BDE81040DFF860
:10266C0060233DE7042010BD38B500F00AF80500E2
:10267C0006D0122200F00BF800F0E3F828720BE001
:10268C0031BD04460A2079E63481B572C6E60221D2
:10269C00FFE6FFF7FEFEAC60FFF7C0FE2B4601B075
:1026AC00BDE830400222102186E60022032140E0E2
:1026BC0000B583B00FF24903019306230093032363
:1026CC0000F04EF80EBD1078802802BF508840F202
:1026DC007F61884208D19088984202BF9179009816
:1026EC00814201D1012070470020704710B582B0A3
:1026FC000624FFE70094FFF7E6FF16BD000000007C
:10270C000323F3E71078802802BF508840F27F61E2
:10271C0088420CD19088032818BF042807D19079DF
:10272C0001001CBF1028112801D101207047002086
:10273C007047F8B500F0F1F907000CD03246294685
:10274C00FFF7A7FEBC60FFF769FE3946BDE8F8400D
:10275C00DFF87022C4E60420F2BD000074060020ED
:10276C002DE9F04100F03FF807000AD0069A4146E7
:10277C00FFF78FFE3C817D8100F067FA079A00F02D
:10278C000FBA59E7022300F0E5B804460D460C20B9
:10279C00F4E52DE9F04100F062F807000FD00622B5
:1027AC0000F01FF83C81BE72FD6000F01BFA00F0D7
:1027BC00CAF83946BDE8F0410FF21D3290E63BE70E
:1027CC003423C7E038B5FFE704460D46FFF726FE75
:1027DC0002462946204601B0BDE830403623B9E018
:1027EC00424603214BE604460D46164698461020F9
:1027FC00FFF7C4BD2DE9F04180460D4616461F4635
:10280C001820FFF7BBFD040014D0002200F02EF8B6
:10281C0000F0E8F920726572A672E76006982061F4
:10282C0007986061FFF7FAFD2146BDE8F0410FF211
:10283C00192255E600E70021CEE00FF211231222F7
:10284C00F9E721465020FFF7F7BD0FF205230422CC
:10285C00F1E70FF201230522FFE70021CDE004464A
:10286C000D46164698461420FFF788BD0421FFF745
:10287C0006BE70B5FFF789FF06000BD03022FFF7BC
:10288C00F5FF00F009F83146BDE870400FF2C912AF
:10289C00FFF726BE042070BD34817581FFF7BEBDE5
:1028AC000A20FFF76BBD7CB5044600208DF80400B0
:1028BC000D460C20FFF762FD06000BD01122FFF72E
:1028CC00B6FEFFF7E1FE00F019F80FF29112314657
:1028DC00FFF726FE9DF8040076BD1CB500F039F913
:1028EC0004000AD01222FFF7A2FEFFF797FD00F0BA
:1028FC0005F80FF2711200F008F803E001A900913D
:10290C00012370479DF8040016BD2146FFF708BE51
:10291C00F8B500F012F807000DD03622FFF7A6FF2D
:10292C003C817D8100F091F93946BDE8F8400FF209
:10293C004512FFF7D5BD0420F2BD04460D461646E0
:10294C001020FFF71BBD3874FFF768BD04460C2040
:10295C00FFF714BD2DE9F041FFF781FF07000FD001
:10296C00FFF73EFF3C81FD60314600F03CF9FFF77C
:10297C00EAFF3946BDE8F0410FF2FD02FFF7B0BDAA
:10298C00FFF75ABE38B514460F4A15682A0006D010
:10299C00009302460B4621460120A84732BD002079
:1029AC0032BD0A4A13681A0003D00A4601460120B8
:1029BC0018477047C80B0020E92A0000EF2A0000D6
:1029CC00F52A000011270000EC210020F021002046
:1029DC0004460D46164670472DE9F041FFF703FFFC
:1029EC00070004D000F005F8BC60FD60D5E0FFF7EF
:1029FC0023BE32460421FFF742BD2DE9F041FFF71B
:102A0C00F2FE070006D0FFF7F4FFFFF71AFF38724B
:102A1C00FD60C2E0FFF710BE1078802802BF50881E
:102A2C0040F27F6188420CD190884FF68071014052
:102A3C00B1F57E4F04BF00F07F00984201D1012018
:102A4C0070470020704700000023E5E71223E3E7FE
:102A5C000423E1E70523DFE73023DDE780B511230D
:102A6C0002E0000080B5122300930123FFF72BFE38
:102A7C0002BD00003623CFE71078802802BF5088B3
:102A8C0040F27F6188420DD190884FF680710140F1
:102A9C004FF68052914205D100F07F00012801DBF6
:102AAC0001207047002070471078802802BF5088A2
:102ABC0040F27F6188420DD190884FF680710140C1
:102ACC004FF68052914204BF00F07F00984201D132
:102ADC0001207047002070470623E5E780B51323DB
:102AEC00C2E780B51423BFE780B5112300930223FE
:102AFC00BCE700F034F802BD80B50FF2D10100F054
:102B0C0069F841F20540F4E70FF2090142F22F0097
:102B1C0009E0000042F22F0347E004460D4616463A
:102B2C000C20FFF72BBC70B504460D4600F014F8D2
:102B3C0006000CD081203070B4800120F070FFF7BB
:102B4C006DFC2A463146BDE87040FFF7C9BC042035
:102B5C0070BD00208DF804000820FFF70FBC2DE994
:102B6C00F041FFF735FF98460E20FFF707FC0700F2
:102B7C0009D000F00AF83D817E81A7F80C80FFF7A0
:102B8C004DFC069A0CE0FFF757BD812038700120F0
:102B9C00F870BC8070473D81FE60FFF73FFC4246F9
:102BAC003946BDE8F041FFF79BBC1078802802BF86
:102BBC00508840F27F61884204BF9088984201D1CE
:102BCC0001207047002070470000000041F20543CF
:102BDC00EBE70000009100230146002270473C8186
:102BEC007D81BE8141465020FFF726BCF8B5FFF72A
:102BFC00A4FE07000DD0012200F022F83C727D7279
:102C0C0000F023F83946BDE8F8400FF27902FFF7DF
:102C1C0067BC0420F2BDF8B5FFF78FFE07000DD09E
:102C2C00022200F00DF83C727D7200F00EF839466D
:102C3C00BDE8F8400FF25102FFF752BC0420F2BD80
:102C4C000521FFF71CBC3C81BD72FE60FFF7E6BBA3
:102C5C001078802802BF508840F27F6188420DD1E5
:102C6C0090884FF6807101404FF68062914204BF0C
:102C7C0000F07F00984201D101207047002070477E
:102C8C00000000000123E3E70223E1E71CB500206C
:102C9C000190FFF761FF04000BD00522FFF7D0FF76
:102CAC00FFF7BCFB01A9009104230FF20D02FFF703
:102CBC002CFE019816BD00000523C9E710B502F0E3
:102CCC0087F81C4C204602F0AFF8012020722146F8
:102CDC000020E0606060207002F091F8206110BD6F
:102CEC0000B589B00022ADF800208DF800008DF8F9
:102CFC00011002200290039218208DF81400049207
:102D0C000692CDF804D001A90DE001B588B008A851
:102D1C000090029101200190039218208DF8100070
:102D2C006946002005900348006902F080F809B05C
:102D3C0000BD00005821002080B503210F20FFF7B3
:102D4C00CFFFBDE8044008211020FFF7C9BFC3071F
:102D5C0044BF800940EA810290B2704770B588B0D8
:102D6C0005A80021C0E90011072205A90220FFF7E0
:102D7C00CCFF05AE74789DF814002146FFF7E7FFF1
:102D8C00F578B0782946FFF7E2FF76799DF81800C0
:102D9C003146FFF7DCFFA5F12E001D288041A5F17F
:102DAC00A6011D298941C90F51EAD0700FD000200E
:102DBC0004900390029601950094002207480FF2AC
:102DCC0024030068062100F059FC002000E00120DB
:102DDC0008B070BD02490860704700003807002039
:102DEC0054210020583A256420593A2564205A3A37
:102DFC0025640000002800E0401EFDD1704738B566
:102E0C0004460D4600210C20FDF71BF900F020F8BC
:102E1C00002D14BF012100210720FDF712F901211B
:102E2C0000F017F8082500F013F820064CBF01211C
:102E3C0000210720FDF705F9012100F00AF86400D4
:102E4C006D1EF0D1BDE8344001210C20FDF7F9B81E
:102E5C0000210620FDF7F5B810B504460846503899
:102E6C000021C0B2FFF7CBFF2009002140F0100079
:102E7C00FFF7C5FF04F00F00BDE81040002140F043
:102E8C000100BCE700218D20B9E738B50024A4F17E
:102E9C0050000021C0B2FFF7B2FF00F0C3F800F001
:102EAC000BF8802501210020FFF7A9FF6D1EF9D139
:102EBC00641C082CEBDB31BD002110209FE72DE9B1
:102ECC00F041A2F120040646002524060F46802E70
:102EDC00A4BF0026BF1CF9B23046FFF7BDFF0FF2AE
:102EEC004C1805EB1450012118F80000FFF787FF70
:102EFC006D1C082DF5DB791CC9B23046FFF7ACFF11
:102F0C00002606EB145040440121007AFFF777FFAE
:102F1C00761C082EF5DBBDE8F08180B500F07EF85C
:102F2C006420FFF767FF002100F079F86420FFF7B9
:102F3C0061FF00F073F80021AE20FFF760FF00F096
:102F4C0071F8FFF7B9FF00214020FFF758FF00216F
:102F5C008120FFF754FF0021CF20FFF750FF002105
:102F6C00A120FFF74CFF0021C820FFF748FF0021EC
:102F7C00A620FFF744FF0021A820FFF740FF002107
:102F8C003F20FFF73CFF0021D320FFF738FF00F074
:102F9C0049F80021D520FFF732FF00218020FFF7F0
:102FAC002EFF0021D920FFF72AFF0021F120FFF787
:102FBC0026FF0021DA20FFF722FF00211220FFF765
:102FCC001EFF0021DB20FFF71AFF00214020FFF736
:102FDC0016FF00212020FFF712FF00210220FFF72F
:102FEC000EFFFFF74FFF00211420FFF708FF002111
:102FFC00A420FFF704FF0021A620FFF700FF00210B
:10300C00AF20FFF7FCFE0021AF20FFF7F8FEFFF723
:10301C003CFFBDE80440002100201DE701210D20EC
:10302C00FDF70FB800210020E9E6000000000000C9
:10303C00000000000000000000000000000000F88C
:10304C0000000000000000333000000000100C06EF
:10305C00100C0600000000000000000040C078408A
:10306C00C0784000043F04043F040400007088FC56
:10307C0008300000001820FF211E0000F008F000AE
:10308C00E018000000211C031E211E0000F008881F
:10309C00700000001E2123241927211010160E0089
:1030AC00000000000000000000000000000000E034
:1030BC001804020000000007182040000002041849
:1030CC00E00000000040201807000000404080F0A5
:1030DC00804040000202010F01020200000000F0DB
:1030EC00000000000101011F0101010000000000AF
:1030FC000000000080B07000000000000000000024
:10310C0000000000000101010101010100000000AC
:10311C000000000000303000000000000000000043
:10312C0080601804006018060100000000E0100820
:10313C000810E000000F102020100F00001010F8F5
:10314C00000000000020203F202000000070080834
:10315C0008887000003028242221300000300888B4
:10316C00884830000018202020110E000000C020DC
:10317C0010F8000000070424243F240000F80888FD
:10318C00880808000019212020110E0000E010888A
:10319C0088180000000F112020110E0000380808BC
:1031AC00C83808000000003F0000000000708808CC
:1031BC0008887000001C222121221C0000E010084D
:1031CC000810E0000000312222110F00000000C0A6
:1031DC00C000000000000030300000000000008043
:1031EC000000000000008060000000000000804033
:1031FC00201008000001020408102000404040404C
:10320C00404040000404040404040400000810209E
:10321C0040800000002010080402010000704808E3
:10322C000808F0000000003036010000C030C8284B
:10323C00E810E0000718272423140B000000C03806
:10324C00E0000000203C23020227382008F8888880
:10325C0088700000203F202020110E00C03008088C
:10326C0008083800071820202010080008F8080863
:10327C000810E000203F202020100F0008F888885C
:10328C00E8081000203F20202320180008F8888828
:10329C00E8081000203F200003000000C0300808A0
:1032AC000838000007182020221E020008F8080029
:1032BC000008F808203F210101213F20000808F8F0
:1032CC00080800000020203F202000000000080813
:1032DC00F8080800C08080807F00000008F888C0D3
:1032EC0028180800203F20012638200008F8080084
:1032FC0000000000203F20202020300008F8F800BB
:10330C00F8F80800203F003F003F200008F830C0CC
:10331C000008F808203F200007183F00E0100808BC
:10332C000810E0000F10202020100F0008F80808EB
:10333C000808F000203F210101010000E0100808FE
:10334C000810E0000F18242438504F0008F8888823
:10335C0088887000203F2000030C30200070880803
:10336C00080838000038202121221C00180808F811
:10337C00080818000000203F2000000008F8080092
:10338C000008F808001F202020201F000878880063
:10339C0000C83808000007380E010000F80800F8D3
:1033AC000008F800033C0700073C0300081868807D
:1033BC008068180820302C03032C30200838C800F3
:1033CC00C83808000000203F200000001008080842
:1033DC00C83808002038262120201800000000FEE4
:1033EC00020202000000007F40404000000C30C090
:1033FC0000000000000000010638C00000020202BC
:10340C00FE000000004040407F000000000004026D
:10341C000202040000000000000000000000000098
:10342C000000000080808080808080800002020488
:10343C000000000000000000000000000000808080
:10344C00808000000019242222223F2008F80080EE
:10345C0080000000003F112020110E0000000080B1
:10346C0080800000000E1120202011000000008040
:10347C008088F800000E112020103F200000808072
:10348C0080800000001F222222221300008080F086
:10349C00888888180020203F2020000000008080B1
:1034AC0080808000006B94949493600008F80080F6
:1034BC0080800000203F210000203F200080989851
:1034CC00000000000020203F2020000000000080B1
:1034DC009898000000C08080807F000008F80000F1
:1034EC0080808000203F24022D302000000808F846
:1034FC00000000000020203F202000008080808001
:10350C0080808000203F20003F20003F8080008092
:10351C0080800000203F210000203F2000008080A0
:10352C0080800000001F202020201F008080008051
:10353C008000000080FFA12020110E000000008000
:10354C0080808000000E112020A0FF8080808000F1
:10355C008080800020203F2120000100000080801E
:10356C00808080000033242424241900008080E013
:10357C00808000000000001F2020000080800000E0
:10358C0000808000001F202020103F2080808000C1
:10359C000080808000010E300806010080800080D1
:1035AC00008080800F300C030C300F0000808000F6
:1035BC00808080000020312E0E3120008080800021
:1035CC000080808080818E701806010000808080D1
:1035DC00808080000021302C22213000000000006F
:1035EC00807C020200000000003F40400000000010
:1035FC00FF00000000000000FF0000000002027C41
:10360C00800000000040403F000000000006010167
:10361C000202040400000000000000002DE9F84341
:10362C000D0008BF0FF27C0504460027DFF834902C
:10363C0000E07F1C0C2000FB07F859F8086076B1FD
:10364C00BC4203D0B06980472042F2D0C8443268F3
:10365C002946404690470028EBD0404600E0002029
:10366C00BDE8F283ACBD000010B1016849680847A1
:10367C00704710B103689B681847704700B97047D2
:10368C0010B586B00C9C04940B9C03940A9C029479
:10369C00099C0194089C00940468E468A04706B057
:1036AC0010BD0000030000000300002013F0030F06
:1036BC0009D0521E22BF13F8010B11F801CBB0EB4D
:1036CC000C00F3D07047121F22BF53F8040B51F8B3
:1036DC0004CB6045F7D0121D0AD200BA9CFA8CFCC0
:1036EC00B0EB0C0038BF6FF0000088BF01207047B2
:1036FC00521E22BF13F8010B11F801CBB0EB0C00DA
:10370C00F6D0521C08BF10467047000062B38B07FE
:10371C0008D0521E11F8013B00F8013B00F0248048
:10372C008B07F6D1830740F0208000BF103A07D3F7
:10373C0030B4B1E83810103AA0E83810F9D230BCE7
:10374C00530724BFB1E80810A0E8081044BF51F893
:10375C00043B40F8043BD20724BF31F8022B20F87D
:10376C00022B44BF0B7803707047083A07D3B1E8BB
:10377C000810083A40F8043B40F804CBF7D2530742
:10378C00E4E7000070B5044601F07AFB451EAD413C
:10379C00ED0F124E30680028FCD0A047012030609D
:1037AC00002D1CBFBDE8704001F06EBB70BDF8B5BC
:1037BC0004460D4601F064FB461EB641F60F074F5A
:1037CC0038680028FCD02846A04701203860002E1D
:1037DC001CBFBDE8F14001F057BBF1BD00800C40AF
:1037EC0070B504460D46164601F04AFB401E80415A
:1037FC00C00F3D490A68002AFCD0012E02D0022ECF
:10380C0002D003E0257002E0258000E02560012253
:10381C000A6018B1BDE8704001F036BB70BD0B46B4
:10382C001146324A904201D131480EE0181800F886
:10383C00101F70470B4611462C4A904201D12D485F
:10384C0003E0181800F8201F70470122C018C7E7C2
:10385C0010B5264C49220A212046FFF7EBFFFB222C
:10386C0008212046FFF7E6FF012209212046FFF739
:10387C00E1FF2149002008602049086010BD70B5A7
:10388C0016460C4640F0010218B9062C38BF42F01F
:10389C004002164DD2B20A212846FFF7C0FF00F0B5
:1038AC0016F8002E15480FBF40F6011114490E6092
:1038BC0041F601610160E200D2B208212846FFF70F
:1038CC00AEFF2846BDE8704003220821A7E70A484E
:1038DC000121016001688907FCD57047094801681E
:1038EC00C907FCD44068704700800C4000B00C4005
:1038FC0010B00C4020B00C4030600C4010900C40CC
:10390C000037084014900C40DFF800F049C101105A
:10391C00DFF800F019C20110DFF800F0CDA00110A3
:10392C00DFF800F0C1C10110DFF800F009B7011099
:10393C00DFF800F03DC10110DFF800F029AF0110F5
:10394C00DFF800F0CDC10110DFF800F085B00110F8
:10395C0070B500F041FE04460026DFF81C550DE062
:10396C0024FA06F0C00708D505EB8600406820B1A4
:10397C00026811001CBF31469047761C2868F6B2CD
:10398C008642EDD370BDDFF8F4040168DFF8F00473
:10399C000160DFF8F00400F02EBEF8B50D00ECB2BB
:1039AC0044BF85F0204585F4C045A10001F180415C
:1039BC0001F5012100EA05060A68DFF8CC743E40E7
:1039CC0085EA020382433243034000F4E0261B0ED7
:1039DC00B6F5E02F03F0010302D1D30105D411E0B9
:1039EC0010F4E02F08BF002B0CD002F4E023B3F549
:1039FC00A02F04D0B3F5C02F04D1052300E006237B
:103A0C0063F312420A60410207D504F18042A90D0A
:103A1C0002F5083201F00101117000020ED5FFF71A
:103A2C0073FF00F0A4F92C024CBF1C4600249A43EF
:103A3C0022430A60BDE8F240FFF76ABFF1BD0029DE
:103A4C0048BF0021800000F1804000F5012001F00A
:103A5C003F010268920941EA82110160704710B57A
:103A6C00DFF82804006800F07F0401F01FFA012839
:103A7C0004D101F011FA022808BF641C204610BDC5
:103A8C002DE9F04FA1B0054601F0C3FA01F00EFA92
:103A9C000026012804D101F0FFF9022808BF0126F5
:103AAC00DFF8EC03C168C1F3815101294FF0010A21
:103ABC0004D10068000E0AFA00F00643DFF8D403C4
:103ACC00DFF8B4930078DFF8D073FFF7C8FF5FEA34
:103ADC00000BC9F800B004D0FF225946384601F05B
:103AEC00B1F94FF00008002405E00AFA00F07C540C
:103AFC0040EA0808641C55F8240000F0FF01FE2978
:103B0C0009D0FF29F6D0594503D226FA00F2D20784
:103B1C00EBD5022070E0092001F079FBC9F8805048
:103B2C0008232422002117A8FFF7FAFE8DF874A0B1
:103B3C0017AA012109F1D400FFF7F6FE0024DFF8E3
:103B4C005CA30BE05046FFF728FF4FF0FF31E0B2CB
:103B5C00FFF775FF0020CBF80400641CD9F80000B7
:103B6C00844213D226FA04F0C00709EB840B48BF39
:103B7C000420F0D428FA04F0C00747BF385D55F88C
:103B8C00201004F0FF0040F4C041DBE70823302292
:103B9C0000210BA8FFF7CCFEDFF80453DFF8042359
:103BAC00287813900BAB00200090102109F18400B1
:103BBC00FFF7C2FE08232822002101A8FFF7C0FE50
:103BCC006868DFF8E412079000230020089001AA2F
:103BDC0009F1A000FFF7B8FEDFF8D002016821F46C
:103BEC007C5141F4005101600120DFF8C4120860DF
:103BFC00DFF8C0120860002021B0BDE8F08F2DE97D
:103C0C00F0419D4E04460D4606F1D40800F05EF8D6
:103C1C00002035B9002020606060A06085B125E0EF
:103C2C00401C15F82010FE29F4D0FF29F8D032687A
:103C3C00914204D206EB810149680029F0D000249E
:103C4C004046FCF7D5FC2046BDE8F08106EB81022E
:103C5C000123546003FA01F162681143616055F865
:103C6C0020208E49204600F0C7F8384615F8201061
:103C7C00FE29E5D0471CFF29E8D1F6E72DE9F041F4
:103C8C0005000E46F7B203D07B4C2068874201D367
:103C9C00022019E004F1D40800F018F804EB8700B6
:103CAC00416809B101250BE0456001216868B94004
:103CBC000843686032467949284600F09DF8002593
:103CCC004046FCF795FC2846BDE8F0814FF0FF31EB
:103CDC004046FFF721BE10B50C46F0B1416821FA01
:103CEC0004F2D20719D50122A24091434160002071
:103CFC00614901EB840250606748025D6748FF2A06
:103D0C000EBF44F02041D1F8801051F82210FFF77B
:103D1C0044FE4FF0FF312046AAE0022010BD10B542
:103D2C00044606E090FAA0F0B0FA80F12046FFF7C6
:103D3C00D2FF60680028F5D110BD5F4932E038B57C
:103D4C000C464D4915460A68944204D201EB840195
:103D5C004968814201D0022032BDFFF7D5FD00F049
:103D6C0006F89A4305FA04F31A430A60AAE0534989
:103D7C000A680123A340704710B53F4B1C68A14251
:103D8C0004D203EB81035B68834201D0022010BD97
:103D9C0001F18041100001F5083118BF01200870B5
:103DAC00002010BD0968C14001F00100704710B53A
:103DBC00314B1C6801F0FF02A24204D203EB8202D9
:103DCC005268824201D0022010BD0A464FF4E02115
:103DDC0000F012F8002010BD10B1016000207047F7
:103DEC000220704780B500F01CF880F0005080F481
:103DFC00C04040F0004002BD38B51F4C25680B4652
:103E0C00114601F0FF02AA4204D204EB820252686E
:103E1C00824201D0022032BD1846FFF7BEFD0020C1
:103E2C0032BD810001F1804101F50121164A09687A
:103E3C001140234A13680143C340DB07126D48BF8E
:103E4C0041F48001C240D00748BF41F4000108464C
:103E5C0070470B4610B51146074A1468A34204D2AA
:103E6C0002EB83025268824201D0022010BD184638
:103E7C00FFF7E5FD002010BDF4210020E0200240FA
:103E8C00E020026094220020007F077F4413005042
:103E9C00A83F0050B22F0020E4220020007FC7670B
:103EAC00E8BA0000933900005D3900000030094089
:103EBC000C40094008000940C0200240D0200240BC
:103ECC0080200240FFF724FD002032BD38B5134C92
:103EDC00206810F1010F0FD100202060104D05E07B
:103EEC008968401988472068401C20600C21206894
:103EFC00484341590029F3D131BD084A1268904218
:103F0C0001D30020704709B90FF23001044A0C2389
:103F1C0003FB00200268D26810470000B80B002099
:103F2C008CBE00000FF214011822FFF7FFBB0168D2
:103F3C00896908470168C969084700000100000049
:103F4C0040420F00010000000000000000000000D3
:103F5C000000000003685B68184738B5134C2068F4
:103F6C0010F1010F0FD100202060114D05E0896880
:103F7C00401988472068401C20600C212068484369
:103F8C0041590029F3D131BD084A1268904201D33E
:103F9C000020704709B90FF23401054A0C2303FBCA
:103FAC0000200268D268104700000000B00B00200F
:103FBC0018BB00000FF214012422FFF7B7BB0368F3
:103FCC001B6918470368DB691847000000000000F4
:103FDC00FFFFFFFFFFFFFFFF0000000000000000DD
:103FEC000101010100C201000300000000000000FB
:103FFC00DFF800F0F5C00110DFF800F0D5C00110BB
:10400C00DFF800F021B30110DFF800F00DC3011050
:10401C00DFF800F081C60110DFF800F095B7011051
:10402C00DFF800F08DC20110DFF800F03DC2011086
:10403C00DFF800F009C30110DFF800F045C00110F3
:10404C00DFF800F0D1C70110DFF800F067BE0110F7
:10405C00DFF800F011C80110DFF800F021C80110E2
:10406C00DFF800F0F1C50110DFF800F039C60110DF
:10407C000C381F283ED8DFE800F0103D3D3D3D3D9B
:10408C003D3D3D3D3D3D3D153D3D3D1A3D3D1F24D6
:10409C003D3D3D293D3D3D2E3338DFF8240200687F
:1040AC0000687047DFF81802006840687047DFF856
:1040BC001002006880687047DFF804020068C0686E
:1040CC007047DFF8FC01006800697047DFF8F00109
:1040DC00006840697047DFF8E80100688069704744
:1040EC00DFF8DC010068C0697047DFF8D4010068B4
:1040FC00006A70470020704700B589B009216846F6
:10410C00FFF782FF09B000BD00B581B000F0A0FA46
:10411C00DFF8B001DFF8B0110068884218BF00F07A
:10412C009BF8DFF8A801B0F5B26F03D001B05DF8D1
:10413C0004EB92E001B000BD2DE9F04184B01D46C6
:10414C000B6880461446002226681F78002003F175
:10415C00010C242FC1F800C038D15F780CF1010399
:10416C004C2F0B6006D156F8040BAA68414600F0A0
:10417C0025FD25E0462F0DD156F8041B0191414633
:10418C0056F8040BADF8002002906846AA6800F0BF
:10419C006EFD15E0532F19D156F8040BE86126601B
:1041AC002346288B0090EA69A968D8F8000000F033
:1041BC004FFBD8F8001011B10144C8F80010266864
:1041CC000021E96001222968091A2960662F08D1AB
:1041DC00298B002911BF361DF11D21F0070101F1BA
:1041EC0008061AB9E9690F700121E960266004B06C
:1041FC00BDE8F0814FF0FF309060704700B581B0A2
:10420C0000F014FB012818BF00F0A0F80FF21D00FD
:10421C00FFF7FEFEFFF700FFFFF702FFFFF704FFBB
:10422C0001B05DF804EBFFF703BF000000B581B0EF
:10423C00FFF7E2FEFFF7DCFE01B05DF804EB0320B4
:10424C00FFF7FABE10B504460320FFF7F5FE204633
:10425C00BDE81040FFF7F4BEFEE7FEE700B581B005
:10426C00FFF7F2FEDFF86800C06801B05DF804EB00
:10427C00FFF7C6BEDFF85C10DFF85C0088617047A2
:10428C00FFF7E6BEFFF7E8BE00F077BC00F078BCA5
:10429C0001B91249FFF7E4BE10B588B004460020FE
:1042AC0001900B461820009002AA21460C48FFF7FB
:1042BC00DBFE02A9204600F0C6F808B010BD0000D5
:1042CC00F001002098CA01107047282090050000CA
:1042DC0078010020440100200004000004D00000FC
:1042EC0048CF0000DFF800F049BA0110DFF800F009
:1042FC00E5C10110DFF800F095C00110DFF800F007
:10430C000DA80110DFF800F0BDBE0110DFF800F0C1
:10431C0021C10110DFF800F0A5B90110DFF800F0A1
:10432C0021BA0110DFF800F0BDC20110DFF800F077
:10433C00B5C10110DFF800F015B60110DFF800F080
:10434C0019A70110DFF800F0D5C20110FEE7DFF865
:10435C009002007D70476EE038B5FFF7FCFFDFF888
:10436C0088520446A8680021FFF7C4FF6969081A3F
:10437C00A969814238BF002084F3118832BD2DE930
:10438C00F041FFF7E8FFDFF860520446A86801210E
:10439C00FFF7B0FF0121A9830021E9836E69296829
:1043AC002A68871B801A711A884204D20020A883BD
:1043BC0084F311882BE084F31188002406E0A619FD
:1043CC0031460120FFF79AFF3F1B0446A742F6D265
:1043DC00FFF7C1FF8046E88B012804D1314600204D
:1043EC00FFF78CFF0446A96914F1010F08BF0846BA
:1043FC0003D0E01B814238BF08468119FFF782FFCA
:10440C00012028840020A8832E6088F31188BDE841
:10441C00F08100218182DFF8CC11C06849698842A3
:10442C0004D1DFF8F4010068FDF722BD7047808AE3
:10443C007047704700BFDFF8E4110968EFF3118093
:10444C0081F3118870470021DFF8D42101601268D4
:10445C001044FDF715BD38B50446FFF7EBFF0546D4
:10446C00207C022808D12046FFF750FF0020207442
:10447C002946A068FFF74EFF00F0D6B803681A4033
:10448C0003680B408B4208BF0A4312B10168914389
:10449C000160104670472DE9F0411F4617F1010FDE
:1044AC0018BF002F92B000F0B3F80AD06B463A4612
:1044BC00DFF8701108A8FFF731FF08A8039002205D
:1044CC0002E00020039003208DF81000069507965B
:1044DC00FFF70CFF0290FFF7ADFF804632462946EE
:1044EC002046FFF7CBFF050009D0039818B1FFF762
:1044FC0019FF0020039088F31188284632E01FB979
:10450C0088F3118800202DE0FFF772FD0546029913
:10451C00DFF80C01C1F818D0694600682044FFF799
:10452C0005FF0298FFF706FF9DF81000022804BF54
:10453C000398FFF703FF88F311882846FFF7D2FE94
:10454C00FFF778FF0446039818B1FFF7EBFE002045
:10455C00039000200299886184F311889DF8100063
:10456C0000B1059812B0BDE8F081F8B50446DFF84B
:10457C00B00000680E462718FFF75CFF0546206860
:10458C00304320603846FCF737F810B185F31188BA
:10459C00F1BDFFF72DFD06463846FFF7D3FE074663
:1045AC00FA69B9692046FFF769FF786160B138464E
:1045BC00FFF7ACFE01203874F86808B1FFF729FF4B
:1045CC00B8682946FFF7A6FE85F311883046BDE88A
:1045DC00F240FFF787BE2EE7DFF854008068704783
:1045EC00A40100207801002078010020616280F392
:1045FC0011882046704738B504460D46FFF7EBFF8F
:10460C00616A2943FFF7F2FFBDE83240FFF7F8BCBF
:10461C0004460D4616467047D4D00000CCD000009E
:10462C00D8D000006344000085F3118831BD000030
:10463C00C8010020816042607047102804D3DFF865
:10464C000C101038C1F8000F7047000000E000E0BB
:10465C0001F07AB8FFF7EFBEDFF89811C20744BF3C
:10466C0001220A60820744BF4FF480720A6040073F
:10467C0044BF4FF4803008607047DFF87C21C307DB
:10468C0048BF1160830748BF5160400748BF916025
:10469C007047000010B504460020D4E90A2347F601
:1046AC00906101F04BFB0123994228BF4FF0FF3082
:1046BC0010BD10B50C4601F0B9FB011D201AB0F16C
:1046CC00004F05D8081BB0F1004F38BF8C4200D208
:1046DC000C462146BDE810400120CEE72DE9F04103
:1046EC0080460A46D8E90A01D8E90C45A0FB0267C6
:1046FC0001FB0277A6196F41340C002244EA0741F2
:10470C004046FFF7D6FFC8E90E67BDE8F081F8B563
:10471C000646FFF79FFF0446DFF8E050DFF8E07035
:10472C000120E861FFF798FFF96A096A14208847AD
:10473C003069B0F5802F34BF0421010C0120FFF744
:10474C009CFF3A681268232100209047DFF8B410D0
:10475C0001200860DFF8B400016821F4E02141F485
:10476C00803101600120286084F31188F1BD0000C4
:10477C0001F066BB10B5DFF89000446800F006F855
:10478C006069A169BDE8104008470000012063E79B
:10479C00F8B504460D4601F053FBD4E90A673246DE
:1047AC003B4601F0CBFA3DB1A6FB002306FB0133DF
:1047BC0007FB0033C4E90C23F2BD10B5DFF83C0055
:1047CC00DFF86440002101600121C1612160206893
:1047DC00FFF7DCFFDFF860100968096A14208847CE
:1047EC00206810BD000080B501F02AFB000C40EAE7
:1047FC00014002BD04200940182009400000244358
:10480C008401001080022443E401002000200940B0
:10481C00DFF8EC14096821B10A898242FAD1084602
:10482C0070470020704700002C200940DFF8D804A6
:10483C00C088704700000000B001001000F008F8BC
:10484C000EBD00BF08B582B00023009302ABF5E7A4
:10485C0077B58DB01C461498ADF8180000250F984C
:10486C0028B92CE10EAA0DA800F070F96D1C00F00F
:10487C0032F9080000F01D812529F3D100F02BF945
:10488C002D2905D10120ADF8060000F024F902E035
:10489C000020ADF80600302904D10120049000F06E
:1048AC001AF901E000200490002000904FF0FF3036
:1048BC0002900A202A2918D12168216051F8042B72
:1048CC002160009200F0FDF8009A002A11D5012217
:1048DC00ADF80620009A524200920AE0009A00FBC2
:1048EC0002113039009100F0ECF8A1F130020A2AE3
:1048FC00F4D32E291AD1002100F0F2F82A290F92B4
:10490C0010D100F0F9F80291002944BF0020029068
:10491C0000F0E1F80AE0029A00FB0211303900F0D5
:10492C00DFF80F92A1F130020A2AF4D3049808B1EF
:10493C00009804906C2918BF4C2905D10120ADF8C2
:10494C00040000F0C8F802E00020ADF8040008A84C
:10495C0007900CA805900020642918BF69290390C2
:10496C000DD1BDF818000028FFD000F0BFF86FF093
:10497C0009030298049A8242B8BF049019E00A23F2
:10498C0075291FBF1023782908236F2903D1BDF87F
:10499C00180038B906E0702913D104932068206000
:1049AC00016814E000F0A2F8049A02988242B8BFA1
:1049BC000490049A059800F0A5F807900599081A38
:1049CC002FE0632919D12068206001680FE0001DD9
:1049DC00206010230598082200F094F8401E0790E0
:1049EC0040200799087005980799401A19E0001D96
:1049FC00206007980170012013E0732913D100F097
:104A0C007BF8079111B90FF244300790079801F029
:104A1C0023FA0390029810F1010F1ED003998842DB
:104A2C001BDA039019E00F98401E0F900E98022885
:104A3C0013D3029810F1010F02D00E99884201D3C2
:104A4C000E9800E0401CDFF8C462366802906B469A
:104A5C0022460FA90DA8B047451900980399401A92
:104A6C000090BDF8060038B902E000F030F86D1C7B
:104A7C000098401E0090F8D50398411E039150B148
:104A8C000798401C07900EAA10F8011D0DA800F005
:104A9C005DF86D1CF0E7BDF8060000283FF4E7AEAA
:104AAC000098401E00903FF5E2AE00F010F86D1C2F
:104ABC00F6E70D9810B10D9900200870284610B03B
:104ACC0070BD0F990F9A0978521C0F9270470EAA5D
:104ADC0020210DA83AE00F9810F8011B0F90704799
:104AEC0002910F990F9A0978521C70472068206028
:104AFC000168001D206070472068206050F8041B7E
:104B0C0020607047F0B500240025002B44BF5B42A9
:104B1C00002902D54942521E2D25B1FBF3F60FF2A6
:104B2C00342703FB1611641C795C00F8011D314617
:104B3C000029F2D19442BEBF302100F8011D641C43
:104B4C00F8DB290018BF00F8015DF0BD10B50C466C
:104B5C00116802290BD3491E1160016819B14A1C56
:104B6C0002600C7010BDFFF791FB00B100E010BDAE
:104B7C002046BDE81040FFF787BB65490968084728
:104B8C0064480068004701207047FEE77047704793
:104B9C0010B50446606808B9012010BD0B460146EB
:104BAC00206852A200F0BCF8A1684118A1606168AD
:104BBC000129A4BF081A6060002010BD2DE9F04146
:104BCC0004468846A088164600F021F80746F11BDB
:104BDC00002E01D40A2904DB236845A200F083F8D7
:104BEC00C719A08980B1F51BA468002E05D42046F6
:104BFC0001F032F9401D854206DB23460FF26812A4
:104C0C00294600F070F8C7193846BDE8F0813EB56A
:104C1C000D463A49098814468142034628BF0FF2D3
:104C2C00501210D237490988814207D3FFF7F0FDA3
:104C3C0021464268284600F073F83EBD2D4909888C
:104C4C0031B90FF238122146284600F069F83EBD02
:104C5C00314B1B680095002C48BF47F6FF740021B0
:104C6C00029101946A462D49984702983EBD2DE960
:104C7C00F843170048BF47F6FF77044688460026DE
:104C8C0074B32088010004D03A464146FFF7BFFFB9
:104C9C000646B91B012922DB208820B116A240460A
:104CAC0000F03EF88619A068C8B1656875B1284651
:104CBC0001F0D2F8A7EB0609401D814506DB2B4617
:104CCC000FF2CC02494600F00EF88619B91B1229D6
:104CDC0005DBA3680FF2C00200F005F88619304618
:104CEC00BDE8F283000040461AE000002573000086
:104CFC00257000008A0500003A2000007E000000AC
:104D0C00C00B00207C000000F0010020F8D0000057
:104D1C00F0D00000F4D00000FCD000009D4B00004F
:104D2C0008B478B504001ABF2668002E00260D467C
:104D3C0005AB3046FFF786FD854238BF681E16B1BD
:104D4C0021680144216072BC5DF808FB286E756C0B
:104D5C006C290000303132333435363738396162E2
:104D6C00636465660000000028272573272900006E
:104D7C007B6D6F64756C652325647D007B6D6F6442
:104D8C00756C652D726F70653A25787D000000009A
:104D9C00222573222C2000006C696E652025643A54
:104DAC002000000016B504460A46009401AB694683
:104DBC0006487844163001F06BF8009A0021117007
:104DCC0000285CBF0098001B16BD00BF91B2FFFF0E
:104DDC0038B5134C206810F1010F0FD10020206062
:104DEC00104D05E0C968401988472068401C2060B8
:104DFC000C212068484341590029F3D131BD084AA0
:104E0C001268904201D30020704709B90FF22401B7
:104E1C00044A0C2303FB00200268126910470000AF
:104E2C00B40B0020BCBB00001021FBF71DB90268BD
:104E3C005269104700000000000000000000000054
:104E4C000000000062F30F2262F31F4200B500BFA6
:104E5C00130096469446103928BFA0E80C50FAD897
:104E6C005FEA417C28BF0CC048BF40F8042BC9073F
:104E7C0028BF20F8022B48BF00F8012B00BD000012
:104E8C00EFF3108072B67047EFF3108062B6704784
:104E9C000138FDD17047704730480068000C00F0B5
:104EAC000700052828BF4FF0FF3070472C490A68CF
:104EBC00C2F30F324BF69A139A424FF0FF3006D1E1
:104ECC000868000F0B280CBF0420002070474BF61D
:104EDC00BE118A4201D1012070474BF641318A4202
:104EEC0001D1032070474BF620318A4208BF0220C3
:104EFC00704700001A48F8B50068050F194800689B
:104F0C0000F0FF06802E28BF0026FFF7CFFF0428F5
:104F1C004FF0FF3406F10A071DD8DFE800F003124A
:104F2C001A1A1B00012D12D0032D06D0072D06D006
:104F3C00082D08BF06F116040DE014240BE015240F
:104F4C0009E025B1022D08BF06F1140403E00A2480
:104F5C0001E005B93C4660B2F2BD0000941200506D
:104F6C0018130050A010005080B5FFF79FFF20B918
:104F7C00FFF7C0FF162800DB01BDFEE7DFF800F0ED
:104F8C00E1B5011020B1082324220021FCF768BFF1
:104F9C00704780B50120009009234FF40072002166
:104FAC00DFF8080701F025FA01BD80B500230122C6
:104FBC003421DFF8F80601F02FFA00B10120C0B25D
:104FCC0002BDDFF8EC0680687047DFF8E416401885
:104FDC0090F8ED0070470022022904D1012806D177
:104FEC0040F2EE2203E0012808BF4FF47A7210461B
:104FFC007047DFF8BC06D0F8DC007047DFF8B0066D
:10500C0090F8E61021B1D0F80C01010018BF004750
:10501C0070472DE9F041DFF8988608F1E1058AB078
:10502C00A879002861D10120A871DFF88866DFF823
:10503C008876307B68717068C8F80C0101A8FFF79E
:10504C00A1FF00200690ADF81400079001AB0022E0
:10505C000FF2F54108F10C00FCF70EFF01AB00223A
:10506C000FF2A15108F13000FCF706FF01AB002252
:10507C000FF2D94108F15400FCF7FEFEB168012093
:10508C008847DFF8380600787868C0F38154707B65
:10509C0020B1032C02D10120287003E0032C18BF8F
:1050AC00022C16D1022000F09DF8032CDFF810160C
:1050BC000CBF4FF47A7042F210700968B0FBF1F13A
:1050CC0008F15400FCF7D0FE08F15400FCF7D0FEB8
:1050DC0005E0012C03D100F063FAFFF75AFF3868A2
:1050EC0040075CBF002000F07DF80AB0BDE8F081FD
:1050FC0010B508B1140001D1022010BD8160C2604E
:10510C0003610146DFF8A80501F0A0F9002010BDED
:10511C0010B50446FEF7F8FBDFF89415621892F808
:10512C00E8305B1E82F8E830DBB223B98A680123D1
:10513C00A3409A438A6066E02DE9F0410546FEF7EC
:10514C00E3FB8046DFF86815681890F8ED20521ED6
:10515C0080F8ED20D2B2002A3FD10FF2A050DFF838
:10516C00644500EB85052E786F88300615D52168CF
:10517C00096A384688472168896A38468847216811
:10518C00096B38468847DFF8401501200860DFF8C6
:10519C003C0500688007FAD512E0700606D501EBD5
:1051AC0087010020D1F80011884709E0216889693E
:1051BC00384688472168496B384688470228F9D118
:1051CC0006F03F003F2818BFFFF7B6FF687800F0E5
:1051DC003F003F2818BFFFF7AFFF4046BDE8F04146
:1051EC00FEF796BB10B50446FEF78EFBDFF8C01435
:1051FC008A680123A3401A438A60611891F8E82059
:10520C00521C81F8E820BDE81040FEF781BBF8B5D0
:10521C000646FEF779FB0446DFF89454701990F8B3
:10522C00ED104A1C002980F8ED2039D10FF2CC404A
:10523C0000EB8607387800F03F003F2818BFFFF7D7
:10524C00E6FF787800F03F003F2818BFFFF7DFFF3C
:10525C007E883878DFF86C7401060ED53968C96918
:10526C00304688473968496A304688473968C96A80
:10527C003046884700F019F812E0400606D505EBD9
:10528C0086010120D1F80011884709E03968496985
:10529C00304688473968496B304688470128F9D130
:1052AC002046BDE8F240FEF733BBDFF81C140120AA
:1052BC000860DFF8180400688007FAD570472DE9FC
:1052CC00F04F002483B04FF0000A0128D04618BFDD
:1052DC00012664D1DFF8D893D9F8DC0001285DD120
:1052EC000220C9F8DC00FEF783FE0090012000F0DC
:1052FC0062F9060054D1FEF77FFEDFF8D813019057
:10530C000C60012001F0E6F8012804D1002000F027
:10531C00A7F94FF0010ADFF8C013DFF8B4030C60F3
:10532C0000681120FFF751FE08B14FF00108102062
:10533C00FFF74BFE08B148F002080F20FFF745FEBF
:10534C0008B148F004080B20FFF73FFEDFF8746348
:10535C0020B13168096B4FF4806088470A20FFF751
:10536C0034FE20B13168096B4FF481608847DFF857
:10537C005813DFF86873DFF868B30120086048F051
:10538C002000316889698847DFF8581301200860CC
:10539C0099F80800C00707D5012416E0042673E02D
:1053AC000120C9F8DC006CE0584601F049F90546CB
:1053BC00042DF9D0012D04D1326A526803215846CC
:1053CC0090473868800880003860002001F040F970
:1053DC00BF4800683068806B804754B9012D04D1F8
:1053EC00326A5268012158469047386840F00300F1
:1053FC0038600120B84908604046316849698847DF
:10540C000B20FFF7E2FD20B13168C96A4FF48060D0
:10541C0088470A20FFF7D9FD20B13168C96A4FF4DB
:10542C0081608847A849012008600020AD490860C8
:10543C000320C9F8DC003168496B404688470128D5
:10544C00F9D1042000F0B7F8A24901200860A04867
:10545C000068A54800688006FBD5BAF1000F1CBF98
:10546C00012000F0FDF8FFF70FFD082000F0A3F875
:10547C0006460120C9F8DC000198FFF77FFD01F01A
:10548C00B7F90098FEF72EFF3046BDE8FE8F38B511
:10549C000446FEF739FA05462146854800F0EAFF36
:1054AC0028464BE030B5002401288BB004D021D322
:1054BC0003281DD018D31DE001A8FFF763FD7C4D18
:1054CC008A490694ADF81440079401AB012205F10A
:1054DC007800FCF7D1FC00940023854A2C2105F1BF
:1054EC009C00FEF729FA05E019F09CFD044601E04A
:1054FC0019F03EFE20460BB030BD00F0F8BF38B5B9
:10550C00FEF702FA05466A4890F8E000012410B153
:10551C00FFF74BFD04462846FEF7FAF9204632BD4C
:10552C0038B5FEF7F1F9624D044695F8E00020B16C
:10553C0001F024F8002085F8E0002046BDE8324058
:10554C00FEF7E6B9000000007047000010B582B00D
:10555C00042000F0BFFF022818BF032807D100F079
:10556C001FF8FFF716FDBDE816400220D0E5614894
:10557C00534900684E4CC0F3815003280CBF4FF4C4
:10558C007A7041F288300968B0FBF1F104F15400F3
:10559C00FCF76AFC04F15400BDE81640FCF768BC4B
:1055AC00032000901C234FF0405200213F4800F094
:1055BC0020BF0020704770B504463D4E304600F0C9
:1055CC003BFF002598B9304600F03CFF0646B0681A
:1055DC00204207D03269F3680021204698470546DF
:1055EC00012D05D0304600F02FFF0600EFD12846E4
:1055FC0070BD414901280CBF40F2FF7000200860CB
:10560C000020704770B5FEF77FF9294E294D0446EE
:10561C0096F8E00028B100F0B1FF68B1002086F8E0
:10562C00E0000220AD68A84706461020FFF7C3FF34
:10563C008EB10320A8470EE0214909683220B0FB47
:10564C00F1F101B9012106F13000FCF70DFC06F176
:10565C003000FCF70DFC2046BDE87040FEF758B951
:10566C0038B501281ED100F035FF01281CD000F000
:10567C007BFF0F4C1249012084F8E00032200968AE
:10568C00B0FBF1F505B9012504F13000FEF7C1FEC0
:10569C00294604F13000FCF7E7FB04F13000FCF77D
:1056AC00E7FB01E000F08CFF002032BD00A00C40B5
:1056BC00A00A0020F0BA0000B03F0050B22F00202A
:1056CC00D0D00000B8010010282008602820084025
:1056DC002C2009400C40094000022243242208409F
:1056EC00004003408001044314100940B9F201004A
:1056FC0089F00100B43F0050000004608F3F0000AF
:10570C008F3F01008F3F02008F3F0300903F00014D
:10571C008F3F0101903F0002903F00038F3F010437
:10572C008F3F00058F1208048F3F00048F3F000647
:10573C00513F00007F3F01003F3F04003F3F02000C
:10574C003F3F01007F3F020010B5DFF824050468DD
:10575C0014F1010F08BF0024FFF706FCDFF8141545
:10576C00002008600120DFF810150860DFF80C1528
:10577C00086000F04CFADFF80805006828B1DFF883
:10578C0004050068204600F022F8DFF8FC14DFF86E
:10579C00FC2400200860DFF8F80401686FF31B415B
:1057AC0011430160DFF8EC040168C1F301310129F8
:1057BC0007D10168DFF8E024114041F400320260A7
:1057CC000160DFF8D80400680028FAD110BD70B56C
:1057DC000546DFF8CC0401210160DFF8C814096824
:1057EC000029FAD0DFF8C044DFF8C024C0212160C2
:1057FC005368DFF8BC149B075DBF13681B0C43F0A8
:10580C00F00372230B70002101639668304600F0A0
:10581C0031F83146284600F061F8DFF89804816DC4
:10582C0089B240F20F22914214D201680068C1F390
:10583C000361C0F3034001B1491E072805D00628B7
:10584C000EBF0720801C00F00F0041EA0010DFF8AB
:10585C0068140870304600F0B2F8DFF8601409687C
:10586C00C96802208847402020600120DFF85014CE
:10587C00086070BD10B50446DFF848040068C0F33A
:10588C00046000F0C0F92117491C08181628A8BF9D
:10589C00152004DA6FF009018842B8BF084600F001
:1058AC001F00DFF8241440F4F8500880DFF81C04C3
:1058BC00006880074FBF44F040640020DFF81014EC
:1058CC000860DFF81004C4F3C06181F001010160CD
:1058DC00C4F3806181F00101816010BD70B5054693
:1058EC0082B0084600F0F0F80246DFF8EC431821CD
:1058FC0000F062F800F014F980B20090002340F23E
:10590C00FF322C21204600F074FDDFF8D063F068E4
:10591C00C0F30D021C2100F04FF8706800F0FC324F
:10592C00142100F049F83068DFF8B413DFF8B463E1
:10593C0001EA0002102100F03FF8284600F0FAF8C6
:10594C0002460C2100F038F8284600F01EF9400001
:10595C0040F020003072284600F020F940F0100092
:10596C003072284600F023F90246282100F024F872
:10597C00284600F001F9400040F06000F072284623
:10598C0000F02FF9C00040F080003070284600F085
